:1000000000000320D1010000357A0200ED790200E2
:10001000ED790200ED790200ED790200ED79020040
:10002000ED790200ED790200ED790200357A0200E7
:10003000357A0200ED790200199A02001D9A020039
:10004000357A0200357A0200357A0200357A0200EC
:10005000357A0200357A0200357A0200357A0200DC
:10006000357A0200357A0200357A0200357A0200CC
:10007000357A0200357A0200357A0200357A0200BC
:10008000357A0200357A0200357A0200357A0200AC
:10009000357A0200357A0200357A0200357A02009C
:1000A000113C02001D3C0200357A0200357A020044
:1000B000357A0200357A0200357A020071AB02000F
:1000C000357A0200E1B20200357A0200357A020088
:1000D000357A0200357A0200357A0200357A02005C
:1000E000357A0200357A0200357A0200DD730200AB
:1000F000357A0200357A0200357A0200357A02003C
:10010000699D02007D9D0200919D0200A59D020057
:10011000357A02009D830200357A0200357A0200AA
:10012000357A0200357A0200357A0200357A02000B
:10013000357A0200357A0200357A0200357A0200FB
:10014000357A0200357A0200357A0200357A0200EB
:10015000357A0200357A0200357A0200357A0200DB
:10016000357A0200357A0200293C0200357A020015
:10017000357A0200357A0200357A0200357A0200BB
:10018000357A0200357A0200357A0200357A0200AB
:10019000357A0200357A0200357A0200357A02009B
:1001A000357A0200357A0200357A0200353C0200C9
:1001B000357A0200357A0200357A0200357A02007B
:1001C000357A0200357A0200357A0200357A02006B
:1001D0005C4B4CF2205210B51A804DF628121A8052
:1001E00000BF00BF27F02AFC574B4FF030621A6067
:1001F000564A9A60564ADA60564B4FF470021A60BB
:10020000554B564A1A60564B1A78110703D51A787F
:1002100042F008021A70534B5349AA221A70534AEB
:10022000534B8B4204D252F8040F43F8040BF8E707
:10023000504B514900228B4202D243F8042BFAE77B
:100240004E494F4A002352F8230041F8230001335E
:10025000742BF8D14B4B4C4A802103F8011B93427D
:10026000FBD14A4B454A1A60494B8A221A70A3F5C2
:10027000805324225A70A0221A709A799207FCD5D2
:100280009A79D406FCD4434A937903F00C03082BE3
:10029000FAD1414B60221A7002331A78802AFCD1BD
:1002A0003C4B01221A715D225A719A799006FCD555
:1002B0009979384A4906FBD5384B394919600021EC
:1002C000596020231370937903F00C030C2BFAD19F
:1002D000344B354A1A60354A354C136813F4807331
:1002E00003D123604FF4A8531360324B324A1A6093
:1002F00000225A60072243F8042C304AC3F80C2D20
:1003000062B627F0B9FE2368DA0705D52C4827F036
:1003100071FC2C4B2C4A1A602C4B1B785B0609D5C0
:10032000284C294B22689A4204D1254827F062FCC8
:10033000002323602BF08AFA27F086FB29F0CCFFFC
:10034000FEE700BF0E20054030800440823F0400DD
:100350000100002B88ED00E0002008E0030000858C
:1003600002D0074000E007404021FF1F74FA03005D
:100370005008FF1F0030FF1FAC7900200002FF1F54
:100380000000000000E400E064E400E008ED00E0AC
:10039000005006400040064001E007404480044011
:1003A0000000060204800440C010070010D0034083
:1003B00014D0034014E000E01FBF02000000202022
:1003C00019E775601CE00340A5C3945A00F007408C
:1003D000FFFFFFFFFFFFFFFFFFFFFFFFFFFFFFFF2D
:1003E000FFFFFFFFFFFFFFFFFFFFFFFFFFFFFFFF1D
:1003F000FFFFFFFFFFFFFFFFFFFFFFFFFFFFFFFF0D
:10040000FFFFFFFFFFFFFFFFFFFFFFFFDEF9FFFF23
:1004100010B5054C237833B9044B13B10448AFF33E
:1004200000800123237010BD0030FF1F000000007A
:1004300070FA0300084B10B51BB108490848AFF328
:1004400000800848036803B910BD074B002BFBD0A0
:10045000BDE81040184700BF000000000430FF1F37
:1004600070FA03004021FF1F0000000000207047C9
:10047000704700BF72B6034B012283F8A42062B616
:10048000704700BF049AFF1F704700BF704700BF4E
:10049000704700BF704700BF704700BF2DE9F041B3
:1004A000DFF834800A4C98F800300A4F1E1104F12E
:1004B000380501E098F8003054F8040FB95D02687F
:1004C0001943D2699047AC42F4D1BDE8F08100BF36
:1004D0003809FF1FFC690020F8CEFF1F704700BFDE
:1004E00030B490F820409DF808509C4201D030BCB8
:1004F000704790F82130AB42F9D10029F7D180F84C
:100500004C20F4E7704700BF704700BF044A4379AE
:1005100010780133181AB0FA80F04009704700BF14
:10052000B210002070B4838C0A4C42790A4D0B49FA
:10053000B0F84A602E70A4FB034301326425002406
:100540005B090A70A0F84A5080F84D40A0F8483086
:1005500070BC70471F85EB51499CFF1FB2100020F3
:100560000368DB6F184700BF01EBC10301EB4301D8
:100570008900064A01F11C032C3113440A4420214E
:1005800003F8011F9342FBD1012070471C30FF1F6D
:1005900000207047002070470368D3F89830184750
:1005A0000846704701EBC10301EB43018900064A8D
:1005B00001F11C032C3113440A44202103F8011FCC
:1005C0009342FBD1704700BF1C30FF1F002380F80F
:1005D0006610A0F864307047002070470020704714
:1005E000704700BF704700BF90F86A304BB10133CD
:1005F000DBB2022B88BF012380F86A30014B022254
:100600001A707047E00E002001EBC10301EB4301BB
:100610008900064A01F11C032C3113440A442021AD
:1006200003F8011F9342FBD1012070471C30FF1FCC
:10063000704700BF704700BF002070470020704720
:10064000704700BF5D207047542901D802207047D1
:100650005D2934BF80200020704700BF0379022B42
:1006600006BF90F8F20040005D20704790F8F3005C
:10067000704700BF082070472F2070472E2906D8EA
:10068000044B01EB410103EBC101087A70470020E4
:10069000704700BF4839030043790A4A0A4910B439
:1006A0000133B0F84A4014700B704FF49674002276
:1006B000A0F84A40A0F8482080F84D205DF8044B8F
:1006C000704700BF499CFF1FB210002090F84D30CA
:1006D0004BB9C1EB0111490089B2022986BF033928
:1006E00088B200207047B0F8483001EB4101C3EBFD
:1006F000031301EB430189B2EFE700BF2E207047DF
:100700002D2906D8044B01EB410103EBC101087A06
:1007100070470020704700BFCCB10300082070472D
:100720001531C8B2704700BF022380F86A307047A5
:1007300043790A4A0A4910B40133B0F84A401470A8
:100740000B704FF4C8740022A0F84A40A0F848206B
:1007500080F84D205DF8044B704700BF499CFF1F97
:10076000B2100020026890F84E1080F85110136CFF
:10077000184700BF0F2907D801EB4102034B01EBDB
:1007800082011944087B70470020704784C703002A
:1007900010B40AB990F86A20012A1FD0022A1BD08F
:1007A000032A0CBF0D2400240D4A01EBC10001EB0C
:1007B00040004C2303FB0121800000F11C032C307E
:1007C00013444C860244202103F8011F9342FBD1BD
:1007D00001205DF8044B70470C24E5E70B24E3E7A8
:1007E0001C30FF1F43790D4990F8952030B40C4C14
:1007F000B0F84A50257001330B7052B14FF4FA73C0
:10080000A0F84A300023A0F8483080F84D3030BCC2
:1008100070476423A0F84A30F4E700BFB21000200C
:10082000499CFF1F1220704790F86A304BB101338A
:10083000DBB2032B88BF012380F86A30014B012211
:100840001A707047E00E002010B40AB990F86A20C0
:10085000012A1FD0022A1BD0032A0CBF0D2400241A
:100860000D4A01EBC10001EB40004C2303FB0121C9
:10087000800000F11C032C3013444C8602442021DC
:1008800003F8011F9342FBD101205DF8044B704730
:100890000C24E5E70B24E3E71C30FF1F4379094AEA
:1008A000094910B40133B0F84A4014700B70502459
:1008B0000022A0F84A40A0F8482080F84D205DF8BA
:1008C000044B7047499CFF1FB21000208A207047DC
:1008D00090F866300BB98A207047024A134413F827
:1008E000010C7047746E0020F0B490F86660CEB1D1
:1008F00000230F4A1D460B2403E08A2B0ED012F86A
:100900001C4CB442DFB202F11C0203F10103F4D12A
:10091000A9420AD001358A2BEDB2F0D14FF6FF7013
:10092000F0BC70470846F0BC7047B8B2F0BC7047E6
:10093000796F0300704700BF1020704790F86A304D
:100940004BB10133DBB2022B88BF012380F86A3040
:10095000014B01221A707047E00E002030B40AB932
:1009600090F86A20012A20D0022A12D001EBC1039C
:1009700001EB430189000E4A01F11C032C311344A1
:100980000A44202103F8011F9342FBD1012030BC0F
:1009900070470F23064C05684C2202FB01441A469F
:1009A0006386D5F8943030BC18470E23F2E700BFB9
:1009B0001C30FF1F0120704721B109298CBF002086
:1009C00001207047084670474379094A094910B425
:1009D0000133B0F84A4014700B7024240022A0F8B0
:1009E0004A40A0F8482080F84D205DF8044B70473D
:1009F000499CFF1FB210002009207047082994BFAE
:100A000002200020704700BF704700BF0F207047D2
:100A10000E2907D8044B01EB4101C1EBC101194478
:100A2000887C704700207047043E03000C4A01EBAD
:100A3000C10001EB40004C2303FB0121800010B4F6
:100A400000F11C030E242C304C8613442021024458
:100A500003F8011F9342FBD101205DF8044B70475E
:100A60001C30FF1F43790A4A0A4910B40133B0F819
:100A70004A4014700B704FF4C8740022A0F84A402A
:100A8000A0F8482080F84D205DF8044B704700BF67
:100A9000499CFF1FB210002090F84D3043B901EB84
:100AA0008101C900032986BF043988B2002070473C
:100AB000B0F8483003EB830301EB4301890089B2AE
:100AC000F0E700BF63207047622905D8034B1A2264
:100AD00002FB0131887A7047002070478856030076
:100AE0001A207047112986BF0331C8B208467047E3
:100AF0000139C9B207299DBF90F8720340FA01F18C
:100B000001F001000020704790F86A304BB10133CA
:100B1000DBB2022B88BF012380F86A30014B01222F
:100B20001A707047E00E0020B0207047C12906D827
:100B3000044B01EB410103EBC101887870470020B1
:100B4000704700BF04E0030090F866300BB9C22084
:100B50007047024A134413F8010C704754350020C3
:100B6000F0B490F86660CEB100230F4A1D460C2405
:100B700003E0C22B0ED012F8184CB442DFB202F1DF
:100B8000180203F10103F4D1A9420AD00135C22BA6
:100B9000EDB2F0D14FF6FF70F0BC70470846F0BCE4
:100BA0007047B8B2F0BC704733E0030027207047AD
:100BB00010B4054C4C2000FB014181F8303081F825
:100BC0003C205DF8044B70471C30FF1F90F86A30E2
:100BD0004BB10133DBB2022B88BF012380F86A30AE
:100BE000014B01221A707047E00E0020062070476A
:100BF00010B40A4A0A4813780A49012B96BF0A4BD7
:100C000003F1FF331B781370084A0023012413708B
:100C100004700B705DF8044B704700BF4B9CFF1FC6
:100C20003883FF1F856E00208109FF1F29130020D4
:100C300010B40A4A0A49137809780A4899428CBFC5
:100C4000013301231370084A08490023012413705B
:100C500004700B705DF8044B704700BF4B9CFF1F86
:100C60008109FF1F3883FF1F29130020856E002094
:100C7000704700BF10B5044B044640F8303B29F0E4
:100C8000E7F8204610BD00BFC886030010B5044B2E
:100C9000044640F8303B29F0DBF8204610BD00BF89
:100CA000C886030010B5044B044640F8303B29F0D9
:100CB000CFF8204610BD00BFC886030010B5044B16
:100CC000044640F8303B29F0C3F8204610BD00BF71
:100CD000C886030010B5044B044640F8303B29F0A9
:100CE000B7F8204610BD00BFC886030010B5044BFE
:100CF000044640F8303B29F0ABF8204610BD00BF59
:100D0000C886030010B5044B044640F8303B29F078
:100D10009FF8204610BD00BFC886030010B5044BE5
:100D2000044640F8303B29F093F8204610BD00BF40
:100D3000C886030010B5044B044640F8303B29F048
:100D400087F8204610BD00BFC886030010B5044BCD
:100D5000044640F8303B29F07BF8204610BD00BF28
:100D6000C886030010B5044B044640F8303B29F018
:100D70006FF8204610BD00BFC886030010B5044BB5
:100D8000044640F8303B29F063F8204610BD00BF10
:100D9000C886030010B5044B044640F8303B29F0E8
:100DA00057F8204610BD00BFC886030010B5044B9D
:100DB000044640F8303B29F04BF8204610BD00BFF8
:100DC000C886030008B5C82027F004F9014B024A81
:100DD0001A6008BD0CED00E00400FA05F8B50F4CF0
:100DE00004F1100514F8011F0D4829F083F9AC42F5
:100DF000F8D10C4B0C491F780F700C4E0C4D0D4A5E
:100E00000D4C0E480821197010270123022137705C
:100E10002B70117023700370F8BD00BF4B9BFF1F38
:100E200044130020371F00205C3100208109FF1F80
:100E30004B9CFF1FE00E0020C11000203883FF1FD5
:100E400038B504460023CD2200F1300580F88C200F
:100E50001121237184F88D3084F88E3084F88F301E
:100E6000284628F0FDFF2846034929F0E1F8012330
:100E700084F8523038BD00BFC41103001046014948
:100E800029F0D6B8D81103001846014929F0D0B886
:100E9000E81103001046014929F0CAB8EC1103001B
:100EA0001046014929F0C4B8F81103001046014961
:100EB00029F0BEB8E8110300F8B510491048114CEC
:100EC00029F0B6F804F1080514F8011F0C4829F0C0
:100ED00011F9AC42F8D10C490C4B0A781A700C4F3E
:100EE0000C4E0D480D4D0E4C082201230A700221B4
:100EF0003A70337001702B702370F8BDD411030069
:100F00004413002094170020371F00205C3100207C
:100F10008109FF1F4B9CFF1FE00E00207331002052
:100F20003883FF1F811D104629F0D6B810460149AD
:100F300029F0D2B8001203001046014929F0CCB8BC
:100F4000D4110300072900D9704701EB8100034B3E
:100F500001EB40011944104629F0BEB806D5030044
:100F6000044B01EB410103EBC1011046093129F0AB
:100F7000B3B800BF48390300044B01EB410103EB58
:100F8000C1011046093129F0A7B800BFCCB1030058
:100F900010B401EB4103044C01EB830121441046E2
:100FA0005DF8044B29F098B884C70300024B104643
:100FB00003EB011129F090B85CD7030010B401EBEA
:100FC0004103044CC1EBC301214410465DF8044BBE
:100FD00029F082B8A4A30300034B01EB8101104662
:100FE00003EB410129F078B874C9030001EB41011A
:100FF000034BC1EBC1011046194429F06DB800BF85
:10100000043E0300622900D97047044B1A2000FBFC
:1010100001310B31104629F05FB800BF885603003C
:10102000044B01EB410103EBC1011046033129F0F0
:1010300053B800BF04E00300262903D91046054930
:1010400029F04AB8044B01EB4101104603EBC10102
:1010500029F042B810120300DCC30300262903D98B
:101060001046064929F038B8054B01EB410103EB66
:10107000C10110460E3129F02FB800BF1012030035
:10108000DCC3030070B501EB41030C461F49C4EB00
:10109000C303054619441046164629F01DF80B2CCB
:1010A00000D970BD3A21304629F024F8AB8C184A9B
:1010B0001849126803EB4303C3EB03131A44224499
:1010C0000023547D92F82120184606E00133712B4D
:1010D00001F1130114D011F8130C8442DDB2F5D1E3
:1010E00011F8120C9042F1D155B103EBC3020A4939
:1010F00003EB420330461944BDE8704028F0ECBFD2
:1011000030460649BDE8704028F0E6BFB5A30300AD
:10111000F83700206F7E03005E7E0300101203008C
:1011200030B4B9B101EB4103C1EBC303DBB200F250
:101130003C4100F24445C418013394F86C4301F873
:10114000014FA942DBB2F6D100F23D4130BC10465E
:1011500028F0C2BF1723EAE730B589B00D4604A8CE
:101160000B49144628F0B4FE2946684628F0E2FEF2
:10117000694604A828F0E2FF0146204628F0A8FFAF
:10118000684628F065FE04A828F062FE09B030BD6C
:101190001412030030B589B00D4604A80B4914465B
:1011A00028F096FE2946684628F0C4FE694604A841
:1011B00028F0C4FF0146204628F08AFF684628F040
:1011C00047FE04A828F044FE09B030BD20120300F9
:1011D00070B50F4CA4FB0134E4080D4604F1410145
:1011E00084B0C9B2104604EB8404164628F082FF8E
:1011F000A5EB44010A2289B2684628F0AFFE694691
:10120000304628F065FF684628F022FE04B070BD25
:10121000CDCCCCCC2DE9F041454FA7FB013464087F
:10122000622C8CB00D46164673D990F8933003F1BA
:101230003102B4EB420F804670DC62339C4256DCD4
:101240003C49304628F048FF6FF494731D44ADB21A
:10125000A7FB0534C4F34F040134374FE4B2A7FBB6
:101260000437FF0839460A22684628F077FE07EB64
:101270008707694608A828F03FFEA4EB47010A2229
:10128000C9B204A828F06AFE04A908A828F056FFED
:101290000146304628F01CFF04A828F0D9FD08A814
:1012A00028F0D6FD684628F0D3FD08A8234928F089
:1012B0000FFE1F49A1FB0531490801EB4101691AE5
:1012C00089B20A22013104A828F048FE04A908A81E
:1012D00028F034FF0146304628F0FAFE04A828F032
:1012E000B7FD08A828F0B4FD0CB0BDE8F0811449A2
:1012F000304628F0F1FE98F8933003EB4303C3F532
:101300007E43D7331D44ADB2A7FB0534C4F34F046D
:10131000A2E75521104628F0EDFE9DE70949304629
:1013200028F0DAFE98F8933003EB43035B00E6E71E
:10133000ABAAAAAA54120300CDCCCCCCE81103006E
:10134000801A0300281203002DE9F04390F895302D
:1013500095B00C461546002B51D1042948D90C1FD5
:1013600008A8564928F0B4FD5549A4B2A1FB0431A0
:101370000A22490904A828F0F1FD04A908A828F0C8
:10138000DDFE504BA3FB0426F608B1B2A3FB0123FC
:10139000DB0803EB8303A1EB430107460A2289B272
:1013A0000CA828F0DBFD0CA9384628F0C7FE06EB98
:1013B0008606A4EB46010A22074689B210A828F047
:1013C000CDFD10A9384628F0B9FE0146284628F080
:1013D0007FFE10A828F03CFD0CA828F039FD04A8D9
:1013E00028F036FD08A828F033FD15B0BDE8F083DD
:1013F0001046354928F070FE15B0BDE8F083314E37
:101400002F49A6FB0437BF0807F10109A1FB0931E9
:101410000A22A6FB0938C1F34F11684628F09EFD49
:101420004FEAD808694608A828F066FD1FFA88F137
:10143000A6FB0136F60806EB8606A1EB46010A225A
:1014400089B204A828F08AFD04A908A828F076FE2D
:1014500008EB8808A9EB48010A22064689B20CA8C5
:1014600028F07CFD0CA9304628F068FE174928F0CA
:101470006DFE07EB8701611A89B20A220646013127
:1014800010A828F06BFD10A9304628F057FE014641
:10149000284628F01DFE10A828F0DAFC0CA828F039
:1014A000D7FC04A828F0D4FC08A828F0D1FC684692
:1014B00028F0CEFC15B0BDE8F08300BF3412030065
:1014C0001F85EB51CDCCCCCC2C120300E8110300CE
:1014D000F0B590F8953091B004460F461646002BB3
:1014E00036D190F84D30002B75D190F84810614DF1
:1014F00001EB810107EB4104E4B2A5FB0435ED08E3
:1015000029460A2204A828F029FD05EB850504A92F
:101510000CA828F0F1FCA4EB4501C9B20A2208A8E6
:1015200028F01CFD08A90CA828F008FE524928F054
:101530000DFE0146304628F0CBFD08A828F088FCB7
:101540000CA828F085FC04A828F082FC11B0F0BD9E
:1015500090F84D30002B69D0B0F84810454DA5FBF0
:1015600001310A22C908684628F0F8FC694608A833
:1015700028F0C2FCB4F84810A5FB0135ED0805EBD6
:101580008505A1EB45010A2289B204A828F0E6FCF2
:1015900004A908A828F0D2FD394604460A220CA85E
:1015A00028F0DCFC0CA9204628F0C8FD334928F0BF
:1015B000CDFD0146304628F08BFD0CA828F048FCF4
:1015C00004A828F045FC08A828F042FC684628F04A
:1015D0003FFC11B0F0BDB0F84810264DA5FB01311D
:1015E0000A22C908684628F0B9FC694608A828F00C
:1015F00083FCB4F84810A5FB0135ED0805EB850523
:10160000A1EB45010A2289B204A828F0A7FC04A98D
:1016100008A828F093FD394604460A220CA828F0B1
:101620009DFC0CA9204628F089FDC2E7B0F848408F
:10163000104904EB840407EB4404A4B2A1FB043773
:10164000FF0839460A2204A828F088FC07EB870720
:1016500004A90CA828F050FCA4EB470189B20A2287
:1016600008A828F07BFC08A90CA828F067FD04490D
:101670005DE700BFCDCCCCCC381203004012030094
:101680003C12030070B590F84D308CB004460D4606
:10169000164633BBB0F848300BB9002964D0354941
:1016A00008A828F015FCB4F8481001EB810105EBFF
:1016B000410101390A2204A828F050FC04A908A815
:1016C00028F03CFD2C4928F041FD0146304628F029
:1016D000FFFC04A828F0BCFB08A828F0B9FB0CB05C
:1016E00070BDB0F84830A3B929B91046234928F095
:1016F000F3FC0CB070BD08A8214928F0E9FB29468D
:1017000004A80A2228F02AFC04A908A828F016FD3B
:10171000DBE704A8174928F0DBFBB4F848100A22DD
:101720000139684628F01AFC694604A828F006FD2D
:10173000144928F00BFD0A220446294608A828F07F
:101740000DFC08A9204628F0F9FC0146304628F097
:10175000BFFC08A828F07CFB684628F079FB04A8A9
:1017600028F076FB0CB070BD1046074928F0B4FC99
:101770000CB070BD481203004C120300501203005D
:1017800058120300541B030044120300F0B5224B0F
:1017900001318CB291B0A3FB0431164649090A22EB
:1017A000684628F0DBFB694608A828F0A5FB1B4B20
:1017B000A3FB0425ED08A9B2A3FB0123DB0803EB7F
:1017C0008303A1EB43010A2289B204A828F0C6FBD7
:1017D00004A908A828F0B2FC05EB8505A4EB450197
:1017E0000A22074689B20CA828F0B8FB0CA9384693
:1017F00028F0A4FC0146304628F06AFC0CA828F02A
:1018000027FB04A828F024FB08A828F021FB684641
:1018100028F01EFB11B0F0BD1F85EB51CDCCCCCC18
:10182000F0B5284C284FC7290E468DB094BF5521DE
:101830005021A4FB06341046154628F05BFCA30992
:10184000C82404FB1364C4F38D040134E4B2A7FB81
:101850000437FF0839460A22684628F07FFB07EB69
:101860008707694608A828F047FBA4EB47010A222E
:10187000C9B204A828F072FB04A908A828F05EFCED
:101880000146284628F024FC04A828F0E1FA08A81C
:1018900028F0DEFA684628F0DBFA2D21284628F0E9
:1018A00029FC06F003010A22013108A828F056FBA2
:1018B00008A9284628F00CFC08A828F0C9FA0DB0A1
:1018C000F0BD00BF1F85EB51CDCCCCCC30B562292B
:1018D0008BB01D462FD83A4B1A2404FB0131C98A1C
:1018E0000BB2002B55DDA1F5F844063C112C10D8A5
:1018F000DFE804F0090F0F0F0F0F0F0F0F0F0F0F7F
:101900000F0F0F2D4D2790F8A530002B14BF092184
:1019100001210A44013A2B4902EBC202114406A8F4
:1019200028F0D6FA06A9284628F0D2FB06A828F007
:101930008FFA0BB030BD1846234928F0CDFB0BB011
:1019400030BD114606A80A2228F008FBEAE73F2A24
:1019500028D9402A2FD00192EBD91C4906A828F09B
:10196000B7FA019AA2F132010A2202A828F0F6FA87
:1019700002A906A828F0E2FB0146284628F0A8FBA9
:1019800002A828F065FA06A828F062FAD1E751000B
:10199000D8E7012A28460CBF0D490E4928F09CFBC8
:1019A0000BB030BD0C49019206A828F091FA019ABB
:1019B000C2F13201D8E72846084928F08DFBB8E784
:1019C000885603003CB70300C81B0300801A0300BD
:1019D0002018030060120300541203005C1203007D
:1019E00030B5112989B0154622D91239CCB2072C4D
:1019F00005D91046124928F06FFB09B030BD04A884
:101A0000104928F065FA0A22611C684628F0A6FAF7
:101A1000694604A828F092FB0146284628F058FBA6
:101A2000684628F015FA04A828F012FA09B030BD6B
:101A3000054B104603EB011128F04EFB09B030BDF9
:101A4000101203006412030034F2030030B51129B0
:101A500089B0154622D91239CCB2072C05D91046C7
:101A6000134928F039FB09B030BD04A8114928F00A
:101A70002FFA0A22611C684628F070FA694604A809
:101A800028F05CFB0146284628F022FB684628F037
:101A9000DFF904A828F0DCF909B030BD064B03EBF0
:101AA00001111046083128F017FB09B030BD00BF06
:101AB000101203007412030034F20300F0B5C729BA
:101AC00091B00C4610468CBF50215521164601346A
:101AD00028F010FB2049A4B2A1FB04310A224909D5
:101AE000684628F03BFA694608A828F005FA1B4B1F
:101AF000A3FB0425ED08A9B2A3FB0123DB0803EB3C
:101B00008303A1EB43010A2289B204A828F026FA34
:101B100004A908A828F012FB05EB8505A4EB4501F4
:101B20000A22074689B20CA828F018FA0CA93846F0
:101B300028F004FB0146304628F0CAFA0CA828F029
:101B400087F904A828F084F908A828F081F96846E4
:101B500028F07EF911B0F0BD1F85EB51CDCCCCCC77
:101B6000F0B590F84D3091B005460F4616466BBB68
:101B7000B0F84830012B8CBF50215521104628F079
:101B8000B9FAB5F848100A2204A828F0E7F904A920
:101B90000CA828F0B1F90A22394608A828F0DEF985
:101BA00008A90CA828F0CAFA2B4928F0CFFA014658
:101BB000304628F08DFA08A828F04AF90CA828F039
:101BC00047F904A828F044F911B0F0BDB0F8483046
:101BD000224C132B8CBF50215521104628F08AFA35
:101BE000B5F84810A4FB01310A22C908684628F05C
:101BF000B5F9694608A828F07FF9B5F84810A4FBA4
:101C00000134E40804EB8404A1EB44010A2289B204
:101C100004A828F0A3F904A908A828F08FFA0A223A
:101C2000044639460CA828F099F90CA9204628F05A
:101C300085FA0146304628F04BFA0CA828F008F93E
:101C400004A828F005F908A828F002F9684628F049
:101C5000FFF811B0F0BD00BF38120300CDCCCCCCE2
:101C600070B5164C4D1C84FB0534EB178CB0C3EBE0
:101C7000A404164621460A22684628F06FF96946F0
:101C800008A828F039F904EB84010A22A5EB4101E8
:101C900004A828F063F904A908A828F04FFA01461F
:101CA000304628F015FA04A828F0D2F808A828F041
:101CB000CFF8684628F0CCF80CB070BD6766666651
:101CC00030B589B00D4604A80C49144628F000F937
:101CD0000A22691C684628F041F9694604A828F0E0
:101CE0002DFA0146204628F0F3F9684628F0B0F8AE
:101CF00004A828F0ADF809B030BD00BF7812030089
:101D0000F0B50C46C91191B04131C9B204A81646CC
:101D1000013428F04BF92149A4B2A1FB04310A2275
:101D20004909684628F01AF9694604A828F006FA15
:101D30001B4BA3FB0425ED08A9B2A3FB0123DB0881
:101D400003EB8303A1EB430107460A2289B208A8EB
:101D500028F004F908A9384628F0F0F905EB8505C4
:101D6000A4EB45010A22074689B20CA828F0F6F830
:101D70000CA9384628F0E2F90146304628F0A8F9C7
:101D80000CA828F065F808A828F062F8684628F042
:101D90005FF804A828F05CF811B0F0BD1F85EB5186
:101DA000CDCCCCCC2DE9F04190F84D3090B0074629
:101DB0000D461646002B47D0B0F848103D4C01EBBD
:101DC000810189114131C9B204A828F0EFF8B7F8B0
:101DD0004810A4FB01310A22C908684628F0BEF861
:101DE000694604A828F0AAF9B7F84810A4FB013402
:101DF000E40804EB8404A1EB440180460A2289B282
:101E000008A828F0ABF808A9404628F097F90A225C
:101E1000044629460CA828F0A1F80CA9204628F071
:101E20008DF90146304628F053F90CA828F010F837
:101E300008A828F00DF8684628F00AF804A828F049
:101E400007F810B0BDE8F081B0F8483001EB81012F
:101E50004A00642101FB0321C9114131C9B208A81C
:101E600028F0A4F8B7F848100A2204A828F076F859
:101E700004A908A828F062F90A22044629460CA8F9
:101E800028F06CF80CA9204628F058F90A4928F0E7
:101E90005DF90146304628F01BF90CA827F0D8FF61
:101EA00004A827F0D5FF08A827F0D2FF10B0BDE89E
:101EB000F08100BFCDCCCCCC38120300F0B50D467C
:101EC0008DB0184C013504A85021164684FB05340A
:101ED00028F06CF8EB17C3EBA40421460A226846ED
:101EE00028F03CF8694604A828F028F904EB84019E
:101EF0000A220746A5EB410108A828F02FF808A9F7
:101F0000384628F01BF90146304628F0E1F808A8C9
:101F100027F09EFF684627F09BFF04A827F098FF54
:101F20000DB0F0BD6766666670B590F84D308CB048
:101F30000C461546EBB9052908A84FD9502128F0C1
:101F400035F8611F0A2204A828F008F804A908A897
:101F500028F0F4F8244928F0F9F80146284628F03A
:101F6000B7F804A827F074FF08A827F071FF0CB099
:101F700070BD90F848600A2313FB0613322B28DD4E
:101F80005021104628F0B6F8053EF6B231466846B4
:101F900027F0D0FF694608A827F0AEFF0A222146A5
:101FA00004A827F0DBFF04A908A828F0C7F80F4908
:101FB00028F0CCF80146284628F08AF804A827F033
:101FC00047FF08A827F044FF684627F041FF0CB000
:101FD00070BD5521104628F08DF8D7E7552127F020
:101FE000E5FF2146AEE700BF3C12030040120300AC
:101FF00008B5044825F01AF90348BDE8084025F063
:1020000015B900BFA06E0020B86E00202DE9F04188
:102010000446FEF715FF1F4A1F4B1068C4F8060060
:1020200007CB02271D8893F802802771CF234FF03A
:10203000C70CC4F80E004FF0040E0120C4F81210B3
:10204000CD270021658304F19A05C4F8162084F891
:102050008D3084F81C80A4F844C084F850E084F8E3
:102060008C702A4684F82800E07784F8200084F8F1
:102070006A00A4F84210616584F88E1084F88F100D
:1020800004F1920303F8010FAB4202F8011FF9D1EA
:10209000BDE8F0817C12030080120300F8B51C4DEE
:1020A0000446FEF7CDFE1B4B2868C4F8060003CBA0
:1020B0002D79B3F800C0A5729B78C4F80E000225F4
:1020C00001222571CD26C4F81210CF250421D0207D
:1020D000237600234FF0620E0527A4F816C084F87B
:1020E0008C6084F88D5084F88E0084F8933084F8E6
:1020F000943084F88F3084F85010E17784F82020F1
:10210000A4F844E06765A4F8423084F85220F8BD92
:1021100090120300981203002DE9F041214E04466D
:10212000FEF78EFE204B3068C4F8060007CB3679E8
:102130001B78A672A37602260A2326714FF0040CA0
:10214000C4F80E004FF0280EC4F812100327C4F88C
:1021500016200826CD20CF21D022636500234FF41E
:102160002478012584F850C084F893E0E77784F858
:10217000206084F88C0084F88D1084F88E2084F818
:10218000943084F8953084F8963084F8973084F849
:102190008F30A4F8448084F85250A4F84230BDE84F
:1021A000F08100BFA4120300AC1203002DE9F0413E
:1021B0000446FEF745FE1C4B1C4D1868C4F806008B
:1021C0000FCD022626714FF0040CC4F80E004FF01C
:1021D0000A0ECD27C4F81620CF260122C4F81A30E3
:1021E000D32000234FF41C78C4F8121084F850C098
:1021F0000F4984F81FE084F88C7084F88D6084F8AF
:102200008E0084F88F3084F8202084F8212084F810
:102210009520A4F84480C4F88810A4F8423063657F
:1022200084F89430BDE8F081BC120300C0120300B2
:1022300080C3C901F8B50446FEF702FE184A194BDF
:102240001068C4F8060003CB02271E8827710423F8
:10225000C4F80E000627E682C4F812100126CD202D
:10226000CF21D22284F8503000230F4DE7774FF072
:102270000B0E84F8206084F88C0084F88D1084F8AC
:102280008E2084F88F30C4F89330A4F844E0C4F86A
:102290008850A4F84230636584F89930E366F8BD4D
:1022A000D0120300D412030080C3C901F8B5184D41
:1022B0000446FEF7C5FD174B2868C4F8060003CB9B
:1022C000AD881B8865810225012204272571C4F889
:1022D0000E000625E382CD200023C4F81210DA2177
:1022E0004FF0470E052684F85070E57784F88C008F
:1022F00084F88D1084F88E3084F88F3084F8202094
:1023000084F82120A4F844E06665A4F84230F8BDC2
:10231000E4120300E0120300F8B50446FEF790FD56
:10232000164B174D1868C4F806000FCD022626710B
:102330000427C4F80E000726C4F81210CD20C4F8F4
:102340001620CF210122C4F81A30002340F22B1EA0
:1023500084F85070E67784F88C0084F88D1084F847
:102360008E3084F88F3084F8202084F82120A4F85F
:1023700044E0A4F842306365F8BD00BFEC120300EE
:10238000F0120300F8B50446FEF75AFD154A164B45
:102390001068C4F8060003CB022301220427CD26CF
:1023A0002371CF2500234FF0630C4FF0050EC4F8C6
:1023B0000E00C4F8121084F8507084F88C6084F811
:1023C0008D5084F8283084F88E3084F88F30E2778E
:1023D00084F82020A4F844C0C4F854E0A4F84230A3
:1023E000F8BD00BF0013030004130300F8B5194E35
:1023F0000446FEF725FD184B3068C4F8060007CBED
:1024000036791B88A672022626710427C4F80E00AE
:1024100001266383CD200023C4F81210C4F81620CF
:10242000CF2105224FF0310E84F8507084F82060DF
:1024300084F88C0084F88D1084F88E3084F88F3006
:10244000E277A4F844E0A4F8423084F83231E3663D
:102450006265F8BD0C13030014130300F8B5224E97
:102460000446FEF7EDFC214B3068C4F8060007CBAC
:10247000B3F800C093F802E0B688668102232371A6
:1024800003230025C4F80E00C4F81210C4F8162067
:10249000CD20CF21D12284F8933040F27F17012341
:1024A000042684F88C0084F88D1084F88E20A4F81B
:1024B0001AC084F81CE0A4F8447084F85060A4F8B2
:1024C0004250656584F88F50E37784F8203084F8B3
:1024D0002130294604F194005D2229F05BFD84F847
:1024E000F25084F8F350F8BD241303002C130300BA
:1024F000F8B5224D0446FEF7A3FC214B2868C4F82A
:10250000060007CBAD8865810225C4F80E00C4F82B
:102510001210C4F816201121257104F1300027F0A3
:102520009FFC042384F8503000210123154A1648EB
:1025300061654FF0CD0ED127D22684F88F1084F834
:10254000203084F82130E57784F88CE084F88D70B1
:1025500084F88E60C4F8882002680C4B84F89310CD
:1025600042F400727F21A4F8441002601A6822F03D
:1025700010021A601A682A431A60F8BD3C1303005F
:102580004413030080C3C9013C8004400090024012
:10259000F8B52D4D0446FEF753FC2C4B2868C4F8C3
:1025A000060007CB2D792A4BA57204260025C4F816
:1025B0000E00C4F8121002204FF09E0CC4F8162032
:1025C0004FF0050ED7220127CD2184F893502071BA
:1025D000A4F84250E07784F88E5084F88F5084F845
:1025E0008D2084F8946084F850601A4DA4F844C09B
:1025F000C4F854E084F8207084F88C1003F6187046
:102600000B2201E013F81C2C511E1C3312B16A5C22
:1026100001326A548342F5D1292240F20D130E4D46
:102620000E4E4FF6FF7001E016F8122025F812301A
:10263000591E8BB28342C3EBC302F5D1002384F849
:102640006E31C4F87C31F8BD5013030058130300F9
:10265000796F0300746E0020D40A0020488A0300BA
:10266000F8B5234E234C0546FEF7EAFB224B3068B3
:10267000C5F8060007CB36791F78AE72C5F80E0094
:102680000226042040F28F1CAF76C5F812104FF0DE
:10269000090EC5F81620CD270022D02185F850005C
:1026A000A5F8422085F8932085F894206A6585F87E
:1026B0008E2085F88F20114B2E71EE77A5F844C03F
:1026C0000F4885F820E085F88C7085F88D100C2275
:1026D00001E013F8182C511E183312B1425C01327C
:1026E0004254A342F5D1002385F85130F8BD00BF14
:1026F0006413030063F203006C13030033E0030070
:1027000054350020F0B5C1F38705194C013584FB21
:102710000534EB178DB0C3EBA4040E4617462146D3
:102720000A22684627F01AFC694608A827F0E4FB4D
:1027300004EB84010A22A5EB410104A827F00EFC5A
:1027400004A908A827F0FAFC06F00301413127F09C
:102750000BFD0146384627F0BBFC04A827F078FBA8
:1027600008A827F075FB684627F072FB0DB0F0BD96
:102770006766666670B5232901F0030588B00C46CC
:10278000164605F141051CD904A8462127F00EFC88
:10279000A1080A220839684627F0E0FB694604A828
:1027A00027F0CCFC294627F0DFFC0146304627F015
:1027B0008FFC684627F04CFB04A827F049FB08B0C3
:1027C00070BD89080A220131684627F0C7FB6946B7
:1027D00004A827F091FB294604A827F0C5FC014670
:1027E000304627F075FC04A827F032FB684627F036
:1027F0002FFB08B070BD00BFF0B590F84D3089B028
:10280000044616460D46DBB9B0F84830002B3BD1E4
:102810000A22684627F0A2FB694604A827F06CFB51
:1028200004A82A4927F092FC0146304627F050FCC4
:1028300004A827F00DFB684627F00AFB09B0F0BD9D
:1028400001F00307232907F141072ED9462104A8E7
:1028500027F0ACFBB4F848100A220839684627F084
:102860007DFB694604A827F069FC394627F07CFC0B
:102870000146304627F02CFC684627F0E9FA04A808
:1028800027F0E6FA09B0F0BD04A8462127F08EFB38
:1028900029460A22684627F061FB694604A827F00A
:1028A0004DFC0A4927F052FCE2E7B0F848100A2232
:1028B0000131684627F052FB694604A827F01CFB4B
:1028C000394604A827F050FCAEE700BF38120300D9
:1028D00030B500EB410089B0B0F8943015460131B5
:1028E0000A2268465C1027F039FB694604A827F0E5
:1028F00003FB04A83A2127F037FCE3B2094903EBB4
:10290000C30301EB430127F021FC0146284627F0D1
:10291000DFFB04A827F09CFA684627F099FA09B073
:1029200030BD00BFD446030030B500EB410089B094
:10293000B0F89430154601310A2268465C1027F041
:102940000DFB694604A827F0D7FA04A83A2127F01E
:102950000BFCE3B2094903EB830301EB8301023172
:1029600027F0F4FB0146284627F0B2FB04A827F025
:102970006FFA684627F06CFA09B030BD5CCF0200F0
:1029800010B5034C206828F0CBFF0023236010BD56
:10299000F837002010B5044627F0C4F9204610BDD2
:1029A0000B290ED9A1F117030A2B07D9A1F1220394
:1029B0001F2B9ABF1E31C8B2002070470239C8B21F
:1029C00070470131C8B2704770B505460C460AB968
:1029D00090F86A20012A32D0022A11D004EBC403F5
:1029E00004EB4304A400174A04F11C032C341344E1
:1029F0002021224403F8011F9342FBD1012070BD26
:102A00000A21104E104A4C2303FB0463284683F826
:102A10003C102B68D3F8C43093420ED1FFF7C0FFAF
:102A20004C2303FB0463214683F830002B682846BF
:102A3000D3F8D4309847002070BD9847F0E70821BC
:102A4000DFE700BF1C30FF1FA129000030B590F860
:102A50004D3085B00D461446A3B190F84810413171
:102A6000C9B2104627F046FB0A222946684627F0DD
:102A700075FA6946204627F02BFB684627F0E8F9EF
:102A800005B030BD41311046C9B227F033FB2046B6
:102A9000024927F021FB05B030BD00BF381203000A
:102AA00010B584B00A220C460146684627F056FA53
:102AB0006946204627F00CFB684627F0C9F904B0A8
:102AC00010BD00BF542905D8012A18460CD008496A
:102AD00027F002BB5C2903D91846064927F0FCBA47
:102AE00019461046FFF7DCBF034927F0F5BA00BFCF
:102AF00060120300C81B03002018030030B590F8D3
:102B00004D308DB0144613B30D460A22B0F848106C
:102B1000684627F023FA694608A827F0EDF90A224B
:102B2000294604A827F01AFA04A908A827F006FBEA
:102B30000146204627F0CCFA04A827F089F908A816
:102B400027F086F9684627F083F90DB030BD0A22D8
:102B500008A827F003FA08A904A827F0CDF904A8CB
:102B6000074927F0F3FA0146204627F0B1FA04A8F6
:102B700027F06EF908A827F06BF90DB030BD00BF43
:102B80003812030070B590F84D308CB00E461546E3
:102B90003BB30446502104A827F008FAB4F84810C3
:102BA0000A22684627F0DAF9694604A827F0C6FA2F
:102BB0000A220446314608A827F0D0F908A9204681
:102BC00027F0BCFA0146284627F082FA08A827F029
:102BD0003FF9684627F03CF904A827F039F90CB012
:102BE00070BD04A8502127F0E1F90A22314608A857
:102BF00027F0B4F908A904A827F0A0FA074927F09C
:102C0000A5FA0146284627F063FA08A827F020F91C
:102C100004A827F01DF90CB070BD00BF38120300E6
:102C200030B5072989B0154605D910460F4927F058
:102C300053FA09B030BD0C4668460D4927F048F9F3
:102C40000A22611C04A827F089F904A9684627F024
:102C500075FA0146284627F03BFA04A827F0F8F851
:102C6000684627F0F5F809B030BD00BF1012030028
:102C70007C13030030B5072989B0154605D91046E5
:102C80000F4927F029FA09B030BD0C4668460D49B6
:102C900027F01EF90A22611C04A827F05FF904A995
:102CA000684627F04BFA0146284627F011FA04A897
:102CB00027F0CEF8684627F0CBF809B030BD00BF4A
:102CC000101203007412030030B590F84D308DB02F
:102CD00014462BB30D460A22B0F84810684627F078
:102CE0003DF9694608A827F007F90A22294604A8F1
:102CF00027F034F904A908A827F020FA144927F08E
:102D000025FA0146204627F0E3F904A827F0A0F8A9
:102D100008A827F09DF8684627F09AF80DB030BD56
:102D20000A2208A827F01AF908A904A827F0E4F84D
:102D300004A8084927F00AFA0146204627F0C8F9F6
:102D400004A827F085F808A827F082F80DB030BD58
:102D50003812030084130300F0B516468DB0002925
:102D60004DD008290C4631D9284D2949093C85FB0D
:102D70000435A5EBE475684627F0AAF80A2229462F
:102D800004A827F0EBF804A9684627F0D7F92149F1
:102D900027F0DCF905EB4505611B0A2207460131E6
:102DA00008A827F0DBF808A9384627F0C7F901463C
:102DB000304627F08DF908A827F04AF804A827F034
:102DC00047F8684627F044F80DB0F0BD08A812494E
:102DD00027F07EF80A22214604A827F0BFF804A9AC
:102DE00008A827F0ABF90146304627F071F904A88E
:102DF00027F02EF808A827F02BF80DB0F0BD1046EC
:102E0000064927F069F90DB0F0BD00BF565555557C
:102E100048120300541B03005812030088130300D8
:102E200030B589B005460C4604A80B4927F050F888
:102E30002946684627F07EF8694604A827F07EF9FF
:102E40000146204627F0E4F8684627F001F804A878
:102E500026F0FEFF09B030BD8C1303004BB2002BEF
:102E6000084602DD1146FFF7DBBF1046014927F097
:102E7000DFB800BFE811030011290B4609D95F290B
:102E800003D91046064927F0D3B811461846FFF774
:102E9000C7BF0449104601EB031127F0C9B800BFB2
:102EA000E811030034F2030030B54B1E072B89B044
:102EB0000C46154629D909293FD00A2942D00B29A9
:102EC00045D00C2948D0A1F10D03722B05D910462D
:102ED000244927F0ADF809B030BD6846224926F0F4
:102EE000F7FF214604A827F025F804A9684627F033
:102EF00025F90146284627F08BF804A826F0A8FFFC
:102F0000684626F0A5FF09B030BD04A8174926F091
:102F1000DFFF2146684627F00DF8694604A827F030
:102F20000DF90146284627F073F8684626F090FF11
:102F300004A826F08DFF09B030BD10460C4927F0DB
:102F400077F8C8E710460B4927F072F8C3E7104638
:102F5000094927F06DF8BEE71046084927F068F8E0
:102F6000B9E700BFE81103008C13030090130300BE
:102F70009C130300A8130300B8130300C413030039
:102F800030B589B005460C4604A80D4926F0A0FFCF
:102F90000A22691C684626F0E1FF694604A827F06A
:102FA000CDF8084927F0D2F80146204627F030F83E
:102FB000684626F04DFF04A826F04AFF09B030BD50
:102FC000D4130300D813030000EB800000EB800053
:102FD00001F01F010844084B33F8100058B1074AAC
:102FE00032F81030012033B132F813300130C0B262
:102FF000002BF9D170477047FC370020C823002010
:10300000034B1B78032B02D8024B01221A70704726
:103010005084FF1F3883FF1F2DE9F041204F4C24BF
:1030200004FB00748846617A0629164620D0FF29E1
:1030300018D049B11B4B618E53F828000368BDE8D6
:10304000F041D3F8803018473C21104627F052F861
:10305000144B618E53F8280003683246DB6FBDE8DD
:10306000F041184710461049BDE8F04127F034B848
:10307000E37A05467BB9104627F03CF8094B53F834
:1030800028004C2202FB05750368698EDB6F32460F
:10309000BDE8F04118470521104627F02BF8EDE771
:1030A0001C30FF1F3C09FF1FDC1303002DE9F0411A
:1030B00000EB001466001B4B112414FB01661E4438
:1030C00002F1100C14464FF00008FF25A31A16F861
:1030D00001EF14F8017BBE45DBB204D0FF2D08BF21
:1030E0001D46377098466445F0D1FF2D16D010B1BB
:1030F0000120BDE8F08114460B480A46294620F01D
:103100008BFE4545F4D8615D07480135EDB220F0EE
:10311000EFFD4545F7D90120BDE8F0810020BDE86D
:10312000F08100BF576C0020E86C0020024B1A5C55
:103130000AB100221A5470477031002010B50D4BAF
:1031400093F82A30012B14BF0B490C4900EB4002C5
:103150008B180446885C9A78597821F09BF90021F5
:103160000246074821F090F9054821F08FF8054BF9
:103170001C7010BDE41E00208808FF1F000AFF1FFE
:10318000AC9CFF1F9C6E0020074B084A53F8203070
:103190001278DB7F06499A42087001D01F2B00D9B4
:1031A00070471846FFF7CABF3C09FF1F9C6E0020FE
:1031B000F609FF1F10B4094B094A1968094813782A
:1031C00083B083F001030191019C07490460012051
:1031D0001370087003B05DF8044B70479C750020B5
:1031E0007409FF1FB01E00203A09FF1F10B5037AB3
:1031F0000022022B0446427482B0007826D024F0CC
:10320000B1FE08B901236374607824F0ABFE70B19D
:103210001549637C0968A27C0191019961619A4218
:103220001FD08BB90120E274A37402B010BD237FBC
:10323000002BEDD10C4BA27C1B680193019B6361B9
:1032400002239A4263740CD00022EBE724F08AFE3A
:10325000012808BF6074607824F084FE0128D7D16B
:10326000E8E7002002B010BD9C75002030B4416D2D
:10327000084D846D82B02B680193019B054A1B1B8E
:103280008B42F8D913680093009B836502B030BC71
:10329000704700BF9C75002010B51B4CE3780D2BC8
:1032A00000D910BD194AE17952F823000368D3F818
:1032B0009C30984708B10138C0B2637A032B1ED8FE
:1032C000DFE803F01919130202B2114B11496074BF
:1032D000520083FB02E3A1FB0010A3EBE273400862
:1032E0000022E3736073E27210BD42080023E073B2
:1032F0006273E37210BD0023E072637310BD00239C
:103300006073E372CDE700BFB40AFF1F3C09FF1FE3
:1033100056555555ABAAAAAA10B40A4A0A491378B9
:1033200009780A4899428CBF013301231370084A77
:10333000084900230124137004700B705DF8044BDE
:10334000704700BF4B9CFF1F8109FF1F3883FF1F81
:1033500029130020856E0020084A10B402F12E04C3
:103360008179C37903EBC11302F8013F944200F164
:103370000200F5D15DF8044B704700BFE31E00204A
:10338000144A4379127801339A4201D000207047E1
:1033900090F89D20FF2A1BD030B40F4C0F4B1048E3
:1033A0004C2505FB0141A0FB0254498EA3FB0153B0
:1033B0005B08B3EB540F02D0012030BC7047A0FB78
:1033C0000131B2EB510F0CBF0120002030BC70471F
:1033D00001207047B21000201C30FF1F398EE338E7
:1033E000ABAAAAAA0E4A4379127801339A4201D0B5
:1033F0000020704790F8A530FF2B08D0094A4C20D8
:1034000000FB01214A8ED108B1EB530F01D00120FE
:103410007047B3EB920F0CBF01200020704700BF34
:10342000B21000201C30FF1F0B39052906D8DFE839
:1034300001F006090C0F120380F86524704780F82C
:103440006024704780F86324704780F861247047D7
:1034500080F86424704780F8622470470A7ACB7938
:1034600070B412044E7A8C7A0B4D02EB036202EBBD
:1034700006232344AB420AD0084A934205D1CB7AB3
:1034800080F89430002380F8533070BC7047CB7ABA
:1034900080F8933070BC70470030006000380060E6
:1034A00030B42E4A90F8A5401A2303FB012334BB05
:1034B000DB88512B36D0522B37D01D0444BFC3F3C9
:1034C0000E0343F4803303F180531A2505FB0121D9
:1034D0004A7E8AB102F00F01084402F0F002102A7D
:1034E00090F89D1027D0202A06D14CBB042931D05A
:1034F000052901D103F20123184630BC70471B890E
:10350000512B0CD0522B13D01D0444BFC3F30E0318
:1035100043F4803303F1805303F50033D5E71048BB
:1035200030BC70470F4830BC70470F4830BC704704
:103530000E4830BC70470129DED103F20620EFE7C8
:10354000042904D00529D7D103F5FA70E8E703F17F
:10355000F200E5E703F581731846CEE788560300CD
:103560003F1008003F100100211001002110080049
:10357000184B10B4A3FB0123DB08DCB2021903EBE8
:10358000830390F8A50092F89E20A1EB43039BB221
:1035900088B1022A84BF0532D2B202EB820203EB69
:1035A00042030D490D4A31F8230052F824305DF8EA
:1035B000044B1844704702EB820203EB42030649B6
:1035C000074A31F8230052F824305DF8044B1844C0
:1035D000704700BFCDCCCCCCDC06030094E00200E9
:1035E00028CB0300F0B590F84E609DF8145026B13A
:1035F00090F82170AF42044600D0F0BD90F8205002
:103600009D42FAD13C2924D0DFF860C016489CF8CE
:1036100000E000239C341F463E2506E00133092BC1
:1036200004F1010410D010F80A5CA94200F10A006C
:10363000F4D10BB104F8092C151C18BF012537462D
:103640004FF0020E2570E9E7002FD6D08CF800E08D
:10365000F0BD838C92B29342CFD00168C384828440
:103660008B6CBDE8F040184784C90300E00E0020D1
:10367000044B82B01B680193019B03F5FA73C36688
:1036800002B070479C75002038B5134D2B68044676
:10369000D3B100210D4618464FF4077228F07AFC8A
:1036A000204684F8975084F89850FFF7E1FF0B4AC2
:1036B000236815709B6C20469847094A0221012314
:1036C000117084F86A3038BD4FF4077028F020F983
:1036D00028600346DDE700BFF83700208009FF1FA0
:1036E000E00E002030B490F84E409DF808501CB118
:1036F00090F82140AC4201D030BC704790F8204097
:103700009C42F9D1A1B10C4B933003F23B155024EC
:1037100005E0AB4200F10100EED013F8154CA142D8
:1037200003F11503F5D1141C18BF01240470F0E750
:1037300080F84C20E0E700BF2A3E030030B4C1EB24
:10374000C101674B90F8944089005A18957EA542B4
:1037500017D890F89350BDB1538803F47042B2F576
:10376000104F00F08A8051D9B2F5304F5BD0B2F5DE
:10377000404F00F0A280B2F5204F6ED003F1C04060
:1037800000E0002030BC70475B5A03F47042B2F591
:10379000104F00F0958016D9B2F5304F43D0B2F5F6
:1037A000404F5DD0B2F5204FE8D14E4D4E4990F8D4
:1037B0006D21002A5CD0022C5AD9012AE1D103F0F4
:1037C0000F035819DEE7B2F5E04F3ED0B2F5004FD7
:1037D000D4D190F86A21454C34F83210D2002244FA
:1037E00003F00F0093799842CBDA084480B20206C6
:1037F00004D547F67F73034003F58070002D6BD12D
:10380000B0F5127F57D000F1C040BBE7B2F5E04FF2
:103810001BD0B2F5004FB1D190F86A21334CD200E1
:10382000A1188988DBE790F86F21314902EB420249
:1038300052008C1803F00F0023799842A1DA3DB1B1
:10384000638803F1C04318449CE7C3F30B0099E776
:103850008B5A03F1C043184494E7264D2649A6E746
:103860004FF4886540F2334190F86E21002AA2D1CE
:1038700003F00F00084430BC704790F86C211B4CDB
:10388000D1006218928802F5007292B2214403F0CE
:103890007F008B799842BFF674AF104480B2030664
:1038A00004D547F67F73034003F580707DB940F27D
:1038B00054439842A7D1114864E71E251321D3E74A
:1038C00090F86C21094CD10062185288DEE7B0F5FF
:1038D000577F98D10A4855E7B0F5AE7F93D1F9E705
:1038E000446F03000511006031010060D8AE030091
:1038F00080E002004D000060420000601807006098
:10390000710500600A7ACB7970B412044E7A8C7A11
:10391000134D02EB036202EB06232344AB420FD0AC
:10392000104A934207D0104A93420ED1CB7A80F8C6
:10393000963070BC7047CB7A80F8953070BC704779
:10394000CB7A80F8943070BC7047084A9342F0D12B
:10395000CB7A80F89730002380F8533070BC7047E2
:1039600003200018032100180A1000183202001862
:103970004A7A0B7A70B412048E7ACC7A0B4D02EB31
:10398000036202EB06232344AB420AD0084A934267
:1039900005D10B7B80F89430002380F8533070BC45
:1039A00070470B7B80F8933070BC7047001000208C
:1039B0000408002090F89330DBB1254BC1EBC10126
:1039C00003EB81014B8803F47042B2F5204F1AD00B
:1039D00020D8B2F5004F35D0B2F5104F27D190F86E
:1039E0006C111C4A32F8110003F00F03184480B226
:1039F0007047C1EBC101164B33F8213003F470421C
:103A0000B2F5204FE4D190F86D21012A14BF0721AF
:103A10002921E6E7B2F5304F0CD0B2F5404F06D180
:103A200090F86E21012A14BF07212921D9E74FF60A
:103A3000FF70704790F86F213AB1012A14BF252119
:103A40002821CEE790F86A11CBE70221C9E700BF31
:103A5000446F0300D40A002089291DD8F8B5CE0090
:103A60001C4D90F89470721A05EB8202927EBA4255
:103A700010D80C46FFF79EFF4FF6FF7398420DD00B
:103A8000B0F5877F06D2144BC0EBC00003EB4000BB
:103A90004078F8BD0020F8BD00207047282C0ED0DB
:103AA000182C06D0472C04D0341B05EB840528794C
:103AB000F8BD012F07D9022F07D12520F8BD022F0D
:103AC000F2D91A20F8BD2420F8BD032FECD127200D
:103AD000F8BD00BF446F0300488A03008929F8B588
:103AE0000C461746064615D9164996F89430C4EB8D
:103AF000C40401EB84018A7E9A4205D83846053118
:103B0000BDE8F84026F0E8BA38460F49BDE8F8406D
:103B100026F0E2BAFFF74EFF4FF6FF7398420546D4
:103B2000E2D0E1B23046FFF709FE0028ECD00749A9
:103B3000C5EBC50501EB450138460231BDE8F8404B
:103B400026F0CABA446F030010120300488A03002B
:103B50000E4A4379127801339A4201D0002070470F
:103B600090F8A430FF2B08D0094A4C2000FB01211B
:103B70004A8ED108B1EB530F01D001207047B3EB4F
:103B8000920F0CBF01200020704700BFB210002030
:103B90001C30FF1F094B93F82D20042A00D07047DA
:103BA00090F85220002AFAD190F851100029F6D04E
:103BB000016880F85120CB6B184700BFE41E00203D
:103BC0000E4A4379127801339A4201D0002070479F
:103BD00090F89430FF2B08D0094A4C2000FB0121BB
:103BE0004A8ED108B1EB530F01D001207047B3EBDF
:103BF000920F0CBF01200020704700BFB2100020C0
:103C00001C30FF1FF0B590F84D300F4691B00546BF
:103C10001646B0F84810002B39D02E4CA4FB0131C9
:103C20000A22C90808A826F099F908A90CA826F0C4
:103C300063F9B5F84810A4FB0134E40804EB8404EC
:103C4000A1EB44010A2289B204A826F087F904A94D
:103C50000CA826F073FA0A2204463946684626F074
:103C60007DF96946204626F069FA0146304626F07D
:103C70002FFA684626F0ECF804A826F0E9F80CA81C
:103C800026F0E6F808A826F0E3F811B0F0BD0A2205
:103C900004A826F063F904A90CA826F02DF90A223D
:103CA000394608A826F05AF908A90CA826F046FAC1
:103CB000094926F04BFA0146304626F009FA08A8D1
:103CC00026F0C6F80CA826F0C3F804A826F0C0F821
:103CD00011B0F0BDCDCCCCCC38120300F0B590F8CB
:103CE0004D300F4691B005461646B0F84810002BEF
:103CF00039D02E4CA4FB01310A22C90808A826F0AD
:103D00002DF908A90CA826F0F7F8B5F84810A4FB7F
:103D10000134E40804EB8404A1EB44010A2289B2D3
:103D200004A826F01BF904A90CA826F007FA0A2219
:103D300004463946684626F011F96946204626F0C1
:103D4000FDF90146304626F0C3F9684626F080F8B2
:103D500004A826F07DF80CA826F07AF808A826F02A
:103D600077F811B0F0BD0A2204A826F0F7F804A9EC
:103D70000CA826F0C1F80A22394608A826F0EEF869
:103D800008A90CA826F0DAF9094926F0DFF901465E
:103D9000304626F09DF908A826F05AF80CA826F01F
:103DA00057F804A826F054F811B0F0BDCDCCCCCC17
:103DB0003812030070B590F84D308CB00E461546A1
:103DC00053B30446552108A826F0F0F8B4F848107B
:103DD0000A2204A826F0C2F804A908A826F0AEF921
:103DE0000A2204463146684626F0B8F8694620465D
:103DF00026F0A4F9164926F0A9F90146284626F02E
:103E000067F9684626F024F804A826F021F808A8E7
:103E100026F01EF80CB070BD08A8552126F0C6F893
:103E20000A22314604A826F099F804A908A826F029
:103E300085F9084926F08AF90146284626F048F90E
:103E400004A826F005F808A826F002F80CB070BD0A
:103E5000401203003C1203005C2920D8542938B5D5
:103E600013D915460C46811D104626F035F9202140
:103E7000284626F03FF90A4BC4EBC401284603EB61
:103E80004101BDE8384026F027B9054BC1EBC1011F
:103E900003EB41011046BDE8384026F01DB97047DC
:103EA00000E1020090F8693003B9704730B50D4663
:103EB000044685B02D21284626F01CF994F8691097
:103EC000684626F037F86946284626F001F9684624
:103ED00025F0BEFF05B030BD90F84E2080F851208F
:103EE00002B970470268818C536C184790F84D30C6
:103EF0009BB1B0F8483003B9E9B1B0F84420B0F84C
:103F0000420003EB8303121A01EB4301531CB3EB92
:103F1000810FACBF012000207047B0F84430B0F8EA
:103F200042209B1A01EB81010133B3EBC10FACBFFF
:103F30000120002070470846704700BF38B590F850
:103F40004E501DB190F821509D4200D038BD90F8E0
:103F500020309342FAD1838C89B28B42F6D090F80C
:103F60004C500268C38401EBC511936C818498475F
:103F7000014B02221A70E9E7E00E002038B590F8F4
:103F800021509D4200D038BD90F820309342FAD1A4
:103F9000838C89B28B42F6D00268C3848184936C8F
:103FA0009847024B02221A70EDE700BFE00E002096
:103FB00090F86A3093B10133DBB2032B88BF012341
:103FC00080F86A30036810B5D3F8E8300C4698479B
:103FD000034A044B147001221A7010BD704700BFD1
:103FE0005084FF1FE00E002090F84D3063B1B0F810
:103FF0004820B0F8423003EBC200084480B200B958
:104000007047013880B27047B0F84830B0F84200CD
:1040100003EB830301EB430100EBC10188B270475E
:1040200090F84D306BB1B0F8483023B908298CBFF7
:10403000002001207047481E07288CBF0020012067
:104040007047B0F8483010B4C3EB0313B0F84440E5
:10405000B0F842005A000323201A13FB01218142C9
:10406000CCBF002001205DF8044B704710B590F8DC
:1040700021409C4200D010BD90F820309342FAD1EC
:10408000042915D0032996BF013189B2C9B2838CA6
:104090008B42F0D00268C3840446136D8184984734
:1040A000236820469B6C9847024B02221A70E2E775
:1040B0000021ECE7E00E002030B490F8953063B3B7
:1040C00090F84D302BB1B0F84830B3B9A9B90846D3
:1040D00011E0B0F84850B0F84430B0F842404FF426
:1040E000FA7202FB05F0322212FB01011B1B9942FE
:1040F000CCBF0020012030BC7047B0F84420B0F89D
:104100004200322401EB8101101A04FB03118142A9
:10411000CCBF0020012030BC7047012030BC70476C
:1041200003790022022B80F84F2000D0704790F8CE
:104130004E30002BFAD1012380F8211080F8933003
:10414000704700BF38B590F821509D4200D038BD6F
:1041500090F820309342FAD1838C89B28B42F6D00A
:104160000268C3848184936C9847024B02221A70C0
:10417000EDE700BFE00E002090F84D3093B1B0F8AD
:10418000483003B9D9B1B0F84420B0F8420003EB8D
:10419000830301EB4301131AB3EB810FACBF012082
:1041A00000207047B0F84430B0F8422001EB8101A4
:1041B0009B1AB3EBC10FACBF01200020704708462B
:1041C000704700BF90F8982002B9704703685B6F92
:1041D000184700BF38B590F821509D4200D038BD37
:1041E00090F820309342FAD190F84C20838C01EB68
:1041F000C2119942F3D00268C3848184936C9847BA
:10420000014B02221A70EAE7E00E00200379022B2C
:1042100001D008467047002370B41A4600F1930499
:1042200003E00132D2B25D2B0AD014F8015FDEB296
:104230000133002DF7D09142F3D1B0B270BC70477A
:104240004FF6FF7070BC704790F84D3083B1B0F8F6
:10425000483090F8280003EB830301EB430189B257
:1042600081422CBFC0EB0100C0EB000080B2704760
:10427000B0F8480001EB810100EB8000490000EB41
:10428000800001EB800080B2704700BF90F84D3095
:1042900073B9B0F84820B0F84400642303FB02F27D
:1042A0000A2313FB01218142CCBF0020012070476B
:1042B0000120704730B490F821509D4201D030BCAD
:1042C000704790F820309342F9D1838C89B28B42A9
:1042D000F5D00268C3848184936C30BC184700BF5A
:1042E000A1F10B03032B0DD90368084AD3F89830CA
:1042F000934210B50C4607D11220844234BF0220ED
:10430000002010BD802070479847F6E72508000080
:1043100030B503680F4DD3F89830AB4283B00C46EC
:1043200014D15D20A04206D80B49104603B0BDE869
:10433000304025F07DBE0949C4EBC404104601EBB2
:10434000440103B0BDE8304025F072BE01929847A9
:10435000019AE7E745060000C81B030000E10200E0
:1043600030B50368104DD3F89830AB4283B00C469B
:1043700015D10820A04206D80C49104603B0BDE86C
:10438000304025F055BE04EB8403094904EB430497
:104390001046214403B0BDE8304025F049BE0192EB
:1043A0009847019AE6E700BF75060000C81B0300A6
:1043B00006D5030003680B4AD3F89830934205D121
:1043C000082088428CBF02200020704700B583B0CF
:1043D00001919847019988428CBF0220002003B0C8
:1043E0005DF804FB7506000030B504680F4DD4F885
:1043F0009840AC4285B012D108208842184608D9AE
:10440000012A0CBF0A490B4905B0BDE8304025F030
:1044100063BE094905B0BDE8304025F05DBE039399
:1044200002920191A04701A90EC9E6E775060000B6
:104430002018030060120300C81B030030B5036896
:10444000104DD3F89830AB4283B00C4615D12F20D5
:10445000A04206D80C49104603B0BDE8304025F014
:10446000E7BD0A4904EB440401EBC40110460931DD
:1044700003B0BDE8304025F0DBBD01929847019ABA
:10448000E6E700BF79060000C81B030048390300B7
:10449000F0B504683B4FD4F89850BD428BB0164637
:1044A0001C462FD12F20884226D9374801EB4101E5
:1044B00000EBC101898A0BB2002B4BDD47F6164396
:1044C000994223D047F6174399424CD047F61543FB
:1044D000994221D08A19013A2C4902EBC2021144B7
:1044E00006A825F0F5FC06A9204625F0F1FD06A852
:1044F00025F0AEFC0BB0F0BD2046254925F0ECFDC3
:104500000BB0F0BD0191A8470199CCE7710006A856
:104510000A2225F023FDE6E73F2E26D9402E2BD098
:10452000EED91C4906A825F0D3FCA6F132010A22D7
:1045300002A825F013FD02A906A825F0FFFD0146FB
:10454000204625F0C5FD02A825F082FC06A825F02E
:104550007FFCD5E7012E20460CBF0F490F4925F0FF
:10456000BBFD0BB0F0BD3146D1E70D4906A825F0E3
:10457000AFFCC6F13201DAE720460A4925F0ACFD6E
:10458000BEE700BF790600004839030020FE0200A4
:10459000C81B0300801A03002018030060120300E8
:1045A000541203005C12030030B50368104DD3F8B9
:1045B0009830AB4283B00C4615D12E20A04206D8CD
:1045C0000C49104603B0BDE8304025F031BD0A4922
:1045D00004EB440401EBC4011046093103B0BDE80B
:1045E000304025F025BD01929847019AE6E700BFCB
:1045F000FD060000C81B0300CCB10300F0B5046841
:10460000394FD4F89850BD428BB016461C4628D17D
:104610002E2088421FD9354801EB410100EBC10132
:10462000898A0BB2002B49DD47F6154399421CD00D
:104630003AD347F61743994236D8314606A80A229C
:1046400025F08CFC06A9204625F042FD06A825F0A1
:10465000FFFB0BB0F0BD2046254925F03DFD0BB01A
:10466000F0BD0191A8470199D3E73F2E2FD9402EE5
:1046700034D0F4D91F4906A825F02AFCA6F132014E
:104680000A2202A825F06AFC02A906A825F056FD18
:104690000146204625F01CFD02A825F0D9FB06A8FE
:1046A00025F0D6FB0BB0F0BD8A19013A124902EB96
:1046B000C202114406A825F00BFCC3E7012E2046D8
:1046C0000CBF0E490E4925F007FD0BB0F0BD0D499A
:1046D00006A825F0FDFBC6F13201D1E720460A49C4
:1046E00025F0FAFCBBE700BFFD060000CCB10300DB
:1046F000C81B0300801A03007CD8030020180300A5
:1047000060120300541203005C12030030B503680A
:10471000104DD3F89830AB4283B00C4615D1102021
:10472000A04206D80C49104603B0BDE8304025F041
:104730007FBC04EB4403094904EB83041046214485
:1047400003B0BDE8304025F073BC01929847019A50
:10475000E6E700BF39090000C81B030084C7030057
:1047600030B504680E4DD4F89840AC4285B010D1F5
:104770001020884206D80B49184605B0BDE83040E5
:1047800025F0AABC1946104605B0BDE83040FEF73A
:1047900087B9039302920191A04701A90EC9E8E7E6
:1047A00039090000E413030010B503680F4CD3F877
:1047B0009830A34282B012D11220884206D80C4908
:1047C000104602B0BDE8104025F032BC094B10463F
:1047D00003EB011102B0BDE8104025F029BC8DE8C3
:1047E000060098479DE80600E7E700BF250800009F
:1047F000C81B03005CD7030030B504680E4DD4F825
:104800009840AC4285B010D11220884206D80B499E
:10481000184605B0BDE8304025F05EBC194610468C
:1048200005B0BDE83040FEF73BB903930292019119
:10483000A04701A90EC9E8E725080000E41303001A
:10484000F8B50368444DD3F89830AB4206460C46A1
:10485000174659D18A20A04243D9892C56D82146DF
:104860003046FFF7A7F84FF6FF73984205464DD044
:1048700096F8933023B3394BC4EBC40403EB8404A0
:10488000638803F47043B3F5204F23D02FD8B3F5DA
:10489000004F4ED0B3F5104F59D13149384625F06D
:1048A000C7FB96F86C212F49C5EBC5056D004B5D24
:1048B000934245D038462C49BDE8F84025F00CBC61
:1048C000C4EBC404254B33F8243003F47043B3F530
:1048D000204FDBD196F86D31012B14BF072229221E
:1048E000E1E738462149BDE8F84025F0A1BBB3F522
:1048F000304F16D0B3F5404F29D196F86E31012BC9
:1049000014BF07222922CEE79847A4E7134BC4EB34
:10491000C40403EB840138460531BDE8F84025F0B6
:1049200087BB96F86F31A3B1012B0CBF282225223B
:10493000B9E70F49384625F07BFB96F86A21B2E7C4
:10494000294438460231BDE8F84025F0C5BB0022B5
:10495000A9E70222A7E700BFCD080000446F0300CB
:1049600078120300488A030010120300C81B0300DA
:10497000E81303002DE9F0410468DFF8B4E2D4F84D
:104980009880F04588B007460C4615461E462ED145
:104990008A20A04224D9892C2BD838462146FFF7FB
:1049A00009F84FF6FF73984223D0904BC0EBC0003C
:1049B00003EB4000828913B2002B23DDA2F5F843FC
:1049C0000E3B092B00F2E780DFE813F035005400BE
:1049D000AC007C00810056006B00C100E0002600A6
:1049E0003046834925F078FB08B0BDE8F081C04728
:1049F000CFE7804BC4EBC40403EB8404E28A13B218
:104A0000002BDBDC012D30460CBF7B497B4925F0B8
:104A100063FB08B0BDE8F081294604A80A2225F00E
:104A20009DFA04A9304625F053FB04A825F010FA9E
:104A300008B0BDE8F081182D00F2C380A5F118017F
:104A400001EBD1710A22491004A825F087FA04A9C4
:104A5000304625F03DFB04A825F0FAF9EB0754BFDA
:104A600067496849304625F037FB3046664925F0EE
:104A700033FBB9E7691CD0E7142D00F2A7800A22A6
:104A8000A5F1140104A825F069FA04A9304625F01F
:104A90001FFB04A825F0DCF930465B4925F01CFB20
:104AA000A2E729460A2204A825F058FA04A93046AC
:104AB00025F00EFB04A825F0CBF93046534925F02C
:104AC0000BFB91E7182D77D8A5F11801A5E7013563
:104AD0004F4CADB2A4FB0534E4080A22214604A8D9
:104AE00025F03CFA04A9304625F0F2FA04A825F096
:104AF000AFF904EB84044749304625F0EDFAA5EB05
:104B000044010A2289B204A825F028FA04A93046F3
:104B100025F0DEFA04A825F09BF930463E4925F041
:104B2000DBFA61E70A22690804A825F017FA04A94C
:104B3000304625F0CDFA04A825F08AF905F00105E4
:104B40003449304625F0C8FAA9002944AAE73F2D88
:104B50002BD9402D44D07FF647AF304904A825F02B
:104B6000B7F9A5F132010A22684625F0F7F969463E
:104B700004A825F0E3FA0146304625F0A9FA684674
:104B800025F066F904A825F063F92DE7322D22D827
:104B9000A5F1320141E72A44013A214902EBC20260
:104BA000114404A825F094F93BE71E4904A825F018
:104BB0008FF9C5F13201D6E71B49304625F08CFA52
:104BC00082E71949304625F087FA37E7164930461B
:104BD00025F082FA53E71449304625F07DFAD7E7ED
:104BE0003046124925F078FAFEE600BF488A0300F5
:104BF000C81B0300446F0300201803006012030069
:104C0000FC13030000140300F8130300F013030067
:104C1000CDCCCCCC541B030004140300801A030039
:104C20000C99030054120300F41303005C120300F8
:104C3000CD08000030B50368104DD3F89830AB4272
:104C400083B00C4615D11020A04206D80C4910465E
:104C500003B0BDE8304025F0EBB904EB440309494B
:104C6000C4EBC3041046214403B0BDE8304025F036
:104C7000DFB901929847019AE6E700BF39090000C1
:104C8000C81B0300A4A30300F8B5A1F10E05012D74
:104C90001DD91D4603681746D3F89830104A934231
:104CA0000C461AD110208442284606D2012F09D082
:104CB0000C49BDE8F84025F00FBA0B49BDE8F840B3
:104CC00025F00ABA0949BDE8F84025F005BA1946A9
:104CD0001046BDE8F840FDF7E3BE9847E3E700BFA4
:104CE0003909000008140300E4130300201803002E
:104CF00030B503680F4DD3F89830AB4283B00C4603
:104D000014D10920A04206D80B49104603B0BDE8D3
:104D1000304025F08DB9094904EB8404104601EBBD
:104D2000440103B0BDE8304025F082B901929847B4
:104D3000019AE7E7F9090000C81B030074C90300E2
:104D400030B504680E4DD4F89840AC4285B010D10F
:104D50000920884206D80B49184605B0BDE8304006
:104D600025F0BAB91946104605B0BDE83040FDF748
:104D700097BE039302920191A04701A90EC9E8E7EB
:104D8000F9090000E413030010B50368104CD3F8D0
:104D90009830A34282B015D10F20884206D80D4921
:104DA000104602B0BDE8104025F042B90A4B01EBB5
:104DB0004101C1EBC1011046194402B0BDE81040E9
:104DC00025F036B98DE8060098479DE80600E4E72F
:104DD0000D0A0000C81B0300043E030030B5046840
:104DE0000E4DD4F89840AC4285B010D10F208842C7
:104DF00006D80B49184605B0BDE8304025F06CB91F
:104E00001946104605B0BDE83040FDF749BE039392
:104E100002920191A04701A90EC9E8E70D0A00001E
:104E2000E413030030B503680F4DD3F89830AB425C
:104E300083B00C4614D16320A04206D80B4910461B
:104E400003B0BDE8304025F0F3B8094B1A2101FB4F
:104E5000043110460B3103B0BDE8304025F0E8B80E
:104E600001929847019AE7E7C50A0000C81B0300B2
:104E70008856030030B50368104DD3F89830AB4224
:104E800083B00C4615D1B020A04206D80C4910467C
:104E900003B0BDE8304025F0CBB80A4904EB440428
:104EA00001EBC4011046033103B0BDE8304025F0EA
:104EB000BFB801929847019AE6E700BF290B0000AE
:104EC000C81B030004E00300F0B504683A4FD4F8AF
:104ED0009840BC428BB016461D462ED1B020884269
:104EE00025D9364801EB410100EBC101898A0BB29B
:104EF000002B4ADD47F61643994222D047F6174366
:104F000099424BD047F61543994220D031442C4B5F
:104F1000013903EBC10106A824F0DAFF06A92846EF
:104F200025F0D6F806A824F093FF0BB0F0BD284674
:104F3000244925F0D1F80BB0F0BD0191A0470199AB
:104F4000CDE7710006A80A2225F008F8E6E7312E21
:104F500026D9322E2BD0EED91B4906A824F0B8FF53
:104F6000A6F132010A2202A824F0F8FF02A906A83D
:104F700025F0E4F80146284625F0AAF802A824F016
:104F800067FF06A824F064FFD5E7012E28460CBF72
:104F90000E490F4925F0A0F80BB0F0BD3146D1E71E
:104FA0000C4906A824F094FFC6F13201DAE728463E
:104FB000094925F091F8BEE7290B000004E0030041
:104FC0005CCC0300C81B0300801A030020180300F8
:104FD00060120300541203005C12030030B5036832
:104FE0000D4DD3F89830AB4283B00C4610D106205B
:104FF000A04206D80949104603B0BDE8304025F06C
:1050000017B81146204603B0BDE83040FDF7B8BFE1
:1050100001929847019AEBE7ED0B0000C81B0300D3
:1050200003680B4AD3F89830934205D10620884292
:105030008CBF02200020704700B583B001919847D3
:10504000019988428CBF0220002003B05DF804FB68
:10505000ED0B000030B504680F4DD4F89840AC4219
:1050600085B012D106208842184608D9012A0CBF03
:105070000A490B4905B0BDE8304025F02DB8094973
:1050800005B0BDE8304025F027B8039302920191A6
:10509000A04701A90EC9E6E7ED0B000020180300A8
:1050A00060120300C81B030030B503680D4DD3F830
:1050B0009830AB4283B00C4610D10620A04206D8EF
:1050C0000949104603B0BDE8304024F0B1BF114695
:1050D000204603B0BDE83040FDF752BF019298472B
:1050E000019AEBE7ED0B0000C81B030003680B4AB5
:1050F000D3F89830934205D1062088428CBF022015
:105100000020704700B583B001919847019988420B
:105110008CBF0220002003B05DF804FBED0B000003
:1051200030B504680F4DD4F89840AC4285B012D128
:1051300006208842184608D9012A0CBF0A490B49A3
:1051400005B0BDE8304024F0C7BF094905B0BDE84F
:10515000304024F0C1BF039302920191A04701A9FE
:105160000EC9E6E7ED0B00002018030060120300F3
:10517000C81B0300A1F10E02012A01D8802070474C
:105180000368074AD3F89830934210B50C4605D10E
:105190001020844234BF0220002010BD9847F8E759
:1051A0003909000030B5838C8B4283B004460AD0A5
:1051B0000A480B4AE3840123A184037084F8A330D6
:1051C000137003B030BD0268064D526FAA42EFD093
:1051D00001919047A38C0199EAE700BF3A09FF1FAC
:1051E0003883FF1F090A0000828C8A4208B50346F3
:1051F0000AD00120DA84998483F833010649074AEA
:1052000001230B70137008BD0368054A5B6F93425E
:10521000F4D09847F2E700BF3A09FF1F3883FF1F19
:10522000090A000010B5838C8B4282B0044618BF77
:10523000C38409D009480A4AA1840123037084F871
:10524000A030137002B010BD0368064A5B6F934232
:10525000F0D0019198470199ECE700BF3A09FF1F90
:105260003883FF1F090A000010B51A4A1A4B9479B7
:105270001A4A03FB01F100FB04F091FBF0F4631EFA
:10528000934288B009D8C4EB04139B00013B232B45
:1052900003D9134A126802B1136004A8114924F01B
:1052A00017FE0A222146684624F06CFE694604A8CF
:1052B00024F044FF01460C4824F094FD0A4824F0F1
:1052C000B7FD684624F0C4FD04A824F0C1FD08B071
:1052D00010BD00BFE41E0020008793034744440430
:1052E000181F002010140300A416FF1F90F8A1300F
:1052F00013B190F8A01001B970471846FFF7B4BF7A
:1053000010B5124A12491348134C88B024F0C0FC5F
:1053100004A8124924F0DCFD0A22684645F2611116
:1053200024F030FE694604A824F008FF0146204618
:1053300024F058FD204624F07BFD684624F088FDCB
:1053400004A824F085FD08B010BD00BFBB121300F7
:1053500075040000181F0020A416FF1F2814030066
:1053600038B5074C04F1380554F8040F03681B687E
:105370009847AC42F8D1BDE83840FFF7C1BF00BF45
:105380003809FF1F08B5074A074B11780220002291
:105390001A6022F0FDFA054B03201978BDE8084099
:1053A00022F0F6BA3809FF1FA49CFF1FF609FF1F61
:1053B00000B5074A074B12681B6883B00192019A37
:1053C000934202D20BB1FFF7DDFF03B05DF804FB9F
:1053D0009C750020A49CFF1F38B50C46054622F0A2
:1053E000BDFA844205D021462846BDE8384022F067
:1053F000CFBA38BD70B584B00C46064624F03EFFE7
:10540000057AA5420DD2013C651BEDB201350024A1
:1054100001342021304624F06DFEAC42F8D104B0B6
:1054200070BD234600226846314624F0FBFE6946E3
:10543000304624F0F5FD684624F00AFD04B070BD46
:105440002DE9F041057A102D28BF102585B16F1E7A
:10545000FFB20D4E8046013700242146404624F01D
:10546000BDFE0134BC4206F8010FF6D1102D08D064
:10547000064920226B1C4A55DDB2102DFAD1BDE839
:10548000F081BDE8F08100BF2F1300203013002011
:105490002DE9F041057A102D28BF102585B16F1E2A
:1054A000FFB20D4E8046013700242146404624F0CD
:1054B00095FE0134BC4206F8010FF6D1102D08D03C
:1054C000064920226B1C4A55DDB2102DFAD1BDE8E9
:1054D000F081BDE8F08100BF0323002004230020F9
:1054E000F8B5047A102C064629D8012C1FD8C4F12F
:1054F0001007002F09DD0022124813462021013336
:10550000DBB2BB4281541A46F9DBD4B1651E0E4BA7
:10551000EDB201351F4400242146304624F05EFEE2
:105520000134AC4207F8010FF6D1F8BDECB2651EAC
:105530002946304624F052FE2028F7D0D7E7102421
:10554000F5E7F8BD04230020032300202DE9F047F0
:105550000D7A102D28BF102580465DB300EBC006E4
:10556000DFF8589000EB460605F1FF3A09EB860696
:105570005FFA8AFA0F460B360AF1010A0024214627
:10558000384624F01DFE0134037806F8013F5445E7
:10559000F5D1102D0CD04C2303FB0898202208EBEA
:1055A00005030135EDB2102D1A73F8D1BDE8F0876F
:1055B000BDE8F087DFF80490EDE700BF1C30FF1F67
:1055C000F8B5064608460C4627F01AF9C0B210286E
:1055D00028BF1020F8B106EBC603104F06EB4303BB
:1055E00007EB8303451E0B3354FA85F5611E11F852
:1055F000012F03F8012FA942F9D110280AD04C231A
:1056000003FB0676202233180130C0B210281A732B
:10561000F9D1F8BDF8BD014FF1E700BF1C30FF1F05
:10562000F0B5134B134E144D07468E460FCB8DB07D
:105630006C4607C4237096E80F0004AC07C42370BF
:1056400095E80F0008AC07C497F86A20237042B1B0
:10565000012A0CBF04A908A97046FFF7B1FF0DB0DD
:10566000F0BD69467046FFF7ABFF0DB0F0BD00BF5F
:105670005814030068140300781403002DE9F04760
:10568000DFF87C80DFF87CC0DFF87CE01B4D8246D1
:105690008946B8E80F0094B06F460FC7BCE80F000A
:1056A00005AE0FC6BEE80F000AAC0FC4D8F8001054
:1056B000DCF80020DEF800302370397032700FCD36
:1056C0000FAC0FC49AF86A302A682270012B0BD0F5
:1056D000022B0ED0032B0CBF0FA969464846FFF7DB
:1056E0006FFF14B0BDE8F08705A94846FFF768FFD3
:1056F000F7E70AA94846FFF763FFF2E788140300BB
:105700009C140300B0140300C41403002DE9F047F7
:10571000DFF87C80DFF87CC0DFF87CE01B4D824640
:105720008946B8E80F0094B06F460FC7BCE80F0079
:1057300005AE0FC6BEE80F000AAC0FC4D8F80010C3
:10574000DCF80020DEF800302370397032700FCDA5
:105750000FAC0FC49AF86A302A682270012B0AD065
:10576000022B0DD08CBF0FA969464846FFF728FFD2
:1057700014B0BDE8F08705A94846FFF721FFF7E719
:105780000AA94846FFF71CFFF2E700BFD814030040
:10579000EC14030000150300141503002DE9F04775
:1057A0000D7A102D28BF102580465DB300EBC00692
:1057B000DFF8589000EB460605F1FF3A09EB860644
:1057C0005FFA8AFA0F461C360AF1010A00242146C4
:1057D000384624F0F5FC0134037806F8013F5445BF
:1057E000F5D1102D0CD04C2303FB0898202208EB98
:1057F00005030135EDB2102D5A77F8D1BDE8F087D9
:10580000BDE8F087DFF80490EDE700BF1C30FF1F14
:1058100070B5054684B00E4622B316494C2303FBEF
:1058200006135432D4B25C866846002124F050FB43
:10583000A91D684624F0FCFB6846202124F05AFC90
:105840000D49C4EBC40401EB4401684624F044FC58
:1058500069463046FFF7A2FF684624F0F9FA0120B6
:1058600004B070BD90F86A20002AD6D1012004B09F
:1058700070BD00BF1C30FF1F00E1020070B588B092
:1058800006460C4668461E49154624F021FB1D4974
:105890004C2303FB04130222DA71F27F83F82E20DB
:1058A000A5F10E02012A09D920466946FFF776FFC5
:1058B000684624F0CDFA012008B070BD0E2D1AD034
:1058C00096F8692083F842204C2303FB04110A2236
:1058D0004B7A042B0CBF91F8421091F8441004A8A5
:1058E000013124F03BFB04A9684624F0F1FB04A835
:1058F00024F0AEFAD8E796F8682083F84220E3E770
:10590000D41103001C30FF1F30B50C48144602EBC5
:105910004203026885B0C3EB03130D466846D118F5
:1059200024F0D6FA0B2C03D828466946FFF736FF39
:10593000684624F08DFA012005B030BDF83700200C
:10594000F0B585B0064614460D466846234924F056
:10595000BFFA301990F8931001B9ACBB90F89C30A5
:105960001F4F5BB34C2303FB05730122DA71A200C6
:105970001C4B161903EB46064C2101FB0571767A88
:1059800081F82E60144403EB4404237A63B190F849
:1059900093201549013B134403EB830203EB4203BD
:1059A0001944684624F098FB28466946FFF7F6FE3E
:1059B000684624F04DFA012005B0F0BD4C2303FBEE
:1059C00005730222DA71D2E7054E064B4C2202FB28
:1059D0000566A200F17186F82E10D3E7D4110300FA
:1059E0001C30FF1F74C90300F46B030070B515462B
:1059F000064684B035440C466846114924F068FADE
:105A000095F893300F4AA3B14C2303FB04230121E3
:105A1000D9714C2303FB0423F27F83F82E20204608
:105A20006946FFF7BBFE684624F012FA012004B075
:105A300070BD4C2303FB04230221D971E9E700BFA9
:105A4000D41103001C30FF1F2DE9F04391B015461F
:105A500007460E4668466F4924F03AFA0B2D52D895
:105A6000DFF8C081DFF8C8916B48D9F800204C23DB
:105A700003FB06830221D971BB8C03EB4303C3EB09
:105A800003131A442A440023517D92F821E01C4656
:105A900006E00133712B00F113004BD010F8134CCA
:105AA000A142DAB2F5D110F8124C7445F1D1002AB6
:105AB00040D003EBC302594903EB42031944684643
:105AC00024F00AFBBB8C564AD9F8001003EB4303C1
:105AD000A2FB0502C3EB031352080B4402EB420086
