:1000000000000320D101000045160200091602007D
:10001000091602000916020009160200091602005C
:100020000916020009160200091602004516020010
:100030004516020009160200454702003548020035
:10004000451602004516020045160200451602003C
:10005000451602004516020045160200451602002C
:10006000451602004516020045160200451602001C
:10007000451602004516020045160200451602000C
:1000800045160200451602004516020045160200FC
:1000900045160200451602004516020045160200EC
:1000A000A9D40100B9D4010045160200451602008A
:1000B000451602004516020045160200CD25020035
:1000C00045160200692D020045160200794802001B
:1000D000451602007D490200451602004516020041
:1000E000451602004516020045160200451602009C
:1000F000451602004516020045160200451602008C
:10010000451602004516020045160200451602007B
:10011000451602004930020045160200451602004D
:10012000451602004516020045160200451602005B
:10013000451602004516020045160200451602004B
:100140004516020045160200814A020045160200CB
:10015000451602004516020045160200451602002B
:100160004516020045160200C9D4010045160200DA
:10017000451602004516020045160200451602000B
:1001800045160200451602004516020045160200FB
:100190004516020045160200854B02004516020076
:1001A000451602004516020045160200D9D401008A
:1001B00045160200451602004516020045160200CB
:1001C00045160200451602004516020045160200BB
:1001D0005C4B4CF2205210B51A804DF628121A8052
:1001E00000BF00BF21F032FA574B4FF030621A6067
:1001F000564A9A60564ADA60564B4FF470021A60BB
:10020000554B564A1A60564B1A78110703D51A787F
:1002100042F008021A70534B5349AA221A70534AEB
:10022000534B8B4204D252F8040F43F8040BF8E707
:10023000504B514900228B4202D243F8042BFAE77B
:100240004E494F4A002352F8230041F8230001335E
:10025000742BF8D14B4B4C4A802103F8011B93427D
:10026000FBD14A4B454A1A60494B8A221A70A3F5C2
:10027000805324225A70A0221A709A799207FCD5D2
:100280009A79D406FCD4434A937903F00C03082BE3
:10029000FAD1414B60221A7002331A78802AFCD1BD
:1002A0003C4B01221A715D225A719A799006FCD555
:1002B0009979384A4906FBD5384B394919600021EC
:1002C000596020231370937903F00C030C2BFAD19F
:1002D000344B354A1A60354A354C136813F4807331
:1002E00003D123604FF4A8531360324B324A1A6093
:1002F00000225A60072243F8042C304AC3F80C2D20
:1003000062B621F051FD2368DA0705D52C4821F0AB
:1003100069FA2C4B2C4A1A602C4B1B785B0609D5CA
:10032000284C294B22689A4204D1254821F05AFAD8
:100330000023236024F086FE21F08EF921F0C2F81C
:10034000FEE700BF0E20054030800440823F0400DD
:100350000100002B88ED00E0002008E0030000858C
:1003600002D0074000E007404022FF1F145A03005C
:100370005008FF1F0030FF1F7C7C00200002FF1F81
:100380000000000000E400E064E400E008ED00E0AC
:10039000005006400040064001E007404480044011
:1003A0000000060204800440C010070010D0034083
:1003B00014D0034014E000E01FBF02000000202022
:1003C000774A765D1CE00340A5C3945A00F00740CD
:1003D000FFFFFFFFFFFFFFFFFFFFFFFFFFFFFFFF2D
:1003E000FFFFFFFFFFFFFFFFFFFFFFFFFFFFFFFF1D
:1003F000FFFFFFFFFFFFFFFFFFFFFFFFFFFFFFFF0D
:10040000FFFFFFFFFFFFFFFFFFFFFFFFDEF9FFFF23
:1004100010B5054C237833B9044B13B10448AFF33E
:1004200000800123237010BD0030FF1F000000007A
:10043000105A0300084B10B51BB108490848AFF328
:1004400000800848036803B910BD074B002BFBD0A0
:10045000BDE81040184700BF000000000430FF1F37
:10046000105A03004022FF1F0000000000207047C8
:10047000704700BF704700BF704700BF704700BFA4
:10048000704700BF704700BF2DE9F041094B1D7850
:10049000094C04F12808094F2D091E4654F8040B95
:1004A000795D32780368DB69114398474445F5D19B
:1004B000BDE8F0810CE4FF1F680AFF1FE068002020
:1004C00000230371CD2280F8882080F8893080F8DD
:1004D0008A3080F88B307047704700BF704700BF8C
:1004E000704700BF10B590F821409C420BD190F8A6
:1004F0002030934207D189B2838C8B4203D0818410
:1005000003689B6C984710BD704700BF10B490F80B
:1005100020409C4208D190F821409DF804309C4234
:1005200002D109B980F846205DF8044B704700BF3E
:10053000704700BF704700BF704700BF704700BFE3
:10054000704700BF704700BF704700BF704700BFD3
:10055000704700BF704700BF704700BF90F847303A
:100560006BB9B0F8423001EB81014900642202FB13
:100570000311C08F8142CCBF0020012070470120B1
:10058000704700BFB0F84420094B1A70437901331B
:10059000084A13706423A0F84430838C064AA2FBF7
:1005A00003235B09A0F84230002380F847307047EE
:1005B0001C8CFF1FB20E00201F85EB5190F84730B6
:1005C00063B9B0F8420000EB800000EB800001EB63
:1005D0008101490001EB800080B27047B0F84230E1
:1005E00003EB830301EB430189B290F826008142BB
:1005F0002CBFC0EB0100C0EB000080B2704700BF11
:10060000704700BF704700BF08B50368DB6F9847AD
:1006100008BD00BF704700BF704700BF0020704793
:100620000020704708B50368D3F89830984708BD94
:100630000846704780F862100023A0F860307047C9
:100640000020704700207047704700BF704700BF10
:10065000704700BF704700BF704700BF704700BFC2
:1006600090F866304BB10133DBB2022B88BF012317
:1006700080F866300222014B1A707047AE0D0020E0
:10068000704700BF704700BF00207047704700BF31
:10069000704700BF704700BF5D207047542904D9E0
:1006A0005D2934BF8020002070470220704700BFC2
:1006B0000379022B06BF90F8EC0040005D207047E4
:1006C0000379022B15D170B400F18D0400231A4672
:1006D000DEB214F8015F35B195B28D4201D1B0B2EE
:1006E00009E00132D2B201335D2BF1D14FF6FF7038
:1006F00001E00846704770BC704700BF90F8ED00FD
:10070000704700BF2F2070472E299DBF024B03EB7F
:100710004111087A0020704788A302000820704722
:100720001531C8B2704700BF10B44C20044C00FB18
:10073000014181F8303081F83C205DF8044B70476E
:100740002069FF1F08B590F8923013B103685B6F02
:10075000984708BDB0F84420074B1A70437901331D
:10076000064A13704FF49673A0F844300023A0F8A3
:10077000423080F8473070471C8CFF1FB20E0020BB
:1007800090F8473023B9C1EB0111480080B208E06E
:10079000B0F84200C0EB001001EB410101EB40005A
:1007A00080B2022898BF0320033880B2704700BF90
:1007B0002E2070472D299DBF024B03EB4111087A73
:1007C00000207047B8050300082070471531C8B2F3
:1007D000704700BF10B44C20044C00FB014181F86D
:1007E000303081F83C205DF8044B70472069FF1FD2
:1007F000022380F86630704790F8473053B901EB18
:100800008101C38F828F9B1AB3EBC10FACBF012054
:1008100000207047B0F8423003B961B103EB8303A5
:1008200001EB4301C38F828F9B1AB3EB810FACBFE7
:100830000120002070470020704700BFB0F844201E
:10084000074B1A7043790133064A13704FF4C8738B
:10085000A0F844300023A0F8423080F847307047B9
:100860001C8CFF1FB20E0020704700BF1020704785
:100870000F2907D801EBC10301EB4301024B1944D7
:10088000887C7047002070473810030001207047B3
:1008900010B590F821409C420ED190F82030934240
:1008A0000AD189B2838C8B4206D0818403689B6C09
:1008B00098470222014B1A7010BD00BFAE0D0020F8
:1008C000002380F849300379022B07D190F8483093
:1008D00023B9012380F88D3080F82110704700BFC4
:1008E00090F88F3023B390F8473083B9B0F84220A6
:1008F000322303FB01F14FF4FA7303FB0211C38FA0
:10090000808F181A8142CCBF002001207047B0F8B8
:10091000423003B971B101EB8101322202FB0313B2
:10092000C28F808F101A8342CCBF002001207047F5
:100930000120704700207047B0F844200B4B1A701C
:10094000437901330A4A137090F88F301BB964233E
:10095000A0F8443003E04FF4FA73A0F844300023C9
:10096000A0F8423080F84730704700BF1C8CFF1F52
:10097000B20E002010B5044690F8483080F84B3095
:10098000084B1B7813B103685B6B9847A28C064B2E
:100990001A800123054A1370054A13700222054B81
:1009A0001A7010BDA8170020E2170020640AFF1F6C
:1009B0007056FF1FAE0D002012207047A1F10B03EF
:1009C0009BB2032B0AD910B50C460368D3F89830B4
:1009D0009847844234BF0220002010BD8020704719
:1009E00090F866304BB10133DBB2032B88BF012393
:1009F00080F866300122014B1A707047AE0D00205E
:100A00000120704710B5044690F8210098421BD190
:100A100094F82030934217D1042904D0032903D835
:100A20000131C9B200E0002189B2A38C8B420BD006
:100A3000A18423681B6D2046984723689B6C204641
:100A400098470222014B1A7010BD00BFAE0D002066
:100A500090F847307BB9B0F84230C3EB031301EB99
:100A6000410101EB4301C38F808F181A8142CCBF33
:100A7000002001207047B0F8423023B908298CBF0C
:100A80000020012070470139C9B207298CBF00201E
:100A900001207047B0F84420074B1A7043790133A6
:100AA000064A13705023A0F844300023A0F84230C7
:100AB00080F84730704700BF1C8CFF1FB20E00202B
:100AC00090F8473053B9B0F8423003EB830301EBA1
:100AD0004301808F00EBC10188B27047B0F842201B
:100AE000838F03EBC200014489B2002908BF0121B2
:100AF000013988B2704700BF8920704790F8623092
:100B000023B1034A134413F8010C7047892070473E
:100B1000BC6A0020F0B490F86260A6B10B4A0023D2
:100B20001D46DFB2D47DB44206D1ACB2A14201D1A0
:100B3000B8B209E00135EDB201331832892BF0D19A
:100B40004FF6FF7000E00846F0BC7047A8C50200F1
:100B500090F8663093B110B50133DBB2032B88BF38
:100B6000012380F866300C460368D3F8E8309847D4
:100B7000034B1C700122034B1A7010BD704700BF5D
:100B8000BF0E0020AE0D002010B590F821409C4211
:100B90000ED190F8203093420AD189B2838C8B42D7
:100BA00006D0818403689B6C98470222014B1A701F
:100BB00010BD00BFAE0D0020704700BF1020704771
:100BC000A1F10E039BB2012B0AD910B50C460368A4
:100BD000D3F898309847844234BF0220002010BDDB
:100BE0008020704790F866304BB10133DBB2022BA6
:100BF00088BF012380F866300122014B1A707047CC
:100C0000AE0D00200120704708B590F8482080F80C
:100C10004B200268526C818C904708BDB020704711
:100C2000C12906D801EB4101034B03EBC1018878D0
:100C300070470020704700BFC440030090F8623046
:100C400023B1034A134413F8010C7047C2207047C4
:100C500054340020F0B490F86260A6B10B4A00232F
:100C60001D46DFB2D47DB44206D1ACB2A14201D15F
:100C7000B8B209E00135EDB201331832C22BF0D120
:100C80004FF6FF7000E00846F0BC7047C440030018
:100C9000272070470B2902D80131C8B27047A1F153
:100CA0001703DBB20A2B02D80239C8B27047A1F190
:100CB0002203DBB21F2B9ABF1E31C8B2002070473F
:100CC00010B44C20044C00FB014181F8303081F815
:100CD0003C205DF8044B70472069FF1F90F8663098
:100CE0004BB10133DBB2022B88BF012380F86630A1
:100CF0000122014B1A707047AE0D002038B5044632
:100D00000D46838C8B4202D103685B6F9847A584A4
:100D1000012384F89A30024A1370024A137038BDD6
:100D2000640AFF1F7056FF1F0620704710B50C465F
:100D30000368D3F898309847A0428CBF0220002067
:100D400010BD00BF38B504460D46838C8B4202D1DE
:100D500003685B6F9847A584012384F82D31024A0C
:100D60001370024A137038BD640AFF1F7056FF1FCC
:100D70000620704710B50C460368D3F898309847A2
:100D8000A0428CBF0220002010BD00BF074B1B7883
:100D9000012B02D9013B054A13700122044B1A7042
:100DA0000023044A1370044A137070471E8CFF1FFF
:100DB0007056FF1FDC6A0020C10E0020074B1B7815
:100DC0000F2B02D80133054A13700122044B1A700D
:100DD0000023044A1370044A137070471E8CFF1FCF
:100DE0007056FF1FDC6A0020C10E0020704700BF54
:100DF00010B50446034B40F82C3B1FF0CDFE2046B7
:100E000010BD00BFECDA020010B50446034B40F8F9
:100E10002C3B1FF0C1FE204610BD00BFECDA0200E3
:100E200010B50446034B40F82C3B1FF0B5FE20469E
:100E300010BD00BFECDA020010B50446034B40F8C9
:100E40002C3B1FF0A9FE204610BD00BFECDA0200CB
:100E500010B50446034B40F82C3B1FF09DFE204686
:100E600010BD00BFECDA020010B50446034B40F899
:100E70002C3B1FF091FE204610BD00BFECDA0200B3
:100E800010B50446034B40F82C3B1FF085FE20466E
:100E900010BD00BFECDA020010B50446034B40F869
:100EA0002C3B1FF079FE204610BD00BFECDA02009B
:100EB00010B50446034B40F82C3B1FF06DFE204656
:100EC00010BD00BFECDA020010B50446034B40F839
:100ED0002C3B1FF061FE204610BD00BFECDA020083
:100EE00008B5C82020F04AFF014A024B1A6008BD2D
:100EF0000400FA050CED00E008B5024910461FF0A9
:100F0000E7FE08BDB881020008B5024918461FF087
:100F1000DFFE08BDC881020008B5024910461FF077
:100F2000D7FE08BDCC81020008B5024910461FF06B
:100F3000CFFE08BDD881020008B5024910461FF057
:100F4000C7FE08BDC881020038B50C4615460368C7
:100F5000D3F898309847A04283BF04EBC4040449F7
:100F600001EB4401034928461FF0B2FE38BD00BF23
:100F700074710200508B020038B50C4615460368A8
:100F8000D3F898309847A04283BF044901EB44113D
:100F90000931034928461FF09BFE38BD88A3020093
:100FA000508B020038B50C4615460368D3F89830CC
:100FB0009847A04283BF044901EB4411093103491A
:100FC00028461FF085FE38BDB8050300508B02008F
:100FD00038B50C4615460368D3F898309847A042B8
:100FE00009D904EBC40104EB410405492144284616
:100FF0001FF06EFE38BD034928461FF069FE38BD5C
:1010000038100300508B020038B50C4615460368B3
:10101000D3F898309847A04283BF1621034B01FBB9
:101020000431034928461FF053FE38BDA838030099
:10103000508B020038B50C4615460368D3F898303B
:101040009847A04209D904EB4401C4EBC104054907
:10105000214428461FF03CFE38BD034928461FF0B6
:1010600037FE38BDFCF40200508B020038B50C4648
:1010700015460368D3F898309847A04209D904EB85
:101080004404064901EBC401033128461FF020FE49
:1010900038BD034928461FF01BFE38BDC44003007D
:1010A000508B020030B589B015464BB2002B17DDCE
:1010B0000C460E4968461FF0BBFD214604A81FF0F0
:1010C00019FE04A968461FF0C5FE014628461FF018
:1010D000E1FD04A81FF060FD68461FF05DFD03E020
:1010E000034910461FF0F4FD09B030BDE081020055
:1010F000C881020030B589B015464BB2002B17DD10
:101100000C460E4968461FF093FD214604A81FF0C7
:10111000F1FD04A968461FF09DFE014628461FF018
:10112000B9FD04A81FF038FD68461FF035FD03E047
:10113000034910461FF0CCFD09B030BDE08102002C
:10114000C881020030B591B00C4615464B1EDBB28B
:10115000072B16D82A4968461FF06AFD214604A8C5
:101160001FF0C8FD04A968461FF074FE014628461A
:101170001FF090FD04A81FF00FFD68461FF00CFD46
:101180003BE0092904D11F4910461FF0A1FD34E0BE
:101190000A2904D11C4910461FF09AFD2DE00B29A5
:1011A00004D11A4910461FF093FD26E00C2904D102
:1011B000174910461FF08CFD1FE0A1F10D03DBB2B3
:1011C000722B16D8134908A81FF032FD21460CA82F
:1011D0001FF090FD0CA908A81FF03CFE0146284610
:1011E0001FF058FD0CA81FF0D7FC08A81FF0D4FC76
:1011F00003E0094910461FF06BFD11B030BD00BF80
:10120000E4810200F0810200FC8102000C820200F5
:1012100018820200E0810200C881020030B589B066
:101220000C4615460368D3F898309847A0421AD95F
:10123000104968461FF0FCFC0A22611C04A81FF03C
:101240006DFD04A968461FF005FE0B491FF00AFE5C
:10125000014628461FF01EFD04A81FF09DFC6846AD
:101260001FF09AFC03E0054928461FF031FD09B044
:1012700030BD00BF288202002C820200508B020089
:1012800030B589B00C4615460368D3F898309847B6
:10129000A0421AD9104968461FF0CAFC0A22611CF4
:1012A00004A81FF03BFD04A968461FF0D3FD0B49BD
:1012B0001FF0D8FD014628461FF0ECFC04A81FF0E3
:1012C0006BFC68461FF068FC03E0054928461FF0E8
:1012D000FFFC09B030BD00BF288202002C82020052
:1012E000508B020008B5811D10461FF081FD08BD1E
:1012F00008B5024910461FF07BFD08BD3082020090
:1013000008B5044B03EB4111093110461FF070FD85
:1013100008BD00BF88A3020008B5044B03EB4111D0
:10132000093110461FF064FD08BD00BFB805030079
:1013300008B501EBC10301EB4301034B194410460F
:101340001FF056FD08BD00BF3810030008B5162079
:10135000034B00FB013110461FF04AFD08BD00BFE2
:10136000A838030008B501EB4103C1EBC301034BEF
:10137000194410461FF03CFD08BD00BFFCF40200FC
:1013800008B501EB4101044B03EBC10103311046E9
:101390001FF02EFD08BD00BFC440030008B526297C
:1013A0009DBF01EB4101044B03EBC1010349104612
:1013B0001FF01EFD08BD00BF900C0300508B020003
:1013C00008B5262909D801EB4101064B03EBC10101
:1013D0000E3110461FF00CFD08BD034910461FF0EA
:1013E00007FD08BD900C0300508B020070B50C4641
:1013F00016461D460368D3F898309847A04207D98F
:10140000012E0CBF0549064928461FF0F1FC70BDAE
:10141000044928461FF0ECFC70BD00BFEC880200B8
:1014200040820200508B020070B50C4616461D46E5
:101430000368D3F898309847A04207D9012E0CBF13
:101440000549064928461FF0D3FC70BD04492846CB
:101450001FF0CEFC70BD00BFEC880200408202008D
:10146000508B02005C291FD838B515460C46014642
:10147000542C08D804EBC4010C4B03EB410110467B
:101480001FF0B6FC38BD063110461FF0B1FC20211C
:1014900028461FF0BBFC04EBC401044B03EB4101E5
:1014A00028461FF0A5FC38BD704700BF74710200CC
:1014B00070B584B00D4616460D4CA4FB0134E4080B
:1014C00004F14101C9B210461FF0A0FC04EB8404F2
:1014D000A5EB44010A2289B268461FF01FFC694649
:1014E00030461FF07FFC68461FF056FB04B070BD0D
:1014F000CDCCCCCC30B585B00D46144690F84730F5
:101500004BB94131C9B210461FF080FC0C4920464E
:101510001FF06EFC12E090F842104131C9B2104643
:101520001FF074FC0A22294668461FF0F7FB694643
:1015300020461FF057FC68461FF02EFB05B030BD5B
:101540004482020010B584B010461C46542907D8C6
:10155000012A0CBF0D490E4918461FF049FC12E044
:101560005C290CD80A22014668461FF0D7FB694661
:1015700020461FF037FC68461FF00EFB03E00549CC
:1015800018461FF035FC04B010BD00BFEC88020007
:1015900040820200508B020070B584B00D461646A2
:1015A0001C460368D3F898309847A8420CD90A2201
:1015B000314668461FF0B2FB694620461FF012FC18
:1015C00068461FF0E9FA03E0024920461FF010FCCC
:1015D00004B070BD4882020070B584B00D46164656
:1015E0001C460368D3F898309847A8420CD90A22C1
:1015F000314668461FF092FB694620461FF0F2FB19
:1016000068461FF0C9FA03E0024920461FF0F0FBCC
:1016100004B070BD4882020070B584B016461D4605
:10162000A1F10E039BB2012B0CD80A223146684669
:101630001FF074FB694628461FF0D4FB68461FF074
:10164000ABFA12E00C460368D3F89830984784420E
:1016500007D2012E0CBF0649064928461FF0C8FBD9
:1016600003E0054928461FF0C3FB04B070BD00BF6E
:10167000EC8802004C8202004882020090F865303B
:10168000ABB130B585B00D4604462D2128461FF07C
:10169000BDFB94F8651068461FF02CFB6946284690
:1016A0001FF0A0FB68461FF077FA05B030BD704709
:1016B00070B58CB016464D1C144C84FB0534EB17EA
:1016C000C3EBA4040A22214604A81FF027FB04A9A7
:1016D00068461FF0E9FA04EB84010A22A5EB4101F8
:1016E00008A81FF01BFB08A968461FF0B3FB0146C2
:1016F00030461FF077FB08A81FF04EFA68461FF02F
:101700004BFA04A81FF048FA0CB070BD6766666615
:1017100030B595B00D46144690F84730B3B90A225B
:1017200004A81FF0FBFA04A968461FF0BDFA184987
:1017300068461FF097FB014620461FF053FB6846A2
:101740001FF02AFA04A81FF027FA1FE00A22B0F8B7
:1017500042100CA81FF0E2FA0CA908A81FF0A4FA86
:101760000A22294610A81FF0D9FA10A908A81FF0CC
:1017700071FB014620461FF035FB10A81FF00CFA44
:1017800008A81FF009FA0CA81FF006FA15B030BD22
:101790004482020030B589B00D4614460B496846B4
:1017A0001FF046FA294604A81FF0A4FA04A96846C7
:1017B0001FF050FB014620461FF014FB04A81FF049
:1017C000EBF968461FF0E8F909B030BD5482020019
:1017D000F0B58DB00D461646174968461FF028FA39
:1017E0000135164C84FB0534EB17C3EBA4040A2225
:1017F000214604A81FF092FA04A968461FF02AFBAC
:10180000074604EB84010A22A5EB410108A81FF05A
:1018100085FA08A938461FF01DFB014630461FF027
:10182000E1FA08A81FF0B8F904A81FF0B5F9684656
:101830001FF0B2F90DB0F0BD5C820200676666660B
:1018400070B594B00E46154690F84730D3B921498B
:1018500068461FF0EDF90A22314604A81FF05EFA2F
:1018600004A968461FF0F6FA1B491FF0FBFA01466F
:1018700028461FF0B7FA04A81FF08EF968461FF03B
:101880008BF925E00446134908A81FF0D1F90A2274
:10189000B4F842100CA81FF041FA0CA908A81FF0D8
:1018A000D9FA04460A22314610A81FF037FA10A9C7
:1018B00020461FF0CFFA014628461FF093FA10A8E1
:1018C0001FF06AF90CA81FF067F908A81FF064F967
:1018D00014B070BD5C8202004482020070B59CB0FE
:1018E0000C4616461D460368D3F898309847A04228
:1018F00040F28380444901EB44114B8B1AB2002A19
:1019000073DD47F61642934215D047F617429342CD
:1019100004D047F61542934256D119E00A223146C7
:1019200004A81FF0FBF904A928461FF05BFA04A8DD
:101930001FF032F965E00A22710008A81FF0EEF9E5
:1019400008A928461FF04EFA08A81FF025F958E00C
:101950003F2E17D82D490CA81FF06AF90A22C6F1AC
:10196000320110A81FF0DAF910A90CA81FF072FAC2
:10197000014628461FF036FA10A81FF00DF90CA8F2
:101980001FF00AF9402E04D1214928461FF030FAF1
:1019900037E0402E35D91F4914A81FF049F90A2213
:1019A000A6F1320118A81FF0B9F918A914A81FF060
:1019B00051FA014628461FF015FA18A81FF0ECF856
:1019C00014A81FF0E9F81CE09919013901EBC101D5
:1019D000114B194468461FF02BF9694628461FF041
:1019E00001FA68461FF0D8F80BE0012E0CBF0B4936
:1019F0000B4928461FF0FCF903E00A4928461FF06E
:101A0000F7F91CB070BD00BF88A30200B4820200C9
:101A10006082020008880200207B0200EC8802003D
:101A200040820200508B020030B589B0154607296C
:101A300018D80C460E4968461FF0FAF80A22611CB5
:101A400004A81FF06BF904A968461FF003FA0146C9
:101A500028461FF0C7F904A81FF09EF868461FF03B
:101A60009BF803E0034910461FF0C2F909B030BDEE
:101A700064820200508B020030B589B015460729F8
:101A800018D80C460E4968461FF0D2F80A22611C8D
:101A900004A81FF043F904A968461FF0DBF90146CA
:101AA00028461FF09FF904A81FF076F868461FF03B
:101AB00073F803E0034910461FF09AF909B030BDEE
:101AC0006C820200508B02002DE9F04194B00C466C
:101AD0001746444BA3FB01235B08622B04D8424901
:101AE00038461FF085F92DE0054690F88D2051000D
:101AF00063318B420EDB3D4938461FF079F995F88A
:101B00008D3003EB43024FF6D763A3EB42031C4433
:101B1000A4B217E0633293420DDB354938461FF01B
:101B200067F995F88D3003EB4303C3F57E43D73354
:101B30001C44A4B206E02F4938461FF059F9A4F21C
:101B40002914A4B2274DA5FB04356D081FFA85F8AA
:101B500008F10108284E86FB08364FEAE873C3EB0C
:101B6000A6060A22314604A81FF0D8F804A9684640
:101B70001FF09AF806EB86010A22A8EB410108A89B
:101B80001FF0CCF808A968461FF064F901463846F2
:101B90001FF028F908A81EF0FFFF68461EF0FCFFA2
:101BA00004A81EF0F9FF15490CA81FF041F805EB39
:101BB0004501611A89B20A22013110A81FF0AEF85E
:101BC00010A90CA81FF046F9014638461FF00AF983
:101BD00010A81EF0E1FF0CA81EF0DEFF14B0BDE857
:101BE000F08100BFABAAAAAA708202007482020030
:101BF00008880200B482020067666666C881020037
:101C000070B594B00E46154690F84730D3B92349C5
:101C100068461FF00DF80A22314604A81FF07EF82E
:101C200004A968461FF016F91D491FF01BF901466B
:101C300028461FF0D7F804A81EF0AEFF68461EF035
:101C4000ABFF28E00446154908A81EF0F1FF0A2260
:101C5000B4F842100CA81FF061F80CA908A81FF0F6
:101C6000F9F804460A22314610A81FF057F810A9C7
:101C700020461FF0EFF80B491FF0F4F80146284604
:101C80001FF0B0F810A81EF087FF0CA81EF084FF0C
:101C900008A81EF081FF14B070BD00BF7082020062
:101CA000788202007C82020070B598B00C4616461D
:101CB0001D460368D3F898309847A04271D93C4933
:101CC00001EB44114B8B1AB2002A62DD47F6154234
:101CD000934211D04CD347F61742934248D80A2278
:101CE000314604A81FF01AF804A928461FF07AF814
:101CF00004A81EF051FF58E03F2E17D82D4908A820
:101D00001EF096FF0A22C6F132010CA81FF006F859
:101D10000CA908A81FF09EF8014628461FF062F89B
:101D20000CA81EF039FF08A81EF036FF402E04D183
:101D3000214928461FF05CF837E0402E35D91F496D
:101D400010A81EF075FF0A22A6F1320114A81EF099
:101D5000E5FF14A910A81FF07DF8014628461FF0E2
:101D600041F814A81EF018FF10A81EF015FF1CE083
:101D70009919013901EBC101114B194468461EF054
:101D800057FF694628461FF02DF868461EF004FFED
:101D90000BE0012E0CBF0B490B4928461FF028F819
:101DA00003E00A4928461FF023F818B070BD00BFB1
:101DB000B8050300B48202006082020008880200B5
:101DC000343A0300EC88020040820200508B02008B
:101DD00030B589B01546072918D80C460E49684613
:101DE0001EF026FF0A22611C04A81EF097FF04A91A
:101DF00068461FF02FF8014628461EF0F3FF04A89E
:101E00001EF0CAFE68461EF0C7FE03E003491046F6
:101E10001EF0EEFF09B030BD64820200508B02005C
:101E200030B589B01546072918D80C460E496846C2
:101E30001EF0FEFE0A22611C04A81EF06FFF04A91A
:101E400068461FF007F8014628461EF0CBFF04A89D
:101E50001EF0A2FE68461EF09FFE03E003491046F6
:101E60001EF0C6FF09B030BD6C820200508B02002C
:101E700030B595B00D46144690F84730B3B90A22F4
:101E800004A81EF04BFF04A968461EF00DFF1A4976
:101E900068461EF0E7FF014620461EF0A3FF684695
:101EA0001EF07AFE04A81EF077FE22E00A22B0F8A7
:101EB00042100CA81EF032FF0CA908A81EF0F4FE78
:101EC0000A22294610A81EF029FF10A908A81EF012
:101ED000C1FF0A491EF0C6FF014620461EF082FFE0
:101EE00010A81EF059FE08A81EF056FE0CA81EF001
:101EF00053FE15B030BD00BF808202004482020054
:101F000030B589B00D4614460B4968461EF090FE68
:101F1000294604A81EF0EEFE04A968461EF09AFFAA
:101F2000014620461EF05EFF04A81EF035FE6846FE
:101F30001EF032FE09B030BD848202002DE9F0436C
:101F4000A5B00C46154690F88F30002B4DD10429D2
:101F500004D8554910461EF04BFFA1E00C1FA4B257
:101F6000524968461EF064FE5149A1FB04310A2221
:101F7000490904A81EF0D2FE04A968461EF06AFFB3
:101F800007464C4BA3FB0426F608B1B2A3FB012382
:101F9000DB0803EB8303A1EB43010A2289B208A803
:101FA0001EF0BCFE08A938461EF054FF074606EB9B
:101FB0008606A4EB46010A2289B20CA81EF0AEFEEA
:101FC0000CA938461EF046FF014628461EF00AFFBF
:101FD0000CA81EF0E1FD08A81EF0DEFD04A81EF00E
:101FE000DBFD68461EF0D8FD5AE0324EA6FB0137F5
:101FF000BF0807F101092E49A1FB09310A22C1F3EB
:102000004F1114A81EF08AFE14A910A81EF04CFE51
:10201000A6FB09384FEAD8081FFA88F1A6FB01365B
:10202000F60806EB8606A1EB46010A2289B218A83B
:102030001EF074FE18A910A81EF00CFF064608EB4F
:102040008808A9EB48010A2289B21CA81EF066FE86
:102050001CA930461EF0FEFE17491EF003FF06467F
:1020600007EB8701611A89B20A22013120A81EF00C
:1020700055FE20A930461EF0EDFE014628461EF012
:10208000B1FE20A81EF088FD1CA81EF085FD18A832
:102090001EF082FD10A81EF07FFD14A81EF07CFD2E
:1020A00025B0BDE8F08300BF908202009882020054
:1020B0001F85EB51CDCCCCCCC8810200F0B5B9B0B6
:1020C00004460F46164690F88F30002B6FD190F8DB
:1020D00047308BBB90F8421001EB810407EB4404BE
:1020E000E4B26D4DA5FB0435ED080A22294604A88B
:1020F0001EF014FE04A968461EF0D6FD05EB85050A
:10210000A4EB45010A22C9B208A81EF007FE08A9DF
:1021100068461EF09FFE61491EF0A4FE014630464F
:102120001EF060FE08A81EF037FD68461EF034FD64
:1021300004A81EF031FDACE0B0F84210564DA5FBEE
:1021400001310A22C90810A81EF0E8FD10A90CA848
:102150001EF0AAFDB4F84210A5FB0135ED0805EB11
:102160008505A1EB45010A2289B214A81EF0D6FD0F
:1021700014A90CA81EF06EFE04460A22394618A8BF
:102180001EF0CCFD18A920461EF064FE0146304624
:102190001EF028FE18A81EF0FFFC14A81EF0FCFC80
:1021A0000CA81EF0F9FC10A81EF0F6FC71E090F8E7
:1021B00047308BBBB0F8424004EB840401EB44048D
:1021C000A4B2354FA7FB0437FF080A22394620A8DE
:1021D0001EF0A4FD20A91CA81EF066FD07EB8707D2
:1021E000A4EB47010A2289B224A81EF097FD24A976
:1021F0001CA81EF02FFE2A491EF034FE0146304670
:102200001EF0F0FD24A81EF0C7FC1CA81EF0C4FCA4
:1022100020A81EF0C1FC3CE0B0F842101E4DA5FB0A
:1022200001310A22C9082CA81EF078FD2CA928A883
:102230001EF03AFDB4F84210A5FB0135ED0805EBA0
:102240008505A1EB45010A2289B230A81EF066FD82
:1022500030A928A81EF0FEFD04460A22394634A8FB
:102260001EF05CFD34A920461EF0F4FD0D491EF061
:10227000F9FD014630461EF0B5FD34A81EF08CFC79
:1022800030A81EF089FC28A81EF086FC2CA81EF0A1
:1022900083FC39B0F0BD00BFCDCCCCCC4482020071
:1022A000788202007C820200F0B595B0164621B912
:1022B000284910461EF09CFD4AE00C46082917D814
:1022C000254968461EF0B4FC0A22214604A81EF0E7
:1022D00025FD04A968461EF0BDFD014630461EF0EE
:1022E00081FD04A81EF058FC68461EF055FC2FE046
:1022F0001A4908A81EF09CFC093C194D85FB0435C1
:10230000A5EBE4750A2229460CA81EF007FD0CA9CE
:1023100008A81EF09FFD13491EF0A4FD074605EB1B
:102320004505611B0A22013110A81EF0F7FC10A917
:1023300038461EF08FFD014630461EF053FD10A8B2
:102340001EF02AFC0CA81EF027FC08A81EF024FC96
:1023500015B0F0BD9C820200A0820200A48202009F
:1023600056555555EC89020070B59CB004460D4693
:10237000164690F847304BBBB0F842302BB921B924
:10238000384910461EF034FD6AE0374968461EF0B1
:102390004FFCB4F8421001EB810105EB41010A2228
:1023A000013904A81EF0BAFC04A968461EF052FDCB
:1023B0002E491EF057FD014630461EF013FD04A8BD
:1023C0001EF0EAFB68461EF0E7FB49E0B0F8423039
:1023D000EBB921B9264910461EF00AFD40E0254917
:1023E00008A81EF025FC0A2229460CA81EF096FC1F
:1023F0000CA908A81EF02EFD014630461EF0F2FC86
:102400000CA81EF0C9FB08A81EF0C6FB28E0164960
:1024100010A81EF00DFCB4F842100A22013914A8CD
:102420001EF07CFC14A910A81EF014FD12491EF029
:1024300019FD04460A22294618A81EF06FFC18A9A7
:1024400020461EF007FD014630461EF0CBFC18A8C2
:102450001EF0A2FB14A81EF09FFB10A81EF09CFB10
:102460001CB070BDA8820200A4820200AC820200EF
:10247000B0820200A0820200EC890200F0B591B0A7
:102480000C461646C7298CBF2349244910461EF026
:10249000AFFC0134A4B22249A1FB04310A2249094C
:1024A00004A81EF03BFC04A968461EF0FDFB1D4B72
:1024B000A3FB0425ED08A9B2A3FB0123DB0803EB72
:1024C0008303A1EB43010A2289B208A81EF026FC6F
:1024D00008A968461EF0BEFC074605EB8505A4EB7F
:1024E00045010A2289B20CA81EF018FC0CA9384636
:1024F0001EF0B0FC014630461EF074FC0CA81EF025
:102500004BFB08A81EF048FB68461EF045FB04A8DC
:102510001EF042FB11B0F0BD5C820200708202002E
:102520001F85EB51CDCCCCCCF0B59DB005460F4608
:10253000164690F8473063BBB0F84230012B8CBF91
:102540003649374910461EF053FC0A22B5F84210AE
:1025500004A81EF0E3FB04A968461EF0A5FB0A22AE
:10256000394608A81EF0DAFB08A968461EF072FC7E
:102570002C491EF077FC014630461EF033FC08A8BB
:102580001EF00AFB68461EF007FB04A81EF004FBC1
:1025900042E0B0F84230132B8CBF2049204910464E
:1025A0001EF026FCB5F842101F4CA4FB01310A2294
:1025B000C90810A81EF0B2FB10A90CA81EF074FBED
:1025C000B5F84210A4FB0134E40804EB8404A1EB49
:1025D00044010A2289B214A81EF0A0FB14A90CA879
:1025E0001EF038FC04460A22394618A81EF096FB55
:1025F00018A920461EF02EFC014630461EF0F2FBC4
:1026000018A81EF0C9FA14A81EF0C6FA0CA81EF0ED
:10261000C3FA10A81EF0C0FA1DB0F0BD5C82020023
:102620007082020044820200CDCCCCCC70B59CB04C
:102630000C4616461D460368D3F898309847A042CA
:1026400040F2848004EB4404434B03EBC404A18AAE
:102650000BB2002B72DD47F61643994215D047F6B0
:102660001743994204D047F61543994256D119E0D1
:102670000A22314604A81EF051FB04A928461EF088
:10268000B1FB04A81EF088FA64E00A22710008A8D1
:102690001EF044FB08A928461EF0A4FB08A81EF063
:1026A0007BFA57E0312E17D82C490CA81EF0C0FA3F
:1026B0000A22C6F1320110A81EF030FB10A90CA8A6
:1026C0001EF0C8FB014628461EF08CFB10A81EF029
:1026D00063FA0CA81EF060FA322E04D12049284675
:1026E0001EF086FB36E0322E34D91E4914A81EF0A7
:1026F0009FFA0A22A6F1320118A81EF00FFB18A9B2
:1027000014A81EF0A7FB014628461EF06BFB18A874
:102710001EF042FA14A81EF03FFA1BE031440139C2
:10272000114B03EBC10168461EF082FA6946284648
:102730001EF058FB68461EF02FFA0BE0012E0CBF6E
:102740000A490B4928461EF053FB03E00949284675
:102750001EF04EFB1CB070BDC4400300B4820200EA
:1027600060820200088802008C2F0300EC880200BF
:1027700040820200508B020030B589B00D461446ED
:102780000C4968461EF054FA0A22691C04A81EF07F
:10279000C5FA04A968461EF05DFB014620461EF0FE
:1027A00021FB04A81EF0F8F968461EF0F5F909B0FF
:1027B00030BD00BFB882020030B589B0154600EBCD
:1027C0004100B0F88E4064100A22013104A81EF0C6
:1027D000A5FA04A968461EF067FA0C4968461EF07F
:1027E00041FBE1B201EBC101094B03EB41011EF0DA
:1027F00039FB014628461EF0F5FA68461EF0CCF972
:1028000004A81EF0C9F909B030BD00BFF48302006E
:1028100094AA020070B58CB016464D1C144C84FB73
:102820000534EB17C3EBA4040A22214604A81EF0CA
:1028300075FA04A968461EF037FA04EB84010A22EF
:10284000A5EB410108A81EF069FA08A968461EF028
:1028500001FB014630461EF0C5FA08A81EF09CF99F
:1028600068461EF099F904A81EF096F90CB070BDE8
:102870006766666630B589B00D4614460C496846F1
:102880001EF0D6F90A22691C04A81EF047FA04A912
:1028900068461EF0DFFA014620461EF0A3FA04A89F
:1028A0001EF07AF968461EF077F909B030BD00BF16
:1028B000B882020030B589B0154600EB4100B0F88F
:1028C0008E4064100A22013104A81EF027FA04A9E0
:1028D00068461EF0E9F90C4968461EF0C3FAE1B2F9
:1028E00001EB8101094B03EB810102311EF0BAFAC1
:1028F000014628461EF076FA68461EF04DF904A8F7
:102900001EF04AF909B030BDF4830200846602006B
:10291000F0B591B016464C1CA4B2C9114131C9B2F0
:1029200068461EF01DFA2149A1FB04310A2249091B
:1029300004A81EF0F3F904A968461EF08BFA0746B6
:102940001B4BA3FB0425ED08A9B2A3FB0123DB0865
:1029500003EB8303A1EB43010A2289B208A81EF00E
:10296000DDF908A938461EF075FA074605EB85051E
:10297000A4EB45010A2289B20CA81EF0CFF90CA9DC
:1029800038461EF067FA014630461EF02BFA0CA8B6
:102990001EF002F908A81EF0FFF804A81EF0FCF8CB
:1029A00068461EF0F9F811B0F0BD00BF1F85EB516D
:1029B000CDCCCCCC2DE9F0419CB007460D46164657
:1029C00090F8473093BBB0F8423001EB81014A00E8
:1029D000642101FB0321C9114131C9B268461EF0CF
:1029E000BFF90A22B7F8421004A81EF097F904A90B
:1029F00068461EF02FFA04460A22294608A81EF04F
:102A00008DF908A920461EF025FA2C491EF02AFA55
:102A1000014630461EF0E6F908A81EF0BDF804A8ED
:102A20001EF0BAF868461EF0B7F844E0B0F842105D
:102A300001EB810189114131C9B20CA81EF090F956
:102A4000B7F842101E4CA4FB01310A22C90810A895
:102A50001EF064F910A90CA81EF0FCF98046B7F826
:102A60004210A4FB0134E40804EB8404A1EB44010C
:102A70000A2289B214A81EF051F914A940461EF08A
:102A8000E9F904460A22294618A81EF047F918A9B0
:102A900020461EF0DFF9014630461EF0A3F918A8C3
:102AA0001EF07AF814A81EF077F810A81EF074F83B
:102AB0000CA81EF071F81CB0BDE8F0814482020041
:102AC000CDCCCCCC38B50446022303711C4B18681E
:102AD000C4F806001B79A3721A4B03CBC4F80E008E
:102AE000C4F8121019889B78E182237604F12C0532
:102AF000112128461EF066F8134928461EF0E8F812
:102B00000023A3876222E287042284F84A2084F803
:102B10008D3084F88E3005212165E277012284F81A
:102B2000202084F84C20CD2284F88820CF2284F8FD
:102B30008920D02284F88A2084F88B3038BD00BFE9
:102B4000BC820200C4820200D082020038B5044672
:102B500002230371214B1868C4F806001B79A37285
:102B60001F4B07CBC4F80E00C4F81210C4F816208F
:102B70001B78A37604F12C05112128461EF022F8BB
:102B8000184928461EF0A4F80023A3874FF42472A6
:102B9000E287042284F84A20282284F88D2084F8D1
:102BA0008E3084F88F3084F8903084F891300A2287
:102BB00022650322E277082284F82020012284F88B
:102BC0004C20CD2284F88820CF2284F88920D0227E
:102BD00084F88A2084F88B3038BD00BFE48202007C
:102BE000EC820200D082020070B504460225057115
:102BF0001C4B1868C4F806009B8863811A4B07CBEE
:102C0000C4F80E00C4F81210C4F8162004F12C0603
:102C1000112130461DF0D6FF144930461EF058F8F9
:102C20000023A3877F22E287042284F84A202365B9
:102C3000E577012284F8202084F8212084F84C20B4
:102C4000CD2284F88820D12284F88920D22284F8E9
:102C50008A2084F88B3084F88D30054BC4F884309A
:102C600070BD00BFFC82020004830200D08202001B
:102C700080C3C90170B50446022303711E4B186856
:102C8000C4F806001D4D0FCDC4F80E00C4F8121094
:102C9000C4F81620C4F81A3004F12C051121284676
:102CA0001DF090FF164928461EF012F80022A28758
:102CB0004FF41C73E387042384F84A3022650A2307
:102CC000E377012384F8203084F8213084F84C30F5
:102CD000CD2184F88810CF2184F88910D32184F87D
:102CE0008A1084F88B2084F88E2084F88F30054B6E
:102CF000C4F8843070BD00BF10830200148302004A
:102D0000D082020080C3C90138B504460223037192
:102D10001C4B1868C4F806001B4B03CBC4F80E000C
:102D2000C4F812101B88E38204F12C0511212846F7
:102D30001DF048FF154928461DF0CAFF0023A38750
:102D40000B22E287042284F84A2023650622E277D8
:102D5000012284F8202084F84C20CD2284F8882099
:102D6000CF2284F88920D22284F88A2084F88B30FC
:102D700084F89330C4F88D30A366054BC4F88430D2
:102D800038BD00BF2483020028830200D0820200E5
:102D900080C3C90138B5044602230371174B186874
:102DA000C4F80600164B03CBC4F80E00C4F812108A
:102DB00004F12C05112128461DF004FF1149284675
:102DC0001DF086FF002384F82630A3876322E28764
:102DD00005222265042284F84A200122E27784F841
:102DE000202084F84C20CD2284F88820CF2284F83B
:102DF000892084F88A3084F88B3038BD348302000F
:102E000038830200D082020038B5044602230371E1
:102E10001B4B1868C4F806001B79A372194B07CB2B
:102E2000C4F80E00C4F81210C4F816201B8863837F
:102E300004F12C05112128461DF0C4FE1249284634
:102E40001DF046FF0023A3873122E2870522226579
:102E5000042184F84A10E277012284F8202084F8C3
:102E60004C20CD2284F88820CF2284F8892084F851
:102E70008A3084F88B3084F82C31A36638BD00BFCB
:102E80004083020048830200D0820200F0B58DB07A
:102E90000E461746C1F387050135174C84FB0534F0
:102EA000EB17C3EBA4040A22214604A81DF036FF49
:102EB00004A968461DF0F8FE04EB84010A22A5EB84
:102EC000410108A81DF02AFF08A968461DF0C2FFAD
:102ED00006F0030141311DF0D3FF014638461DF0D5
:102EE00081FF08A81DF058FE68461DF055FE04A895
:102EF0001DF052FE0DB0F0BD6766666610B5034C5E
:102F0000206822F009F90023236010BDC86A002060
:102F10002DE9F04F95B080468946364C27783F1111
:102F2000354968461DF084FE494604A81DF0E2FEBE
:102F300004A968461DF08EFF30491DF093FF054639
:102F4000414608A81DF0D6FE08A928461DF082FFBC
:102F50002B491DF087FF054621780A2209110CA88C
:102F60001DF0DCFE0CA928461DF074FF25491DF05C
:102F700079FF0446FFB2244BD95D10A81DF0BAFEBC
:102F800010A920461DF066FF204C014620461DF08A
:102F9000CDFD20461DF0F0FD10A81DF0FDFD0CA894
:102FA0001DF0FAFD08A81DF0F7FD04A81DF0F4FDC2
:102FB00068461DF0F1FD164C04F1280BDFF848A01F
:102FC0000C4D54F8040B1AF807202B7801680E6991
:102FD000134342464946B0472B7833B954F8040CA2
:102FE00003685B694246494698475C45E9D115B09C
:102FF000BDE8F08F0CE4FF1F5883020060830200DD
:1030000078830200F4830200E06800208C17FF1F21
:10301000680AFF1F10B41A4BD3F8E82013681C7815
:1030200053681978537A1940937A03F00303107A9E
:10303000044218BF43F0040309B143F00803991098
:103040009172013B0D2B17D8DFE803F0070B0F0B34
:103050001613070713160B0F0B07D3680133D36042
:103060000AE0D368013BD36006E0D3680233D36043
:1030700002E0D368023BD3605DF8044B704700BFA9
:103080008875002010B41A4BD3F8EC2013681C7814
:1030900053681978537A1940937A03F00303107A2E
:1030A000044218BF43F0040309B143F00803991028
:1030B0009172013B0D2B17D8DFE803F0070B0F0BC4
:1030C0001613070713160B0F0B07D3680133D360D2
:1030D0000AE0D368013BD36006E0D3680233D360D3
:1030E00002E0D368023BD3605DF8044B704700BF39
:1030F0008875002010B4194B1A6813681C7853683F
:103100001978537A1940937A03F00303107A044232
:1031100018BF43F0040309B143F0080399109172FA
:10312000013B0D2B17D8DFE803F0070B0F0B16132D
:10313000070713160B0F0B07D3680133D3600AE0A0
:10314000D368013BD36006E0D3680233D36002E06A
:10315000D368023BD3605DF8044B7047887500204C
:1031600010B4194B5A6813681C7853681978537A4D
:103170001940937A03F00303107A044218BF43F016
:10318000040309B143F0080399109172013B0D2B20
:1031900017D8DFE803F0070B0F0B161307071316FA
:1031A0000B0F0B07D3680133D3600AE0D368013BF0
:1031B000D36006E0D3680233D36002E0D368023BF9
:1031C000D3605DF8044B70478875002010B41A4B2B
:1031D000D3F8C82013681C7853681978537A1940BB
:1031E000937A03F00303107A044218BF43F00403F8
:1031F00009B143F0080399109172013B0D2B17D8C8
:10320000DFE803F0070B0F0B1613070713160B0F5E
:103210000B07D3680133D3600AE0D368013BD36066
:1032200006E0D3680233D36002E0D368023BD36088
:103230005DF8044B704700BF8875002010B41A4B2E
:10324000D3F8CC2013681C7853681978537A194046
:10325000937A03F00303107A044218BF43F0040387
:1032600009B143F0080399109172013B0D2B17D857
:10327000DFE803F0070B0F0B1613070713160B0FEE
:103280000B07D3680133D3600AE0D368013BD360F6
:1032900006E0D3680233D36002E0D368023BD36018
:1032A0005DF8044B704700BF8875002010B41A4BBE
:1032B000D3F8D02013681C7853681978537A1940D2
:1032C000937A03F00303107A044218BF43F0040317
:1032D00009B143F0080399109172013B0D2B17D8E7
:1032E000DFE803F0070B0F0B1613070713160B0F7E
:1032F0000B07D3680133D3600AE0D368013BD36086
:1033000006E0D3680233D36002E0D368023BD360A7
:103310005DF8044B704700BF8875002010B41A4B4D
:10332000D3F8D42013681C7853681978537A19405D
:10333000937A03F00303107A044218BF43F00403A6
:1033400009B143F0080399109172013B0D2B17D876
:10335000DFE803F0070B0F0B1613070713160B0F0D
:103360000B07D3680133D3600AE0D368013BD36015
:1033700006E0D3680233D36002E0D368023BD36037
:103380005DF8044B704700BF8875002010B41A4BDD
:10339000D3F8D82013681C7853681978537A1940E9
:1033A000937A03F00303107A044218BF43F0040336
:1033B00009B143F0080399109172013B0D2B17D806
:1033C000DFE803F0070B0F0B1613070713160B0F9D
:1033D0000B07D3680133D3600AE0D368013BD360A5
:1033E00006E0D3680233D36002E0D368023BD360C7
:1033F0005DF8044B704700BF8875002010B41A4B6D
:10340000D3F8DC2013681C7853681978537A194074
:10341000937A03F00303107A044218BF43F00403C5
:1034200009B143F0080399109172013B0D2B17D895
:10343000DFE803F0070B0F0B1613070713160B0F2C
:103440000B07D3680133D3600AE0D368013BD36034
:1034500006E0D3680233D36002E0D368023BD36056
:103460005DF8044B704700BF8875002010B41A4BFC
:10347000D3F8E02013681C7853681978537A194000
:10348000937A03F00303107A044218BF43F0040355
:1034900009B143F0080399109172013B0D2B17D825
:1034A000DFE803F0070B0F0B1613070713160B0FBC
:1034B0000B07D3680133D3600AE0D368013BD360C4
:1034C00006E0D3680233D36002E0D368023BD360E6
:1034D0005DF8044B704700BF8875002010B41A4B8C
:1034E000D3F8E42013681C7853681978537A19408C
:1034F000937A03F00303107A044218BF43F00403E5
:1035000009B143F0080399109172013B0D2B17D8B4
:10351000DFE803F0070B0F0B1613070713160B0F4B
:103520000B07D3680133D3600AE0D368013BD36053
:1035300006E0D3680233D36002E0D368023BD36075
:103540005DF8044B704700BF8875002010B41A4B1B
:10355000D3F8882013681C7853681978537A194077
:10356000937A03F00303107A044218BF43F0040374
:1035700009B143F0080399109172013B0D2B17D844
:10358000DFE803F0070B0F0B1613070713160B0FDB
:103590000B07D3680133D3600AE0D368013BD360E3
:1035A00006E0D3680233D36002E0D368023BD36005
:1035B0005DF8044B704700BF8875002010B41A4BAB
:1035C000D3F88C2013681C7853681978537A194003
:1035D000937A03F00303107A044218BF43F0040304
:1035E00009B143F0080399109172013B0D2B17D8D4
:1035F000DFE803F0070B0F0B1613070713160B0F6B
:103600000B07D3680133D3600AE0D368013BD36072
:1036100006E0D3680233D36002E0D368023BD36094
:103620005DF8044B704700BF8875002010B41A4B3A
:10363000D3F8902013681C7853681978537A19408E
:10364000937A03F00303107A044218BF43F0040393
:1036500009B143F0080399109172013B0D2B17D863
:10366000DFE803F0070B0F0B1613070713160B0FFA
:103670000B07D3680133D3600AE0D368013BD36002
:1036800006E0D3680233D36002E0D368023BD36024
:103690005DF8044B704700BF8875002010B41A4BCA
:1036A000D3F8942013681C7853681978537A19401A
:1036B000937A03F00303107A044218BF43F0040323
:1036C00009B143F0080399109172013B0D2B17D8F3
:1036D000DFE803F0070B0F0B1613070713160B0F8A
:1036E0000B07D3680133D3600AE0D368013BD36092
:1036F00006E0D3680233D36002E0D368023BD360B4
:103700005DF8044B704700BF8875002010B41A4B59
:10371000D3F8982013681C7853681978537A1940A5
:10372000937A03F00303107A044218BF43F00403B2
:1037300009B143F0080399109172013B0D2B17D882
:10374000DFE803F0070B0F0B1613070713160B0F19
:103750000B07D3680133D3600AE0D368013BD36021
:1037600006E0D3680233D36002E0D368023BD36043
:103770005DF8044B704700BF8875002010B41A4BE9
:10378000D3F89C2013681C7853681978537A194031
:10379000937A03F00303107A044218BF43F0040342
:1037A00009B143F0080399109172013B0D2B17D812
:1037B000DFE803F0070B0F0B1613070713160B0FA9
:1037C0000B07D3680133D3600AE0D368013BD360B1
:1037D00006E0D3680233D36002E0D368023BD360D3
:1037E0005DF8044B704700BF8875002010B41A4B79
:1037F000D3F8A02013681C7853681978537A1940BD
:10380000937A03F00303107A044218BF43F00403D1
:1038100009B143F0080399109172013B0D2B17D8A1
:10382000DFE803F0070B0F0B1613070713160B0F38
:103830000B07D3680133D3600AE0D368013BD36040
:1038400006E0D3680233D36002E0D368023BD36062
:103850005DF8044B704700BF8875002010B41A4B08
:10386000D3F8A42013681C7853681978537A194048
:10387000937A03F00303107A044218BF43F0040361
:1038800009B143F0080399109172013B0D2B17D831
:10389000DFE803F0070B0F0B1613070713160B0FC8
:1038A0000B07D3680133D3600AE0D368013BD360D0
:1038B00006E0D3680233D36002E0D368023BD360F2
:1038C0005DF8044B704700BF8875002010B41A4B98
:1038D000D3F8A82013681C7853681978537A1940D4
:1038E000937A03F00303107A044218BF43F00403F1
:1038F00009B143F0080399109172013B0D2B17D8C1
:10390000DFE803F0070B0F0B1613070713160B0F57
:103910000B07D3680133D3600AE0D368013BD3605F
:1039200006E0D3680233D36002E0D368023BD36081
:103930005DF8044B704700BF8875002010B41A4B27
:10394000D3F8AC2013681C7853681978537A19405F
:10395000937A03F00303107A044218BF43F0040380
:1039600009B143F0080399109172013B0D2B17D850
:10397000DFE803F0070B0F0B1613070713160B0FE7
:103980000B07D3680133D3600AE0D368013BD360EF
:1039900006E0D3680233D36002E0D368023BD36011
:1039A0005DF8044B704700BF8875002010B41A4BB7
:1039B000D3F8B02013681C7853681978537A1940EB
:1039C000937A03F00303107A044218BF43F0040310
:1039D00009B143F0080399109172013B0D2B17D8E0
:1039E000DFE803F0070B0F0B1613070713160B0F77
:1039F0000B07D3680133D3600AE0D368013BD3607F
:103A000006E0D3680233D36002E0D368023BD360A0
:103A10005DF8044B704700BF8875002010B41A4B46
:103A2000D3F8B42013681C7853681978537A194076
:103A3000937A03F00303107A044218BF43F004039F
:103A400009B143F0080399109172013B0D2B17D86F
:103A5000DFE803F0070B0F0B1613070713160B0F06
:103A60000B07D3680133D3600AE0D368013BD3600E
:103A700006E0D3680233D36002E0D368023BD36030
:103A80005DF8044B704700BF8875002010B41A4BD6
:103A9000D3F8B82013681C7853681978537A194002
:103AA000937A03F00303107A044218BF43F004032F
:103AB00009B143F0080399109172013B0D2B17D8FF
:103AC000DFE803F0070B0F0B1613070713160B0F96
:103AD0000B07D3680133D3600AE0D368013BD3609E
:103AE00006E0D3680233D36002E0D368023BD360C0
:103AF0005DF8044B704700BF8875002010B41A4B66
:103B0000D3F8BC2013681C7853681978537A19408D
:103B1000937A03F00303107A044218BF43F00403BE
:103B200009B143F0080399109172013B0D2B17D88E
:103B3000DFE803F0070B0F0B1613070713160B0F25
:103B40000B07D3680133D3600AE0D368013BD3602D
:103B500006E0D3680233D36002E0D368023BD3604F
:103B60005DF8044B704700BF8875002010B41A4BF5
:103B7000D3F8C02013681C7853681978537A194019
:103B8000937A03F00303107A044218BF43F004034E
:103B900009B143F0080399109172013B0D2B17D81E
:103BA000DFE803F0070B0F0B1613070713160B0FB5
:103BB0000B07D3680133D3600AE0D368013BD360BD
:103BC00006E0D3680233D36002E0D368023BD360DF
:103BD0005DF8044B704700BF8875002010B41A4B85
:103BE000D3F8C42013681C7853681978537A1940A5
:103BF000937A03F00303107A044218BF43F00403DE
:103C000009B143F0080399109172013B0D2B17D8AD
:103C1000DFE803F0070B0F0B1613070713160B0F44
:103C20000B07D3680133D3600AE0D368013BD3604C
:103C300006E0D3680233D36002E0D368023BD3606E
:103C40005DF8044B704700BF8875002010B4194B15
:103C50009A6813681C7853681978537A1940937AD4
:103C600003F00303107A044218BF43F0040309B1C0
:103C700043F0080399109172013B0D2B17D8DFE830
:103C800003F0070B0F0B1613070713160B0F0B0789
:103C9000D3680133D3600AE0D368013BD36006E008
:103CA000D3680233D36002E0D368023BD3605DF88F
:103CB000044B70478875002010B4194BDA681368FC
:103CC0001C7853681978537A1940937A03F00303E8
:103CD000107A044218BF43F0040309B143F008030B
:103CE00099109172013B0D2B17D8DFE803F0070BF9
:103CF0000F0B1613070713160B0F0B07D3680133AF
:103D0000D3600AE0D368013BD36006E0D368023396
:103D1000D36002E0D368023BD3605DF8044B704788
:103D20008875002010B4194B1A6913681C78536801
:103D30001978537A1940937A03F00303107A0442F6
:103D400018BF43F0040309B143F0080399109172BE
:103D5000013B0D2B17D8DFE803F0070B0F0B1613F1
:103D6000070713160B0F0B07D3680133D3600AE064
:103D7000D368013BD36006E0D3680233D36002E02E
:103D8000D368023BD3605DF8044B70478875002010
:103D900010B4194B5A6913681C7853681978537A10
:103DA0001940937A03F00303107A044218BF43F0DA
:103DB000040309B143F0080399109172013B0D2BE4
:103DC00017D8DFE803F0070B0F0B161307071316BE
:103DD0000B0F0B07D3680133D3600AE0D368013BB4
:103DE000D36006E0D3680233D36002E0D368023BBD
:103DF000D3605DF8044B70478875002010B4194BF0
:103E00009A6913681C7853681978537A1940937A21
:103E100003F00303107A044218BF43F0040309B10E
:103E200043F0080399109172013B0D2B17D8DFE87E
:103E300003F0070B0F0B1613070713160B0F0B07D7
:103E4000D3680133D3600AE0D368013BD36006E056
:103E5000D3680233D36002E0D368023BD3605DF8DD
:103E6000044B70478875002010B4194BDA69136849
:103E70001C7853681978537A1940937A03F0030336
:103E8000107A044218BF43F0040309B143F0080359
:103E900099109172013B0D2B17D8DFE803F0070B47
:103EA0000F0B1613070713160B0F0B07D3680133FD
:103EB000D3600AE0D368013BD36006E0D3680233E5
:103EC000D36002E0D368023BD3605DF8044B7047D7
:103ED0008875002010B4194B1A6A13681C7853684F
:103EE0001978537A1940937A03F00303107A044245
:103EF00018BF43F0040309B143F00803991091720D
:103F0000013B0D2B17D8DFE803F0070B0F0B16133F
:103F1000070713160B0F0B07D3680133D3600AE0B2
:103F2000D368013BD36006E0D3680233D36002E07C
:103F3000D368023BD3605DF8044B7047887500205E
:103F400010B4194B5A6A13681C7853681978537A5D
:103F50001940937A03F00303107A044218BF43F028
:103F6000040309B143F0080399109172013B0D2B32
:103F700017D8DFE803F0070B0F0B1613070713160C
:103F80000B0F0B07D3680133D3600AE0D368013B02
:103F9000D36006E0D3680233D36002E0D368023B0B
:103FA000D3605DF8044B70478875002010B4194B3E
:103FB0009A6A13681C7853681978537A1940937A6F
:103FC00003F00303107A044218BF43F0040309B15D
:103FD00043F0080399109172013B0D2B17D8DFE8CD
:103FE00003F0070B0F0B1613070713160B0F0B0726
:103FF000D3680133D3600AE0D368013BD36006E0A5
:10400000D3680233D36002E0D368023BD3605DF82B
:10401000044B70478875002010B4194BDA6A136896
:104020001C7853681978537A1940937A03F0030384
:10403000107A044218BF43F0040309B143F00803A7
:1040400099109172013B0D2B17D8DFE803F0070B95
:104050000F0B1613070713160B0F0B07D36801334B
:10406000D3600AE0D368013BD36006E0D368023333
:10407000D36002E0D368023BD3605DF8044B704725
:104080008875002010B4194B1A6B13681C7853689C
:104090001978537A1940937A03F00303107A044293
:1040A00018BF43F0040309B143F00803991091725B
:1040B000013B0D2B17D8DFE803F0070B0F0B16138E
:1040C000070713160B0F0B07D3680133D3600AE001
:1040D000D368013BD36006E0D3680233D36002E0CB
:1040E000D368023BD3605DF8044B704788750020AD
:1040F00010B4194B5A6B13681C7853681978537AAB
:104100001940937A03F00303107A044218BF43F076
:10411000040309B143F0080399109172013B0D2B80
:1041200017D8DFE803F0070B0F0B1613070713165A
:104130000B0F0B07D3680133D3600AE0D368013B50
:10414000D36006E0D3680233D36002E0D368023B59
:10415000D3605DF8044B70478875002010B4194B8C
:104160009A6B13681C7853681978537A1940937ABC
:1041700003F00303107A044218BF43F0040309B1AB
:1041800043F0080399109172013B0D2B17D8DFE81B
:1041900003F0070B0F0B1613070713160B0F0B0774
:1041A000D3680133D3600AE0D368013BD36006E0F3
:1041B000D3680233D36002E0D368023BD3605DF87A
:1041C000044B70478875002010B4194BDA6B1368E4
:1041D0001C7853681978537A1940937A03F00303D3
:1041E000107A044218BF43F0040309B143F00803F6
:1041F00099109172013B0D2B17D8DFE803F0070BE4
:104200000F0B1613070713160B0F0B07D368013399
:10421000D3600AE0D368013BD36006E0D368023381
:10422000D36002E0D368023BD3605DF8044B704773
:104230008875002010B4194B1A6C13681C785368E9
:104240001978537A1940937A03F00303107A0442E1
:1042500018BF43F0040309B143F0080399109172A9
:10426000013B0D2B17D8DFE803F0070B0F0B1613DC
:10427000070713160B0F0B07D3680133D3600AE04F
:10428000D368013BD36006E0D3680233D36002E019
:10429000D368023BD3605DF8044B704788750020FB
:1042A00010B4194B5A6C13681C7853681978537AF8
:1042B0001940937A03F00303107A044218BF43F0C5
:1042C000040309B143F0080399109172013B0D2BCF
:1042D00017D8DFE803F0070B0F0B161307071316A9
:1042E0000B0F0B07D3680133D3600AE0D368013B9F
:1042F000D36006E0D3680233D36002E0D368023BA8
:10430000D3605DF8044B70478875002010B4194BDA
:104310009A6C13681C7853681978537A1940937A09
:1043200003F00303107A044218BF43F0040309B1F9
:1043300043F0080399109172013B0D2B17D8DFE869
:1043400003F0070B0F0B1613070713160B0F0B07C2
:10435000D3680133D3600AE0D368013BD36006E041
:10436000D3680233D36002E0D368023BD3605DF8C8
:10437000044B70478875002010B4194BDA6C136831
:104380001C7853681978537A1940937A03F0030321
:10439000107A044218BF43F0040309B143F0080344
:1043A00099109172013B0D2B17D8DFE803F0070B32
:1043B0000F0B1613070713160B0F0B07D3680133E8
:1043C000D3600AE0D368013BD36006E0D3680233D0
:1043D000D36002E0D368023BD3605DF8044B7047C2
:1043E0008875002010B4194B1A6D13681C78536837
:1043F0001978537A1940937A03F00303107A044230
:1044000018BF43F0040309B143F0080399109172F7
:10441000013B0D2B17D8DFE803F0070B0F0B16132A
:10442000070713160B0F0B07D3680133D3600AE09D
:10443000D368013BD36006E0D3680233D36002E067
:10444000D368023BD3605DF8044B70478875002049
:1044500010B4194B5A6D13681C7853681978537A45
:104460001940937A03F00303107A044218BF43F013
:10447000040309B143F0080399109172013B0D2B1D
:1044800017D8DFE803F0070B0F0B161307071316F7
:104490000B0F0B07D3680133D3600AE0D368013BED
:1044A000D36006E0D3680233D36002E0D368023BF6
:1044B000D3605DF8044B70478875002010B4194B29
:1044C0009A6D13681C7853681978537A1940937A57
:1044D00003F00303107A044218BF43F0040309B148
:1044E00043F0080399109172013B0D2B17D8DFE8B8
:1044F00003F0070B0F0B1613070713160B0F0B0711
:10450000D3680133D3600AE0D368013BD36006E08F
:10451000D3680233D36002E0D368023BD3605DF816
:10452000044B70478875002010B4194BDA6D13687E
:104530001C7853681978537A1940937A03F003036F
:10454000107A044218BF43F0040309B143F0080392
:1045500099109172013B0D2B17D8DFE803F0070B80
:104560000F0B1613070713160B0F0B07D368013336
:10457000D3600AE0D368013BD36006E0D36802331E
:10458000D36002E0D368023BD3605DF8044B704710
:104590008875002010B4194B1A6E13681C78536884
:1045A0001978537A1940937A03F00303107A04427E
:1045B00018BF43F0040309B143F008039910917246
:1045C000013B0D2B17D8DFE803F0070B0F0B161379
:1045D000070713160B0F0B07D3680133D3600AE0EC
:1045E000D368013BD36006E0D3680233D36002E0B6
:1045F000D368023BD3605DF8044B70478875002098
:1046000010B4194B5A6E13681C7853681978537A92
:104610001940937A03F00303107A044218BF43F061
:10462000040309B143F0080399109172013B0D2B6B
:1046300017D8DFE803F0070B0F0B16130707131645
:104640000B0F0B07D3680133D3600AE0D368013B3B
:10465000D36006E0D3680233D36002E0D368023B44
:10466000D3605DF8044B70478875002010B4194B77
:104670009A6E13681C7853681978537A1940937AA4
:1046800003F00303107A044218BF43F0040309B196
:1046900043F0080399109172013B0D2B17D8DFE806
:1046A00003F0070B0F0B1613070713160B0F0B075F
:1046B000D3680133D3600AE0D368013BD36006E0DE
:1046C000D3680233D36002E0D368023BD3605DF865
:1046D000044B70478875002010B4194BDA6E1368CC
:1046E0001C7853681978537A1940937A03F00303BE
:1046F000107A044218BF43F0040309B143F00803E1
:1047000099109172013B0D2B17D8DFE803F0070BCE
:104710000F0B1613070713160B0F0B07D368013384
:10472000D3600AE0D368013BD36006E0D36802336C
:10473000D36002E0D368023BD3605DF8044B70475E
:104740008875002010B4194B1A6F13681C785368D1
:104750001978537A1940937A03F00303107A0442CC
:1047600018BF43F0040309B143F008039910917294
:10477000013B0D2B17D8DFE803F0070B0F0B1613C7
:10478000070713160B0F0B07D3680133D3600AE03A
:10479000D368013BD36006E0D3680233D36002E004
:1047A000D368023BD3605DF8044B704788750020E6
:1047B00010B4194B5A6F13681C7853681978537AE0
:1047C0001940937A03F00303107A044218BF43F0B0
:1047D000040309B143F0080399109172013B0D2BBA
:1047E00017D8DFE803F0070B0F0B16130707131694
:1047F0000B0F0B07D3680133D3600AE0D368013B8A
:10480000D36006E0D3680233D36002E0D368023B92
:10481000D3605DF8044B70478875002010B4194BC5
:104820009A6F13681C7853681978537A1940937AF1
:1048300003F00303107A044218BF43F0040309B1E4
:1048400043F0080399109172013B0D2B17D8DFE854
:1048500003F0070B0F0B1613070713160B0F0B07AD
:10486000D3680133D3600AE0D368013BD36006E02C
:10487000D3680233D36002E0D368023BD3605DF8B3
:10488000044B70478875002010B4194BDA6F136819
:104890001C7853681978537A1940937A03F003030C
:1048A000107A044218BF43F0040309B143F008032F
:1048B00099109172013B0D2B17D8DFE803F0070B1D
:1048C0000F0B1613070713160B0F0B07D3680133D3
:1048D000D3600AE0D368013BD36006E0D3680233BB
:1048E000D36002E0D368023BD3605DF8044B7047AD
:1048F0008875002010B41A4BD3F8802013681C78F8
:1049000053681978537A1940937A03F00303107AA5
:10491000044218BF43F0040309B143F0080399109F
:104920009172013B0D2B17D8DFE803F0070B0F0B3B
:104930001613070713160B0F0B07D3680133D36049
:104940000AE0D368013BD36006E0D3680233D3604A
:1049500002E0D368023BD3605DF8044B704700BFB0
:104960008875002010B41A4BD3F8842013681C7883
:1049700053681978537A1940937A03F00303107A35
:10498000044218BF43F0040309B143F0080399102F
:104990009172013B0D2B17D8DFE803F0070B0F0BCB
:1049A0001613070713160B0F0B07D3680133D360D9
:1049B0000AE0D368013BD36006E0D3680233D360DA
:1049C00002E0D368023BD3605DF8044B704700BF40
:1049D0008875002010B58AB01D4B1B6800930099A4
:1049E0001C4B19601C4A1A4C40F6B730137813F070
:1049F000FF0F05D123680193019BCB1A8342F5D9A0
:104A0000164C23685B6823221549204698472046A8
:104A10001CF0B2F8134902A81CF00AF90A2242F667
:104A2000392106A81CF07AF906A902A81CF012FA8E
:104A3000014620461CF07AF820461CF09DF806A896
:104A40001CF0AAF802A81CF0A7F80AB010BD00BF1D
:104A5000907600202430FF1F887800208C17FF1FDD
:104A600084830200A88302002DE9F043C9B0054603
:104A70000E4614461F46984803681B680021984755
:104A80006B787D3BDBB2012B40F22281AB787F2B30
:104A900000F01E81EB78742B03D12B797F2B00F073
:104AA000178137B18C4803685B6802228B499847AD
:104AB00005E0894803685B6802228949984704F049
:104AC0000F0704F0F002202A3DD003D83AB1102A93
:104AD0001FD086E0302A50D0402A68D081E081493A
:104AE00068461CF0A5F8394604A81CF003F904A98F
:104AF00068461CF0AFF97C491CF0B4F901467648D1
:104B00001CF014F804A81CF047F868461CF044F8A0
:104B100080E0764908A81CF08BF839460CA81CF0F8
:104B2000E9F80CA908A81CF095F96F491CF09AF94E
:104B3000014669481BF0FAFF0CA81CF02DF808A8E4
:104B40001CF02AF866E06A4910A81CF071F8394692
:104B500014A81CF0CFF814A910A81CF07BF9624926
:104B60001CF080F901465C481BF0E0FF14A81CF023
:104B700013F810A81CF010F84CE05E4918A81CF0BF
:104B800057F839461CA81CF0B5F81CA918A81CF049
:104B900061F955491CF066F901464F481BF0C6FF04
:104BA0001CA81BF0F9FF18A81BF0F6FF32E05249D1
:104BB00020A81CF03DF8394624A81CF09BF824A935
:104BC00020A81CF047F948491CF04CF9014642481E
:104BD0001BF0ACFF24A81BF0DFFF20A81BF0DCFFBC
:104BE00018E0464928A81CF023F839462CA81CF0E8
:104BF00081F82CA928A81CF02DF93B491CF032F9AA
:104C0000014635481BF092FF2CA81BF0C5FF28A8D1
:104C10001BF0C2FF3A4930A81CF00AF80A223146BC
:104C200034A81CF07BF834A930A81CF013F93549DE
:104C30001CF018F9014628481BF078FF34A81BF037
:104C4000ABFF30A81BF0A8FF002E3ED00024DFF8F9
:104C50009880214FDFF8B090295D0F291AD8494676
:104C600038A81BF0E5FF1022295D3CA81CF056F87F
:104C70003CA938A81CF0EEF841461CF0F3F80146B8
:104C800038461BF053FF3CA81BF086FF38A81BF0EA
:104C900083FF15E0102244A81CF040F844A940A866
:104CA0001CF002F8414640A81CF0DCF801463846EA
:104CB0001BF03CFF40A81BF06FFF44A81BF06CFFEB
:104CC0000134E4B2A3B29E42C6D803481BF054FF9D
:104CD00049B0BDE8F08300BF8C17FF1FBC83020002
:104CE000C0830200C4830200D0870200CC8302008C
:104CF000D4830200DC830200E4830200EC83020020
:104D0000F8830200FC8302000884020038B5054CD9
:104D100004F1280554F8040B03681B689847AC425B
:104D2000F8D138BD680AFF1F38B5054C04F12805D5
:104D300054F8040B03685B689847AC42F8D138BD5F
:104D4000680AFF1F38B505460C461CF07DFB8442FF
:104D500003D0214628461CF08DFB38BD82B0084B9D
:104D60001968084A13680093009B5B1A052BF9D950
:104D7000044B1B680193019A014B1A6002B0704703
:104D80006C56FF1F9076002082B0054B1968054ACB
:104D900013680193019B5B1A052BF9D902B0704788
:104DA0006C56FF1F9076002030B583B00546FFF7A4
:104DB000EBFF194C5021204617F0E2FB23681B68DB
:104DC000C5F307212046984723681B68E9B22046AF
:104DD0009847627B0025009501232169204617F042
:104DE0003BFF617B0195012300935022206917F05E
:104DF00047FF2369D3F83821D3F834319A4207D0DA
:104E0000204623685B69984720EAE070C0B200E062
:104E1000FF2003B030BD00BF386B002070B582B0FA
:104E200006460D46FFF7C0FFA8421ED0FFF796FFCB
:104E30000F4C5021204617F0A3FB23681B68C6F3D4
:104E400007212046984723681B68F1B220469847FF
:104E500023681B68294620469847627B00230093FD
:104E600001232169204617F0F7FE02B070BD00BF94
:104E7000386B0020013900F10A0210F8013B01F8FB
:104E8000013F9042F9D1704770B582B00C4610F4E2
:104E9000004F09D0C0F30E0000EB8000224B03EB63
:104EA0004000FFF7E7FF3DE0204BA3FB00235B083A
:104EB0005D1C03EB4303C01A00EB8000400000EBD5
:104EC0004515ADB2FFF760FF194E5021304617F07F
:104ED00057FB33681B68290A3046984733681B68BC
:104EE00005F0FE0130469847727B002500950123AE
:104EF0003169304617F0B0FE717B306901950123AE
:104F000000930A23502217F0BBFE04F10A06084D55
:104F10002B685B692846984720EAE07004F8010B8B
:104F2000A642F5D102B070BDAC000300ABAAAAAA9C
:104F3000386B002040F6B433984249D8F0B587B0BA
:104F400007460E4603A9FFF79FFF06F10A05334601
:104F500003AA002113F8014B12F8010B844218BF79
:104F60000121AB42F6D1002930D01A4BA3FB072315
:104F70005B085C1C03EB4303FF1A07EB87077F000A
:104F800007EB4414A4B2FFF7E9FE134F5021384653
:104F900017F0F6FA3B681B68210A384698473B68C9
:104FA0001B6804F0FE01384698473C4623681B689E
:104FB00016F8011B20469847AE42F7D10648427BBF
:104FC000002300930123016917F046FE07B0F0BDEE
:104FD000704700BFABAAAAAA386B002010B50446E0
:104FE000010A0020FFF71AFFE1B20120FFF716FFC8
:104FF00010BD00BFF0B585B04FF4485422460021E3
:105000005F4820F0C3FB41F26A7200215D4820F046
:10501000BDFB4FF4817200215B4820F0B7FB2246B4
:1050200000215A4820F0B2FB0020FFF7BDFE0446E5
:105030000120FFF7B9FE00EB042083B2544A13802D
:105040000021544A1170013B9CB215464C4E4D4F05
:1050500001E0013CA4B24FF6FF739C423FD001A98E
:105060002046FFF711FF9DF804302A789A429CBF32
:105070005A1C2A709DF8052002F0E001E02915D1A4
:1050800002F01F0203EB830101EB810111443F4851
:1050900030F8111009B127F8141003EB830303EB68
:1050A00083031A44394B23F81240D2E702F01F025F
:1050B00003EB830101EB8101114436F8111009B1B2
:1050C00027F8141003EB830303EB8303134426F840
:1050D0001340BEE7013B9BB2AB4207D14EE08023B9
:1050E0002D48274C284E294F4FF6FF759E4603EB5F
:1050F000830200EB4202517801F0E002E02A1FD166
:1051000003EB830210F8122001F01F0102EB820C66
:105110000CEB8C0C8C4437F81CC0BCF1000F01D098
:1051200026F813C0C82AD5D902EB820202EB82020C
:1051300011446FEA43426FEA524227F81120C9E74F
:1051400003EB830210F8122001F01F0C02EB820126
:1051500001EB8101614434F8111009B126F81310F4
:10516000C82AB7D902EB820202EB820262446FEADC
:1051700043416FEA514124F81210ABE705B0F0BD8E
:10518000E0360020A4180020B00D0020D8B1FF1F89
:10519000646A0020C030FF1FAC000300214B1B8855
:1051A000002B3DD070B586B0002425461D4E03A9C6
:1051B0002046FFF769FE9DF80C3043B99DF80D308D
:1051C0002BB99DF80E3013B96B1C9DB205E025B1CB
:1051D000601B03A980B2FFF7ADFE0134A4B233888F
:1051E000A342E4D8D5B1002200920192ADF8082084
:1051F0005C1BA4B2A34209D90A4E69462046FFF7B8
:1052000099FE0134A4B23388A342F6D85B1B98B24E
:10521000044B1880FFF7E2FEFFF7ECFE06B070BD0E
:10522000704700BF646A002010B5044C0146208816
:10523000FFF780FE23880133238010BD646A0020BD
:10524000104B1B78834216D901F01F0100EB800040
:1052500000EB800008440C4B33F810306BB10B4A64
:1052600032F813305BB101200130C0B232F8133094
:10527000002BF9D1704700207047002070470120B3
:10528000704700BFC030FF1FE0360020A418002088
:1052900010B5054C2088013080B22080FFF79EFEBB
:1052A0002088013880B210BD646A002001F01F011F
:1052B00000EB800000EB80000844034B33F8100043
:1052C00008B933F811007047E036002010F4004FA1
:1052D0001ABFA0F50040024B024B33F81000704794
:1052E000B00D0020A418002038B501F01F0100EB1C
:1052F000800000EB80000844224C34F810401CB9B8
:10530000204830F8111000E0214611F4004F03D17D
:1053100062B300201C4D1FE07AB100201B4D00E05D
:105320002146A1F5004135F81110002918BF0C469F
:105330000130C1B29142F3D300E00C461946204639
:10534000FFF7A2FDA4F50044104B33F81400003021
:1053500018BF012038BD214635F81110002918BFAB
:105360000C460130C1B29142F5D300E00C4619461B
:105370002046FFF789FD044B33F81400003018BFB6
:10538000012038BDE0360020A4180020B00D002018
:10539000C8281FD870B586B0002300930193ADF8DC
:1053A00008300D4B1B889BB1054600240A4E03A90B
:1053B0002046FFF769FD9DF80C30AB4203D16946EA
:1053C0002046FFF7B7FD0134A4B23388A342EED8DC
:1053D00006B070BD704700BF646A0020C82825D899
:1053E000F0B587B0002300930193ADF80830104B5F
:1053F0001B88CBB10546002401F01F070C4E03A902
:105400002046FFF741FD9DF80C30AB4207D19DF8D7
:105410000D30BB4203D169462046FFF78BFD0134B6
:10542000A4B23388A342EAD807B0F0BD704700BFEA
:10543000646A002070B58CB0154601F01F0100EBC6
:10544000800303EB83030B44464A32F81340002CDD
:1054500062D001A92046FFF717FD9DF806102846E7
:105460001BF070FC9DF8071028461BF0CFFC9DF840
:10547000081028461BF0CAFC9DF8091028461BF0AE
:10548000C5FC9DF80A1028461BF0C0FC9DF80B10C7
:1054900028461BF0BBFC9DF80C1028461BF0B6FC00
:1054A0009DF80D1028461BF0B1FC14F4004F1ABFF4
:1054B000A4F500442C4B2D4B33F81400002842D0A7
:1054C00001A9FFF7E1FC9DF8061028461BF09EFCA1
:1054D0009DF8071028461BF099FC9DF808102846F7
:1054E0001BF094FC9DF8091028461BF08FFC9DF8DA
:1054F0000A1028461BF08AFC9DF80B1028461BF06A
:1055000085FC9DF80C1028461BF080FC9DF80D10C2
:1055100028461BF07BFC16E00646154904A81BF044
:1055200087FB314608A81BF0E5FB08A904A81BF07F
:1055300091FC014628461BF0ADFB08A81BF02CFB94
:1055400004A81BF029FB2C7A0F2C08D82026314602
:1055500028461BF05BFC0134E4B2102CF7D10CB0F0
:1055600070BD00BFD8B1FF1FB00D0020A4180020EF
:105570000C84020008B50C4BD87C0C4B1870002131
:105580000B4B19700B4AFFF755FF01230A4A1370A2
:105590000A4A10780A490870082111700221094A44
:1055A0001170094A137008BD200BFF1F0C6B0020FF
:1055B0008343FF1FC80E00201E8CFF1FDF17002033
:1055C0000E300020AE0D00207056FF1F08B50C4BAA
:1055D000D87C0C4A1070597D0B4B19700B4AFFF7A1
:1055E00029FF01230A4A13700A4A10780A490870F1
:1055F000082111700221094A1170094A137008BD6F
:10560000200BFF1F0C6B00208343FF1FC80E0020E0
:105610001E8CFF1FDF1700200E300020AE0D002073
:105620007056FF1FC82800F2998070B584B01446E8
:105630000E4605468DF8040061F01F038DF8053015
:10564000002110461BF042FC03788DF80630012142
:1056500020461BF03BFC03788DF8073002212046E2
:105660001BF034FC03788DF80830032120461BF032
:105670002DFC03788DF80930042120461BF026FC10
:1056800003788DF80A30052120461BF01FFC0378B3
:105690008DF80B30062120461BF018FC03788DF89E
:1056A0000C30072120461BF011FC03788DF80D30DB
:1056B00005EB850000EB80003044294B33F8105097
:1056C00015B9FFF7E5FD054601A92846FFF732FCAD
:1056D000A368082B40D9082120461BF0F7FB03786C
:1056E0008DF80630092120461BF0F0FB03788DF879
:1056F00007300A2120461BF0E9FB03788DF80830BB
:105700000B2120461BF0E2FB03788DF809300C21B9
:1057100020461BF0DBFB03788DF80A300D21204674
:105720001BF0D4FB03788DF80B300E2120461BF0C4
:10573000CDFB03788DF80C300F2120461BF0C6FB03
:1057400003788DF80D30074B33F8150008B9FFF7D3
:105750009FFD01A9FFF7EEFB04B070BD704700BFCD
:10576000D8B1FF1FA4180020C82853D8F0B58DB0B9
:105770001E4615460F460446274B1B78834223D806
:10578000431C254A1370254904A81BF051FA2146F1
:1057900008A81BF0AFFA08A904A81BF05BFB20497E
:1057A0001BF060FB014668461BF07EFA6A4600214A
:1057B0002046FFF737FF68461BF0EEF908A81BF0FC
:1057C000EBF904A81BF0E8F907F01F07394620465B
:1057D000FFF736FDA84207D8FFF75AFD3146FFF71D
:1057E000A9FBFFF707FC13E004EB840404EB84043B
:1057F0003C440C4B33F814003DB100210A4B33F804
:1058000010000131CCB2A542F9D83146FFF792FB26
:105810000DB0F0BD704700BFC030FF1F0C84020008
:1058200014840200E0360020A4180020C8281ED8E6
:1058300010B584B0002301930293ADF80C3001F051
:105840001F0100EB800000EB80000844084B33F898
:10585000104054B101A92046FFF76CFB054B33F80B
:10586000140010B101A9FFF765FB04B010BD70472B
:10587000D8B1FF1FA4180020F0B583B00D4644082E
:1058800004EB440400F00100C00100EBC41404F573
:10589000FA44A4B21C4E5021304616F071FE336813
:1058A0001B68210A3046984733681B6804F0800162
:1058B00030469847727B00240094012331693046BA
:1058C00017F0CAF9717B306901940123009310230A
:1058D000502217F0D5F910273446202623685B693B
:1058E0002046984720EAE070C1B2A1F12003DBB264
:1058F0005F2B88BF314628461BF088FA7B1E13F0C9
:10590000FF07EBD103B0F0BD386B00202DE9F04369
:1059100083B089461746430803EB4303DB0103F5D5
:10592000FA439BB200F0010803EBC815ADB203EBDC
:10593000881808F580781FFA88F8334C50212046E3
:1059400016F01EFE23681B68290A20469847236824
:105950001B6805F0800120469847627B0025009572
:1059600001232169204617F077F9617B20690195B1
:10597000012300938023502217F082F909F1FF34AC
:1059800009F17F06204D2B685B692846984720EA7D
:10599000E07004F8010FB442F5D11B4C50212046B1
:1059A00016F0EEFD23681B684FEA18212046984741
:1059B00023681B6808F0C00120469847627B0025D9
:1059C000009501232169204617F046F9617B206983
:1059D000019501230093A7F18003502217F050F99D
:1059E000802F0ED907F17F03DBB2803399442368FF
:1059F0005B692046984720EAE07006F8010F4E45A3
:105A0000F5D103B0BDE8F083386B00202DE9F043F9
:105A100083B088461746430803EB4303DB0103F5D5
:105A2000FA439BB200F0010903EBC915ADB203EBD9
:105A3000891909F580791FFA89F9FFF78FF92A4C3E
:105A40005021204616F09CFD23681B68290A204639
:105A5000984723681B6805F080012046984708F1A5
:105A6000FF3408F17F06204D2B681B6814F8011FD6
:105A700028469847B442F7D11B4C627B0023009321
:105A800001232169204617F0E7F8FFF767F9502155
:105A9000204616F075FD23681B684FEA1921204641
:105AA000984723681B6809F0C00120469847802F5B
:105AB0000DD907F17F03DBB2803308EB03052368C0
:105AC0001B6816F8011F20469847AE42F7D10648DA
:105AD000427B002300930123016917F0BDF8FFF713
