:1000000000000320D1010000DDE3020095E30200BF
:1000100095E3020095E3020095E3020095E30200F8
:1000200095E3020095E3020095E30200DDE30200A0
:10003000DDE3020095E30200C1030300C5030300F2
:10004000DDE30200DDE30200DDE30200DDE30200A8
:10005000DDE30200DDE30200DDE30200DDE3020098
:10006000DDE30200DDE30200DDE30200DDE3020088
:10007000DDE30200DDE30200DDE30200DDE3020078
:10008000DDE30200DDE30200DDE30200DDE3020068
:10009000DDE30200DDE30200DDE30200DDE3020058
:1000A00051A602005DA60200DDE30200DDE30200CE
:1000B000DDE30200DDE30200DDE3020039150300A9
:1000C000DDE30200A91C0300DDE30200DDE3020022
:1000D000DDE30200DDE30200DDE30200DDE3020018
:1000E000DDE30200DDE30200DDE3020085DD020066
:1000F000DDE30200DDE30200DDE30200DDE30200F8
:100100001107030025070300390703004D0703000B
:10011000DDE3020045ED0200DDE30200DDE3020065
:10012000DDE30200DDE30200DDE30200DDE30200C7
:10013000DDE30200DDE30200DDE30200DDE30200B7
:10014000DDE30200DDE30200DDE30200DDE30200A7
:10015000DDE30200DDE30200DDE30200DDE3020097
:10016000DDE30200DDE3020069A60200DDE3020038
:10017000DDE30200DDE30200DDE30200DDE3020077
:10018000DDE30200DDE30200DDE30200DDE3020067
:10019000DDE30200DDE30200DDE30200DDE3020057
:1001A000DDE30200DDE30200DDE3020075A60200EC
:1001B000DDE30200DDE30200DDE30200DDE3020037
:1001C000DDE30200DDE30200DDE30200DDE3020027
:1001D0005C4B4CF2205210B51A804DF628121A8052
:1001E00000BF00BF2EF0FEF8574B4FF030621A6090
:1001F000564A9A60564ADA60564B4FF470021A60BB
:10020000554B564A1A60564B1A78110703D51A787F
:1002100042F008021A70534B5349AA221A70534AEB
:10022000534B8B4204D252F8040F43F8040BF8E707
:10023000504B514900228B4202D243F8042BFAE77B
:100240004E494F4A002352F8230041F8230001335E
:10025000742BF8D14B4B4C4A802103F8011B93427D
:10026000FBD14A4B454A1A60494B8A221A70A3F5C2
:10027000805324225A70A0221A709A799207FCD5D2
:100280009A79D406FCD4434A937903F00C03082BE3
:10029000FAD1414B60221A7002331A78802AFCD1BD
:1002A0003C4B01221A715D225A719A799006FCD555
:1002B0009979384A4906FBD5384B394919600021EC
:1002C000596020231370937903F00C030C2BFAD19F
:1002D000344B354A1A60354A354C136813F4807331
:1002E00003D123604FF4A8531360324B324A1A6093
:1002F00000225A60072243F8042C304AC3F80C2D20
:1003000062B62EF08DFB2368DA0705D52C482EF057
:1003100045F92C4B2C4A1A602C4B1B785B0609D5EF
:10032000284C294B22689A4204D125482EF036F9F0
:100330000023236031F06EFF2EF05AF830F0B0FC4D
:10034000FEE700BF0E20054030800440823F0400DD
:100350000100002B88ED00E0002008E0030000858C
:1003600002D0074000E007409897FF1FA87A0400DA
:10037000507EFF1F00A0FF1FAC7F00200078FF1FF2
:100380000000000000E400E064E400E008ED00E0AC
:10039000005006400040064001E007404480044011
:1003A0000000060204800440C010070010D0034083
:1003B00014D0034014E000E01FBF02000000202022
:1003C000CBA956631CE00340A5C3945A00F0074034
:1003D000FFFFFFFFFFFFFFFFFFFFFFFFFFFFFFFF2D
:1003E000FFFFFFFFFFFFFFFFFFFFFFFFFFFFFFFF1D
:1003F000FFFFFFFFFFFFFFFFFFFFFFFFFFFFFFFF0D
:10040000FFFFFFFFFFFFFFFFFFFFFFFFDEF9FFFF23
:1004100010B5054C237833B9044B13B10448AFF33E
:1004200000800123237010BD00A0FF1F000000000A
:10043000A47A0400084B10B51BB108490848AFF373
:1004400000800848036803B910BD074B002BFBD0A0
:10045000BDE81040184700BF0000000004A0FF1FC7
:10046000A47A04009897FF1F000000000020704746
:10047000704700BF72B6034B012283F8AC2062B60E
:10048000704700BF7CE0FF1F704700BF704700BF90
:10049000704700BF704700BF2DE9F041DFF834809E
:1004A0000A4C98F800300A4F1E1104F1380501E09B
:1004B00098F8003054F8040FB95D02681943D26906
:1004C0009047AC42F4D1BDE8F08100BF847FFF1FAC
:1004D000C04D002021E3FF1F704700BF704700BFE1
:1004E00030B490F821409DF808509C4201D030BCB7
:1004F000704790F82230AB42F9D10029F7D180F84B
:100500005020F4E7704700BF044A43791078013364
:10051000181AB0FA80F04009704700BF83320020FB
:10052000008D7047B0F84800704700BF03689B6DAE
:10053000184700BF70B4038D0A4C42790A4D0B492D
:10054000B0F84E602E70A4FB0343013264250024F2
:100550005B090A70A0F84E5080F85140A0F84C306A
:1005600070BC70471F85EB51D2E2FF1F8332002021
:100570000368D3F88C30184701EBC10301EB43014A
:100580008900064A01F11C032C3113440A4420213E
:1005900003F8011F9342FBD1012070471CA0FF1FED
:1005A00000207047002070470368D3F8A830184730
:1005B0000846704701EBC10301EB43018900064A7D
:1005C00001F11C032C3113440A44202103F8011FBC
:1005D0009342FBD1704700BF1CA0FF1F002380F88F
:1005E0006A10A0F8683070470020704700207047FC
:1005F000704700BF704700BF90F86E304BB10133B9
:10060000DBB2022B88BF012380F86E30014B03223E
:100610001A7070477832002001EBC10301EB4301EF
:100620008900064A01F11C032C3113440A4420219D
:1006300003F8011F9342FBD1012070471CA0FF1F4C
:1006400001EBC10301EB43018900064A01F11C03E0
:100650002C3113440A44202103F8011F9342FBD19B
:10066000012070471CA0FF1F704700BF704700BFEC
:100670000020704700207047704700BF5D20704722
:10068000542901D8022070475D2934BF8020002002
:10069000704700BF0379022B06BF90F8FB004000B3
:1006A0005D2070474B1E072B05D890F86D308B42AC
:1006B00018BF80F86D10704790F8FC00704700BFBD
:1006C000082070472F2070472E2906D8044B01EBD5
:1006D000410103EBC101087A70470020704700BF59
:1006E000F8AF030043790A4A0A4910B40133B0F85D
:1006F0004E4014700B704FF496740022A0F84E40D8
:10070000A0F84C2080F851205DF8044B704700BFE2
:10071000D2E2FF1F8332002090F851304BB9C1EB79
:100720000111490089B2022986BF033988B200202D
:100730007047B0F84C3001EB4101C3EB031301EB00
:10074000430189B2EFE700BF2E2070472D2906D85C
:10075000044B01EB410103EBC101087A7047002013
:10076000704700BFAC2C0400082070471531C8B298
:10077000704700BF022380F86E30704790F86C30ED
:10078000008DC3EBC303184480B27047B0F8480033
:10079000C0EBC000063080B2704700BF43790A4A00
:1007A0000A4910B40133B0F84E4014700B704FF486
:1007B000C8740022A0F84E40A0F84C2080F85120C8
:1007C0005DF8044B704700BFD2E2FF1F8332002068
:1007D000026890F8521080F85510136C184700BF4B
:1007E0000F2907D801EB4102034B01EB82011944A9
:1007F000087B7047002070478042040010B40AB99B
:1008000090F86E20012A1FD0022A1BD0032A0CBFA9
:100810000D2400240D4A01EBC10001EB40004C23E4
:1008200003FB0121800000F11C032C3013444C8693
:100830000244202103F8011F9342FBD101205DF8FF
:10084000044B70470C24E5E70B24E3E71CA0FF1FD3
:100850004B1E072B05D890F86D308B4218BF80F8DF
:100860006D10704743790D4990F89E2030B40C4CC0
:10087000B0F84E50257001330B7052B14FF4FA733B
:10088000A0F84E300023A0F84C3080F8513030BC36
:1008900070476423A0F84E30F4E700BF8332002095
:1008A000D2E2FF1F1420704790F86E304BB1013335
:1008B000DBB2032B88BF012380F86E30014B01228D
:1008C0001A7070477832002010B40AB990F86E2080
:1008D000012A1FD0022A1BD0032A0CBF0E24002499
:1008E0000D4A01EBC10001EB40004C2303FB012149
:1008F000800000F11C032C3013444C86024420215C
:1009000003F8011F9342FBD101205DF8044B7047AF
:100910000D24E5E70C24E3E71CA0FF1F4B1E092B69
:1009200005D890F86D308B4218BF80F86D10704775
:100930004379094A094910B40133B0F84E401470A4
:100940000B7050240022A0F84E40A0F84C2080F8F4
:1009500051205DF8044B7047D2E2FF1F8332002024
:100960008A20704790F86A300BB98A207047024A93
:10097000134413F8010C704744510020F0B490F870
:100980006A60CEB100230F4A1D460B2403E08A2B78
:100990000ED012F81C4CB442DFB202F11C0203F17B
:1009A0000103F4D1A9420AD001358A2BEDB2F0D16E
:1009B0004FF6FF70F0BC70470846F0BC7047B8B205
:1009C000F0BC704745E90300704700BF1020704736
:1009D00090F86E304BB10133DBB2022B88BF01239C
:1009E00080F86E30014B01221A7070477832002077
:1009F00030B40AB990F86E20012A20D0022A12D011
:100A000001EBC10301EB430189000E4A01F11C0314
:100A10002C3113440A44202103F8011F9342FBD1D7
:100A2000012030BC70470F23064C05684C2202FBA6
:100A300001441A466386D5F8A43030BC18470E230B
:100A4000F2E700BF1CA0FF1F0120704721B1092958
:100A50008CBF002001207047084670474379094A3F
:100A6000094910B40133B0F84E4014700B702424BF
:100A70000022A0F84E40A0F84C2080F851205DF8EC
:100A8000044B7047D2E2FF1F8332002009207047D9
:100A9000082994BF02200020704700BF0F20704734
:100AA0000E2907D8044B01EB4101C1EBC1011944E8
:100AB000887C704700207047D8B603000C4A01EBD1
:100AC000C10001EB40004C2303FB0121800010B466
:100AD00000F11C030E242C304C86134420210244C8
:100AE00003F8011F9342FBD101205DF8044B7047CE
:100AF0001CA0FF1F704700BF43790A4A0A4910B47F
:100B00000133B0F84E4014700B704FF4C8740022DB
:100B1000A0F84E40A0F84C2080F851205DF8044B1E
:100B2000704700BFD2E2FF1F8332002090F851309F
:100B300043B901EB8101C900032986BF043988B29A
:100B400000207047B0F84C3003EB830301EB430106
:100B5000890089B2F0E700BF63207047622905D899
:100B6000034B1A2202FB0131887A7047002070473C
:100B7000E0CD0300182070470F2986BF0531C8B2A9
:100B8000084670470139C9B207299DBF90F87A031A
:100B900040FA01F101F001000020704790F86E303A
:100BA0004BB10133DBB2022B88BF012380F86E30DA
:100BB000014B01221A70704778320020B020704734
:100BC000C12906D8044B01EB410103EBC101887830
:100BD00070470020704700BF5860040090F86A30EA
:100BE0000BB9C2207047024A134413F8010C704736
:100BF000304D0020F0B490F86A60CEB100230F4A67
:100C00001D460C2403E0C22B0ED012F8184CB4423F
:100C1000DFB202F1180203F10103F4D1A9420AD0B4
:100C20000135C22BEDB2F0D14FF6FF70F0BC70472A
:100C30000846F0BC7047B8B2F0BC7047876004004B
:100C40002720704710B4054C4C2000FB014181F86F
:100C5000303081F83C205DF8044B70471CA0FF1F2A
:100C600090F86E304BB10133DBB2022B88BF012309
:100C700080F86E30014B01221A70704778320020E4
:100C800006207047F8B50D4B1B6803B198470C4A16
:100C90000C480D4B00780D4F0D4E0E4C0E4912783E
:100CA00018700325002301203B70337025700870F5
:100CB00012B10A4B07221A70F8BD00BFF4A8FF1F3B
:100CC00085320020184C002087460020D4E2FF1F08
:100CD000A06200207832002040510020C04F002048
:100CE00010B40C4A1378012B0CD9013B13700A4A3B
:100CF0000A480B4900230124137004700B705DF83F
:100D0000044B7047074B1B78002BF0D1064B1B7828
:100D10001370ECE7D4E2FF1FF534002040510020AF
:100D2000A062002085320020CD7FFF1F10B40C4A46
:100D30000C491378097899420FD80B4B1B780BB9E3
:100D400001231370094A0A480A4900230124137039
:100D500004700B705DF8044B704701331370F1E7BA
:100D6000D4E2FF1FCD7FFF1F85320020F534002025
:100D700040510020A0620020704700BF10B5044B16
:100D8000044640F8343B2FF037FD204610BD00BF2D
:100D90009400040010B5044B044640F8343B2FF097
:100DA0002BFD204610BD00BF9400040010B5044B7D
:100DB000044640F8343B2FF01FFD204610BD00BF15
:100DC0009400040010B5044B044640F8343B2FF067
:100DD00013FD204610BD00BF94000400094B10B560
:100DE0000446036000F5CE702FF006FD04F1B80054
:100DF0002FF002FD2046044B40F8343B2FF0FCFC62
:100E0000204610BD5CDA03009400040010B5044BCA
:100E1000044640F8343B2FF0EFFC204610BD00BFE5
:100E20009400040010B5044B044640F8343B2FF006
:100E3000E3FC204610BD00BF9400040010B5044B35
:100E4000044640F8343B2FF0D7FC204610BD00BFCD
:100E50009400040010B5044B044640F8343B2FF0D6
:100E6000CBFC204610BD00BF9400040010B5044B1D
:100E7000044640F8343B2FF0BFFC204610BD00BFB5
:100E80009400040010B5044B044640F8343B2FF0A6
:100E9000B3FC204610BD00BF9400040010B5044B05
:100EA000044640F8343B2FF0A7FC204610BD00BF9D
:100EB0009400040010B5044B044640F8343B2FF076
:100EC0009BFC204610BD00BF9400040010B5044BED
:100ED000044640F8343B2FF08FFC204610BD00BF85
:100EE0009400040070B5104EB368CBB100210F4DD3
:100EF0000C460D482FF048FE2B19B2680178D970C6
:100F00000134E4B294422146F3D30F2AD3B209D874
:100F10002021EA180133DBB2102BD170F9D170BD5A
:100F2000024DF5E770BD00BFF83400201C4C0020D6
:100F300070B5124D00242E46214611482FF024FE94
:100F40000134037806F8013F082CF5D10D4C94F8D4
:100F500034348BB103EB4302C3EBC203DBB203F1C6
:100F60000800C0B25A1C234415F8011F83F87413FB
:100F7000D3B28342F6D170BD1723F0E75039002079
:100F8000F83400200C35002038B504460023CD226B
:100F900000F1340580F890201121237184F89130FC
:100FA00084F8923084F8933028462FF02DFC2846A0
:100FB00003492FF0FDFC012384F8563038BD00BFF3
:100FC000FCA00300104601492FF0F2BC10A1030061
:100FD000184601492FF0ECBC20A10300104601493E
:100FE0002FF0E6BC24A10300104601492FF0E0BC1D
:100FF00030A10300104601492FF0DABC20A1030004
:1010000070B5044615460E461046A11D2FF0D0FCC3
:10101000284605492FF020FD23682A463146204600
:101020009B6DBDE87040184738A10300811D104634
:101030002FF012BD104601492FF00EBD3CA1030058
:10104000104601492FF008BD0CA10300072900D963
:10105000704701EB8100034B01EB4001194410463E
:101060002FF0FABCE2540400044B01EB410103EB06
:10107000C101104609312FF0EFBC00BFF8AF0300EB
:10108000044B01EB410103EBC101104609312FF084
:10109000E3BC00BFAC2C040070B5044615460E46F8
:1010A0001046A11D2FF084FC284605492FF0D4FCE2
:1010B00023682A4631462046DB6EBDE8704018475B
:1010C00038A1030010B401EB4103044C01EB830190
:1010D000214410465DF8044B2FF0BEBC8042040052
:1010E000024B104603EB01112FF0B6BC7C560400F6
:1010F00010B401EB4103044CC1EBC3012144104681
:101100005DF8044B2FF0A8BC741D0400034B01EBE9
:101110008101104603EB41012FF09EBC8C4404007A
:1011200001EB4101034BC1EBC101104619442FF003
:1011300093BC00BFD8B60300622900D97047044BA6
:101140001A2000FB01310B3110462FF085BC00BF87
:10115000E0CD0300044B01EB410103EBC10110465C
:1011600003312FF079BC00BF58600400262903D951
:10117000104605492FF070BC044B01EB41011046AD
:1011800003EBC1012FF068BC4CA10300D83E040062
:10119000262903D9104606492FF05EBC054B01EB0A
:1011A000410103EBC10110460E312FF055BC00BFC9
:1011B0004CA10300D83E0400F8B5224F3B686BB148
:1011C0000C4601EB41032049C4EBC3030546194417
:1011D000104616462FF040FC0B2C00D9F8BD3A21E2
:1011E00030462FF047FC2B8D3968184803EB43033A
:1011F000C3EB03131944214400234C7D91F82120B3
:10120000194606E00133712B00F1130014D010F8D9
:10121000131C8C42DDB2F5D110F8121C9142F1D1B1
:1012200055B103EBC3020A4903EB420330461944AC
:10123000BDE8F8402FF010BC30460649BDE8F84044
:101240002FF00ABCBC4D0020851D04003BF80300B4
:101250002AF803004CA1030030B4B9B101EB4103FB
:10126000C1EBC303DBB200F2444100F24C45C418A9
:10127000013394F8744301F8014FA942DBB2F6D16F
:1012800000F2454130BC10462FF0E6BB1723EAE7D9
:1012900090F89E30012B00D0704700F1B801104645
:1012A0002FF0D6BB30B5104685B00D460849144620
:1012B0002FF0D2FB294668462FF010FB69462046E6
:1012C0002FF0C6FB68462FF097FA05B030BD00BF7F
:1012D00050A1030030B589B00D4604A80B4914464F
:1012E0002FF0CAFA294668462FF0F8FA694604A892
:1012F0002FF0E4FB014620462FF0AAFB68462FF0B2
:101300007BFA04A82FF078FA09B030BD54A103008D
:1013100030B589B00D4604A80B4914462FF0ACFA3D
:10132000294668462FF0DAFA694604A82FF0C6FB72
:10133000014620462FF08CFB68462FF05DFA04A88A
:101340002FF05AFA09B030BD60A1030070B584B027
:1013500068460A490A4C2FF0A3FA04F110066542C8
:10136000291968462FF010FC037804F8013FB442B5
:10137000F6D168462FF040FA04B070BDF834002072
:10138000D4E1FF1F70B50F4CA4FB0134E4080D46F7
:1013900004F1410184B0C9B2104604EB840416463E
:1013A0002FF068FBA5EB44010A2289B268462FF0B2
:1013B000A9FA694630462FF04BFB68462FF01CFA1D
:1013C00004B070BDCDCCCCCC70B5054684B00E4613
:1013D00010460F4914462FF03FFBC6F3C7110A22EF
:1013E000013168462FF08EFA694620462FF030FB17
:1013F00068462FF001FA204620212FF03BFB2B6896
:10140000224606F07F019B6D2846984704B070BDC8
:1014100068A103002DE9F041454FA7FB01346408A2
:10142000622C8CB00D46164673D990F89C3003F1AF
:101430003102B4EB420F804670DC62339C4256DCD2
:101440003C4930462FF008FB6FF494731D44ADB255
:10145000A7FB0534C4F34F040134374FE4B2A7FBB4
:101460000437FF0839460A2268462FF04BFA07EB8B
:101470008707694608A82FF013FAA4EB47010A2250
:10148000C9B204A82FF03EFA04A908A82FF016FB51
:10149000014630462FF0DCFA04A82FF0ADF908A879
:1014A0002FF0AAF968462FF0A7F908A823492FF0D2
:1014B000E3F91F49A1FB0531490801EB4101691A14
:1014C00089B20A22013104A82FF01CFA04A908A845
:1014D0002FF0F4FA014630462FF0BAFA04A82FF0A4
:1014E0008BF908A82FF088F90CB0BDE8F0811449F9
:1014F00030462FF0B1FA98F89C3003EB4303C3F564
:101500007E43D7331D44ADB2A7FB0534C4F34F046B
:10151000A2E7552110462FF0ADFA9DE70949304664
:101520002FF09AFA98F89C3003EB43035B00E6E750
:10153000ABAAAAAAA4A10300CDCCCCCC20A10300C5
:101540008CAA030034A70300F0B5C1F38705194C3A
:10155000013584FB0534EB178DB0C3EBA4040E46B4
:10156000174621460A2268462FF0CCF9694608A89A
:101570002FF096F904EB84010A22A5EB410104A89F
:101580002FF0C0F904A908A82FF098FA06F003017B
:1015900041312FF0A9FA014638462FF059FA04A834
:1015A0002FF02AF908A82FF027F968462FF024F920
:1015B0000DB0F0BD67666666F0B590F89E3091B0EC
:1015C0001546002B51D190F8AD31002B47D14C1C62
:1015D00004A847492FF050F94649A4B2A1FB0431B1
:1015E0000A22490968462FF08DF9694604A82FF0B0
:1015F00065FA414BA3FB0426F608B1B2A3FB012315
:10160000DB0803EB8303A1EB430107460A2289B2FF
:1016100008A82FF077F908A938462FF04FFA06EB03
:101620008606A4EB46010A22074689B20CA82FF0D1
:1016300069F90CA938462FF041FA014628462FF0E7
:1016400007FA0CA82FF0D8F808A82FF0D5F86846AC
:101650002FF0D2F804A82FF0CFF811B0F0BD10464B
:1016600026492FF0F9F911B0F0BD224B01318CB2AF
:10167000A3FB04310A22490968462FF043F9694661
:1016800008A82FF00DF91C4BA3FB0426F608B1B2F5
:10169000A3FB0123DB0803EB8303A1EB43010A2235
:1016A00089B204A82FF02EF904A908A82FF006FA91
:1016B00006EB8606A4EB46010A22074689B20CA86F
:1016C0002FF020F90CA938462FF0F8F901462846EA
:1016D0002FF0BEF90CA82FF08FF804A82FF08CF88B
:1016E00008A82FF089F868462FF086F811B0F0BDF1
:1016F00074A103001F85EB51CDCCCCCC6CA10300B1
:10170000F0B590F89E3091B004460F461646002B77
:1017100036D190F85130002B75D190F84C10614DB6
:1017200001EB810107EB4104E4B2A5FB0435ED08B0
:1017300029460A2204A82FF0E5F805EB850504A93F
:101740000CA82FF0ADF8A4EB4501C9B20A2208A8F5
:101750002FF0D8F808A90CA82FF0B0F952492FF0B3
:10176000B5F9014630462FF073F908A82FF044F878
:101770000CA82FF041F804A82FF03EF811B0F0BDEE
:1017800090F85130002B69D0B0F84C10454DA5FBB6
:1017900001310A22C90868462FF0B4F8694608A842
:1017A0002FF07EF8B4F84C10A5FB0135ED0805EBE1
:1017B0008505A1EB45010A2289B204A82FF0A2F801
:1017C00004A908A82FF07AF9394604460A220CA881
:1017D0002FF098F80CA920462FF070F933492FF01C
:1017E00075F9014630462FF033F90CA82FF004F8B4
:1017F00004A82FF001F808A82EF0FEFF68462EF08E
:10180000FBFF11B0F0BDB0F84C10264DA5FB013127
:101810000A22C90868462FF075F8694608A82FF013
:101820003FF8B4F84C10A5FB0135ED0805EB850534
:10183000A1EB45010A2289B204A82FF063F804A99C
:1018400008A82FF03BF9394604460A220CA82FF0CD
:1018500059F80CA920462FF031F9C2E7B0F84C40F6
:10186000104904EB840407EB4404A4B2A1FB043741
:10187000FF0839460A2204A82FF044F807EB87072F
:1018800004A90CA82FF00CF8A4EB470189B20A2296
:1018900008A82FF037F808A90CA82FF00FF9044971
:1018A0005DE700BFCDCCCCCC78A1030080A10300C4
:1018B0007CA10300F0B5384B93F83E30002B8DB07F
:1018C000164614BF04250825002939D0A9420C4624
:1018D00044D9002B3AD0052959D004A82F492EF01D
:1018E000CBFF641B2E4D023C85FB0435A5EBE47554
:1018F0000A22294668462FF005F8694604A82FF009
:10190000DDF828492FF0E2F805EB4505611B0A22B6
:101910000746013108A82EF0F5FF08A938462FF038
:10192000CDF8014630462FF093F808A82EF064FF5A
:1019300068462EF061FF04A82EF05EFF0DB0F0BDEA
:10194000104619492FF088F80DB0F0BD641B04A8AB
:101950001249134D2EF090FF013CC5E708A813492A
:101960002EF08AFF0A22214604A82EF0CBFF04A9FC
:1019700008A82FF0A3F8014630462FF069F804A814
:101980002EF03AFF08A82EF037FF0DB0F0BD10463C
:1019900007492FF061F8D1E7744200208CA10300C1
:1019A0005655555520AC030084A1030088A10300BF
:1019B00090A1030070B590F851308CB004460D46EC
:1019C000164633BBB0F84C300BB9002964D035490A
:1019D00008A82EF051FFB4F84C1001EB810105EB83
:1019E000410101390A2204A82EF08CFF04A908A89D
:1019F0002FF064F82C492FF069F8014630462FF09B
:101A000027F804A82EF0F8FE08A82EF0F5FE0CB07A
:101A100070BDB0F84C30A3B929B9104623492FF056
:101A20001BF80CB070BD08A821492EF025FF2946EF
:101A300004A80A222EF066FF04A908A82FF03EF899
:101A4000DBE704A817492EF017FFB4F84C100A2260
:101A5000013968462EF056FF694604A82FF02EF88B
:101A600014492FF033F80A220446294608A82EF01C
:101A700049FF08A920462FF021F8014630462EF0F4
:101A8000E7FF08A82EF0B8FE68462EF0B5FE04A8C1
:101A90002EF0B2FE0CB070BD104607492EF0DCFFF0
:101AA0000CB070BD8CA103009CA10300A0A1030099
:101AB00088A1030020AC030098A10300F0B5224BDD
:101AC00001318CB291B0A3FB0431164649090A22B8
:101AD00068462EF017FF694608A82EF0E1FE1B4B62
:101AE000A3FB0425ED08A9B2A3FB0123DB0803EB4C
:101AF0008303A1EB43010A2289B204A82EF002FF5E
:101B000004A908A82EF0DAFF05EB8505A4EB450132
:101B10000A22074689B20CA82EF0F4FE0CA938461A
:101B20002EF0CCFF014630462EF092FF0CA82EF08E
:101B300063FE04A82EF060FE08A82EF05DFE684645
:101B40002EF05AFE11B0F0BD1F85EB51CDCCCCCCA0
:101B5000F0B5284C284FC7290E468DB094BF5521AB
:101B60005021A4FB0634104615462EF083FFA3092E
:101B7000C82404FB1364C4F38D040134E4B2A7FB4E
:101B80000437FF0839460A2268462EF0BBFE07EBF1
:101B90008707694608A82EF083FEA4EB47010A22B6
:101BA000C9B204A82EF0AEFE04A908A82EF086FF44
:101BB000014628462EF04CFF04A82EF01DFE08A872
:101BC0002EF01AFE68462EF017FE2D2128462EF024
:101BD00051FF06F003010A22013108A82EF092FEFF
:101BE00008A928462EF034FF08A82EF005FE0DB0F7
:101BF000F0BD00BF1F85EB51CDCCCCCC30B56229F8
:101C00008BB01D462FD83A4B1A2404FB0131C98AE8
:101C10000BB2002B55DDA1F5F844063C112C10D871
:101C2000DFE804F0090F0F0F0F0F0F0F0F0F0F0F4B
:101C30000F0F0F2D4D2790F8AD30002B14BF092149
:101C400001210A44013A2B4902EBC202114406A8C1
:101C50002EF012FE06A928462EF0FAFE06A82EF057
:101C6000CBFD0BB030BD184623492EF0F5FE0BB06E
:101C700030BD114606A80A222EF044FEEAE73F2AAC
:101C800028D9402A2FD00192EBD91C4906A82EF062
:101C9000F3FD019AA2F132010A2202A82EF032FECF
:101CA00002A906A82EF00AFF014628462EF0D0FE13
:101CB00002A82EF0A1FD06A82EF09EFDD1E751004E
:101CC000D8E7012A28460CBF0D490E492EF0C4FE64
:101CD0000BB030BD0C49019206A82EF0CDFD019A43
:101CE000C2F13201D8E7284608492EF0B5FEB8E720
:101CF000E0CD030038320400D8AC03008CAA030006
:101D00009CA80300ACA10300A4A10300A8A10300A8
:101D100030B50F2989B0154622D91039CCB2072C1D
:101D200005D9104612492EF097FE09B030BD04A81F
:101D300010492EF0A1FD0A22611C68462EF0E2FD3A
:101D4000694604A82EF0BAFE014628462EF080FE11
:101D500068462EF051FD04A82EF04EFD09B030BDAE
:101D6000054B104603EB01112EF076FE09B030BD95
:101D70004CA10300B0A103008872040030B50F2904
:101D800089B0154622D91039CCB2072C05D9104696
:101D900013492EF061FE09B030BD04A811492EF0A0
:101DA0006BFD0A22611C68462EF0ACFD694604A852
:101DB0002EF084FE014628462EF04AFE68462EF09C
:101DC0001BFD04A82EF018FD09B030BD064B03EB37
:101DD0000111104608312EF03FFE09B030BD00BFA2
:101DE0004CA10300BCA1030088720400F0B5C72910
:101DF00091B00C4610468CBF502155211646013437
:101E00002EF038FE2049A4B2A1FB04310A22490970
:101E100068462EF077FD694608A82EF041FD1B4B61
:101E2000A3FB0425ED08A9B2A3FB0123DB0803EB08
:101E30008303A1EB43010A2289B204A82EF062FDBC
:101E400004A908A82EF03AFE05EB8505A4EB450190
:101E50000A22074689B20CA82EF054FD0CA9384678
:101E60002EF02CFE014630462EF0F2FD0CA82EF08E
:101E7000C3FC04A82EF0C0FC08A82EF0BDFC6846E8
:101E80002EF0BAFC11B0F0BD1F85EB51CDCCCCCCFF
:101E9000F0B590F8513091B005460F4616466BBB31
:101EA000B0F84C30012B8CBF5021552110462EF03C
:101EB000E1FDB5F84C100A2204A82EF023FD04A978
:101EC0000CA82EF0EDFC0A22394608A82EF01AFDC7
:101ED00008A90CA82EF0F2FD2B492EF0F7FD0146C3
:101EE00030462EF0B5FD08A82EF086FC0CA82EF08A
:101EF00083FC04A82EF080FC11B0F0BDB0F84C308B
:101F0000224C132B8CBF5021552110462EF0B2FDD0
:101F1000B5F84C10A4FB01310A22C90868462EF01E
:101F2000F1FC694608A82EF0BBFCB5F84C10A4FBE8
:101F30000134E40804EB8404A1EB44010A2289B2D1
:101F400004A82EF0DFFC04A908A82EF0B7FD0A2291
:101F5000044639460CA82EF0D5FC0CA920462EF0DC
:101F6000ADFD014630462EF073FD0CA82EF044FC6A
:101F700004A82EF041FC08A82EF03EFC68462EF086
:101F80003BFC11B0F0BD00BF78A10300CDCCCCCCA0
:101F900030B500EB410089B0B0F89E3015460131F4
:101FA0000A2268465C102EF0ADFC694604A82EF0AB
:101FB00077FC04A83A212EF097FDE3B2094903EB20
:101FC000C30301EB43012EF081FD014628462EF0AC
:101FD0003FFD04A82EF010FC68462EF00DFC09B061
:101FE00030BD00BF34B8030070B5164C4D1C84FBE7
:101FF0000534EB178CB0C3EBA404164621460A2225
:1020000068462EF07FFC694608A82EF049FC04EBD8
:1020100084010A22A5EB410104A82EF073FC04A957
:1020200008A82EF04BFD014630462EF011FD04A805
:102030002EF0E2FB08A82EF0DFFB68462EF0DCFB5A
:102040000CB070BD6766666630B589B00D4604A8F1
:102050000C4914462EF010FC0A22691C68462EF02A
:1020600051FC694604A82EF029FD014620462EF0B9
:10207000EFFC68462EF0C0FB04A82EF0BDFB09B0B3
:1020800030BD00BFC0A1030030B500EB410089B0F6
:10209000B0F89E30154601310A2268465C102EF0D9
:1020A00031FC694604A82EF0FBFB04A83A212EF06F
:1020B0001BFDE3B2094903EB830301EB830102310A
:1020C0002EF004FD014628462EF0C2FC04A82EF096
:1020D00093FB68462EF090FB09B030BD405D0300D5
:1020E000F0B50C46C91191B04131C9B204A81646E9
:1020F00001342EF01BFC2149A4B2A1FB04310A22B9
:10210000490968462EF0FEFB694604A82EF0D6FC6D
:102110001B4BA3FB0425ED08A9B2A3FB0123DB089D
:1021200003EB8303A1EB430107460A2289B208A807
:102130002EF0E8FB08A938462EF0C0FC05EB85051B
:10214000A4EB45010A22074689B20CA82EF0DAFB5F
:102150000CA938462EF0B2FC014630462EF078FC31
:102160000CA82EF049FB08A82EF046FB68462EF07E
:1021700043FB04A82EF040FB11B0F0BD1F85EB51CE
:10218000CDCCCCCC2DE9F04190F8513090B0074641
:102190000D461646002B47D0B0F84C103D4C01EBD5
:1021A000810189114131C9B204A82EF0BFFBB7F8F3
:1021B0004C10A4FB01310A22C90868462EF0A2FB8C
:1021C000694604A82EF07AFCB7F84C10A4FB013441
:1021D000E40804EB8404A1EB440180460A2289B29E
:1021E00008A82EF08FFB08A940462EF067FC0A22B3
:1021F000044629460CA82EF085FB0CA920462EF09B
:102200005DFC014630462EF023FC0CA82EF0F4FABB
:1022100008A82EF0F1FA68462EF0EEFA04A82EF087
:10222000EBFA10B0BDE8F081B0F84C3001EB810161
:102230004A00642101FB0321C9114131C9B208A838
:102240002EF074FBB7F84C100A2204A82EF05AFBAB
:1022500004A908A82EF032FC0A22044629460CA83C
:102260002EF050FB0CA920462EF028FC0A492EF037
:102270002DFC014630462EF0EBFB0CA82EF0BCFAEC
:1022800004A82EF0B9FA08A82EF0B6FA10B0BDE8EE
:10229000F08100BFCDCCCCCC78A10300F0B50D46C9
:1022A0008DB0184C013504A85021164684FB053426
:1022B0002EF03CFBEB17C3EBA40421460A22684630
:1022C0002EF020FB694604A82EF0F8FB04EB8401F5
:1022D0000A220746A5EB410108A82EF013FB08A926
:1022E00038462EF0EBFB014630462EF0B1FB08A835
:1022F0002EF082FA68462EF07FFA04A82EF07CFABF
:102300000DB0F0BD6766666670B5232901F0030560
:1023100088B00C46164605F141051CD904A8462193
:102320002EF004FBA1080A22083968462EF0EAFACA
:10233000694604A82EF0C2FB29462EF0D5FB0146C3
:1023400030462EF085FB68462EF056FA04A82EF093
:1023500053FA08B070BD89080A22013168462EF090
:10236000D1FA694604A82EF09BFA294604A82EF05B
:10237000BBFB014630462EF06BFB04A82EF03CFA66
:1023800068462EF039FA08B070BD00BFF0B590F87D
:10239000513089B0044616460D46DBB9B0F84C30D2
:1023A000002B3BD10A2268462EF0ACFA694604A8FD
:1023B0002EF076FA04A82A492EF088FB0146304612
:1023C0002EF046FB04A82EF017FA68462EF014FAF9
:1023D00009B0F0BD01F00307232907F141072ED909
:1023E000462104A82EF0A2FAB4F84C100A220839AB
:1023F00068462EF087FA694604A82EF05FFB39463E
:102400002EF072FB014630462EF022FB68462EF07D
:10241000F3F904A82EF0F0F909B0F0BD04A84621A4
:102420002EF084FA29460A2268462EF06BFA694695
:1024300004A82EF043FB0A492EF048FBE2E7B0F86F
:102440004C100A22013168462EF05CFA694604A855
:102450002EF026FA394604A82EF046FBAEE700BF60
:1024600078A1030070B590F851308CB00C46154639
:10247000EBB9052908A84FD950212EF057FA611F52
:102480000A2204A82EF03EFA04A908A82EF016FB92
:1024900024492EF01BFB014628462EF0D9FA04A849
:1024A0002EF0AAF908A82EF0A7F90CB070BD90F88C
:1024B0004C600A2313FB0613322B28DD50211046F3
:1024C0002EF0D8FA053EF6B2314668462EF006FAEE
:1024D000694608A82EF0E4F90A22214604A82EF045
:1024E00011FA04A908A82EF0E9FA0F492EF0EEFA25
:1024F000014628462EF0ACFA04A82EF07DF908A873
:102500002EF07AF968462EF077F90CB070BD55219F
:1025100010462EF0AFFAD7E755212EF007FA2146E4
:10252000AEE700BF7CA1030080A1030008B5C8206E
:102530002CF024FA014B024A1A6008BD0CED00E0B1
:102540000400FA0508B504482BF044FB0348BDE835
:1025500008402BF03FBB00BFBC620020D4620020CB
:102560002DE9F0410446FEF70FFD214A214B10688A
:10257000C4F8060007CB0226B3F8008093F802C027
:10258000C4F80E00CF2301204FF0C70EC4F812107C
:1025900003270021C4F8162004F1A305CD2284F8F6
:1025A000902084F891302671A4F81A8084F81CC019
:1025B00084F82460A4F848E084F854702A4684F82B
:1025C0002C00E07784F8210084F86E00A4F846100F
:1025D000A16584F8921084F8931004F19B0303F82A
:1025E000010FAB4202F8011FF9D1BDE8F08100BF35
:1025F000C4A10300C8A10300F8B51E4D0446FEF7B0
:10260000C3FC1D4B2868C4F8060003CB2E7993F851
:1026100002C01D88A67262230226012226714FF095
:10262000030EC4F80E00C4F812100426E582CF2071
:10263000CD25D021A4F848300023052784F818C000
:1026400084F854E0E67784F8905084F8910084F898
:10265000921084F89C3084F89D3084F8933084F88C
:10266000212084F82420A765A4F8463084F8562059
:10267000F8BD00BFD8A10300E0A103002DE9F0419F
:10268000224E0446FEF780FC214B3068C4F8060059
:1026900007CB37791E78A7720223C4F80E004FF0DB
:1026A000280C2371C4F812100827C4F81620CD2571
:1026B000032284F82430CF200023D0214FF4247843
:1026C000A6764FF00A0E012684F89CC084F821708B
:1026D00084F8905084F8910084F8921084F89D302A
:1026E00084F89E3084F89F3084F8A03084F89330CA
:1026F00084F85420E277A4F84880C4F858E084F8BD
:102700005660A4F84630BDE8F08100BFECA103009C
:10271000F4A103002DE9F8430446FEF735FC244BF1
:10272000244D1868C4F806000FCD0226C4F80E0028
:10273000C4F81210C4F816204FF00A0EC4F81A306C
:10274000012200234FF07C094FF003084FF0050CE5
:10275000DF27CF25D320184984F89200C4F88C10C5
:10276000267184F82460A4F8489084F85480C4F852
:1027700058C084F81FE084F8907084F89150A4F851
:10278000463084F8933084F89D30C4F8CC3084F817
:10279000212084F89E2004F5CE7011212EF034F80B
:1027A00004F1B8001121BDE8F8432EF02DB800BFA8
:1027B00004A2030008A2030080C3C901F8B50446BF
:1027C000FEF7E2FB1A4A1B4B1068C4F8060003CB65
:1027D0001E88C4F80E0002234FF0030E2371E68218
:1027E0000627C4F812100126CD2084F82430CF210A
:1027F0000023D222104D84F854E04FF00B0CE77701
:1028000084F8216084F8900084F8911084F8922074
:1028100084F89330C4F89C30A4F848C0C4F88C50B5
:10282000A4F84630A36584F8A2302367F8BD00BF42
:1028300018A203001CA2030080C3C901F8B5184DFB
:102840000446FEF7A1FB174B2868C4F8060003CB2B
:10285000AD881B8865810225012203272571C4F8F4
:102860000E000625E382CD200023C4F81210DA21E1
:102870004FF0470E052684F85470E57784F89000F1
:1028800084F8911084F8923084F8933084F82120F1
:1028900084F82420A4F848E0A665A4F84630F8BDE2
:1028A0002CA2030028A20300F8B50446FEF76CFB37
:1028B000164B174D1868C4F806000FCD0226C4F851
:1028C0000E004FF0030EC4F812100727C4F81620AC
:1028D0000120C4F81A30CD210023CF2240F22B1C56
:1028E000267184F8246084F854E0E77784F82100A6
:1028F00084F8901084F8912084F8923084F8933012
:10290000A4F848C0A4F84630A365F8BD34A203007B
:1029100038A20300F8B50446FEF736FB164A174BFB
:102920001068C4F8060003CB022301220327CD263A
:102930002371CF2500234FF0630C4FF0050EC4F830
:102940000E00C4F8121084F8547084F8906084F873
:10295000915084F82C3084F8923084F89330E277E8
:1029600084F8212084F82420A4F848C0C4F858E052
:10297000A4F84630F8BD00BF48A203004CA20300F3
:10298000F8B51A4E0446FEF7FFFA194B3068C4F842
:10299000060007CB36791B88A6720226267103270C
:1029A000C4F80E00CD266383CF200023C4F8121094
:1029B000C4F81620052101224FF0310E84F854701E
:1029C00084F8906084F8910084F8923084F8933011
:1029D000E17784F8212084F82420A4F848E0A4F8C2
:1029E000463084F83C312367A165F8BD54A203004A
:1029F0005CA20300F8B5224E0446FEF7C5FA214B4F
:102A00003068C4F8060007CBB688B3F800C093F866
:102A100002E0668102230025C4F80E002371C4F889
:102A20001210C4F81620CF200322D12184F82430BC
:102A300040F27F170123CD2684F8910084F892108C
:102A400084F89C2084F85420A4F81AC084F81CE070
:102A5000A4F8487084F89060A4F84650A56584F8FE
:102A60009350E37784F82130294604F19D005D22DC
:102A70002FF074FF84F8FB5084F8FC50F8BD00BFC1
:102A80006CA2030074A20300F8B5224D0446FEF7C1
:102A90007BFA214B2868C4F8060007CBAD88658116
:102AA0000225C4F80E00C4F81210C4F81620112133
:102AB000257104F134002DF0A7FE032084F85400A2
:102AC0000021D222154B1648C4F88C304FF0010E6D
:102AD000CD27D126A16584F89310E57784F824509A
:102AE00084F821E084F8907084F8916084F8922052
:102AF00002680C4B84F89C1042F400727F21A4F809
:102B0000481002601A6822F010021A601A682A43FC
:102B10001A60F8BD84A203008CA2030080C3C9011F
:102B20003C80044000900240F8B52E4D0446FEF76C
:102B30002BFA2D4B2868C4F8060007CB2E792B4BB7
:102B4000A672C4F80E000426022084F89D6020714D
:102B50000026C4F812104FF09E0CC4F816204FF057
:102B6000030E01220527E077D721CD2084F89000BD
:102B700084F8212084F824201D4D84F89C60A4F85A
:102B8000466084F8926084F89360A4F848C084F8A2
:102B900054E0A76584F8911003F618700B2201E049
:102BA00013F81C2C511E1C3312B16A5C01326A549A
:102BB0008342F5D1292240F20D130E4D0E4E4FF6F1
:102BC000FF7001E016F8122025F81230591E8BB262
:102BD0008342C3EBC302F5D1002384F87731C4F8F4
:102BE0008431F8BD98A20300A0A2030045E90300C8
:102BF00044510020602E002040030400F8B5234C0F
:102C00000546FEF7C1F9224B2068C5F8060007CB40
:102C100024791F78AC72C5F80E000224032040F21C
:102C20008F1EAF76C5F812100927C5F81620CD26DD
:102C30000022D0212C71EC7785F8244085F85400CF
:102C4000A5F8462085F89C2085F89D20AA6585F882
:102C5000922085F893200F4BA5F848E00E4C0F48C2
:102C600085F8217085F8906085F891100C2201E0BC
:102C700013F8182C511E183312B1425C0132425421
:102C8000A342F5D1002385F85530F8BDACA203006E
:102C9000B4A2030087600400B7720400304D002026
:102CA00010B5034C20682FF01FFB0023236010BDDC
:102CB000BC4D002010B504462DF008FD204610BD87
:102CC0000B290ED9A1F117030A2B07D9A1F1220371
:102CD0001F2B9ABF1E31C8B2002070470239C8B2FC
:102CE00070470131C8B2704770B505460C460AB945
:102CF00090F86E20012A32D0022A11D004EBC403CE
:102D000004EB4304A400174A04F11C032C341344BD
:102D10002021224403F8011F9342FBD1012070BD02
:102D20000A21104E104A4C2303FB0463284683F803
:102D30003C102B68D3F8D43093420ED1FFF7C0FF7C
:102D40004C2303FB0463214683F830002B6828469C
:102D5000D3F8E4309847002070BD9847F0E7082189
:102D6000DFE700BF1CA0FF1FC12C000030B590F8AA
:102D7000513085B00D461446A3B190F84C10413146
:102D8000C9B210462DF076FE0A22294668462DF07B
:102D9000B9FD694620462DF05BFE68462DF02CFDFE
:102DA00005B030BD41311046C9B22DF063FE20465A
:102DB00002492DF051FE05B030BD00BF78A10300DF
:102DC00010B584B00A220C46014668462DF09AFDE3
:102DD000694620462DF03CFE68462DF00DFD04B0FE
:102DE00010BD00BF542905D8012A18460CD0084947
:102DF0002DF032BE5C2903D9184606492DF02CBEB1
:102E000019461046FFF7DCBF03492DF025BE00BF71
:102E1000ACA10300D8AC03009CA8030010B40D4A79
:102E20000D4B92790D4C03FB01F100FB02F091FB7D
:102E3000F0F14B1EA34209D8C1EB01118900013901
:102E4000232903D9064B1B6803B119605DF8044BB5
:102E5000704700BF74420020008793034744440436
:102E60002850002090F8A93013B190F8A81001B9AB
:102E700070471846FFF7D2BF08B5094B197821B93A
:102E80000848BDE8084027F011BD01390548C9B21E
:102E9000012227F0E1FC0348BDE8084027F014BDFB
:102EA000D4E2FF1F3850002030B590F851308DB07B
:102EB000144613B30D460A22B0F84C1068462DF0A4
:102EC00021FD694608A82DF0EBFC0A22294604A83A
:102ED0002DF018FD04A908A82DF0F0FD01462046AC
:102EE0002DF0B6FD04A82DF087FC08A82DF084FC79
:102EF00068462DF081FC0DB030BD0A2208A82DF0E7
:102F000001FD08A904A82DF0CBFC04A807492DF069
:102F1000DDFD014620462DF09BFD04A82DF06CFC44
:102F200008A82DF069FC0DB030BD00BF78A10300EA
:102F300070B590F851308CB00E4615463BB3044640
:102F4000502104A82DF0F2FCB4F84C100A22684677
:102F50002DF0D8FC694604A82DF0B0FD0A220446E5
:102F6000314608A82DF0CEFC08A920462DF0A6FD7C
:102F7000014628462DF06CFD08A82DF03DFC684662
:102F80002DF03AFC04A82DF037FC0CB070BD04A85D
:102F900050212DF0CBFC0A22314608A82DF0B2FCBE
:102FA00008A904A82DF08AFD07492DF08FFD0146E0
:102FB00028462DF04DFD08A82DF01EFC04A82DF08C
:102FC0001BFC0CB070BD00BF78A1030030B5072911
:102FD00089B0154605D910460F492DF03DFD09B0C1
:102FE00030BD0C4668460D492DF046FC0A22611C96
:102FF00004A82DF087FC04A968462DF05FFD01466A
:1030000028462DF025FD04A82DF0F6FB68462DF08E
:10301000F3FB09B030BD00BF4CA10300C4A2030004
:1030200030B5072989B0154605D910460F492DF04E
:1030300013FD09B030BD0C4668460D492DF01CFC4F
:103040000A22611C04A82DF05DFC04A968462DF03D
:1030500035FD014628462DF0FBFC04A82DF0CCFBE5
:1030600068462DF0C9FB09B030BD00BF4CA103007C
:10307000BCA1030030B590F851308DB014462BB38D
:103080000D460A22B0F84C1068462DF03BFC69460C
:1030900008A82DF005FC0A22294604A82DF032FCD0
:1030A00004A908A82DF00AFD14492DF00FFD0146D2
:1030B00020462DF0CDFC04A82DF09EFB08A82DF095
:1030C0009BFB68462DF098FB0DB030BD0A2208A886
:1030D0002DF018FC08A904A82DF0E2FB04A808496B
:1030E0002DF0F4FC014620462DF0B2FC04A82DF092
:1030F00083FB08A82DF080FB0DB030BD78A1030044
:10310000CCA2030030B5052989B00C46154618D964
:1031100004A818492DF0B0FB0A22611F68462DF063
:10312000F1FB694604A82DF0C9FC014628462DF0A4
:103130008FFC68462DF060FB04A82DF05DFB09B004
:1031400030BD68460C492DF097FB214604A82DF0B0
:10315000C5FB04A968462DF0B1FC014628462DF0B8
:1031600077FC04A82DF048FB68462DF045FB09B01C
:1031700030BD00BFD8A20300D0A2030030B505299E
:1031800089B00C46154618D904A818492DF074FBCF
:103190000A22611F68462DF0B5FB694604A82DF090
:1031A0008DFC014628462DF053FC68462DF024FB8B
:1031B00004A82DF021FB09B030BD68460C492DF064
:1031C0005BFB214604A82DF089FB04A968462DF07D
:1031D00075FC014628462DF03BFC04A82DF00CFBA5
:1031E00068462DF009FB09B030BD00BFE0A2030026
:1031F00050A1030030B589B005460C4604A80B4920
:103200002DF03AFB294668462DF068FB694604A874
:103210002DF054FC014620462DF0BAFB68462DF0F7
:10322000EBFA04A82DF0E8FA09B030BDE4A20300DF
:103230004BB2002B084602DD1146FFF7DBBF1046FC
:1032400001492DF0B5BB00BF20A103000F290B469B
:1032500009D95F2903D9104606492DF0A9BB1146AB
:103260001846FFF7C7BF0449104601EB03112DF0C4
:103270009FBB00BF20A103008872040030B54B1E25
:10328000072B89B00C46154629D909293FD00A29B0
:1032900042D00B2945D00C2948D0A1F10D03722B47
:1032A00005D9104624492DF083FB09B030BD68468E
:1032B00022492DF0E1FA214604A82DF00FFB04A9C4
:1032C00068462DF0FBFB014628462DF061FB04A863
:1032D0002DF092FA68462DF08FFA09B030BD04A89F
:1032E00017492DF0C9FA214668462DF0F7FA6946CC
:1032F00004A82DF0E3FB014628462DF049FB684663
:103300002DF07AFA04A82DF077FA09B030BD1046F6
:103310000C492DF04DFBC8E710460B492DF048FB3A
:10332000C3E7104609492DF043FBBEE710460849A4
:103330002DF03EFBB9E700BF20A10300E4A203008B
:10334000E8A20300F4A2030000A3030010A30300FB
:103350001CA3030030B589B005460C4604A80D49EE
:103360002DF08AFA0A22691C68462DF0CBFA6946CC
:1033700004A82DF0A3FB08492DF0A8FB0146204628
:103380002DF006FB68462DF037FA04A82DF034FA2C
:1033900009B030BD2CA3030030A30300034B1B78FE
:1033A000032B02D8024B01221A707047D8CCFF1FA2
:1033B000405100202DE9F041214F4C2404FB0074C2
:1033C0008846617A0629164621D0FF2919D049B1CD
:1033D0001C4B618E53F828000368BDE8F041D3F818
:1033E000903018473C2110462DF044FB154B618E60
:1033F00053F8280003683246D3F88C30BDE8F0411A
:10340000184710461049BDE8F0412DF025BBE37A7E
:10341000054683B910462DF02DFB0A4B53F82800C2
:103420004C2202FB05750368698ED3F88C30324656
:10343000BDE8F0411847052110462DF01BFBECE7D5
:103440001CA0FF1F887FFF1F34A303002DE9F0415C
:1034500000EB001466001C4B112414FB01661E4493
:1034600002F1100C14464FF00008FF25A31A16F8BD
:1034700001EF14F8017BBE45DBB204D0FF2D08BF7D
:103480001D46377098466445F0D1FF2D03D040B1FA
:103490000120BDE8F081B8F1000FF8D14046BDE849
:1034A000F081144609480A46294627F0D5F94545D2
:1034B000EED8615D05480135EDB227F039F9454593
:1034C000F7D90120BDE8F081FF01FF1F385000202F
:1034D00010B50D4B93F82A30012B14BF0B490C4942
:1034E00000EB40028B180446885C9A78597827F0E4
:1034F000CBFC00210246074827F0C0FC054827F016
:10350000E5FB054B1C7010BD74420020947EFF1F2C
:103510005080FF1F34E3FF1FB8620020074B084AAA
:1035200053F820301278DB7F06499A42087001D0A8
:103530001F2B00D970471846FFF7CABF887FFF1FAF
:10354000B86200204580FF1F10B4094B094A196872
:103550000948137883B083F001030191019C074966
:10356000046001201370087003B05DF8044B7047CD
:103570009C7B0020C07FFF1F90410020847FFF1FA5
:1035800000EB800000EB800001F01F010D4B0844B0
:1035900003EB4000B0F8880098B10B4A02EB400002
:1035A00030F8603C012063B102EB4303013033F893
:1035B000603C80B2002BF7D1FF2828BFFF20C0B2AB
:1035C000704770470002FF1FE834FF1F10B5037AF1
:1035D0000022022B0446427482B0007826D02BF0E1
:1035E00095F908B90123637460782BF08FF970B1F5
:1035F0001549637C0968A27C0191019961619A4235
:103600001FD08BB90120E274A37402B010BD237FD8
:10361000002BEDD10C4BA27C1B680193019B6361D5
:1036200002239A4263740CD00022EBE72BF06EF970
:10363000012808BF607460782BF068F90128D7D1A1
:10364000E8E7002002B010BD9C7B002030B4816D03
:10365000084DC46D82B02B680193019B054A1B1B6A
:103660008B42F8D913680093009BC36502B030BC4D
:10367000704700BF9C7B002010B51C4CE3780D2BDD
:1036800000D910BD1A4AE17952F823000368D3F833
:10369000AC30984708B10138C0B2637A072B20D804
:1036A000DFE803F01B1B15041F1F1F1B02B2114B89
:1036B00011496074520083FB02E3A1FB0010A3EBED
:1036C000E27340080022E3736073E27210BD4208A7
:1036D0000023E0736273E37210BD0023E072637332
:1036E00010BD00236073E372CBE700BF0881FF1FAA
:1036F000887FFF1F56555555ABAAAAAA10B40D4A8C
:103700000D491378097899420CD9013313700B4A8B
:103710000B480C4900230124137004700B705DF8F2
:10372000044B7047084B1B78002BF0D1012313701A
:10373000EDE700BFD4E2FF1FCD7FFF1FF53400206F
:1037400040510020A06200208532002070B53E4B21
:1037500018448CB0447D0E4615469CB1012C59D0BE
:10376000022C14D0032C3CD0043CE3B20D2B07D820
:10377000364B53F8240003682A4631469B6E98471F
:103780000CB070BD324910462DF012F9ECE708A8D4
:1037900030492DF071F80A22F10904A82DF0B2F891
:1037A00004A908A82DF08AF92B492DF08FF90A22D7
:1037B000044606F07F0168462DF0A4F869462046CD
:1037C0002DF07CF9014628462DF0E2F868462DF0F0
:1037D00013F804A82DF010F808A82DF00DF80CB07F
:1037E00070BD0A22283104A82DF08CF804A908A87D
:1037F0002DF056F808A819492DF068F90146284619
:103800002DF0C6F808A82CF0F7FF04A82CF0F4FF60
:103810000CB070BD08A812492DF02EF80A223146CE
:1038200004A82DF06FF804A908A82DF047F9014667
:1038300028462DF0ADF804A82CF0DEFF08A82CF0E7
:10384000DBFF0CB070BD00BF1C4C0020887FFF1F49
:103850004CA10300E4A2030040A3030048A303001B
:103860003CA303000D4B1844437D012B0CD0022BCD
:1038700007D0032B0AD0043BDAB20D2A08D9002066
:10388000704743F6FF7070477F207047D220704723
:10389000034A52F8230003685B6E18471C4C002053
:1038A000887FFF1FF0B5DFF83CE00C4B9EF80070FE
:1038B0000B4A04305D1D002613F8014F844205D0E9
:1038C000AB4202F10202F7D126B9F0BD1180012608
:1038D0000327F5E78EF80070F7E700BF304C0020B3
:1038E000F44C00207832002000EB8000F8B5850011
:1038F000EDB205F12003074F2A350E46DBB2EDB2DB
:103900005C1CE4B2F95C30462DF0B4F8AC422346BE
:10391000F6D1F8BD1C4C00202DE9F04791F8089035
:1039200000EB80008400B9F10A0F04F1200428BFE5
:103930004FF00A09E4B2B9F1000F26D0DFF8548045
:103940008A4627460025294650462DF01DF90135A7
:10395000037808F807307E1CEBB2F6B24B453746C9
:10396000F1D34C44B9F10A0FE4B211D004F10A03C7
:10397000C9EB03095FFA89F92022631C08F80420C7
:10398000DCB24C45F9D1BDE8F087DFF80880EDE7FF
:10399000BDE8F0871C4C0020F0B5134B134D1F7889
:1039A000134C07EB87008000C0B200F12A033430CB
:1039B000DBB2C0B235F8021BDFF834C05A1C4FEA44
:1039C000212E9E1C04F803E0D2B2F3B29842A15417
:1039D000F0D1072F07D89CF81320012303FA07F72B
:1039E00017438CF81370F0BD4F510020F44C0020A9
:1039F0001C4C0020084A10B402F141048179C379BB
:103A000003EBC11302F8013F944200F10200F5D12B
:103A10005DF8044B704700BF73420020144A43799D
:103A2000127801339A4201D00020704790F8A62006
:103A3000FF2A1BD030B40F4C0F4B10484C2505FB10
:103A40000141A0FB0254498EA3FB01535B08B3EB79
:103A5000540F02D0012030BC7047A0FB0131B2EB03
:103A6000510F0CBF0120002030BC7047012070476F
:103A7000833200201CA0FF1F398EE338ABAAAAAA0C
:103A80000A7ACB7970B412044E7A8C7A0B4D02EB21
:103A9000036202EB06232344AB420AD0084A934256
:103AA00005D1CB7A80F89D30002380F8573070BC68
:103AB0007047CB7A80F89C3070BC70470030006053
:103AC000003800600B39052906D8DFE801F0060947
:103AD0000C0F120380F86D24704780F8682470473B
:103AE00080F86B24704780F86924704780F86C2454
:103AF000704780F86A247047184B10B4A3FB012369
:103B0000DB08DCB2021903EB830390F8AD0092F8F6
:103B1000A620A1EB43039BB288B1022A84BF0532E1
:103B2000D2B202EB820203EB42030D490D4A31F897
:103B3000230052F824305DF8044B1844704702EB20
:103B4000820203EB42030649074A31F8230052F888
:103B500024305DF8044B1844704700BFCDCCCCCC6A
:103B600068910300446D0300EC4A040030B42E4A0F
:103B700090F8AD401A2303FB012334BBDB88512BA3
:103B800036D0522B37D01D0444BFC3F30E0343F489
:103B9000803303F180531A2505FB01214A7E8AB147
:103BA00002F00F01084402F0F002102A90F8A5106C
:103BB00027D0202A06D14CBB042931D0052901D1B8
:103BC00003F20123184630BC70471B89512B0CD0DF
:103BD000522B13D01D0444BFC3F30E0343F48033B0
:103BE00003F1805303F50033D5E7104830BC70472C
:103BF0000F4830BC70470F4830BC70470E4830BC8F
:103C000070470129DED103F20620EFE7042904D032
:103C10000529D7D103F5FA70E8E703F1F200E5E7EB
:103C200003F581731846CEE7E0CD03003F1008008E
:103C30003F1001002110010021100800044B82B048
:103C40001B680193019B03F5FA73036702B0704789
:103C50009C7B002030B5174D2B6883B0044613B30E
:103C60004FF40772002118462EF078FE002384F8E6
:103C7000A03084F8A1302046FFF7E0FF0E4B226809
:103C80001B680193019B0D4903F59C5308330B609E
:103C90002046936C98470A4A03210123117084F847
:103CA0006E3003B030BD4FF407702EF015FB286066
:103CB0000346D5E7BC4D00209C7B0020C43100208A
:103CC0007832002030B490F852409DF808501CB172
:103CD00090F82240AC4201D030BC704790F82140AF
:103CE0009C42F9D1A1B10C4B9C3003F23B155024FE
:103CF00005E0AB4200F10100EED013F8154CA142F3
:103D000003F11503F5D1141C18BF01240470F0E76A
:103D100080F85020E0E700BFFEB6030030B4C1EBEE
:103D2000C101674B90F89D4089005A18957EA542C5
:103D300017D890F89C50BDB1538803F47042B2F587
:103D4000104F00F08A8051D9B2F5304F5BD0B2F5F8
:103D5000404F00F0A280B2F5204F6ED003F1C0407A
:103D600000E0002030BC70475B5A03F47042B2F5AB
:103D7000104F00F0958016D9B2F5304F43D0B2F510
:103D8000404F5DD0B2F5204FE8D14E4D4E4990F8EE
:103D90007621002A5CD0022C5AD9012AE1D103F005
:103DA0000F035819DEE7B2F5E04F3ED0B2F5004FF1
:103DB000D4D190F87321454C34F83210D20022440B
:103DC00003F00F0093799842CBDA084480B20206E0
:103DD00004D547F67F73034003F58070002D6BD147
:103DE000B0F5127F57D000F1C040BBE7B2F5E04F0D
:103DF0001BD0B2F5004FB1D190F87321334CD200F3
:103E0000A1188988DBE790F87821314902EB42025A
:103E100052008C1803F00F0023799842A1DA3DB1CB
:103E2000638803F1C04318449CE7C3F30B0099E790
:103E30008B5A03F1C043184494E7264D2649A6E760
:103E40004FF4886540F2334190F87721002AA2D1DF
:103E500003F00F00084430BC704790F875211B4CEC
:103E6000D1006218928802F5007292B2214403F0E8
:103E70007F008B799842BFF674AF104480B203067E
:103E800004D547F67F73034003F580707DB940F297
:103E900054439842A7D1114864E71E251321D3E764
:103EA00090F87521094CD10062185288DEE7B0F510
:103EB000577F98D10A4855E7B0F5AE7F93D1F9E71F
:103EC00010E903003101006005110060E8290400D9
:103ED000F00104004D00006042000060180700601F
:103EE0007105006090F89C30DBB1254BC1EBC1013E
:103EF00003EB81014B8803F47042B2F5204F1AD0D6
:103F000020D8B2F5004F35D0B2F5104F27D190F838
:103F100075111C4A32F8110003F00F03184480B2E7
:103F20007047C1EBC101164B33F8213003F47042E6
:103F3000B2F5204FE4D190F87621012A14BF072171
:103F40002921E6E7B2F5304F0CD0B2F5404F06D14B
:103F500090F87721012A14BF07212921D9E74FF6CC
:103F6000FF70704790F878213AB1012A14BF2521DB
:103F70002821CEE790F87311CBE70221C9E700BFF3
:103F800010E90300602E002089291DD8F8B5CE0065
:103F90001C4D90F89D70721A05EB8202927EBA4217
:103FA00010D80C46FFF79EFF4FF6FF7398420DD0D6
:103FB000B0F5877F06D2144BC0EBC00003EB400086
:103FC0004078F8BD0020F8BD00207047282C0ED0A6
:103FD000182C06D0472C04D0341B05EB8405287917
:103FE000F8BD012F07D9022F07D12520F8BD022FD8
:103FF000F2D91A20F8BD2420F8BD032FECD12720D8
:10400000F8BD00BF10E90300400304008929F8B59A
:104010000C461746064615D9164996F89D30C4EB4E
:10402000C40401EB84018A7E9A4205D838460531E2
:10403000BDE8F8402CF010BD38460F49BDE8F84007
:104040002CF00ABDFFF74EFF4FF6FF73984205466E
:10405000E2D0E1B23046FFF761FE0028ECD007491C
:10406000C5EBC50501EB450138460231BDE8F84016
:104070002CF0F2BC10E903004CA103004003040043
:104080004A7A0B7A70B412048E7ACC7A0B4D02EB1A
:10409000036202EB06232344AB420AD0084A934250
:1040A00005D10B7B80F89D30002380F8573070BC21
:1040B00070470B7B80F89C3070BC7047001000206C
:1040C000040800200A7ACB7970B412044E7A8C7AF4
:1040D000134D02EB036202EB06232344AB420FD0E5
:1040E000104A934207D0104A93420ED1CB7A80F8FF
:1040F0009F3070BC7047CB7A80F89E3070BC7047A0
:10410000CB7A80F89D3070BC7047084A9342F0D15A
:10411000CB7A80F8A030002380F8573070BC70470D
:1041200003200018032100180A100018320200189A
:104130000E4A4379127801339A4201D00020704729
:1041400090F8AC30FF2B08D0094A4C2000FB01212D
:104150004A8ED108B1EB530F01D001207047B3EB69
:10416000920F0CBF01200020704700BF8332002057
:104170001CA0FF1F094B93F82D20042A00D0704784
:1041800090F85620002AFAD190F855100029F6D060
:10419000016880F85520CB6B184700BF744200209F
:1041A0000E4A4379127801339A4201D000207047B9
:1041B00090F8AE30FF2B08D0094A4C2000FB0121BB
:1041C0004A8ED108B1EB530F01D001207047B3EBF9
:1041D000920F0CBF01200020704700BF83320020E7
:1041E0001CA0FF1F0E4A4379127801339A4201D076
:1041F0000020704790F89D30FF2B08D0094A4C20D2
:1042000000FB01214A8ED108B1EB530F01D00120F0
:104210007047B3EB920F0CBF01200020704700BF26
:10422000833200201CA0FF1FF0B590F851300F46DC
:1042300091B005461646B0F84C10002B39D02E4CE4
:10424000A4FB01310A22C90808A82CF05BFB08A9CD
:104250000CA82CF025FBB5F84C10A4FB0134E408A5
:1042600004EB8404A1EB44010A2289B204A82CF0D7
:1042700049FB04A90CA82CF021FC0A22044639466B
:1042800068462CF03FFB694620462CF017FC01469F
:1042900030462CF0DDFB68462CF0AEFA04A82CF07A
:1042A000ABFA0CA82CF0A8FA08A82CF0A5FA11B0CB
:1042B000F0BD0A2204A82CF025FB04A90CA82CF0C0
:1042C000EFFA0A22394608A82CF01CFB08A90CA812
:1042D0002CF0F4FB09492CF0F9FB014630462CF098
:1042E000B7FB08A82CF088FA0CA82CF085FA04A8D3
:1042F0002CF082FA11B0F0BDCDCCCCCC78A103006B
:10430000F0B590F851300F4691B005461646B0F81A
:104310004C10002B39D02E4CA4FB01310A22C908C5
:1043200008A82CF0EFFA08A90CA82CF0B9FAB5F8F7
:104330004C10A4FB0134E40804EB8404A1EB440119
:104340000A2289B204A82CF0DDFA04A90CA82CF0EA
:10435000B5FB0A220446394668462CF0D3FA694672
:1043600020462CF0ABFB014630462CF071FB684632
:104370002CF042FA04A82CF03FFA0CA82CF03CFADE
:1043800008A82CF039FA11B0F0BD0A2204A82CF0CC
:10439000B9FA04A90CA82CF083FA0A22394608A815
:1043A0002CF0B0FA08A90CA82CF088FB09492CF0D5
:1043B0008DFB014630462CF04BFB08A82CF01CFA74
:1043C0000CA82CF019FA04A82CF016FA11B0F0BDC4
:1043D000CDCCCCCC78A1030070B590F851308CB026
:1043E0000E46154653B30446552108A82CF09EFAF4
:1043F000B4F84C100A2204A82CF084FA04A908A8E6
:104400002CF05CFB0A220446314668462CF07AFA0E
:10441000694620462CF052FB16492CF057FB01460A
:1044200028462CF015FB68462CF0E6F904A82CF081
:10443000E3F908A82CF0E0F90CB070BD08A85521EC
:104440002CF074FA0A22314604A82CF05BFA04A975
:1044500008A82CF033FB08492CF038FB014628460D
:104460002CF0F6FA04A82CF0C7F908A82CF0C4F92F
:104470000CB070BD80A103007CA103005C2920D892
:10448000542938B513D915460C46811D10462CF019
:10449000E3FA202128462CF0EDFA0A4BC4EBC401C4
:1044A000284603EB4101BDE838402CF0D5BA054B56
:1044B000C1EBC10103EB41011046BDE838402CF0CF
:1044C000CBBA7047C46D030090F86D3003B97047E4
:1044D00030B50D46044685B02D2128462CF0CAFA89
:1044E00094F86D1068462CF0F9F9694628462CF0CE
:1044F000AFFA68462CF080F905B030BD90F86D3009
:1045000003B9704730B50D46044685B02D212846C5
:104510002CF0B0FA94F86D1068462CF0DFF969467B
:1045200028462CF095FA68462CF066F905B030BDA7
:1045300090F8522080F8552002B970470268018D2A
:10454000536C184790F851309BB1B0F84C3003B918
:10455000E9B1B0F84820B0F8460003EB8303121A23
:1045600001EB4301531CB3EB810FACBF01200020D2
:104570007047B0F84830B0F846209B1A01EB810133
:104580000133B3EBC10FACBF0120002070470846D8
:10459000704700BF90F86E3093B10133DBB2032B4C
:1045A00088BF012380F86E30036810B5D3F8F83067
:1045B0000C469847034A044B147001221A7010BD30
:1045C000704700BFD8CCFF1F7832002090F85130E0
:1045D00063B1B0F84C20B0F8463003EBC200084499
:1045E00080B200B97047013880B27047B0F84C30E3
:1045F000B0F8460003EB830301EB430100EBC1017C
:1046000088B2704790F85130A3B1154BB0F84C20E8
:1046100093F83E30002B14BF0423082322B98B42A9
:1046200034BF002001207047481E07288CBF00209F
:1046300001207047B0F84C3010B4C3EB0313B0F84E
:104640004840B0F846005A000323201A13FB01210A
:104650008142CCBF002001205DF8044B704700BFB1
:104660007442002090F851308BB1B0F84C3003B94F
:1046700009B3B0F84820B0F8460003EB8303101AE2
:1046800001EB43018142CCBF00200120704730B4D0
:10469000B0F84C50B0F84640B0F84830642202FB05
:1046A00005F00A2212FB01011B1B9942CCBF00201E
:1046B000012030BC70470846704700BF03790022D4
:1046C000022B80F8532000D0704790F85230002B16
:1046D000FAD1012380F8221080F89C30704700BF87
:1046E00090F8513093B1B0F84C3003B9D9B1B0F86B
:1046F0004820B0F8460003EB830301EB4301131A93
:10470000B3EB810FACBF012000207047B0F84830F8
:10471000B0F8462001EB81019B1AB3EBC10FACBF8F
:104720000120002070470846704700BF90F8A12084
:1047300002B970470368D3F8843018470379022B15
:1047400001D008467047002370B41A4600F19C045B
:1047500003E00132D2B25D2B0AD014F8015FDEB261
:104760000133002DF7D09142F3D1B0B270BC704745
:104770004FF6FF7070BC704790F8513083B1B0F8BD
:104780004C3090F82C0003EB830301EB430189B21A
:1047900081422CBFC0EB0100C0EB000080B270472B
:1047A000B0F84C0001EB810100EB8000490000EB08
:1047B000800001EB800080B2704700BF90F851305C
:1047C00073B9B0F84C20B0F84800642303FB02F240
:1047D0000A2313FB01218142CCBF00200120704736
:1047E0000120704738B5B0F848408C4205D30368C3
:1047F00004460D465B6C9847258538BD30B5036887
:104800000F4DD3F8A830AB4283B00C4614D16320CF
:10481000A04206D80B49104603B0BDE830402CF04A
:10482000C7B8094B1A2101FB043110460B3103B004
:10483000BDE830402CF0BCB801929847019AE7E7F8
:10484000590B0000D8AC0300E0CD030030B503687D
:10485000104DD3F8A830AB4283B00C4615D1B02030
:10486000A04206D80C49104603B0BDE830402CF0F9
:104870009FB80A4904EB440401EBC401104603311C
:1048800003B0BDE830402CF093B801929847019AEC
:10489000E6E700BFBD0B0000D8AC03005860040081
:1048A000F0B504683A4FD4F8A840BC428BB0164625
:1048B0001D462ED1B020884225D9364801EB410152
:1048C00000EBC101898A0BB2002B4ADD47F6164383
:1048D000994222D047F6174399424BD047F61543E9
:1048E000994220D031442C4B013903EBC10106A879
:1048F0002BF0C2FF06A928462CF0AAF806A82BF038
:104900007BFF0BB0F0BD284624492CF0A5F80BB076
:10491000F0BD0191A0470199CDE7710006A80A22D8
:104920002BF0F0FFE6E7312E26D9322E2BD0EED930
:104930001B4906A82BF0A0FFA6F132010A2202A80B
:104940002BF0E0FF02A906A82CF0B8F80146284693
:104950002CF07EF802A82BF04FFF06A82BF04CFF9E
:10496000D5E7012E28460CBF0E490F492CF074F8EC
:104970000BB0F0BD3146D1E70C4906A82BF07CFF07
:10498000C6F13201DAE7284609492CF065F8BEE79E
:10499000BD0B000058600400384C0400D8AC030084
:1049A0008CAA03009CA80300ACA10300A4A10300EF
:1049B000A8A1030030B503680D4DD3F8A830AB4271
:1049C00083B00C4610D10620A04206D809491046F3
:1049D00003B0BDE830402BF0EBBF1146204603B0DA
:1049E000BDE83040FEF7B6BC01929847019AEBE76C
:1049F000810C0000D8AC030003680B4AD3F8A83040
:104A0000934205D1062088428CBF022000207047C7
:104A100000B583B001919847019988428CBF02206C
:104A2000002003B05DF804FB810C000030B5046881
:104A30000F4DD4F8A840AC4285B012D10620884270
:104A4000184608D9012A0CBF0A490B4905B0BDE830
:104A500030402CF001B8094905B0BDE830402BF0DA
:104A6000FBBF039302920191A04701A90EC9E6E79B
:104A7000810C00009CA80300ACA10300D8AC03008B
:104A800030B503680D4DD3F8A830AB4283B00C4667
:104A900010D10620A04206D80949104603B0BDE84F
:104AA00030402BF085BF1146204603B0BDE83040B2
:104AB000FEF750BC01929847019AEBE7810C000089
:104AC000D8AC030003680B4AD3F8A830934205D151
:104AD000062088428CBF02200020704700B583B0BA
:104AE00001919847019988428CBF0220002003B0B1
:104AF0005DF804FB810C000030B504680F4DD4F85C
:104B0000A840AC4285B012D106208842184608D988
:104B1000012A0CBF0A490B4905B0BDE830402BF013
:104B20009BBF094905B0BDE830402BF095BF03930A
:104B300002920191A04701A90EC9E6E7810C00008D
:104B40009CA80300ACA10300D8AC030030B50368F7
:104B5000104DD3F8A830AB4283B00C4615D11020CD
:104B6000A04206D80C49104603B0BDE830402BF0F7
:104B70001FBF04EB44030949C4EBC304104621449E
:104B800003B0BDE830402BF013BF01929847019A63
:104B9000E6E700BFCD090000D8AC0300741D040097
:104BA000F8B5A1F10E05012D1DD91D460368174664
:104BB000D3F8A830104A93420C461AD110208442F0
:104BC000284606D2012F09D00C49BDE8F8402BF049
:104BD00043BF0B49BDE8F8402BF03EBF0949BDE893
:104BE000F8402BF039BF19461046BDE8F840FEF7F3
:104BF000E7B89847E3E700BFCD09000050A30300E2
:104C000058A303009CA8030030B503680F4DD3F8E8
:104C1000A830AB4283B00C4614D10920A04206D87C
:104C20000B49104603B0BDE830402BF0C1BE094926
:104C300004EB8404104601EB440103B0BDE83040AE
:104C40002BF0B6BE01929847019AE7E78D0A000063
:104C5000D8AC03008C44040030B504680E4DD4F881
:104C6000A840AC4285B010D10920884206D80B4933
:104C7000184605B0BDE830402BF0EEBE1946104690
:104C800005B0BDE83040FEF79BB803930292019156
:104C9000A04701A90EC9E8E78D0A000058A3030048
:104CA00010B50368104CD3F8A830A34282B015D1D8
:104CB0000F20884206D80D49104602B0BDE81040CA
:104CC0002BF076BE0A4B01EB4101C1EBC10110464E
:104CD000194402B0BDE810402BF06ABE8DE8060012
:104CE00098479DE80600E4E79D0A0000D8AC030061
:104CF000D8B6030030B504680E4DD4F8A840AC42D5
:104D000085B010D10F20884206D80B49184605B04F
:104D1000BDE830402BF0A0BE1946104605B0BDE8F6
:104D20003040FEF74DB8039302920191A04701A9CC
:104D30000EC9E8E79D0A000058A30300A1F10E0286
:104D4000012A01D8802070470368074AD3F8A830A9
:104D5000934210B50C4605D11020844234BF022086
:104D6000002010BD9847F8E7CD090000A1F10C0321
:104D7000032B0DD90368084AD3F8A830934210B525
:104D80000C4607D11420844234BF0220002010BDFD
:104D9000802070479847F6E7A508000030B5036803
:104DA0000F4DD3F8A830AB4283B00C4614D15D2030
:104DB000A04206D80B49104603B0BDE830402BF0A6
:104DC000F7BD0949C4EBC404104601EB440103B02C
:104DD000BDE830402BF0ECBD01929847019AE7E71F
:104DE0007D060000D8AC0300C46D030030B5036835
:104DF000104DD3F8A830AB4283B00C4615D1082033
:104E0000A04206D80C49104603B0BDE830402BF054
:104E1000CFBD04EB8403094904EB4304104621444D
:104E200003B0BDE830402BF0C3BD01929847019A12
:104E3000E6E700BFC1060000D8AC0300E25404005E
:104E400003680B4AD3F8A830934205D10820884262
:104E50008CBF02200020704700B583B001919847B5
:104E6000019988428CBF0220002003B05DF804FB4A
:104E7000C106000030B504680F4DD4F8A840AC421C
:104E800085B012D108208842184608D9012A0CBFE3
:104E90000A490B4905B0BDE830402BF0DDBD09499A
:104EA00005B0BDE830402BF0D7BD039302920191CD
:104EB000A04701A90EC9E6E7C10600009CA80300AF
:104EC000ACA10300D8AC030030B50368104DD3F893
:104ED000A830AB4283B00C4615D12F20A04206D893
:104EE0000C49104603B0BDE830402BF061BD0A49C3
:104EF00004EB440401EBC4011046093103B0BDE8E2
:104F000030402BF055BD01929847019AE6E700BF6B
:104F1000C5060000D8AC0300F8AF0300F0B5046884
:104F20003B4FD4F8A850BD428BB016461C462FD13B
:104F30002F20884226D9374801EB410100EBC101FF
:104F4000898A0BB2002B4BDD47F61643994223D0DA
:104F500047F6174399424CD047F61543994221D062
:104F60008A19013A2C4902EBC202114406A82BF01F
:104F700083FC06A920462BF06BFD06A82BF03CFC19
:104F80000BB0F0BD204625492BF066FD0BB0F0BDFF
:104F90000191A8470199CCE7710006A80A222BF0DD
:104FA000B1FCE6E73F2E26D9402E2BD0EED91C4986
:104FB00006A82BF061FCA6F132010A2202A82BF010
:104FC000A1FC02A906A82BF079FD014620462BF092
:104FD0003FFD02A82BF010FC06A82BF00DFCD5E736
:104FE000012E20460CBF0F490F492BF035FD0BB0A9
:104FF000F0BD3146D1E70D4906A82BF03DFCC6F1C6
:105000003201DAE720460A492BF026FDBEE700BF51
:10501000C5060000F8AF0300C48A0300D8AC030043
:105020008CAA03009CA80300ACA10300A4A1030068
:10503000A8A1030030B50368104DD3F8A830AB42E7
:1050400083B00C4615D12E20A04206D80C4910463C
:1050500003B0BDE830402BF0ABBC0A4904EB44047C
:1050600001EBC4011046093103B0BDE830402BF01C
:105070009FBC01929847019AE6E700BF49070000EC
:10508000D8AC0300AC2C0400F0B50468394FD4F858
:10509000A850BD428BB016461C4628D12E2088420F
:1050A0001FD9354801EB410100EBC101898A0BB2E0
:1050B000002B49DD47F6154399421CD03AD347F6F9
:1050C0001743994236D8314606A80A222BF01AFC1B
:1050D00006A920462BF0BCFC06A82BF08DFB0BB0DC
:1050E000F0BD204625492BF0B7FC0BB0F0BD019177
:1050F000A8470199D3E73F2E2FD9402E34D0F4D9B9
:105100001F4906A82BF0B8FBA6F132010A2202A81B
:105110002BF0F8FB02A906A82BF0D0FC0146204694
:105120002BF096FC02A82BF067FB06A82BF064FB83
:105130000BB0F0BD8A19013A124902EBC2021144C8
:1051400006A82BF099FBC3E7012E20460CBF0E49A1
:105150000E492BF081FC0BB0F0BD0D4906A82BF0D9
:105160008BFBC6F13201D1E720460A492BF074FCD3
:10517000BBE700BF49070000AC2C0400D8AC03001B
:105180008CAA0300BC5704009CA80300ACA1030038
:10519000A4A10300A8A1030030B50368104DD3F803
:1051A000A830AB4283B00C4615D11020A04206D8DF
:1051B0000C49104603B0BDE830402BF0F9BB04EBBE
:1051C0004403094904EB83041046214403B0BDE8BD
:1051D00030402BF0EDBB01929847019AE6E700BF03
:1051E000CD090000D8AC03008042040030B504684B
:1051F0000E4DD4F8A840AC4285B010D110208842A2
:1052000006D80B49184605B0BDE830402BF024BC49
:105210001946104605B0BDE83040FDF7D1BD0393F7
:1052200002920191A04701A90EC9E8E7CD0900004B
:1052300058A3030010B503680F4CD3F8A830A3425D
:1052400082B012D11420884206D80C49104602B010
:10525000BDE810402BF0ACBB094B104603EB01112D
:1052600002B0BDE810402BF0A3BB8DE806009847C4
:105270009DE80600E7E700BFA5080000D8AC0300E2
:105280007C56040030B504680E4DD4F8A840AC42FA
:1052900085B010D11420884206D80B49184605B0B5
:1052A000BDE830402BF0D8BB1946104605B0BDE82C
:1052B0003040FDF785BD039302920191A04701A9FB
:1052C0000EC9E8E7A508000058A30300F8B5036875
:1052D000444DD3F8A830AB4206460C46174659D188
:1052E0008A20A04243D9892C56D821463046FEF761
:1052F000F9FD4FF6FF73984205464DD096F89C3065
:1053000023B3394BC4EBC40403EB8404638803F474
:105310007043B3F5204F23D02FD8B3F5004F4ED0B4
:10532000B3F5104F59D1314938462BF041FB96F86F
:1053300075212F49C5EBC5056D004B5D934245D0E6
:1053400038462C49BDE8F8402BF086BBC4EBC404BA
:10535000254B33F8243003F47043B3F5204FDBD1F1
:1053600096F87631012B14BF07222922E1E738464F
:105370002149BDE8F8402BF01BBBB3F5304F16D0E8
:10538000B3F5404F29D196F87731012B14BF07228E
:105390002922CEE79847A4E7134BC4EBC40403EBE0
:1053A000840138460531BDE8F8402BF001BB96F882
:1053B0007831A3B1012B0CBF28222522B9E70F4970
:1053C00038462BF0F5FA96F87321B2E729443846AF
:1053D0000231BDE8F8402BF03FBB0022A9E70222D2
:1053E000A7E700BF6109000010E90300C0A10300A6
:1053F000400304004CA10300D8AC03005CA30300ED
:105400002DE9F0410468DFF8B4E2D4F8A880F04553
:1054100088B007460C4615461E462ED18A20A0426B
:1054200024D9892C2BD838462146FEF75BFD4FF650
:10543000FF73984223D0904BC0EBC00003EB4000B9
:10544000828913B2002B23DDA2F5F8430E3B092B12
:1054500000F2E780DFE813F035005400AC007C0078
:10546000810056006B00C100E000260030468349F1
:105470002BF0F2FA08B0BDE8F081C047CFE7804BCF
:10548000C4EBC40403EB8404E28A13B2002BDBDC1C
:10549000012D30460CBF7B497B492BF0DDFA08B06B
:1054A000BDE8F081294604A80A222BF02BFA04A9B2
:1054B00030462BF0CDFA04A82BF09EF908B0BDE8D9
:1054C000F081182D00F2C380A5F1180101EBD17114
:1054D0000A22491004A82BF015FA04A930462BF033
:1054E000B7FA04A82BF088F9EB0754BF674968495D
:1054F00030462BF0B1FA304666492BF0ADFAB9E7E9
:10550000691CD0E7142D00F2A7800A22A5F114012E
:1055100004A82BF0F7F904A930462BF099FA04A857
:105520002BF06AF930465B492BF096FAA2E7294640
:105530000A2204A82BF0E6F904A930462BF088FAD9
:1055400004A82BF059F9304653492BF085FA91E71E
:10555000182D77D8A5F11801A5E701354F4CADB24C
:10556000A4FB0534E4080A22214604A82BF0CAF95A
:1055700004A930462BF06CFA04A82BF03DF904EB9B
:105580008404474930462BF067FAA5EB44010A2210
:1055900089B204A82BF0B6F904A930462BF058FACA
:1055A00004A82BF029F930463E492BF055FA61E763
:1055B0000A22690804A82BF0A5F904A930462BF0AB
:1055C00047FA04A82BF018F905F0010534493046D4
:1055D0002BF042FAA9002944AAE73F2D2BD9402DF0
:1055E00044D07FF647AF304904A82BF045F9A5F128
:1055F00032010A2268462BF085F9694604A82BF08F
:105600005DFA014630462BF023FA68462BF0F4F899
:1056100004A82BF0F1F82DE7322D22D8A5F13201A4
:1056200041E72A44013A214902EBC202114404A88D
:105630002BF022F93BE71E4904A82BF01DF9C5F118
:105640003201D6E71B4930462BF006FA82E71949AA
:1056500030462BF001FA37E7164930462BF0FCF9BB
:1056600053E7144930462BF0F7F9D7E73046124993
:105670002BF0F2F9FEE600BF40030400D8AC0300B3
:1056800010E903009CA80300ACA1030070A3030071
:1056900074A303006CA3030064A30300CDCCCCCCA3
:1056A00020AC030078A303008CAA030004120400BA
:1056B000A4A1030068A30300A8A1030061090000DE
:1056C00010B5038D8B4282B0044618BF438509D0C4
:1056D00009480A4A21850123037084F8AA3013700F
:1056E00002B010BD0368064AD3F884309342EFD06D
:1056F000019198470199EBE7847FFF1F40510020FB
:10570000F50A0000028D8A4208B503460AD001203E
:105710005A85198583F83D010649074A01230B7014
:10572000137008BD0368054AD3F884309342F3D060
:105730009847F1E7847FFF1F40510020F50A0000E1
:1057400030B5038D8B4283B004460AD00A480B4A19
:10575000638501232185037084F8AC30137003B096
:1057600030BD0268064DD2F88420AA42EED00191E5
:105770009047238D0199E9E7847FFF1F4051002066
:10578000F50A0000704700BF704700BF704700BFB8
:10579000704700BF704700BF074B0138C0B2DA7CCA
:1057A00005E0072801D8DB0705D40138C0B2FF287F
:1057B00042FA00F3F5D170471C4C00200130C0B212
:1057C00007280FD8084BDB7C43FA00F2D10700D53D
:1057D00070470130C0B2082843FA00F202D0D20765
:1057E000F6D4F6E7FF2070471C4C002038B5084C73
:1057F00004F1380554F8040F03681B689847AC425D
:10580000F8D1044A04490548BDE838402AF014BFDD
:10581000847FFF1FBB121300750400002850002076
:1058200070B584B00C4606462BF00CFA057AA542FA
:105830000DD2013C651BEDB201350024013420215D
:1058400030462BF017F9AC42F8D104B070BD2346B6
:105850000022684631462BF0C9F9694630462BF0E4
:105860009FF868462AF0C8FF04B070BDF0B5057A0D
:105870000F2D85B001D905B0F0BDC5F1100505EBC0
:10588000D577C7F34707ED1B064613496846EDB2C7
:105890002AF0F2FF00243DB10134202168462BF0AC
:1058A000E9F8E3B2AB42F7D3314668462BF0D0F8C3
:1058B00047B100240134202168462BF0DBF8E3B225
:1058C0009F42F7D8694630462BF062F868462AF0C6
:1058D00093FF05B0F0BD00BF0CA103002DE9F0411E
:1058E000047A102C28BF10245CB90024134920220C
:1058F0000B190134E4B2102C83F8342DF8D1BDE833
:10590000F0818046651E294640462BF04BF9202841
:1059100010D0EDB20A4F6E1C0025294640462BF0F0
:1059200041F90135AE4207F8010FF6D1102CDDD157
:10593000BDE8F08115F0FF04D7D0E3E7E834FF1F9E
:105940001B42FF1F2DE9F041047A102C28BF1024C0
:105950005CB90024134920220B190134E4B2102C45
:1059600083F8482DF8D1BDE8F0818046651E2946B0
:1059700040462BF017F9202810D0EDB20A4F6E1CCC
:105980000025294640462BF00DF90135AE4207F8B7
:10599000010FF6D1102CDDD1BDE8F08115F0FF0428
:1059A000D7D0E3E7E834FF1F2F42FF1FF8B5047A92
:1059B000102C06462BD8012C21D8C4F11007002F3B
:1059C0000BDD002213481346202101330244DBB2D1
:1059D000BB4282F8481D1A46F7DBD4B1651E0E4B58
:1059E000EDB201351F440024214630462BF0DAF891
:1059F0000134AC4207F8010FF6D1F8BDECB2651ED8
:105A0000294630462BF0CEF82028F7D0D5E71024D1
:105A1000F5E7F8BDE834FF1F2F42FF1F2DE9F843DB
:105A2000057A954228BF1546012D814690460F46BE
:105A300007D96C1E214648462BF0A6F80378202B88
:105A400031D0C5EB080404EBD474C4F3470444B16B
:105A500000260136202138462BF00CF8F3B2A34281
:105A6000F7D300265DB1314648462BF08DF801365C
:105A7000017838462AF0FEFFF3B2AB42F3D3254457
:105A8000EDB2A84524D908F1FF38C5EB0805EDB201
:105A9000013500240134202138462AF0EBFFA542CD
:105AA000F8D1BDE8F883E5B2012DC2D108F1FF3687
:105AB00006EBD6767610F4B2002EC9D131464846B0
:105AC0002BF062F80178384634462AF0D3FFD6E747
:105AD000BDE8F8832DE9F0470D7A102D28BF102579
