:0200000460009A
:100000004643464200000156000000000101020084
:1000100000000000000000000000000000000000E0
:1000200000000000000000000000000000000000D0
:1000300000000000000000000000000000000000C0
:1000400000000000010403000000000000000000A8
:100050000000800000000000000000000000000020
:100060000000000000000000000000000000000090
:100070000000000000000000000000000000000080
:10008000EB04180A063204260000000000000000FD
:10009000050404240000000000000000000000002F
:1000A0000000000000000000000000000000000050
:1000B0000604000000000000000000000000000036
:1000C0000000000000000000000000000000000030
:1000D00020041808000000000000000000000000DC
:1000E0000000000000000000000000000000000010
:1000F0000000000000000000000000000000000000
:10010000D8041808000000000000000000000000F3
:100110000204180804200000000000000000000095
:1001200000000000000000000000000000000000CF
:10013000600400000000000000000000000000005B
:1001400000000000000000000000000000000000AF
:10015000000000000000000000000000000000009F
:10016000000000000000000000000000000000008F
:10017000000000000000000000000000000000007F
:10018000000000000000000000000000000000006F
:10019000000000000000000000000000000000005F
:1001A000000000000000000000000000000000004F
:1001B000000000000000000000000000000000003F
:1001C000000100000010000001000000000000001D
:1001D000000001000000000000000000000000001E
:1001E000000000000000000000000000000000000F
:1001F00000000000000000000000000000000000FF
:10020000FFFFFFFFFFFFFFFFFFFFFFFFFFFFFFFFFE
:10021000FFFFFFFFFFFFFFFFFFFFFFFFFFFFFFFFEE
:10100000D10020402C100060000000000000000013
:1010100020100060001000600000000000000000D0
:101020000000006078D10D000000000000000120E9
:1010300035100060774B4FF42A01774A77485A649D
:101040001864774A99639546764A03F530337649B2
:1010500008208A42C3F854010FD0744B9A420CD234
:10106000D4430846234423F0030304330B4450F8CD
:10107000041B984242F8041BF9D16D4A6D498A421B
:101080000FD06D4B9A420CD2D4430846234423F030
:10109000030304330B4450F8041B984242F8041B2A
:1010A000F9D1664A664B9A420BD2D04311460024CE
:1010B000034423F003030433134441F8044B8B42ED
:1010C000FBD1604A4FF470015F4B116003F5307142
:1010D0005E4A43F8042F9942FBD15D4B80215D4A63
:1010E00003F8011B9342FBD15B4C4FF080375B4E02
:1010F0004FF0FF32DFF8A4A10025DFF8A491DFF85C
:10110000A481574B4349C3F800A0C4F80471C4F844
:101110000091C4F8F470C4F8F080F36923F07F0301
:1011200043F04003F361736A23F07F0343F040030D
:1011300073628A66CA660A674A6715F05DF8494AAB
:101140006320494B4949106003221D60CAF83810DA
:1011500043F8082C4649474A4748C3F8082D0B680E
:10116000464A43F08073CAF83C0045480B60136858
:10117000444943F00103136003680B6015F076FAED
:10118000C4F804714048C4F80091C4F8F470C4F87D
:10119000F080ACF0BDFA00BF00BF00BF00BFF16E31
:1011A0003A4A41F440513A4BF1661560C2F8085191
:1011B000C2F81851C2F82851C2F838519A6BD207B8
:1011C00008D442F61562334959651A659A6B42F0A4
:1011D00001029A632E4A304C936843F001139360E6
:1011E00015F086F8ACF07CF92368132BFCD915F0C8
:1011F000FDFA14F0D5FFACF087FA15F069FAACF0FF
:1012000007FA2368B3F5967FFBD3ACF045F9ACF051
:10121000C7F9FEE700C00A40FFAFAAAA07002000F6
:10122000000005200000000050D70A60B8990200B5
:10123000000000200C710D607060002070600020C4
:101240002074012088ED00E0FC6301208D5602002F
:1012500000E400E0A0E400E000800D4000C00F408A
:1012600008ED00E014E000E018E000E06D6F02001F
:10127000FCED00E000002020716F0200001000E093
:10128000041000E08C5B01200046C32300400840AE
:1012900000400D400000C056945B01200064012016
:1012A0001B1018200C0D11135D207047542901D814
:1012B000022070475D2934BF80200020704700BFA6
:1012C0000379022B01D05D20704790F8FB004000AD
:1012D000704700BF4B1E072B05D890F86D308B422E
:1012E00018BF80F86D10704790F8FC00704700BF81
:1012F000082070472F2070472E2906D8044B01EB99
:10130000410103EBC101087A70470020704700BF1C
:10131000D86801604379002208490133A0F84C20C5
:1013200080F8512070B4B0F84E504FF49676044CCB
:10133000A0F84E6025700B7070BC704702CE002084
:1013400025AF002090F851303BB9C1EB01114900A5
:1013500089B202290CD800207047B0F84C3001EB5C
:101360004101C3EB031301EB430189B20229F2D916
:10137000033988B2704700BF2E2070472D2907D847
:10138000044B01EB410103EBC10191F8700470477C
:1013900000207047D8680160082070471531C8B236
:1013A000704700BF022380F86E30704743790022F7
:1013B00008490133A0F84C2080F8512070B4B0F8EF
:1013C0004E504FF4C876044CA0F84E6025700B7058
:1013D00070BC704702CE002025AF002090F852105C
:1013E000026880F85510136C184700BF0F2908D801
:1013F00001EB4102044B01EB8201194491F8C4084E
:1014000070470020704700BFD868016030B40AB947
:1014100090F86E20012A1ED0022A1AD0032A0CBF8F
:101420000D25002501EBC1000C4A4C23202401EBC3
:10143000400003FB012180004D8600F11C032C308D
:101440001344024403F8014F9342FBD1012030BC06
:1014500070470C25E6E70B25E4E700BF8C60002011
:101460004B1E072B05D890F86D308B4218BF80F8C3
:101470006D10704743790D49013390F89E2030B4C8
:101480000B4CB0F84E500B70257052B14FF4FA73FC
:10149000A0F84E30002330BCA0F84C3080F851301A
:1014A00070476423A0F84E30F4E700BF02CE00205E
:1014B00025AF00201420704790F86E304BB10133F7
:1014C0000122DBB2032B88BF012380F86E30014B71
:1014D0001A707047F1CD002030B40AB990F86E2030
:1014E000012A1ED0022A1AD0032A0CBF0E2500257D
:1014F00001EBC1000C4A4C23202401EB400003FB0C
:10150000012180004D8600F11C032C30134402445D
:1015100003F8014F9342FBD1012030BC70470D25E9
:10152000E6E70C25E4E700BF8C6000204B1E092B8A
:1015300005D890F86D308B4218BF80F86D10704759
:101540004379002208490133A0F84C2080F851204B
:1015500070B4B0F84E505026044CA0F84E60257080
:101560000B7070BC704700BF02CE002025AF00207A
:101570008A20704790F86A300BB98A207047024A77
:10158000134413F8010C7047D80A0120F0B490F806
:101590006A50B5B100230E4A0B241F4603E08A2B84
:1015A00012D012F81C4CAC42DEB202F11C0203F164
:1015B0000103F4D17C1CB942E7B2F0D1B0B2F0BC67
:1015C00070470846F0BC70474FF6FF70F0BC70479C
:1015D00095720160704700BF1020704790F86E3020
:1015E0004BB101330122DBB2022B88BF012380F80B
:1015F0006E30014B1A707047F1CD002070B40AB9FB
:1016000090F86E20012A21D0022A12D001EBC103EA
:101610000F4A202001EB4301890001F11C032C310A
:1016200013440A4403F8010F9342FBD1012070BC1C
:1016300070470F23064E4C2405681A4604FB0164CC
:10164000D5F8A45063862B4670BC18470E23F1E7EB
:101650008C60002001207047013908298CBF0020D0
:10166000012070474379002208490133A0F84C203B
:1016700080F8512070B4B0F84E502426044CA0F8E5
:101680004E6025700B7070BC704700BF02CE00200A
:1016900025AF002009207047082994BF02200020B0
:1016A000704700BF0F2070470E2908D801EB410199
:1016B000044BC1EBC101194491F8BA0770470020EF
:1016C000704700BFD079016030B40C4A4C2301EB65
:1016D000C1050E2403FB0123202001EB45015C869C
:1016E000890001F11C032C3113440A4403F8010F53
:1016F0009342FBD1012030BC704700BF8C600020BA
:10170000704700BF4379002208490133A0F84C20FC
:1017100080F8512070B4B0F84E504FF4C876044CA5
:10172000A0F84E6025700B7070BC704702CE002090
:1017300025AF002090F8513033B901EB8101C90089
:1017400003290BD800207047B0F84C3003EB83031B
:1017500001EB4301890089B20329F3D9043988B226
:10176000704700BF63207047622906D8044B1A22D5
:1017700002FB013191F8EE0870470020704700BF6E
:10178000D0790160182070470F2902D90531C8B2FD
:1017900070470846704700BF0139C9B2072906D80B
:1017A00090F87A0340FA01F101F00100704700203F
:1017B000704700BF90F86E304BB101330122DBB2AD
:1017C000022B88BF012380F86E30014B1A707047DE
:1017D000F1CD0020B0207047C12907D8044B01EBA0
:1017E000410103EBC10191F8FE01704700207047F1
:1017F000C88A016090F86A300BB9C2207047024A6B
:10180000134413F8010C704708F00020F0B490F86E
:101810006A50B5B100230E4A0C241F4603E0C22BC8
:1018200012D012F8184CAC42DEB202F1180203F1E9
:101830000103F4D17C1CB942E7B2F0D1B0B2F0BCE4
:1018400070470846F0BC70474FF6FF70F0BC704719
:10185000F38C01602720704710B44C20044C00FB2F
:10186000014181F8303081F83C205DF8044B70472D
:101870008C60002090F86E304BB101330122DBB256
:10188000022B88BF012380F86E30014B1A7070471D
:10189000F1CD00200620704701EB4101034B1046BB
:1018A00003EBC1010931ABF05BBE00BFD86801603A
:1018B00001EB4101034B104603EBC1010931ABF0D1
:1018C0004FBE00BF406D016001EB4103104610B4F4
:1018D00001EB8301024C21445DF8044BABF040BEA8
:1018E00090710160024B104603EB0111ABF038BE62
:1018F0004C9F016001EB4103104610B4C1EBC301E2
:10190000024C21445DF8044BABF02ABE8CA0016070
:1019100001EB8101024B104603EB4101ABF020BE0D
:10192000FCA1016001EB4101034B1046C1EBC10179
:101930001944ABF015BE00BF78810160622900D95F
:10194000704710B4044B1A24104604FB01315DF8B3
:10195000044B0B31ABF004BEB482016001EB4101DA
:10196000034B104603EBC1010331ABF0F9BD00BFDF
:10197000C48C0160262903D910460549ABF0F0BD9F
:1019800001EB4101034B104603EBC101ABF0E8BD95
:101990006403002058A20160262903D91046064995
:1019A000ABF0DEBD01EB4101044B104603EBC1017E
:1019B0000E31ABF0D5BD00BF6403002058A201601A
:1019C0002DE9F041234F3B6873B10D4601EB410116
:1019D000214C8046C5EBC101104616462144113109
:1019E000ABF0BEFD0B2D01D9BDE8F0813A213046A8
:1019F000ABF05EFEB8F828203968002302EB420203
:101A000004F287501C46C2EB02120A441544697D59
:101A100095F8212005E001331330712B14D010F814
:101A2000134CA142DDB2F6D110F8124C9442F2D11F
:101A300055B103EBC3020949304603EB4203BDE84D
:101A4000F0411944ABF08CBD30460549BDE8F0418A
:101A5000ABF086BDD0F400208CA0016002A601602E
:101A60006403002030B4B9B101EB4103C1EBC303FF
:101A7000DBB200F2444100F24C45C418013394F843
:101A80007443DBB201F8014FA942F6D100F245419F
:101A9000104630BCABF064BD1723EAE790F89E30E7
:101AA000012B00D0704700F1B8011046ABF0B4BD77
:101AB000CB11F0B54C1C91B003F14101164604A8BE
:101AC000A4B2C9B2ABF0F8FC20490A226846A1FBD7
:101AD00004314909ABF0F8FD694604A8ABF010FDEC
:101AE0001B4B074608A8A3FB04250A22ED08A9B250
:101AF00005EB8505A3FB01E3DB0803EB8303A1EB07
:101B0000430189B2ABF0E0FD08A93846ABF0F8FC20
:101B10000746A4EB45010A220CA889B2ABF0D4FD1C
:101B20000CA93846ABF0ECFC01463046ABF074FD36
:101B30000CA8ABF095FD08A8ABF092FD6846ABF0A1
:101B40008FFD04A8ABF0ECFD11B0F0BD1F85EB518B
:101B5000CDCCCCCC2DE9F04190F8513090B0074677
:101B60000D461646002B47D0B0F84C1004A83D4C4B
:101B700001EB810189114131C9B2ABF09DFCB7F88D
:101B80004C100A226846A4FB0131C908ABF09CFD49
:101B9000694604A8ABF0B4FCB7F84C1080460A22A2
:101BA000A4FB013408A8E40804EB8404A1EB44017D
:101BB00089B2ABF089FD08A94046ABF0A1FC044610
:101BC0000A2229460CA8ABF07FFD0CA92046ABF0F9
:101BD00097FC01463046ABF01FFD0CA8ABF040FD72
:101BE00008A8ABF03DFD6846ABF03AFD04A8ABF0A9
:101BF00097FD10B0BDE8F08101EB8102B0F84C30E8
:101C0000642108A8520001FB0321C9114131C9B266
:101C1000ABF052FCB7F84C100A2204A8ABF054FD0C
:101C200004A908A8ABF06CFC04460A2229460CA8BB
:101C3000ABF04AFD0CA92046ABF062FC0A49ABF0C0
:101C400077FD01463046ABF0E7FC0CA8ABF008FD91
:101C500004A8ABF005FD08A8ABF062FD10B0BDE82C
:101C6000F08100BFCDCCCCCC70030020F0B50D4688
:101C70008DB0184C5021013504A81646ABF01CFC61
:101C800084FB0524EB170A226846C3EBA404214613
:101C9000ABF01AFD694604A8ABF032FC074604EB32
:101CA00084010A2208A8A5EB4101ABF00DFD08A9AB
:101CB0003846ABF025FC01463046ABF0ADFC08A839
:101CC000ABF0CEFC6846ABF0CBFC04A8ABF028FD33
:101CD0000DB0F0BD676666662DE9F0414A4F8CB0E5
:101CE0000E461546A7FB01346408622C73D990F8A0
:101CF0009C30804603F13102B4EB420F70DC62335A
:101D00009C4256DC41492846ABF02AFC6FF49473A0
:101D10001E44B6B2A7FB0634C4F34F0401343C4F53
:101D20000A226846E4B2A7FB0437FF08394607EBEE
:101D30008707ABF0C9FC694608A8ABF0CDFB0A22C7
:101D4000A4EB470104A8C9B2ABF0BEFC04A908A8E3
:101D5000ABF0D6FB01462846ABF05EFC04A8ABF026
:101D60007FFC08A8ABF0DCFC6846ABF079FC08A867
:101D70002849ABF011FC24490A2204A8A1FB063132
:101D8000490801EB4101711A89B20131ABF09CFCA9
:101D900004A908A8ABF0B4FB01462846ABF03CFC14
:101DA00004A8ABF05DFC08A8ABF0BAFC0CB0BDE831
:101DB000F08119492846ABF0D3FB98F89C204FF6E8
:101DC000D76302EB42029B1A1E44B6B2A7FB06344D
:101DD000C4F34F04A2E755211046ABF069FC9DE720
:101DE0000E492846ABF0BCFB98F89C304FF6D76202
:101DF00003EB43035B00D21A1644B6B2A7FB0634CA
:101E0000C4F34F048AE700BFABAAAAAAAC03002020
:101E1000CDCCCCCC3C03002088130020B014002093
:101E2000F0B5C1F38705194C8DB00E460135174644
:101E300068460A2284FB0534EB17C3EBA404214651
:101E4000ABF042FC694608A8ABF046FB0A2204EB63
:101E5000840104A8A5EB4101ABF036FC04A908A855
:101E6000ABF04EFB06F003014131ABF0E5FB014660
:101E70003846ABF0D1FB04A8ABF0F2FB08A8ABF0FE
:101E80004FFC6846ABF0ECFB0DB0F0BD67666666D4
:101E900030B589B00D460C49144604A8ABF07CFB64
:101EA00029466846ABF028FB694604A8ABF028FB3E
:101EB00001462046ABF0B0FB6846ABF0D1FB04A86E
:101EC000ABF02EFC09B030BD74030020F0B590F8E3
:101ED0009E3091B01546002B51D190F8AD31002BBA
:101EE00047D14C1C04A84749ABF056FB4649A4B265
:101EF0000A226846A1FB04314909ABF0E5FB6946BB
:101F000004A8ABF0FDFA414B074608A8A3FB042642
:101F10000A22F608B1B206EB8606A3FB01E3DB0852
:101F200003EB8303A1EB430189B2ABF0CDFB08A91E
:101F30003846ABF0E5FA0746A4EB46010A220CA8A6
:101F400089B2ABF0C1FB0CA93846ABF0D9FA014617
:101F50002846ABF061FB0CA8ABF082FB08A8ABF005
:101F60007FFB6846ABF07CFB04A8ABF0D9FB11B05B
:101F7000F0BD27491046ABF0F3FA11B0F0BD0131C6
:101F8000214B0A2268468CB2A3FB04314909ABF00D
:101F90009BFB694608A8ABF09FFA1C4B04A8A3FB67
:101FA00004260A22F608B1B206EB8606A3FB0173EB
:101FB000DB0803EB8303A1EB430189B2ABF084FBA5
:101FC00004A908A8ABF09CFA0746A4EB46010A2234
:101FD0000CA889B2ABF078FB0CA93846ABF090FAAC
:101FE00001462846ABF018FB0CA8ABF039FB04A85F
:101FF000ABF036FB08A8ABF093FB6846ABF030FBC8
:1020000011B0F0BD880300201F85EB51CDCCCCCCA6
:1020100080030020F0B590F89E3091B004460F4642
:102020001646002B36D190F85130002B75D190F820
:102030004C100A22604D04A801EB810107EB41041A
:10204000E4B2A5FB0435ED08294605EB8505ABF0A8
:102050003BFB04A90CA8ABF03FFA0A22A4EB450114
:1020600008A8C9B2ABF030FB08A90CA8ABF048FA3D
:102070005249ABF05DFB01463046ABF0CDFA08A803
:10208000ABF0EEFA0CA8ABF04BFB04A8ABF0E8FA0F
:1020900011B0F0BD90F85130002B69D0B0F84C1061
:1020A0000A22454D6846A5FB0131C908ABF00CFB7F
:1020B000694608A8ABF010FAB4F84C100A2204A83C
:1020C000A5FB0135ED0805EB8505A1EB450189B2BE
:1020D000ABF0FAFA04A908A8ABF012FA04463946A4
:1020E0000A220CA8ABF0F0FA0CA92046ABF008FAD3
:1020F0003349ABF01DFB01463046ABF08DFA0CA81E
:10210000ABF0AEFA04A8ABF0ABFA08A8ABF008FB52
:102110006846ABF0A5FA11B0F0BDB0F84C100A2239
:10212000254D6846A5FB0131C908ABF0CDFA6946DB
:1021300008A8ABF0D1F9B4F84C100A2204A8A5FB0A
:102140000135ED0805EB8505A1EB450189B2ABF042
:10215000BBFA04A908A8ABF0D3F9044639460CA889
:102160000A22ABF0B1FA0CA92046ABF0C9F9C2E7DC
:10217000B0F84C400A22104904A804EB840407EB91
:102180004404A4B2A1FB0437FF08394607EB8707D4
:10219000ABF09AFA04A90CA8ABF09EF90A22A4EBC2
:1021A000470108A889B2ABF08FFA08A90CA8ABF0D8
:1021B000A7F904495DE700BFCDCCCCCC700300206B
:1021C000900300208C030020324B93F83E30002B0C
:1021D00070B516468CB014BF0425082500294ED0D2
:1021E000A9420C4632D9641B2B4904A8651EABF0EA
:1021F000D3F90A226846002D2946B8BFA11DC9108F
:10220000ABF062FA694604A8ABF07AF92349ABF067
:102210008FFA234904462940002936DB0A2201317E
:1022200008A8ABF051FA08A92046ABF069F90146BD
:102230003046ABF0F1F908A8ABF012FA6846ABF003
:102240000FFA04A8ABF06CFA0CB070BD154908A8E1
:10225000ABF0A2F90A22214604A8ABF035FA04A992
:1022600008A8ABF04DF901463046ABF0D5F904A80B
:10227000ABF0F6F908A8ABF053FA0CB070BD0A4900
:102280001046ABF06DF90CB070BD013961F007017B
:102290000131C3E7E4EB00209C030020BC070020D1
:1022A00007000080980300209403002070B590F888
:1022B00051308CB004460D46164633BBB0F84C3056
:1022C0000BB9002964D0354908A8ABF065F9B4F81A
:1022D0004C100A2204A801EB810105EB41010139F0
:1022E000ABF0F2F904A908A8ABF00AF92C49ABF05D
:1022F0001FFA01463046ABF08FF904A8ABF0B0F9F5
:1023000008A8ABF00DFA0CB070BDB0F84C30A3B912
:1023100029B924491046ABF023F90CB070BD22490D
:1023200008A8ABF039F9294604A80A22ABF0CCF989
:1023300004A908A8ABF0E4F8DBE7184904A8ABF05F
:102340002BF9B4F84C100A2268460139ABF0BCF9FD
:10235000694604A8ABF0D4F81449ABF0E9F9044697
:102360000A22294608A8ABF0AFF908A92046ABF02D
:10237000C7F801463046ABF04FF908A8ABF070F94A
:102380006846ABF06DF904A8ABF0CAF90CB070BDAB
:1023900007491046ABF0E4F80CB070BD9C03002078
:1023A000A4030020A803002098030020BC070020FD
:1023B000A003002070B5232901F0030588B00C4666
:1023C000164605F141051CD9462104A8ABF074F866
:1023D0000A22A10868460839ABF076F9694604A8D4
:1023E000ABF08EF82946ABF027F901463046ABF04A
:1023F00013F96846ABF034F904A8ABF091F908B0D2
:1024000070BD89080A2268460131ABF05DF9694662
:1024100004A8ABF061F8294604A8ABF00DF9014619
:102420003046ABF0F9F804A8ABF07AF96846ABF0A7
:1024300017F908B070BD00BFF0B590F8513089B001
:10244000044616460D46DBB9B0F84C30002B3BD1A4
:102450000A226846ABF038F9694604A8ABF03CF8AC
:1024600004A82A49ABF064F901463046ABF0D4F831
:1024700004A8ABF055F96846ABF0F2F809B0F0BD2E
:1024800001F00307232907F141072ED9462104A8AB
:10249000ABF012F8B4F84C100A2268460839ABF0D9
:1024A00013F9694604A8ABF02BF83946ABF0C4F831
:1024B00001463046ABF0B0F86846ABF0D1F804A85E
:1024C000ABF02EF909B0F0BD462104A8AAF0F4FF44
:1024D00029460A226846ABF0F7F8694604A8ABF033
:1024E0000FF80A49ABF024F9E2E7B0F84C100A22E1
:1024F00068460131ABF0E8F8694604A8AAF0ECFFA1
:10250000394604A8ABF098F8AEE700BF700300208E
:102510000131224BF0B58CB291B016460A22A3FBD2
:10252000043168464909ABF0CFF8694608A8AAF01B
:10253000D3FF1B4B04A8A3FB04250A22ED08A9B274
:1025400005EB8505A3FB0173DB0803EB8303A1EB1C
:10255000430189B2ABF0B8F804A908A8AAF0D0FFEB
:102560000746A4EB45010A220CA889B2ABF0ACF8EF
:102570000CA93846AAF0C4FF01463046ABF04CF82F
:102580000CA8ABF06DF804A8ABF06AF808A8ABF0A3
:10259000C7F86846ABF064F811B0F0BD1F85EB5189
:1025A000CDCCCCCCC7291046F0B50E468DB094BF2B
:1025B000552150211546ABF07BF8234BC824234FFF
:1025C0006846A3FB06230A229B0904FB1364C4F399
:1025D0008D040134E4B2A7FB0437FF08394607EB4A
:1025E0008707ABF071F8694608A8AAF075FF0A22C0
:1025F000A4EB470104A8C9B2ABF066F804A908A887
:10260000AAF07EFF01462846ABF006F804A8ABF01E
:1026100027F808A8ABF084F86846ABF021F82D2124
:102620002846ABF045F806F003010A2208A801315C
:10263000ABF04AF808A92846AAF0EEFF08A8ABF0CC
:102640000FF80DB0F0BD00BF1F85EB51CDCCCCCC49
:1026500070B590F851308CB00C461546EBB9052991
:1026600050D9502108A8AAF027FF611F0A2204A808
:10267000ABF02AF804A908A8AAF042FF2449ABF05D
:1026800057F801462846AAF0C7FF04A8AAF0E8FFB9
:1026900008A8ABF045F80CB070BD90F84C600A2368
:1026A00013FB0613322B28DD053E50211046F6B2EF
:1026B000AAF0FEFF31466846AAF01EFF694608A848
:1026C000AAF00AFF0A22214604A8AAF0FDFF04A9E5
:1026D00008A8AAF015FF0F49ABF02AF801462846D2
:1026E000AAF09AFF04A8AAF0BBFF08A8ABF018F85C
:1026F0006846AAF0B5FF0CB070BD55211046AAF08F
:10270000D7FFD7E7552108A8AAF0D6FE2146ADE7A6
:102710008C03002090030020622930B51D468BB049
:102720002FD83A4B1A2404FB0131B1F8FA180BB236
:10273000002B54DD364C0C44112C10D8DFE804F08B
:10274000090F0F0F0F0F0F0F0F0F0F0F0F0F0F2D81
:102750004D2790F8AD30002B14BF092101210A4408
:102760002C4906A8013A02EBC2021144AAF0E0FE8D
:1027700006A92846AAF050FF06A8AAF071FF0BB0E0
:1027800030BD25491846AAF0EBFE0BB030BD11460E
:102790000A2206A8AAF098FFEAE73F2A28D9402A89
:1027A0002FD00192EBD91D4906A8AAF0F5FE019A97
:1027B000A2F132010A2202A8AAF086FF02A906A805
:1027C000AAF09EFE01462846AAF026FF02A8AAF01B
:1027D00047FF06A8AAF0A4FFD1E75100D8E7012AD5
:1027E00028460CBF0E490F49AAF0BAFE0BB030BD07
:1027F0000D4906A80192AAF0CFFE019AC2F132015A
:10280000D8E728460949AAF0ABFEB8E7D0790160BD
:10281000FA83FFFF64AE0160142F002088130020AC
:10282000F8190020B0030020AC030020C8250020C8
:102830000F2930B5154689B022D91039CCB2072CF2
:1028400005D913491046AAF08BFE09B030BD1149D5
:1028500004A8AAF0A1FE0A22611C6846AAF034FF6F
:10286000694604A8AAF04CFE01462846AAF0D4FE08
:102870006846AAF0F5FE04A8AAF052FF09B030BDE0
:10288000054B104603EB0111AAF06AFE09B030BDFA
:1028900064030020B403002004BB01600F2930B59D
:1028A000154689B022D91039CCB2072C05D9144964
:1028B0001046AAF055FE09B030BD124904A8AAF08E
:1028C0006BFE0A22611C6846AAF0FEFE694604A857
:1028D000AAF016FE01462846AAF09EFE6846AAF017
:1028E000BFFE04A8AAF01CFF09B030BD064B10467D
:1028F00003EB01110831AAF033FE09B030BD00BF6F
:1029000064030020C003002004BB016030B589B01F
:102910000D460C49144604A8AAF03EFE2946684616
:10292000AAF0EAFD694604A8AAF0EAFD014620469D
:10293000AAF072FE6846AAF093FE04A8AAF0F0FE80
:1029400009B030BDC4030020F0B50C46C72991B0D2
:10295000104604F101048CBF502155211646A4B243
:10296000AAF0A6FE20490A226846A1FB04314909C3
:10297000AAF0AAFE694608A8AAF0AEFD1B4B04A85F
:10298000A3FB04250A22ED08A9B205EB8505A3FBEC
:102990000173DB0803EB8303A1EB430189B2AAF0C7
:1029A00093FE04A908A8AAF0ABFD0746A4EB4501D5
:1029B0000A220CA889B2AAF087FE0CA93846AAF010
:1029C0009FFD01463046AAF027FE0CA8AAF048FE5B
:1029D00004A8AAF045FE08A8AAF0A2FE6846AAF03C
:1029E0003FFE11B0F0BD00BF1F85EB51CDCCCCCC6C
:1029F000F0B590F8513091B005460F4616466BBBC6
:102A0000B0F84C301046012B8CBF50215521AAF054
:102A10004FFEB5F84C100A2204A8AAF055FE04A9EE
:102A20000CA8AAF059FD0A22394608A8AAF04CFEC3
:102A300008A90CA8AAF064FD2B49AAF079FE01466A
:102A40003046AAF0E9FD08A8AAF00AFE0CA8AAF0F0
:102A500067FE04A8AAF004FE11B0F0BDB0F84C3037
:102A60001046224C132B8CBF50215521AAF020FE7A
:102A7000B5F84C100A226846A4FB0131C908AAF037
:102A800023FE694608A8AAF027FDB5F84C100A22D3
:102A900004A8A4FB0134E40804EB8404A1EB440182
:102AA00089B2AAF011FE04A908A8AAF029FD0446DB
:102AB0000A2239460CA8AAF007FE0CA92046AAF063
:102AC0001FFD01463046AAF0A7FD0CA8AAF0C8FDDC
:102AD00004A8AAF0C5FD08A8AAF022FE6846AAF03C
:102AE000BFFD11B0F0BD00BF70030020CDCCCCCC39
:102AF00070B54D1C154C8CB0164684FB0534EB1795
:102B00000A226846C3EBA4042146AAF0DDFD69460B
:102B100008A8AAF0E1FC0A2204EB840104A8A5EBB2
:102B20004101AAF0D1FD04A908A8AAF0E9FC0146D8
:102B30003046AAF071FD04A8AAF092FD08A8AAF0F8
:102B4000EFFD6846AAF08CFD0CB070BD6766666646
:102B500030B589B00D460D49144604A8AAF01CFDF5
:102B60000A22691C6846AAF0AFFD694604A8AAF0CB
:102B7000C7FC01462046AAF04FFD6846AAF070FD4A
:102B800004A8AAF0CDFD09B030BD00BFCC030020E1
:102B900000EB4103013130B589B0B3F89E301546E2
:102BA0000A2268465C10AAF08FFD694604A8AAF0C4
:102BB00093FC04A83A21AAF03FFD0A49E3B203EBD3
:102BC000830301EB83010231AAF0B2FD01462846DE
:102BD000AAF022FD04A8AAF0A3FD6846AAF040FDD1
:102BE00009B030BD74C401602DE9F0410446AAF07B
:102BF000AFFC1F4902251F4B012208684FF06208F5
:102C000009794FF0030CC4F806004FF0050EA172CD
:102C100004272571CD26D025A4F8488084F854C017
:102C2000C4F858E0E77784F8906084F8915084F80D
:102C3000212084F8242084F8562003CBC4F81210F5
:102C400019889B78C4F80E00D220E18223760023F5
:102C5000094984F89200C4F89810A4F8463084F822
:102C60009C3084F89D3084F89330BDE8F08100BF3B
:102C7000E4030020EC030020785102602DE9F047C6
:102C80000446AAF065FC234A0226234B4FF424791C
:102C900010684FF0280812794FF00A0CC4F80600AB
:102CA0004FF0080EA27201274FF0CE0AD0252671F0
:102CB00084F82460A4F8489084F89C80C4F858C034
:102CC00084F821E084F8567084F890A084F891503C
:102CD00007CB1B78C4F80E00D320A3760023C4F8DA
:102CE0001210C4F8162003220C4984F89200C4F88C
:102CF0009810A4F8463084F89D3084F89E3084F80B
:102D00009F3084F8A03084F8933084F85420E27720
:102D1000BDE8F087F80300200004002078CE0260B0
:102D20002DE9F8430446AAF013FC244B4FF0050CA0
:102D3000234D4FF0DD0E186802274FF07C094FF04D
:102D40000308C4F80600DE26C4F858C084F890E0F2
:102D5000277184F82470A4F8489084F8548084F88B
:102D600091600FCD0A25C4F81620C4F81A3001224C
:102D70000023E577134DA4F8463084F8923084F8A8
:102D8000933084F89D30C4F8CC30C4F80E0004F5BC
:102D9000CE70C4F81210172184F8212084F89E20E8
:102DA000C4F88C50AAF060FB04F1B8001721AAF017
:102DB0005BFB054BC4F89830BDE8F8831004002095
:102DC0001404002080C3C901784B03602DE9F04151
:102DD0000446AAF0BDFB1D4902221D4B4FF00B0813
:102DE00008684FF0030C22714FF0060EC4F806007D
:102DF0000127D52684F82420164AA4F8488084F8B0
:102E000054C084F81FE084F8217084F89060C4F8FE
:102E1000982003CB1B88C4F80E00D620E382002341
:102E2000C4F812100C4984F89100C4F88C10A4F86E
:102E30004630A36584F8923084F8933084F8A23049
:102E4000C4F89C302367BDE8F08100BF2404002053
:102E50002804002078C8036080C3C901F8B504467F
:102E6000AAF076FB18490225184B012208684FF09A
:102E7000470C89884FF0030EC4F8060005276181CE
:102E800006262571E425A4F848C084F854E0A76517
:102E9000E67784F8905084F8212084F8242003CB2E
:102EA0001B88C4F80E00D020E3820023C4F812105F
:102EB000074984F89100C4F89810A4F8463084F8C3
:102EC000923084F89330F8BD380400203404002098
:102ED000784504602DE9F0410446AAF039FB1A4B0D
:102EE00002271A4D40F22B1C18684FF0030E4FF0CA
:102EF00007082771C4F8060084F82470A4F848C0B5
:102F000084F854E084F81F800FCD0125C4F80E002A
:102F1000C4F81210CD20C4F81620D021C4F81A30FD
:102F200000230B4A84F8215084F8900084F8911013
:102F3000C4F89820A4F84630A36584F8923084F849
:102F40009330BDE8F08100BF40040020440400201D
:102F500078C204602DE9F0410446AAF0F9FA1C4B4E
:102F600002221C4D4FF0310C18684FF0030E1B79F4
:102F7000CF27C4F806002271A3720023A4F848C02A
:102F800084F854E084F89070A4F8463084F89130C6
:102F900084F8923084F8933084F83C31236707CD6D
:102FA000B5F800800525C4F80E000120C4F81620ED
:102FB000094AA4F81A80C4F81210C4F89820A5652C
:102FC000E57784F8210084F82400BDE8F08100BF93
:102FD000600400206804002078BC05602DE9F843F7
:102FE0000446AAF0B5FA224A0025224B02271068AF
:102FF0004FF0D00C92884FF0D90EC4F8060003268B
:10300000628140F27F184FF0CD09277184F8247057
:10301000A4F8488084F8909084F891C084F892E0F5
:1030200084F89C6084F85460A4F84650A56584F840
:10303000935007CBC4F816201A889B78C4F80E006A
:1030400004F19D0023770123C4F8121029466283FE
:103050005D22E37784F82130AAF052FB064B84F816
:10306000FB5084F8FC50C4F89830BDE8F88300BFEA
:103070007804002080040020783906602DE9F041B2
:103080000446AAF065FA304A0421304D0227106840
:10309000002612794FF09E08C4F806004FF0030C8A
:1030A00084F89D104FF0DA0EA272294B2771E77752
:1030B000DC2784F89C6084F8926084F89360A4F81C
:1030C000488084F854C084F890E084F8917007CD6B
:1030D000C4F80E000520C4F812100121C4F816200F
:1030E00003F61875A0650B221A48A4F8461084F858
:1030F000211084F8241001E013F81C2C511E1C33FD
:1031000012B1425C01324254AB42F5D1292240F265
:103110000D13114E4FF6FF75104801E092F8202074
:10312000591E26F812308BB2C3EBC302AB4200EB40
:103130004202F3D100230A4AC4F8843184F877317B
:10314000C4F89820BDE8F081900400209804002085
:1031500095720160D80A012084C7002058B6066025
:103160003CC506602DE9F0410546AAF0F1F9254A73
:103170000224254B40F28F1C10684FF0030812798F
:103180004FF0090EC5F80600D427AA72E0262C716C
:10319000EC7785F82440A5F848C085F8548085F878
:1031A00021E01A4C85F8917085F8926007CB1B7866
:1031B000C5F80E00CD20C5F812100021AB76C5F879
:1031C00016200C2285F89000114B1248A5F84610E5
:1031D00085F89C1085F89D10A96585F8931001E08D
:1031E00013F8182C511E183312B1425C01324254AC
:1031F000A342F5D10022084B85F85520C5F8983038
:10320000BDE8F081A4040020AC040020239F0160ED
:10321000F38C016008F000203C420760F8B50446DA
:10322000AAF096F91E4A02251E4BD7271068D82609
:103230009288C4F806006281257107CBC4F80E009D
:1032400004F13400C4F812101121C4F81620AAF0B9
:103250000BF9032200234FF0010ED9217F2084F8BF
:103260005420114AA36584F8933084F89C30A4F864
:103270004800182084F821E084F89210C4F88C20CB
:10328000E57784F8245084F8907084F89160AAF06F
:1032900073F9AAF091F9054BC4F89830F8BD00BF56
:1032A000BC040020C404002080C3C9013CBF0760E7
:1032B000F8B5154D04462868F8B14FF4077200219F
:1032C000AAF01EFA114841F288330021026807680B
:1032D000204602F5FA7225683B440D4E84F8A01092
:1032E00084F8A11022673360AB6C98470121094B29
:1032F000032284F86E101A70F8BD4FF40770AAF01C
:1033000053F92860D9E700BFD0F40020945B012076
:10331000DCC70020F1CD002010B5034C2068AAF0D6
:1033200093F90023236010BDD0F400200B290DD9A0
:10333000A1F117030A2B06D9A1F122031F2B08D8EC
:103340001E31C8B270470239C8B270470131C8B2E5
:1033500070470020704700BF70B505460C460AB99B
:1033600090F86E20012A34D0022A11D004EBC40355
:10337000194A202104EB4304A40004F11C032C345B
:103380001344224403F8011F9342FBD1012070BD76
:103390000A21114E4C23114A284603FB046383F88B
:1033A0003C102B68D3F8D43093420FD1FFF7BEFF07
:1033B00002464C232146284603FB046484F830204F
:1033C0002B68D3F8E4309847002070BD9847024638
:1033D000EFE70821DDE700BF8C6000202D3300609F
:1033E00010B584B00C460A2201466846AAF06CF972
:1033F00069462046AAF010F96846AAF031F904B0EF
:1034000010BD00BF542905D8012A18460BD0074922
:10341000AAF0A6B85C2903D918460549AAF0A0B8B5
:1034200019461046DCE70349AAF09AB8B003002019
:10343000142F0020F819002070B590F851308CB08E
:103440000E4615463BB30446502104A8AAF034F8B2
:10345000B4F84C100A226846AAF036F9694604A866
:10346000AAF04EF804460A22314608A8AAF02CF920
:1034700008A92046AAF044F801462846AAF0CCF84C
:1034800008A8AAF0EDF86846AAF0EAF804A8AAF09D
:1034900047F90CB070BD502104A8AAF00DF80A221B
:1034A000314608A8AAF010F908A904A8AAF028F83B
:1034B0000749AAF03DF901462846AAF0ADF808A848
:1034C000AAF0CEF804A8AAF02BF90CB070BD00BF8A
:1034D00070030020072930B5154689B005D9104979
:1034E0001046AAF03DF809B030BD0C4668460D49BB
:1034F000AAF052F80A22611C04A8AAF0E5F804A96F
:103500006846A9F0FDFF01462846AAF085F804A800
:10351000AAF0A6F86846AAF003F909B030BD00BFCA
:1035200064030020D0040020072930B5154689B077
:1035300005D910491046AAF013F809B030BD0C4661
:1035400068460D49AAF028F80A22611C04A8AAF0CE
:10355000BBF804A96846A9F0D3FF01462846AAF0A3
:103560005BF804A8AAF07CF86846AAF0D9F809B07C
:1035700030BD00BF64030020C003002030B590F8C8
:1035800051308DB014462BB30D460A22B0F84C10C2
:103590006846AAF099F8694608A8A9F09DFF0A2292
:1035A000294604A8AAF090F804A908A8A9F0A8FF41
:1035B0001449AAF0BDF801462046AAF02DF804A847
:1035C000AAF04EF808A8AAF0ABF86846AAF048F8A6
:1035D0000DB030BD0A2208A8AAF076F808A904A800
:1035E000A9F07AFF04A80849AAF0A2F801462046EB
:1035F000AAF012F804A8AAF093F808A8AAF030F8E4
:103600000DB030BD70030020D8040020052930B56E
:103610000C4689B0154618D9184904A8A9F0BCFF72
:103620000A22611F6846AAF04FF8694604A8A9F06B
:1036300067FF01462846A9F0EFFF6846AAF010F898
:1036400004A8AAF06DF809B030BD0D496846A9F08C
:10365000A3FF214604A8A9F04FFF04A96846A9F0DA
:103660004FFF01462846A9F0D7FF04A8A9F0F8FFAC
:103670006846AAF055F809B030BD00BFE404002048
:10368000DC04002030B589B005460C460B4904A87F
:10369000A9F082FF29466846A9F02EFF694604A8D2
:1036A000A9F02EFF01462046A9F0A2FF6846A9F026
:1036B000D7FF04A8AAF034F809B030BDF004002008
:1036C0004BB20846002B01DD1146DBE710460149ED
:1036D000A9F0DABE3C0300200F290B4608D95F2968
:1036E00003D910460549A9F0CFBE11461846C9E7CF
:1036F0000349104601EB0311A9F0C6BE3C030020AC
:1037000004BB01604B1E072B30B50C4689B0154633
:1037100029D909293FD00A2942D00B2945D00C29A3
:1037200048D0A1F10D03722B05D910462449A9F008
:10373000ABFE09B030BD23496846A9F02DFF2146F4
:1037400004A8A9F0D9FE04A96846A9F0D9FE01464B
:103750002846A9F04DFF04A8A9F082FF6846A9F009
:10376000DFFF09B030BD184904A8A9F015FF2146B4
:103770006846A9F0C1FE694604A8A9F0C1FE014649
:103780002846A9F035FF6846A9F06AFF04A8A9F009
:10379000C7FF09B030BD10460C49A9F075FEC8E757
:1037A00010460B49A9F070FEC3E710460949A9F07D
:1037B0006BFEBEE710460849A9F066FEB9E700BFF8
:1037C0003C030020F0040020F40400200005002049
:1037D0000C0500201C05002028050020154BA3FB2C
:1037E0000123DB0803EB8302DBB2A1EB420110B43F
:1037F00090F8AD40184489B290F8A620A4B1022AEE
:103800000FD802EB82020C480C4C01EB420154F839
:1038100023305DF8044B00EB810131F8640C18444F
:1038200070470532D2B2ECE702EB82020248044C48
:10383000EBE700BFCDCCCCCCA03C086080010020E1
:10384000484100200A7ACB79120470B402EB03627B
:103850004E7A8C7A02EB0623094D2344AB420AD000
:10386000084A934205D1CA7A002380F89D2080F847
:10387000573070BC7047CB7A70BC80F89C30704772
:10388000003000600038006030B490F852409DF87D
:1038900008501CB190F82240AC4201D030BC7047B7
:1038A00090F821409C42F9D1A1B10C4B9C3050249E
:1038B00003F23B1505E0AB4200F10100EED013F836
:1038C000154CA14203F11503F5D1141C18BF0124B6
:1038D0000470F0E780F85020E0E700BF9E810160AF
:1038E0000022036810B50446C0F8CC201B6D984731
:1038F000236820469B6C9847014B03221A7010BD29
:10390000F1CD002090F89C30C1EBC101D3B1244B24
:1039100003EB8101B1F88A3903F47042B2F5204F0C
:103920001AD020D8B2F5004F35D0B2F5104F27D1BC
:1039300090F875111B4A03F00F0332F81100184478
:1039400080B27047164B03EB8101B1F8883903F45C
:103950007042B2F5204FE4D190F87621012A14BFCD
:1039600007212921E6E7B2F5304F0CD0B2F5404FE0
:1039700006D190F87721012A14BF07212921D9E720
:103980004FF6FF70704790F878213AB1012A14BFC2
:1039900025212821CEE790F87311CBE70221C9E752
:1039A000D868016084C7002089291FD8F8B5CF00E6
:1039B0001D4E90F89D507A1A06EB820292F8A229C9
:1039C000AA4211D80C46FFF79DFF4FF6FF739842AD
:1039D0000ED0B0F5877F07D2144BC0EBC00003EBCD
:1039E000400090F82100F8BD0020F8BD002070478D
:1039F000022D03D9282C01D11A20F8BD182C07D08C
:103A0000472C05D03C1B06EB840696F88C09F8BDC4
:103A1000012D03D9022D03D12520F8BD2420F8BDA6
:103A2000032DEFD12720F8BDD868016058B6066095
:103A30000A7ACB79120470B402EB03624E7A8C7A64
:103A400002EB0623114D2344AB420FD0104A9342A0
:103A500007D0104A93420ED1CB7A80F89F3070BCC9
:103A60007047CB7A70BC80F89E307047CB7A70BCC0
:103A700080F89D307047084A9342F0D1CA7A0023FB
:103A800080F8A02080F8573070BC704703200018E1
:103A9000032100180A10001832020018094A92F88F
:103AA0002D20042A00D0704790F85620002AFAD121
:103AB00090F855100029F6D0016880F85520CB6B9E
:103AC000184700BFE4EB00200E4A43791278013317
:103AD0009A4201D00020704790F8AC30FF2B08D0FC
:103AE000094A4C2000FB01214A8ED108B1EB530F4B
:103AF00001D001207047B3EB920F0CBF01200020D2
:103B0000704700BF02CE00208C600020134A43792A
:103B1000127801339A4201D00020704790F8A62015
:103B2000FF2A19D00E480F4B10B54C2404FB01019D
:103B30000D48498EA0FB02E4A3FB01E35B08B3EB55
:103B4000540F01D0012010BDA0FB0131B2EB510F89
:103B50000CBF0120002010BD0120704702CE0020C4
:103B60008C600020398EE338ABAAAAAA0E4A4379AA
:103B7000127801339A4201D00020704790F89D30AE
:103B8000FF2B08D0094A4C2000FB01214A8ED108A6
:103B9000B1EB530F01D001207047B3EB920F0CBF74
:103BA00001200020704700BF02CE00208C60002062
:103BB0000E4A4379127801339A4201D000207047AF
:103BC00090F8AE30FF2B08D0094A4C2000FB0121B1
:103BD0004A8ED108B1EB530F01D001207047B3EBEF
:103BE000920F0CBF01200020704700BF02CE0020C2
:103BF0008C600020F0B590F851300F4691B005462A
:103C00001646B0F84C10002B39D02E4C0A2208A8CA
:103C1000A4FB0131C908A9F057FD08A90CA8A9F017
:103C20005BFCB5F84C100A2204A8A4FB0134E4089C
:103C300004EB8404A1EB440189B2A9F045FD04A979
:103C40000CA8A9F05DFC04460A2239466846A9F092
:103C50003BFD69462046A9F053FC01463046A9F0D9
:103C6000DBFC6846A9F0FCFC04A8A9F0F9FC0CA850
:103C7000A9F056FD08A8A9F0F3FC11B0F0BD0A2286
:103C800004A8A9F021FD04A90CA8A9F025FC0A228A
:103C9000394608A8A9F018FD08A90CA8A9F030FC1D
:103CA0000949A9F045FD01463046A9F0B5FC08A830
:103CB000A9F0D6FC0CA8A9F033FD04A8A9F0D0FC0B
:103CC00011B0F0BDCDCCCCCC7003002030B42F4A65
:103CD0001A2390F8AD4003FB012344BBB3F8EA3844
:103CE000512B36D0522B37D01D0403D5C3F30E030E
:103CF00043F4803303F180531A2505FB012191F829
:103D0000FD288AB102F00F0102F0F0020844102AE7
:103D100090F8A51026D0202A06D144BB042930D023
:103D2000052901D103F20123184630BC7047B3F8CE
:103D3000EC58512D0AD0522D11D02B0403D5C5F3C8
:103D40000E0545F48035124B2B44D5E7114830BCA5
:103D50007047114830BC7047104830BC704710485D
:103D600030BC70470129DFD103F20620EFE70429B8
:103D700004D00529D8D103F5FA70E8E703F1F20081
:103D8000E5E703F581731846CFE700BFD0790160FE
:103D9000000002103F1008003F1001002110010038
:103DA0002110080070B590F851308CB00E461546C1
:103DB00053B30446552108A8A9F07EFBB4F84C1073
:103DC0000A2204A8A9F080FC04A908A8A9F098FB7D
:103DD00004460A2231466846A9F076FC6946204628
:103DE000A9F08EFB1649A9F0A3FC01462846A9F0CC
:103DF00013FC6846A9F034FC04A8A9F031FC08A81B
:103E0000A9F08EFC0CB070BD552108A8A9F054FB98
:103E10000A22314604A8A9F057FC04A908A8A9F071
:103E20006FFB0849A9F084FC01462846A9F0F4FB81
:103E300004A8A9F015FC08A8A9F072FC0CB070BD8C
:103E4000900300208C0300204A7A0B7A120470B48D
:103E500002EB03628E7ACC7A02EB0623094D2344EF
:103E6000AB420AD0084A934205D10A7B002380F86E
:103E70009D2080F8573070BC70470B7B70BC80F879
:103E80009C30704700100020040800205C2920D8D6
:103E9000542938B513D915460C46811D1046A9F092
:103EA0005FFB20212846A9F003FC0A4BC4EBC401A8
:103EB000284603EB4101BDE83840A9F051BB054B52
:103EC000C1EBC101104603EB4101BDE83840A9F048
:103ED00047BB70471C3E086090F86D3003B97047CF
:103EE00030B50D4685B004462D212846A9F0E0FBEB
:103EF00094F86D106846A9F0FFFA69462846A9F0C3
:103F00008BFB6846A9F0ACFB05B030BD90F86D3076
:103F100003B9704730B50D4685B004462D212846BB
:103F2000A9F0C6FB94F86D106846A9F0E5FA694659
:103F30002846A9F071FB6846A9F092FB05B030BD98
:103F400090F8522080F8552002B970470268018D20
:103F5000536C184790F85130ABB1B0F84C3013B9EE
:103F600009B900207047B0F8482003EB8303B0F88C
:103F7000460001EB4301131A0133B3EB810FACBFD1
:103F8000012000207047B0F8483001EB8101B0F803
:103F900046209B1A0133B3EBC10FACBF01200020B8
:103FA000704700BF90F86E3093B10133DBB2032B42
:103FB00088BF012380F86E30036810B5D3F8F8305D
:103FC0000C4698470349044B01220C701A7010BD2F
:103FD000704700BFBC8D0020F1CD002090F851301B
:103FE00063B1B0F84C20B0F8463003EBC20008448F
:103FF00080B200B97047013880B27047B0F84C30D9
:10400000B0F8460003EB830301EB430100EBC10171
:1040100088B2704790F85130A3B1144AB0F84C30D0
:1040200092F83E20002A14BF0420082023B98842B9
:1040300034BF002001207047481E07288CBF002095
:1040400001207047B0F84C30B0F8482003EB8303F0
:1040500010B4B0F8464001EB4300131B5DF8044B6D
:10406000B3EBC00FACBF012000207047E4EB002091
:1040700090F851309BB1B0F84C3013B909B9002019
:104080007047B0F8482003EB8303B0F8460001EB1B
:104090004301101A8142CCBF00200120704730B488
:1040A000B0F84C506424B0F848300A22B0F846000A
:1040B00004FB05F412FB01411B1A994230BCCCBF32
:1040C00000200120704700BF03790022022B80F8F6
:1040D000532000D0704790F85230002BFAD10123C2
:1040E00080F8221080F89C30704700BF90F8513063
:1040F000A3B1B0F84C3013B909B900207047B0F83B
:10410000482003EB8303B0F8460001EB4301131A88
:10411000B3EB810FACBF012000207047B0F84830EE
:1041200001EB8101B0F846209B1AB3EBC10FACBF85
:1041300001200020704700BF90F8A12002B970470D
:104140000368D3F8843018470379022B01D008465E
:104150007047002300F19C02F0B41C4601E05D2B87
:104160000CD012F8015FDFB2661C0133002DF6D0CF
:10417000A142F4B2F3D1B8B2F0BC70474FF6FF7071
:10418000F0BC7047036810B5D3F8A83082B00F4C6C
:10419000A34214D15D20884206D810460C4902B0D3
:1041A000BDE81040A9F070B90A4BC1EBC10110463F
:1041B00003EB410102B0BDE81040A9F065B98DE8FC
:1041C000060098479DE80600E5E700BFA9120060D9
:1041D000142F00201C3E086003680B4AD3F8A83057
:1041E000934205D1082088428CBF022000207047EE
:1041F00000B583B001919847019988428CBF022095
:10420000002003B05DF804FBF1120060036810B5F4
:10421000D3F8A83082B00F4CA34215D12F2088428A
:1042200006D810460C4902B0BDE81040A9F02CB9E0
:104230000A4B01EB4101104603EBC101093102B009
:10424000BDE81040A9F020B98DE8060098479DE828
:104250000600E4E7F5120060142F0020D868016022
:10426000F0B504688BB03B4F1646D4F8A8501C46F6
:10427000BD422FD12F20884226D901EB410136487B
:1042800000EBC101898A0BB2002B4BDD47F61643C8
:10429000994223D047F6174399424CD047F615432D
:1042A000994221D08A192D4906A8013A02EBC2028F
:1042B0001144A9F03DF906A92046A9F0ADF906A8D8
:1042C000A9F0CEF90BB0F0BD20462549A9F048F978
:1042D0000BB0F0BD0191A8470199CCE771000A220B
:1042E00006A8A9F0F1F9E6E73F2E26D9402E2BD0FB
:1042F000EED91C4906A8A9F04FF9A6F132010A220D
:1043000002A8A9F0E1F902A906A8A9F0F9F8014666
:104310002046A9F081F902A8A9F0A2F906A8A9F0FF
:10432000FFF9D5E7012E20460CBF0F490F49A9F030
:1043300017F90BB0F0BD3146D1E70D4906A8A9F039
:104340002BF9C6F13201DAE720460A49A9F008F94B
:10435000BEE700BFF5120060D86801603443086012
:10436000142F002088130020F8190020B00300202B
:10437000AC030020C8250020036810B5D3F8A8308E
:1043800082B00F4CA34215D12E20884206D8104689
:104390000C4902B0BDE81040A9F076B80A4B01EB19
:1043A0004101104603EBC101093102B0BDE81040E4
:1043B000A9F06AB88DE8060098479DE80600E4E792
:1043C00079130060142F0020406D0160F0B504687F
:1043D0008BB0394F1646D4F8A8501C46BD4229D19F
:1043E0002E20884220D901EB4101344800EBC10165
:1043F000B1F87C140BB2002B49DD47F61543994206
:104400001CD03AD347F61743994236D831460A2290
:1044100006A8A9F059F906A92046A9F0FDF806A8B2
:10442000A9F01EF90BB0F0BD20462549A9F098F877
:104430000BB0F0BD0191A8470199D2E73F2E2FD9CB
:10444000402E34D0F4D91F4906A8A9F0A5F8A6F14A
:1044500032010A2202A8A9F037F902A906A8A9F098
:104460004FF801462046A9F0D7F802A8A9F0F8F8BD
:1044700006A8A9F055F90BB0F0BD8A19124906A893
:10448000013A02EBC2021144A9F052F8C3E7012E2F
:1044900020460CBF0D490E49A9F062F80BB0F0BDE3
:1044A0000C4906A8A9F078F8C6F13201D1E72046F8
:1044B0000949A9F055F8BBE779130060D868016095
:1044C000142F002088130020B8490860F819002034
:1044D000B0030020AC030020C8250020036810B5FD
:1044E000D3F8A8300C460F4982B08B4215D110206A
:1044F000A04206D810460C4902B0BDE81040A8F012
:10450000C3BF04EB44030949104604EB8304214470
:1045100002B0BDE81040A8F0B7BF01929847019AD9
:10452000E6E700BFD9150060142F002090710160EC
:1045300030B5046885B00E4DD4F8A840AC4210D117
:104540001020884206D818460A4905B0BDE8304018
:10455000A9F006B81946104605B0BDE83040FEF790
:104560003FBF039302920191A04701A90EC9E8E75A
:10457000D91500605C050020036810B5D3F8A83099
:1045800082B00E4CA34212D11420884206D81046A5
:104590000B4902B0BDE81040A8F076BF094B1046A9
:1045A00003EB011102B0BDE81040A8F06DBF8DE82B
:1045B000060098479DE80600E7E700BFB5140060D5
:1045C000142F00204C9F016030B5046885B00E4D5B
:1045D000D4F8A840AC4210D11420884206D818461E
:1045E0000A4905B0BDE83040A8F0BABF19461046E8
:1045F00005B0BDE83040FEF7F3BE0393029201918F
:10460000A04701A90EC9E8E7B51400605C050020C9
:10461000F8B503680646454D0C46D3F8A830174652
:10462000AB425CD18A20A04246D9892C59D8214678
:104630003046FFF767F94FF6FF730546984250D0B2
:1046400096F89C30C4EBC4042BB3394B03EB8404C1
:10465000B4F88A3903F47043B3F5204F25D031D82C
:10466000B3F5004F50D0B3F5104F5BD13149384608
:10467000A8F00AFF96F87521C5EBC5052E496D0017
:104680004B1993F82030934245D038462B49BDE86A
:10469000F840A8F065BF264B03EB8404B4F88839D2
:1046A00003F47043B3F5204FD9D196F87631012B3E
:1046B00014BF07222922DFE738462149BDE8F84028
:1046C000A8F0E2BEB3F5304F16D0B3F5404F29D174
:1046D00096F87731012B14BF07222922CCE798479F
:1046E000A1E7C4EBC404174B384603EB8401BDE8D3
:1046F000F8400531A8F0C8BE96F87831A3B1012B77
:104700000CBF28222522B7E70F493846A8F0BCFE87
:1047100096F87321B0E7294438462231BDE8F840C5
:10472000A8F01EBF0022A7E70222A5E771150060CE
:10473000D8680160CC03002058B6066064030020EE
:10474000142F00206072016060050020F0B515464E
:104750000268DFF8B8E21E46D2F8A83089B00746F2
:104760000C4673452CD18A20A04223D9892C29D804
:1047700038462146FFF7C6F84FF6FF73984221D01E
:10478000904BC0EBC00003EB4000828D13B2002BB6
:1047900022DD8D4B1344092B00F2E980DFE813F092
:1047A00033005400AC007C00810056006B00C30055
:1047B000E200250030468549A8F0D2FE09B0F0BDE0
:1047C0009847D1E7824BC4EBC40403EB8404B4F8EC
:1047D0009E2913B2002BDCDC012D30460CBF7D4935
:1047E0007D49A8F0BDFE09B0F0BD29460A2204A803
:1047F000A8F06AFF04A93046A8F00EFF04A8A8F0AC
:104800002FFF09B0F0BD182D00F2C780B5F11801D7
:104810004FF00A0204A848BFA5F117014910A8F0FB
:1048200053FF04A93046A8F0F7FE04A8A8F018FF2B
:10483000EB07304654BF69496949A8F091FE3046FC
:104840006849A8F08DFEB9E7691CCFE7142D00F286
:10485000A9800A22A5F1140104A8A8F035FF04A933
:104860003046A8F0D9FE04A8A8F0FAFE30465D490B
:10487000A8F076FEA2E729460A2204A8A8F024FFA1
:1048800004A93046A8F0C8FE04A8A8F0E9FE304606
:104890005549A8F065FE91E7182D79D8A5F11801C2
:1048A000A4E70135514C0A2204A8ADB2A4FB05349B
:1048B000E408214604EB8404A8F006FF04A930466E
:1048C000A8F0AAFE04A8A8F0CBFE49493046A8F0FB
:1048D00047FE0A22A5EB440104A889B2A8F0F4FE21
:1048E00004A93046A8F098FE04A8A8F0B9FE304606
:1048F0004049A8F035FE61E70A22690804A805F0DE
:104900000105A8F0E1FE04A93046A8F085FE04A840
:10491000A8F0A6FE36493046A8F022FE04A8A90059
:104920000A222944AAE73F2D2BD9402D44D07FF6F7
:1049300045AF314904A8A8F02FFEA5F132010A22A3
:104940006846A8F0C1FE694604A8A8F0D9FD014652
:104950003046A8F061FE6846A8F082FE04A8A8F0E0
:10496000DFFE2BE7322D22D8A5F132013EE72A44A3
:10497000224904A8013A02EBC2021144A8F0D8FD72
:1049800038E71F4904A8A8F007FEC5F13201D6E7B1
:104990001C493046A8F0E4FD80E71A493046A8F0EB
:1049A000DFFD33E717493046A8F0DAFD51E7154936
:1049B0003046A8F0D5FDD7E730461349A8F0D0FD22
:1049C000FCE600BF58B60660F283FFFF142F0020FC
:1049D000D8680160F8190020B00300207405002099
:1049E000780500207005002068050020CDCCCCCCD7
:1049F000BC0700207C05002088130020C44F0860FD
:104A0000AC0300206C050020C82500207115006053
:104A1000036810B5D3F8A8300C460F4982B08B421A
:104A200015D11020A04206D810460C4902B0BDE8AE
:104A30001040A8F029BD04EB440309491046C4EB1B
:104A4000C304214402B0BDE81040A8F01DBD01928E
:104A50009847019AE6E700BFD9150060142F00209F
:104A60008CA00160F8B5A1F10E05012D1DD91D46E0
:104A700003681746114AD3F8A8300C4693421AD15E
:104A800010208442284606D2012F09D00C49BDE8E7
:104A9000F840A8F065BD0B49BDE8F840A8F060BD3E
:104AA0000949BDE8F840A8F05BBD19461046BDE8CD
:104AB000F840FEF795BC9847E3E700BFD9150060C2
:104AC000800500205C050020F8190020036810B55F
:104AD000D3F8A83082B00F4CA34214D109208842E9
:104AE00006D810460C4902B0BDE81040A8F0CCBC76
:104AF0000A4B01EB8101104603EB410102B0BDE816
:104B00001040A8F0C1BC8DE8060098479DE806005B
:104B1000E5E700BF95160060142F0020FCA101609E
:104B200030B5046885B00E4DD4F8A840AC4210D121
:104B30000920884206D818460A4905B0BDE8304029
:104B4000A8F00EBD1946104605B0BDE83040FEF78E
:104B500047BC039302920191A04701A90EC9E8E75F
:104B6000951600605C050020036810B5D3F8A830E6
:104B700082B00F4CA34215D10F20884206D81046B0
:104B80000C4902B0BDE81040A8F07EBC01EB410129
:104B9000094B1046C1EBC101194402B0BDE81040F9
:104BA000A8F072BC8DE8060098479DE80600E4E78F
:104BB000A5160060142F00207881016030B50468CC
:104BC00085B00E4DD4F8A840AC4210D10F208842D9
:104BD00006D818460A4905B0BDE83040A8F0C0BC68
:104BE0001946104605B0BDE83040FEF7F9BB039307
:104BF00002920191A04701A90EC9E8E7A51600603D
:104C00005C050020A1F10E02012A01D88020704726
:104C10000368074AD3F8A830934210B50C4605D173
:104C20001020844234BF0220002010BD9847F8E7CE
:104C3000D9150060A1F10C03032B01D88020704727
:104C40000368074AD3F8A830934210B50C4605D143
:104C50001420844234BF0220002010BD9847F8E79A
:104C6000B5140060036810B5D3F8A83082B00F4CBB
:104C7000A34215D1B020884206D810460C4902B094
:104C8000BDE81040A8F000BC0A4B01EB4101104602
:104C900003EBC101033102B0BDE81040A8F0F4BB42
:104CA0008DE8060098479DE80600E4E7D517006008
:104CB000142F0020C48C0160F0B504688BB03B4F0A
:104CC0001646D4F8A8401D46BC422FD1B0208842D9
:104CD00026D901EB4101364800EBC101B1F81012B1
:104CE0000BB2002B4ADD47F61643994222D047F615
:104CF000174399424BD047F61543994220D031448F
:104D00002C4B06A8013903EBC101A8F011FC06A940
:104D10002846A8F081FC06A8A8F0A2FC0BB0F0BDC4
:104D200028462549A8F01CFC0BB0F0BD0191A04716
:104D30000199CCE771000A2206A8A8F0C5FCE6E7B5
:104D4000312E26D9322E2BD0EED91C4906A8A8F038
:104D500023FCA6F132010A2202A8A8F0B5FC02A9A0
:104D600006A8A8F0CDFB01462846A8F055FC02A8ED
:104D7000A8F076FC06A8A8F0D3FCD5E7012E2846BB
:104D80000CBF0F490F49A8F0EBFB0BB0F0BD31464B
:104D9000D1E70D4906A8A8F0FFFBC6F13201DAE71A
:104DA00028460A49A8F0DCFBBEE700BFD517006023
:104DB000C88A0160345B0860142F0020881300202B
:104DC000F8190020B0030020AC030020C825002003
:104DD00003680B4AD3F8A830934205D106208842D5
:104DE0008CBF02200020704700B583B00191984726
:104DF000019988428CBF0220002003B05DF804FBBB
:104E000095180060036830B5D3F8A8300C461649F1
:104E100089B015468B4224D10620A04205D81349FB
:104E20002846A8F031FB09B030BD11496846A8F00A
:104E3000B3FB0A22611C04A8A8F046FC04A968463A
:104E4000A8F05EFB0B49A8F073FC01462846A8F0C9
:104E5000CFFB04A8A8F004FC6846A8F061FC09B0E8
:104E600030BD9847D9E700BF95180060142F002087
:104E7000880500208C05002003680B4AD3F8A83071
:104E8000934205D1062088428CBF02200020704743
:104E900000B583B001919847019988428CBF0220E8
:104EA000002003B05DF804FB9518006030B504687D
:104EB00085B00F4DD4F8A840AC4212D106208842EC
:104EC000184608D9012A0CBF0A490B4905B0BDE8AC
:104ED0003040A8F045BB094905B0BDE83040A8F016
:104EE0003FBB039302920191A04701A90EC9E6E7D7
:104EF00095180060F8190020B0030020142F00203E
:104F0000036810B5D3F8A8300C460E4982B08B4226
:104F100014D16320A04206D810460B4902B0BDE868
:104F20001040A8F0B1BA094B1A21104601FB043118
:104F30000B3102B0BDE81040A8F0A6BA0192984724
:104F4000019AE7E765170060142F0020B482016022
:104F5000028D8A4208B503460AD001205A85198578
:104F600083F83D0101230649064A0B70137008BD02
:104F70000368054AD3F884309342F3D09847F1E7A9
:104F8000284E0020988C00209503000090F8A9304E
:104F900090F8A8101BB111B11846A8F085BB704756
:104FA000F0B58DB00C460746244968461546A8F072
:104FB000F3FA0A22611E04A8A8F086FB04A9684639
:104FC0000B3CA8F09DFA1E49A8F0B2FB0646294604
:104FD00008A8A8F091FA08A93046A8F091FA01466D
:104FE0001848A8F011FB1748A8F03EFB08A8A8F045
:104FF00037FB04A8A8F034FB6846A8F091FB052C09
:1050000006D8DFE804F0070B0F13170387F86D5479
:105010000DB0F0BD87F868540DB0F0BD87F86B5443
:105020000DB0F0BD87F869540DB0F0BD87F86C5431
:105030000DB0F0BD87F86A540DB0F0BD3007002008
:1050400090290020B0560020B34BC1EBC10103EB07
:105050008101F0B591F8A22991B090F89D309A4263
:1050600042D890F89C20C2B1B1F88A4904F470414A
:10507000B1F5104F00F0218140F29D80B1F5304F25
:1050800000F0A880B1F5404F00F0C980B1F5204F85
:1050900000F0BE8004F1C04427E0B1F8884904F470
:1050A0007041B1F5104F00F0CC8021D9B1F5304FEF
:1050B00000F09080B1F5404F00F00A81B1F5204F2B
:1050C000E8D1964D964990F87621002A00F0A38009
:1050D000022B8CBF00230123002B40F09C80012A6F
:1050E00000F00E811C4600E00024204611B0F0BD07
:1050F000B1F5E04F00F08380B1F5004FCAD190F8D0
:1051000073518848E9004318B3F84C55014404F042
:105110000F0491F852359C42E6DA2C44A4B22106E1
:1051200004D547F67F73234003F58074002A40F0CE
:10513000D480B4F5127F00F0E780264604F1C04425
:1051400079496846A8F028FA0A22314604A8A8F04E
:10515000BBFA04A96846A8F0D3F97449A8F0E8FAA4
:1051600007460A22294608A8A8F0AEFA08A9384638
:10517000A8F0C6F96E49A8F0DBFA05460A223146C6
:105180000CA8A8F0A1FA0CA92846A8F0B9F9014684
:105190006848A8F039FA6748A8F066FA0CA8A8F0A1
:1051A0005FFA08A8A8F05CFA04A8A8F059FA6846C3
:1051B000A8F0B6FA99E7B1F5E04F20D0B1F5004F6D
:1051C0007FF468AF90F873515648E9004318B3F87C
:1051D00050559BE790F8783104F00F04514903EBE8
:1051E000430301EB430393F8A0168C42BFF67CAF58
:1051F00042B1B3F89E3603F1C0431C4475E7C4F3D3
:105200000B0472E7B3F89C3603F1C0431C446CE70F
:10521000494D4A4957E704F00F040C4465E71E2640
:105220001325022B90F8771107D9B1FA81F25209B0
:105230001AB9012960D0144657E704F00F042C4432
:1052400053E790F875113748CB00C118B1F84E15E7
:10525000184404F07F0490F852359C42BFF644AFE6
:10526000214489B20B0604D547F67F730B4003F542
:105270008071002A39D140F25443994248D00D46FA
:1052800001F1C0442E4908A8A8F086F90A2229464F
:105290000CA8A8F019FA0CA908A8A8F031F9014641
:1052A0002448A8F0B1F92348A8F0DEF90CA8A8F02A
:1052B000D7F908A8A8F034FA17E790F8751119483B
:1052C000CB00C118B1F8501501F5007189B2BFE7E4
:1052D0004FF4886640F23345A3E7B4F5AE7F7FF420
:1052E0002CAF184C40F271562AE7B1F5577FC6D162
:1052F000144C40F27155C5E704F00F039C19F4E615
:1053000004F00F035C19F0E60F4C4FF4E36617E767
:105310000D4C4FF4E365B5E7D868016031010060DA
:1053200005110060905E08605C0700206C0500209D
:1053300074070020B05600204D000060420000605D
:105340007807002071050060180700608929F8B50A
:105350000C461746064618D9C4EBC404174996F8FC
:105360009D30A4000A1992F8A2299A4207D8214434
:10537000384601F68D11BDE8F840A8F0F1B838467E
:105380000F49BDE8F840A8F0EBB8FEF7BBFA4FF6BE
:10539000FF7305469842DFD0E1B23046FFF754FE76
:1053A0000028ECD0C5EBC5050649384601EB4501A0
:1053B000BDE8F8400231A8F0D3B800BFD86801605A
:1053C0006403002078B606602DE9F0431D4D95B0CA
:1053D00081468846EC46DFF878E005AE1A4F0AAC05
:1053E0000FCDACE80F002B68184D8CF80030BEE8EC
:1053F0000F000FC60FCFDEF800E03F6886F800E030
:105400000FC427700FAC0FCD99F86E602D68012E78
:105410000FC425700BD0022E0ED0032E40460CBFB9
:105420000FA96946A8F0E0F815B0BDE8F08305A91A
:105430004046A8F0D9F8F7E70AA94046A8F0D4F802
:10544000F2E700BF4C08002060080020740800202C
:10545000880800202DE9F0431C4D95B08146884610
:10546000EC46DFF874E005AE194F0AAC0FCDACE89E
:105470000F002B68174D8CF80030BEE80F000FC6E8
:105480000FCFDEF800E03F6886F800E00FC4277019
:105490000FAC0FCD99F86E602D68012E0FC42570EA
:1054A0000AD0022E0DD08CBF0FA969464046A8F045
:1054B0009BF815B0BDE8F08305A94046A8F094F824
:1054C000F7E70AA94046A8F08FF8F2E79C08002009
:1054D000B0080020C4080020D808002070B5054698
:1054E00084B00E4622B3543215484C230021D4B266
:1054F00003FB060368465C86C4EBC404A8F018F8F6
:10550000A91D6846A7F0C0FF68462021A8F0D0F882
:105510000C49684601EB4401A8F022F86946304680
:10552000A7F09EFF6846A8F09BF8012004B070BD6C
:1055300090F86E20002AD6D1012004B070BD00BFC3
:105540008C6000201C3E086070B588B006460C4692
:105550001E4968461546A7F0EBFF1D494C23022063
:10556000A5F10E0203FB0413012AD871F07F83F822
:105570002E0009D920466946A7F072FF6846A8F0B8
:105580006FF8012008B070BD0E2D1AD096F86D206E
:1055900083F842204C230A2204A803FB04114B7A0F
:1055A000042B0CBF91F8421091F844100131A8F07F
:1055B0008BF804A96846A8F02FF804A8A8F050F8C2
:1055C000D8E796F86C2083F84220E3E72803002010
:1055D0008C600020174B70B51E6884B0B6B102EB2A
:1055E00042030C4615466846C3EB03113144A7F04D
:1055F0009FFF0B2D05D96846A8F032F8012004B0B2
:1056000070BD20466946A7F02BFFF4E701EBC1030C
:10561000094A202001EB4301890001F11C032C31D0
:1056200013440A4403F8010F9342FBD1012004B054
:1056300070BD00BFD0F400208C600020F0B585B0B4
:10564000064614460D4668462649A7F071FF3019F4
:1056500090F89C304BBBB4FA84F1490929BB4C2229
:10566000214E224B02FB0566A200F17186F82E1036
:10567000144403EB440494F8441661B190F89C2060
:105680004B1E1B496846134403EB830203EB4203A2
:105690001944A7F065FF28466946A7F0E1FE684671
:1056A000A7F0DEFF012005B0F0BD90F8A5300E4F49
:1056B0008BB14C23012203FB0573DA71A2000B4B63
:1056C0004C21161901FB057103EB460696F8456659
:1056D00081F82E60CCE74C23022203FB0573DA71BC
:1056E000ECE700BF280300208C600020C09B016015
:1056F0004065086070B50646154684B00C463544D2
:1057000011496846A7F014FF95F89C30ABB10F4BD8
:105710004C22012102FB0432D1714C25F27F20463C
:10572000694605FB043484F82E20A7F099FE6846EC
:10573000A7F096FF012004B070BD044B4C2202215B
:1057400002FB0432D171E8E7280300208C600020BE
:105750002DE9F04FDFF8FC8291B0D8F80030002B33
:1057600000F0FD8015460E460746B1490CA8A7F08B
:1057700013FF0A22294608A8A7F0A6FF08A90CA82B
:10578000A7F0BEFE0146AB48A7F03EFFA948A7F030
:105790006BFF08A8A7F064FF0CA8A7F0C1FF68463C
:1057A000A549A7F0C5FE0B2D00F2DD80DFF8AC9215
:1057B0004C210220D8F8002001FB069100249F4BC9
:1057C000C8712146388D00EB4000C0EB0010024448
:1057D0002A44507D92F821E006E001341333712C05
:1057E00000F0838013F8131C88425FFA84FAF4D126
:1057F00013F8122C7245F0D191490CA8A7F0CCFEF9
:10580000514608A8A7F078FE08A90CA8A7F078FED2
:1058100001468848A7F0F8FE8648A7F025FF08A8AB
:10582000A7F01EFF0CA8A7F07BFFBAF1000F75D000
:1058300004EBC4038349684604EB43042144A7F006
:105840008FFE3C8D804A08A804EB44047F49A2FBEC
:105850000532D8F80030C4EB04145208234402EB9C
:10586000420E1A44CEEB050492F811A0A7F094FE64
:10587000013404A85146A7F03FFE04A908A8E4B2E9
:10588000A7F03EFE7249A7F053FF834621460CA8BD
:10589000A7F032FE0CA95846A7F032FE0146654833
:1058A000A7F0B2FE6348A7F0DFFE0CA8A7F0D8FE71
:1058B00004A8A7F0D5FE08A8A7F032FFA24500F083
:1058C000B1803B8DD8F8002003EB4303C3EB0313F7
:1058D00013441D446B7D023B072B00F29C80DFE8E4
:1058E00003F0857E938C9A9A9A7E55490CA8A7F06E
:1058F00053FE002108A8A7F0FFFD08A90CA8A7F0F7
:10590000FFFD01464B48A7F07FFE4A48A7F0ACFEDA
:1059100008A8A7F0A5FE0CA8A7F002FF3B8DD8F8B9
:10592000002003EB43034B4CC3EB031313442B4402
:1059300093F8212012B197F8522022BB46496846BD
:10594000A7F0A2FD4C23002203FB069989F82E2024
:1059500030466946A7F084FD6846A7F081FE012025
:1059600011B0BDE8F08F3D494C23FA7F3D4403FB65
:10597000061383F82E2095F8902012B10122DA71D7
:10598000E6E7DA71E4E7597D04A8A7F0B5FD04A9BC
:1059900008A8A7F0A1FD324908A8A7F0C9FE3B8DD1
:1059A0002268804603EB43030CA8C3EB03131344A4
:1059B0001D4495F82110A7F09FFD0CA94046A7F0C3
:1059C0009FFD01466846A7F027FE0CA8A7F048FEF9
:1059D00008A8A7F0A5FE04A8A7F042FEB2E74C2352
:1059E000EA2203FB069989F82E20B1E74C23E9222D
:1059F00003FB069989F82E20AAE74C23EC2203FB2F
:105A0000069989F82E20A3E74C23E82203FB069988
:105A100089F82E209CE74C23ED2203FB069989F898
:105A20002E2095E74C23012203FB0693DA7148E709
:105A3000EC080020B05600202803002013A60160C7
:105A40000C09002002A60160ABAAAAAA180900202E
:105A500024090020D0F40020640300208C60002082
:105A6000542700202DE9F04F8BB09A4604460F468C
:105A70009DF8509002A888491546B9FA89F676092A
:105A8000A7F056FDBAF1000F1ED1EEB1002D40F087
:105A9000FC80172304F2444204F24C40E118013325
:105AA00091F87413DBB202F8011F8242F6D104F2BE
:105AB000454106A8A7F03CFD06A8102202A9A7F0C0
:105AC0009FFD06A8A7F0CCFD1AF1000B18BF4FF000
:105AD000010B002E4BD0BBF1000F48D0002D40F041
:105AE000CE80172304F2444804F24C404246E118A9
:105AF000013391F87413DBB202F8011F8242F6D130
:105B000004F2454306AE194630460193A7F010FD56
:105B1000082230460DEB0201A7F072FD3046A7F0D7
:105B20009FFD202102A8A7F0C3FD0AF1FF32019BCF
:105B300002EB4201C2EBC101C9B201F117021F31F0
:105B4000D2B2C9B2A0180132D2B290F87403914215
:105B500008F8010FF6D119463046A7F0E9FC3046A7
:105B6000072202A9A7F04CFD3046A7F079FDB9F154
:105B7000000F73D0BBF1000F70D0002D79D1172327
:105B800004F2444504F24C402A46E118013391F8EE
:105B90007413DBB202F8011F9042F6D106AE04F294
:105BA00045480AF1FF3A41463046A7F0C1FC0522BC
:105BB00002A93046A7F024FD3046A7F051FD202170
:105BC00002A8A7F075FD29460AEB4A02CAEBC20AF1
:105BD0005FFA8AFA0AF117030AF11F0ADBB25FFAC9
:105BE0008AF2E0180133DBB290F874039A4201F8AC
:105BF000010FF6D141463046A7F09AFC052202A9D2
:105C00003046A7F0FDFC09F1FF393046A7F028FD2A
:105C1000202102A8A7F04CFD09EB4902C9EBC209FB
:105C20005FFA89F909F1170309F11F09DBB25FFA7D
:105C300089F2E1180133DBB291F87413934205F84D
:105C4000011FF6D141463046A7F072FC30460422CF
:105C500002A9A7F0D5FC3046A7F002FD384602A9FC
:105C6000A7F0FEFB02A8A7F0FBFC01200BB0BDE8EB
:105C7000F08F05EB4503C5EBC303DBB280E705EB13
:105C80004503C5EBC303DBB22CE705EB4503C5EBCE
:105C9000C303DBB2FEE600BF28030020114A4C23F9
:105CA00003FB012393F83230013BD8B20A2812D902
:105CB00001EBC10001EB4001890001F11C032C3113
:105CC00010B4134420240A4403F8014F9342FBD13B
:105CD0005DF8044B704703EB0313034A0846D118E1
:105CE000A7F02ABD8C6000209C680860F0B585B0E4
:105CF000144606460D4668467949A7F019FC0CB9CA
:105D000096F86E40013C052C00F29D80DFE804F01F
:105D100042545658630396F87521724FBB1893F896
:105D2000C83A002B00F0AC806F49684631F8124049
:105D30006E49013C23449CB2A7F0A6FB96F874314F
:105D4000002B00F0BC80C4EBC4046949684601EB39
:105D500044010231A7F004FC96F874311BB92921E3
:105D60006846A7F0A5FC69462846A7F079FB96F897
:105D700075114C235F4A07EB4107012403FB0525FE
:105D800097F8F53A85F82E306846A7F069FC20466A
:105D900005B0F0BD58492846A7F0CEFC55494C2324
:105DA000F27F012403FB0515684685F82E20A7F035
:105DB00057FC204605B0F0BD5049ECE75049EAE7F2
:105DC00096F87831002B73D0012B00F08280022BE3
:105DD000E4D14C49DFE796F87321424FBB1893F8A2
:105DE000C83A002B60D04049684631F81240464915
:105DF000013C23449CB2A7F047FB96F87231002B7C
:105E000062D0C4EBC4043A49684601EB4401023154
:105E1000A7F0A6FB96F872311BB929216846A7F0B6
:105E200047FC69462846A7F01BFB96F873214C23D4
:105E3000304907EB4207012403FB051597F8F53AB3
:105E400085F82E30A0E705EBC5022A48202105EB96
:105E50004202920002F11C032C320344024403F874
:105E6000011F9342FBD14C220023012402FB0505B4
:105E7000684685F82E30A7F0F3FB204605B0F0BD4C
:105E80001C4A4C23462003FB05233468024629465E
:105E9000D4F8A44058863046A04704466846A7F088
:105EA000DFFB204605B0F0BD124A4C231720EAE77D
:105EB00016492846A7F040FC96F8783184E7282157
:105EC0006846A7F0F5FB3EE728216846A7F0F0FBFF
:105ED00097E70F492846A7F02FFC96F8783176E728
:105EE00028030020905E086084C70020CC030020B7
:105EF00078B606608C6000204C090020580900200C
:105F0000157F01607C0900206005002064090020E5
:105F100070090020114A4C2303FB012393F832300F
:105F2000013BD8B20B2812D901EBC10001EB4001B3
:105F3000890001F11C032C3110B4134420240A44BD
:105F400003F8014F9342FBD15DF8044B704703EB1C
:105F50000313034A0846D118A7F0EEBB8C6000205B
:105F6000D8690860F8B590F89C300D46934202F16C
:105F70004C0226D900EB4203134EDB8813F0010FCD
:105F80004FF04C0314BF0121022103FB0563D971BB
:105F900000EB42020D4F2846D38807F64C71C3F33D
:105FA000470404EBC404640021443C44A7F0C4FB50
:105FB0004C2294F85D3F012002FB056585F82E30E8
:105FC000F8BD014EE4E700BF8C600020B8AC016072
:105FD000F8B590F89C300D46934202F14C0226D958
:105FE00000EB4203134EDB8813F0010F4FF04C031C
:105FF00014BF0121022103FB0563D97100EB4202AA
:106000000D4F2846D388C3F3470404EB8404A4004F
:1060100039193C4401F2C661A7F08EFB4C2294F87A
:10602000D736012002FB056585F82E30F8BD014EFC
:10603000E4E700BF8C600020B0BD0160F0B589B01E
:10604000144607460D4668460021A7F071FA5C2CFD
:1060500020D8542C34D82744234E4C233E2C97F878
:106060009D2003FB0563DA711AD997F89D30284605
:10607000012B0CBF1D491E49A7F05EFBC4EBC404F5
:106080001C4A4C2302EB440403FB056594F8893158
:1060900085F82E306846A7F0E3FA012009B0F0BD7C
:1060A00005EBC502202105EB4202920002F11C0320
:1060B0002C323344324403F8011F9342FBD1DDE715
:1060C00027440D4904A8084EA7F032FA04A997F80E
:1060D0009D00A7F059FA284604A9A7F0C1F904A821
:1060E000A7F0BEFACAE700BF8C600020D80A0020E3
:1060F000E00A0020A03C08602803002030B585B0ED
:106100000D46044609496846A7F012FA6946284632
:10611000A7F03AFA69462046A7F0A2F9044B684670
:106120001C70A7F09DFA05B030BD00BF2803002009
:10613000BC8D002090F8522012B1D0F8843003B901
:106140007047A7F095B900BF90F85220A2B1D0F8DF
:10615000CC3010B504461BB9D4F884303BB910BD1F
:10616000064A12689342F7D2FDF7BAFBF4E72046DD
:10617000BDE81040A7F07CB9704700BF945B0120D8
:10618000F0B5044680F89C10102921D8DFE801F012
:1061900021282048205E718A9B20A22020202020D8
:1061A0000900524A0027524B40F2FF161068C4F80B
:1061B0000600A4F84670A4F8486007CBC4F80E00A7
:1061C00018889B78C4F81210C4F8162060832377CF
:1061D000F0BD484A0027484B40F27F161068E6E7BA
:1061E000464B4FF0000E464D40F27F1718681B7962
:1061F000C4F80600A372A4F846E0A4F848700FCDD6
:1062000095F800C00125C4F80E0084F81EC0C4F83B
:106210001210C4F81620C4F81A3084F87B50F0BD70
:10622000384A0027384B40F27F161068A4F84670B1
:10623000C4F80600A4F8486007CB1B78C4F80E0029
:10624000A376C4F81210C4F81620F0BD2F4A002718
:106250002F4B7F261068C4F80600A4F84670A4F8F7
:10626000486007CBC4F80E00C4F81210C4F816201A
:10627000F0BD284B4FF0000E274D40F2FF27186865
:106280009B88C4F8060063810FCDC4F80E00C4F8E3
:106290001210C4F81620C4F81A30A4F846E0A4F886
:1062A0004870F0BD1D4B4FF0000E1D4D40F2FF2712
:1062B00018681B79C4F80600A3720FCD2D78C4F8B6
:1062C0000E00A577E3E7174A0027174B40F2FF16A9
:1062D0001068C0E7154A0027154B40F2FF161068FA
:1062E0009288C4F80600628163E700BF981000201E
:1062F0009C100020F00F0020F40F0020041000205C
:106300000C10002020100020241000203C10002041
:1063100034100020401000204810002058100020A9
:10632000601000207C1000207410002080100020DD
:106330008810002062B10023184630B45D1CCC5C8C
:10634000EBB260409342F9D300F07F0030BC70475D
:10635000104670479D305D220021A7F0D1B900BFE3
:1063600024290AD92539C9B25C2906D8002A014452
:106370000CBF0223012381F89D30704710B44C23D9
:10638000074C03FB01435B8E553B9BB2072B02D9A5
:106390005DF8044B704708465DF8044B1146ADE6C6
:1063A0008C60002090F857300BB1FDF74DBD704761
:1063B000F0B54C231C4C85B003FB01435E8EFF2ED1
:1063C0002FD01A4B06EB460503EBC503B3F9143087
:1063D000002B26DD01EBC105202701EB4505AD00B3
:1063E00005F11C032C3523442C4403F8017FA34200
:1063F000FBD105460C4668460D491746A7F098F8AC
:10640000286831466B463A46D0F898602846B0472F
:1064100020466946A7F024F8064B68461C70A7F092
:106420001FF905B0F0BD00BF8C600020D868016086
:1064300028030020BC8D002070B400234C250F4E93
:1064400018460F4C05FB01614FF4B37505E02F2B87
:1064500004F1180410D034F8185CAA429EB203F17B
:106460000103F4D154F8145C2F2B4FF001004E8639
:106470008D6304F11804EED170BC70478C6000206D
:10648000F068016090F857300BB1FDF7D1BA704752
:10649000F0B54C231C4C85B003FB01435E8EFF2EF0
:1064A0002FD01A4B06EB460503EBC503B3F97C343A
:1064B000002B26DD01EBC105202701EB4505AD00D2
:1064C00005F11C032C3523442C4403F8017FA3421F
:1064D000FBD105460C4668460D491746A7F028F83B
:1064E000286831466B463A46D0F898602846B0474F
:1064F00020466946A6F0B4FF064B68461C70A7F01C
:10650000AFF805B0F0BD00BF8C600020D868016016
:1065100028030020BC8D002070B400234C250F4EB2
:1065200018460F4C05FB016140F22B1505E02E2BA0
:1065300004F1180410D034F8185CAA429EB203F19A
:106540000103F4D154F8145C2E2B4FF001004E8659
:106550008D6304F11804EED170BC70478C6000208C
:10656000586D016070B584B004460E46002168463F
:106570001546A6F0DDFF94F8A230ABB96FF4947223
:1065800017496846AB1803EB03131944A6F07CFFC8
:1065900030466946A6F064FF238DAB4215D06846AD
:1065A000A7F05EF804B070BD6FF494730D496846AF
:1065B000EB1803EB03131944A6F066FF3046694657
:1065C000A6F04EFF238DAB42E9D1694604F13400B9
:1065D000A7F00EF86846A7F043F804B070BD00BFFE
:1065E00084EE09606C060A6030B585B00C460E4931
:1065F00015466846A6F09CFF0C4A4C2303FB042377
:106600005B8E0B3B9BB2022B03D828466946A6F053
:10661000BBFF69462046A6F023FF054B68461C7069
:10662000A7F01EF805B030BD280300208C600020C4
:10663000BC8D002030B5044691B000293FD180F8D0
:10664000A71080F8A9103A4904A8A6F0A5FF94F86D
:10665000A7106846A6F050FF694604A8A6F050FFB0
:106660003449A7F065F8054694F8A91008A8A6F0E3
:1066700043FF08A92846A6F043FF2F49A7F058F882
:10668000054694F8A8100CA8A6F036FF0CA92846D9
:10669000A6F036FF01462948A6F0B6FF2748A6F027
:1066A000E3FF0CA8A6F0DCFF08A8A6F0D9FF684617
:1066B000A6F0D6FF04A8A7F033F811B030BD4029EA
:1066C00015D81F4D481E2946C0B2A6F051FF2978A3
:1066D0006878FE2384F8A81084F8A90084F8A7300D
:1066E0000029B0D00028AED0A6F0DEFFABE74829E5
:1066F00012D84039134AC9B24B1E80F8A71003EBD9
:10670000C30302EB830393F8D01693F8D10684F801
:10671000A81084F8A900E3E7FF210C22182380F8D1
:10672000A710114680F8A820184684F8A930DBE7A6
:10673000C0100020D4100020F0100020B05600201F
:106740002CAF0020C8060A6039B190F8A92080F863
:10675000A81012B11046A6F0A7BF7047002201236F
:1067600080F8A72080F8A830704700BF08B518202F
:10677000A6F002FFBDE80840A6F01EBF08B57F20C6
:10678000A6F09EFFC0B208BDD0F8CC301BB1034AC2
:106790001268934200D37047FDF7A2B8945B0120C2
:1067A000F8B5CD08B0F890310C46064601351746CD
:1067B000AB420BD04079C02306F1D002294601300C
:1067C000C0B2A6F0C9FEE8B1A6F8905104F00703E4
:1067D0000D49384603EB830503EB4505A6F054FE4F
:1067E0006D00EDB205F110042635E4B2EDB2621C85
:1067F00033193846D4B293F8D010A6F059FFAC4202
:10680000F5D10120F8BD00BF280300202DE9F04F8D
:10681000894695B00646002168464FEAD9081746D2
:10682000A6F086FE6A464946304608F10108FFF7A1
:10683000B7FF50B906F1CF0306F28F11202203F8FB
:10684000012F8B42FBD1A6F8908169463846A6F00D
:1068500063FF00286CD109F00703044603EB830AA9
:1068600003EB4A0A4FEA4A0A5FFA8AFA0AF1100B66
:106870005FFA8BFB0BF10105214601343846A6F087
:106880000BFF06EB0B03EDB20278162CAB4683F838
:10689000D020EFD1294904A8A6F07EFE394604A8ED
:1068A000A6F02EFE2649A6F043FF04460A224946DA
:1068B00008A8A6F009FF08A92046A6F021FE214954
