:0200000460009A
:100000004643464200000156000000000101020084
:1000100000000000000000000000000000000000E0
:1000200000000000000000000000000000000000D0
:1000300000000000000000000000000000000000C0
:1000400000000000010403000000000000000000A8
:100050000000800000000000000000000000000020
:100060000000000000000000000000000000000090
:100070000000000000000000000000000000000080
:10008000EB04180A063204260000000000000000FD
:10009000050404240000000000000000000000002F
:1000A0000000000000000000000000000000000050
:1000B0000604000000000000000000000000000036
:1000C0000000000000000000000000000000000030
:1000D00020041808000000000000000000000000DC
:1000E0000000000000000000000000000000000010
:1000F0000000000000000000000000000000000000
:10010000D8041808000000000000000000000000F3
:100110000204180804200000000000000000000095
:1001200000000000000000000000000000000000CF
:10013000600400000000000000000000000000005B
:1001400000000000000000000000000000000000AF
:10015000000000000000000000000000000000009F
:10016000000000000000000000000000000000008F
:10017000000000000000000000000000000000007F
:10018000000000000000000000000000000000006F
:10019000000000000000000000000000000000005F
:1001A000000000000000000000000000000000004F
:1001B000000000000000000000000000000000003F
:1001C000000100000010000001000000000000001D
:1001D000000001000000000000000000000000001E
:1001E000000000000000000000000000000000000F
:1001F00000000000000000000000000000000000FF
:10020000FFFFFFFFFFFFFFFFFFFFFFFFFFFFFFFFFE
:10021000FFFFFFFFFFFFFFFFFFFFFFFFFFFFFFFFEE
:10100000D10020402C100060000000000000000013
:1010100020100060001000600000000000000000D0
:1010200000000060E84B0D000000000000000120FF
:1010300035100060774B4FF42A01774A77485A649D
:101040001864774A99639546764A03F530337649B2
:1010500008208A42C3F854010FD0744B9A420CD234
:10106000D4430846234423F0030304330B4450F8CD
:10107000041B984242F8041BF9D16D4A6D498A421B
:101080000FD06D4B9A420CD2D4430846234423F030
:10109000030304330B4450F8041B984242F8041B2A
:1010A000F9D1664A664B9A420BD2D04311460024CE
:1010B000034423F003030433134441F8044B8B42ED
:1010C000FBD1604A4FF470015F4B116003F5307142
:1010D0005E4A43F8042F9942FBD15D4B80215D4A63
:1010E00003F8011B9342FBD15B4C4FF080375B4E02
:1010F0004FF0FF32DFF8A4A10025DFF8A491DFF85C
:10110000A481574B4349C3F800A0C4F80471C4F844
:101110000091C4F8F470C4F8F080F36923F07F0301
:1011200043F04003F361736A23F07F0343F040030D
:1011300073628A66CA660A674A6714F043FA494AC4
:101140006320494B4949106003221D60CAF83810DA
:1011500043F8082C4649474A4748C3F8082D0B680E
:10116000464A43F08073CAF83C0045480B60136858
:10117000444943F00103136003680B6014F05CFC06
:10118000C4F804714048C4F80091C4F8F470C4F87D
:10119000F080AAF049FC00BF00BF00BF00BFF16EA5
:1011A0003A4A41F440513A4BF1661560C2F8085191
:1011B000C2F81851C2F82851C2F838519A6BD207B8
:1011C00008D442F61562334959651A659A6B42F0A4
:1011D00001029A632E4A304C936843F001139360E6
:1011E00014F06CFAAAF030FC2368132BFCD914F02D
:1011F000E3FC14F0BBF9AAF0E7FC14F04FFCAAF0F2
:101200001FFD2368B3F5967FFBD3AAF079FCAAF003
:101210002FFCFEE700C00A40FFABAAAA070020008F
:101220000080052000000000E0BC0A60B83B02001E
:10123000000000209CF80C60505300205053002008
:101240002054012088ED00E0FC430120B1F80100AA
:1012500000E400E0A0E400E000800D4000C00F408A
:1012600008ED00E014E000E018E000E09111020059
:10127000FCED00E00000202095110200001000E0CD
:10128000041000E08C3B01200046C32300400840CE
:1012900000400D400000C056943B01200044012056
:1012A0001B1018200C0D11135D207047542901D814
:1012B000022070475D2934BF80200020704700BFA6
:1012C0000379022B01D05D20704790F8F7004000B1
:1012D000704700BF4B1E072B05D890F869308B4232
:1012E00018BF80F86910704790F8F800704700BF89
:1012F000082070472F2070472E2906D8044B01EB99
:10130000410103EBC101087A70470020704700BF1C
:10131000A45C01604379002208490133A0F8482009
:1013200080F84D2070B4B0F84A504FF49676044CD3
:10133000A0F84A6025700B7070BC7047D5D30020B0
:10134000F4B6002090F84D303BB9C1EB01114900D3
:1013500089B202290CD800207047B0F8483001EB60
:101360004101C3EB031301EB430189B20229F2D916
:10137000033988B2704700BF2E2070472D2907D847
:10138000044B01EB410103EBC10191F8700470477C
:1013900000207047A45C0160082070471531C8B276
:1013A000704700BF022380F86A30704743790022FB
:1013B00008490133A0F8482080F84D2070B4B0F8F7
:1013C0004A504FF4C876044CA0F84A6025700B7060
:1013D00070BC7047D5D30020F4B6002090F84E10B2
:1013E000026880F85110136C184700BF0F2908D805
:1013F00001EB4102044B01EB8201194491F8C4084E
:1014000070470020704700BFA45C016030B40AB987
:1014100090F86A20012A1ED0022A1AD0032A0CBF93
:101420000D25002501EBC1000C4A4C23202401EBC3
:10143000400003FB012180004D8600F11C032C308D
:101440001344024403F8014F9342FBD1012030BC06
:1014500070470C25E6E70B25E4E700BF6C5300203E
:101460004B1E072B05D890F869308B4218BF80F8C7
:101470006910704743790D49013390F89A2030B4D0
:101480000B4CB0F84A500B70257052B14FF4FA7300
:10149000A0F84A30002330BCA0F8483080F84D3026
:1014A00070476423A0F84A30F4E700BFD5D300208A
:1014B000F4B600201220704790F86A304BB1013327
:1014C0000122DBB2032B88BF012380F86A30014B75
:1014D0001A707047BDD2002030B40AB990F86A2063
:1014E000012A1ED0022A1AD0032A0CBF0D2500257E
:1014F00001EBC1000C4A4C23202401EB400003FB0C
:10150000012180004D8600F11C032C30134402445D
:1015100003F8014F9342FBD1012030BC70470C25EA
:10152000E6E70B25E4E700BF6C5300204379002277
:1015300008490133A0F8482080F84D2070B4B0F875
:101540004A505026044CA0F84A6025700B7070BCBD
:10155000704700BFD5D30020F4B600208A20704722
:1015600090F866300BB98A207047024A134413F88A
:10157000010C704758080120F0B490F86650B5B1DE
:1015800000230E4A0B241F4603E08A2B12D012F8C8
:101590001C4CAC42DEB202F11C0203F10103F4D197
:1015A0007C1CB942E7B2F0D1B0B2F0BC704708463B
:1015B000F0BC70474FF6FF70F0BC70476166016089
:1015C000704700BF1020704790F86A304BB101336C
:1015D0000122DBB2022B88BF012380F86A30014B65
:1015E0001A707047BDD2002070B40AB990F86A2012
:1015F000012A21D0022A12D001EBC1030F4A202078
:1016000001EB4301890001F11C032C3113440A440E
:1016100003F8010F9342FBD1012070BC70470F23E8
:10162000064E4C2405681A4604FB0164D5F8945014
:1016300063862B4670BC18470E23F1E76C530020DD
:1016400001207047013908298CBF00200120704714
:101650004379002208490133A0F8482080F84D2042
:1016600070B4B0F84A502426044CA0F84A602570A3
:101670000B7070BC704700BFD5D30020F4B60020BB
:1016800009207047082994BF02200020704700BF3E
:101690000F2070470E2908D801EB4101044BC1EB24
:1016A000C101194491F8BA0770470020704700BF84
:1016B0009C6D016030B40C4A4C2301EBC1050E2433
:1016C00003FB0123202001EB45015C86890001F129
:1016D0001C032C3113440A4403F8010F9342FBD13D
:1016E000012030BC704700BF6C530020704700BF22
:1016F0004379002208490133A0F8482080F84D20A2
:1017000070B4B0F84A504FF4C876044CA0F84A6060
:1017100025700B7070BC7047D5D30020F4B6002044
:1017200090F84D3033B901EB8101C90003290BD882
:1017300000207047B0F8483003EB830301EB43010E
:10174000890089B20329F3D9043988B2704700BFF0
:1017500063207047622906D8044B1A2202FB01312C
:1017600091F8EE0870470020704700BF9C6D016043
:10177000182070470F2902D90531C8B270470846B2
:10178000704700BF0139C9B2072906D890F876031F
:1017900040FA01F101F0010070470020704700BFDE
:1017A00090F86A304BB101330122DBB2022B88BFC3
:1017B000012380F86A30014B1A707047BDD20020B7
:1017C000B0207047C12907D8044B01EB410103EB5E
:1017D000C10191F8FE01704700207047947E0160BE
:1017E00090F866300BB9C2207047024A134413F8D0
:1017F000010C704754EF0020F0B490F86650B5B17A
:1018000000230E4A0C241F4603E0C22B12D012F80C
:10181000184CAC42DEB202F1180203F10103F4D11C
:101820007C1CB942E7B2F0D1B0B2F0BC70470846B8
:10183000F0BC70474FF6FF70F0BC7047BF8001608E
:101840002720704710B44C20044C00FB014181F864
:10185000303081F83C205DF8044B70476C53002019
:1018600090F86A304BB101330122DBB2022B88BF02
:10187000012380F86A30014B1A707047BDD20020F6
:101880000620704701EB4101034B104603EBC101F9
:101890000931AAF039B900BFA45C016001EB410134
:1018A000034B104603EBC1010931AAF02DB900BF6B
:1018B0000C61016001EB4103104610B401EB8301A0
:1018C000024C21445DF8044BAAF01EB95C6501602E
:1018D000024B104603EB0111AAF016B918930160F0
:1018E00001EB4103104610B4C1EBC301024C21448B
:1018F0005DF8044BAAF008B93894016001EB81014E
:10190000024B104603EB4101AAF0FEB8A895016016
:1019100001EB4101034B1046C1EBC1011944AAF090
:10192000F3B800BF44750160622900D9704710B454
:10193000044B1A24104604FB01315DF8044B0B31B3
:10194000AAF0E2B88076016001EB4101034B10463A
:1019500003EBC1010331AAF0D7B800BF908001604A
:10196000262903D910460549AAF0CEB801EB41015A
:10197000034B104603EBC101AAF0C6B834030020A4
:1019800004960160262903D910460649AAF0BCB87E
:1019900001EB4101044B104603EBC1010E31AAF0EB
:1019A000B3B800BF34030020049601602DE9F04174
:1019B000234F3B6873B10D4601EB4101214C80463A
:1019C000C5EBC1011046164621441131AAF09CF81E
:1019D0000B2D01D9BDE8F0813A213046AAF0D8F8A4
:1019E000B8F826203968002302EB420204F287503F
:1019F0001C46C2EB02120A441544697D95F8212069
:101A000005E001331330712B14D010F8134CA142B0
:101A1000DDB2F6D110F8124C9442F2D155B103EB7D
:101A2000C3020949304603EB4203BDE8F0411944C3
:101A3000AAF06AB830460549BDE8F041AAF064B89A
:101A400044F3002038940160AE9901603403002013
:101A500030B4B9B101EB4103C1EBC303DBB200F514
:101A6000886100F58965C418013394F87043DBB2CE
:101A700001F8014FA942F6D100F24141104630BCB5
:101A8000AAF042B81723EAE7CB11F0B54C1C91B08D
:101A900003F14101164604A8A4B2C9B2AAF07CF829
:101AA00020490A226846A1FB04314909A9F0D4FF64
:101AB000694604A8AAF0D0F81B4B074608A8A3FB68
:101AC00004250A22ED08A9B205EB8505A3FB01E375
:101AD000DB0803EB8303A1EB430189B2A9F0BCFF50
:101AE00008A93846AAF0B8F80746A4EB45010A222F
:101AF0000CA889B2A9F0B0FF0CA93846AAF0ACF83E
:101B000001463046AAF098F80CA8AAF00DF808A8EB
:101B1000AAF00AF86846AAF007F804A8A9F0E4FFBA
:101B200011B0F0BD1F85EB51CDCCCCCC2DE9F041EF
:101B300090F84D3090B007460D461646002B47D022
:101B4000B0F8481004A83D4C01EB810189114131E6
:101B5000C9B2AAF021F8B7F848100A226846A4FBD7
:101B60000131C908A9F078FF694604A8AAF074F801
:101B7000B7F8481080460A22A4FB013408A8E408FC
:101B800004EB8404A1EB440189B2A9F065FF08A924
:101B90004046AAF061F804460A2229460CA8A9F09A
:101BA0005BFF0CA92046AAF057F801463046AAF080
:101BB00043F80CA8A9F0B8FF08A8A9F0B5FF68463B
:101BC000A9F0B2FF04A8A9F08FFF10B0BDE8F08122
:101BD00001EB8102B0F84830642108A8520001FBF3
:101BE0000321C9114131C9B2A9F0D6FFB7F8481095
:101BF0000A2204A8A9F030FF04A908A8AAF02CF82A
:101C000004460A2229460CA8A9F026FF0CA9204662
:101C1000AAF022F80A49AAF057F801463046AAF07D
:101C20000BF80CA8A9F080FF04A8A9F07DFF08A874
:101C3000A9F05AFF10B0BDE8F08100BFCDCCCCCCEC
:101C400038030020F0B50D468DB0184C50210135F9
:101C500004A81646A9F0A0FF84FB0524EB170A226E
:101C60006846C3EBA4042146A9F0F6FE694604A821
:101C7000A9F0F2FF074604EB84010A2208A8A5EBAD
:101C80004101A9F0E9FE08A93846A9F0E5FF01469F
:101C90003046A9F0D1FF08A8A9F046FF6846A9F090
:101CA00043FF04A8A9F020FF0DB0F0BD676666668B
:101CB0002DE9F0414A4F8CB00E461546A7FB013482
:101CC0006408622C73D990F89830804603F1310291
:101CD000B4EB420F70DC62339C4256DC414928462B
:101CE000A9F012FF6FF494731E44B6B2A7FB06343A
:101CF000C4F34F0401343C4F0A226846E4B2A7FB08
:101D00000437FF08394607EB8707A9F0A5FE6946A7
:101D100008A8A9F021FF0A22A4EB470104A8C9B230
:101D2000A9F09AFE04A908A8A9F096FF0146284642
:101D3000A9F082FF04A8A9F0F7FE08A8A9F0D4FE34
:101D40006846A9F0F1FE08A82849A9F049FE2449EF
:101D50000A2204A8A1FB0631490801EB4101711ACE
:101D600089B20131A9F078FE04A908A8A9F074FF8E
:101D700001462846A9F060FF04A8A9F0D5FE08A8EE
:101D8000A9F0B2FE0CB0BDE8F08119492846A9F0CF
:101D9000BBFE98F898204FF6D76302EB42029B1ADD
:101DA0001E44B6B2A7FB0634C4F34F04A2E7552184
:101DB0001046A9F0EDFE9DE70E492846A9F0A4FEC5
:101DC00098F898304FF6D76203EB43035B00D21AC2
:101DD0001644B6B2A7FB0634C4F34F048AE700BF2B
:101DE000ABAAAAAA78030020CDCCCCCC0C0300204F
:101DF000EC1000203C030020F0B5C1F38705194C1E
:101E00008DB00E460135174668460A2284FB05341C
:101E1000EB17C3EBA4042146A9F01EFE694608A8EF
:101E2000A9F09AFE0A2204EB840104A8A5EB410163
:101E3000A9F012FE04A908A8A9F00EFF06F00301FC
:101E40004131A9F095FE01463846A9F0F5FE04A8F7
:101E5000A9F06AFE08A8A9F047FE6846A9F064FE4A
:101E60000DB0F0BD6766666630B589B00D460C49A9
:101E7000144604A8A9F0B4FD29466846A9F068FEF6
:101E8000694604A8A9F0E8FE01462046A9F0D4FE60
:101E90006846A9F049FE04A8A9F026FE09B030BDA5
:101EA000400300202DE9F04390F89A3095B00C469D
:101EB0001546002B51D1042948D90C1F08A85649B2
:101EC000A9F08EFD5549A4B20A2204A8A1FB043151
:101ED0004909A9F0C1FD04A908A8A9F0BDFE504B0D
:101EE00007460CA8A3FB04260A22F608B1B206EBAB
:101EF0008606A3FB01E3DB0803EB8303A1EB4301AD
:101F000089B2A9F0A9FD0CA93846A9F0A5FE07469B
:101F1000A4EB46010A2210A889B2A9F09DFD10A9E0
:101F20003846A9F099FE01462846A9F085FE10A87A
:101F3000A9F0FAFD0CA8A9F0F7FD04A8A9F0F4FD9A
:101F400008A8A9F0D1FD15B0BDE8F08335491046C9
:101F5000A9F0DAFD15B0BDE8F083314E0A222F4911
:101F60006846A6FB0437BF0807F10109A6FB09383C
:101F7000A1FB09314FEAD808C1F34F11A9F06CFD5C
:101F8000694608A8A9F0E8FD0A221FFA88F104A80A
:101F900008EB8808A6FB0136F60806EB8606A1EBDF
:101FA000460189B2A9F058FD04A908A8A9F054FE79
:101FB0000646A9EB48010A220CA889B2A9F04CFDFB
:101FC0000CA93046A9F048FE1749A9F07DFE064647
:101FD00007EB87010A2210A8611A89B20131A9F022
:101FE0003BFD10A93046A9F037FE01462846A9F06E
:101FF00023FE10A8A9F098FD0CA8A9F095FD04A84F
:10200000A9F092FD08A8A9F06FFD6846A9F08CFD23
:1020100015B0BDE8F08300BF540300201F85EB51CD
:10202000CDCCCCCC4C0300200C030020F0B590F8B4
:102030009A3091B004460F461646002B36D190F8E0
:102040004D30002B75D190F848100A22604D04A83D
:1020500001EB810107EB4104E4B2A5FB0435ED0877
:10206000294605EB8505A9F0F7FC04A90CA8A9F001
:1020700073FD0A22A4EB450108A8C9B2A9F0ECFC43
:1020800008A90CA8A9F0E8FD5249A9F01DFE0146D7
:102090003046A9F0D1FD08A8A9F046FD0CA8A9F08A
:1020A00023FD04A8A9F040FD11B0F0BD90F84D301B
:1020B000002B69D0B0F848100A22454D6846A5FBB0
:1020C0000131C908A9F0C8FC694608A8A9F044FD77
:1020D000B4F848100A2204A8A5FB0135ED0805EB69
:1020E0008505A1EB450189B2A9F0B6FC04A908A8B1
:1020F000A9F0B2FD044639460A220CA8A9F0ACFCAE
:102100000CA92046A9F0A8FD3349A9F0DDFD014640
:102110003046A9F091FD0CA8A9F006FD04A8A9F08D
:1021200003FD08A8A9F0E0FC6846A9F0FDFC11B089
:10213000F0BDB0F848100A22254D6846A5FB0131D4
:10214000C908A9F089FC694608A8A9F005FDB4F8FA
:1021500048100A2204A8A5FB0135ED0805EB85050A
:10216000A1EB450189B2A9F077FC04A908A8A9F060
:1021700073FD044639460CA80A22A9F06DFC0CA98F
:102180002046A9F069FDC2E7B0F848400A2210498C
:1021900004A804EB840407EB4404A4B2A1FB0437B5
:1021A000FF08394607EB8707A9F056FC04A90CA8DD
:1021B000A9F0D2FC0A22A4EB470108A889B2A9F031
:1021C0004BFC08A90CA8A9F047FD04495DE700BF36
:1021D000CDCCCCCC380300205C0300205803002079
:1021E000324B93F83E30002B70B516468CB014BFBE
:1021F0000425082500294ED0A9420C4632D9641B7B
:102200002B4904A8651EA9F0EBFB0A226846002DA5
:102210002946B8BFA11DC910A9F01EFC694604A833
:10222000A9F01AFD2349A9F04FFD2349044629408E
:10223000002936DB0A22013108A8A9F00DFC08A903
:102240002046A9F009FD01463046A9F0F5FC08A892
:10225000A9F06AFC6846A9F067FC04A8A9F044FC50
:102260000CB070BD154908A8A9F0BAFB0A22214696
:1022700004A8A9F0F1FB04A908A8A9F0EDFC014607
:102280003046A9F0D9FC04A8A9F04EFC08A8A9F092
:102290002BFC0CB070BD0A491046A9F035FC0CB0FF
:1022A00070BD013961F007010131C3E710E9002079
:1022B00068030020A41400200700008064030020AD
:1022C0006003002070B590F84D308CB004460D4688
:1022D000164633BBB0F848300BB9002964D03549F5
:1022E00008A8A9F07DFBB4F848100A2204A801EB65
:1022F000810105EB41010139A9F0AEFB04A908A851
:10230000A9F0AAFC2C49A9F0DFFC01463046A9F04F
:1023100093FC04A8A9F008FC08A8A9F0E5FB0CB000
:1023200070BDB0F84830A3B929B924491046A9F0C6
:10233000EBFB0CB070BD224908A8A9F051FB29465F
:1023400004A80A22A9F088FB04A908A8A9F084FC23
:10235000DBE7184904A8A9F043FBB4F848100A22A7
:1023600068460139A9F078FB694604A8A9F074FC15
:102370001449A9F0A9FC04460A22294608A8A9F094
:102380006BFB08A92046A9F067FC01463046A9F07E
:1023900053FC08A8A9F0C8FB6846A9F0C5FB04A82F
:1023A000A9F0A2FB0CB070BD07491046A9F0ACFB28
:1023B0000CB070BD6803002070030020740300207F
:1023C00064030020A41400206C03002070B52329AE
:1023D00001F0030588B00C46164605F141051CD9ED
:1023E000462104A8A9F0D8FB0A22A10868460839AA
:1023F000A9F032FB694604A8A9F02EFC2946A9F0F1
:10240000B7FB01463046A9F017FC6846A9F08CFBE3
:1024100004A8A9F069FB08B070BD89080A226846C3
:102420000131A9F019FB694604A8A9F095FB2946DA
:1024300004A8A9F09DFB01463046A9F0FDFB04A8C5
:10244000A9F052FB6846A9F06FFB08B070BD00BF51
:10245000F0B590F84D3089B0044616460D46DBB90C
:10246000B0F84830002B3BD10A226846A9F0F4FAB4
:10247000694604A8A9F070FB04A82A49A9F024FC25
:1024800001463046A9F0D8FB04A8A9F02DFB684608
:10249000A9F04AFB09B0F0BD01F00307232907F1B9
:1024A00041072ED9462104A8A9F076FBB4F84810BC
:1024B0000A2268460839A9F0CFFA694604A8A9F0AB
:1024C000CBFB3946A9F054FB01463046A9F0B4FBDA
:1024D0006846A9F029FB04A8A9F006FB09B0F0BDE5
:1024E000462104A8A9F058FB29460A226846A9F00B
:1024F000B3FA694604A8A9F0AFFB0A49A9F0E4FBC6
:10250000E2E7B0F848100A2268460131A9F0A4FABF
:10251000694604A8A9F020FB394604A8A9F028FBC5
:10252000AEE700BF380300200131224BF0B58CB27A
:1025300091B016460A22A3FB043168464909A9F066
:102540008BFA694608A8A9F007FB1B4B04A8A3FB5C
:1025500004250A22ED08A9B205EB8505A3FB01734A
:10256000DB0803EB8303A1EB430189B2A9F074FA02
:1025700004A908A8A9F070FB0746A4EB45010A22AC
:102580000CA889B2A9F068FA0CA93846A9F064FB36
:1025900001463046A9F050FB0CA8A9F0C5FA04A8E2
:1025A000A9F0C2FA08A8A9F09FFA6846A9F0BCFAF7
:1025B00011B0F0BD1F85EB51CDCCCCCCC729104656
:1025C000F0B50E468DB094BF552150211546A9F0A7
:1025D000DFFA234BC824234F6846A3FB06230A22B5
:1025E0009B0904FB1364C4F38D040134E4B2A7FB1C
:1025F0000437FF08394607EB8707A9F02DFA69462B
:1026000008A8A9F0A9FA0A22A4EB470104A8C9B2B4
:10261000A9F022FA04A908A8A9F01EFB0146284641
:10262000A9F00AFB04A8A9F07FFA08A8A9F05CFAAF
:102630006846A9F079FA2D212846A9F0A9FA06F0F2
:1026400003010A2208A80131A9F006FA08A92846C0
:10265000A9F0F2FA08A8A9F067FA0DB0F0BD00BF22
:102660001F85EB51CDCCCCCC70B590F84D308CB0F3
:102670000C461546EBB9052950D9502108A8A9F0F8
:102680008BFA611F0A2204A8A9F0E6F904A908A898
:10269000A9F0E2FA2449A9F017FB01462846A9F05F
:1026A000CBFA04A8A9F040FA08A8A9F01DFA0CB0CA
:1026B00070BD90F848600A2313FB0613322B28DD07
:1026C000053E50211046F6B2A9F062FA314668463E
:1026D000A9F03EFA694608A8A9F03EFA0A22214666
:1026E00004A8A9F0B9F904A908A8A9F0B5FA0F49F6
:1026F000A9F0EAFA01462846A9F09EFA04A8A9F032
:1027000013FA08A8A9F0F0F96846A9F00DFA0CB080
:1027100070BD55211046A9F03BFAD7E7552108A80E
:10272000A9F03AFA2146ADE7580300205C030020E7
:10273000622930B51D468BB02FD83A4B1A2404FBC2
:102740000131B1F8FA180BB2002B54DD364C0C44B1
:10275000112C10D8DFE804F0090F0F0F0F0F0F0F27
:102760000F0F0F0F0F0F0F2D4D2790F8A930002BD3
:1027700014BF092101210A442C4906A8013A02EBA1
:10278000C2021144A9F03CFA06A92846A9F054FA5D
:1027900006A8A9F0C9F90BB030BD25491846A9F023
:1027A000B3F90BB030BD11460A2206A8A9F054F9BE
:1027B000EAE73F2A28D9402A2FD00192EBD91D49B8
:1027C00006A8A9F00DF9019AA2F132010A2202A885
:1027D000A9F042F902A906A8A9F03EFA0146284646
:1027E000A9F02AFA02A8A9F09FF906A8A9F07CF995
:1027F000D1E75100D8E7012A28460CBF0E490F49FE
:10280000A9F082F90BB030BD0D4906A80192A9F0DC
:10281000E7F8019AC2F13201D8E728460949A9F040
:1028200073F9B8E79C6D0160FA83FFFF10A20160A5
:1028300004240020EC100020001500207C03002060
:1028400078030020782100200F2930B5154689B083
:1028500022D91039CCB2072C05D913491046A9F05A
:1028600053F909B030BD114904A8A9F0B9F80A22FA
:10287000611C6846A9F0F0F8694604A8A9F0ECF9D3
:1028800001462846A9F0D8F96846A9F04DF904A8F0
:10289000A9F02AF909B030BD054B104603EB011130
:1028A000A9F032F909B030BD3403002080030020C4
:1028B000B0AE01600F2930B5154689B022D9103964
:1028C000CCB2072C05D914491046A9F01DF909B05E
:1028D00030BD124904A8A9F083F80A22611C684699
:1028E000A9F0BAF8694604A8A9F0B6F90146284645
:1028F000A9F0A2F96846A9F017F904A8A9F0F4F81C
:1029000009B030BD064B104603EB01110831A9F0A8
:10291000FBF809B030BD00BF340300208C03002059
:10292000B0AE016030B589B00D460C49144604A81C
:10293000A9F056F829466846A9F00AF9694604A89C
:10294000A9F08AF901462046A9F076F96846A9F06F
:10295000EBF804A8A9F0C8F809B030BD9003002036
:10296000F0B50C46C72991B0104604F101048CBFA4
:10297000502155211646A4B2A9F00AF920490A228D
:102980006846A1FB04314909A9F066F8694608A820
:10299000A9F0E2F81B4B04A8A3FB04250A22ED08CA
:1029A000A9B205EB8505A3FB0173DB0803EB8303E9
:1029B000A1EB430189B2A9F04FF804A908A8A9F036
:1029C0004BF90746A4EB45010A220CA889B2A9F0ED
:1029D00043F80CA93846A9F03FF901463046A9F062
:1029E0002BF90CA8A9F0A0F804A8A9F09DF808A854
:1029F000A9F07AF86846A9F097F811B0F0BD00BFC9
:102A00001F85EB51CDCCCCCCF0B590F84D3091B0CA
:102A100005460F4616466BBBB0F848301046012BF2
:102A20008CBF50215521A9F0B3F8B5F848100A22FF
:102A300004A8A9F011F804A90CA8A9F08DF80A229D
:102A4000394608A8A9F008F808A90CA8A9F004F9C3
:102A50002B49A9F039F901463046A9F0EDF808A84C
:102A6000A9F062F80CA8A9F03FF804A8A9F05CF856
:102A700011B0F0BDB0F848301046224C132B8CBF7B
:102A800050215521A9F084F8B5F848100A2268466B
:102A9000A4FB0131C908A8F0DFFF694608A8A9F026
:102AA0005BF8B5F848100A2204A8A4FB0134E40836
:102AB00004EB8404A1EB440189B2A8F0CDFF04A982
:102AC00008A8A9F0C9F804460A2239460CA8A8F0BB
:102AD000C3FF0CA92046A9F0BFF801463046A9F073
:102AE000ABF80CA8A9F020F804A8A9F01DF808A8D4
:102AF000A8F0FAFF6846A9F017F811B0F0BD00BFC2
:102B000038030020CDCCCCCC70B54D1C154C8CB00E
:102B1000164684FB0534EB170A226846C3EBA4046F
:102B20002146A8F099FF694608A8A9F015F80A22DD
:102B300004EB840104A8A5EB4101A8F08DFF04A9D2
:102B400008A8A9F089F801463046A9F075F804A84C
:102B5000A8F0EAFF08A8A8F0C7FF6846A8F0E4FFBD
:102B60000CB070BD6766666630B589B00D460D491C
:102B7000144604A8A8F034FF0A22691C6846A8F08D
:102B80006BFF694604A8A9F067F801462046A9F042
:102B900053F86846A8F0C8FF04A8A8F0A5FF09B03C
:102BA00030BD00BF9803002000EB4103013130B578
:102BB00089B0B3F89A3015460A2268465C10A8F02E
:102BC0004BFF694604A8A8F0C7FF04A83A21A8F063
:102BD000CFFF0A49E3B203EB830301EB8301023128
:102BE000A9F072F801462846A9F026F804A8A8F032
:102BF0007BFF6846A8F098FF09B030BD20B801609F
:102C00002DE9F0410446A8F0E3FF1F4902251F4BC0
:102C1000012208684FF0620809794FF0030CC4F8EC
:102C200006004FF0050EA17204272571CD26D02590
:102C3000A4F8448084F850C0C4F854E0E77784F8DE
:102C40008C6084F88D5084F8202084F8232084F848
:102C5000522003CBC4F8121019889B78C4F80E00D8
:102C6000D220E18223760023094984F88E00C4F83B
:102C70009410A4F8423084F8983084F8993084F89D
:102C80008F30BDE8F08100BFB0030020B803002002
:102C9000244502602DE9F0470446A8F099FF234A35
:102CA0000226234B4FF4247910684FF0280812793C
:102CB0004FF00A0CC4F806004FF0080EA27201276C
:102CC0004FF0CE0AD025267184F82360A4F84490F2
:102CD00084F89880C4F854C084F820E084F85270D6
:102CE00084F88CA084F88D5007CB1B78C4F80E00B4
:102CF000D320A3760023C4F81210C4F816200322B0
:102D00000C4984F88E00C4F89410A4F8423084F87A
:102D1000993084F89A3084F89B3084F89C3084F899
:102D20008F3084F85020E277BDE8F087C40300209C
:102D3000CC03002024C202602DE9F0470446A8F02D
:102D400047FF1F4B02271F4D4FF41C7918684FF0A7
:102D500003084FF00A0C4FF0DD0EC4F806004FF0E8
:102D6000D00A277184F82370A4F8449084F8508026
:102D700084F81FC084F88CE084F88DA00FCDDE2588
:102D8000C4F80E00C4F81210C4F816200122C4F8CA
:102D90001A3000230C480D4984F88E50C4F888007E
:102DA000C4F89410A4F84230636584F88F3084F836
:102DB000993084F8202084F89A20BDE8F08700BF7D
:102DC000DC030020E003002080C3C901243F03602E
:102DD0002DE9F0410446A8F0FBFE1D4902221D4BDF
:102DE0004FF00B0808684FF0030C22714FF0060EED
:102DF000C4F806000127D52684F82320164AA4F833
:102E0000448084F850C084F81FE084F8207084F86F
:102E10008C60C4F8942003CB1B88C4F80E00D62025
:102E2000E3820023C4F812100C4984F88D00C4F822
:102E30008810A4F84230636584F88E3084F88F30AF
:102E400084F89E30C4F89830E366BDE8F08100BF96
:102E5000F0030020F403002024BC036080C3C901F8
:102E6000F8B50446A8F0B4FE18490225184B012213
:102E700008684FF0470C89884FF0030EC4F806002D
:102E80000527618106262571E325A4F844C084F84E
:102E900050E06765E67784F88C5084F8202084F849
:102EA000232003CB1B88C4F80E00D020E38200232C
:102EB000C4F81210074984F88D00C4F89410A4F8DF
:102EC000423084F88E3084F88F30F8BD040400203E
:102ED00000040020243904602DE9F0410446A8F0E4
:102EE00077FE1A4B02271A4D40F22B1C18684FF040
:102EF000030E4FF007082771C4F8060084F823700A
:102F0000A4F844C084F850E084F81F800FCD012558
:102F1000C4F80E00C4F81210CD20C4F81620D02139
:102F2000C4F81A3000230B4A84F8205084F88C002F
:102F300084F88D10C4F89420A4F84230636584F8B6
:102F40008E3084F88F30BDE8F08100BF0C04002083
:102F50001004002024B604602DE9F0410446A8F0D6
:102F600037FE1C4B02221C4D4FF0310C18684FF0FD
:102F7000030E1B79CF27C4F806002271A372002329
:102F8000A4F844C084F850E084F88C70A4F842306F
:102F900084F88D3084F88E3084F88F3084F838319E
:102FA000E36607CDB5F800800525C4F80E000120C2
:102FB000C4F81620094AA4F81A80C4F81210C4F8FC
:102FC00094206565E57784F8200084F82300BDE847
:102FD000F08100BF2C0400203404002024B00560E0
:102FE0002DE9F8430446A8F0F3FD224A0025224BC0
:102FF000022710684FF0D00C92884FF0D90EC4F819
:1030000006000326628140F27F184FF0CD09277138
:1030100084F82370A4F8448084F88C9084F88DC0E0
:1030200084F88EE084F8986084F85060A4F84250E8
:10303000656584F88F5007CBC4F816201A889B78F2
:10304000C4F80E0004F1990023770123C4F812108C
:10305000294662835D22E37784F82030A8F080FD62
:10306000064B84F8F75084F8F850C4F89430BDE863
:10307000F88300BF440400204C040020242D066087
:103080002DE9F0410446A8F0A3FD2F4A04212F4D5D
:1030900002271068002612794FF09E08C4F8060037
:1030A0004FF0030C84F899104FF0DA0EA272284BFF
:1030B0002771E777DC2784F8986084F88E6084F8BD
:1030C0008F60A4F8448084F850C084F88CE084F8C1
:1030D0008D7007CDC4F80E000520C4F81210012130
:1030E000C4F8162003F6187560650B221948A4F879
:1030F000421084F8201084F8231001E013F81C2CEF
:10310000511E1C3312B1425C01324254AB42F5D124
:10311000292240F20D13104D4FF6FF700F4E01E0C3
:1031200016F81220591E25F812308BB28342C3EBD9
:10313000C302F5D100230A4AC4F8803184F8733100
:10314000C4F89420BDE8F0815C04002064040020F1
:10315000616601605808012044CF002024AA06605F
:10316000E8B806602DE9F0410546A8F031FD254A92
:103170000224254B40F28F1C10684FF0030812798F
:103180004FF0090EC5F80600D427AA72DF262C716D
:10319000EC7785F82340A5F844C085F8508085F881
:1031A00020E01A4C85F88D7085F88E6007CB1B786F
:1031B000C5F80E00CD20C5F812100021AB76C5F879
:1031C00016200C2285F88C00114B1248A5F84210ED
:1031D00085F8981085F89910696585F88F1001E0D9
:1031E00013F8182C511E183312B1425C01324254AC
:1031F000A342F5D10022084B85F85120C5F8943040
:10320000BDE8F0817004002078040020EF92016096
:10321000BF80016054EF0020E8350760F8B5044630
:10322000A8F0D6FC1E4A02251E4BD7271068D826C8
:103230009288C4F806006281257107CBC4F80E009D
:1032400004F13000C4F812101121C4F81620A8F0BF
:1032500077FC032200234FF0010ED9217F2084F850
:103260005020114A636584F88F3084F89830A4F8B0
:103270004400182084F820E084F88E10C4F88820D8
:10328000E57784F8235084F88C7084F88D60A8F07A
:1032900053FCA8F0A9FC054BC4F89430F8BD00BF5E
:1032A000880400209004002080C3C901E8B20760B0
:1032B000F8B5154D04462868F8B14FF4077200219F
:1032C000A8F04EFC114841F28833002102680768DB
:1032D000204602F5FA7225683B440D4E84F89C1096
:1032E00084F89D10E2663360AB6C98470121094B6E
:1032F000022284F86A101A70F8BD4FF40770A8F023
:10330000BFFC2860D9E700BF44F30020943B0120B4
:103310009CCF0020BDD2002010B5034C2068A8F03F
:10332000A7FC0023236010BD44F300200B290DD916
:10333000A1F117030A2B06D9A1F122031F2B08D8EC
:103340001E31C8B270470239C8B270470131C8B2E5
:1033500070470020704700BF70B505460C460AB99B
:1033600090F86A20012A34D0022A11D004EBC40359
:10337000194A202104EB4304A40004F11C032C345B
:103380001344224403F8011F9342FBD1012070BD76
:103390000A21114E4C23114A284603FB046383F88B
:1033A0003C102B68D3F8C43093420FD1FFF7BEFF17
:1033B00002464C232146284603FB046484F830204F
:1033C0002B68D3F8D4309847002070BD9847024648
:1033D000EFE70821DDE700BF6C5300202D330060CC
:1033E00010B584B00C460A2201466846A8F034FBAA
:1033F00069462046A8F020FC6846A8F095FB04B07A
:1034000010BD00BF542905D8012A18460BD0074922
:10341000A8F07ABB5C2903D918460549A8F074BB0B
:1034200019461046DCE70349A8F06EBB7C03002078
:10343000042400200015002070B590F84D308CB0A9
:103440000E4615463BB30446502104A8A8F0A4FB41
:10345000B4F848100A226846A8F0FEFA694604A8A3
:10346000A8F0FAFB04460A22314608A8A8F0F4FAAC
:1034700008A92046A8F0F0FB01462846A8F0DCFB8E
:1034800008A8A8F051FB6846A8F04EFB04A8A8F0D5
:103490002BFB0CB070BD502104A8A8F07DFB0A22C4
:1034A000314608A8A8F0D8FA08A904A8A8F0D4FBC7
:1034B0000749A8F009FC01462846A8F0BDFB08A86A
:1034C000A8F032FB04A8A8F00FFB0CB070BD00BF41
:1034D00038030020072930B5154689B005D91049B1
:1034E0001046A8F011FB09B030BD0C4668460D49E6
:1034F000A8F076FA0A22611C04A8A8F0ADFA04A983
:103500006846A8F0A9FB01462846A8F095FB04A848
:10351000A8F00AFB6846A8F0E7FA09B030BD00BF82
:10352000340300209C040020072930B5154689B0DB
:1035300005D910491046A8F0E7FA09B030BD0C468D
:1035400068460D49A8F04CFA0A22611C04A8A8F0AC
:1035500083FA04A96846A8F07FFB01462846A8F034
:103560006BFB04A8A8F0E0FA6846A8F0BDFA09B021
:1035700030BD00BF340300208C03002030B590F82C
:103580004D308DB014462BB30D460A22B0F84810CA
:103590006846A8F061FA694608A8A8F0DDFA0A2290
:1035A000294604A8A8F058FA04A908A8A8F054FBD2
:1035B0001449A8F089FB01462046A8F03DFB04A869
:1035C000A8F0B2FA08A8A8F08FFA6846A8F0ACFAFA
:1035D0000DB030BD0A2208A8A8F03EFA08A904A838
:1035E000A8F0BAFA04A80849A8F06EFB01462046E4
:1035F000A8F022FB04A8A8F077FA08A8A8F094FA8B
:103600000DB030BD38030020A404002030B589B0CF
:1036100005460C460B4904A8A8F0E2F9294668467D
:10362000A8F096FA694604A8A8F016FB01462046C1
:10363000A8F026FA6846A8F077FA04A8A8F054FA89
:1036400009B030BDA80400204BB20846002B01DDB4
:103650001146DBE710460149A8F0EABA0C03002046
:103660000F290B4608D95F2903D910460549A8F050
:10367000DFBA11461846C9E70349104601EB0311AA
:10368000A8F0D6BA0C030020B0AE01604B1E072B89
:1036900030B50C4689B0154629D909293FD00A29E9
:1036A00042D00B2945D00C2948D0A1F10D03722B33
:1036B00005D910462449A8F0BBFA09B030BD23490A
:1036C0006846A8F08DF9214604A8A8F041FA04A99B
:1036D0006846A8F0C1FA01462846A8F0D1F904A826
:1036E000A8F022FA6846A8F0FFF909B030BD1849E1
:1036F00004A8A8F075F921466846A8F029FA694699
:1037000004A8A8F0A9FA01462846A8F0B9F9684625
:10371000A8F00AFA04A8A8F0E7F909B030BD1046ED
:103720000C49A8F085FAC8E710460B49A8F080FAC2
:10373000C3E710460949A8F07BFABEE710460849DE
:10374000A8F076FAB9E700BF0C030020A804002017
:10375000AC040020B8040020C4040020D4040020DD
:10376000E00400200A7ACB79120470B402EB036201
:103770004E7A8C7A02EB0623094D2344AB420AD0E1
:10378000084A934205D1CA7A002380F8992080F82C
:10379000533070BC7047CB7A70BC80F8983070475B
:1037A0000030006000380060154BA3FB0123DB08EC
:1037B00003EB8302DBB2A1EB420110B490F8A94005
:1037C000184489B290F8A220A4B1022A0FD802EBC3
:1037D00082020C480C4C01EB420154F823305DF896
:1037E000044B00EB810131F8840C1844704705321A
:1037F000D2B2ECE702EB82020248044CEBE700BFD6
:10380000CDCCCCCC6C3008606C0100203C32002068
:1038100030B490F84E409DF808501CB190F821400B
:10382000AC4201D030BC704790F820409C42F9D1A6
:10383000A1B10C4B9830502403F23B1505E0AB428C
:1038400000F10100EED013F8154CA14203F115036D
:10385000F5D1141C18BF01240470F0E780F84C2047
:10386000E0E700BF6A75016030B42F4A1A2390F870
:10387000A94003FB012344BBB3F8EA38512B36D0EF
:10388000522B37D01D0403D5C3F30E0343F480330A
:1038900003F180531A2505FB012191F8FD288AB117
:1038A00002F00F0102F0F0020844102A90F8A11073
:1038B00026D0202A06D144BB042930D0052901D1C5
:1038C00003F20123184630BC7047B3F8EC58512D71
:1038D0000AD0522D11D02B0403D5C5F30E0545F4A3
:1038E0008035124B2B44D5E7114830BC7047114846
:1038F00030BC7047104830BC7047104830BC70472F
:103900000129DFD103F20620EFE7042904D00529BD
:10391000D8D103F5FA70E8E703F1F200E5E703F523
:1039200081731846CFE700BF9C6D01600000021054
:103930003F1008003F100100211001002110080075
:10394000F0B590F84E609DF8145026B190F82170B3
:103950000446AF4200D0F0BD90F820509D42FAD10D
:103960003C2923D0DFF860C00023A13415489CF81F
:1039700000E01F463E2505E001330134092B10D03D
:1039800010F80A5CA94200F10A00F5D1151C37466F
:103990004FF0020E18BF01250BB104F8092C257059
:1039A000EAE7002FD7D08CF800E0F0BD92B2C38CCC
:1039B0009342D0D001680385C2848B6CBDE8F0408F
:1039C000184700BFB8950160BDD2002090F898302C
:1039D000C1EBC101D3B1244B03EB8101B1F88A39AA
:1039E00003F47042B2F5204F1AD020D8B2F5004F40
:1039F00035D0B2F5104F27D190F871111B4A03F062
:103A00000F0332F81100184480B27047164B03EBD5
:103A10008101B1F8883903F47042B2F5204FE4D146
:103A200090F87221012A14BF07212921E6E7B2F597
:103A3000304F0CD0B2F5404F06D190F87321012AD7
:103A400014BF07212921D9E74FF6FF70704790F87E
:103A500074213AB1012A14BF25212821CEE790F81C
:103A60006F11CBE70221C9E7A45C016044CF0020BD
:103A700089291ED8F8B5CF001D4E90F899507A1AB2
:103A800006EB820292F8A229AA4210D80C46FFF750
:103A90009DFF4FF6FF7398420DD0B0F5877F06D299
:103AA000144BC0EBC00003EB40004078F8BD002091
:103AB000F8BD00207047022D03D9282C01D11A200F
:103AC000F8BD182C07D0472C05D03C1B06EB84060C
:103AD00096F88C09F8BD012D03D9022D03D12520BC
:103AE000F8BD2420F8BD032DEFD12720F8BD00BF7D
:103AF000A45C016024AA06600A7ACB79120470B42F
:103B000002EB03624E7A8C7A02EB0623114D2344BA
:103B1000AB420FD0104A934207D0104A93420ED1C5
:103B2000CB7A80F89B3070BC7047CB7A70BC80F841
:103B30009A307047CB7A70BC80F899307047084A49
:103B40009342F0D1CA7A002380F89C2080F8533049
:103B500070BC704703200018032100180A100018D9
:103B600032020018094A92F82D20042A00D070472A
:103B700090F85220002AFAD190F851100029F6D07E
:103B8000016880F85120CB6B184700BF10E9002076
:103B90000E4A4379127801339A4201D000207047CF
:103BA00090F89930FF2B08D0094A4C2000FB0121E6
:103BB0004A8ED108B1EB530F01D001207047B3EB0F
:103BC000920F0CBF01200020704700BFD5D300200A
:103BD0006C5300200E4A4379127801339A4201D087
:103BE0000020704790F8AA30FF2B08D0094A4C20DB
:103BF00000FB01214A8ED108B1EB530F01D0012007
:103C00007047B3EB920F0CBF01200020704700BF3C
:103C1000D5D300206C5300200E4A4379127801332B
:103C20009A4201D00020704790F8A830FF2B08D0AE
:103C3000094A4C2000FB01214A8ED108B1EB530FF9
:103C400001D001207047B3EB920F0CBF0120002080
:103C5000704700BFD5D300206C530020134A43792E
:103C6000127801339A4201D00020704790F8A220C8
:103C7000FF2A19D00E480F4B10B54C2404FB01014C
:103C80000D48498EA0FB02E4A3FB01E35B08B3EB04
:103C9000540F01D0012010BDA0FB0131B2EB510F38
:103CA0000CBF0120002010BD01207047D5D300209B
:103CB0006C530020398EE338ABAAAAAAF0B590F86D
:103CC0004D300F4691B005461646B0F84810002B0F
:103CD00039D02E4C0A2208A8A4FB0131C908A7F04C
:103CE000BBFE08A90CA8A7F037FFB5F848100A22B8
:103CF00004A8A4FB0134E40804EB8404A1EB440110
:103D000089B2A7F0A9FE04A90CA8A7F0A5FF044654
:103D10000A2239466846A7F09FFE69462046A7F06A
:103D20009BFF01463046A7F087FF6846A7F0FCFEE0
:103D300004A8A7F0F9FE0CA8A7F0D6FE08A8A7F0E3
:103D4000F3FE11B0F0BD0A2204A8A7F085FE04A975
:103D50000CA8A7F001FF0A22394608A8A7F07CFEAC
:103D600008A90CA8A7F078FF0949A7F0ADFF014604
:103D70003046A7F061FF08A8A7F0D6FE0CA8A7F070
:103D8000B3FE04A8A7F0D0FE11B0F0BDCDCCCCCCD2
:103D90003803002070B590F84D308CB00E461546B3
:103DA00053B30446552108A8A7F0F6FEB4F848100E
:103DB0000A2204A8A7F050FE04A908A8A7F04CFF07
:103DC00004460A2231466846A7F046FE6946204668
:103DD000A7F042FF1649A7F077FF01462846A7F053
:103DE0002BFF6846A7F0A0FE04A8A7F09DFE08A838
:103DF000A7F07AFE0CB070BD552108A8A7F0CCFE44
:103E00000A22314604A8A7F027FE04A908A8A7F0B3
:103E100023FF0849A7F058FF01462846A7F00CFFEA
:103E200004A8A7F081FE08A8A7F05EFE0CB070BD44
:103E30005C030020580300204A7A0B7A120470B405
:103E400002EB03628E7ACC7A02EB0623094D2344FF
:103E5000AB420AD0084A934205D10A7B002380F87E
:103E6000992080F8533070BC70470B7B70BC80F891
:103E70009830704700100020040800205C2920D8EA
:103E8000542938B513D915460C46811D1046A7F0A4
:103E90003BFE20212846A7F07BFE0A4BC4EBC40161
:103EA000284603EB4101BDE83840A7F02DBE054B85
:103EB000C1EBC101104603EB4101BDE83840A7F05A
:103EC00023BE7047C831086090F8693003B9704765
:103ED00030B50D4685B004462D212846A7F058FE82
:103EE00094F869106846A7F033FE69462846A7F0A3
:103EF000A3FE6846A7F018FE05B030BD90F84E202E
:103F000080F8512002B970470268C18C536C184781
:103F100090F84D30ABB1B0F8483013B909B9002072
:103F20007047B0F8442003EB8303B0F8420001EB84
:103F30004301131A0133B3EB810FACBF0120002002
:103F40007047B0F8443001EB8101B0F842209B1A71
:103F50000133B3EBC10FACBF01200020704700BF9D
:103F600038B590F84E501DB190F821509D4200D0C8
:103F700038BD90F820309342FAD189B2C38C8B427D
:103F8000F6D090F84C50026801EBC5110385936C94
:103F9000C1849847014B02221A70E9E7BDD2002084
:103FA00038B590F821509D4200D038BD90F82030AF
:103FB0009342FAD189B2C38C8B42F6D00268038552
:103FC000C184936C9847024B02221A70EDE700BF40
:103FD000BDD2002090F86A3093B10133DBB2032BDD
:103FE00088BF012380F86A30036810B5D3F8E83041
:103FF0000C4698470349044B01220C701A7010BDFF
:10400000704700BF8C920020BDD2002090F84D3048
:1040100063B1B0F84820B0F8423003EBC200084466
:1040200080B200B97047013880B27047B0F84830AC
:10403000B0F8420003EB830301EB430100EBC10145
:1040400088B2704790F84D30A3B1144AB0F84830A8
:1040500092F83E20002A14BF0420082023B9884289
:1040600034BF002001207047481E07288CBF002065
:1040700001207047B0F84830B0F8442003EB8303C8
:1040800010B4B0F8424001EB4300131B5DF8044B41
:10409000B3EBC00FACBF01200020704710E9002037
:1040A00010B590F821409C4200D010BD90F820300F
:1040B0009342FAD1042916D0032911D989B2C38CAD
:1040C0008B42F2D0026804460385C184136D984781
:1040D000236820469B6C9847044B02221A70E4E741
:1040E0000131C9B2EBE70021E9E700BFBDD20020F2
:1040F00030B490F89A306BB390F84D3033B1B0F8DB
:104100004830BBB9B1B9002030BC7047B0F8485056
:104110004FF4FA73B0F84440322203FB05F3B0F8D1
:10412000420012FB0131201A814230BCCCBF00207A
:10413000012070473224B0F8442001EB8101B0F82F
:10414000420004FB0313101A834230BCCCBF002092
:1041500001207047012030BC704700BF0379002266
:10416000022B80F84F2000D0704790F84E30002B83
:10417000FAD1012380F8211080F89830704700BFF1
:1041800038B590F821509D4200D038BD90F82030CD
:104190009342FAD189B2C38C8B42F6D00268038570
:1041A000C184936C9847024B02221A70EDE700BF5E
:1041B000BDD2002090F84D30A3B1B0F8483013B90B
:1041C00009B900207047B0F8442003EB8303B0F82E
:1041D000420001EB4301131AB3EB810FACBF012086
:1041E00000207047B0F8443001EB8101B0F8422064
:1041F0009B1AB3EBC10FACBF01200020704700BF7A
:1042000090F89D2002B9704703685B6F184700BFA4
:104210000379022B01D008467047002300F1980271
:10422000F0B41C4601E05D2B0CD012F8015FDFB248
:10423000661C0133002DF6D0A142F4B2F3D1B8B21E
:10424000F0BC70474FF6FF70F0BC7047A1F10B0354
:10425000032B01D8802070470368074AD3F89830B1
:10426000934210B50C4605D11220844234BF02207F
:10427000002010BD9847F8E7B5140060036810B53A
:10428000D3F8983082B00F4CA34214D15D208842FD
:1042900006D810460C4902B0BDE81040A7F0C8BCD3
:1042A0000A4BC1EBC101104603EB410102B0BDE86E
:1042B0001040A7F0BDBC8DE8060098479DE80600B9
:1042C000E5E700BFA912006004240020C83108609F
:1042D00003680B4AD3F89830934205D108208842EE
:1042E0008CBF02200020704700B583B00191984731
:1042F000019988428CBF0220002003B05DF804FBC6
:10430000F1120060036810B5D3F8983082B00F4CFA
:10431000A34215D12F20884206D810460C4902B07E
:10432000BDE81040A7F084BC0A4B01EB41011046E8
:1043300003EBC101093102B0BDE81040A7F078BC21
:104340008DE8060098479DE80600E4E7F512006056
:1043500004240020A45C0160F0B504688BB03B4FDE
:104360001646D4F898501C46BD422FD12F208842C3
:1043700026D901EB4101364800EBC101898A0BB215
:10438000002B4BDD47F61643994223D047F61743DF
:1043900099424CD047F61543994221D08A192D49AC
:1043A00006A8013A02EBC2021144A7F029FC06A9B3
:1043B0002046A7F041FC06A8A7F0B6FB0BB0F0BD65
:1043C00020462549A7F0A0FB0BB0F0BD0191A847FE
:1043D0000199CCE771000A2206A8A7F03DFBE6E7A9
:1043E0003F2E26D9402E2BD0EED91C4906A8A7F087
:1043F000F7FAA6F132010A2202A8A7F02DFB02A9C2
:1044000006A8A7F029FC01462046A7F015FC02A843
:10441000A7F08AFB06A8A7F067FBD5E7012E204688
:104420000CBF0F490F49A7F06FFB0BB0F0BD314631
:10443000D1E70D4906A8A7F0D3FAC6F13201DAE7B1
:1044400020460A49A7F060FBBEE700BFF5120060F6
:10445000A45C0160E036086004240020EC10002019
:10446000001500207C030020780300207821002024
:10447000036810B5D3F8983082B00F4CA34215D121
:104480002E20884206D810460C4902B0BDE81040E4
:10449000A7F0CEBB0A4B01EB4101104603EBC10173
:1044A000093102B0BDE81040A7F0C2BB8DE806009C
:1044B00098479DE80600E4E7791300600424002093
:1044C0000C610160F0B504688BB0394F1646D4F822
:1044D00098501C46BD4229D12E20884220D901EB9C
:1044E0004101344800EBC101B1F87C140BB2002B40
:1044F00049DD47F6154399421CD03AD347F6174396
:10450000994236D831460A2206A8A7F0A5FA06A98C
:104510002046A7F091FB06A8A7F006FB0BB0F0BD64
:1045200020462549A7F0F0FA0BB0F0BD0191A8474D
:104530000199D2E73F2E2FD9402E34D0F4D91F490C
:1045400006A8A7F04DFAA6F132010A2202A8A7F0A8
:1045500083FA02A906A8A7F07FFB01462046A7F030
:104560006BFB02A8A7F0E0FA06A8A7F0BDFA0BB013
:10457000F0BD8A19124906A8013A02EBC2021144A1
:10458000A7F03EFBC3E7012E20460CBF0D490E49A4
:10459000A7F0BAFA0BB0F0BD0C4906A8A7F020FAB4
:1045A000C6F13201D1E720460949A7F0ADFABBE7D1
:1045B00079130060A45C016004240020EC1000204A
:1045C000643D0860001500207C0300207803002073
:1045D00078210020036810B5D3F898300C460F49B5
:1045E00082B08B4215D11020A04206D810460C494B
:1045F00002B0BDE81040A7F01BBB04EB440309491F
:10460000104604EB8304214402B0BDE81040A7F03B
:104610000FBB01929847019AE6E700BFC5150060FD
:10462000042400205C65016030B5046885B00E4D3F
:10463000D4F89840AC4210D11020884206D81846D1
:104640000A4905B0BDE83040A7F05EBA19461046E9
:1046500005B0BDE83040FEF7C3BE0393029201915E
:10466000A04701A90EC9E8E7C515006000050020B4
:10467000036810B5D3F8983082B00E4CA34212D123
:104680001220884206D810460B4902B0BDE81040FF
:10469000A7F0CEBA094B104603EB011102B0BDE8FA
:1046A0001040A7F0C5BA8DE8060098479DE80600BF
:1046B000E7E700BFB51400600424002018930160F0
:1046C00030B5046885B00E4DD4F89840AC4210D196
:1046D0001220884206D818460A4905B0BDE8304085
:1046E000A7F012BA1946104605B0BDE83040FEF7F3
:1046F00077BE039302920191A04701A90EC9E8E792
:10470000B514006000050020F8B503680646444D66
:104710000C46D3F898301746AB425AD18A20A042B3
:1047200044D9892C57D821463046FFF74FF94FF628
:10473000FF73054698424ED096F89830C4EBC404F7
:104740001BB3384B03EB8404B4F88A3903F4704389
:10475000B3F5204F23D02FD8B3F5004F4ED0B3F58B
:10476000104F59D130493846A7F062FA96F87121B6
:10477000C5EBC5052D496D004B5D934245D03846CC
:104780002B49BDE8F840A7F0BFB9264B03EB8404E2
:10479000B4F8883903F47043B3F5204FDBD196F8B1
:1047A0007231012B14BF07222922E1E73846214943
:1047B000BDE8F840A7F03CBAB3F5304F16D0B3F5DA
:1047C000404F29D196F87331012B14BF07222922BB
:1047D000CEE79847A3E7C4EBC404174B384603EB76
:1047E0008401BDE8F8400531A7F022BA96F874318B
:1047F000A3B1012B0CBF28222522B9E70F49384667
:10480000A7F016FA96F86F21B2E72944384602312C
:10481000BDE8F840A7F078B90022A9E70222A7E78F
:104820005D150060A45C01609803002024AA066066
:1048300034030020042400202C66016004050020BD
:10484000F0B515460268DFF8B8E21E46D2F8983097
:1048500089B007460C4673452CD18A20A04223D943
:10486000892C29D838462146FFF7B0F84FF6FF7358
:10487000984221D0904BC0EBC00003EB40008289EE
:1048800013B2002B22DD8D4B1344092B00F2E9807B
:10489000DFE813F033005400AC007C0081005600C8
:1048A0006B00C300E200250030468549A7F02CF9D3
:1048B00009B0F0BD9847D1E7824BC4EBC40403EBC9
:1048C0008404B4F89E2913B2002BDCDC012D3046A1
:1048D0000CBF7D497D49A7F017F909B0F0BD294605
:1048E0000A2204A8A7F0B8F804A93046A7F0A4F952
:1048F00004A8A7F019F909B0F0BD182D00F2C7807F
:10490000B5F118014FF00A0204A848BFA5F117013C
:104910004910A7F0A1F804A93046A7F08DF904A822
:10492000A7F002F9EB07304654BF69496949A7F07F
:10493000EBF830466849A7F0E7F8B9E7691CCFE71C
:10494000142D00F2A9800A22A5F1140104A8A7F0F1
:1049500083F804A93046A7F06FF904A8A7F0E4F89B
:1049600030465D49A7F0D0F8A2E729460A2204A8FC
:10497000A7F072F804A93046A7F05EF904A8A7F0E2
:10498000D3F830465549A7F0BFF891E7182D79D8EC
:10499000A5F11801A4E70135514C0A2204A8ADB2D3
:1049A000A4FB0534E408214604EB8404A7F054F882
:1049B00004A93046A7F040F904A8A7F0B5F8494982
:1049C0003046A7F0A1F80A22A5EB440104A889B259
:1049D000A7F042F804A93046A7F02EF904A8A7F0E2
:1049E000A3F830464049A7F08FF861E70A2269082A
:1049F00004A805F00105A7F02FF804A93046A7F098
:104A00001BF904A8A7F090F836493046A7F07CF8C7
:104A100004A8A9000A222944AAE73F2D2BD9402D3A
:104A200044D07FF645AF314904A8A6F0D9FFA5F1DF
:104A300032010A226846A7F00FF8694604A8A7F0D9
:104A40000BF901463046A7F0F7F86846A7F06CF876
:104A500004A8A7F049F82BE7322D22D8A5F132019E
:104A60003EE72A44224904A8013A02EBC20211445B
:104A7000A7F0C6F838E71F4904A8A6F0B1FFC5F1B2
:104A80003201D6E71C493046A7F03EF880E71A49C4
:104A90003046A7F039F833E717493046A7F034F825
:104AA00051E715493046A7F02FF8D7E730461349AC
:104AB000A7F02AF8FCE600BF24AA0660F283FFFFF5
:104AC00004240020A45C0160001500207C03002069
:104AD000180500201C050020140500200C050020EE
:104AE000CDCCCCCCA414002020050020EC1000205C
:104AF0007043086078030020100500207821002012
:104B00005D150060036810B5D3F898300C460F4966
:104B100082B08B4215D11020A04206D810460C4915
:104B200002B0BDE81040A7F083B804EB4403094984
:104B30001046C4EBC304214402B0BDE81040A7F006
:104B400077B801929847019AE6E700BFC515006063
:104B50000424002038940160F8B5A1F10E05012D60
:104B60001DD91D4603681746114AD3F898300C46E4
:104B700093421AD110208442284606D2012F09D030
:104B80000C49BDE8F840A6F0BFBF0B49BDE8F840AE
:104B9000A6F0BABF0949BDE8F840A6F0B5BF19466E
:104BA0001046BDE8F840FEF71BBC9847E3E700BF9E
:104BB000C515006024050020000500200015002018
:104BC000036810B5D3F8983082B00F4CA34214D1CB
:104BD0000920884206D810460C4902B0BDE81040B2
:104BE000A7F026B80A4B01EB8101104603EB410107
:104BF00002B0BDE81040A7F01BB88DE8060098474A
:104C00009DE80600E5E700BF81160060042400204F
:104C1000A895016030B5046885B00E4DD4F8984071
:104C2000AC4210D10920884206D818460A4905B07E
:104C3000BDE83040A6F068BF1946104605B0BDE893
:104C40003040FEF7CDBB039302920191A04701A92A
:104C50000EC9E8E78116006000050020036810B562
:104C6000D3F8983082B00F4CA34215D10F20884260
:104C700006D810460C4902B0BDE81040A6F0D8BFD7
:104C800001EB4101094B1046C1EBC101194402B0CF
:104C9000BDE81040A6F0CCBF8DE8060098479DE81F
:104CA0000600E4E7911600600424002044750160CA
:104CB00030B5046885B00E4DD4F89840AC4210D1A0
:104CC0000F20884206D818460A4905B0BDE8304092
:104CD000A6F01ABF1946104605B0BDE83040FEF7F1
:104CE0007FBB039302920191A04701A90EC9E8E797
:104CF0009116006000050020036810B5D3F89830C5
:104D00000C460E4982B08B4214D16320A04206D8D3
:104D100010460B4902B0BDE81040A6F089BF094B10
:104D20001A21104601FB04310B3102B0BDE81040DE
:104D3000A6F07EBF01929847019AE7E751170060FD
:104D40000424002080760160036810B5D3F8983001
:104D500082B00F4CA34215D1B020884206D810462D
:104D60000C4902B0BDE81040A6F062BF0A4B01EB4F
:104D70004101104603EBC101033102B0BDE8104010
:104D8000A6F056BF8DE8060098479DE80600E4E7C8
:104D9000C11700600424002090800160F0B5046811
:104DA0008BB03B4F1646D4F898401D46BC422FD1DD
:104DB000B020884226D901EB4101364800EBC10101
:104DC000B1F810120BB2002B4ADD47F61643994298
:104DD00022D047F6174399424BD047F615439942E4
:104DE00020D031442C4B06A8013903EBC101A6F0B9
:104DF00007FF06A92846A6F01FFF06A8A6F094FE06
:104E00000BB0F0BD28462549A6F07EFE0BB0F0BDE4
:104E10000191A0470199CCE771000A2206A8A6F0EB
:104E20001BFEE6E7312E26D9322E2BD0EED91C49B7
:104E300006A8A6F0D5FDA6F132010A2202A8A6F026
:104E40000BFE02A906A8A6F007FF01462846A6F019
:104E5000F3FE02A8A6F068FE06A8A6F045FED5E778
:104E6000012E28460CBF0F490F49A6F04DFE0BB08E
:104E7000F0BD3146D1E70D4906A8A6F0B1FDC6F157
:104E80003201DAE728460A49A6F03EFEBEE700BF37
:104E9000C1170060947E0160084E08600424002061
:104EA000EC100020001500207C0300207803002077
:104EB0007821002003680B4AD3F89830934205D13B
:104EC000062088428CBF02200020704700B583B0C6
:104ED00001919847019988428CBF0220002003B0BD
:104EE0005DF804FB81180060036830B5D3F8983092
:104EF0000C46164989B015468B4224D10620A042A3
:104F000005D813492846A6F093FE09B030BD1149D3
:104F10006846A6F065FD0A22611C04A8A6F09CFD67
:104F200004A96846A6F098FE0B49A6F0CDFE0146FE
:104F30002846A6F0A5FD04A8A6F0F6FD6846A6F052
:104F4000D3FD09B030BD9847D9E700BF8118006094
:104F5000042400202C0500203005002003680B4AA3
:104F6000D3F89830934205D1062088428CBF0220A6
:104F70000020704700B583B001919847019988429D
:104F80008CBF0220002003B05DF804FB8118006094
:104F900030B5046885B00F4DD4F89840AC4212D1BA
:104FA00006208842184608D9012A0CBF0A490B4935
:104FB00005B0BDE83040A6F0A7BD094905B0BDE881
:104FC0003040A6F0A1BD039302920191A04701A930
:104FD0000EC9E6E781180060001500207C03002060
:104FE00004240020A1F10E02012A01D8802070477C
:104FF0000368074AD3F89830934210B50C4605D1A0
:105000001020844234BF0220002010BD9847F8E7EA
:10501000C5150060C28C8A4208B503460AD001203B
:105020001A85D98483F8390101230649064A0B7091
:10503000137008BD0368054A5B6F9342F4D098472C
:10504000F2E700BFD4400020249200208503000036
:1050500090F8A53090F8A4101BB111B11846A6F035
:10506000BFBD7047F0B58DB00C4607462449684671
:105070001546A6F0B5FC0A22611E04A8A6F0ECFCB9
:1050800004A968460B3CA6F0E7FD1E49A6F01CFEED
:105090000646294608A8A6F05BFD08A93046A6F0FA
:1050A000DBFD01461848A6F0FBFD1748A6F0F0FD11
:1050B00008A8A6F039FD04A8A6F036FD6846A6F0BB
:1050C00013FD052C06D8DFE804F0070B0F131703B8
:1050D00087F869540DB0F0BD87F864540DB0F0BD89
:1050E00087F867540DB0F0BD87F865540DB0F0BD7A
:1050F00087F868540DB0F0BD87F866540DB0F0BD68
:10510000300600203015002094490020B34BC1EB3D
:10511000C10103EB8101F0B591F8A22991B090F89B
:1051200099309A4242D890F89820C2B1B1F88A4991
:1051300004F47041B1F5104F00F0218140F29D80E0
:10514000B1F5304F00F0A880B1F5404F00F0C980B4
:10515000B1F5204F00F0BE8004F1C04427E0B1F863
:10516000884904F47041B1F5104F00F0CC8021D98A
:10517000B1F5304F00F09080B1F5404F00F00A815A
:10518000B1F5204FE8D1964D964990F87221002A4A
:1051900000F0A380022B8CBF00230123002B40F0E2
:1051A0009C80012A00F00E811C4600E0002420466D
:1051B00011B0F0BDB1F5E04F00F08380B1F5004FC4
:1051C000CAD190F86F518848E9004318B3F8545495
:1051D000014404F00F0491F85A349C42E6DA2C445E
:1051E000A4B2210604D547F67F73234003F58074EB
:1051F000002A40F0D480B4F5127F00F0E780264604
:1052000004F1C04479496846A6F0EAFB0A22314617
:1052100004A8A6F021FC04A96846A6F01DFD744967
:10522000A6F052FD07460A22294608A8A6F014FC5B
:1052300008A93846A6F010FD6E49A6F045FD0546C2
:105240000A2231460CA8A6F007FC0CA92846A6F0B5
:1052500003FD01466848A6F023FD6748A6F018FD47
:105260000CA8A6F061FC08A8A6F05EFC04A8A6F0B5
:105270005BFC6846A6F038FC99E7B1F5E04F20D01A
:10528000B1F5004F7FF468AF90F86F515648E900D0
:105290004318B3F858549BE790F8743104F00F04A6
:1052A000514903EB430301EB430393F8A8158C42E8
:1052B000BFF67CAF42B1B3F8A63503F1C0431C443E
:1052C00075E7C4F30B0472E7B3F8A43503F1C043E8
:1052D0001C446CE7494D4A4957E704F00F040C445D
:1052E00065E71E261325022B90F8731107D9B1FA32
:1052F00081F252091AB9012960D0144657E704F027
:105300000F042C4453E790F871113748CB00C118B3
:10531000B1F85614184404F07F0490F85A349C42B3
:10532000BFF644AF214489B20B0604D547F67F731C
:105330000B4003F58071002A39D140F25443994261
:1053400048D00D4601F1C0442E4908A8A6F048FBFC
:105350000A2229460CA8A6F07FFB0CA908A8A6F0F3
:105360007BFC01462448A6F09BFC2348A6F090FC59
:105370000CA8A6F0D9FB08A8A6F0B6FB17E790F892
:1053800071111948CB00C118B1F8581401F500711A
:1053900089B2BFE74FF4886640F23345A3E7B4F51E
:1053A000AE7F7FF42CAF184C40F271562AE7B1F56E
:1053B000577FC6D1144C40F27155C5E704F00F0376
:1053C0009C19F4E604F00F035C19F0E60F4C4FF45F
:1053D000E36617E70D4C4FF4E365B5E7A45C0160A5
:1053E00031010060051100605C5208605C0600201D
:1053F0001005002074060020944900204D00006034
:105400004200006078060020710500601807006007
:105410008929F8B50C461746064618D9C4EBC404CA
:10542000174996F89930A4000A1992F8A2299A42CD
:1054300007D82144384601F68D11BDE8F840A6F0A2
:1054400063BB38460F49BDE8F840A6F05DBBFEF7E8
:10545000BDFA4FF6FF7305469842DFD0E1B2304601
:10546000FFF754FE0028ECD0C5EBC50506493846C9
:1054700001EB4501BDE8F8400231A6F045BB00BF95
:10548000A45C01603403002024AA06602DE9F043E7
:105490001D4D95B081468846EC46DFF878E005AEB4
:1054A0001A4F0AAC0FCDACE80F002B68184D8CF8E2
:1054B0000030BEE80F000FC60FCFDEF800E03F68F7
:1054C00086F800E00FC427700FAC0FCD99F86A6022
:1054D0002D68012E0FC425700BD0022E0ED0032E86
:1054E00040460CBF0FA96946A6F096FA15B0BDE874
:1054F000F08305A94046A6F08FFAF7E70AA94046CF
:10550000A6F08AFAF2E700BF7009002084090020A3
:1055100098090020AC0900202DE9F0431C4D95B0FE
:1055200081468846EC46DFF874E005AE194F0AACB8
:105530000FCDACE80F002B68174D8CF80030BEE89B
:105540000F000FC60FCFDEF800E03F6886F800E0DE
:105550000FC427700FAC0FCD99F86A602D68012E2B
:105560000FC425700AD0022E0DD08CBF0FA969463A
:105570004046A6F051FA15B0BDE8F08305A94046B3
:10558000A6F04AFAF7E70AA94046A6F045FAF2E77C
:10559000C0090020D4090020E8090020FC090020EF
:1055A00070B5054684B00E4622B3543215484C23DC
:1055B0000021D4B203FB060368465C86C4EBC40436
:1055C000A6F01EFBA91D6846A6F032FB6846202106
:1055D000A6F0DEFA0C49684601EB4401A6F094FA05
:1055E00069463046A6F064FA6846A6F09DFA0120A6
:1055F00004B070BD90F86A20002AD6D1012004B012
:1056000070BD00BF6C530020C831086070B588B011
:1056100006460C461E4968461546A6F0F1FA1D4995
:105620004C230220A5F10E0203FB0413012AD871BA
:10563000F07F83F82E0009D920466946A6F038FA93
:105640006846A6F071FA012008B070BD0E2D1AD080
:1056500096F8692083F842204C230A2204A803FB11
:1056600004114B7A042B0CBF91F8421091F84410AE
:105670000131A6F0F1F904A96846A6F0DDFA04A804
:10568000A6F052FAD8E796F8682083F84220E3E7BC
:10569000F80200206C530020174B70B51E6884B0D0
:1056A000B6B102EB42030C4615466846C3EB031144
:1056B0003144A6F0A5FA0B2D05D96846A6F034FAB8
:1056C000012004B070BD20466946A6F0F1F9F4E768
:1056D00001EBC103094A202001EB4301890001F1DC
:1056E0001C032C3113440A4403F8010F9342FBD1ED
:1056F000012004B070BD00BF44F300206C530020B3
:10570000F0B585B0064614460D4668462649A6F013
:1057100077FA301990F898304BBBB4FA84F1490904
:1057200029BB4C22214E224B02FB0566A200F171DF
:1057300086F82E10144403EB440494F8241661B147
:1057400090F898204B1E1B496846134403EB8302D4
:1057500003EB42031944A6F0D7F928466946A6F0A0
:10576000A7F96846A6F0E0F9012005B0F0BD90F871
:10577000A1300E4F8BB14C23012203FB0573DA716C
:10578000A2000B4B4C21161901FB057103EB4606D9
:1057900096F8256681F82E60CCE74C23022203FBA5
:1057A0000573DA71ECE700BFF80200206C530020AB
:1057B0008C8F01603C68086070B50646154684B061
:1057C0000C46354411496846A6F01AFA95F8983007
:1057D000ABB10F4B4C22012102FB0432D1714C259D
:1057E000F27F2046694605FB043484F82E20A6F09B
:1057F0005FF96846A6F098F9012004B070BD044B2B
:105800004C22022102FB0432D171E8E7F8020020A9
:105810006C5300202DE9F04FDFF80C8391B0D8F8DD
:105820000030002B00F0118115460E460746B449A2
:105830000CA8A6F0D5F80A22294608A8A6F00CF96B
:1058400008A90CA8A6F008FA0146AE48A6F028FA66
:10585000AC48A6F01DFA08A8A6F066F90CA8A6F0B8
:1058600043F96846A849A6F0CBF90B2D00F2A080B9
:10587000DFF8B0924C210220D8F8002001FB0691FD
:105880000024A24BC8712146F88C00EB4000C0EB0D
:10589000001002442A44507D92F821E006E00134D1
:1058A0001333712C00F0938013F8131C88425FFAB5
:1058B00084FAF4D113F8122C7245F0D194490CA853
:1058C000A6F08EF8514608A8A6F042F908A90CA83F
:1058D000A6F0C2F901468B48A6F0E2F98948A6F085
:1058E000D7F908A8A6F020F90CA8A6F0FDF8BAF19F
:1058F000000F00F0858004EBC4038649684604EB82
:1059000043042144A6F000F9FC8C834A08A804EB68
:1059100044048249A2FB0532D8F80030C4EB0414D9
:105920005208234402EB420E1A44CEEB050492F8CF
:1059300011A0A6F055F8013404A85146A6F008F9C4
:1059400004A908A8E4B2A6F087F97549A6F0BCF945
:10595000834621460CA8A6F0FBF80CA95846A6F0F1
:105960007BF901466748A6F09BF96648A6F090F9D6
:105970000CA8A6F0D9F804A8A6F0D6F808A8A6F0B6
:10598000B3F8A24500F0B680FB8CD8F8002003EBFA
:105990004303C3EB031313441D446B7D023B072BEE
:1059A00000F2A180DFE803F08A8398919F9F9F8394
:1059B0005C494C23FA7F3D4403FB061383F82E20F9
:1059C00095F88C20002A44D00122DA7132E0504947
:1059D0000CA8A6F005F8002108A8A6F0B9F808A9B7
:1059E0000CA8A6F039F901464648A6F059F94548F1
:1059F000A6F04EF908A8A6F097F80CA8A6F074F83F
:105A0000FB8CD8F8002003EB4303474CC3EB031394
:105A100013442B4493F8212012B197F84E20D2B9A9
:105A200042496846A6F004F94C23002203FB06997C
:105A300089F82E2030466946A6F03AF86846A6F066
:105A400073F8012011B0BDE8F08F184611B0BDE821
:105A5000F08FDA71EEE7597D04A8A6F079F804A971
:105A600008A8A6F079F8324908A8A6F02DF9FB8C11
:105A70002268804603EB43030CA8C3EB03131344D3
:105A80001D4495F82110A6F063F80CA94046A6F035
:105A9000E3F801466846A6F0CFF80CA8A6F044F853
:105AA00008A8A6F021F804A8A6F03EF8BCE74C230D
:105AB000EA2203FB069989F82E20BBE74C23E92252
:105AC00003FB069989F82E20B4E74C23EC2203FB54
:105AD000069989F82E20ADE74C23E82203FB0699AE
:105AE00089F82E20A6E74C23ED2203FB069989F8BE
:105AF0002E209FE74C23012203FB0693DA7143E734
:105B0000100A002094490020F8020020BF9901608B
:105B1000300A0020AE990160ABAAAAAA3C0A002074
:105B2000480A00206C53002044F300203403002076
:105B3000381700202DE9F04F8BB09A4604460F46E7
:105B40009DF8509002A888491546B9FA89F6760959
:105B5000A6F056F8BAF1000F1ED1EEB1002D40F0BC
:105B6000FC80172304F5886204F58960E11801338D
:105B700091F87013DBB202F8011F8242F6D104F2F1
:105B8000414106A8A6F03CF806A8102202A9A5F0FB
:105B9000F3FF06A8A5F0C8FF1AF1000B18BF4FF0DD
:105BA000010B002E4BD0BBF1000F48D0002D40F070
:105BB000CE80172304F5886804F589604246E11811
:105BC000013391F87013DBB202F8011F8242F6D163
:105BD00004F2414306AE194630460193A6F010F890
:105BE000082230460DEB0201A5F0C6FF3046A5F0B5
:105BF0009BFF202102A8A5F0CBFF0AF1FF32019BF9
:105C000002EB4201C2EBC101C9B201F117021F311F
:105C1000D2B2C9B2A0180132D2B290F87003914248
:105C200008F8010FF6D119463046A5F0E9FF3046D5
:105C3000072202A9A5F0A0FF3046A5F075FFB9F133
:105C4000000F73D0BBF1000F70D0002D79D1172356
:105C500004F5886504F589602A46E118013391F856
:105C60007013DBB202F8011F9042F6D106AE04F2C7
:105C700041480AF1FF3A41463046A5F0C1FF0522EE
:105C800002A93046A5F078FF3046A5F04DFF20214F
:105C900002A8A5F07DFF29460AEB4A02CAEBC20A18
:105CA0005FFA8AFA0AF117030AF11F0ADBB25FFAF8
:105CB0008AF2E0180133DBB290F870039A4201F8DF
:105CC000010FF6D141463046A5F09AFF052202A900
:105CD0003046A5F051FF09F1FF393046A5F024FF09
:105CE000202102A8A5F054FF09EB4902C9EBC20923
:105CF0005FFA89F909F1170309F11F09DBB25FFAAD
:105D000089F2E1180133DBB291F87013934205F880
:105D1000011FF6D141463046A5F072FF30460422FD
:105D200002A9A5F029FF3046A5F0FEFE384602A9DB
:105D3000A5F0BEFE02A8A5F0F7FE01200BB0BDE85D
:105D4000F08F05EB4503C5EBC303DBB280E705EB42
:105D50004503C5EBC303DBB22CE705EB4503C5EBFD
:105D6000C303DBB2FEE600BFF8020020114A4C2359
:105D700003FB012393F83230013BD8B20A2812D931
:105D800001EBC10001EB4001890001F11C032C3142
:105D900010B4134420240A4403F8014F9342FBD16A
:105DA0005DF8044B704703EB0313034A0846D11810
:105DB000A5F03ABF6C530020986B0860F0B585B031
:105DC000144606460D4668467949A5F019FF0CB9F8
:105DD00096F86A40013C052C00F29D80DFE804F053
:105DE00042545658630396F87121724FBB1893F8CA
:105DF0000039002B00F0AC806F49684631F8124042
:105E00006E49013C23449CB2A5F012FF96F8703114
:105E1000002B00F0BC80C4EBC4046949684601EB68
:105E200044010231A5F070FE96F870311BB92921AA
:105E30006846A5F0ADFE69462846A5F039FE96F8FD
:105E400071114C235F4A07EB4107012403FB052531
:105E500097F82D3985F82E306846A5F065FE204666
:105E600005B0F0BD58492846A5F0DEFE55494C2343
:105E7000F27F012403FB0515684685F82E20A5F066
:105E800053FE204605B0F0BD5049ECE75049EAE723
:105E900096F87431002B73D0012B00F08280022B16
:105EA000E4D14C49DFE796F86F21424FBB1893F8D5
:105EB0000039002B60D04049684631F8124046490D
:105EC000013C23449CB2A5F0B3FE96F86E31002B42
:105ED00062D0C4EBC4043A49684601EB4401023184
:105EE000A5F012FE96F86E311BB929216846A5F07F
:105EF0004FFE69462846A5F0DBFD96F86F214C233E
:105F0000304907EB4207012403FB051597F82D39AB
:105F100085F82E30A0E705EBC5022A48202105EBC5
:105F20004202920002F11C032C320344024403F8A3
:105F3000011F9342FBD14C220023012402FB0505E3
:105F4000684685F82E30A5F0EFFD204605B0F0BD7F
:105F50001C4A4C23462003FB05233468024629468D
:105F6000D4F8944058863046A04704466846A5F0C9
:105F7000DBFD204605B0F0BD124A4C231720EAE7AE
:105F800016492846A5F050FE96F8743184E728217A
:105F90006846A5F0FDFD3EE728216846A5F0F8FD1E
:105FA00097E70F492846A5F03FFE96F8743176E74B
:105FB000F80200205463086044CF002098030020BA
:105FC00024AA06606C530020700A00207C0A00207E
:105FD000E1720160A00A002004050020880A002068
:105FE000940A0020114A4C2303FB012393F832301A
:105FF000013BD8B20B2812D901EBC10001EB4001E3
:10600000890001F11C032C3110B4134420240A44EC
:1060100003F8014F9342FBD15DF8044B704703EB4B
:106020000313034A0846D118A5F0FEBD6C530020A7
:10603000D46C0860F8B590F898300D46934202F1A0
:106040004C0226D900EB4203134E5B8813F0010F7C
:106050004FF04C0314BF0121022103FB0563D971EA
:1060600000EB42020D4F2846538807F62C71C3F30C
:10607000470404EBC404640021443C44A5F0D4FD6F
:106080004C2294F83D3F012002FB056585F82E3037
:10609000F8BD014EE4E700BF6C53002084A001600E
:1060A000F8B590F898300D46934202F14C0226D98B
:1060B00000EB4203134E5B8813F0010F4FF04C03CB
:1060C00014BF0121022103FB0563D97100EB4202D9
:1060D0000D4F28465388C3F3470404EB8404A400FF
:1060E00039193C4401F2A661A5F09EFD4C2294F8BA
:1060F000B736012002FB056585F82E30F8BD014E4C
:10610000E4E700BF6C5300207CB10160F0B589B0BA
:10611000144607460D4668460021A5F071FD5C2C2B
:1061200020D8542C34D82744234E4C233E2C97F8A7
:10613000992003FB0563DA711AD997F8993028463C
:10614000012B0CBF1D491E49A5F06EFDC4EBC40414
:106150001C4A4C2302EB440403FB056594F86931A7
:1061600085F82E306846A5F0DFFC012009B0F0BDAF
:1061700005EBC502202105EB4202920002F11C034F
:106180002C323344324403F8011F9342FBD1DDE744
:1061900027440D4904A8084EA5F032FD04A997F83C
:1061A0009900A5F089FC284604A9A5F081FC04A863
:1061B000A5F0BAFCCAE700BF6C530020040C002015
:1061C0000C0C00206C300860F802002030B585B05F
:1061D0000D46044609496846A5F012FD6946284661
:1061E000A5F06AFC69462046A5F062FC044B6846AF
:1061F0001C70A5F099FC05B030BD00BFF80200206E
:106200008C92002090F84E2012B1D0F8803003B963
:106210007047A5F055BD00BF90F84E2012B1D0F8E0
:10622000803003B97047A5F04BBD00BFF0B5044600
:1062300080F89810102921D8DFE801F021282048A3
:10624000205E718A9B20A220202020200900524A33
:106250000027524B40F2FF161068C4F80600A4F85D
:106260004270A4F8446007CBC4F80E0018889B78ED
:10627000C4F81210C4F8162060832377F0BD484A92
:106280000027484B40F27F161068E6E7464B4FF078
:10629000000E464D40F27F1718681B79C4F80600BF
:1062A000A372A4F842E0A4F844700FCD95F800C0A2
:1062B0000125C4F80E0084F81EC0C4F81210C4F8FA
:1062C0001620C4F81A3084F87750F0BD384A0027F9
:1062D000384B40F27F161068A4F84270C4F80600EC
:1062E000A4F8446007CB1B78C4F80E00A376C4F86A
:1062F0001210C4F81620F0BD2F4A00272F4B7F261E
:106300001068C4F80600A4F84270A4F8446007CBF3
:10631000C4F80E00C4F81210C4F81620F0BD284BC3
:106320004FF0000E274D40F2FF2718689B88C4F8F5
:10633000060063810FCDC4F80E00C4F81210C4F833
:106340001620C4F81A30A4F842E0A4F84470F0BD56
:106350001D4B4FF0000E1D4D40F2FF2718681B79B2
:10636000C4F80600A3720FCD2D78C4F80E00A577EF
:10637000E3E7174A0027174B40F2FF161068C0E703
:10638000154A0027154B40F2FF1610689288C4F892
:106390000600628163E700BFA80E0020AC0E00205B
:1063A000000E0020040E0020140E00201C0E002001
:1063B000300E0020340E00204C0E0020440E002031
:1063C000500E0020580E0020680E0020700E002095
:1063D0008C0E0020840E0020900E0020980E0020CD
:1063E00062B10023184630B45D1CCC5CEBB2604057
:1063F0009342F9D300F07F0030BC704710467047DD
:1064000099305D220021A5F0ABBB00BF24290AD939
:106410002539C9B25C2906D8002A01440CBF0223E1
:10642000012381F89930704710B44C23074C03FBCB
:1064300001435B8E553B9BB2072B02D95DF8044BA1
:10644000704708465DF8044B1146BFE66C530020C8
:1064500090F853300BB1FDF7EFBC7047F0B54C230B
:106460001C4C85B003FB01435E8EFF2E2FD01A4BD0
:1064700006EB460503EBC503B3F91430002B26DD0C
:1064800001EBC105202701EB4505AD0005F11C031B
:106490002C3523442C4403F8017FA342FBD105464D
:1064A0000C4668460D491746A5F0AAFB28683146F8
:1064B0006B463A46D0F888602846B0472046694681
:1064C000A5F0F6FA064B68461C70A5F02DFB05B04A
:1064D000F0BD00BF6C530020A45C0160F8020020F6
:1064E0008C92002070B400234C250F4E18460F4CA0
:1064F00005FB01614FF4B37505E02F2B04F118047F
:1065000010D034F8185CAA429EB203F10103F4D112
:1065100054F8145C2F2B4FF001004E868D6304F16C
:106520001804EED170BC70476C530020BC5C016055
:1065300090F853300BB1FDF7DFBA7047F0B54C233C
:106540001C4C85B003FB01435E8EFF2E2FD01A4BEF
:1065500006EB460503EBC503B3F97C34002B26DDBF
:1065600001EBC105202701EB4505AD0005F11C033A
:106570002C3523442C4403F8017FA342FBD105466C
:106580000C4668460D491746A5F03AFB2868314687
:106590006B463A46D0F888602846B04720466946A0
:1065A000A5F086FA064B68461C70A5F0BDFA05B04A
:1065B000F0BD00BF6C530020A45C0160F802002015
:1065C0008C92002070B400234C250F4E18460F4CBF
:1065D00005FB016140F22B1505E02E2B04F1180498
:1065E00010D034F8185CAA429EB203F10103F4D132
:1065F00054F8145C2E2B4FF001004E868D6304F18D
:106600001804EED170BC70476C5300202461016007
:1066100070B584B004460E46002168461546A5F0C4
:10662000EFFA94F89E30ABB96FF49472174968464C
:10663000AB1803EB03131944A5F0FAFA3046694688
:10664000A5F036FAE38CAB4215D06846A5F06CFA9B
:1066500004B070BD6FF494730D496846EB1803EBFA
:1066600003131944A5F0E4FA30466946A5F020FA70
:10667000E38CAB42E9D1694604F13000A5F000FAA1
:106680006846A5F051FA04B070BD00BFC8DD0960CE
:10669000B0F5096030B585B00C460E491546684620
:1066A000A5F0AEFA0C4A4C2303FB04235B8E0B3B94
:1066B0009BB2022B03D828466946A5F0FDF969462E
:1066C0002046A5F0F5F9054B68461C70A5F02CFA9C
:1066D00005B030BDF80200206C5300208C920020E1
:1066E00030B5044691B000293FD180F8A31080F85E
:1066F000A5103A4904A8A5F073F994F8A3106846C8
:10670000A5F026FA694604A8A5F0A6FA3449A5F032
:10671000DBFA054694F8A51008A8A5F019FA08A90F
:106720002846A5F099FA2F49A5F0CEFA054694F827
:10673000A4100CA8A5F00CFA0CA92846A5F08CFA18
:1067400001462948A5F0ACFA2748A5F0A1FA0CA803
:10675000A5F0EAF908A8A5F0E7F96846A5F0E4F97C
:1067600004A8A5F0C1F911B030BD202915D81F4DDE
:10677000481E2946C0B2A5F06BFA29786878FE2336
:1067800084F8A41084F8A50084F8A3300029B0D0C0
:106790000028AED0A5F024FAABE7282912D820397A
:1067A000134AC9B24B1E80F8A31003EBC30302EBDC
:1067B000830393F8481293F8490284F8A41084F8EC
:1067C000A500E3E7FF210C22182380F8A31011464F
:1067D00080F8A420184684F8A530DBE7D00E00200E
:1067E000E40E0020000F002094490020FCB6002099
:1067F00094FA096039B190F8A52080F8A41012B17C
:106800001046A5F0EDB970470022012380F8A320BF
:1068100080F8A430704700BF08B51820A5F08CF9A7
:10682000BDE80840A5F0E0B908B57F20A5F01CF947
:10683000C0B208BD10B480F89A10F9B94FF47B7358
:10684000B0F89C20A0F842101C46C284A0F8443046
:10685000B0F84A30028553B1B0F84210A24294BF5A
:10686000C1EB0202C1EB040292FBF3F39BB2A0F86E
:106870004630A0F848305DF8044B70474FF41C7365
:10688000B0F89E2000211C46A0F84430C284A0F835
:106890004210DDE70023C0F8A030C0F8A430C0F8F3
:1068A000A830C0F8AC30A0F8B0307047002A0144DE
:1068B0000CBF0223012381F8A0307047F0B50D46CC
