:1000000000800020BD010000F1730100A973010010
:10001000A9730100A9730100A9730100A97301006C
:10002000A9730100A9730100A9730100F173010014
:10003000F1730100A9730100398C01003D8D0100AD
:10004000F1730100F1730100F1730100F17301001C
:10005000F1730100F1730100F1730100F17301000C
:10006000F1730100F1730100F1730100F1730100FC
:10007000F1730100F1730100F1730100F1730100EC
:10008000F1730100F1730100F1730100F1730100DC
:10009000F1730100F1730100F1730100F1730100CC
:1000A000E1660100ED660100F1730100F1730100EA
:1000B000F1730100F1730100F1730100F1730100AC
:1000C000F1730100F1730100F1730100F17301009C
:1000D000F1730100F1730100F1730100F17301008C
:1000E000F1730100F1730100F1730100F17301007C
:1000F000F1730100719C0100F1730100C5A30100BF
:10010000F173010045A90100F1730100F1730100D1
:10011000F1730100F1730100F1730100F17301004B
:10012000F1730100F1730100F1730100F17301003B
:10013000F1730100F1730100F1730100F17301002B
:10014000F1730100F1730100F1730100F17301001B
:10015000F1730100F1730100F1730100F17301000B
:10016000F1730100417A0100F1730100F1730100A4
:10017000F1730100F1730100F1730100F1730100EB
:10018000F1730100F1730100F1730100F1730100DB
:10019000F1730100F1730100F1730100F1730100CB
:1001A000F1730100F1730100F1730100F1730100BB
:1001B000F1730100F1730100F1730100564B4CF231
:1001C000205210B51A804DF628121A8000BF00BFC9
:1001D00017F012F9514B4FF010621A60504A9A60B2
:1001E000504ADA60504A136813F4807304D14F49BF
:1001F0000B604FF4A85313604D4B1A78110703D5C9
:100200001A7842F008021A704A4B4B492A221A7097
:100210004A4A4B4B8B4204D252F8040F43F8040B6A
:10022000F8E7484B484900228B4202D243F8042B9E
:10023000FAE74649464A002352F8230041F82300D2
:1002400001336F2BF8D1434B434A802103F8011B44
:100250009342FBD1414B3D4A1A60414B8A221A70AE
:10026000A3F5805324225A70A0221A709A7992071B
:10027000FCD59A79D406FCD43A4A937903F00C035E
:10028000082B384BF9D103221A7140225A719A79FE
:100290009006FCD5334A9179324B4906FBD5324A58
:1002A000324911600221516020221A709A7902F0BD
:1002B0000C020C2AFAD12E4B2E4A1A602E4B2F4AD2
:1002C0001A6000225A60072243F8042C2C4AC3F813
:1002D0000C2D62B617F08AFA144B1B68DA0705D5A5
:1002E000284817F0E7F9284B284A1A60284B1B7852
:1002F0005B0609D5244C254B22689A4204D121483B
:1003000017F0D8F9002323601AF016FC17F07AF8DA
:1003100019F0F2F8FEE700BF0E20054030800440DF
:10032000823F04000100002B10D0034014D0034092
:1003300002D0074000E00740389CFF1F70A4020075
:100340004088FF1F389CFF1FF03A00200082FF1FEB
:100350000000000000E400E05FE400E008ED00E0E1
:100360000050064000400640448004400000030165
:1003700004800440C010050014E000E0FF76010096
:1003800000002020729EA65B1CE00340A5C3945A87
:1003900000F00740FFFFFFFFFFFFFFFFFFFFFFFF32
:1003A000FFFFFFFFFFFFFFFFFFFFFFFFFFFFFFFF5D
:1003B000FFFFFFFFFFFFFFFFFFFFFFFFFFFFFFFF4D
:1003C000FFFFFFFFFFFFFFFFFFFFFFFFFFFFFFFF3D
:1003D000FFFFFFFFFFFFFFFFFFFFFFFFFFFFFFFF2D
:1003E000FFFFFFFFFFFFFFFFFFFFFFFFFFFFFFFF1D
:1003F000FFFFFFFFFFFFFFFFFFFFFFFFFFFFFFFF0D
:10040000FFFFFFFFFFFFFFFFFFFFFFFFDEF9FFFF23
:1004100010B5054C237833B9044B13B10448AFF33E
:1004200000800123237010BD389CFF1F00000000D6
:1004300074A40200084B10B51BB108490848AFF37B
:1004400000800848036803B910BD074B002BFBD0A0
:10045000BDE81040184700BF000000003C9CFF1F93
:1004600074A40200389CFF1F0000000000207047A9
:10047000704700BF704700BF704700BF10B4012431
:1004800004FA01F104684174A3698272002110BC6E
:10049000184700BF2DE9F84F134D144C2B78DFF8A7
:1004A00050A007460E464FEA231904F1240802E043
:1004B000444516D02B7854F8040F1AF80920016827
:1004C0001343D1F810B03A463146D8472B78002B69
:1004D000EED1206803683A465B6931469847444547
:1004E000E8D1BDE8F88F00BF88A9FF1FE889FF1F8A
:1004F00044B2FF1F2DE9F04FDFF858A09AF8003002
:10050000102883B04FEA23191AD0104C90460F469A
:10051000064604F1240B01E09AF800300C4A54F826
:10052000040F12F809200168134300938D693346C4
:1005300042463946A8475C45EED103B0BDE8F08F8E
:100540007729E2D1024B03F80920F6E7E889FF1F7B
:1005500044B2FF1F88A9FF1F0023CD2280F880200E
:10056000037180F8813080F8823080F883307047E2
:10057000704700BF30B490F820409DF808509C426E
:1005800001D030BC704790F82130AB42F9D100293E
:10059000F7D180F84620F4E7704700BF044A43795A
:1005A00010780133181AB0FA80F04009704700BF84
:1005B000A8ACFF1F70B4838C0A4C42790A4D0B49DA
:1005C000B0F844602E70A4FB03430132642500247C
:1005D0005B090A70A0F8445080F84740A0F8423008
:1005E00070BC70471F85EB519DA8FF1FA8ACFF1F73
:1005F00001EBC101C900064A01F11A032A31134473
:100600000A44202103F8011F9342FBD101207047C7
:10061000549CFF1F00207047002070470368D3F8E8
:10062000883018470846704701EBC101C900064AE7
:1006300001F11A032A3113440A44202103F8011F4F
:100640009342FBD1704700BF549CFF1F002380F8EA
:100650006210A0F86030704700207047002070479B
:10066000704700BF704700BF704700BF90F865300B
:100670004BB10133DBB2022B88BF012380F8653018
:10068000014B02221A707047DDA9FF1F01EBC10167
:10069000C900064A01F11A032A3113440A442021F1
:1006A00003F8011F9342FBD101207047549CFF1FA8
:1006B00000207047704700BF704700BF5D20704743
:1006C000542901D8022070475D2934BF80200020C2
:1006D000704700BF0379022B06BF90F8E40040008A
:1006E0005D20704790F8E500704700BF2F207047ED
:1006F0002E299DBF024B03EB4111087A0020704761
:10070000A40902004379094A094910B40133B0F839
:10071000444014700B704FF496740022A0F84440CB
:10072000A0F8422080F8472010BC70479DA8FF1F0A
:10073000A8ACFF1F90F847304BB9C1EB011149003D
:1007400089B2022986BF033988B200207047B0F809
:10075000423001EB4101C3EB031301EB430189B2CA
:10076000EFE700BF2E2070472D299DBF024B03EB02
:100770004111087A00207047DC4F020008207047C2
:100780001531C8B2704700BF022380F8653070474A
:100790004379094A094910B40133B0F84440147050
:1007A0000B704FF4C8740022A0F84440A0F8422017
:1007B00080F8472010BC70479DA8FF1FA8ACFF1F02
:1007C00010B40AB990F86520012A1CD0022A18D06A
:1007D000032A0CBF0D2400240C4A01EBC100014682
:1007E00002EBC101C00000F11A032A3013440C8649
:1007F0000244202103F8011F9342FBD1012010BCC9
:1008000070470C24E8E70B24E6E700BF549CFF1F69
:100810004379094A094910B40133B0F844401470CF
:100820000B7050240022A0F84440A0F8422080F829
:10083000472010BC704700BF9DA8FF1FA8ACFF1F3A
:100840007D20704790F862300BB97D207047024AD6
:10085000134413F8010C70472004002070B40023E7
:1008600090F862600D4A1C46022003E07D2B0ED0FA
:1008700012F8180CB042DDB202F1180203F10103C4
:10088000F4D18C4207D001347D2BE4B2F0D14FF685
:10089000FF7070BC7047A8B270BC70475F26020042
:1008A000704700BF1020704790F865304BB101339E
:1008B000DBB2022B88BF012380F86530014B012297
:1008C0001A707047DDA9FF1F30B40AB990F865208F
:1008D000012A1FD0022A10D001EBC101C9000E4A23
:1008E00001F11A032A3113440A44202103F8011F9D
:1008F0009342FBD1012030BC70470F23064A0568A4
:1009000001EBC10402EBC4041A462386D5F88430F7
:1009100030BC18470E23F1E7549CFF1F012070479D
:10092000026890F8481080F84B10126C818C1047C8
:10093000B0207047C12906D8044B01EB410103EBFD
:10094000C101887870470020704700BFA88C020062
:1009500090F862300BB9C2207047024A134413F872
:10096000010C704798CCFF1F70B4002390F86260B0
:100970000D4A1C460C2003E0C22B0ED012F8180CB6
:10098000B042DDB202F1180203F10103F4D18C424E
:1009900007D00134C22BE4B2F0D14FF6FF7070BC27
:1009A0007047A8B270BC7047D78C020027207047F0
:1009B000044801EBC10100EBC10181F82E3081F840
:1009C00038207047549CFF1F90F865304BB10133BD
:1009D000DBB2022B88BF012380F86530014B012276
:1009E0001A707047DDA9FF1F0620704710B4084A2F
:1009F000084813780849012B84BF03F1FF331370B3
:100A0000064A00230124137004700B7010BC704759
:100A1000A0A8FF1F1D0400202E3600209DADFF1F43
:100A200010B4084A0848137808490F2B9CBF0133BB
:100A30001370074A00230124137004700B7010BC5C
:100A4000704700BFA0A8FF1F1D0400202E36002005
:100A50009DADFF1F704700BF10B5044B044640F822
:100A60002C3B18F049FB204610BD00BFFC5902008A
:100A700010B5044B044640F82C3B18F03DFB2046D3
:100A800010BD00BFFC59020010B5044B044640F8ED
:100A90002C3B18F031FB204610BD00BFFC59020072
:100AA00010B5044B044640F82C3B18F025FB2046BB
:100AB00010BD00BFFC59020010B5044B044640F8BD
:100AC0002C3B18F019FB204610BD00BFFC5902005A
:100AD00010B5044B044640F82C3B18F00DFB2046A3
:100AE00010BD00BFFC59020010B5044B044640F88D
:100AF0002C3B18F001FB204610BD00BFFC59020042
:100B000010B5044B044640F82C3B18F0F5FA20468B
:100B100010BD00BFFC59020010B5044B044640F85C
:100B20002C3B18F0E9FA204610BD00BFFC5902002A
:100B300008B5C82016F00CFE014B024A1A6008BD29
:100B40000CED00E00400FA051046014918F0B0BBB6
:100B5000C0FD01001846014918F0AABBD0FD0100F4
:100B60001046014918F0A4BBD4FD0100104601490C
:100B700018F09EBBD0FD01001046014918F098BB4B
:100B8000E0FD010070B50C4C04F1100514F8011FD4
:100B90000A4818F0EFFBAC42F8D1094A094B10782B
:100BA00009491870094D0A4C0826022001231670C5
:100BB00008702B70237070BDBCA7FF1FA4ADFF1F72
:100BC00094B2FF1F34CAFF1FDDA9FF1FB1ACFF1F86
:100BD0001D040020262903D91046054918F0BCBB86
:100BE000044B01EB8101104603EB810118F0B4BB0B
:100BF000F0FD0100C455020070B50F4CA4FB013498
:100C0000E4080D4604F1410184B0C9B2104604EB7A
:100C10008404164618F0AEFBA5EB44010A2289B203
:100C2000684618F0EFFA6946304618F091FB6846BE
:100C300018F062FA04B070BDCDCCCCCC30B589B020
:100C40000D4604A80B49144618F096FA2946684642
:100C500018F0C4FA694604A818F0B0FB0146204613
:100C600018F076FB684618F047FA04A818F044FA22
:100C700009B030BDF4FD0100F0B50D468DB0184C43
:100C80001849013504A8164684FB053418F074FA97
:100C9000EB17C3EBA40421460A22684618F0B2FA07
:100CA000694604A818F08AFB04EB84010A2207466F
:100CB000A5EB410108A818F0A5FA08A9384618F0D4
:100CC0007DFB0146304618F043FB08A818F014FAE3
:100CD000684618F011FA04A818F00EFA0DB0F0BD2D
:100CE00067666666FCFD01002DE9F041454FA7FBF4
:100CF00001346408622C8CB00D46164673D990F806
:100D0000853003F13102B4EB420F804670DC623370
:100D10009C4256DC3C49304618F01EFB6FF494733D
:100D20001D44ADB2A7FB0534C4F34F04374F013463
:100D300087FB0437E317C3EBA70739460A22684647
:100D400018F060FA694608A818F02AFA07EB87013C
:100D50000A22A4EB410104A818F054FA04A908A837
:100D600018F02CFB0146304618F0F2FA04A818F0EF
:100D7000C3F908A818F0C0F9684618F0BDF908A82A
:100D8000234918F0F9F91F49A1FB0531490801EB86
:100D90004101691A89B20A22013104A818F032FA15
:100DA00004A908A818F00AFB0146304618F0D0FA4A
:100DB00004A818F0A1F908A818F09EF90CB0BDE835
:100DC000F0811449304618F0C7FA98F8853003EBE3
:100DD0004303C3F57E43D7331D44ADB2A7FB0534AF
:100DE000C4F34F04A2E70C49104618F0B5FA9DE78A
:100DF0000A49304618F0B0FA98F8853003EB4303FF
:100E00005B00E6E7ABAAAAAA28FE01006766666651
:100E1000D0FD010008FE010000FE010004FE0100FB
:100E200030B589B00D4604A80B49144618F0A4F952
:100E30002946684618F0D2F9694604A818F0BEFAA7
:100E40000146204618F084FA684618F055F904A8BF
:100E500018F052F909B030BD0CFE010070B590F8E1
:100E600047308CB004460D46164633BBB0F84230CE
:100E70000BB9002964D0354908A818F07DF9B4F8F9
:100E8000421001EB810105EB410101390A2204A85E
:100E900018F0B8F904A908A818F090FA2C4918F02D
:100EA00095FA0146304618F053FA04A818F024F9D0
:100EB00008A818F021F90CB070BDB0F84230A3B901
:100EC00029B91046234918F047FA0CB070BD08A89C
:100ED000214918F051F9294604A80A2218F092F97C
:100EE00004A908A818F06AFADBE704A8174918F063
:100EF00043F9B4F842100A220139684618F082F921
:100F0000694604A818F05AFA144918F05FFA0A2240
:100F10000446294608A818F075F908A9204618F0D3
:100F20004DFA0146304618F013FA08A818F0E4F814
:100F3000684618F0E1F804A818F0DEF80CB070BDAF
:100F40001046074918F008FA0CB070BD1CFE0100ED
:100F500020FE010024FE01002CFE0100000302001F
:100F600018FE0100F0B5C72991B00C4610468CBFA1
:100F7000234924491646013418F0EEF92249A4B257
:100F8000A1FB04310A224909684618F03BF9694679
:100F900008A818F005F91D4BA3FB0425ED08A9B21C
:100FA000A3FB0123DB0803EB8303A1EB43010A222C
:100FB00089B204A818F026F904A908A818F0FEF9C7
:100FC00005EB8505A4EB45010A22074689B20CA86A
:100FD00018F018F90CA9384618F0F0F90146304617
:100FE00018F0B6F90CA818F087F804A818F084F8DF
:100FF00008A818F081F8684618F07EF811B0F0BD26
:10100000FCFD010000FE01001F85EB51CDCCCCCCD6
:10101000F0B590F8473091B005460F4616466BBBC9
:10102000B0F84230012B8CBF37493849104618F0D0
:1010300093F9B5F842100A2204A818F0E3F804A9BD
:101040000CA818F0ADF80A22394608A818F0DAF80A
:1010500008A90CA818F0B2F92D4918F0B7F9014603
:10106000304618F075F908A818F046F80CA818F0E2
:1010700043F804A818F040F811B0F0BDB0F84230C1
:10108000244C132B8CBF20492049104618F064F9DA
:10109000B5F84210A4FB01310A22C908684618F0CD
:1010A000B1F8694608A818F07BF8B5F84210A4FB1F
:1010B0000134E40804EB8404A1EB44010A2289B260
:1010C00004A818F09FF804A908A818F077F90A22D4
:1010D000044639460CA818F095F80CA9204618F0DB
:1010E0006DF90146304618F033F90CA818F004F8F1
:1010F00004A818F001F808A817F0FEFF684617F0DA
:10110000FBFF11B0F0BD00BFFCFD010000FE0100BF
:1011100030FE0100CDCCCCCC70B5164C4D1C84FB00
:101120000534EB178CB0C3EBA404164621460A2203
:10113000684618F067F8694608A818F031F804EB1B
:1011400084010A22A5EB410104A818F05BF804A968
:1011500008A818F033F90146304618F0F9F804A849
:1011600017F0CAFF08A817F0C7FF684617F0C4FFBA
:101170000CB070BD6766666608B516F0C7FA014B1D
:10118000186008BD78000020204AF8B50446204BBE
:101190001068C4F8060003CB15791E88A5729B78E9
:1011A000237604F12C0502272771C4F80E00C4F839
:1011B0001210E6822846112117F0A6FF284615498D
:1011C00018F076F8622200230421CD26D025D12004
:1011D000E28701220A2784F8806084F8815084F82D
:1011E000820084F8853084F8863084F8833084F86F
:1011F0004A10E17784F82020A4F84470A38723657F
:10120000A4F8403084F84C20F8BD00BF34FE010043
:101210003CFE010048FE0100254AF8B50446254B76
:1012200010681679C4F8060007CBA6721B78A3765F
:1012300004F12C060227C4F816202771C4F80E000A
:10124000C4F812103046112117F05EFF30461A49DB
:1012500018F02EF84FF42470042128230A220827BE
:10126000CE25E08784F84A10D020D22184F885303A
:10127000226500230322012684F8207084F8805020
:1012800084F8810084F8821084F8863084F88730EE
:1012900084F8883084F8893084F88330E27784F8E1
:1012A0004C60A387A4F84030A4F84420F8BD00BFE8
:1012B0005CFE010064FE010048FE01001F4AF8B513
:1012C00004461F4B10689788C4F8060007CB04F14A
:1012D0002C060225C4F816206781C4F80E00C4F855
:1012E000121030461121257117F00EFF30461549B6
:1012F00017F0DEFF7F2200230427D826D920DA2129
:10130000E28701224FF0080EE57784F84A7084F8EE
:10131000806084F8810084F8821084F8833084F837
:10132000202084F82120A4F844E0A3872365A4F8B2
:10133000403084F8853084F84C20F8BD74FE0100FC
:101340007CFE010048FE01001E4AF8B504461E4B13
:101350001068C4F8060003CB02251B88257104F130
:101360002C05E382C4F80E00C4F81210284611219F
:1013700017F0CAFE2846154917F09AFF0B220023E2
:1013800004260625D620D721E28701220A2784F8E1
:101390004A60E57784F8800084F8811084F8823010
:1013A00084F88330C4F8853084F82020A4F8447091
:1013B000A3872365A4F8403084F88B30A36684F8B3
:1013C0004C20F8BD88FE01008CFE010048FE0100A3
:1013D0001B4AF8B504461B4B1068C4F8060003CB43
:1013E00004F12C0502232371C4F80E00C4F8121076
:1013F0002846112117F088FE2846134917F058FF98
:10140000042500230122CF21632705260A2084F822
:101410004A5084F8801084F8263084F8813084F8AB
:10142000823084F88330E27784F82020E7872665CD
:10143000A4F84400A387A4F8403084F84C20F8BDF9
:1014400098FE01009CFE010048FE01001E4AF8B50E
:1014500004461E4B10681679C4F8060007CBA67226
:101460001B88638304F12C060227C4F81620277119
:10147000C4F80E00C4F812103046112117F044FED3
:101480003046134917F014FF0426002305210122DA
:10149000CF2031270A2584F84A6084F8800084F838
:1014A000813084F8823084F88330E17784F820201A
:1014B000E787A4F84450A387A4F8403084F8243187
:1014C000216584F84C20F8BDA4FE0100ACFE0100AB
:1014D00048FE0100274AF8B50446274B1068978854
:1014E000C4F8060007CB0226678126711F889B7807
:1014F000C4F8162004F12C062377C4F80E00C4F8B3
:10150000121067833046112117F0FEFD30461B494B
:1015100017F0CEFE032240F27F130025CD20D0210C
:1015200084F88520E387DA2201230A27042684F839
:10153000800084F8811084F88220A4F8447084F834
:101540004A60A5872565A4F8405084F88350E37766
:1015500084F8203084F8213084F84C30294604F196
:1015600086005D2219F08CFE84F8E45084F8E55082
:10157000F8BD00BFBCFE0100C4FE010048FE010032
:10158000314AF8B50546314B1068B2F804E0977956
:10159000C5F8060007CB022405F12C06A5F80AE0E1
:1015A000C5F816202C712F73C5F80E00C5F812105F
:1015B0003046112117F0A8FD30462549254E17F079
:1015C00077FE582704200521234BEC774FF0080EB7
:1015D0002246EF87DD24DB2785F84A0029650120B4
:1015E0000021A88785F8200085F84C00A5F844E084
:1015F00085F8807085F88140A5F8401085F8821044
:1016000085F8831003F6B83001E013F8182C511E4A
:10161000183312B1725C013272548342F5D1242224
:10162000ED230E4C0E4E4FF6FF7001E016F822200F
:1016300024F81230591E8BB2834203EB4302F5D1DA
:101640000023C5F85831F8BDD4FE0100DCFE0100CE
:1016500048FE0100200400205F2602008CA9FF1F25
:10166000183B0200284AF8B50546284B1068167941
:10167000C5F8060007CB05F12C071B78AE720226D1
:10168000AB76C5F81620C5F80E002E71C5F81210FD
:101690003846112117F038FD38461D4917F008FE6D
:1016A00040F28F110A22042309240120CD27EE776E
:1016B000E987D326D421A5F84420002285F84A30B2
:1016C00085F8204085F84C00AA8785F8852085F8A4
:1016D00086202A65A5F8402085F883200D4B0E4C06
:1016E0000E4885F8807085F8816085F882100C229C
:1016F00001E013F8182C511E183312B1425C01326C
:101700004254A342F5D1F8BDE8FE0100F0FE01000D
:1017100048FE0100D78C0200079F020098CCFF1FF3
:10172000F0B50C46C91191B04131C9B204A81646B2
:10173000013417F07BFD2149A4B2A1FB04310A2238
:101740004909684617F05EFD694604A817F036FEA1
:101750001B4BA3FB0425ED08A9B2A3FB0123DB0867
:1017600003EB8303A1EB430107460A2289B208A8D1
:1017700017F048FD08A9384617F020FE05EB85054F
:10178000A4EB45010A22074689B20CA817F03AFDDE
:101790000CA9384617F012FE0146304617F0D8FD66
:1017A0000CA817F0A9FC08A817F0A6FC684617F0CB
:1017B000A3FC04A817F0A0FC11B0F0BD1F85EB51ED
:1017C000CDCCCCCC2DE9F04190F8473090B0074615
:1017D0000D461646002B47D0B0F842103D4C01EBA9
:1017E000810189114131C9B204A817F01FFDB7F872
:1017F0004210A4FB01310A22C908684617F002FD15
:10180000694604A817F0DAFDB7F84210A4FB0134CA
:10181000E40804EB8404A1EB440180460A2289B267
:1018200008A817F0EFFC08A9404617F0C7FD0A22E8
:10183000044629460CA817F0E5FC0CA9204617F031
:10184000BDFD0146304617F083FD0CA817F054FC8F
:1018500008A817F051FC684617F04EFC04A817F0D2
:101860004BFC10B0BDE8F081B0F8423001EB8101D3
:101870004A00642101FB0321C9114131C9B208A802
:1018800017F0D4FCB7F842100A2204A817F0BAFCEB
:1018900004A908A817F092FD0A22044629460CA8BC
:1018A00017F0B0FC0CA9204617F088FD0A4917F084
:1018B0008DFD0146304617F04BFD0CA817F01CFCBF
:1018C00004A817F019FC08A817F016FC10B0BDE822
:1018D000F08100BFCDCCCCCC30FE0100F0B5C1F31F
:1018E0008705194C013584FB0534EB178DB0C3EB2C
:1018F000A4040E46174621460A22684617F082FCC9
:10190000694608A817F04CFC04EB84010A22A5EBF9
:10191000410104A817F076FC04A908A817F04EFDB1
:1019200006F00301413117F05FFD0146384617F01C
:101930000FFD04A817F0E0FB08A817F0DDFB6846D0
:1019400017F0DAFB0DB0F0BD6766666610B5034CA4
:10195000206819F05BF90023236010BD48CEFF1FFB
:101960000F2907D9A1F110030B2B9ABF0F39C8B269
:10197000002070471531C8B2704700BFF8B5054662
:101980000C460AB990F86520012A31D0022A0FD0FE
:1019900004EBC404E400174A04F11A032A34134484
:1019A0002021224403F8011F9342FBD10120F8BDFE
:1019B0001A21E7000F4E104A3B1906EBC3032846D5
:1019C00083F838102B68D3F8AC3093420ED1FFF770
:1019D000C7FF274406EBC706214686F82E002B6872
:1019E0002846D3F8BC3098470020F8BD9847F0E768
:1019F0001821DEE7549CFF1F6119000030B590F8F4
:101A0000473085B00D461446A3B190F842104131DD
:101A1000C9B2104617F0AEFC0A222946684617F0F4
:101A2000F1FB6946204617F093FC684617F064FB0B
:101A300005B030BD41311046C9B217F09BFC2046BD
:101A4000024917F089FC05B030BD00BF30FE01002F
:101A500010B584B00A220C460146684617F0D2FB46
:101A60006946204617F074FC684617F045FB04B041
:101A700010BD00BF542905D8012A18460CD00849CA
:101A800017F06ABC5C2903D91846064917F064BCF4
:101A900019461046FFF7DCBF034917F05DBC00BFD5
:101AA00000FF0100F0FD01002803020000EB8000B0
:101AB00000EB80000144084B33F8110058B1074A8D
:101AC00032F81030012033B132F813300130C0B297
:101AD000002BF9D1704770474CCEFF1FC0B2FF1FDB
:101AE00030B590F847308DB0144613B30D460A2236
:101AF000B0F84210684617F085FB694608A817F051
:101B00004FFB0A22294604A817F07CFB04A908A869
:101B100017F054FC0146204617F01AFC04A817F0F1
:101B2000EBFA08A817F0E8FA684617F0E5FA0DB0E6
:101B300030BD0A2208A817F065FB08A904A817F011
:101B40002FFB04A8074917F041FC0146204617F077
:101B5000FFFB04A817F0D0FA08A817F0CDFA0DB0D3
:101B600030BD00BF30FE010070B590F847308CB03A
:101B70000E4615463BB30446214904A817F0FCFA6B
:101B8000B4F842100A22684617F03CFB694604A8E4
:101B900017F014FC0A220446314608A817F032FB5D
:101BA00008A9204617F00AFC0146284617F0D0FB8A
:101BB00008A817F0A1FA684617F09EFA04A817F0D3
:101BC0009BFA0CB070BD04A80D4917F0D5FA0A2293
:101BD000314608A817F016FB08A904A817F0EEFB79
:101BE000084917F0F3FB0146284617F0B1FB08A897
:101BF00017F082FA04A817F07FFA0CB070BD00BF8E
:101C0000FCFD010030FE010030B5072989B0154602
:101C100005D910460F4917F09FFB09B030BD0C469F
:101C200068460D4917F0A8FA0A22611C04A817F0AB
:101C3000E9FA04A9684617F0C1FB0146284617F0E7
:101C400087FB04A817F058FA684617F055FA09B050
:101C500030BD00BFF0FD010004FF010030B54BB204
:101C6000002B89B0154618DD0C4668460E4917F062
:101C700083FA214604A817F0B1FA04A9684617F0C0
:101C80009DFB0146284617F003FB04A817F034FA21
:101C9000684617F031FA09B030BD1046034917F015
:101CA00007FB09B030BD00BF0CFF0100D0FD0100F3
:101CB00030B590F847308DB014462BB30D460A224C
:101CC000B0F84210684617F09DFA694608A817F068
:101CD00067FA0A22294604A817F094FA04A908A86A
:101CE00017F06CFB144917F071FB0146204617F002
:101CF0002FFB04A817F000FA08A817F0FDF96846B2
:101D000017F0FAF90DB030BD0A2208A817F07AFAD8
:101D100008A904A817F044FA04A8084917F056FBCC
:101D20000146204617F014FB04A817F0E5F908A8AF
:101D300017F0E2F90DB030BD30FE010010FF0100D8
:101D400070B515468CB0002948D008290C462CD90E
:101D5000A1F109046846244917F00EFA0A22E1109D
:101D600004A817F04FFA04A9684617F027FB1F498B
:101D700017F02CFB04F007010A220646013108A8DF
:101D800017F040FA08A9304617F018FB014628461C
:101D900017F0DEFA08A817F0AFF904A817F0ACF9AD
:101DA000684617F0A9F90CB070BD08A8104917F0E3
:101DB000E3F90A22214604A817F024FA04A908A886
:101DC00017F0FCFA0146284617F0C2FA04A817F0EB
:101DD00093F908A817F090F90CB070BD10460549AA
:101DE00017F0BAFA0CB070BD1CFE0100000302002F
:101DF0002CFE010024FE010030B54B1E072B89B0DC
:101E00000C46154629D909293FD00A2942D00B2969
:101E100045D00C2948D0A1F10D03722B05D91046ED
:101E2000244917F045FA09B030BD6846224917F039
:101E3000A3F9214604A817F0D1F904A9684617F0C0
:101E4000BDFA0146284617F023FA04A817F054F902
:101E5000684617F051F909B030BD04A8174917F0CA
:101E60008BF92146684617F0B9F9694604A817F0BE
:101E7000A5FA0146284617F00BFA684617F03CF918
:101E800004A817F039F909B030BD10460C4917F015
:101E90000FFAC8E710460B4917F00AFAC3E71046D5
:101EA000094917F005FABEE71046084917F000FA8D
:101EB000B9E700BFD0FD01000CFF010014FF0100D5
:101EC00020FF01002CFF01003CFF010048FF010042
:101ED00030B589B005460C4604A80D4917F04CF9F9
:101EE0000A22691C684617F08DF9694604A817F0A4
:101EF00065FA084917F06AFA0146204617F0C8F952
:101F0000684617F0F9F804A817F0F6F809B030BDE4
:101F100058FF01005CFF01002DE9F0434FEAC009C2
:101F2000DFF8DC8109EB000508EBC5050F46E97910
:101F3000022985B0144600F0AB8006463AD906293E
:101F40004ED0FF2900F09D8003296BD0634B53F8DE
:101F500027102046063117F0FFF96149204617F097
:101F6000FBF909EB060008EBC0050A2295F83E10C4
:101F70006846013117F046F96946204617F0E8F93E
:101F8000684617F0B9F82F21204617F0F3F90A2216
:101F9000A98F684617F036F96946204617F0D8F938
:101FA000684617F0A9F82046292117F0E3F905B093
:101FB000BDE8F083002952D00129C7D14949104614
:101FC00017F0CAF9454B53F827102046063117F091
:101FD000C3F92046444917F0BFF905B0BDE8F083C6
:101FE0006B7A002B75D00521104617F0C3F920211C
:101FF000204617F0BFF9394B53F827102046063119
:1020000017F0AAF92021204617F0B4F909EB0600D1
:1020100008EBC000437A2046002B56D0052117F06C
:10202000A9F9DAE72D4B53F827101046063117F0BF
:1020300093F92B49204617F08FF96979684617F014
:10204000CDF86946204617F083F9684617F054F832
:102050002046264917F080F905B0BDE8F083104608
:10206000234917F079F91D4B53F827102046063104
:1020700017F072F920461F4917F06EF905B0BDE858
:10208000F08310461C4917F067F905B0BDE8F083EE
:10209000124B53F827101046063117F05DF910491E
:1020A000204617F059F96979684617F097F869469C
:1020B000204617F04DF9684617F01EF820460F49E4
:1020C00017F04AF905B0BDE8F083062117F052F980
:1020D00083E7104617F04EF989E700BFEC89FF1F30
:1020E0007C04020060FF010064FF010074FF010036
:1020F00068FF01006CFF010078FF010070FF010024
:10210000549CFF1F2DE9F041274B222401EB0116BF
:1021100014FB00661E4402F1100C15464FF0000837
:10212000FF24AB1A16F801EF15F8017BBE45DBB2B0
:1021300004D0FF2C08BF1C46377098466545F0D187
:10214000FF2C2DD015460A46C8B10138C0B2174E33
:10215000C0EBC00006EB80063046214614F0D4FBED
:10216000444509D837463B68295D1B680134304631
:10217000E4B298474445F6D90120BDE8F0812146F4
:102180000B4814F0C1FB4445F6D8295D08480134DA
:10219000E4B214F01FFB4445F7D90120BDE8F081FB
:1021A0000020BDE8F08100BF7B00002048CBFF1F6E
:1021B0004803002038B5084D2B5C5BB9C0EBC00369
:1021C0009B0004460548C25801211844936998476A
:1021D00001232B5538BD00BF70B2FF1F48CBFF1F36
:1021E00038B5094C094A01EB41016318155C9A782E
:1021F000605C597814F084FD29460246BDE83840F9
:10220000034814F045BD00BF6C89FF1FBC8AFF1F47
:1022100040CAFF1F10B4094B094A196809481378CE
:1022200083B083F001030191019C07490460012000
:102230001370087003B010BC704700BF78360020E0
:10224000108AFF1F10B2FF1FE889FF1F10B5037A25
:102250000022022B0446027582B0007827D015F0C8
:1022600041FA08B901232375607815F03BFA70B183
:102270001649237D0968627D01910199A1619A4205
:1022800020D093B90120A275637502B010BD94F8F7
:102290002030002BECD10D4B627D1B680193019B1C
:1022A000A36102239A4223750CD00022EAE715F0BD
:1022B00019FA012808BF2075607815F013FA012873
:1022C000D6D1E8E7002002B010BD00BF783600206C
:1022D00038B5184C184B2178197000F13703174A9C
:1022E0002070DBB2FF21012B117009D901460220B9
:1022F00015F032F8124B0320197815F02DF82078DC
:10230000C92809D00F4C1049104B00250320012289
:10231000257008701A7038BD0D4B1B782BB90D4A0B
:1023200013700D4B01221A70ECE70A4B0B221A7046
:10233000F7E700BF408BFF1FCC89FF1F148BFF1FE7
:10234000B28AFF1F3CCAFF1FDDA9FF1F1D0400202A
:10235000FDB1FF1F94B2FF1F36CAFF1F70B590F882
:1023600047308CB00E46154653B30446224908A8A0
:1023700016F002FFB4F842100A2204A816F042FF39
:1023800004A908A817F01AF80A220446314668463C
:1023900016F038FF6946204617F010F8174917F075
:1023A00015F80146284616F0D3FF684616F0A4FE3D
:1023B00004A816F0A1FE08A816F09EFE0CB070BD91
:1023C00008A80D4916F0D8FE0A22314604A816F0D6
:1023D00019FF04A908A816F0F1FF094916F0F6FF45
:1023E0000146284616F0B4FF04A816F085FE08A89A
:1023F00016F082FE0CB070BD00FE010080FF0100EF
:102400007CFF01000A7ACB7970B412044E7A8C7A80
:102410000B4D02EB036202EB06232344AB420AD0CE
:10242000084A934205D1CB7A80F88630002380F8A1
:102430004D3070BC7047CB7A80F8853070BC7047E7
:1024400000300060003800600E4A43791278013392
:102450009A4201D00020704790F88620FF2A09D0C8
:10246000094B01EBC10103EBC1010B8ED908B1EBA4
:10247000520F01D001207047B2EB930F0CBF012027
:1024800000207047A8ACFF1F549CFF1F4A7A0B7AAC
:1024900070B412048E7ACC7A0B4D02EB036202EB1D
:1024A00006232344AB420AD0084A934205D10B7B52
:1024B00080F88630002380F84D3070BC70470B7B6D
:1024C00080F8853070BC70470010002004080020A0
:1024D0000A7ACB7970B412044E7A8C7A134D02EBDF
:1024E000036202EB06232344AB420FD0104A93420F
:1024F00007D0104A93420ED1CB7A80F8883070BC56
:102500007047CB7A80F8873070BC7047CB7A80F800
:10251000863070BC7047084A9342F0D1CB7A80F87D
:102520008930002380F84D3070BC704703200018BC
:10253000032100180A10001832020018154A4379C6
:10254000127801339A4201D00020704790F88F0032
:10255000FF281CD0104A114B01EBC10102EBC10155
:1025600030B40F4CA4FB00250A8EA3FB02135B08BA
:10257000B3EB550F02D0012030BC7047A4FB0232F0
:10258000B0EB520F0CBF0120002030BC704701207F
:10259000704700BFA8ACFF1F549CFF1F398EE33863
:1025A000ABAAAAAA01EB4101244B33F8313003F462
:1025B0007042B2F5004F08D0B2F5104F1FD0B2F5FF
:1025C000E04F38D003F1C040704790F84A211C49D1
:1025D00002EB42025200881803F00F030079834295
:1025E00027DA885A0344190604D547F67F721A4041
:1025F00002F58073B3F5127FE4D11248704790F86A
:102600004C210F4902EB420201EB420203F07F032F
:1026100011798B420DDA508803441A0604D547F627
:102620007F721A4002F5807340F254429342C9D13E
:10263000E3E700207047C3F30B0070473026020029
:10264000084E0200180700607C292BD830B44C00DB
:102650006318174A32F83330B3F5004F05D22144DE
:1026600002EBC10130BC8878704703F47045B5F5C2
:10267000004F19D0B5F5104FF1D190F84C510D48DD
:1026800030F8150003F00F0303449BB24FF6FF70C0
:102690008342E4D0084A03EB430302EB830330BCDC
:1026A000587870470020704790F84A51E7E700BF1C
:1026B000302602008CA9FF1F183B020038B590F8A5
:1026C00021509D4200D038BD90F820309342FAD17D
:1026D000838C89B28B42F6D0036881845B6C984707
:1026E000014B02221A70EEE7DDA9FF1F90F865305A
:1026F00093B10133DBB2032B88BF012380F865302F
:10270000036810B5D3F8D0300C469847034A044B01
:10271000147001221A7010BD704700BF14A4FF1F6F
:10272000DDA9FF1F90F847305BB1B0F84220838FDE
:1027300003EBC200084480B200B97047013880B290
:102740007047B0F84230808F03EB830301EB430105
:1027500000EBC10188B2704790F847306BB1B0F818
:10276000423023B908298CBF002001207047481E41
:1027700007288CBF002001207047B0F84230C28F7C
:1027800010B4848F03EB830301EB4300131BB3EB03
:10279000C00FACBF0120002010BC704738B590F8C6
:1027A00021509D4200D038BD90F82030934204461D
:1027B000F9D1838C89B28B42F5D003688184DB6CBC
:1027C0009847236820465B6C9847024B02221A7098
:1027D000E9E700BFDDA9FF1F90F8473083B1B0F8EB
:1027E000423003B9B9B1C28F808F03EB830301EB91
:1027F0004301131AB3EB810FACBF012000207047D7
:10280000C38F828F01EB81019B1AB3EBC10FACBF69
:102810000120002070470846704700BFF8B50368E4
:102820001A4ADB6D934204460D462CD1FFF7D4FFC4
:1028300058B194F847304BB90123282284F8473027
:10284000A4F84250A4F84420F8BDF8BDB4F84210F2
:102850000F4B60791E780F4FA4F844606A1E01EB9D
:10286000810502EB4505AD00ABB29A0884F88620DD
:10287000421C3A7093FBF6F3D820A4F84230BDE82E
:10288000F840FFF725BD9847D2E700BFD9270000E1
:102890009DA8FF1FA8ACFF1F38B590F821509D429E
:1028A00000D038BD90F820309342FAD1838C89B2A1
:1028B0008B42F6D0036881845B6C9847014B0222FF
:1028C0001A70EEE7DDA9FF1F90F88A2002B9704761
:1028D0000368DB6E184700BF0379022B01D008465E
:1028E0007047002370B41A4600F1850403E00132FA
:1028F000D2B25D2B0AD014F8015FDEB20133002D95
:10290000F7D09142F3D1B0B270BC70474FF6FF7070
:1029100070BC704790F8473083B1B0F8423090F8FF
:10292000260003EB830301EB430189B281422CBFF4
:10293000C0EB0100C0EB000080B27047B0F842006D
:1029400001EB810100EB8000490000EB800001EB0E
:10295000800080B2704700BF90F847306BB9B0F884
:102960004220C08F642303FB02F20A2313FB0121E0
:102970008142CCBF0020012070470120704700BF7A
:102980000368214ADB6D934270B505460C4634D18D
:10299000FFF7E2FF38B395F847302BB36B791B4A4A
:1029A000013313705CBB2246B5F84230184E194C07
:1029B0003678194919482670C3EB031302EB430319
:1029C0009CB2A1FB04235B08A0FB04246408092239
:1029D00085F88F30A5F84240A5F84420CE20BDE808
:1029E0007040FFF775BC70BD01231E2285F847308B
:1029F000A5F84240A5F8442070BD9847CAE7013CBD
:102A0000E4B204EB4402CFE759290000A8ACFF1F51
:102A1000CC89FF1F408BFF1FABAAAAAA398EE338CF
:102A200030B490F821509D4201D030BC704790F8EE
:102A300020309342F9D1838C89B28B42F5D0036860
:102A400081845B6C30BC1847A1F10E03012B01D8C7
:102A5000082070470368074AD3F88830934210B5BE
:102A60000C4605D11020844234BF8020002010BDC8
:102A70009847F8E7A508000030B503680F4DD3F874
:102A80008830AB4283B00C4614D15D20A04206D8FA
:102A90000B49104603B0BDE8304016F009BC0949A7
:102AA00004EBC404104601EB440103B0BDE8304020
:102AB00016F0FEBB01929847019AE7E7BD060000B9
:102AC000F0FD0100F4E7010030B503680F4DD3F8C5
:102AD0008830AB4283B00C4613D12F20A04206D8D9
:102AE0000B49104603B0BDE8304016F0E1BB094980
:102AF00001EB44111046093103B0BDE8304016F037
:102B0000D7BB01929847019AE8E700BFED060000A5
:102B1000F0FD0100A4090200F0B504683A4ED4F8B3
:102B20008840B4428BB017461D462DD12F208842D5
:102B300024D9364800EB4111498B0BB2002B4BDDF9
:102B400047F61643994223D047F6174399424CD093
:102B500047F61543994221D0CA19013A2C4902EB94
:102B6000C202114406A816F007FB06A9284616F073
:102B7000EFFB06A816F0C0FA0BB0F0BD28462549B9
:102B800016F0EAFB0BB0F0BD0191A0470199CEE72A
:102B9000790006A80A2216F035FBE6E73F2F26D972
:102BA000402F2BD0EED91C4906A816F0E5FAA7F164
:102BB00032010A2202A816F025FB02A906A816F087
:102BC000FDFB0146284616F0C3FB02A816F094FA56
:102BD00006A816F091FAD5E7012F28460CBF0F4939
:102BE0000F4916F0B9FB0BB0F0BD3946D1E70D49DE
:102BF00006A816F0C1FAC7F13201DAE728460A49F9
:102C000016F0AAFBBEE700BFED060000A409020013
:102C100050E00100F0FD010008FE01002803020061
:102C200000FF010028FE010084FF010030B50368A9
:102C30000F4DD3F88830AB4283B00C4613D12E2011
:102C4000A04206D80B49104603B0BDE8304016F04C
:102C50002FBB094901EB44111046093103B0BDE80F
:102C6000304016F025BB01929847019AE8E700BF73
:102C700065070000F0FD0100DC4F0200F0B50468BC
:102C8000384ED4F88840B4428BB017461D4626D142
:102C90002E2088421DD9344800EB4111498B0BB2DC
:102CA000002B49DD47F6154399421CD03AD347F62D
:102CB0001743994236D8394606A80A2216F0A2FAD6
:102CC00006A9284616F044FB06A816F015FA0BB024
:102CD000F0BD2846254916F03FFB0BB0F0BD019131
:102CE000A0470199D5E73F2F2FD9402F34D0F4D9F1
:102CF0001F4906A816F040FAA7F132010A2202A8DD
:102D000016F080FA02A906A816F058FB01462846DC
:102D100016F01EFB02A816F0EFF906A816F0ECF963
:102D20000BB0F0BDCA19013A124902EBC2021144BC
:102D300006A816F021FAC3E7012F28460CBF0E495A
:102D40000E4916F009FB0BB0F0BD0D4906A816F0B0
:102D500013FAC7F13201D1E728460A4916F0FCFA06
:102D6000BBE700BF65070000DC4F0200F0FD01007B
:102D700008FE0100688502002803020000FF010030
:102D800028FE010084FF010030B503680F4DD3F821
:102D90008830AB4283B00C4614D11020A04206D834
:102DA0000B49104603B0BDE8304016F081BA09491E
:102DB00004EBC404104601EB440103B0BDE830400D
:102DC00016F076BA01929847019AE7E7A508000045
:102DD000F0FD0100D058020030B504680E4DD4F863
:102DE0008840AC4285B010D11020884206D80B49EB
:102DF000184605B0BDE8304016F0AEBA1946104688
:102E000005B0BDE83040FEF723BE03930292019166
:102E1000A04701A90EC9E8E7A508000088FF010046
:102E200030B50368104DD3F88830AB4283B00C4600
:102E300015D17D20A04206D80C49104603B0BDE84C
:102E4000304016F035BA0A4904EB440401EBC401E2
:102E50001046033103B0BDE8304016F029BA0192A4
:102E60009847019AE6E700BF41080000F0FD010025
:102E7000302602002DE9F0410468DFF87CE2D4F846
:102E80008870774588B080460C4615461E462BD183
:102E90007D20A04221D961000A19874B33F83220E6
:102EA000B2F5004F07D302F47040B0F5004F3CD0AC
:102EB000B0F5104F1AD00C4403EBC404A38A53B3EB
:102EC000A3F5F8420F3A082A00F2D180DFE802F0B9
:102ED000CB6863A08CCD4330CD003046774916F0E7
:102EE0003BFA08B0BDE8F081B847D2E798F84C71DA
:102EF000734830F8170002F00F02024492B24FF606
:102F0000FF708242D7D06F4B02EB420203EB82028A
:102F10005389002BD4D1012D30460CBF6A496B492F
:102F200016F01AFA08B0BDE8F08198F84A71DFE7A8
:102F3000322D00F2A680A5F1320104A80A2216F073
:102F400061F904A9304616F003FA04A816F0D4F883
:102F500008B0BDE8F0813F2D40F29880402D00F090
:102F6000A680BED95A4904A816F006F9A5F1320187
:102F70000A22684616F046F9694604A816F01EFAB9
:102F80000146304616F0E4F9684616F0B5F804A894
:102F900016F0B2F8A5E7182D7FD8A5F11801CCE7F7
:102FA0000A22690804A816F02DF904A9304616F083
:102FB000CFF904A816F0A0F805F001054549304600
:102FC00016F0CAF9A9000A22294404A816F01AF931
:102FD00004A9304616F0BCF904A816F08DF8304666
:102FE0003D4916F0B9F97CE7142D5BD80A22A5F10A
:102FF000140104A816F006F904A9304616F0A8F941
:1030000004A816F079F83046344916F0A5F968E7B7
:103010000135334CADB2A4FB0534E4080A22214645
:1030200004A816F0EFF804A9304616F091F904A8A8
:1030300016F062F804EB84042649304616F08CF949
:10304000A5EB44010A2289B204A816F0DBF804A912
:10305000304616F07DF904A816F04EF830462149A6
:1030600016F07AF93DE7691C67E7294665E72B44C6
:10307000013B1D4903EBC303194404A816F07CF877
:103080005FE71A49304616F067F954E7184904A873
:1030900016F072F8C5F132016AE71449304616F0AD
:1030A0005BF97AE71149304616F056F99EE730464B
:1030B000104916F051F914E730260200F0FD010026
:1030C0008CA9FF1F183B02002803020000FF01002B
:1030D00008FE01000003020098FF010090FF0100BC
:1030E000CDCCCCCC94FF0100487B02008CFF0100CA
:1030F00028FE010084FF01004108000030B503688C
:103100000F4DD3F88830AB4283B00C4614D1102059
:10311000A04206D80B49104603B0BDE8304016F077
:10312000C7B8094904EBC404104601EB440103B0DD
:10313000BDE8304016F0BCB801929847019AE7E725
:10314000A5080000F0FD010024BD0100F8B5A1F1C3
:103150000E05012D1DD91D4603681746D3F888308A
:10316000104A93420C461AD110208442284606D2B7
:10317000012F09D00C49BDE8F84016F0EDB80B4915
:10318000BDE8F84016F0E8B80949BDE8F84016F087
:10319000E3B819461046BDE8F840FEF759BC984719
:1031A000E3E700BFA50800009CFF010088FF0100C5
:1031B0002803020030B50368104DD3F88830AB42C5
:1031C00083B00C4615D1B020A04206D80C49104659
:1031D00003B0BDE8304016F06BB80A4904EB440474
:1031E00001EBC4011046033103B0BDE8304016F0D6
:1031F0005FB801929847019AE6E700BF31090000E5
:10320000F0FD0100A88C0200F0B504683A4FD4F834
:103210008840BC428BB016461D462ED1B020884255
:1032200025D9364801EB410100EBC101898A0BB277
:10323000002B4ADD47F61643994222D047F6174342
:1032400099424BD047F61543994220D031442C4B3C
:10325000013903EBC10106A815F08EFF06A9284627
:1032600016F076F806A815F047FF0BB0F0BD28461B
:10327000244916F071F80BB0F0BD0191A0470199F7
:10328000CDE7710006A80A2215F0BCFFE6E7312E53
:1032900026D9322E2BD0EED91B4906A815F06CFF8B
:1032A000A6F132010A2202A815F0ACFF02A906A875
:1032B00016F084F80146284616F04AF802A815F0E0
:1032C0001BFF06A815F018FFD5E7012E28460CBFF6
:1032D0000E490F4916F040F80BB0F0BD3146D1E76A
:1032E0000C4906A815F048FFC6F13201DAE7284676
:1032F000094916F031F8BEE731090000A88C020038
:1033000018730200F0FD010008FE0100280302000E
:1033100000FF010028FE010084FF010030B50368B2
:103320000D4DD3F88830AB4283B00C4610D1062047
:10333000A04206D80949104603B0BDE8304015F058
:10334000B7BF1146204603B0BDE83040FEF7C0BD10
:1033500001929847019AEBE7E9090000F0FD0100AE
:1033600003680B4AD3F88830934205D1062088427F
:103370008CBF02200020704700B583B001919847B0
:10338000019988428CBF0220002003B05DF804FB45
:10339000E909000030B504680F4DD4F88840AC420C
:1033A00085B012D106208842184608D9012A0CBFE0
:1033B0000A490B4905B0BDE8304015F0CDBF0949B9
:1033C00005B0BDE8304015F0C7BF039302920191EC
:1033D000A04701A90EC9E6E7E90900002803020099
:1033E00000FF0100F0FD010030B503680D4DD3F87A
:1033F0008830AB4283B00C4610D10620A04206D8DC
:103400000949104603B0BDE8304015F051BF1146E0
:10341000204603B0BDE83040FEF75ABD0192984700
:10342000019AEBE7E9090000F0FD010003680B4A8F
:10343000D3F88830934205D1062088428CBF022001
:103440000020704700B583B00191984701998842E8
:103450008CBF0220002003B05DF804FBE9090000E6
:1034600030B504680F4DD4F88840AC4285B012D115
:1034700006208842184608D9012A0CBF0A490B4980
:1034800005B0BDE8304015F067BF094905B0BDE89B
:10349000304015F061BF039302920191A04701A94A
:1034A0000EC9E6E7E90900002803020000FF010059
:1034B000F0FD0100A1F10E02012A01D88020704721
:1034C0000368074AD3F88830934210B50C4605D1FB
:1034D0001020844234BF0220002010BD9847F8E736
:1034E000A508000038B50C46054613F01BFF8442C2
:1034F00005D021462846BDE8384013F02DBF38BD21
:103500002DE9F041057A102D28BF102585B16F1ED9
:10351000FFB20D4E8046013700242146404615F08B
:1035200087FF0134BC4206F8010FF6D1102D08D0F8
:10353000064920226B1C4A55DDB2102DFAD1BDE898
:10354000F081BDE8F08100BF2FB2FF1F30B2FF1F36
:103550002DE9F041057A102D28BF102585B16F1E89
:10356000FFB20D4E8046013700242146404615F03B
:103570005FFF0134BC4206F8010FF6D1102D08D0D0
:10358000064920226B1C4A55DDB2102DFAD1BDE848
:10359000F081BDE8F08100BFABB2FF1FACB2FF1FEE
:1035A0002DE9F0470D7A102D28BF1025814655B31F
:1035B000DFF8588000EBC00605F1FF3A08EBC606BD
:1035C0005FFA8AFA0F4609360AF1010A00242146F9
:1035D000384615F01FFF0134037806F8013F5445C3
:1035E000F5D1102D0DD009EBC90908EBC90820222F
:1035F00008EB05030135EDB2102D9A72F8D1BDE844
:10360000F087BDE8F087DFF80480ECE7549CFF1FEB
:10361000F8B5064608460C4618F0F2F8C0B2102875
:1036200028BF1020F0B1104F06EBC60307EBC30311
:10363000451E093354FA85F5611E11F8012F03F870
:10364000012FA942F9D110280BD006EBC60607EBD3
:10365000C602202113180130C0B210289972F9D186
:10366000F8BDF8BD004FF0E7549CFF1FF0B5134BB9
:10367000134E144D07468E460FCB8DB06C4607C4D3
:10368000237096E80F0004AC07C4237095E80F0080
:1036900008AC07C497F86520237042B1012A0CBF1B
:1036A00004A908A97046FFF7B3FF0DB0F0BD694645
:1036B0007046FFF7ADFF0DB0F0BD00BFA4FF0100E5
:1036C000B4FF0100C4FF0100F0B5194B194F1A4EA9
:1036D0001A4D84468E460FCB91B06C4607C42380AA
:1036E00097E80F0004AC07C4238096E80F0008ACED
:1036F00007C4238095E80F000CAC07C423809CF816
:103700006530012B0AD0022B0DD0032B0CBF0CA966
:1037100069467046FFF77CFF11B0F0BD04A9704602
:10372000FFF776FFF8E708A97046FFF771FFF3E7A8
:10373000D4FF0100E4FF0100F4FF010004000200D7
:103740002DE9F0470D7A102D28BF1025814655B37D
:10375000DFF8588000EBC00605F1FF3A08EBC6061B
:103760005FFA8AFA0F461A360AF1010A0024214646
:10377000384615F04FFE0134037806F8013F5445F2
:10378000F5D1102D0DD009EBC90908EBC90820228D
:1037900008EB05030135EDB2102DDA76F8D1BDE85E
:1037A000F087BDE8F087DFF80480ECE7549CFF1F4A
:1037B00070B5064684B00D462AB3164B05EBC5011D
:1037C00003EBC1035432D4B21C866846002115F0C5
:1037D000D3FCB11D684615F06BFD6846202115F03D
:1037E000C9FD0D4904EBC40401EB4401684615F022
:1037F000B3FD69462846FFF7A3FF684615F07CFC39
:10380000012004B070BD90F86520002AD5D10120B8
:1038100004B070BD549CFF1FF4E70100F0B58DB0FB
:1038200007460E4668460021144615F0A5FC204BBD
:10383000204A06EBC60503EBC50502236B7104EBBA
:10384000C401FB7F85F82C3002EB410168460E3C39
:1038500015F02EFD012C09D930466946FFF770FF9F
:10386000684615F049FC01200DB0F0BDEB79124916
:10387000042B08A817D015F07FFC95F840100A22F9
:10388000013104A815F0BEFC04A908A815F096FDA6
:103890000146684615F05CFD04A815F02DFC08A84B
:1038A00015F02AFCD8E715F067FC95F83E10E6E71E
:1038B000549CFF1FD05802006400020030B50C4831
:1038C000144602EB4203026885B0C3EB03130D46B6
:1038D0006846D11815F050FC0B2C03D828466946D1
:1038E000FFF72EFF684615F007FC012005B030BD3C
:1038F00048CEFF1F2DE9F04190F8853093428CB0FF
:1039000090460D4602F1400347D900EB4302CF0039
:10391000D288234E12F0010F07EB010206EBC20220
:1039200014BF01210221517100EB43001D49C388DE
:1039300008A85C1015F020FC0A2208F1010104A877
:1039400015F060FC04A908A815F038FD164915F01B
:103950003DFDE3B2154C03EBC30304EB43042146E6
:1039600015F034FD0146684615F01AFC04A815F060
:10397000C3FB08A815F0C0FB28463D44694606EB8A
:10398000C505FFF7DDFE637C85F82C30684615F031
:10399000B3FB01200CB0BDE8F081014ECF00C3E7BE
:1039A000549CFF1F58FF010028020200FC11020076
:1039B0002DE9F04190F8853093428CB090460D4649
:1039C00002F1400347D900EB4302CF00D288234ED7
:1039D00012F0010F07EB010206EBC20214BF012136
:1039E0000221517100EB43001D49C38808A85C10F7
:1039F00015F0C2FB0A2208F1010104A815F002FC2F
:103A000004A908A815F0DAFC164915F0DFFCE3B2AA
:103A1000154C03EB830304EB8304A11C15F0D6FCC7
:103A20000146684615F0BCFB04A815F065FB08A824
:103A300015F062FB28463D44694606EBC505FFF7D5
:103A40007FFEE37C85F82C30684615F055FB01209D
:103A50000CB0BDE8F081014ECF00C3E7549CFF1FBE
:103A600058FF010028020200B8D201002DE9F04FF2
:103A700095B016468146884604A8002115F07CFBC7
:103A80000B2E00F2AC804FEAC80318469C4CDFF8BE
:103A900088A20193404404EBC0004FEAC60B022504
:103AA0000BEB060445710AEB4404964BB9F824006D
:103AB000677C1968944A00EB4000C0EB00100B3F94
:103AC0000144FFB239440024487D91F821E02146A9
:103AD00006E00134712C02F113024BD012F8131CD2
:103AE0008842E5B2F5D112F8121C7145F1D10BEB09
:103AF00006020AEB420204A8117A0393029215F01F
:103B0000E1FB029A04A8517A15F034FC039B002DC6
:103B10003ED07E49029304A815F01EFC04EBC402BB
:103B20007B4904EB4204214404A815F015FCB9F8C4
:103B30002420029B7748196802EB4203C3EB03136E
:103B4000A0FB070252080B4402EB42001A44381A49
:103B5000547C0130C2B2944200F09E803B445B7DB5
:103B6000023B072B00F2C280DFE803F0A58DAEB761
:103B7000C0C0C08D0BEB06040AEB440404A8217AF4
:103B8000029315F09FFB617A04A815F0F3FB029BEA
:103B9000B9F8242019685B4C02EB4203C3EB031312
:103BA0000B443B4493F821308BBB0BEB06010AEB33
:103BB000410104A815F07CFB019B514A434402EBF0
:103BC000C303002283F82C20404604A9FFF7B8FD68
:103BD00004A815F091FA012015B0BDE8F08F4E4B06
:103BE00006EBC60103EB410104A815F061FB444B51
:103BF00099F81F2008EBC80103EBC1034E4483F87A
:103C00002C2096F87920002A3AD15A71DCE70CA8CA
:103C1000424915F0B1FAB9F82430226803EB4303A6
:103C2000C3EB031313443B4408A8597D15F0D6FA9F
:103C300008A90CA815F0C2FB384915F0C7FBB9F864
:103C40002430226803EB4303C3EB031313441F44E4
:103C5000054697F8211010A815F0C0FA10A92846BB
:103C600015F0ACFB014604A815F072FB10A815F086
:103C700043FA08A815F040FA0CA815F03DFA9BE7A6
:103C800001225A71A0E7019B1D4A434402EBC30382
:103C9000EA2283F82C2097E7019B194A434402EB60
:103CA000C30301225A71B9F8243003EB4303C3EB79
:103CB00003130B4452E7019B114A434402EBC30335
:103CC000E92283F82C207FE7019B0D4A434402EB55
:103CD000C303E82283F82C2076E7019B084A43447B
:103CE00002EBC303EC2283F82C206DE7019B044A0E
:103CF000434402EBC303ED2283F82C2064E700BFAA
:103D0000549CFF1F48CEFF1FFB3102002802020017
:103D1000EA310200ABAAAAAA24BD010014000200E5
:103D2000F8B5064608460C4617F06AFDC0B21028E2
:103D300028BF1020F0B1104F06EBC60307EBC303FA
:103D4000451E1A3354FA85F5611E11F8012F03F848
:103D5000012FA942F9D110280BD006EBC60607EBBC
:103D6000C602202113180130C0B21028D976F9D12B
:103D7000F8BDF8BD004FF0E7549CFF1F0F4A01EB60
:103D8000C10302EBC30393F83030013BD8B20928DA
:103D90000DD901EBC101C90001F11A032A31134405
:103DA0000A44202103F8011F9342FBD17047044AC3
:103DB00003EB03130846D118FFF7B2BF549CFF1F53
:103DC00004D2010070B584B006460C46154668461C
:103DD0006E4915F0D1F9F5B996F86550DDB904EBE7
:103DE000C402D2006A4802F11A032A320344024490
:103DF000202103F8011F9A42FBD104EBC40400EB1D
:103E0000C400002380F82C300125684615F074F9B1
:103E1000284604B070BD012D40D0022D5CD196F82B
:103E20004A215C4B9B5C002B00F0A6805A4896F818
:103E3000491130F81250013D2B449DB2002944D065
:103E40005649163202EBC2021144684615F084FA54
:103E50005349684615F080FA524905EB450501EBD8
:103E600085010231684615F077FA96F849313BB37F
:103E700069462046FFF764FC454B96F84A214A49BB
:103E800004EBC40403EBC4048B5C84F82C30684658
:103E900015F032F90125284604B070BD434920468B
:103EA000FFF73EFF3A4BF27F04EBC40403EBC4047C
:103EB000684684F82C2015F01FF9284604B070BD20
:103EC0003B49684615F048FAD2E73A49684615F08A
:103ED00043FA96F84A21B3E7032D55D196F84C21C1
:103EE0002C4B9B5C6BB32C4896F84B1130F812505E
:103EF000013D2B449DB2002937D02849163202EBF0
:103F0000C2021144684615F027FA2549684615F0A3
:103F100023FA244905EB450501EB8501023168468A
:103F200015F01AFA96F84B311BB92149684615F07D
:103F300013FA69462046FFF703FC154B96F84C210F
:103F40009DE7134B306804EBC40203EBC2033D2230
:103F50001A862146D0F88430304698470546684690
:103F600015F0CAF8284604B070BD1249684615F02D
:103F7000F3F996F84C21C0E7054B306804EBC40216
:103F800003EBC2030F22E3E701253EE758FE0100E1
:103F9000549CFF1F085B02008CA9FF1F487B020096
:103FA00064000200183B0200808C0200F32F020024
:103FB0001C000200180002000F4A01EBC10302EBD3
:103FC000C30393F83030013BD8B20B280DD901EB75
:103FD000C101C90001F11A032A3113440A44202106
:103FE00003F8011F9342FBD17047044A03EB03130C
:103FF0000846D118FFF794BE549CFF1F4C3A0200AC
:1040000038B590F848300C4673B904EBC404E400AA
:10401000664A04F11A032A3413442021224403F887
:10402000011F9342FBD138BD0368D3F8E030054649
:1040300098470028E9D05D4B04EBC40203EBC203B0
:104040001B8E013B072B22D8DFE803F0674F0446A5
:104050003C322C2295F86C302BB955492046FFF79D
:104060005FFE95F86C30012B05D152492046FFF7D1
:1040700057FE95F86C30082B05D14F492046FFF7C5
:104080004FFE95F86C30022B69D0042B67D038BDF9
:1040900095F872302046002B5CD14849BDE8384085
:1040A000FFF73EBE20464649BDE83840FFF738BE20
:1040B00095F86F302046002B47D04249BDE8384084
:1040C000FFF72EBE95F871302046002B38D03E49C0
:1040D000BDE83840FFF724BE95F87030204653B352
:1040E0003A49BDE83840FFF71BBE95F86C304BB934
:1040F00095F86E30002B52D035492046FFF710FE60
:1041000095F86C30012B43D0082B3AD0022B31D0DC
:10411000042B2AD02F4B1C7038BD95F86D302046EB
:1041200023B12D49BDE83840FFF7FABD2B49BDE862
:104130003840FFF7F5BD2A49BDE83840FFF7F0BD2C
:104140002849BDE83840FFF7EBBD2749BDE83840B6
:10415000FFF7E6BD2549BDE83840FFF7E1BD204641
:104160002349BDE83840FFF7DBBD22492046FFF771
:10417000D7FDCFE720492046FFF7D2FD95F86C30F8
:10418000C6E71E492046FFF7CBFD95F86C30BDE72A
:104190001B492046FFF7C4FD95F86C30B4E7194978
:1041A0002046FFF7BDFD95F86C30ABE7549CFF1F30
:1041B0008000020084000200940002000C01020052
:1041C000F4000200DC000200BC000200AC000200AF
:1041D000400002003CCAFF1F200002003000020025
:1041E000B4000200CC000200E8000200000102005E
:1041F000A4000200740002006800020060000200D7
:104200005800020050000200F8B5067A102E28BFB0
:104210001026012E074621D9741E2146384615F076
:10422000F9F80378202B13D0C6F1100673100F4E47
:10423000E4B2013456FA83F600252946384615F0D3
:10424000E9F80135037806F8013FA542F5D1F8BD3C
:10425000E6B2012EE0D107230024E8E7C6F1100200
:10426000531006B9F8BD741EE1E700BF73030020C8
:1042700010B5044617F0C4FAC0B2102828BF1020A9
:10428000012821D9231813F8013C202B04D017E072
:1042900013F8013C202B13D10138C0B2012804EBE4
:1042A0000003F5D107220B49013854FA80F0631E50
:1042B0000A4413F8011F02F8011B8342F9D110BD13
:1042C000C0F110025210EEE7C0F1100252100028A7
:1042D000E9D110BD74030020094B202103F1100225
:1042E00003F8011F9342FBD1064B074807221A70BF
:1042F000DA735A709A739A705A73FFF7B9BF00BF96
:104300007303002074030020840F02002DE9F041A4
:10431000057A102D28BF10258DB16F1EFFB20D4EEE
:104320008046013700242146404615F073F80134D9
:10433000037806F8013FBC42F5D1102D08D006499C
:1043400020226B1C4A55DDB2102DFAD1BDE8F08158
:10435000BDE8F081F7A3FF1FF8A3FF1FF8B5067AA9
:10436000102E28BF1026012E074621D9741E214683
:10437000384615F04FF80378202B13D0C6F11006FD
:1043800073100F4EE4B2013456FA83F60025294625
:10439000384615F03FF80135037806F8013FA5428D
:1043A000F5D1F8BDE6B2012EE0D107230024E8E7FD
:1043B000C6F11002531006B9F8BD741EE1E700BF44
:1043C000F7A3FF1F10B5044617F01AFAC0B2102861
:1043D00028BF1020012821D9231813F8013C202BD5
:1043E00004D017E013F8013C202B13D10138C0B2E0
:1043F000012804EB0003F5D107220B49013854FAD8
:1044000080F0631E0A4413F8011F02F8011B834267
:10441000F9D110BDC0F110025210EEE7C0F1100248
:1044200052100028E9D110BDF8A3FF1FF0B51D4CB4
:104430001D4DA4FB003485B0640906460F460A22D0
:104440002146684614F0DEFE6946384614F080FFC7
:10445000684614F051FE642101FB1461C9B2A5FB4A
:1044600001310A22C9086846A5FB063514F0CAFEC8
:10447000ED086946384614F06BFF05EB8505684684
:1044800014F03AFEA6EB45010A22C9B2684614F0C0
:10449000B9FE6946384614F05BFF684614F02CFEFE
:1044A00005B0F0BD1F85EB51CDCCCCCCF0B5C7002D
:1044B000484E3A1806EBC20285B0D37904460D4641
:1044C000062B26D8DFE803F06B6B5959252704002B
:1044D0003B1806EBC3035B7A002B72D106212846FA
:1044E00014F048FF3C49284614F036FF3B1906EB10
:1044F000C304294694F83000FFF798FF202128468E
:1045000014F038FF637A2846002B5FD1062114F09F
:1045100031FF05B0F0BD3149284614F01DFF3B19AD
:1045200006EBC304294694F83000FFF77FFF2C49BF
:10453000284614F011FF94F83E10684614F04EFE21
:104540006946284614F004FF684614F0D5FD2F2173
:10455000284614F00FFF0A22A18F684614F052FE7D
:104560006946284614F0F4FE684614F0C5FD284656
:10457000292114F0FFFE05B0F0BD1A49284614F0B9
:10458000EBFE3B1906EBC304294694F83000FFF715
:104590004DFF28465D2114F0EDFE05B0F0BD124937
:1045A000284614F0D9FE3B1906EBC304294694F8BB
:1045B0003000FFF73BFF28463E2114F0DBFE05B03C
:1045C000F0BD0521284614F0D5FE8BE7052114F037
:1045D000D1FE9EE7549CFF1F30010200280102001B
:1045E0007C04020020010200180102002DE9F047BE
:1045F00088B0144606460D466846002114F0BCFDFE
:104600005C2C35D8542C3AD9002104A814F0B4FD00
:10461000B11D04A814F04CFE4FEAC409202104A8DF
:10462000224FDFF8908014F0A5FE09EB040107EBA0
:10463000410104A8264414F08FFE1D4904A814F07B
:104640008BFE04A996F88600FFF7F0FE04A9284621
:10465000FFF776F804A814F04FFD4FEAC50A4C4462
:1046600007EB4404554408EBC505637C85F82C3002
:10467000684614F041FD012008B0BDE8F0874FEA1C
:10468000C50ADFF83080094F26440AEB05034FEADC
:10469000C40908EBC30309EB040196F886205A719C
:1046A00007EB41012846FFF73BFBD8E7F4E70100A1
:1046B00028020200549CFF1FF0B501F0070303EB32
:1046C00043039F10C1F3C30187B05FFA87FECBB2EB
:1046D00028BB01AA49B15D1E52FA85F50DF103040C
:1046E000042604F8016FA542FBD1002F4BD12D4DBC
:1046F00006AC0C44695C04F8141C0133102B09D07F
:10470000284DEC5C06A919440133DBB2102B01F8EB
:10471000144CF6D10021FDF7F5FC07B0F0BD0C28D4
:10472000FBD8214A214C127882421CBF204A1070CB
:10473000204A12680092009A02F5FA72226001AAD9
:1047400049B15D1E52FA85F50DF10304042604F803
:10475000016FAC42FBD1EFB9174D06AC0C44695C5C
:1047600004F8141C0133102BD4D0134DEC5C06A9B3
:1047700019440133DBB2102B01F8144CF6D100219F
:10478000FDF7C0FCC9E706AC21440EF1FF3E01F87D
:1047900014ECB2E706AC21440EF1FF3E01F814EC34
:1047A000E0E700BF30B2FF1F3CCAFF1F70000020CF
:1047B0009FA8FF1F7836002074030020F8B5054637
:1047C00012F0A4FFAC6FA04208D9E86F95F86C30E6
:1047D0006C67042B0444AC671ED0F8BD164E3378CA
:1047E000002BFAD012F092FF144FEB6F3A78201A98
:1047F000C001B0FBF3F0C3B29A42EED00206ECD493
:104800003B70FFF769FD95F86F30397830785BB110
:10481000BDE8F840FFF750BF094A0023022111709C
:1048200085F86C30AB67F8BDC1F17F01C9B2BDE856
:10483000F840FFF741BF00BF3CCAFF1F1C04002027
:10484000DDA9FF1F90F848200AB1836F03B97047B4
:10485000FFF7B4BF90F848200AB1836F03B97047DF
:10486000FFF7ACBF2DE9F041234E244C8EB0A6FBE0
:10487000003607468846F60804F1200C0DF1140EA8
:1048800020686168A268E36875460FC51034644506
:10489000AE46F5D1184920682860A1FB0731C90848
:1048A00001EB4101A7EB8101C9B201EB410105AB6D
:1048B0001944404614F0FCFC86B1012E15D00A22A2
:1048C000B11E01A814F09EFC01A9404614F040FD61
:1048D00001A814F011FC0EB0BDE8F0814046084973
:1048E00014F03AFD0EB0BDE8F0814046054914F0E1
:1048F00033FD0EB0BDE8F081ABAAAAAAD4BC01007A
:104900003801020040010200134B1A5C8A4207D0B2
:104910000B28195404D869B1012914D0022900D0F8
:1049200070470E4B0E4AC0EBC00003EB800007211E
:1049300012F02CB8094B0B4AC0EBC00003EB80000F
:10494000072112F023B8054B074AC0EBC00003EB68
:104950008000072112F01AB854CAFF1F48CBFF1F6E
:104960002489FF1F2CCAFF1FD08AFF1F0139082985
:1049700002D80121FFF7C8BF0021FFF7C5BF00BF64
:1049800030B50F4C0F4885B012F030F82368019312
:10499000019D02E00B4812F07FF823680293029B0E
:1049A0005B1B642BF6D923680393074B039A0748D4
:1049B0001A6012F01BF8054812F06EF805B030BD11
:1049C00078360020A4A8FF1F10B2FF1F40CAFF1FA7
:1049D000A0F1E703092B09D8DFE803F0050C0F125B
:1049E00015181B1E21090F4B93F8230070470D4B20
:1049F000987A70470B4B987C70470A4B587C7047ED
:104A0000084B187C7047074BD87B7047054B987B49
:104A10007047044B587B7047024B187B7047014B23
:104A2000D87A704748B2FF1FF0B501F07F041F2C01
:104A300083B005460FD80B0634D4264EB378EBB9B5
:104A4000F3781BB9244B5C5503B0F0BD21462846D2
:104A5000FFF78CFFF6E7214B214AD97F145C93F8CE
:104A60002020987F12F04CF9214602461D4812F092
:104A70000FF9194B00225A5503B0F0BD1749184FD2
:104A800004EB44028B18885C9A7859787F5D12F0A9
:104A900037F939460246134812F0FAF8F378002B3A
:104AA000D0D0D3E7104B0B4E1B78002BC6D1B27879
:104AB0003AB9F378002BDCD000212846FFF724FF19
:104AC000D7E7074A0093115C06481A4612F0BAF875
:104AD000EFE700BF48B2FF1F88B2FF1F208AFF1F09
:104AE000808AFF1FA4A8FF1F108AFF1F044BDB79D9
:104AF00013B91946FFF798BF41F01001FFF794BFB3
:104B000048B2FF1F10B5002400221146104612F0D3
:104B1000F7F8A1B2024601340D4812F0B9F80C2C96
:104B2000F2D10B4811F0B8FF0024002211461046C4
:104B300012F0E6F8A1B202460134064812F0A8F8D5
:104B40000C2CF2D10348BDE8104011F0A5BF00BF06
:104B5000A4A8FF1F40CAFF1F10B50B4C0520217AE7
:104B6000FFF762FF217A0620FFF75EFF217A092016
:104B7000FFF75AFF217A0A20FFF756FF0348BDE8E6
:104B8000104011F089BF00BF48B2FF1FA4A8FF1F4B
:104B900070B50F4D0F4E002407E0317A0134FFF756
:104BA00043FF0C2C05F148050DD0AB79E2B2194654
:104BB0001046002BF1D110460134FFF735FF0C2CC5
:104BC00005F14805F1D1044B01221A7070BD00BFF8
:104BD000549CFF1F48B2FF1FE889FF1F10B50C4C03
:104BE000FFF790FF217A1F2904D90A48BDE8104039
:104BF00011F052BF0920FDF7F3FA217A1F29F4D8EA
:104C00000A20FDF7EDFA0348BDE8104011F044BF5B
:104C100048B2FF1F40CAFF1F2DE9F04F5948DFF887
:104C20008CB1DFF88CA1584A584E594D594CDFF8D9
:104C30008491DFF88481584F5849C0F800A083B0B0
:104C40006420C6F80090C5F800802760116012F05B
:104C50007FFDDBF84800524E0268524DD26947F69C
:104C6000122190479BF864104F4BCBF81C30002466
:104C700001F0FE014FF6FF7264F347016420CBF8A8
:104C80005C20CBF8602001928BF86410CBF800A078
:104C9000CBF80490CBF81080CBF80C708BF84C401C
:104CA0008BF84E408BF84D40CBF85840CBF8544031
:104CB0008BF869418BF866408BF865408BF867404C
:104CC0008BF8684012F044FDB06C036847F612217F
:104CD000DB69984796F86430019AF265326603F012
:104CE000FE03314AF26164F347036420C6F800A072
:104CF000C6F80490C6F81080F76086F8643086F82D
:104D00004C4086F84E4086F84D40B465746586F890
:104D1000694186F8664086F8654086F8674086F8FF
:104D2000684012F015FDA86C036847F61221DB6994
:104D3000984795F86430019AEA652A6603F0FE0305
:104D4000194AC5F800A064F3470385F84C4085F87C
:104D50004E4085F84D40AC656C6585F8694185F835
:104D6000664085F8654085F8674085F86840C5F875
:104D70000490C5F81080EF60EA6185F8643003B0F4
:104D8000BDE8F08FB837002088370020C0370020FA
:104D90007C370020BC370020F5040000C101010071
:104DA00024AFFF1F90B0FF1F4D020100B8ADFF1FE1
:104DB00029C6000001C6000095040000DFF8A0C06D
:104DC0002DE9F0439CF80070DFF890E007EB470412
:104DD0000EEB04035D788D4239D0DFF8889099F8A6
:104DE0000080B8F1000F36D008F1FF36F6B21B4B49
:104DF0000136002404E00134B44203F103030BD074
:104E00005D788D42F7D19D789542F4D104EB44044E
:104E10000EF80400BDE8F083B8F1180F10D97B1C20
:104E2000DBB2182B88BF00238CF8003003EB430360
:104E30000EEB03040EF803006170A270BDE8F0836E
:104E400008F101085FFA88F889F80080E7E79B78A5
:104E50009342C2D1DCE74FF00108F5E764CAFF1FB7
:104E60003DCAFF1FFCB1FF1F70B4154B154E1B78D8
:104E700003EB4303F218547884421BD0124B1B7887
:104E8000ABB15D1EEDB20F4B0135002204E00132E3
:104E9000AA4203F103030AD05C788442F7D19C78DC
:104EA0008C42F4D102EB4202B05C70BC7047FF2030
:104EB00070BC704792788A42E0D1F05CF8E700BF9E
:104EC0003DCAFF1F64CAFF1FFCB1FF1F2DE9F04F51
:104ED000DFF8C0802E4F98F800C017F82C4083B040
:104EE000844201919A4647D0DFF8ACB09BF800901D
:104EF000B9F1000F49D009F1FF36F6B2244C013662
:104F0000002103E0B14204F1040413D017F821504A
:104F10001F4B85424FEA810E01F10101F2D1A578C4
:104F20009542EFD1E5785545ECD173449DF80420C6
:104F30005A7017E0B9F1180F17D90CF1010C5FFA8C
:104F40008CFCBCF1180F88BF4FF0000C07EB8C03F2
:104F50009DF8041007F82C0088F800C059709A706A
:104F600083F803A003B0BDE8F08F09F101095FFAEF
:104F700089F98BF80090E0E707EB8C039978914270
:104F8000B2D1D9785145AFD1D0E74FF00109F0E760
:104F9000A4CCFF1F0CA6FF1FAAACFF1FF0B51A4B35
:104FA0001A4F1B7817F823408442944621D0184B9F
:104FB0001B78E3B15E1EF6B2144C0136002303E009
:104FC000B34204F1040412D017F823500F4A85426B
:104FD0004FEA830E03F10103F2D1A5788D42EFD1A0
:104FE000E5786545ECD196449EF80100F0BDFF20C0
:104FF000F0BD07EB83039A788A42D8D1DA7862450C
:10500000D5D15878F0BD00BF0CA6FF1FA4CCFF1F60
:10501000AAACFF1F074B198859B17F29CABFC0012D
:10502000C0EBC010013190FBF1F10020C9B2FFF7D5
:1050300043BB70477CB2FF1FF8B50446002501262C
:10504000254B03600F4680F8215080F8225085845C
:1050500080F8266029462C3014F08EF80A2384F854
:10506000465084F8475084F8495084F8625084F8D8
:10507000635084F8645084F8655084F8805084F854
:10508000815084F8825084F8835084F8845067718A
:10509000A4F84060A4F8426084F8485084F84B506B
:1050A00084F84C6084F84D506565A4F8605084F82D
:1050B0006D5084F86E5084F86F5084F8705084F806
:1050C000715084F8725084F873506567A567A4F82E
:1050D00044302046F8BD00BFFC5902000A2926D8FA
:1050E000DFE801F0080A0D101316191C1F22060034
:1050F00000797047C07F704790F82000704790F8A3
:105100002200704790F82300704790F840007047E5
:1051100090F84C00704790F88000704790F881003C
:10512000704790F88200704790F883007047002025
:10513000704700BF2DE9F0411D4C04F12506C4F174
:105140000F0514F8011B601912F006F9B442F8D1EA
:10515000184E812740F2A11856F8043F998C781E0A
:10516000090A80B2FEF7BEF93368384693F8241076
:10517000FEF7B8F93368781C93F8631080B2FEF735
:10518000B1F9BC1CA4B20025E9B23068FFF7A6FF54
:10519000013501462046FEF7A5F901340B2DA4B2D6
:1051A000F2D12037BFB24745D6D1BDE8F08100BF6C
:1051B00048B2FF1FE889FF1F094A10B502F1250414
:1051C0008179C37903EBC11302F8013F944200F1E6
:1051D0000200F5D1FFF7AEFF024B03221A7010BD9B
:1051E00047B2FF1FDDA9FF1F0A2908D8DFE801F039
:1051F000080A0D1013161C1F2225060002717047A5
:10520000C277704780F82020704780F822207047CE
:1052100080F823207047A0F840207047003218BF64
:10522000012280F84C20704780F88020704780F879
:105230008120704780F88220704780F88320704773
:10524000F0B41A4D4679848F2F78C38F01361B1B1B
:10525000B7429CB2B0F8407024D0A0F844202E7021
:10526000A0F842703A4681B1B0F84430B4FBF3F391
:1052700093428ABF531C00239BB2A0F842309F4246
:1052800001D100232B70F0BC704732B9B0F8443024
:10529000B4FBF3F3A0F84230F1E7531E9BB2A0F841
:1052A0004230ECE7B0F84220DDE700BFA8ACFF1FBA
:1052B00010B5264A4379127801339A428CB00446DD
:1052C00006D00368818C5B6D214A98470CB010BDF5
:1052D0006846002113F050FF04A8002113F04CFF92
:1052E000B4F84230A28FB4F84410206813FB0121B7
:1052F00089B26A46436D20469847B4F84210A28F9F
:10530000B4F844302068013A013113FB012189B21D
:10531000436D04AA20469847694608A813F040FF49
:1053200008A80C4914F052F804A914F047F80146F3
:10533000074814F00DF808A813F0DEFE04A813F0D7
:10534000DBFE684613F0D8FE0CB010BDA8ACFF1F02
:1053500050000020D0FD0100F0B569496948B5B0A2
:1053600013F0A6FF10AE344634AD204600211034B1
:1053700013F002FFA542F8D1634C002504F1240785
:1053800001E0BC4215D054F8040F90F84B30002BCC
:10539000F7D0FFF78DFF5D495A4813F0DDFF216814
:1053A00006EB05102C3113F073FF0135BC42EDB252
:1053B000E9D1544C564F217A2046013914F066F851
:1053C0003B78013B082B77D9032D00F28180DFE881
:1053D00005F06E694202042300226846314614F04B
:1053E00031F8694604A813F0DBFE4A4904A813F01B
:1053F000EDFF04230022044614A908A814F022F8A3
:1054000008A9204613F0DAFF424913F0DFFF042316
:105410000022044618A90CA814F014F80CA9204680
:1054200013F0CCFF01463C4813F032FF0CA813F0F8
:1054300063FE08A813F060FE04A813F05DFE684642
:1054400013F05AFE34AC103C204613F055FEB44223
:10545000F9D135B0F0BD0723002204A8314613F07E
:10546000F1FF04A908A813F09BFE08A8294913F02E
:10547000ADFF07230022044614A90CA813F0E2FF95
:105480000CA9204613F09AFF0146234813F000FFB1
:105490000CA813F031FE08A813F02EFE04A813F098
:1054A0002BFECFE731461C4813F0F2FECAE71B493A
:1054B000194813F0FDFEC5E72046114913F0F8FE28
:1054C0003B78174A013B52F82300FFF7F1FE7BE7D8
:1054D000294608A813F082FE08A90CA813F060FE64
:1054E0000CA8104913F072FF01460B4813F0D0FED0
:1054F0000CA813F001FE08A813F0FEFDA2E700BF00
:1055000058FE010050000020E889FF1F8CFF0100B9
:10551000A8ACFF1F4801020098B2FF1F48FE01001F
:10552000EC89FF1F4C01020030B490F884305749D9
:10553000032B4FD8DFE803F03A2C100290F8835089
:105540000A78AA422C460DD0514B1A78954229D0A0
:105550000C70104630BC704790F882500A78AA420E
:105560002C46F1D104220133DBB2032B29D990F868
:1055700080100023013A002955D112F0FF02F2D128
:1055800080F88430032B7FD8DFE803F03935312DE4
:1055900090F881500A78AA422C46E3D03C4B1A7806
:1055A000AA42D5D12A46104630BC704790F88050A8
:1055B0000A78AA422C46D5D0354B1A78AA42C7D1D0
:1055C000F0E7022B22D0032B1DD0012BCFD190F876
:1055D0008110CFE70A78002AC4D0032B19D8DFE85E
:1055E00003F04F4B474390F883502A46DBE790F88F
:1055F00082502A46D7E790F881502A46D3E790F8A0
:1056000080502A46CFE790F88310B3E790F88210D5
:10561000B0E71F4A1278002AB4D0032B22D8DFE863
:1056200003F01E1B1815022B80F8843008D0032BC2
:1056300009D0012B14BF90F8802090F8812088E7D2
:1056400090F8822085E790F8832082E790F88340E5
:105650007EE790F882407BE790F8814078E790F809
:10566000804075E7002473E790F883502C466BE781
:1056700090F882502C4667E790F881502C468DE7D1
:1056800090F880502C4689E7002262E7408BFF1F8C
:10569000CC89FF1F90F848200AB90020704738B520
:1056A0000368D3F8E0300D460446984708B9002057
:1056B00038BDE900254A4B1902EBC3031B8E013BA1
:1056C000072B09D8DFE803F03D3327201B16040E13
:1056D00094F86C30042B09D01D4B93F8230040F054
:1056E000100038BD94F87230002BF5D0184B93F8A9
:1056F000230038BD94F86F30002BF7D1ECE794F815
:105700007130002BF2D1E7E70D4402EBC505AB7910
:10571000002BEBD1E0E794F86C30012BE6D0082B9E
:10572000DAD10B4B93F8230040F0800038BD94F899
:105730006C20082AD0D84FF48A73D340DB07D5D425
:10574000CAE794F86D30002BD0D1C5E7549CFF1FF9
:1057500048B2FF1F90F8482002B9704703682DE94E
:10576000F041D3F8E0300C460546984708B9BDE84B
:10577000F08111F0CBFF611E0646072905D8DFE84E
:1057800001F017283F5AA96F8F06BDE8F08195F800
:10579000723083F0010385F87230002B40F0E08016
:1057A0002B682846D3F8E8300D21BDE8F0411847B2
:1057B00095F86D102B6881F0010185F86D100029B6
:1057C00000F0AA802846D3F8E8300121BDE8F04176
:1057D000184795F86E30002BD7D095F86C30012B18
:1057E00000F0E08040F2E48000242B6885F86C40F3
:1057F000D3F8E830022128469847AC67BDE8F0812D
:1058000095F86C40002C00F0BB80012C00F0E88083
:10581000082C00F0F880022CB7D108222B6885F8FC
:105820006C20D3F8E830052128469847012385F8F5
:105830007330BDE8F08195F87330002BA5D095F852
:10584000703083F0010385F87030002B00F09080F9
:105850002B682846D3F8E8300A21BDE8F041184704
:1058600095F86C30012B90D095F86F3083F00103E0
:1058700085F86F30002B55D02B680721D3F8E8301E
:105880002846984795F86C30002B3FF47EAF6B6F3D
:10589000AA6F7600F31AB61AAB676E67BDE8F0819F
:1058A00095F86E30002B3FF470AF2B680C21D3F8C5
:1058B000E8302846984795F86C30012B00F08C8032
:1058C00040F28580042B00F08280042385F86C3040
:1058D000BDE8F08195F86C30012B3FF456AF95F898
:1058E000713083F0010385F8713013B32B680921FF
:1058F000D3F8E83028469847EB6F95F86C205B00AA
:10590000EB67002A3FF441AFAA6FC6EB4206F31AD9
:105910006B67AE67BDE8F0812846D3F8E830BDE894
:10592000F04118472B680621D3F8E83028469847FD
:10593000A8E72B680821D3F8E83028469847EB6F92
:1059400095F86C205B08EB67002A3FF41EAFAA6F46
:10595000961BA2EB5602D31A6B67AA67BDE8F081CB
:105960002B682846D3F8E8300E21BDE8F0411847EF
:105970002B682846D3F8E8300B21BDE8F0411847E2
:1059800001272B6885F86C70D3F8E830042128468D
:10599000984785F86E7085F8734085F870406E679B
:1059A000BDE8F0816B6F6E67F31AF218EB67AA67B8
:1059B00002222B6885F86C20D3F8E83003212846B2
:1059C0009847EB6F6E673344AB67BDE8F081EB6FD0
:1059D0006E673344AB6778E76B6FF31AEB67F7E7F3
:1059E00008222B6885F86C20D3F8E830052128467A
:1059F00098476B6F85F87340F31AF218EB67AA6744
:105A00006E67BDE8F0812B68022285F86C2028467D
:105A1000D3F8E8300321BDE8F0411847F0B504465B
:105A200080F8851010291FD8DFE801F01F2D1E4ACD
:105A30001E5E6F859F1EA91E1E1E1E1E09005D4A4A
:105A40005D4B1068C4F8060007CB1F889E78C4F829
:105A50000E0040F2FF130020C4F81210C4F8162004
:105A600067832677A087E387F0BD544A544B1068BC
:105A7000C4F8060007CB1F889E78C4F80E0040F2D9
:105A80007F130020E8E74F4F4F4D3868C4F80600F9
:105A90000FCD3F7995F800E0A772C4F80E000027FB
:105AA00040F27F15012084F81EE0C4F81210C4F8FB
:105AB0001620C4F81A30A787E58784F87200F0BD75
:105AC000424A434B1068C4F8060007CB1E78C4F85E
:105AD0000E0040F27F130020A676C4F81210C4F81E
