:1000000000000320D1010000D5270200992702003B
:1000100099270200992702009927020099270200D8
:10002000992702009927020099270200D52702008C
:10003000D5270200992702001D5502000D56020027
:10004000D5270200D5270200D5270200D5270200B8
:10005000D5270200D5270200D5270200D5270200A8
:10006000D5270200D5270200D5270200D527020098
:10007000D5270200D5270200D5270200D527020088
:10008000D5270200D5270200D5270200D527020078
:10009000D5270200D5270200D5270200D527020068
:1000A00039E3010049E30100D5270200D52702000A
:1000B000D5270200D5270200D527020065360200A9
:1000C000D5270200153E0200D52702005156020036
:1000D000D527020061570200D5270200D52702006C
:1000E000D5270200D5270200D527020055180200A7
:1000F000D5270200D5270200D5270200D527020008
:100100009D1C0200B51C0200CD1C0200E51C020073
:10011000D5270200FD400200D5270200D5270200A6
:10012000D5270200D5270200D5270200D5270200D7
:10013000D5270200D5270200D5270200D5270200C7
:10014000D5270200D527020065580200D5270200F6
:10015000D5270200D5270200D5270200D5270200A7
:10016000D5270200D527020059E30100D527020058
:10017000D5270200D5270200D5270200D527020087
:10018000D5270200D5270200D5270200D527020077
:10019000D5270200D527020069590200D5270200A1
:1001A000D5270200D5270200D527020069E3010008
:1001B000D5270200D5270200D5270200D527020047
:1001C000D5270200D5270200D5270200D527020037
:1001D0005C4B4CF2205210B51A804DF628121A8052
:1001E00000BF00BF22F0FAFA574B4FF030621A609E
:1001F000564A9A60564ADA60564B4FF470021A60BB
:10020000554B564A1A60564B1A78110703D51A787F
:1002100042F008021A70534B5349AA221A70534AEB
:10022000534B8B4204D252F8040F43F8040BF8E707
:10023000504B514900228B4202D243F8042BFAE77B
:100240004E494F4A002352F8230041F8230001335E
:10025000742BF8D14B4B4C4A802103F8011B93427D
:10026000FBD14A4B454A1A60494B8A221A70A3F5C2
:10027000805324225A70A0221A709A799207FCD5D2
:100280009A79D406FCD4434A937903F00C03082BE3
:10029000FAD1414B60221A7002331A78802AFCD1BD
:1002A0003C4B01221A715D225A719A799006FCD555
:1002B0009979384A4906FBD5384B394919600021EC
:1002C000596020231370937903F00C030C2BFAD19F
:1002D000344B354A1A60354A354C136813F4807331
:1002E00003D123604FF4A8531360324B324A1A6093
:1002F00000225A60072243F8042C304AC3F80C2D20
:1003000062B622F097FD2368DA0705D52C4822F063
:100310002FFB2C4B2C4A1A602C4B1B785B0609D503
:10032000284C294B22689A4204D1254822F020FB10
:100330000023236025F078FD22F056FA22F08AF996
:10034000FEE700BF0E20054030800440823F0400DD
:100350000100002B88ED00E0002008E0030000858C
:1003600002D0074000E007404022FF1FF084030056
:100370005008FF1F0030FF1F809200200002FF1F67
:100380000000000000E400E064E400E008ED00E0AC
:10039000005006400040064001E007404480044011
:1003A0000000060204800440C010070010D0034083
:1003B00014D0034014E000E01FBF02000000202022
:1003C0001E6CD65E1CE00340A5C3945A00F00740A3
:1003D000FFFFFFFFFFFFFFFFFFFFFFFFFFFFFFFF2D
:1003E000FFFFFFFFFFFFFFFFFFFFFFFFFFFFFFFF1D
:1003F000FFFFFFFFFFFFFFFFFFFFFFFFFFFFFFFF0D
:10040000FFFFFFFFFFFFFFFFFFFFFFFFDEF9FFFF23
:1004100010B5054C237833B9044B13B10448AFF33E
:1004200000800123237010BD0030FF1F000000007A
:10043000EC840300084B10B51BB108490848AFF322
:1004400000800848036803B910BD074B002BFBD0A0
:10045000BDE81040184700BF000000000430FF1F37
:10046000EC8403004022FF1F0000000000207047C2
:10047000704700BF704700BF704700BF704700BFA4
:10048000704700BF704700BF2DE9F041094B1D7850
:10049000094C04F13408094F2D091E4654F8040B89
:1004A000795D32780368DB69114398474445F5D19B
:1004B000BDE8F08190D1FF1F3809FF1F285B0020A5
:1004C000704700BF704700BF704700BF10B590F87D
:1004D00021409C420CD190F82030934208D1838C6B
:1004E00089B28B4204D0C384818403689B6C984793
:1004F00010BD00BF704700BF10B490F820409C4270
:1005000008D190F821409DF804309C4202D109B9ED
:1005100080F84A205DF8044B704700BF704700BF69
:10052000704700BF704700BF704700BF704700BFF3
:10053000704700BF704700BF704700BF704700BFE3
:10054000704700BF704700BF90F84B3073B9B0F8E8
:10055000463001EB81014900642202FB0311B0F82F
:1005600042008142CCBF002001207047012070472B
:10057000B0F84820094B1A7043790133084A1370C8
:100580006423A0F84830838C064AA2FB03235B094E
:10059000A0F84630002380F84B307047B925002082
:1005A00030FDFF1F1F85EB5190F84B3063B9B0F859
:1005B000460000EB800000EB800001EB8101490068
:1005C00001EB800080B27047B0F8463003EB830344
:1005D00001EB430189B290F8280081422CBFC0EBA7
:1005E0000100C0EB000080B2704700BF704700BF41
:1005F000704700BF08B50368DB6F984708BD00BFB0
:10060000704700BF704700BF002070470020704750
:1006100008B50368D3F89830984708BD0846704776
:1006200080F866100023A0F86430704700207047FF
:1006300000207047704700BF704700BF704700BF81
:10064000704700BF704700BF704700BF90F86A3026
:100650004BB10133DBB2022B88BF012380F86A3033
:100660000222014B1A707047DCFBFF1F704700BF6E
:10067000704700BF00207047704700BF704700BF41
:10068000704700BF5D207047542904D95D2934BFED
:100690008020002070470220704700BF0379022BA2
:1006A00006BF90F8F20040005D2070470379022BEE
:1006B00015D170B400F1930400231A46DEB214F889
:1006C000015F35B195B28D4201D1B0B209E001327E
:1006D000D2B201335D2BF1D14FF6FF7001E0084635
:1006E000704770BC704700BF90F8F300704700BFC0
:1006F00010B590F821409C4213D190F820309342DD
:100700000FD190F84A3001EBC31189B2838C994222
:1007100007D0C384818403689B6C98470222014BF5
:100720001A7010BDDCFBFF1F38B504460D46838CE4
:100730008B4202D103685B6F9847A38CE384A58446
:10074000012384F8A330024A1370024A137038BDA3
:100750003409FF1F2869FF1F704700BF082070473A
:1007600010B50C460368D3F898309847A0428CBF68
:100770000220002010BD00BF2F2070472E299DBFF2
:10078000024B03EB4111087A0020704708C70200B2
:10079000082070471531C8B2704700BF10B44C2014
:1007A000044C00FB014181F8303081F83C205DF8B9
:1007B000044B70472C69FF1F08B590F8983013B1AF
:1007C00003685B6F984708BDB0F84820074B1A7064
:1007D00043790133064A13704FF49673A0F84830FA
:1007E0000023A0F8463080F84B307047B925002030
:1007F00030FDFF1F90F84B3023B9C1EB01114800C9
:1008000080B208E0B0F84600C0EB001001EB4101F7
:1008100001EB400080B2022898BF0320033880B269
:10082000704700BF2E2070472D299DBF024B03EB60
:100830004111087A00207047742D0300082070478A
:100840001531C8B2704700BF10B44C20044C00FBF7
:10085000014181F8303081F83C205DF8044B70474D
:100860002C69FF1F022380F86A30704790F84B30E4
:1008700063B901EB8101B0F84230B0F840209B1A17
:10088000B3EBC10FACBF012000207047B0F8463079
:1008900003B971B103EB830301EB4301B0F84230BC
:1008A000B0F840209B1AB3EB810FACBF01200020B1
:1008B00070470020704700BFB0F84820074B1A70FF
:1008C00043790133064A13704FF4C873A0F84830D7
:1008D0000023A0F8463080F84B307047B92500203F
:1008E00030FDFF1F704700BF102070470F2907D849
:1008F00001EBC10301EB4301024B1944887C7047B3
:1009000000207047003403000120704710B590F8B4
:1009100021409C420FD190F8203093420BD1838C20
:1009200089B28B4207D0C384818403689B6C98474B
:100930000222014B1A7010BDDCFBFF1F002380F860
:100940004D300379022B07D190F84C3023B90123A5
:1009500080F8933080F82110704700BF90F89530F0
:1009600043B390F84B3093B9B0F84620322303FBE1
:1009700001F14FF4FA7303FB0211B0F84230B0F802
:100980004000181A8142CCBF002001207047B0F807
:10099000463003B981B101EB8101322202FB03131E
:1009A000B0F84220B0F84000101A8342CCBF0020BB
:1009B000012070470120704700207047B0F84820A0
:1009C0000B4B1A70437901330A4A137090F8953033
:1009D0001BB96423A0F8483003E04FF4FA73A0F881
:1009E00048300023A0F8463080F84B30704700BFF5
:1009F000B925002030FDFF1F12207047A1F10B0325
:100A00009BB2032B0AD910B50C460368D3F8983073
:100A10009847844234BF0220002010BD80207047D8
:100A200090F86A304BB10133DBB2032B88BF01234E
:100A300080F86A300122014B1A707047DCFBFF1FFF
:100A40000120704710B5044690F8210098421CD14F
:100A500094F82030934218D1042904D0032903D8F4
:100A60000131C9B200E00021A38C89B28B420CD0C5
:100A7000E384A18423681B6D2046984723689B6C00
:100A8000204698470222014B1A7010BDDCFBFF1F65
:100A900090F84B308BB9B0F84630C3EB031301EB41
:100AA000410101EB4301B0F84230B0F84000181AA0
:100AB0008142CCBF002001207047B0F8463023B9F6
:100AC00008298CBF0020012070470139C9B20729CD
:100AD0008CBF002001207047B0F84820074B1A70E7
:100AE00043790133064A13705023A0F8483000239D
:100AF000A0F8463080F84B30704700BFB925002081
:100B000030FDFF1F90F84B305BB9B0F8463003EB77
:100B1000830301EB4301B0F8400000EBC10188B250
:100B20007047B0F84620B0F8403003EBC2000144F3
:100B300089B2002908BF0121013988B2704700BF7E
:100B40008920704790F8663023B1034A134413F8A4
:100B5000010C704789207047E05D0020F0B490F8E8
:100B60006660A6B10B4A00231D46DFB2D47DB442B5
:100B700006D1ACB2A14201D1B8B209E00135EDB263
:100B800001331A32892BF0D14FF6FF7000E008468E
:100B9000F0BC7047B0EF020090F86A3093B110B526
:100BA0000133DBB2032B88BF012380F86A300C4687
:100BB0000368D3F8E8309847034B1C700122034BBD
:100BC0001A7010BD704700BF40FDFF1FDCFBFF1F08
:100BD00010B590F821409C420FD190F820309342FC
:100BE0000BD1838C89B28B4207D0C3848184036884
:100BF0009B6C98470222014B1A7010BDDCFBFF1F53
:100C0000704700BF10207047A1F10E039BB2012B6B
:100C10000AD910B50C460368D3F898309847844237
:100C200034BF0220002010BD8020704790F86A3049
:100C30004BB10133DBB2022B88BF012380F86A304D
:100C40000122014B1A707047DCFBFF1F0120704727
:100C500010B590F84C40BCB190F821409C4213D1A3
:100C600090F8203093420FD1838C89B28B420BD005
:100C7000C38490F84A3001EBC311818403689B6CF4
:100C800098470222014B1A7010BD00BFDCFBFF1F0A
:100C9000704700BF0F2070470E2907D801EB4101B4
:100CA000C1EBC101024B1944887C7047002070479A
:100CB000E8CC020010B590F821409C421CD190F87D
:100CC0002030934218D190F84A3003EB830303EBB2
:100CD000830301EB830189B2838C99420CD00446D3
:100CE000C384818403681B6D984723689B6C2046EE
:100CF00098470222014B1A7010BD00BFDCFBFF1F9A
:100D000090F84B306BB901EB8101B0F84230B0F88C
:100D100040209B1A0133B3EBC10FACBF0120002070
:100D20007047B0F8463003B979B103EB830301EBA8
:100D30004301B0F84230B0F840209B1A0133B3EBC6
:100D4000810FACBF0120002070470020704700BF1A
:100D5000B0F84820074B1A7043790133064A1370E4
:100D60004FF4C873A0F848300023A0F8463080F84C
:100D70004B307047B925002030FDFF1F90F84B30F5
:100D80001BB901EB8101C80007E0B0F8460000EB99
:100D9000800001EB4000800080B2032898BF04204F
:100DA000043880B2704700BF18207047172906D852
:100DB00001EBC101034B03EB8101087B704700206D
:100DC000704700BF98E10200102070471531C8B28B
:100DD000704700BF10B44C20044C00FB014181F867
:100DE000303081F83C205DF8044B70472C69FF1FC0
:100DF00090F86A304BB10133DBB2022B88BF01237C
:100E000080F86A300122014B1A707047DCFBFF1F2B
:100E100008B590F84C2080F84F200268526C818C05
:100E2000904708BDB0207047C12906D801EB4101A9
:100E3000034B03EBC101887870470020704700BF67
:100E4000C86B030090F8663023B1034A134413F8CB
:100E5000010C7047C2207047CC250020F0B490F8F8
:100E60006660A6B10B4A00231D46DFB2D47DB442B2
:100E700006D1ACB2A14201D1B8B209E00135EDB260
:100E800001331832C22BF0D14FF6FF7000E0084654
:100E9000F0BC7047C86B0300272070470B2902D8AD
:100EA0000131C8B27047A1F11703DBB20A2B02D897
:100EB0000239C8B27047A1F12203DBB21F2B9ABFDF
:100EC0001E31C8B20020704710B44C20044C00FB07
:100ED000014181F8303081F83C205DF8044B7047C7
:100EE0002C69FF1F90F86A304BB10133DBB2022B43
:100EF00088BF012380F86A300122014B1A707047C5
:100F0000DCFBFF1F38B504460D46838C8B4218BFAF
:100F1000C38403D103685B6F9847FFE7A58401236F
:100F200084F8A030024A1370024A137038BD00BF23
:100F30003409FF1F2869FF1F0620704710B50C46B3
:100F40000368D3F898309847A0428CBF0220002055
:100F500010BD00BF38B504460D46838C8B4218BFC8
:100F6000C38403D103685B6F9847FFE7A58401231F
:100F700084F83331024A1370024A137038BD00BF3F
:100F80003409FF1F2869FF1F0620704710B50C4663
:100F90000368D3F898309847A0428CBF0220002005
:100FA00010BD00BF074B1B78012B02D9013B054A3E
:100FB00013700122044B1A700023044A1370044A70
:100FC00013707047458CFF1F2869FF1FA570002014
:100FD00042FDFF1F074B1B780F2B02D80133054A38
:100FE00013700122044B1A700023044A1370044A40
:100FF00013707047458CFF1F2869FF1FA5700020E4
:1010000042FDFF1F704700BF10B50446034B40F878
:10101000303B20F089FE204610BD00BF08060300CB
:1010200010B50446034B40F8303B20F07DFE2046CF
:1010300010BD00BF0806030010B50446034B40F87E
:10104000303B20F071FE204610BD00BF08060300B3
:1010500010B50446034B40F8303B20F065FE2046B7
:1010600010BD00BF0806030010B50446034B40F84E
:10107000303B20F059FE204610BD00BF080603009B
:1010800010B50446034B40F8303B20F04DFE20469F
:1010900010BD00BF0806030010B50446034B40F81E
:1010A000303B20F041FE204610BD00BF0806030083
:1010B00010B50446034B40F8303B20F035FE204687
:1010C00010BD00BF0806030010B50446034B40F8EE
:1010D000303B20F029FE204610BD00BF080603006B
:1010E00010B50446034B40F8303B20F01DFE20466F
:1010F00010BD00BF0806030010B50446034B40F8BE
:10110000303B20F011FE204610BD00BF0806030052
:1011100010B50446034B40F8303B20F005FE204656
:1011200010BD00BF0806030010B50446034B40F88D
:10113000303B20F0F9FD204610BD00BF080603003B
:1011400008B5C82021F060FE014A024B1A6008BDB4
:101150000400FA050CED00E038B5044600230371E5
:10116000CD2280F88C2080F88D3080F88E3080F889
:101170008F3000F130051121284620F0EBFD0449A5
:10118000284620F06DFE012384F8503038BD00BFA2
:10119000F49E020008B50249104620F061FE08BD29
:1011A000089F020008B50249184620F059FE08BD04
:1011B000189F020008B50249104620F051FE08BDF4
:1011C0001C9F020008B50249104620F049FE08BDE8
:1011D000289F020008B50249104620F041FE08BDD4
:1011E000189F020038B50C4615460368D3F89830AE
:1011F0009847A04283BF04EBC404044901EB4401B7
:101200000349284620F02CFE38BD00BF108502009F
:101210002CA8020038B50C4615460368D3F8983060
:101220009847A04209D904EB4404C4EBC40405491F
:101230002144284620F014FE38BD0349284620F0FA
:101240000FFE38BD666203002CA8020038B50C46BC
:1012500015460368D3F898309847A04283BF0449E5
:1012600001EB441109310349284620F0F9FD38BD4E
:1012700008C702002CA8020038B50C4615460368C2
:10128000D3F898309847A04283BF044901EB44113A
:1012900009310349284620F0E3FD38BD742D0300D1
:1012A0002CA8020038B50C4615460368D3F89830D0
:1012B0009847A04209D904EBC40104EB4104054955
:1012C0002144284620F0CCFD38BD0349284620F0B3
:1012D000C7FD38BD003403002CA8020038B50C4609
:1012E00015460368D3F898309847A04283BF16216B
:1012F000034B01FB04310349284620F0B1FD38BD02
:10130000D46303002CA8020038B50C4615460368C8
:10131000D3F898309847A04209D904EB4401C4EBB4
:10132000C10405492144284620F09AFD38BD0349EF
:10133000284620F095FD38BDB42103002CA80200FA
:1013400038B50C4615460368D3F898309847A04244
:1013500009D904EB4404C4EBC404054921442846DC
:1013600020F07EFD38BD0349284620F079FD38BDC8
:10137000E8CC02002CA8020038B50C4615460368DC
:10138000D3F898309847A04209D904EBC404064921
:1013900001EB84010D31284620F062FD38BD034980
:1013A000284620F05DFD38BD98E102002CA802001F
:1013B00038B50C4615460368D3F898309847A042D4
:1013C00009D904EB4404064901EBC4010331284662
:1013D00020F046FD38BD0349284620F041FD38BDC8
:1013E000C86B03002CA8020030B589B015464BB27B
:1013F000002B17DD0C460E49684620F0E1FC214623
:1014000004A820F03FFD04A9684620F0EBFD01464A
:10141000284620F007FD04A820F086FC684620F04E
:1014200083FC03E00349104620F01AFD09B030BDEB
:10143000309F0200189F020030B589B015464BB2AC
:10144000002B17DD0C460E49684620F0B9FC2146FA
:1014500004A820F017FD04A9684620F0C3FD01464A
:10146000284620F0DFFC04A820F05EFC684620F04F
:101470005BFC03E00349104620F0F2FC09B030BDEC
:10148000309F0200189F020030B589B015464BB25C
:10149000002B17DD0C460E49684620F091FC2146D2
:1014A00004A820F0EFFC04A9684620F09BFD01464B
:1014B000284620F0B7FC04A820F036FC684620F04F
:1014C00033FC03E00349104620F0CAFC09B030BDEC
:1014D000309F0200189F020030B591B00C461546AF
:1014E0004B1EDBB2072B16D82A49684620F068FC51
:1014F000214604A820F0C6FC04A9684620F072FD2D
:101500000146284620F08EFC04A820F00DFC684619
:1015100020F00AFC3BE0092904D11F49104620F0C5
:101520009FFC34E00A2904D11C49104620F098FCA5
:101530002DE00B2904D11A49104620F091FC26E039
:101540000C2904D11749104620F08AFC1FE0A1F1B4
:101550000D03DBB2722B16D8134908A820F030FC1B
:1015600021460CA820F08EFC0CA908A820F03AFD1A
:101570000146284620F056FC0CA820F0D5FB08A810
:1015800020F0D2FB03E00949104620F069FC11B0BD
:1015900030BD00BF349F0200409F02004C9F0200FC
:1015A0005C9F0200689F0200309F0200189F0200AB
:1015B00008B5811D104620F0E3FC08BD08B50249BE
:1015C000104620F0DDFC08BD789F020007290AD8EC
:1015D00008B5104601EB4101C1EBC101024B1944B2
:1015E00020F0CEFC08BD70476662030070B50C4663
:1015F00016461D460368D3F898309847A04207D98D
:10160000012E0CBF05490649284620F0B9FC70BDE3
:101610000449284620F0B4FC70BD00BFD4A50200E8
:10162000889F02002CA8020008B5044B03EB41116F
:101630000931104620F0A4FC08BD00BF08C7020015
:1016400008B5044B03EB41110931104620F098FC1A
:1016500008BD00BF742D030008B501EBC10301EB09
:101660004301034B1944104620F08AFC08BD00BF1B
:101670000034030008B51620034B00FB013110466F
:1016800020F07EFC08BD00BFD463030008B501EB69
:101690004103C1EBC301034B1944104620F070FC19
:1016A00008BD00BFB421030008B501EB4101C1EB47
:1016B000C101034B1944104620F062FC08BD00BF75
:1016C000E8CC020008B501EBC101044B03EB81013A
:1016D0000D31104620F054FC08BD00BF98E1020017
:1016E00008B501EB4101044B03EBC1010331104686
:1016F00020F046FC08BD00BFC86B030008B52629D2
:101700009DBF01EB4101044B03EBC10103491046AE
:1017100020F036FC08BD00BF40AA02002CA8020041
:1017200008B5262909D801EB4101064B03EBC1019D
:101730000E31104620F024FC08BD0349104620F06D
:101740001FFC08BD40AA02002CA8020070B50C4680
:1017500016461D460368D3F898309847A04207D92B
:10176000012E0CBF05490649284620F009FC70BD32
:101770000449284620F004FC70BD00BFD4A5020037
:10178000889F02002CA8020070B50C4616461D4624
:101790000368D3F898309847A04207D9012E0CBFB0
:1017A00005490649284620F0EBFB70BD0449284650
:1017B00020F0E6FB70BD00BFD4A50200889F0200A8
:1017C0002CA802005C291FD838B515460C460146E6
:1017D000542C08D804EBC4010C4B03EB4101104618
:1017E00020F0CEFB38BD0631104620F0C9FB202189
:1017F000284620F0D3FB04EBC401044B03EB41016A
:10180000284620F0BDFB38BD704700BF10850200A0
:1018100090F86930ABB130B585B00D4604462D2146
:10182000284620F0BBFB94F86910684620F02AFB9C
:101830006946284620F09EFB684620F075FA05B000
:1018400030BD704730B589B00D4614460B49684627
:1018500020F0B6FA294604A820F014FB04A9684633
:1018600020F0C0FB0146204620F084FB04A820F0B5
:101870005BFA684620F058FA09B030BD8C9F020030
:1018800030B589B00D4614460B49684620F098FAE9
:10189000294604A820F0F6FA04A9684620F0A2FB25
:1018A0000146204620F066FB04A820F03DFA684679
:1018B00020F03AFA09B030BD949F020070B584B0B0
:1018C0000D4616460D4CA4FB0134E40804F1410119
:1018D000C9B2104620F062FB04EB8404A5EB44017E
:1018E0000A2289B2684620F0E1FA6946304620F0C3
:1018F00041FB684620F018FA04B070BDCDCCCCCCCA
:1019000030B585B00D46144690F84B304BB9413197
:10191000C9B2104620F042FB0C49204620F030FBB3
:1019200012E090F846104131C9B2104620F036FB63
:101930000A222946684620F0B9FA6946204620F076
:1019400019FB684620F0F0F905B030BDA09F0200F9
:1019500010B584B010461C46542907D8012A0CBF84
:101960000D490E49184620F00BFB12E05C290CD8FB
:101970000A220146684620F099FA6946204620F07E
:10198000F9FA684620F0D0F903E00549184620F03E
:10199000F7FA04B010BD00BFD4A50200889F020072
:1019A0002CA8020070B584B00D4616461C4603688C
:1019B000D3F898309847A8420CD90A223146684695
:1019C00020F074FA6946204620F0D4FA684620F0E8
:1019D000ABF903E00249204620F0D2FA04B070BD12
:1019E000A49F020070B584B00D4616461C460368DD
:1019F000D3F898309847A8420CD90A223146684655
:101A000020F054FA6946204620F0B4FA684620F0E7
:101A10008BF903E00249204620F0B2FA04B070BD11
:101A2000A49F020070B584B016461D46A1F10E03B6
:101A30009BB2012B0CD80A223146684620F036FAB8
:101A40006946284620F096FA684620F06DF912E0C3
:101A50000C460368D3F898309847844207D2012E89
:101A60000CBF06490649284620F08AFA03E00549DA
:101A7000284620F085FA04B070BD00BFD4A502004E
:101A8000A89F0200A49F020070B584B00D461646C0
:101A90001C460368D3F898309847A8420CD90A220C
:101AA0003146684620F002FA6946204620F062FA84
:101AB000684620F039F903E00249204620F060FA38
:101AC00004B070BDA49F020070B58CB016464D1CCA
:101AD000144C84FB0534EB17C3EBA4040A22214603
:101AE00004A820F0E3F904A9684620F0A5F904EB66
:101AF00084010A22A5EB410108A820F0D7F908A922
:101B0000684620F06FFA0146304620F033FA08A804
:101B100020F00AF9684620F007F904A820F004F93B
:101B20000CB070BD6766666630B595B00D4614465C
:101B300090F84B30B3B90A2204A820F0B7F904A9F1
:101B4000684620F079F91849684620F053FA0146B2
:101B5000204620F00FFA684620F0E6F804A820F0AE
:101B6000E3F81FE00A22B0F846100CA820F09EF916
:101B70000CA908A820F060F90A22294610A820F034
:101B800095F910A908A820F02DFA0146204620F06A
:101B9000F1F910A820F0C8F808A820F0C5F80CA8A2
:101BA00020F0C2F815B030BDA09F0200F0B591B092
:101BB000164601318CB22049A1FB04310A224909A1
:101BC00004A820F073F904A9684620F035F91B4BEE
:101BD000A3FB0425ED08A9B2A3FB0123DB0803EB5B
:101BE0008303A1EB43010A2289B208A820F05EF921
:101BF00008A9684620F0F6F9074605EB8505A4EB31
:101C000045010A2289B20CA820F050F90CA93846E7
:101C100020F0E8F90146304620F0ACF90CA820F09D
:101C200083F808A820F080F8684620F07DF804A822
:101C300020F07AF811B0F0BD1F85EB51CDCCCCCCA3
:101C4000F0B59DB005460F46164690F84B301BBBCD
:101C50000A22B0F8461004A820F028F904A9684622
:101C600020F0EAF80A22394608A820F01FF908A94E
:101C7000684620F0B7F9264920F0BCF90146304605
:101C800020F078F908A820F04FF8684620F04CF8CA
:101C900004A820F049F839E0B0F846101D4CA4FB28
:101CA00001310A22C90810A820F000F910A90CA8D7
:101CB00020F0C2F8B5F84610A4FB0134E40804EBA8
:101CC0008404A1EB44010A2289B214A820F0EEF8A2
:101CD00014A90CA820F086F904460A22394618A84F
:101CE00020F0E4F818A9204620F07CF9014630469F
:101CF00020F040F918A820F017F814A820F014F8E4
:101D00000CA820F011F810A820F00EF81DB0F0BDBE
:101D1000A09F0200CDCCCCCC70B59CB00C46164632
:101D20001D460368D3F898309847A04240F283805C
:101D3000444901EB44114B8B1AB2002A73DD47F67C
:101D40001642934215D047F61742934204D047F605
:101D50001542934256D119E00A22314604A820F0D8
:101D6000A5F804A9284620F005F904A81FF0DCFF17
:101D700065E00A22710008A820F098F808A9284612
:101D800020F0F8F808A81FF0CFFF58E03F2E17D832
:101D90002D490CA820F014F80A22C6F1320110A82F
:101DA00020F084F810A90CA820F01CF90146284660
:101DB00020F0E0F810A81FF0B7FF0CA81FF0B4FF48
:101DC000402E04D12149284620F0DAF837E0402E91
:101DD00035D91F4914A81FF0F3FF0A22A6F13201DA
:101DE00018A820F063F818A914A820F0FBF8014601
:101DF000284620F0BFF818A81FF096FF14A81FF07F
:101E000093FF1CE09919013901EBC101114B1944F1
:101E100068461FF0D5FF6946284620F0ABF86846B3
:101E20001FF082FF0BE0012E0CBF0B490B49284627
:101E300020F0A6F803E00A49284620F0A1F81CB0DB
:101E400070BD00BF08C70200F49F0200B09F0200EF
:101E5000F4A40200A0900200D4A50200889F020012
:101E60002CA8020030B589B01546072918D80C46B1
:101E70000E4968461FF0A4FF0A22611C04A820F046
:101E800015F804A9684620F0ADF80146284620F070
:101E900071F804A81FF048FF68461FF045FF03E0F3
:101EA0000349104620F06CF809B030BDB49F020021
:101EB0002CA8020030B589B01546072918D80C4661
:101EC0000E4968461FF07CFF0A22611C04A81FF01F
:101ED000EDFF04A9684620F085F80146284620F069
:101EE00049F804A81FF020FF68461FF01DFF03E01B
:101EF0000349104620F044F809B030BDBC9F0200F1
:101F00002CA802002DE9F04194B00C461746434B33
:101F1000A3FB01235B08622B04D85521384620F02F
:101F20003DF82DE0054690F89320510063318B4237
:101F30000EDB3B49384620F023F895F8933003EB4D
:101F400043024FF6D763A3EB42031C44A4B217E04D
:101F5000633293420DDB3349384620F011F895F88F
:101F6000933003EB4303C3F57E43D7331C44A4B241
:101F700006E02D49384620F003F8A4F22914A4B253
:101F8000264DA5FB04356D0805F101085FFA88F8B8
:101F9000264EA6FB0836F6080A22314604A81FF092
:101FA00085FF04A968461FF047FF06EB8606A8EBED
:101FB00046010A22C9B208A81FF078FF08A968469E
:101FC00020F010F8014638461FF0D4FF08A81FF093
:101FD000ABFE68461FF0A8FE04A81FF0A5FE14493A
:101FE0000CA81FF0EDFE05EB4501611A89B20A222B
:101FF000013110A81FF05AFF10A90CA81FF0F2FF22
:10200000014638461FF0B6FF10A81FF08DFE0CA841
:102010001FF08AFE14B0BDE8F08100BFABAAAAAAE7
:10202000C09F0200F4A40200F49F0200CDCCCCCCEF
:10203000189F020070B598B00C4616461D460368FE
:10204000D3F898309847A04271D93C4901EB44112C
:102050004B8B1AB2002A62DD47F61542934211D02B
:102060004CD347F61742934248D80A22314604A877
:102070001FF01CFF04A928461FF07CFF04A81FF0D6
:1020800053FE58E03F2E17D82D4908A81FF098FEA0
:102090000A22C6F132010CA81FF008FF0CA908A8FB
:1020A0001FF0A0FF014628461FF064FF0CA81FF098
:1020B0003BFE08A81FF038FE402E04D121492846D7
:1020C0001FF05EFF37E0402E35D91F4910A81FF0E2
:1020D00077FE0A22A6F1320114A81FF0E7FE14A928
:1020E00010A81FF07FFF014628461FF043FF14A8E9
:1020F0001FF01AFE10A81FF017FE1CE099190139F5
:1021000001EBC101114B194468461FF059FE6946A5
:1021100028461FF02FFF68461FF006FE0BE0012E39
:102120000CBF0B490B4928461FF02AFF03E00A4960
:1021300028461FF025FF18B070BD00BF742D0300A6
:10214000F49F0200B09F0200F4A402006065030047
:10215000D4A50200889F02002CA8020030B589B0E7
:102160001546072918D80C460E4968461FF028FE68
:102170000A22611C04A81FF099FE04A968461FF0FA
:1021800031FF014628461FF0F5FE04A81FF0CCFDE4
:1021900068461FF0C9FD03E0034910461FF0F0FE3A
:1021A00009B030BDB49F02002CA8020030B589B040
:1021B0001546072918D80C460E4968461FF000FE40
:1021C0000A22611C04A81FF071FE04A968461FF0D2
:1021D00009FF014628461FF0CDFE04A81FF0A4FD0C
:1021E00068461FF0A1FD03E0034910461FF0C8FE3A
:1021F00009B030BDBC9F02002CA8020030B595B0DC
:102200000D46144690F84B30B3B90A2204A81FF0CB
:102210004DFE04A968461FF00FFE1A4968461FF0DC
:10222000E9FE014620461FF0A5FE68461FF07CFD32
:1022300004A81FF079FD22E00A22B0F846100CA88D
:102240001FF034FE0CA908A81FF0F6FD0A2229464B
:1022500010A81FF02BFE10A908A81FF0C3FE0A4902
:102260001FF0C8FE014620461FF084FE10A81FF094
:102270005BFD08A81FF058FD0CA81FF055FD15B018
:1022800030BD00BFC49F0200A09F02002DE9F043B3
:10229000A5B00C46154690F89530002B4DD1042979
:1022A00004D8554910461FF06BFEA1E00C1FA4B2E4
:1022B000524968461FF084FD5149A1FB04310A22AE
:1022C000490904A81FF0F2FD04A968461FF08AFE20
:1022D00007464C4BA3FB0426F608B1B2A3FB01232F
:1022E000DB0803EB8303A1EB43010A2289B208A8B0
:1022F0001FF0DCFD08A938461FF074FE074606EB08
:102300008606A4EB46010A2289B20CA81FF0CEFD76
:102310000CA938461FF066FE014628461FF02AFE2B
:102320000CA81FF001FD08A81FF0FEFC04A81FF078
:10233000FBFC68461FF0F8FC5AE0324EA6FB013762
:10234000BF0807F101092E49A1FB09310A22C1F397
:102350004F1114A81FF0AAFD14A910A81FF06CFDBE
:10236000A6FB09384FEAD8081FFA88F1A6FB013608
:10237000F60806EB8606A1EB46010A2289B218A8E8
:102380001FF094FD18A910A81FF02CFE064608EBBC
:102390008808A9EB48010A2289B21CA81FF086FD13
:1023A0001CA930461FF01EFE17491FF023FE0646EB
:1023B00007EB8701611A89B20A22013120A81FF0B8
:1023C00075FD20A930461FF00DFE014628461FF07E
:1023D000D1FD20A81FF0A8FC1CA81FF0A5FC18A880
:1023E0001FF0A2FC10A81FF09FFC14A81FF09CFC7B
:1023F00025B0BDE8F08300BFC89F0200D09F020057
:102400001F85EB51CDCCCCCC189F0200F0B5B9B0F4
:1024100004460F46164690F89530002B6FD190F881
:102420004B308BBB90F8461001EB810407EB440462
:10243000E4B26D4DA5FB0435ED080A22294604A837
:102440001FF034FD04A968461FF0F6FC05EB850576
:10245000A4EB45010A22C9B208A81FF027FD08A96C
:1024600068461FF0BFFD61491FF0C4FD01463046BC
:102470001FF080FD08A81FF057FC68461FF054FCB1
:1024800004A81FF051FCACE0B0F84610564DA5FB77
:1024900001310A22C90810A81FF008FD10A90CA8D4
:1024A0001FF0CAFCB4F84610A5FB0135ED0805EB9A
:1024B0008505A1EB45010A2289B214A81FF0F6FC9C
:1024C00014A90CA81FF08EFD04460A22394618A84C
:1024D0001FF0ECFC18A920461FF084FD0146304691
:1024E0001FF048FD18A81FF01FFC14A81FF01CFCCB
:1024F0000CA81FF019FC10A81FF016FC71E090F852
:102500004B308BBBB0F8464004EB840401EB440431
:10251000A4B2354FA7FB0437FF080A22394620A88A
:102520001FF0C4FC20A91CA81FF086FC07EB87073E
:10253000A4EB47010A2289B224A81FF0B7FC24A902
:102540001CA81FF04FFD2A491FF054FD01463046DC
:102550001FF010FD24A81FF0E7FB1CA81FF0E4FBF0
:1025600020A81FF0E1FB3CE0B0F846101E4DA5FB93
:1025700001310A22C9082CA81FF098FC2CA928A810
:102580001FF05AFCB4F84610A5FB0135ED0805EB29
:102590008505A1EB45010A2289B230A81FF086FC0F
:1025A00030A928A81FF01EFD04460A22394634A887
:1025B0001FF07CFC34A920461FF014FD0D491FF0CC
:1025C00019FD014630461FF0D5FC34A81FF0ACFBC6
:1025D00030A81FF0A9FB28A81FF0A6FB2CA81FF00D
:1025E000A3FB39B0F0BD00BFCDCCCCCCA09F020086
:1025F000D49F0200D89F0200F0B595B0164621B9CD
:10260000284910461FF0BCFC4AE00C46082917D8A0
:10261000254968461FF0D4FB0A22214604A81FF072
:1026200045FC04A968461FF0DDFC014630461FF05A
:10263000A1FC04A81FF078FB68461FF075FB2FE093
:102640001A4908A81FF0BCFB093C194D85FB04354D
:10265000A5EBE4750A2229460CA81FF027FC0CA95B
:1026600008A81FF0BFFC13491FF0C4FC074605EB88
:102670004505611B0A22013110A81FF017FC10A9A3
:1026800038461FF0AFFC014630461FF073FC10A81F
:102690001FF04AFB0CA81FF047FB08A81FF044FBE3
:1026A00015B0F0BDDC9F0200E09F0200E49F020035
:1026B0005655555504A7020070B59CB004460D460A
:1026C000164690F84B304BBBB0F846302BB921B9C9
:1026D000384910461FF054FC6AE0374968461FF03D
:1026E0006FFBB4F8461001EB810105EB41010A22B2
:1026F000013904A81FF0DAFB04A968461FF072FC38
:102700002E491FF077FC014630461FF033FC04A829
:102710001FF00AFB68461FF007FB49E0B0F846309F
:10272000EBB921B9264910461FF02AFC40E02549A3
:1027300008A81FF045FB0A2229460CA81FF0B6FB8B
:102740000CA908A81FF04EFC014630461FF012FCF1
:102750000CA81FF0E9FA08A81FF0E6FA28E01649CD
:1027600010A81FF02DFBB4F846100A22013914A856
:102770001FF09CFB14A910A81FF034FC12491FF095
:1027800039FC04460A22294618A81FF08FFB18A915
:1027900020461FF027FC014630461FF0EBFB18A82F
:1027A0001FF0C2FA14A81FF0BFFA10A81FF0BCFA5D
:1027B0001CB070BDE89F0200E49F0200EC9F020085
:1027C000F09F0200E09F020004A70200F0B591B064
:1027D000164601318CB22049A1FB04310A22490975
:1027E00004A81FF063FB04A968461FF025FB1B4BE0
:1027F000A3FB0425ED08A9B2A3FB0123DB0803EB2F
:102800008303A1EB43010A2289B208A81FF04EFB03
:1028100008A968461FF0E6FB074605EB8505A4EB13
:1028200045010A2289B20CA81FF040FB0CA93846CA
:102830001FF0D8FB014630461FF09CFB0CA81FF090
:1028400073FA08A81FF070FA68461FF06DFA04A822
:102850001FF06AFA11B0F0BD1F85EB51CDCCCCCC86
:10286000F0B59DB005460F46164690F84B301BBBA1
:102870000A22B0F8461004A81FF018FB04A9684605
:102880001FF0DAFA0A22394608A81FF00FFB08A940
:1028900068461FF0A7FB26491FF0ACFB01463046F7
:1028A0001FF068FB08A81FF03FFA68461FF03CFACB
:1028B00004A81FF039FA39E0B0F846101D4CA4FB0B
:1028C00001310A22C90810A81FF0F0FA10A90CA8BB
:1028D0001FF0B2FAB5F84610A4FB0134E40804EB8B
:1028E0008404A1EB44010A2289B214A81FF0DEFA85
:1028F00014A90CA81FF076FB04460A22394618A832
:102900001FF0D4FA18A920461FF06CFB0146304690
:102910001FF030FB18A81FF007FA14A81FF004FAE4
:102920000CA81FF001FA10A81FF0FEF91DB0F0BDB1
:10293000A09F0200CDCCCCCCF0B595B00D4616468C
:10294000C72994BF5521502110461FF027FB264C64
:10295000A4FB0534A409C82303FB1454C4F38D0459
:102960000134E4B2214FA7FB0437FF080A2239469D
:1029700004A81FF09BFA04A968461FF05DFA07EB54
:102980008707A4EB47010A22C9B208A81FF08EFAF4
:1029900008A968461FF026FB014630461FF0EAFAF8
:1029A00008A81FF0C1F968461FF0BEF904A81FF07F
:1029B000BBF90F490CA81FF003FA05F003010A2226
:1029C000013110A81FF072FA10A90CA81FF00AFB21
:1029D000014630461FF0CEFA10A81FF0A5F90CA84A
:1029E0001FF0A2F915B0F0BD1F85EB51CDCCCCCCBA
:1029F000189F0200F0B59DB006460C4617461D46CE
:102A00000368D3F898309847A04240F28E8004EBD8
:102A1000C404494B03EB8404E38B1AB2002A7CDD27
:102A2000A3F5F842063A112A66D8DFE802F05F659E
:102A30006565656565656565656565656523160933
:102A40000A22394604A81FF031FA04A928461FF0CB
:102A500091FA04A81FF068F96BE00A22790008A82F
:102A60001FF024FA08A928461FF084FA08A81FF0CE
:102A70005BF95EE03F2F17D830490CA81FF0A0F992
:102A80000A22C7F1320110A81FF010FA10A90CA8F1
:102A90001FF0A8FA014628461FF06CFA10A81FF094
:102AA00043F90CA81FF040F9402F04D124492846CF
:102AB0001FF066FA3DE0402F3BD9224914A81FF0D1
:102AC0007FF90A22A7F1320118A81FF0EFF918A91F
:102AD00014A81FF087FA014628461FF04BFA18A8E1
:102AE0001FF022F914A81FF01FF922E096F89D307C
:102AF000002B0CBF01230923D919013901EBC101B6
:102B0000114B194468461FF05BF9694628461FF0CF
:102B100031FA68461FF008F90BE0012F0CBF0B4992
:102B20000B4928461FF02CFA03E00A4928461FF0FB
:102B300027FA1DB0F0BD00BF98E10200F49F02002B
:102B4000B09F0200F4A4020060370300D4A5020085
:102B5000889F02002CA8020030B589B015460F29C5
:102B600018D80C460E4968461FF02AF90A22611C43
:102B700004A81FF09BF904A968461FF033FA014628
:102B800028461FF0F7F904A81FF0CEF868461FF09A
:102B9000CBF803E0034910461FF0F2F909B030BD4D
:102BA000B49F02002CA8020030B589B015460F2949
:102BB00018D80C460E4968461FF002F90A22611C1B
:102BC00004A81FF073F904A968461FF00BFA014628
:102BD00028461FF0CFF904A81FF0A6F868461FF09A
:102BE000A3F803E0034910461FF0CAF909B030BD4D
:102BF000BC9F02002CA80200F0B591B00C4616460E
:102C0000C7298CBF5021552110461FF0C7F9013448
:102C1000A4B22049A1FB04310A22490904A81FF0EB
:102C200045F904A968461FF007F91B4BA3FB0425CF
:102C3000ED08A9B2A3FB0123DB0803EB8303A1EB9F
:102C400043010A2289B208A81FF030F908A9684692
:102C50001FF0C8F9074605EB8505A4EB45010A22DC
:102C600089B20CA81FF022F90CA938461FF0BAF956
:102C7000014630461FF07EF90CA81FF055F808A851
:102C80001FF052F868461FF04FF804A81FF04CF8E8
:102C900011B0F0BD1F85EB51CDCCCCCCF0B59DB0C3
:102CA00005460F46164690F84B3063BBB0F84630E9
:102CB000012B8CBF5021552110461FF06FF90A22BD
:102CC000B5F8461004A81FF0F1F804A968461FF0F3
:102CD000B3F80A22394608A81FF0E8F808A96846A0
:102CE0001FF080F92A491FF085F9014630461FF090
:102CF00041F908A81FF018F868461FF015F804A855
:102D00001FF012F842E0B0F84630132B8CBF502170
:102D1000552110461FF042F9B5F846101D4CA4FB92
:102D200001310A22C90810A81FF0C0F810A90CA888
:102D30001FF082F8B5F84610A4FB0134E40804EB58
:102D40008404A1EB44010A2289B214A81FF0AEF852
:102D500014A90CA81FF046F904460A22394618A8FF
:102D60001FF0A4F818A920461FF03CF90146304690
:102D70001FF000F918A81EF0D7FF14A81EF0D4FF0A
:102D80000CA81EF0D1FF10A81EF0CEFF1DB0F0BDA4
:102D9000A09F0200CDCCCCCC70B59CB00C461646A2
:102DA0001D460368D3F898309847A04240F28480CB
:102DB00004EB4404434B03EBC404A18A0BB2002B85
:102DC00072DD47F61643994215D047F617439942EC
:102DD00004D047F61543994256D119E00A223146EC
:102DE00004A81FF063F804A928461FF0C3F804A83C
:102DF0001EF09AFF64E00A22710008A81FF056F83E
:102E000008A928461FF0B6F808A81EF08DFF57E065
:102E1000312E17D82C490CA81EF0D2FF0A22C6F179
:102E2000320110A81FF042F810A90CA81FF0DAF820
:102E3000014628461FF09EF810A81EF075FF0CA84A
:102E40001EF072FF322E04D1204928461FF098F858
:102E500036E0322E34D91E4914A81EF0B1FF0A22E2
:102E6000A6F1320118A81FF021F818A914A81FF024
:102E7000B9F8014628461FF07DF818A81EF054FF47
:102E800014A81EF051FF1BE031440139114B03EB34
:102E9000C10168461EF094FF694628461FF06AF893
:102EA00068461EF041FF0BE0012E0CBF0A490B499A
:102EB00028461FF065F803E0094928461FF060F82E
:102EC0001CB070BDC86B0300F49F0200B09F0200ED
:102ED000F4A40200BC590300D4A50200889F02009C
:102EE0002CA8020030B589B00D4614460C4968463E
:102EF0001EF066FF0A22691C04A81EF0D7FF04A971
:102F000068461FF06FF8014620461FF033F804A80A
:102F10001EF00AFF68461EF007FF09B030BD00BF73
:102F2000F89F020030B589B00C4615460368D3F807
:102F300098309847A0421AD9104968461EF040FFC1
:102F40000A22611C04A81EF0B1FF04A968461FF004
:102F500049F80B491FF04EF8014628461EF062FF63
:102F600004A81EF0E1FE68461EF0DEFE03E00549FF
:102F700028461EF075FF09B030BD00BFFC9F02005F
:102F800000A002002CA8020070B58CB016464D1CA3
:102F9000144C84FB0534EB17C3EBA4040A2221462E
:102FA00004A81EF083FF04A968461EF045FF04EB49
:102FB00084010A22A5EB410108A81EF077FF08A9A9
:102FC00068461FF00FF8014630461EF0D3FF08A8F0
:102FD0001EF0AAFE68461EF0A7FE04A81EF0A4FE7E
:102FE0000CB070BD6766666630B589B00D46144694
:102FF0000C4968461EF0E4FE0A22691C04A81EF073
:1030000055FF04A968461EF0EDFF014620461EF05C
:10301000B1FF04A81EF088FE68461EF085FE09B0C8
:1030200030BD00BFF89F020030B589B00C46154690
:103030000368D3F898309847A0421AD910496846D7
:103040001EF0BEFE0A22611C04A81EF02FFF04A978
:1030500068461EF0C7FF0B491EF0CCFF014628460C
:103060001EF0E0FE04A81EF05FFE68461EF05CFE47
:1030700003E0054928461EF0F3FE09B030BD00BF4D
:10308000FC9F020000A002002CA80200F0B591B045
:1030900016464C1CA4B2C9114131C9B268461EF093
:1030A00027FF2149A1FB04310A22490904A81EF087
:1030B000FDFE04A968461EF095FF07461B4BA3FBC7
:1030C0000425ED08A9B2A3FB0123DB0803EB83036E
:1030D000A1EB43010A2289B208A81EF0E7FE08A965
:1030E00038461EF07FFF074605EB8505A4EB45013A
:1030F0000A2289B20CA81EF0D9FE0CA938461EF08F
:1031000071FF014630461EF035FF0CA81EF00CFE84
:1031100008A81EF009FE04A81EF006FE68461EF070
:1031200003FE11B0F0BD00BF1F85EB51CDCCCCCC60
:103130002DE9F0419CB007460D46164690F84B30FD
:1031400093BBB0F8463001EB81014A00642101FBDA
:103150000321C9114131C9B268461EF0C9FE0A22D5
:10316000B7F8461004A81EF0A1FE04A968461EF098
:1031700039FF04460A22294608A81EF097FE08A92E
:1031800020461EF02FFF2C491EF034FF014630462A
:103190001EF0F0FE08A81EF0C7FD04A81EF0C4FD36
:1031A00068461EF0C1FD44E0B0F8461001EB810115
:1031B00089114131C9B20CA81EF09AFEB7F8461029
:1031C0001E4CA4FB01310A22C90810A81EF06EFE95
:1031D00010A90CA81EF006FF8046B7F84610A4FB05
:1031E0000134E40804EB8404A1EB44010A2289B20F
:1031F00014A81EF05BFE14A940461EF0F3FE044620
:103200000A22294618A81EF051FE18A920461EF0D1
:10321000E9FE014630461EF0ADFE18A81EF084FD02
:1032200014A81EF081FD10A81EF07EFD0CA81EF053
:103230007BFD1CB0BDE8F081A09F0200CDCCCCCCC2
:10324000F0B58DB00D461646502168461EF050FE72
:103250000135154C84FB0534EB17C3EBA4040A229B
:10326000214604A81EF022FE04A968461EF0BAFEFC
:10327000074604EB84010A22A5EB410108A81EF0D1
:1032800015FE08A938461EF0ADFE014630461EF078
:1032900071FE08A81EF048FD04A81EF045FD684612
:1032A0001EF042FD0DB0F0BD6766666670B594B065
:1032B0000E46154690F84B30D3B9502168461EF0A3
:1032C00017FE0A22314604A81EF0F0FD04A9684644
:1032D0001EF088FE1A491EF08DFE014628461EF09B
:1032E00049FE04A81EF020FD68461EF01DFD25E0E5
:1032F0000446502108A81EF0FBFD0A22B4F846102F
:103300000CA81EF0D3FD0CA908A81EF06BFE044605
:103310000A22314610A81EF0C9FD10A920461EF051
:1033200061FE014628461EF025FE10A81EF0FCFC9A
:103330000CA81EF0F9FC08A81EF0F6FC14B070BD35
:10334000A09F020070B594B00E46154690F84B3021
:10335000D3B9552168461EF0CBFD0A22314604A898
:103360001EF0A4FD04A968461EF03CFE1C491EF098
:1033700041FE014628461EF0FDFD04A81EF0D4FCC7
:1033800068461EF0D1FC28E00446552108A81EF02E
:10339000AFFD0A22B4F846100CA81EF087FD0CA958
:1033A00008A81EF01FFE04460A22314610A81EF08F
:1033B0007DFD10A920461EF015FE0A491EF01AFEDA
:1033C000014628461EF0D6FD10A81EF0ADFC0CA844
:1033D0001EF0AAFC08A81EF0A7FC14B070BD00BF28
:1033E000D49F0200D89F020070B59CB00C461646D0
:1033F00090F84B30002B37D105291AD85521684653
:103400001EF076FD0A22214604A81EF04FFD04A9F5
:1034100068461EF0E7FD2F491EF0ECFD01463046E0
:103420001EF0A8FD04A81EF07FFC68461EF07CFC80
:103430004EE0502108A81EF05BFD0A22611F0CA877
:103440001EF034FD0CA908A81EF0CCFD21491EF089
:10345000D1FD014630461EF08DFD0CA81EF064FC27
:1034600008A81EF061FC33E090F8465005EB850398
:1034700001EB4303322B04DC552110461EF08EFD78
:1034800005E0502110461EF089FD053DEDB22946AC
:1034900014A81EF0F7FC14A910A81EF0CDFC0A22F7
:1034A000214618A81EF002FD18A910A81EF09AFDCA
:1034B00009491EF09FFD014630461EF05BFD18A82D
:1034C0001EF032FC10A81EF02FFC14A81EF02CFCDD
:1034D0001CB070BDD49F0200D89F020008B50348FD
:1034E0001EF0F6F802481EF0F3F808BDC070002088
:1034F000C85D002038B50446FDF72EFE0223237177
:103500001C4B1868C4F806001B4B07CBC4F80E0010
:10351000C4F81210C4F816201A889B7862832377A7
:10352000012384F828300022A4F84020C721A4F801
:1035300042106265042184F84E10E37784F820304D
:10354000CD2184F88C10CF2184F88D1084F88E2042
:1035500084F88F2084F86A3004F192039A3422466A
:103560000120002103F8010F02F8011FA342F9D145
:1035700038BD00BF04A0020008A0020010B5044638
:10358000FDF7EAFD02232371184B1868C4F8060002
:103590001B79A372164B03CBC4F80E00C4F81210AB
:1035A00019889B78E18223760023A4F840306222B8
:1035B000A4F84220042284F84E2084F8933084F842
:1035C000943005216165E277012284F8202084F897
:1035D0005020CD2284F88C20CF2284F88D20D02258
:1035E00084F88E2084F88F3010BD00BF18A0020030
:1035F00020A0020038B50446FDF7AEFD022323717A
:103600001D4B1868C4F806001B79A3721B4B07CB2F
:10361000C4F80E00C4F81210C4F816201B78A37664
:103620000023A4F840304FF42472A4F8422004226E
:1036300084F84E20282284F8932084F8943084F86B
:10364000953084F8963084F897300A226265032218
:10365000E277082284F82020012284F85020CD222D
:1036600084F88C20CF2284F88D20D02284F88E20FC
:1036700084F88F3038BD00BF2CA0020034A00200B7
:1036800070B50446FDF768FD02252571184B1868D2
:10369000C4F806009B886381164B07CBC4F80E0064
:1036A000C4F81210C4F81620112104F130001EF0E5
:1036B00051FB7F23A4F84230042384F84E300023CA
:1036C0006365E577012284F8202084F82120CD224B
:1036D00084F88C20D12284F88D20D22284F88E2088
:1036E00084F88F3084F89330034BC4F8883070BD71
:1036F00044A002004CA0020080C3C90170B504467A
:10370000FDF72AFD02232371194B1868C4F806003F
:10371000184D0FCDC4F80E00C4F81210C4F81620CE
:10372000C4F81A300023A4F840304FF41C72A4F8F7
:103730004220042284F84E2063650A22E2770122A7
:1037400084F8202084F82120CD2184F88C10CF210A
:1037500084F88D10D32184F88E1084F88F3084F88B
:10376000943084F89520044BC4F8883070BD00BFB5
:1037700058A002005CA0020080C3C90110B5044635
:10378000FDF7EAFC02232371174B1868C4F8060002
:10379000164B03CBC4F80E00C4F812101B88E3824A
:1037A0000023A4F840300B22A4F84220042284F81D
:1037B0004E2063650622E277012284F82020CD2284
:1037C00084F88C20CF2284F88D20D22284F88E2099
:1037D00084F88F3084F89930C4F89330E366044B52
:1037E000C4F8883010BD00BF6CA0020070A00200B9
:1037F00080C3C90170B50446FDF7AEFC02232371F6
:10380000154B1868C4F80600144D0FCDC4F80E000F
:10381000C4F81210C4F81620C4F81A300023A4F813
:10382000403040F22B12A4F84220042284F84E20AB
:1038300063650722E277012284F8202084F82120A2
:10384000CD2284F88C20CF2284F88D2084F88E300D
:1038500084F88F3070BD00BF7CA0020080A0020001
:1038600038B50446FDF778FC022323711A4B18681B
:10387000C4F8060099889B7961812373174B07CBA5
:10388000C4F80E00C4F81210C4F816201B78A376F2
:103890000023A4F8403040F28F12A4F84220042202
:1038A00084F84E2084F8933084F8943084F895306E
:1038B00084F8993005226265E277012284F820209D
:1038C000CD2284F88C20CF2284F88D20D02284F859
:1038D0008E2084F88F3038BD90A0020098A002009E
:1038E00010B50446FDF738FC02232371124B18680B
:1038F000C4F80600114B03CBC4F80E00C4F8121034
:10390000002384F82830A4F840306322A4F8422031
:1039100005226265042284F84E200122E27784F8B1
:103920002020CD2284F88C20CF2284F88D2084F8AA
:103930008E3084F88F3010BDA8A00200ACA0020029
:1039400038B50446FDF708FC02232371164B1868AE
:10395000C4F806001B79A372144B07CBC4F80E0001
:10396000C4F81210C4F816201B8863830023A4F83F
:1039700040303122A4F8422005226265042184F8F7
:103980004E10E277012284F82020CD2284F88C208A
:10399000CF2284F88D2084F88E3084F88F3084F81C
:1039A0003231E36638BD00BFB4A00200BCA0020003
:1039B000F0B58DB00E461746C1F387050135174C9B
:1039C00084FB0534EB17C3EBA4040A22214604A8A8
:1039D0001EF06CFA04A968461EF02EFA04EB84016E
:1039E0000A22A5EB410108A81EF060FA08A9684662
:1039F0001EF0F8FA06F0030141311EF009FB014602
:103A000038461EF0B7FA08A81EF08EF968461EF078
:103A10008BF904A81EF088F90DB0F0BD67666666E4
:103A200030B589B0154600EB4100B0F89440641001
:103A30000A22013104A81EF039FA04A968461EF0D2
:103A4000FBF93A2168461EF0E3FAE1B201EBC1014D
:103A5000084B03EB41011EF0CDFA014628461EF04B
:103A600089FA68461EF060F904A81EF05DF909B0F5
:103A700030BD00BFF8D1020030B589B0154600EB6B
:103A80004100B0F8944064100A22013104A81EF0ED
:103A90000DFA04A968461EF0CFF93A2168461EF0D7
:103AA000B7FAE1B201EB8101084B03EB810102316E
:103AB0001EF0A0FA014628461EF05CFA68461EF089
:103AC00033F904A81EF030F909B030BDAC7402001F
:103AD00010B5034C206822F011FA0023236010BDBA
:103AE0002429002010B504461EF0B4F8204610BD6D
:103AF00038B5054C04F1340554F8040B03681B6811
:103B00009847AC42F8D138BD3809FF1F38B5054C8D
:103B100004F1340554F8040B03685B689847AC4221
:103B2000F8D138BD3809FF1F82B0054B1B680193DF
:103B3000019B03F5FA63034A136002B0704700BFAC
:103B40009C8500203C9FFF1F08B50022064B1A6091
:103B5000064B197802201EF055FD054B19780320FD
:103B60001EF050FD08BD00BF3C9FFF1F2809FF1F2E
:103B7000E809FF1F00B583B0064B1B680193019A4B
:103B8000054B1B68934202D20BB1FFF7DDFF03B078
:103B90005DF804FB9C8500203C9FFF1F38B505465F
:103BA0000C461EF019FD844203D0214628461EF023
:103BB00029FD38BD82B0084B1968084A1368009384
:103BC000009B5B1A052BF9D9044B1B680193019AE2
:103BD000014B1A6002B070472469FF1F9C850020CA
:103BE00082B0054B1968054A13680193019B5B1A63
:103BF000052BF9D902B070472469FF1F9C8500206E
:103C000030B583B00546FFF7EBFF194C5021204635
:103C100019F0FEFB23681B68C5F30721204698476F
:103C200023681B68E9B220469847627B002500950F
:103C300001232169204619F057FF617B019501237B
:103C400000935022206919F063FF2369D3F83821CB
:103C5000D3F834319A4207D0204623685B699847ED
:103C600020EAE070C0B200E0FF2003B030BD00BF2A
:103C7000FC70002070B582B006460D46FFF7C0FF0D
:103C8000A8421ED0FFF796FF0F4C5021204619F096
:103C9000BFFB23681B68C6F30721204698472368AB
:103CA0001B68F1B22046984723681B6829462046C6
:103CB0009847627B0023009301232169204619F075
:103CC00013FF02B070BD00BFFC700020013900F18D
:103CD0000A0210F8013B01F8013F9042F9D1704708
:103CE00070B582B00C4610F4004F09D0C0F30E003E
:103CF00000EB8000224B03EB4000FFF7E7FF3DE0C5
:103D0000204BA3FB00235B085D1C03EB4303C01A9D
:103D100000EB8000400000EB4515ADB2FFF760FFFF
:103D2000194E5021304619F073FB33681B68290A7D
:103D30003046984733681B6805F0FE0130469847C7
:103D4000727B0025009501233169304619F0CCFEC5
:103D5000717B30690195012300930A23502219F0E9
:103D6000D7FE04F10A06084D2B685B692846984780
:103D700020EAE07004F8010BA642F5D102B070BD54
:103D800064980200ABAAAAAAFC70002040F6B433E3
:103D9000984249D8F0B587B007460E4603A9FFF709
:103DA0009FFF06F10A05334603AA002113F8014BD1
:103DB00012F8010B844218BF0121AB42F6D1002951
:103DC00030D01A4BA3FB07235B085C1C03EB4303B7
:103DD000FF1A07EB87077F0007EB4414A4B2FFF735
:103DE000E9FE134F5021384619F012FB3B681B685F
:103DF000210A384698473B681B6804F0FE013846A4
:103E000098473C4623681B6816F8011B20469847D4
:103E1000AE42F7D10648427B00230093012301699B
:103E200019F062FE07B0F0BD704700BFABAAAAAAA6
:103E3000FC70002010B50446010A0020FFF71AFFAD
:103E4000E1B20120FFF716FF10BD00BFF0B585B04D
:103E50004FF44854224600215F4822F089FB41F28A
:103E60006A7200215D4822F083FB4FF4A8720021A2
:103E70005B4822F07DFB224600215A4822F078FB65
:103E80000020FFF7BDFE04460120FFF7B9FE00EB5E
:103E9000042083B2544A13800021544A1170013B1C
:103EA0009CB215464C4E4D4F01E0013CA4B24FF67A
:103EB000FF739C423FD001A92046FFF711FF9DF8F8
:103EC00004302A789A429CBF5A1C2A709DF805201B
:103ED00002F0E001E02915D102F01F0203EB83019B
:103EE00001EB810111443F4830F8111009B127F866
:103EF000141003EB830303EB83031A44394B23F8B9
:103F00001240D2E702F01F0203EB830101EB8101B3
:103F1000114436F8111009B127F8141003EB83038C
:103F200003EB8303134426F81340BEE7013B9BB227
:103F3000AB4207D14EE0A7232D48274C284E294FEE
:103F40004FF6FF759E4603EB830200EB4202517869
:103F500001F0E002E02A1FD103EB830210F81220E7
:103F600001F01F0102EB820C0CEB8C0C8C4437F837
:103F70001CC0BCF1000F01D026F813C0C82AD5D947
:103F800002EB820202EB820211446FEA43426FEAC3
:103F9000524227F81120C9E703EB830210F81220E0
:103FA00001F01F0C02EB820101EB8101614434F846
:103FB000111009B126F81310C82AB7D902EB8202F2
:103FC00002EB820262446FEA43416FEA514124F8F6
:103FD0001210ABE705B0F0BD28290020D00C00205E
:103FE000E0FBFF1F589FFF1FEE5C0020C430FF1F47
:103FF00064980200214B1B88002B3DD070B586B021
:10400000002425461D4E03A92046FFF769FE9DF8B2
:104010000C3043B99DF80D302BB99DF80E3013B913
:104020006B1C9DB205E025B1601B03A980B2FFF7B0
:10403000ADFE0134A4B23388A342E4D8D5B1002246
:1040400000920192ADF808205C1BA4B2A34209D9EA
:104050000A4E69462046FFF799FE0134A4B2338820
:10406000A342F6D85B1B98B2044B1880FFF7E2FE20
:10407000FFF7ECFE06B070BD704700BFEE5C00209D
:1040800010B5044C01462088FFF780FE23880133D9
:10409000238010BDEE5C0020104B1B78834216D9A4
:1040A00001F01F0100EB800000EB800008440C4B86
:1040B00033F810306BB10B4A32F813305BB101208A
:1040C0000130C0B232F81330002BF9D17047002014
:1040D0007047002070470120704700BFC430FF1FA9
:1040E00028290020D00C002010B5054C2088013074
:1040F00080B22080FFF79EFE2088013880B210BD7C
:10410000EE5C002001F01F0100EB800000EB80005E
:104110000844034B33F8100008B933F81100704716
:104120002829002010F4004F1ABFA0F50040024BD0
:10413000024B33F810007047E0FBFF1FD00C00204B
:1041400038B501F01F0100EB800000EB800008444F
:10415000224C34F810401CB9204830F8111000E00F
:10416000214611F4004F03D162B300201C4D1FE023
:104170007AB100201B4D00E02146A1F5004135F841
:104180001110002918BF0C460130C1B29142F3D37F
:1041900000E00C4619462046FFF7A2FDA4F50044B6
:1041A000104B33F81400003018BF012038BD2146F1
:1041B00035F81110002918BF0C460130C1B29142E8
:1041C000F5D300E00C4619462046FFF789FD044B65
:1041D00033F81400003018BF012038BD2829002012
:1041E000D00C0020E0FBFF1FC8281FD870B586B098
:1041F000002300930193ADF808300D4B1B889BB151
:10420000054600240A4E03A92046FFF769FD9DF8E4
:104210000C30AB4203D169462046FFF7B7FD0134AD
:10422000A4B23388A342EED806B070BD704700BF79
:10423000EE5C0020C82825D8F0B587B00023009395
:104240000193ADF80830104B1B88CBB10546002414
:1042500001F01F070C4E03A92046FFF741FD9DF812
:104260000C30AB4207D19DF80D30BB4203D16946FB
:104270002046FFF78BFD0134A4B23388A342EAD86D
:1042800007B0F0BD704700BFEE5C002070B58CB089
:10429000154601F01F0100EB800303EB83030B4481
:1042A000464A32F81340002C62D001A92046FFF79D
:1042B00017FD9DF8061028461DF00CFE9DF807100E
:1042C00028461DF06BFE9DF8081028461DF066FE7E
:1042D0009DF8091028461DF061FE9DF80A10284639
:1042E0001DF05CFE9DF80B1028461DF057FE9DF852
:1042F0000C1028461DF052FE9DF80D1028461DF0AA
:104300004DFE14F4004F1ABFA4F500442C4B2D4B66
:1043100033F81400002842D001A9FFF7E1FC9DF812
:10432000061028461DF03AFE9DF8071028461DF09D
:1043300035FE9DF8081028461DF030FE9DF8091046
:1043400028461DF02BFE9DF80A1028461DF026FE7B
:104350009DF80B1028461DF021FE9DF80C102846F4
:104360001DF01CFE9DF80D1028461DF017FE16E0EE
:104370000646154904A81DF023FD314608A81DF086
:1043800081FD08A904A81DF02DFE014628461DF058
:1043900049FD08A81DF0C8FC04A81DF0C5FC2C7A36
:1043A0000F2C08D82026314628461DF0F7FD013491
:1043B000E4B2102CF7D10CB070BD00BF589FFF1FA6
:1043C000E0FBFF1FD00C0020CCA0020008B50C4B76
:1043D000D87C0C4B187000210B4B19700B4AFFF75F
:1043E00055FF01230A4A13700A4A10780A490870D7
:1043F000082111700221094A1170094A137008BD81
:10440000AC0AFF1FD07000208343FF1F5CFDFF1F1D
:10441000458CFF1F070C00203A240020DCFBFF1F07
:104420002869FF1F08B50C4BD87C0C4A1070597DC9
:104430000B4B19700B4AFFF729FF01230A4A13702F
:104440000A4A10780A490870082111700221094AA5
:104450001170094A137008BDAC0AFF1FD07000200C
:104460008343FF1F5CFDFF1F458CFF1F070C0020CF
:104470003A240020DCFBFF1F2869FF1FC82800F238
:10448000998070B584B014460E4605468DF8040038
:1044900061F01F038DF80530002110461DF0DEFD90
:1044A00003788DF80630012120461DF0D7FD0378F2
:1044B0008DF80730022120461DF0D0FD03788DF8DD
:1044C0000830032120461DF0C9FD03788DF809301E
:1044D000042120461DF0C2FD03788DF80A30052125
:1044E00020461DF0BBFD03788DF80B3006212046D9
:1044F0001DF0B4FD03788DF80C30072120461DF027
:10450000ADFD03788DF80D3005EB850000EB8000E4
:104510003044294B33F8105015B9FFF7E5FD054637
:1045200001A92846FFF732FCA368082B40D90821CF
:1045300020461DF093FD03788DF8063009212046B2
:104540001DF08CFD03788DF807300A2120461DF000
:1045500085FD03788DF808300B2120461DF07EFD87
:1045600003788DF809300C2120461DF077FD037883
:104570008DF80A300D2120461DF070FD03788DF86E
:104580000B300E2120461DF069FD03788DF80C30AC
:104590000F2120461DF062FD03788DF80D30074B8A
:1045A00033F8150008B9FFF79FFD01A9FFF7EEFBEF
:1045B00004B070BD704700BF589FFF1FD00C002093
:1045C000C82853D8F0B58DB01E4615460F46044690
:1045D000274B1B78834223D8431C254A1370254957
:1045E00004A81DF0EDFB214608A81DF04BFC08A90E
:1045F00004A81DF0F7FC20491DF0FCFC01466846AC
:104600001DF01AFC6A4600212046FFF737FF684676
:104610001DF08AFB08A81DF087FB04A81DF084FB91
:1046200007F01F0739462046FFF736FDA84207D896
:10463000FFF75AFD3146FFF7A9FBFFF707FC13E030
:1046400004EB840404EB84043C440C4B33F8140066
:104650003DB100210A4B33F810000131CCB2A54224
:10466000F9D83146FFF792FB0DB0F0BD704700BF9F
:10467000C430FF1FCCA00200D4A0020028290020D3
:10468000D00C0020C8281ED810B584B00023019398
:104690000293ADF80C3001F01F0100EB800000EB3D
:1046A00080000844084B33F8104054B101A920465B
:1046B000FFF76CFB054B33F8140010B101A9FFF7AD
:1046C00065FB04B010BD7047589FFF1FD00C002041
:1046D000F0B583B00D46440804EB440400F001003B
:1046E000C00100EBC41404F5FA44A4B21C4E5021DE
:1046F000304618F08DFE33681B68210A3046984713
:1047000033681B6804F0800130469847727B0024B0
:10471000009401233169304619F0E6F9717B306964
:104720000194012300931023502219F0F1F910276E
:104730003446202623685B692046984720EAE070CB
:10474000C1B2A1F12003DBB25F2B88BF31462846FE
:104750001DF024FC7B1E13F0FF07EBD103B0F0BD6E
:10476000FC7000202DE9F04383B0894617464308CA
:1047700003EB4303DB0103F5FA439BB200F00108AE
:1047800003EBC815ADB203EB881808F580781FFA63
:1047900088F8364C5021204618F03AFE23681B68F2
:1047A000290A2046984723681B6805F080012046A7
:1047B0009847627B0025009501232169204619F066
:1047C00093F9617B20690195012300938023502296
:1047D00019F09EF909F1FF3409F17F06234D2B688A
:1047E0005B692846984720EAE070C0B200F0800379
:1047F000002B18BF002004F8010FB442EFD11B4C6E
:104800005021204618F004FE23681B684FEA182147
:104810002046984723681B6808F0C0012046984747
:10482000627B0025009501232169204619F05CF97F
:10483000617B2069019501230093A7F18003502239
:1048400019F066F9802F0ED907F17F03DBB28033B0
:10485000994423685B692046984720EAE07006F88F
:10486000010F4E45F5D103B0BDE8F083FC70002088
:104870002DE9F04383B088461746430803EB430312
:10488000DB0103F5FA439BB200F0010903EBC91504
:10489000ADB203EB891909F580791FFA89F9FFF7A1
:1048A00089F92A4C5021204618F0B2FD23681B6874
:1048B000290A2046984723681B6805F08001204696
:1048C000984708F1FF3408F17F06204D2B681B68DC
:1048D00014F8011F28469847B442F7D11B4C627B5D
:1048E0000023009301232169204619F0FDF8FFF70A
:1048F00061F95021204618F08BFD23681B684FEAB0
:1049000019212046984723681B6809F0C0012046FA
:104910009847802F0DD907F17F03DBB2803308EB76
:10492000030523681B6816F8011F20469847AE420E
:10493000F7D10648427B002300930123016919F057
:10494000D3F8FFF737F903B0BDE8F083FC7000201F
:1049500010F0800F32D170B582B00E4600F6B83438
:104960002401A4B2FFF726F9154D5021284618F06E
:104970004FFD2B681B68210A284698472B681B6847
:1049800004F0F001284698472B681B6831462846FA
:1049900098470C4C04F10F062B681B6814F8011B98
:1049A00028469847B442F7D10548427B002300933C
:1049B0000123016919F098F802B070BD704700BF7B
:1049C000FC7000200069FF1F10F0800F3FD170B510
:1049D00082B000F6B8342401A4B2FFF701F91C4DEF
:1049E0005021284618F014FD2B681B68210A284620
:1049F00098472B681B6804F0F001284698476A7BAB
:104A00000024009401232969284619F06DF8697B78
:104A100001940123009310235022286919F078F89B
:104A20002B685B692846984720EAE070094B1870AC
:104A3000094C04F110062B685B692846984720EA68
:104A4000E07004F8010BB442F5D102B070BD7047BC
:104A5000FC700020BD7000200069FF1F034B002286
:104A60001A605A609A60C3F80B2070470069FF1FF4
:104A7000F0B585B006460C461DF04CFB057AA54204
:104A80000DD2651B013DEDB20135002420273946CA
:104A900030461DF083FA0134AC42F8D10CE02346D5
:104AA0000022314668461DF00DFB694630461DF078
:104AB000CFF968461DF038F905B0F0BD0548431E32
:104AC00005490F30202203F8012F01F8012F8342FE
:104AD000F9D1704748FDFF1F0B0C00202DE9F04174
:104AE000057A102D28BF102525B913E00F2D11D9F7
:104AF000BDE8F08180460C4E6F1EFFB201370024E6
:104B0000214640461DF0B8FA06F8010F0134BC42B8
:104B1000F6D1EBE7054A202353550135EDB20F2DB1
:104B2000FAD9BDE8F08100BF47FDFF1F48FDFF1F18
:104B30002DE9F041057A102D28BF102525B913E085
:104B40000F2D11D9BDE8F08180460C4E6F1EFFB2CB
:104B500001370024214640461DF08EFA06F8010F69
:104B60000134BC42F6D1EBE7054A20235355013509
:104B7000EDB20F2DFAD9BDE8F08100BF0B0C00207B
:104B80000C0C0020F8B50646047A102C28BF10241F
:104B9000012C08D9611E30461DF06EFA202802D182
:104BA000013CE4B2F6E7C4F11007002F01DC5CB968
:104BB000F8BD002213460C48202181540133DBB29A
:104BC0001A46BB42F9DBF2E7084B1F44651EEDB203
:104BD00001350024214630461DF04EFA07F8010F3A
:104BE0000134AC42F6D1F8BD0C0C00200B0C0020B7
:104BF00030B1044B1B78032B02D80122024B1A70F0
:104C0000704700BF40FDFF1F2869FF1F0C294FD8C8
:104C100070B516460D4604464C23264A03FB002376
:104C20005B7A062B04D0FF2B2FD0002B32D11BE058
:104C30004C23204A03FB0023DB7A23B105213046B5
:104C40001DF0ACF903E0062130461DF0A7F91A4B20
:104C500053F825004C23174A03FB04240368DB6F39
:104C60003246618E984770BD3C2130461DF096F962
:104C7000114B53F825004C230E4A03FB0424036810
:104C8000DB6F3246618E984770BD0C4930461DF08F
:104C900077F970BD084B53F821004C22054B02FBFD
:104CA00004340368D3F880303246618E984770BD73
:104CB000704700BF2C69FF1F3809FF1FE0A00200EA
:104CC00070B5064600242025214630461DF0C6F961
:104CD00005700134102CF7D170BD00BF4C2202FBCF
:104CE00000F0064A00F11C0313442C30024420213A
:104CF00003F8011F9342FBD1704700BF2C69FF1FCF
:104D000008B50846FFF7EAFF012008BD08B50846C8
:104D1000FFF7E4FF012008BD08B50846FFF7DEFFF6
:104D200008BD00BF08B50846FFF7D8FF012008BD41
:104D300008B50846FFF7D2FF012008BD08B51346A5
:104D40000AB990F86A30012B06D0022B06D0032B4B
:104D500014BF00220D2202E00B2200E00C224C23A3
:104D6000044803FB01035A860846FFF7B7FF0120FA
:104D700008BD00BF2C69FF1F08B513460AB990F89B
:104D80006A30012B06D0022B06D0032B14BF002261
:104D90000D2202E00B2200E00C224C23044803FB0E
:104DA00001035A860846FFF799FF012008BD00BF9E
:104DB0002C69FF1F10B513460AB990F86A30012B11
:104DC00003D0022B0DD10F2200E00E2292B24C2311
:104DD000064C03FB01435A860368D3F89430984786
:104DE00010BD0846FFF77AFF012010BD2C69FF1F98
:104DF00008B54C23044A03FB01230E225A860846B9
:104E0000FFF76CFF012008BD2C69FF1F70B5044639
:104E10000D4613460AB990F86A30012B03D0022BD5
:104E200017D10A2100E008214C230C4E03FB056634
:104E300086F83C102368D3F8C4302046984786F89B
:104E400030002368D3F8D430294620469847002004
:104E500070BD2846FFF742FF012070BD2C69FF1F7F
:104E60002DE9F84381460D7A102D28BF102525B96C
:104E700018E00F2D16D9BDE8F8838846104E4C2354
:104E800003FB00660B366F1EFFB20137002421467C
:104E900040461DF0E3F8037806F8013F0134BC42B8
:104EA000F5D1E6E74C22064B02FB0939202209EB3B
:104EB00005031A730135EDB20F2DF8D9BDE8F8835B
:104EC0002C69FF1F38B505460C46084621F098FFAF
:104ED000C0B2102828BF102018B912E00F2810D92E
:104EE00038BD631E0D494C2202FB05120B32411ED8
:104EF00054FA81F113F8014F02F8014F8B42F9D1B6
:104F0000ECE74C22054B02FB053520222B181A73C7
:104F10000130C0B20F28F9D938BD00BF2C69FF1F7E
:104F200070B58CB005460E460F4B08AC0FCB07C4CE
:104F300023700E4B04AC0FCB07C423700C4B6C4694
:104F40000FCB07C4237095F86A3023B908A93046FF
:104F5000FFF7B8FF06E0012B0CBF04A969463046F5
:104F6000FFF7B0FF0CB070BDFCA002000CA1020066
:104F70001CA10200F0B595B007460E460FAC184DC7
:104F80000FCD0FC42B6823700AAC164D0FCD0FC484
:104F90002B68237005AC144D0FCD0FC42B68237004
:104FA0006C46124D0FCD0FC42B68237097F86A30F2
:104FB000012B04D10AA93046FFF784FF0DE0022B34
:104FC00004D105A93046FFF77DFF06E0032B0CBF97
:104FD00069460FA93046FFF775FF15B0F0BD00BF59
:104FE0002CA1020040A1020054A1020068A102000D
:104FF000F0B595B007460E460FAC184D0FCD0FC457
:105000002B6823700AAC164D0FCD0FC42B6823708C
:1050100005AC144D0FCD0FC42B6823706C46124D98
:105020000FCD0FC42B68237097F86A30012B04D181
:105030000AA93046FFF746FF0DE0022B04D105A96F
:105040003046FFF73FFF06E0022B8CBF69460FA9F1
:105050003046FFF737FF15B0F0BD00BF7CA102005E
:1050600090A10200A4A10200B8A102002DE9F8431A
:1050700081460D7A102D28BF102525B918E00F2D77
:1050800016D9BDE8F8838846104E4C2303FB006612
:105090001C366F1EFFB201370024214640461CF02B
:1050A000DDFF037806F8013F0134BC42F5D1E6E7A5
:1050B0004C22064B02FB0939202209EB05035A77E3
:1050C0000135EDB20F2DF8D9BDE8F8832C69FF1F2B
:1050D00070B584B005460E46114612B990F86A10B4
:1050E00009B35431CCB24C23104A03FB06235C862F
:1050F000002168461CF064FEA91D68461CF0B0FE45
:10510000202168461CF04AFF04EBC404084901EB67
:10511000440168461CF034FF69463046FFF7A6FF9D
:1051200068461CF001FE012004B070BD2C69FF1F11
:105130001085020070B58CB006460C4615462E4907
:1051400068461CF03DFE4C232C4A03FB042302223C
:10515000DA71F27F83F82E20A5F10E039BB2012BAA
:105160003FD80E2D08D196F868204C23234903FB25
:10517000041383F8422009E00F2D07D196F8692027
:105180004C231E4903FB041383F842204C231B4A83
:1051900003FB04235B7A042B11D14C2303FB042370
:1051A00093F842100A22013104A81CF07FFE04A9E2
:1051B00068461CF0DFFE04A81CF0B6FD11E04C238D
:1051C0000E4A03FB042393F844100A22013108A875
:1051D0001CF06CFE08A968461CF0CCFE08A81CF068
:1051E000A3FD69462046FFF741FF68461CF09CFD81
:1051F00001200CB070BD00BF049F02002C69FF1F8E
:1052000030B585B00D46144602EB4201C1EB0111E9
:10521000084B1B68194468461CF0D2FD0B2C03D8C0
:1052200069462846FFF722FF68461CF07DFD0120F5
:1052300005B030BD2429002070B584B006460C4668
:105240001546134968461CF0BBFD354495F893306C
:1052500033B94C230F4A03FB04230222DA7105E021
:105260004C230C4A03FB04230122DA71F27F4C2306
:10527000084903FB041383F82E2069462046FFF7F4
:10528000F5FE68461CF050FD012004B070BD00BF63
:10529000049F02002C69FF1F38B505460C460846DE
:1052A00021F0AEFDC0B2102828BF102018B912E0BE
:1052B0000F2810D938BD631E0D494C2202FB051280
:1052C0001C32411E54FA81F113F8014F02F8014FCC
:1052D0008B42F9D1ECE74C22054B02FB053520222D
:1052E0002B185A770130C0B20F28F9D938BD00BF4A
:1052F0002C69FF1F38B50D4690F84C302BB1044691
:105300000368D3F80031984718B92846FFF7E6FC40
:1053100038BD4C237A4A03FB05235B8E013B092BE6
:1053200000F2ED80DFE803F00512436673808D9292
:105330009FCF94F8723023B172492846FFF7ACFF33
:1053400038BD71492846FFF7A7FF38BD94F8703083
:105350005BB994F8733023B16C492846FFF79CFF82
:1053600003E06B492846FFF797FF94F87030012B54
:1053700003D166492846FFF78FFF94F87030082B59
:1053800003D164492846FFF787FF94F87030022B59
:1053900003D15F492846FFF77FFF94F87030042B54
:1053A00040F0AD805A492846FFF776FF38BD94F8A3
:1053B00070301BB958492846FFF76EFF94F87030DB
:1053C000012B03D155492846FFF766FF94F870304A
:1053D000082B03D14D492846FFF75EFF94F8703043
:1053E000022B02D0042B40F08A804C492846FFF75C
:1053F00053FF38BD94F8753023B149492846FFF76B
:105400004BFF38BD47492846FFF746FF38BD94F8A3
:10541000763023B144492846FFF73EFF38BD434963
:105420002846FFF739FF38BD94F8743023B140495E
:105430002846FFF731FF38BD3E492846FFF72CFFCD
:1054400038BD3D492846FFF727FF38BD94F877302F
:1054500023B13A492846FFF71FFF38BD384928468F
:10546000FFF71AFF38BD94F87030802B03D12A491A
:105470002846FFF711FF94F87030012B03D1234920
:105480002846FFF709FF94F87030022B03D1234917
:105490002846FFF701FF94F870301BB91B492846D6
:1054A000FFF7FAFE94F87030042B03D11B4928460D
:1054B000FFF7F2FE94F87030082B20D121492846DE
:1054C000FFF7EAFE38BD94F87030802B04D11E49F6
:1054D0002846FFF7E1FE38BD23B10E492846FFF705
:1054E000DBFE38BD94F87130022B04D017492846F2
:1054F000FFF7D2FE38BD16492846FFF7CDFE38BD6E
:105500002C69FF1FCCA10200D4A10200DCA1020083
:10551000E4A10200ECA10200F4A10200F8A1020043
:10552000FCA1020004A202000CA2020014A20200CC
:105530001CA2020020A2020024A202002CA202004F
:1055400030A2020038A2020040A2020048A20200DB
:1055500050A2020010B50C4613460AB990F86A3002
:10556000012B04D108492046FFF796FE09E0022BE3
:1055700004D106492046FFF78FFE02E02046FFF7E0
:10558000ADFB012010BD00BF58A2020064A20200C2
:1055900008B508464C230A4A03FB012393F832104E
:1055A0004B1EDBB20A2B07D8013901EB0111054B69
:1055B0001944FFF771FE08BDFFF790FB08BD00BF5F
:1055C0002C69FF1FF073020070B584B005460E46CB
:1055D00014467A4968461CF0F3FB0CB995F86A400A
:1055E000013C052C00F2D880DFE804F003101D2AEE
:1055F0004A9073493046FFF74FFEEA7F4C237149CA
:1056000003FB061686F82E200124D0E06E493046B2
:10561000FFF742FEEA7F4C236A4903FB061686F831
:105620002E200124C3E069493046FFF735FEEA7FAA
:105630004C23644903FB061686F82E200124B6E0AD
:1056400095F86D311BB962493046FFF725FE95F894
:105650006D31012B03D15F493046FFF71DFE95F8F0
:105660006D31022B03D15C493046FFF715FEEA7F0E
:105670004C23544903FB061686F82E20012496E09D
:1056800095F86921554B9B5C93B3554931F812400D
:10569000013C23449CB2534968461CF0E1FB95F859
:1056A00068311BB9282168461CF078FCC4EBC4049F
:1056B0004D4901EB4401023168461CF061FC95F84C
:1056C00068311BB9292168461CF068FC69463046E0
:1056D000FFF7CCFC4C233B4A03FB062695F86921D7
:1056E000424B03EB42035B7886F82E3001245EE0E8
:1056F0004C23344A03FB062317225A862B68D3F81F
:105700009430314628469847044650E095F86B217E
:10571000324B9B5C93B3324931F81240013C234435
:105720009CB2334968461CF09BFB95F86A311BB963
:10573000282168461CF032FCC4EBC4042A4901EB62
:105740004401023168461CF01BFC95F86A311BB914
:10575000292168461CF022FC69463046FFF786FC8A
:105760004C23184A03FB062695F86B211F4B03EBCD
:1057700042035B7886F82E30012418E04C23114A4E
:1057800003FB062346225A862B68D3F89430314611
:105790002846984704460AE03046FFF79FFA4C2215
:1057A000084B02FB0636002386F82E30012468469B
:1057B0001CF0BAFA204604B070BD00BF049F02007E
:1057C00070A202002C69FF1F7CA202007BFB02007A
:1057D00088A2020094A20200A0A20200783F030067
:1057E000C4FAFF1FB0A2020058080300ECA902008F
:1057F000F89F020008B508464C230A4A03FB012320
:1058000093F832104B1EDBB20B2B07D8013901EB9A
:105810000111054B1944FFF73FFD08BDFFF75EFA84
:1058200008BD00BF2C69FF1F34330300F8B50D46D7
:1058300090F8933093420ED900EB4203B3F89430C2
:1058400013F0010F4FF04C03104903FB051314BF75
:1058500001210221D97100EB4200B0F89440C4F359
:1058600047040B4EE700391906EB41012846FFF7C4
:1058700013FD4C22054B02FB05353C4406EB44046A
:10588000637C85F82E300120F8BD00BF2C69FF1F16
:10589000F8D10200F8B50D4690F8933093420ED936
:1058A00000EB4203B3F8943013F0010F4FF04C03B8
:1058B000104903FB051314BF01210221D97100EB2C
:1058C0004200B0F89440C4F347040B4EA7003919C6
:1058D00006EB810102312846FFF7DEFC4C22054B26
:1058E00002FB05353C4406EB8404E37C85F82E304E
:1058F0000120F8BD2C69FF1FAC7402000548431E4F
:1059000005490F30202203F8012F01F8012F8342AF
:10591000F9D17047105D00200F69FF1F70B5044674
:1059200021F06EFAC0B2102828BF102001280FD92C
:10593000231813F8013C202B05D009E0231813F895
:10594000013C202B04D10138C0B20128F6D104E07B
:10595000C0F110056D1008B970BD0725621E002347
:10596000054EEDB212F8014FF1184C550133D9B282
:105970008142F7D370BD00BF105D002070B50446B2
:1059800021F03EFAC0B2102828BF102001280FD9FC
:10599000231813F8013C202B05D009E0231813F835
:1059A000013C202B04D10138C0B20128F6D104E01B
:1059B000C0F110056D1008B970BD0725621E0023E7
:1059C000054EEDB212F8014FF1184C550133D9B222
:1059D0008142F7D370BD00BF1069FF1F70B58CB056
:1059E00005460E461B4CA4FB003464090A222146DE
:1059F00068461CF05BFA694630461CF0BBFA684604
:105A00001CF092F9642101FB1451C9B2124CA4FBA1
:105A100001310A22C90804A81CF048FA04A930463A
:105A20001CF0A8FA04A81CF07FF9A4FB0534E408D4
:105A300004EB8404A5EB44010A22C9B208A81CF0B7
:105A400035FA08A930461CF095FA08A81CF06CF944
:105A50000CB070BD1F85EB51CDCCCCCC70B588B0EF
:105A600006460D461446002104A81CF0A9F95C2C3A
:105A700037D8542C18D8331993F894204C231C4948
:105A800003FB0513DA713E2C0AD9264496F89430AC
:105A9000012B0CBF174918492846FFF7FDFB14E0FE
:105AA0002846FFF71BF910E0144968461CF088F9F6
:105AB0002644694696F89400FFF790FF6946284609
:105AC000FFF7D4FA68461CF02FF94C22084B02FB72
:105AD000053504EBC4040A4B03EB4404637C85F8EE
