:1000000000800020BD010000792101003D21010098
:100010003D2101003D2101003D2101003D21010064
:100020003D2101003D2101003D2101007921010018
:10003000792101003D210100792101002D210100DC
:100040007921010079210100792101007921010044
:100050007921010079210100792101007921010034
:100060007921010079210100792101007921010024
:100070007921010079210100792101007921010014
:100080007921010079210100792101007921010004
:1000900079210100792101007921010079210100F4
:1000A0002515010035150100792101007921010094
:1000B00079210100792101007921010079210100D4
:1000C00079210100792101007921010079210100C4
:1000D00079210100792101007921010079210100B4
:1000E00079210100792101007921010079210100A4
:1000F00079210100CD45010079210100C54A0100A7
:1001000079210100E14E01007921010079210100EE
:100110007921010079210100792101007921010073
:100120007921010079210100792101007921010063
:100130007921010079210100792101007921010053
:100140007921010079210100792101007921010043
:100150007921010079210100792101007921010033
:10016000792101002929010079210100792101006B
:100170007921010079210100792101007921010013
:100180007921010079210100792101007921010003
:1001900079210100792101007921010079210100F3
:1001A00079210100792101007921010079210100E3
:1001B00079210100792101007921010010B56B4BF3
:1001C0004CF220521A804DF628121A8000BF00BF50
:1001D00011F0D6FF4FF01062654B1A60654A083384
:1001E0001A60654A04331A60A3F530432C3B1B6840
:1001F00013F4807F06D10022604B1A604FF4A8529E
:10020000043B1A605E4B1B7813F0080F04D05C4B64
:100210001A7842F008021A702A225A4B1A705A4B66
:100220005A4A9A420DD2131D594CE41A24F0030481
:1002300004340023104657495A581A500433A34235
:10024000FAD1554B554A9A4280F08B80131F54497E
:10025000C91A21F003011A1D1144002243F8042F8A
:100260008B42FBD17DE05A581A500433B3F5DE7F40
:10027000F9D14C4B80214C4A03F8011B9342FBD12E
:100280004A4B4B4A1A600A224A4B1A702422A3F6A0
:10029000FF731A70A022013B1A7006331A7812F00D
:1002A000020FFBD0444B1A7812F0100FFBD1424BD7
:1002B0001A7802F00C02082AFAD103223F4B1A7076
:1002C000402201331A7001331A7812F0200FFBD04C
:1002D000394B1A7812F0400FFBD0394A394B1A606B
:1002E000022204331A602022374B1A7006331A7820
:1002F00002F00C020C2AFAD1344A354B1A60354A06
:10030000354B1A60002204331A600722083B1A603A
:10031000324A03F551631A6062B612F0C5F9174B01
:100320001B6813F0010F05D02D4812F023F92D4A58
:100330002D4B1A602D4B1B7813F0400F0AD02A4B1F
:100340001A68284B9A4205D1254812F013F9002269
:10035000254B1A6015F0CAFA11F018FF13F056FC7D
:10036000FEE70023124822497DE700BF0E2005402A
:1003700030800440823F04000100002B14D0034071
:1003800002D0074000E007405898FF1F8088FF1FF9
:100390005B98FF1FC4350200203000205898FF1FD3
:1003A0001B30002000E400E05FE400E008ED00E026
:1003B0000082FF1F005006400640064004400640F1
:1003C000000003014480044000400640C0100500C6
:1003D00004800440FF76010014E000E000002020CB
:1003E000372FFF59A5C3945A1CE0034000F0074083
:1003F00000000000FFFFFFFFFFFFFFFFFFFFFFFF09
:10040000FFFFFFFFFFFFFFFFFFFFFFFFFEFFFFFFFD
:1004100010B5054C237833B9044B13B10448AFF33E
:1004200000800123237010BD5898FF1F00000000BA
:10043000BC35020008B5064B1BB106480649AFF3B0
:1004400000800648036813B1054B03B1984708BD07
:1004500000000000BC3502005C98FF1F5898FF1F89
:1004600000000000704700BF704700BF10B50124B6
:1004700004FA01F14174827203681B6900219847F4
:1004800010BD00BFCD2380F85C3080F85D3080F86F
:100490005E307047704700BF10B590F820409C4216
:1004A00009D1C37F934206D1438C8B4203D0418450
:1004B00003685B6A984710BD704700BF704700BF74
:1004C000704700BF704700BF704700BF024B1A78EB
:1004D00042F002021A7070475AB0FF1F704700BF07
:1004E000704700BF704700BF704700BF704700BF34
:1004F000704700BF704700BF012070470020704761
:10050000002070470020704700207047704700BFF0
:10051000704700BF704700BF704700BF704700BF03
:100520002F2070472E299DBF024B03EB4111087A03
:100530000020704718000200082070471431C8B22C
:10054000704700BF30B40548CC00651800EBC50506
:1005500085F82F3085F8382030BC70470C210020FA
:1005600008B590F8643013B103681B6C984708BD58
:100570002E2070472D299DBF024B03EB4111087AB5
:10058000002070477CEF0100082070471431C8B28A
:10059000704700BF30B40548CC00651800EBC505B6
:1005A00085F82F3085F8382030BC70470C210020AA
:1005B00008B590F8442080F847200268126A418C00
:1005C000904708BD7E2070478F2906D801EB410176
:1005D000034B03EBC101887870470020704700BFD0
:1005E00030130200272070470F2902D81431C8B2F7
:1005F0007047A1F11003DBB20B2B9ABF0F39C8B2C1
:100600000020704730B40548CC00651800EBC505E4
:1006100085F82F3085F8382030BC70470C21002039
:100620000620704710B50C460368DB6D9847A04262
:100630008CBF0220002010BD0620704710B50C466C
:100640000368DB6D9847A0428CBF0220002010BDDC
:10065000074B1B78012B02D9013B054A137001227D
:10066000044B1A700023044A1370044A1370704735
:10067000C2B2FF1F25E9FF1F90EAFF1F612800207B
:10068000074B1B780F2B02D80133054A1370012248
:10069000044B1A700023044A1370044A1370704705
:1006A000C2B2FF1F25E9FF1F90EAFF1F612800204B
:1006B000704700BF704700BF38B5054D05F1B00465
:1006C000103D204613F04AFB103CAC42F9D138BD36
:1006D000DCB2FF1F10B50446034A40F8282B13F084
:1006E0003DFB204610BD00BF80B3010010B504469D
:1006F000034A40F8282B13F031FB204610BD00BF01
:1007000080B3010010B50446034A40F8282B13F0CB
:1007100025FB204610BD00BF80B3010010B5044684
:10072000034A40F8282B13F019FB204610BD00BFE8
:1007300080B3010010B50446034A40F8282B13F09B
:100740000DFB204610BD00BF80B3010008B5104668
:10075000014913F09FFB08BDF0D5010008B518460C
:10076000014913F097FB08BD00D6010008B51046FB
:10077000014913F08FFB08BD04D6010008B51046EF
:10078000014913F087FB08BD00D6010038B50C46BF
:1007900015460368DB6D9847A04207D9064B03EB6B
:1007A00044112846093113F075FB38BD284603492A
:1007B00013F070FB38BD00BF1800020010D6010016
:1007C00038B50C4615460368DB6D9847A04207D93B
:1007D000064B03EB44112846093113F05BFB38BD8F
:1007E0002846034913F056FB38BD00BF7CEF0100DB
:1007F00010D6010038B50C4615460368DB6D9847E6
:10080000A04209D904EB4404064B03EBC40128467B
:10081000033113F03FFB38BD2846034913F03AFB80
:1008200038BD00BF3013020010D6010008B52629DC
:1008300008D8C1EBC1011046054B03EB410113F091
:1008400029FB08BD1046034913F024FB08BD00BF77
:1008500048DF010010D60100F8B50D4617461E46C8
:100860000468E16D8847A84207D9012F30460CBFC4
:100870000449054913F086FBF8BD3046034913F0DF
:1008800081FBF8BD9CDB010014D6010010D60100ED
:10089000F8B50D4617461E460468E16D8847A84224
:1008A00007D9012F30460CBF0449054913F06AFBF4
:1008B000F8BD3046034913F065FBF8BD9CDB010031
:1008C00014D6010010D60100F0B58DB00E461546C5
:1008D0006846114613F0CAFA0136144C84FB0634FC
:1008E000A41004A821460A2213F0FAFA684604A9C3
:1008F00013F07AFB074604EB840108A8A6EB41013C
:100900000A2213F0EDFA384608A913F06DFB0146F0
:10091000284613F0A1FA08A813F020FA04A813F04F
:100920001DFA684613F01AFA0DB0F0BD67666666E8
:1009300070B598B004460D46164690F84230002B2C
:1009400035D101EB8102C38F642101FB03F303EB7B
:100950004202438F9A421ADC6846314613F086FA07
:1009600004A829460A2213F0BBFA684604A913F02A
:100970003BFB224913F042FB0146304613F06CFA70
:1009800004A813F0EBF9684613F0E8F933E008A87F
:10099000314613F06BFA08A8194913F02FFB0146F2
:1009A000304613F059FA08A813F0D8F923E00CA840
:1009B000114613F05BFA10A894F8431013F07CFA78
:1009C0000CA810A913F010FB044614A829460A220B
:1009D00013F086FA204614A913F006FB01463046B0
:1009E00013F03AFA14A813F0B9F910A813F0B6F9F5
:1009F0000CA813F0B3F918B070BD00BF18D60100F1
:100A00001CD60100F0B58DB00E461546684611465D
:100A100013F02CFA6846174913F0F0FA074601362E
:100A2000154C84FB0634A41004A821460A2213F0B6
:100A300057FA384604A913F0D7FA074604EB8401A5
:100A400008A8A6EB41010A2213F04AFA384608A981
:100A500013F0CAFA0146284613F0FEF908A813F06D
:100A60007DF904A813F07AF9684613F077F90DB010
:100A7000F0BD00BF20D6010067666666F0B595B090
:100A800005460E46144690F84230FBB968461146BA
:100A900013F0ECF96846234913F0B0FA054604A8B0
:100AA00031460A2213F01CFA284604A913F09CFAD6
:100AB0001D4913F0A3FA0146204613F0CDF904A80E
:100AC00013F04CF9684613F049F928E008A81146DC
:100AD00013F0CCF908A8134913F090FA07460CA8B4
:100AE00095F8431013F0E8F938460CA913F07CFA96
:100AF000054610A831460A2213F0F2F9284610A93B
:100B000013F072FA0146204613F0A6F910A813F06C
:100B100025F90CA813F022F908A813F01FF915B055
:100B2000F0BD00BF20D6010018D6010030B589B055
:100B30000C461546072917D868460E4913F05AF98E
:100B400004A8611C0A2213F0CBF9684604A913F02B
:100B50004BFA0146284613F07FF904A813F0FEF87B
:100B6000684613F0FBF803E01046034913F092F9CE
:100B700009B030BD24D6010010D6010030B589B0CF
:100B80000C4615464BB2002B16DD68460D4913F096
:100B900031F904A8214613F08FF9684604A913F02F
:100BA00023FA0146284613F057F904A813F0D6F8A3
:100BB000684613F0D3F803E01046034913F06AF9CE
:100BC00009B030BD2CD6010000D601002DE9F0435C
:100BD000A5B006460D4614465B4BA3FB01235B08FC
:100BE000622B0FD86846214613F040F968465749F2
:100BF00013F004FA0146204613F02EF9684613F06C
:100C0000ADF84BE090F85F20510063318B4218DB68
:100C100004A8214613F02AF904A84D4913F0EEF96F
:100C20000146204613F018F904A813F097F896F837
:100C30005F30A3EB830305EB4305A5F22915ADB2A5
:100C40002CE06332934217DB08A8214613F00EF91B
:100C500008A8404913F0D2F90146204613F0FCF8E9
:100C600008A813F07BF896F85F30A3EB8303A3F298
:100C700029131D44ADB211E00CA8214613F0F6F87B
:100C80000CA8354913F0BAF90146204613F0E4F8F0
:100C90000CA813F063F8A5F22915ADB210A82146EF
:100CA00013F0E4F8284EA6FB053676081FFA86F8FE
:100CB00008F10108294F87FB0827BF1014A83946FF
:100CC0000A2213F00DF910A814A913F08DF981462A
:100CD00007EB870118A8A8EB41010A2213F000F9DD
:100CE000484618A913F080F90146204613F0B4F8DD
:100CF00018A813F033F814A813F030F810A813F064
:100D00002DF81CA8214613F0B1F81CA8144913F0C3
:100D100075F9074606EB4606AD1BA9B220A80131BE
:100D20000A2213F0DDF8384620A913F05DF90146D8
:100D3000204613F091F820A813F010F81CA813F027
:100D40000DF825B0BDE8F083ABAAAAAA30D6010001
:100D500034D6010038D601004CD6010067666666BD
:100D600000D60100F0B595B005460E46144690F841
:100D70004230FBB96846114613F078F868462449BA
:100D800013F03CF9054604A831460A2213F0A8F8EE
:100D9000284604A913F028F91E4913F02FF901463B
:100DA000204613F059F804A812F0D8FF684612F054
:100DB000D5FF2BE008A8114613F058F808A81449ED
:100DC00013F01CF907460CA895F8431013F074F8BB
:100DD00038460CA913F008F9054610A831460A2236
:100DE00013F07EF8284610A913F0FEF80A4913F014
:100DF00005F90146204613F02FF810A812F0AEFFB7
:100E00000CA812F0ABFF08A812F0A8FF15B0F0BDB7
:100E100030D601003CD6010040D6010030B589B083
:100E20000C461546072917D868460E4912F0E2FF0E
:100E300004A8611C0A2213F053F8684604A913F0B1
:100E4000D3F80146284613F007F804A812F086FFED
:100E5000684612F083FF03E01046034913F01AF8C6
:100E600009B030BD24D6010010D6010030B589B0DC
:100E70000C4615464BB2002B16DD68460D4912F0A4
:100E8000B9FF04A8214613F017F8684604A913F027
:100E9000ABF80146284612F0DFFF04A812F05EFF0F
:100EA000684612F05BFF03E01046034912F0F2FFC0
:100EB00009B030BD2CD6010000D6010030B591B08C
:100EC0000C4615464B1EDBB2072B16D868462A493E
:100ED00012F090FF04A8214612F0EEFF684604A924
:100EE00013F082F80146284612F0B6FF04A812F06B
:100EF00035FF684612F032FF3BE0092904D1104665
:100F00001E4912F0C7FF34E00A2904D110461C49DB
:100F100012F0C0FF2DE00B2904D11046194912F040
:100F2000B9FF26E00C2904D11046174912F0B2FF90
:100F30001FE0A1F10D03DBB2722B16D808A81349EC
:100F400012F058FF0CA8214612F0B6FF08A80CA911
:100F500013F04AF80146284612F07EFF0CA812F062
:100F6000FDFE08A812F0FAFE03E01046084912F050
:100F700091FF11B030BD00BF44D6010050D6010032
:100F80005CD601006CD6010078D601002CD6010099
:100F900000D6010030B589B00C4615460368DB6DFC
:100FA0009847A0421AD968460F4912F023FF04A8B7
:100FB000611C0A2212F094FF684604A913F014F889
:100FC0000A4913F01BF80146284612F045FF04A811
:100FD00012F0C4FE684612F0C1FE03E02846044940
:100FE00012F058FF09B030BD88D601008CD6010040
:100FF00010D60100F0B58DB00E4615466846114674
:1010000012F034FF0136144C84FB0634A41004A8FB
:1010100021460A2212F064FF684604A912F0E4FF98
:10102000074604EB840108A8A6EB41010A2212F04E
:1010300057FF384608A912F0D7FF0146284612F09C
:101040000BFF08A812F08AFE04A812F087FE68467B
:1010500012F084FE0DB0F0BD6766666630B589B0EB
:101060000C4615460368DB6D9847A0421AD96846BE
:101070000F4912F0BFFE04A8611C0A2212F030FFD3
:10108000684604A912F0B0FF0A4912F0B7FF014602
:10109000284612F0E1FE04A812F060FE684612F045
:1010A0005DFE03E02846044912F0F4FE09B030BDAD
:1010B00088D601008CD6010010D60100F0B59DB095
:1010C0000D4616461F460268D26D9047A84240F270
:1010D0008280444B03EB45156C8B23B2002B72DDF1
:1010E00047F616439C4214D047F617439C4204D05F
:1010F00047F615439C4255D118E004A8314612F03A
:10110000DBFE384604A912F035FF04A812F026FED3
:1011100065E008A871000A2212F0E2FE384608A92C
:1011200012F028FF08A812F019FE58E03F2E17D839
:101130000CA82D4912F05EFE10A8C6F132010A2259
:1011400012F0CEFE0CA810A912F04EFF0146384650
:1011500012F010FF10A812F001FE0CA812F0FEFD14
:10116000402E04D13846214912F00CFF37E0402EC2
:1011700035D914A81E4912F03DFE18A8A6F1320177
:101180000A2212F0ADFE14A818A912F02DFF014694
:10119000384612F0EFFE18A812F0E0FD14A812F085
:1011A000DDFD1CE03444013C04EBC40468461149F5
:1011B000214412F01FFE3846694612F0DBFE6846F5
:1011C00012F0CCFD0BE0012E38460CBF0A490B494A
:1011D00012F0D8FE03E03846094912F0D3FE1DB0E4
:1011E000F0BD00BF180002004CD6010090D60100EF
:1011F00038D6010044A301009CDB010014D6010095
:1012000010D60100F0B599B00D4616461F4602688B
:10121000D26D9047A84270D93B4B03EB45156C8BC0
:1012200023B2002B61DD47F615439C4210D04BD30F
:1012300047F617439C4247D804A8314612F03CFEBB
:10124000384604A912F096FE04A812F087FD58E073
:101250003F2E17D808A82D4912F0CCFD0CA8C6F1D6
:1012600032010A2212F03CFE08A80CA912F0BCFEC2
:101270000146384612F07EFE0CA812F06FFD08A859
:1012800012F06CFD402E04D13846214912F07AFE4E
:1012900037E0402E35D910A81E4912F0ABFD14A836
:1012A000A6F132010A2212F01BFE10A814A912F0B6
:1012B0009BFE0146384612F05DFE14A812F04EFD6A
:1012C00010A812F04BFD1CE03444013C04EBC404B4
:1012D00068461149214412F08DFD3846694612F0E6
:1012E00049FE684612F03AFD0BE0012E38460CBF6D
:1012F0000A490B4912F046FE03E03846094912F04C
:1013000041FE19B0F0BD00BF7CEF01004CD60100DA
:1013100090D6010038D60100240D02009CDB0100AC
:1013200014D6010010D60100F0B591B00D46164656
:10133000C72910468CBF2149214912F023FE0135EF
:10134000204981FB053104A849110A2212F0C8FD89
:10135000684604A912F08AFD1B4981FB0534A410DC
:1013600081FB0431891001EB810108A8A4EB410144
:101370000A2212F0B5FD684608A912F035FE0746AC
:1013800004EB84010CA8A5EB41010A2212F0A8FD90
:1013900038460CA912F028FE0146304612F0EAFD4C
:1013A0000CA812F0DBFC08A812F0D8FC684612F07A
:1013B000D5FC04A812F0D2FC11B0F0BD20D601007B
:1013C00030D601001F85EB51676666662DE9F04156
:1013D0009CB004460E46154690F842303BBB68462A
:1013E000344912F007FD04A8E18F0A2212F078FDBB
:1013F000684604A912F0F8FD044608A831460A22FE
:1014000012F06EFD204608A912F0EEFD2A4912F0F6
:10141000F5FD0146284612F0ADFD08A812F09EFC2D
:1014200004A812F09BFC684612F098FC3EE00CA861
:10143000204912F0DFFC94F84310204FA7FB012154
:1014400010A8C9080A2212F04BFD0CA810A912F02E
:10145000CBFD804694F84330A7FB0327FF0807EB3A
:101460008707A3EB470114A8C9B20A2212F038FD7E
:10147000404614A912F0B8FD044618A831460A22C5
:1014800012F02EFD204618A912F0AEFD01462846A6
:1014900012F070FD18A812F061FC14A812F05EFCA6
:1014A00010A812F05BFC0CA812F058FC1CB0BDE8B0
:1014B000F08100BF30D6010018D60100CDCCCCCCD5
:1014C00070B59CB00C4615461E460268D26D90471A
:1014D000A04240F2838004EB4404434B03EBC4047A
:1014E000A48A23B2002B71DD47F616439C4214D028
:1014F00047F617439C4204D047F615439C4255D10A
:1015000018E004A8294612F0D7FC304604A912F0CE
:1015100031FD04A812F022FC64E008A869000A2248
:1015200012F0DEFC304608A912F024FD08A812F0E3
:1015300015FC57E0312D17D80CA82C4912F05AFC95
:1015400010A8C5F132010A2212F0CAFC0CA810A999
:1015500012F04AFD0146304612F00CFD10A812F0C0
:10156000FDFB0CA812F0FAFB322D04D130462049C5
:1015700012F008FD36E0322D34D914A81D4912F0BE
:1015800039FC18A8A5F132010A2212F0A9FC14A80E
:1015900018A912F029FD0146304612F0EBFC18A8FC
:1015A00012F0DCFB14A812F0D9FB1BE02C44611EE6
:1015B0006846114B03EBC10112F01CFC3046694632
:1015C00012F0D8FC684612F0C9FB0BE0012D304642
:1015D0000CBF0A490A4912F0D5FC03E0304609491C
:1015E00012F0D0FC1CB070BD301302004CD60100CC
:1015F00090D6010038D60100D8A901009CDB01007B
:1016000014D6010010D6010038B504461C4B1868EA
:10161000C4F805001B7963721A4B03CBC4F80D00A4
:10162000C4F8111019889B78A4F81510E37504F11B
:1016300028052846112112F0A7FB2846124912F06E
:1016400029FC00232387622262870A2284F8402033
:10165000042284F8462084F85F3084F86030E36424
:10166000A2770122E277A38784F84820CD2384F86B
:101670005C30D02384F85D30D12384F85E3038BDEF
:1016800094D601009CD60100A8D6010038B50446C6
:10169000214B1868C4F805001B7963721F4B07CBF8
:1016A000C4F80D00C4F81110C4F815201B78637637
:1016B00004F128052846112112F066FB2846184936
:1016C00012F0E8FB002323874FF424726287032281
:1016D00084F84020042184F84610282184F85F1003
:1016E00084F8603084F8613084F8623084F86330C4
:1016F0000A21E164A2770822E277A387012384F814
:101700004830CE2384F85C30D02384F85D30D22377
:1017100084F85E3038BD00BFBCD60100C4D60100DD
:10172000A8D6010038B504461D4B1868C4F805005A
:101730001B7963721B4B07CBC4F80D00C4F8111062
:10174000C4F815201B78637604F12805284611217A
:1017500012F01AFB2846144912F09CFB0023238741
:1017600040F28F1262870A2284F84020042284F813
:10177000462084F85F3084F86030E3640222A27768
:101780000922E277A387012384F84830CD2384F827
:101790005C30D02384F85D30D32384F85E3038BDCC
:1017A000D4D60100DCD60100A8D6010038B5044625
:1017B000154B1868C4F80500144B03CBC4F80D0092
:1017C000C4F8111004F128052846112112F0DCFAA2
:1017D00028460F4912F05EFB0022228763236387AD
:1017E000042384F846300A2384F840300123A37789
:1017F000E377A28784F84830CF2384F85C3084F8FC
:101800005D3084F85E3038BDECD60100F0D60100C2
:10181000A8D6010038B504461A4B1868C4F805006C
:101820001B796372184B07CBC4F80D00C4F8111074
:10183000C4F815201B88A4F8193004F1280528469F
:10184000112112F0A1FA2846104912F023FB0023BF
:10185000238731226287042284F846200A2284F8F2
:1018600040200522A2770122E277A38784F848204E
:10187000CF2284F85C2084F85D2084F85E2084F810
:10188000FE3038BDF8D6010000D70100A8D601000F
:10189000F0B589B00E4615466846114612F0E6FAD4
:1018A000114CA4FB0634E40804F141016846C9B2B6
:1018B00012F0B2FB074604EB8404A6EB440104A833
:1018C00089B20A2212F00CFB384604A912F08CFBF4
:1018D0000146284612F0C0FA04A812F03FFA684602
:1018E00012F03CFA09B0F0BDCDCCCCCC70B58CB0C8
:1018F0000D46144690F84230A3B96846114612F0DE
:10190000B5FA05F141016846C9B212F085FB1649E6
:1019100012F074FB0146204612F09EFA684612F05F
:101920001DFA1FE090F843604136F6B204A8114654
:1019300012F09CFA04A8314612F06EFB064608A885
:1019400029460A2212F0CCFA304608A912F04CFBC4
:101950000146204612F080FA08A812F0FFF904A808
:1019600012F0FCF90CB070BD18D6010008B510F0EB
:1019700065FE014B186008BD442800202DE9F047A2
:1019800094B006460F46344C25782D1168463349ED
:1019900012F030FA04A8394612F08EFA684604A90B
:1019A00012F022FB2E4912F029FB804608A831468E
:1019B00012F082FA404608A912F016FB294912F0EB
:1019C0001DFB804621780CA809110A2212F088FA22
:1019D00040460CA912F008FB234912F00FFB044605
:1019E000EDB210A8214B595D12F066FA204610A9FD
:1019F00012F0FAFA01461E4C204612F02BF920464E
:101A000012F04EF910A812F0A9F90CA812F0A6F9DC
:101A100008A812F0A3F904A812F0A0F9684612F081
:101A20009DF9144B1C1F03F1100ADFF84090DFF8FA
:101A3000288054F8040F026819F805E098F800307F
:101A4000D2F808C0394632464EEA0303E04754450F
:101A5000EFD114B0BDE8F08775EAFF1F10D7010081
:101A600018D7010030D7010024DC0100941C0020AD
:101A7000502D00208489FF1F38B505460C460846C6
:101A800014F01EFD02462B685B68284621469847E5
:101A900038BD00BF10B50D4B19680D4B19600D4ACC
:101AA0000A4C40F6B730137813F0FF0F03D12368C8
:101AB000CB1A8342F7D9084C23685B682046074954
:101AC00023229847204612F0EBF810BDF02B00209F
:101AD0002C1E0020D42C0020502D00203CD70100CB
:101AE0002DE9F043C1B005460E4614461F46854811
:101AF00002681268002190476A787E2A00F0FE8012
:101B0000AB787F2B00F0FA8037B17E4803685B68C2
:101B10007D490222984705E07A4803685B687B4963
:101B20000222984704F00F0704F0F002102A21D097
:101B300001D82AB16CE0202A36D0302A4ED067E096
:101B40006846734912F056F904A8394612F0B4F900
:101B5000684604A912F048FA6E4912F04FFA01469D
:101B6000684812F077F804A812F0F8F8684612F006
:101B7000F5F866E008A8684912F03CF90CA8394667
:101B800012F09AF908A80CA912F02EFA614912F085
:101B900035FA01465B4812F05DF80CA812F0DEF849
:101BA00008A812F0DBF84CE010A85C4912F022F90A
:101BB00014A8394612F080F910A814A912F014FAEA
:101BC000544912F01BFA01464E4812F043F814A88B
:101BD00012F0C4F810A812F0C1F832E018A8504969
:101BE00012F008F91CA8394612F066F918A81CA9C9
:101BF00012F0FAF9474912F001FA0146414812F091
:101C000029F81CA812F0AAF818A812F0A7F818E0F2
:101C100020A8444912F0EEF824A8394612F04CF9F5
:101C200020A824A912F0E0F93A4912F0E7F9014698
:101C3000344812F00FF824A812F090F820A812F0FF
:101C40008DF828A8384912F0D5F82CA831460A2278
:101C500012F046F928A82CA912F0C6F9334912F05F
:101C6000CDF90146274811F0F5FF2CA812F076F8BF
:101C700028A812F073F8002E3DD00024DFF89480DD
:101C8000204FDFF8AC90295D0F291AD830A84946BB
:101C900012F0B0F834A8295D102212F021F930A812
:101CA00034A912F0A1F9414612F0A8F901463846CC
:101CB00011F0D0FF34A812F051F830A812F04EF80D
:101CC00015E03CA8102212F00BF938A83CA912F03C
:101CD000CDF838A8414612F091F90146384611F086
:101CE000B9FF38A812F03AF83CA812F037F80134DE
:101CF000E4B2A642C7D8034811F0D2FF41B0BDE814
:101D0000F08300BF502D002060D7010064D7010090
:101D100068D70100A8D8010070D7010078D701006A
:101D200080D7010088D7010094D7010098D701001F
:101D3000DCDE010038B5054D2C1F103554F8040FBA
:101D400003681B689847AC42F8D138BD8489FF1FEF
:101D500038B505460C4610F0BDF9844203D028463C
:101D6000214610F0CBF938BD054B1968054A1368B8
:101D70005B1A052BFBD9034B1A68014B1A6070479D
:101D800028280020F02B0020034B1968034A136811
:101D90005B1A052BFBD9704728280020F02B002068
:101DA00030B583B00546FFF7EFFF194C20465021B0
:101DB0000EF098FD23681B682046C5F3072198475D
:101DC00023681B682046E9B298472169627B002599
:101DD0000095204601230FF05FF82069617B012305
:101DE0000093019550220FF06BF82369D3F8382146
:101DF000D3F834319A4207D020462368DB689847ED
:101E000020EAE070C0B200E0FF2003B030BD00BFA8
:101E10004C2B002070B582B006460D46FFF7C0FF80
:101E2000A8421ED0FFF7A0FF0F4C204650210EF015
:101E300059FD23681B682046C6F30721984723688D
:101E40001B682046F1B2984723681B682046294644
:101E500098472169627B00230093204601230FF0FD
:101E60001BF802B070BD00BF4C2B002000F10A022D
:101E700010F8013B01F8013B9042F9D1704700BFD7
:101E800070B582B00C4610F4004F09D0C0F30E00BC
:101E900000EB8000224B03EB4000FFF7E7FF3CE044
:101EA000204BA3FB00235B085E1C03EB4303C01A1B
:101EB00000EB8000400000EB4616B6B2FFF764FF6F
:101EC000194D284650210EF00DFD2B681B68284641
:101ED000310A98472B681B68284606F0FE01984790
:101EE00029696A7B00260096284601230EF0D4FF5C
:101EF0002869697B01230093019650220A230EF082
:101F0000DFFF04F10A062B68DB682846984720EAC1
:101F1000E07004F8010BB442F5D102B070BD00BF0F
:101F20006C210200ABAAAAAA4C2B00202DE9F0419B
:101F300086B080460F4640F6B633984246D803A98D
:101F4000FFF79EFF7C1E03AB00220DF1160114F873
:101F5000016F13F8015BAE4218BF01228B42F6D12C
:101F6000002A33D01B4BA3FB08235B085D1C03EB4B
:101F70004303C3EB080808EB88084FEA480808EB5E
:101F80004515ADB2FFF7F0FE134C204650210EF080
:101F9000A9FC23681B682046290A984723681B6808
:101FA000204605F0FE01984707F10A0523681B68E3
:101FB000204617F8011B9847AF42F7D10648016940
:101FC000427B0023009301230EF066FF06B0BDE8BC
:101FD000F08100BFABAAAAAA4C2B002010B5044682
:101FE0000020210AFFF716FF0120E1B2FFF712FFE0
:101FF00010BD00BF10B54FF448540B4800212246D5
:1020000013F0B2FF0948002141F26E7213F0ACFFE9
:10201000074800214FF4CB7213F0A6FF05480021BA
:10202000224613F0A1FF10BD20B7FF1F7898FF1FB5
:1020300088B0FF1F94EAFF1F2DE9F04184B0002013
:10204000FFF7AEFE04460120FFF7AAFE00EB0420D6
:1020500084B24A4B1C800022494B1A701D46494EDF
:10206000494F37E0204601A9FFF70AFF9DF80430E9
:102070002A789A429CBF5A1C2A709DF8052012F0BB
:10208000800F14D0803A03EB830101EB81011144EE
:102090003E4830F8111009B127F8141003EB830300
:1020A00003EB83031A44394921F8124010E003EB93
:1020B000830101EB8101114436F8111009B127F8B1
:1020C000141003EB830303EB83031A4426F8124036
:1020D000013CA4B24FF6FF739C42C3D1CA232C4CDF
:1020E000284D2C4FDFF8A4C04FF6FF7603EB830298
:1020F00004EB4202517811F0800F1CD003EB8302F5
:1021000014F81220803902EB820000EB80000844B2
:102110003CF8100008B127F81300C82A26D902EBB2
:10212000820202EB820211446FEA43406FEA5040A0
:102130002CF811001AE003EB830214F8122002EBD2
:10214000820000EB8000084435F8100008B127F841
:102150001300C82A0AD902EB820202EB8202114460
:102160006FEA43406FEA504025F81100013B9BB2F3
:10217000B342BBD104B0BDE8F08100BF76EAFF1FD7
:102180001528002020B7FF1F7898FF1F94EAFF1F33
:102190006C21020088B0FF1F70B586B0294B1B88E8
:1021A000002B4DD000242546264E20466946FFF7D9
:1021B00067FE9DF8003043B99DF801302BB99DF8BA
:1021C000023013B90135ADB205E025B1601B80B214
:1021D0006946FFF7ABFE0134A4B23388A342E4D8CA
:1021E00075B300228DF80C208DF80D208DF80E208F
:1021F0008DF80F208DF810208DF811208DF8122009
:102200008DF813208DF814208DF815205B1B9CB2DF
:102210000C4B1B889C4209D20A4E204603A9FFF7AB
:1022200085FE0134A4B23388A342F6D85B1B98B272
:10223000044B1880FFF7D2FEFFF7DCFEFFF7FCFE31
:1022400006B070BD76EAFF1F0F4B1B78834214D98E
:1022500000EB800000EB800001440C4B33F81130A0
:102260006BB10B4A32F813305BB101200130C0B2C0
:1022700032F81330002BF9D170470020704700204E
:1022800070470120704700BF1528002020B7FF1FAE
:102290007898FF1F10B5044C2088013080B2208050
:1022A000FFF79CFE208810BD76EAFF1F10F4004F58
:1022B0001ABFA0F50040024B024B33F810007047E4
:1022C00088B0FF1F7898FF1F70B500EB800000EB0F
:1022D00080000844224C34F810401CB9204830F8E3
:1022E000115000E0254615F4004F02D1FAB92C46F2
:1022F0002AE072B100201B49A5F5004531F81550C0
:10230000002D18BF2C460130C5B2AA4202D925467D
:10231000F2E72C4620461946FFF7B2FDA4F500442B
:10232000104B33F81400003018BF012070BD00209E
:102330000D4E36F81550002D18BF2C460130C5B291
:10234000AA4201D92546F4E720461946FFF798FD31
:10235000054B33F81400003018BF012070BD00BFDA
:1023600020B7FF1F88B0FF1F7898FF1F70B586B099
:102370000546C8282AD800238DF80C308DF80D307A
:102380008DF80E308DF80F308DF810308DF811303B
:102390008DF812308DF813308DF814308DF815301B
:1023A0000B4B1B8893B10024094E20466946FFF76A
:1023B00067FD9DF80030AB4203D1204603A9FFF72B
:1023C000B5FD0134A4B23388A342EED806B070BD87
:1023D00076EAFF1FF0B587B005460F46C8282ED80D
:1023E00000238DF80C308DF80D308DF80E308DF8FF
:1023F0000F308DF810308DF811308DF812308DF8C7
:1024000013308DF814308DF815300E4B1B88B3B196
:1024100000240C4E20466946FFF732FD9DF800303F
:10242000AB4207D19DF80130BB4203D1204603A93E
:10243000FFF77CFD0134A4B23388A342EAD807B089
:10244000F0BD00BF76EAFF1F30B585B0144600EB43
:10245000800000EB80000144384B33F81150002D10
:1024600066D0284601A9FFF70BFD20469DF806100F
:1024700011F05EFD20469DF8071011F091FD2046F9
:102480009DF8081011F08CFD20469DF8091011F000
:1024900087FD20469DF80A1011F082FD20469DF828
:1024A0000B1011F07DFD20469DF80C1011F078FD09
:1024B00020469DF80D1011F073FD15F4004F1ABF62
:1024C000A5F500451E4B1F4B33F8150058B301A965
:1024D000FFF7D6FC20469DF8061011F061FD20465E
:1024E0009DF8071011F05CFD20469DF8081011F0D2
:1024F00057FD20469DF8091011F052FD20469DF829
:102500000A1011F04DFD20469DF80B1011F048FD0A
:1025100020469DF80C1011F043FD20469DF80D104B
:1025200011F03EFD08E02046074911F02BFD03E0C5
:102530001046064911F0AEFC05B030BD94EAFF1F0D
:1025400088B0FF1F7898FF1FB0D60100A8D6010001
:1025500008B50B4B587C0B4B187000210A4B1970B7
:102560000A4AFFF771FF0123094A13700821094A3B
:1025700011700221084A1170084A137008BD00BF8B
:10258000A088FF1FE8AFFF1F60280020C8B2FF1F10
:10259000C2B2FF1F5BB0FF1F5AB0FF1F25E9FF1F2C
:1025A00008B50B4B587C0B4A1070D97C0A4B19703C
:1025B0000A4AFFF749FF0123094A13700821094A13
:1025C00011700221084A1170084A137008BD00BF3B
:1025D000A088FF1FE8AFFF1F60280020C8B2FF1FC0
:1025E000C2B2FF1F5BB0FF1F5AB0FF1F25E9FF1FDC
:1025F00070B584B005460E461446C82800F2928095
:102600008DF8040061F07F038DF80530104600213D
:1026100011F00EFD03788DF806302046012111F0EF
:1026200007FD03788DF807302046022111F000FDE8
:1026300003788DF808302046032111F0F9FC037867
:102640008DF809302046042111F0F2FC03788DF852
:102650000A302046052111F0EBFC03788DF80B3091
:102660002046062111F0E4FC03788DF80C3020465A
:10267000072111F0DDFC03788DF80D3005EB8505A1
:1026800005EB85052E44284B33F8165015B9FFF796
:1026900001FE0546284601A9FFF748FCA368082B60
:1026A00040D92046082111F0C3FC03788DF806308C
:1026B0002046092111F0BCFC03788DF80730204634
:1026C0000A2111F0B5FC03788DF8083020460B2163
:1026D00011F0AEFC03788DF8093020460C2111F082
:1026E000A7FC03788DF80A3020460D2111F0A0FCDC
:1026F00003788DF80B3020460E2111F099FC0378F9
:102700008DF80C3020460F2111F092FC03788DF8E3
:102710000D30064B33F8150008B9FFF7BBFD01A9D2
:10272000FFF704FC04B070BD94EAFF1F7898FF1F08
:10273000F0B58DB004460D4616461F46C8284BD846
:10274000264B1B78834223D8421C244B1A7004A8C2
:10275000234911F04FFB08A8214611F0ADFB04A856
:1027600008A911F041FC1F4911F048FC01466846D8
:1027700011F07CFB204600216A46FFF739FF6846CE
:1027800011F0ECFA08A811F0E9FA04A811F0E6FA41
:1027900020462946FFF758FDB04209D8FFF77AFDD9
:1027A0003946FFF7C3FBFFF725FCFFF745FC13E0B5
:1027B00004EB840404EB840425440B4B33F815002C
:1027C0003EB10024094A32F810000134E5B2AE42AD
:1027D000F9D83946FFF7AAFB0DB0F0BD1528002047
:1027E000A4D70100ACD7010020B7FF1F7898FF1FC6
:1027F00010B584B0234B587CD97C5A7D8DF80400E9
:102800008DF805105B78042B06D88DF807301D4C29
:10281000E47864348DF80640052B08D1FE238DF84A
:102820000730184BDB7864338DF8063008E0062B50
:1028300006D1FF238DF80730124BDB788DF8063078
:10284000104B5C798DF80840DC798DF809405C7A92
:102850008DF80A40DC7A8DF80B405C7B8DF80C40DB
:10286000DB7B8DF80D3001ABFFF762FF0522064BD5
:102870001A700222054B1A700122054B1A7004B01F
:1028800010BD00BFA088FF1F5BB0FF1F5AB0FF1F25
:1028900025E9FF1F30B585B0114B1D78114B1C7811
:1028A0006846114911F0E2FA284621466A46FFF7C8
:1028B0009FFE684611F052FAFFF79CFBFFF7BCFB46
:1028C00000230A4A13700A4A13700522094B1A7032
:1028D0000222094B1A700122084B1A7005B030BD54
:1028E000E8AFFF1F60280020C8B2FF1FC2B2FF1F61
:1028F00090EAFF1F5BB0FF1F5AB0FF1F25E9FF1FC3
:1029000010B584B0C82828D800238DF804308DF87D
:1029100005308DF806308DF807308DF808308DF8C9
:1029200009308DF80A308DF80B308DF80C308DF8A9
:102930000D3000EB800000EB80000144084B33F8C1
:10294000114054B1204601A9FFF7F0FA054B33F8C6
:10295000140010B101A9FFF7E9FA04B010BD00BFDF
:1029600094EAFF1F7898FF1FF8B504460F461646F5
:102970001D460EF071FE144B2360E7720021617456
:10298000A174A172012101FA06F6A67301FA05F5F8
:1029900025749DF8183001FA03F3E3739DF81C3099
:1029A00001FA03F3E3749DF8203001FA03F3237571
:1029B0009DF8243001FA03F363759DF8283099409F
:1029C000A1752046F8BD00BF60B3010070B5044694
:1029D0000E4615460EF040FE074B2360002363753C
:1029E000A375E3752376E67225731022A2736573CF
:1029F000E373204670BD00BF70D4010070B582B093
:102A00000E4615460C4CC17A20460DF06BFF23682C
:102A10001B6820463146984723681B682046294694
:102A200098472169627B00230093204601230EF022
:102A300033FA02B070BD00BF4C2B0020F0B583B05C
:102A40000F4616461D460F4CC17A20460DF04AFF30
:102A500023681B6820463946984723681B68204630
:102A60003146984723681B682046294698472169C4
:102A7000627B00230093204601230EF00DFA03B081
:102A8000F0BD00BF4C2B002038B504460B46154660
:102A9000012A08BF857B427B12212A43FFF7CEFF24
:102AA000627B2046122125EA0202FFF7A7FF38BD0C
:102AB00070B582B006460D460F4C2046F17A0DF0F7
:102AC00011FF23681B682046294698472169627BCD
:102AD00000250095204601230EF0DEF92069617B78
:102AE000F27A0123009301950EF0EAF920690EF0C5
:102AF00005FAC0B202B070BD4C2B002030B583B0D7
:102B000004461D4B1869597BE27A01230093002586
:102B100001950EF0D5F9C0B201282AD120462946E8
:102B20000F222B46FFF78AFF20460A216022134618
:102B3000FFF784FF20460C210F222B46FFF77EFF74
:102B4000204602210F222B46FFF778FF2046042162
:102B50000F222B46FFF772FF20461021FFF7A8FF38
:102B600020461221E27BFFF749FF10236371012009
:102B700000E0002003B030BD4C2B002010B504460F
:102B8000037DC37431B11021FFF792FF00F00F00F5
:102B9000207405E01221FFF78BFF00F00F00207476
:102BA000227E237CA1184B750132D2B2022A88BF43
:102BB00000222276627D9A4214BF00220122A17D6A
:102BC000994218BF0022E17D994201D102B12375DB
:102BD000E07C237D5840A074003018BF012010BD58
:102BE0002DE9F041BCB07248724911F053F914AEAE
:102BF0006C4600252046294611F0FCF81034B442FA
:102C0000F8D16D4C04F114060025694FDFF8C0813E
:102C100054F8040B90F84730DBB103681B6B9847FE
:102C200014A8394611F022F914A8414611F0E6F92A
:102C30000146384611F010F914A811F08FF854F835
:102C4000041C00AB03EB0510283111F005F9013528
:102C5000EDB2B442DCD15648017A013911F032FAB2
:102C6000564B1B78013BDBB2042B0CD85048514922
:102C700011F010F9514B1A78013A4F4B53F82200DA
:102C800003681B6B9847032D6DD8DFE805F002073A
:102C90000C334B484B4911F0FDF882E04848694637
:102CA00011F0DAF87DE01CA869460022072311F034
:102CB000E5F918A81CA911F0D9F818A8424911F093
:102CC0009DF9044620A804A90022072311F0D6F993
:102CD000204620A911F088F90146394811F0BCF8C6
:102CE00020A811F03BF818A811F038F81CA811F032
:102CF00035F856E028A869460022042311F0BEF9F1
:102D000024A828A911F0B2F82F4C24A8214611F0CC
:102D100075F905462CA804A90022042311F0AEF988
:102D200028462CA911F060F9214611F067F90446F4
:102D300030A808A90022042311F0A0F9204630A9E8
:102D400011F052F901461E4811F086F830A811F032
:102D500005F82CA811F002F824A810F0FFFF28A80D
:102D600010F0FCFF1DE038A8294611F0A5F834A8A2
:102D700038A911F07BF834A8144911F03FF9014645
:102D80000F4811F069F834A810F0E8FF38A810F0E7
:102D9000E5FF06E0204610F0E1FF103CAC42F9D11F
:102DA00003E010ACADF11005F4E73CB0BDE8F081F4
:102DB000EC1D0020B8D601008489FF1F91EAFF1F97
:102DC000ACE9FF1FA8D60100DCD90100BCD7010087
:102DD000B8D701002DE9F04184B03E480EF05AFC0E
:102DE00068463D4911F042F8FFF7FAFE3B4BD3F835
:102DF000088018F0FF0610D000241F4668462146C0
:102E000011F016F905463846214611F011F90378FC
:102E10002B700134E3B29E42F0D8314B1B78042B67
:102E200024D8304C304A52F823102046053111F096
:102E300031F8A768FEB2C6F110065FFA88F8B0450F
:102E400014DA17F0FF0711D00024DFF898806846E5
:102E5000A11911F0EDF805464046214611F0E8F8B9
:102E600003782B700134E3B2BB42F0D3194C2046F7
:102E7000694610F0EFFE2046002101220EF014FCFE
:102E80001A4B9B7E012B0FD013B1022B18D01BE0E5
:102E9000174C184B187800212246FFF7D5FA0D4839
:102EA000214610F0D7FE0FE00D4B1B78042B0BD8FA
:102EB0000D4A52F823100748283110F0CBFE03E0EA
:102EC00004480D4910F0C6FE684610F047FF04B0F4
:102ED000BDE8F08178EAFF1F242B0020EC1D0020C4
:102EE000A8E9FF1F682800208489FF1FF4B5FF1F91
:102EF0005CB0FF1FA889FF1FACE9FF1F30B589B088
:102F00000546144C2046002101220EF0CDFB6846F8
:102F1000294610F0ABFFAB6804A80F490022C3F1AB
:102F2000100311F0ABF8684604A911F05DF80146F2
:102F3000204610F08FFE04A810F010FF684610F035
:102F40000DFF064B1A68064B1A600122054B1A70DA
:102F500009B030BD78EAFF1F242B0020F02B0020A1
:102F600080B0FF1F342B002000B589B0184B587C6F
:102F7000D97C5A7D00238DF804308DF805308DF80A
:102F800006308DF807308DF808308DF809308DF84F
:102F90000A308DF80B308DF80C308DF80D3001AB08
:102FA000FFF7C6FBFFF7F8F804A80A4910F022FF64
:102FB00004A8FFF7A3FF04A810F0D0FE0222064BDE
:102FC0001A700122054B1A7009B05DF804FB00BFAE
:102FD000A088FF1FCCD701005AB0FF1F25E9FF1FB3
:102FE00000B585B00C4B587CD97CFFF789FCFFF706
:102FF000D3F86846094910F0FDFE6846FFF77EFFEA
:10300000684610F0ABFE0222054B1A700122054BF8
:103010001A7005B05DF804FBA088FF1FE0D701001F
:103020005AB0FF1F25E9FF1FF0B591B007460D46C6
:10303000384C204600210A460EF036FB68463946D9
:1030400010F014FF344EBB6804A831460022C3F1CF
:10305000100311F013F8684604A910F0C5FF0146EB
:10306000204610F0F7FD04A810F078FE684610F036
:1030700075FE2046002101220EF016FB08A8294605
:1030800010F0F4FEAB680CA831460022C3F1100327
:1030900010F0F4FF08A80CA910F0A6FF0146204686
:1030A00010F0D8FD0CA810F059FE08A810F056FE3C
:1030B0001A4D05F1FC04204600210A460EF0F4FAF0
:1030C0002046314610F0C6FD2046002101220EF0B8
:1030D000EBFAD5F8FC305B6820461149102298477E
:1030E00005F58C74204600210A460EF0DDFA2046D4
:1030F000314610F0AFFD2046002101220EF0D4FA37
:10310000D5F818315B68204606491022984711B05F
:10311000F0BD00BF78EAFF1F242B00209C1C00207C
:10312000F4D7010008D8010030B595B0264C2046F0
:103130000EF0B0FA23685B682046244910229847B5
:1031400004A8234910F056FE08A803210A2210F013
:10315000C7FE04A808A910F047FF1E4C214610F036
:103160004DFF05460CA800210A2210F0B9FE2846A2
:103170000CA910F039FF214610F040FF044610A8BA
:1031800002210A2210F0ACFE204610A910F02CFFFC
:10319000114910F033FF0146684610F067FE68469B
:1031A000FFF7ACFE684610F0D9FD10A810F0D6FD70
:1031B0000CA810F0D3FD08A810F0D0FD04A810F062
:1031C000CDFD15B030BD00BF78EAFF1F1CD801004F
:1031D00030D80100E8DD0100DCD9010000B585B080
:1031E0004FF448700FF04CFA6846064910F002FEA2
:1031F0006846FFF783FE684610F0B0FD05B05DF845
:1032000004FB00BF3CD801002DE9F041C40800F0E8
:10321000070000EB40004FEA40084FEAD8081A4880
:1032200000210A460EF040FA5CB10025164E042734
:1032300033681B683046394698470135EBB2A342E4
:10324000F6D3B8F1000F07D00F48036808F1FF313B
:103250001B68C9B2984705E00B4803685B680B49D7
:103260000122984701340F2C0CD8074D074F012637
:103270002B685B6828463946324698470134E4B2E9
:10328000102CF5D1BDE8F08178EAFF1FA8D8010025
:103290002DE9F04391B00D46042900F29781441CBA
:1032A00004EBC402974B03EBC2035B7A022B4CD0B6
:1032B00003D85BB3012B0AD03AE1062B00F0B880AB
:1032C000FF2B00F0AA80032B40F0328171E08E4E7C
:1032D000C0EBC0008400371933595B6838468B490E
:1032E000032298478A4B53F825500535284613F09A
:1032F000E7F8024633595B68384629469847335900
:103300005B6838468349032298475FE17E4EC0EBF5
:10331000C0008400371933595B6838467E49032260
:1033200098477B4B53F825500535284613F0C8F8CD
:10333000024633595B6838462946984733595B68DB
:10334000384676490322984740E1DFF8BC81C0EB5C
:10335000C000870008EB07066D4B53F82150053578
:10336000284613F0ADF8024658F807305B6830463F
:103370002946984758F807305B683046684902226A
:10338000984704EBC4045F4B03EBC4046846A1797F
:1033900010F092FD3046694610F05CFC684610F073
:1033A000DDFC58F807305B6830465E4903229847D9
:1033B0000CE1DFF85481C0EBC000870008EB070682
:1033C000534B53F821500535284613F079F802463F
:1033D00058F807305B6830462946984758F8073058
:1033E0005B6830464E490222984704EBC404454BC3
:1033F00003EBC40404A8A17910F05EFD304604A9D3
:1034000010F028FC04A810F0A9FC58F807305B68FD
:103410003046454903229847D8E03B4BC0EBC000FB
:1034200080001A585468184440490C22A047CDE047
:1034300004EBC404334B03EBC404E37A002B30D019
:10344000314EC0EBC0008400371933591B68384631
:103450002021984733591B68384601219847335932
:103460001B68384620219847294B53F825500535CD
:10347000284613F025F8024633595B68384629463A
:10348000984733591B6838462021984733591B68A1
:1034900038460121984733591B6838462021984700
:1034A00094E0194EC0EBC0008400371933591B68F3
:1034B00038462021984733591B68384602219847DF
:1034C00033591B68384620219847114B53F8255033
:1034D0000535284612F0F4FF024633595B6838463A
:1034E0002946984733591B68384620219847335955
:1034F0001B6838460221984733591B6838462021FB
:10350000984763E00C2100209C1C002050D801004B
:103510008489FF1F54D8010058D801005CD80100ED
:1035200060D8010064D8010068D801006CD801009F
:10353000DFF8B480C0EBC000870008EB0706254B1E
:1035400053F825500535284612F0BAFF024658F8C0
:1035500007305B6830462946984758F807305B6863
:1035600030461D49022298471C4D4FEAC40909EB19
:10357000040305EBC30393F83E1008A801310A22A7
:1035800010F0AEFC304608A910F064FB08A810F05B
:10359000E5FB58F807305B6830461149012298472F
:1035A0004C4405EBC4050CA8A98F0A2210F098FC26
:1035B00030460CA910F04EFB0CA810F0CFFB58F8C9
:1035C00007305B68304607490122984711B0BDE8D3
:1035D000F08300BF8489FF1F60D801000C21002008
:1035E0007CD8010080D801009C1C00200749C20043
:1035F000131801EBC3031C332C31024401EBC2014D
:10360000202203F8012F8B42FBD170470C210020B0
:103610002DE9F04180460E460D7A102D28BF102569
:1036200035B908EBC808114B03EBC801202214E0A0
:1036300000EBC0070D4B03EBC707002430462146C3
:1036400010F0F6FC02783B191A730134E3B29D4284
:10365000F4D80F2DE5D9BDE8F0814B195A77013523
:10366000EDB20F2DF9D9BDE8F08100BF0C2100208B
:103670002DE9F04180460E460D7A102D28BF102509
:1036800035B908EBC808114B03EBC801202214E040
:1036900000EBC0070D4B03EBC70700243046214663
:1036A00010F0C6FC02783B195A770134E3B29D4210
:1036B000F4D80F2DE5D9BDE8F0814B195A770135C3
:1036C000EDB20F2DF9D9BDE8F08100BF0C2100202B
:1036D000F0B58DB00C4690F85F308B4210D901F1F7
:1036E000300330F8133013F0010F264B1B7803EB37
:1036F000C303254A02EBC30314BF012202229A71BD
:1037000004F1300330F813506D1004A81F4910F075
:1037100071FB08A8611C0A2210F0E2FB04A808A9AA
:1037200010F062FC1A4910F069FCECB2194DE60089
:10373000311905EB410110F061FC174910F054FC00
:103740000146684610F092FB08A810F007FB04A899
:1037500010F004FB0B4F38786946FFF789FF3B7880
:1037600003EBC303084A02EBC303344405EB4405EF
:103770006A7C83F82E20684610F0F0FA01200DB024
:10378000F0BD00BFE688FF1F0C21002088D6010095
:1037900024DC010010B40100242B0020F0B58DB012
:1037A0000C4690F85F308B4210D901F1300330F8AD
:1037B000133013F0010F264B1B7803EBC303254A8C
:1037C00002EBC30314BF012202229A7104F13003F9
:1037D00030F813506D1004A81F4910F00BFB08A817
:1037E000611C0A2210F07CFB04A808A910F0FCFB65
:1037F0001A4910F003FCECB2194DA600311905EB83
:103800008101023110F0FAFB164910F0EDFB014680
:10381000684610F02BFB08A810F0A0FA04A810F0DE
:103820009DFA0B4F38786946FFF722FF3B7803EB90
:10383000C303084A02EBC303344405EB8405EA7C66
:1038400083F82E20684610F089FA01200DB0F0BDF3
:10385000E688FF1F0C21002088D6010024DC01002F
:103860003CF50100242B00202DE9F041054600EB3A
:10387000C007254B03EBC7070C37384612F020FE74
:103880000138C4B20F2C28BF0F24A4B105EBC50327
:103890001D4A02EBC30323441B7B202B0BD105EBFA
:1038A000C50602EBC602013C14F0FF0403D0131955
:1038B0001B7B202BF7D02DB3DFF85480013DEEB2F7
:1038C000C6EBC606B60008EB0605284600210A46E8
:1038D0000DF0EAFE28460D4910F0BCF9C4F10F04C2
:1038E00004EBD4712846C1F3470100220DF0DCFE41
:1038F000384612F0E5FD024658F806305B68284667
:1039000039469847BDE8F0810C210020242B002087
:103910009C1C00202DE9F041054600EBC007254B1B
:1039200003EBC7071D37384612F0CAFD0138C4B291
:103930000F2C28BF0F24A4B105EBC5031D4A02EBD1
:10394000C30323445B7F202B0BD105EBC50602EBA1
:10395000C602013C14F0FF0403D013195B7F202B37
:10396000F7D02DB3DFF85480013DEEB2C6EBC606AA
:10397000B60008EB06052846002101220DF094FE52
:1039800028460D4910F066F9C4F10F0404EBD47118
:103990002846C1F3470101220DF086FE384612F099
:1039A0008FFD024658F806305B682846394698472E
:1039B000BDE8F0810C210020242B00209C1C00205D
:1039C0002DE9F04F8BB00446461EF6B20B2E00F2E6
:1039D000A586A14B1B7803EB830303EB830303440E
:1039E0009E4A32F8133083B102A8002110F002FA87
:1039F000994B1878214602AAFEF726FD204602A917
:103A0000FFF736FE02A810F0A9F904EBC402944BAC
:103A100013F83250FE2D04BF924B1D78042D00F296
:103A2000388404EBC4038E4A02EBC3035B78643B27
:103A3000112B00F20C84DFE813F012001F026F025A
:103A4000120076012701C0007100D30368036803E8
:103A5000680368030A04C5011F0276012701824B2F
:103A600003EB061A5046814910F014FA804B53F8C4
:103A70002500036804EBC402794901EBC2025B6BC9
:103A8000118E52469847DFF8FC91C6EBC6084FEA04
:103A9000880809EB0807384600210A460DF004FEA5
:103AA00059F808301B6838460021984759F8083003
:103AB0001B6838460021984759F808301B6838467B
:103AC0000021984759F808305B68384669490A224E
:103AD000984759F808301B6838460021984759F82C
:103AE00008301B6838460021984759F808301B6891
:103AF000384600219847DAF80830591C4908C1F1C6
:103B000008013846C9B200220DF0CEFD38465146B4
:103B100010F0A0F82046FFF7FDFEBAE3524B03EB8E
:103B2000061A5046514910F0B5F9514B53F825008B
:103B3000036804EBC4024A4901EBC2025B6B118EBD
:103B400052469847DFF83C91C6EBC6084FEA880812
:103B500009EB0807384600210A460DF0A5FD59F883
:103B600008301B6838460021984759F808301B6810
:103B700038460021984759F808305B6838463E4976
:103B8000072298473846514610F064F859F8083033
:103B90005B68384639490222984759F808301B6853
:103BA00038460021984759F808301B6838460021EC
:103BB00098472046FFF7AEFE6BE32B4B03EB061A4C
:103BC00050462A4910F066F9294B53F8250003683E
:103BD00004EBC402224901EBC2025B6B118E524618
:103BE0009847DFF8A090C6EBC6084FEA880809EBB3
:103BF0000807384600210A460DF056FD59F80830EE
:103C00001B6838460021984759F808301B68384629
:103C10000021984759F808305B6838461849072250
:103C200098473846514610F015F859F808305B6847
:103C3000384612490222984759F808301B6838461E
:103C40000021984759F808301B68384600219847EA
:103C50002046FFF75FFE1CE3A889FF1F94EAFF1FC1
:103C60000C210020A8E9FF1FDCB2FF1FB8D601001D
:103C70008489FF1FD4D9010084D801008CD80100A9
:103C800090D801009C1C0020DFF88492C6EBC60887
:103C90004FEA880809EB0807384600210A460DF06C
:103CA00003FD59F808301B6838460021984759F839
:103CB00008301B6838460021984759F808305B687F
:103CC00038468A490B22984759F808301B6838460D
:103CD0000021984759F808301B683846002198475A
:103CE0003846002101220DF0DFFC59F808305B68EE
:103CF00038467F49052298477E4B53F8253003F11B
:103D0000050A504612F0DCFB024659F808305B68A1
:103D100038465146984759F808305B683846764926
:103D200006229847B5E2DFF8E891C6EBC6084FEAED
:103D3000880809EB0807384600210A460DF0B4FC54
:103D400059F808301B6838460021984759F8083060
:103D50001B6838460021984759F808305B68384698
:103D600066490B22984759F808301B6838460021ED
:103D7000984759F808301B6838460021984738465C
:103D8000002101220DF090FC59F808305B6838469C
:103D9000574905229847574B53F8253003F1050A38
:103DA000504612F08DFB024659F808305B683846E1
:103DB0005146984759F808305B6838464E49062204
:103DC000984766E24E4B03EB061A50464D4910F0F9
:103DD00061F8484B53F82500036804EBC4024A49D4
:103DE00001EBC2029B6B118E52469847DFF820917F
:103DF000C6EBC6084FEA880809EB080738460021D9
:103E00000A460DF051FC59F808301B68384600216D
:103E1000984759F808301B6838460021984759F8E8
:103E20000830DFF8F0B05B683846594604229847FE
:103E3000384651460FF00EFF59F808305B68384697
:103E400059460422984759F808301B683846002123
:103E5000984759F808301B6838460021984738467B
:103E6000002101220DF020FC59F808305B6838462B
:103E70002649102298470CE2DFF89490C6EBC6085A
:103E80004FEA880809EB0807384600210A460DF07A
:103E90000BFC59F808301B6838460021984759F840
:103EA00008301B6838460021984759F808301B68CD
:103EB00038460021984730462946FFF7E9F959F876
:103EC00008301B6838460021984759F808301B68AD
:103ED00038460021984759F808301B6838460021B9
:103EE00098472046FFF716FDD3E100BF98D80100A0
:103EF000A4D801008489FF1FD8D90100ACD80100E3
:103F0000DCB2FF1FB8D601000C210020A8D60100AA
:103F10009C1C0020B4D6010004EBC403994A02EBB8
:103F2000C30393F83830102B5AD8DFF8AC92C6EBA5
:103F3000C6084FEA880809EB0807384600210A46F8
:103F40000DF0B2FB59F808301B683846002198473D
:103F500059F808301B6838460021984759F808304E
:103F60005B683846884901229847884B53F82530CA
:103F700003F1050A504612F0A3FA024659F8083038
:103F80005B6838465146984759F808305B683846B0
:103F90007F490522984704EBC4037A4A02EBC30326
:103FA00006A893F838100FF087FF384606A90FF0DF
:103FB00051FE06A80FF0D2FE59F808305B6838466B
:103FC00074490122984759F808301B683846002187
:103FD000984759F808301B6838460021984790E008
:103FE000DFF8F491C6EBC6084FEA880809EB08072A
:103FF000384600210A460DF057FB59F808301B6877
:1040000038460021984759F808301B683846002187
:10401000984704EBC4035B4A02EBC30393F83820D0
:10402000182A04D838465C49103A0FF04FFE04EBCA
:10403000C403544A02EBC30393F83830193B0E2BE8
:1040400053D8DFE803F0080D12171C21262B30355A
:104050003A3F44494E0038465049FDF70DFD44E0D3
:1040600038464F49FDF708FD3FE038464D49FDF71A
:1040700003FD3AE038464C49FDF7FEFC35E0384692
:104080004A49FDF7F9FC30E038464949FDF7F4FCB0
:104090002BE038464749FDF7EFFC26E03846464915
:1040A000FDF7EAFC21E038464449FDF7E5FC1CE059
:1040B00038464349FDF7E0FC17E038464149FDF733
:1040C000DBFC12E038464049FDF7D6FC0DE03846EF
:1040D0003E49FDF7D1FC08E038463D49FDF7CCFCF0
:1040E00003E038463B49FDF7C7FC59F808301B6828
:1040F00038460021984759F808301B683846002197
:1041000098472046FFF706FCC3E0DFF8CC90C6EBEB
:10411000C6084FEA880809EB0807384600210A4616
:104120000DF0C2FA59F808301B683846002198474C
:1041300059F80830DFF8A4A05B68384651460522DC
:104140009847124B53F8253003F1050B584612F0EF
:10415000B7F9024659F808305B683846594698471F
:1041600059F808305B68384651460522984759F897
:1041700008301B683846002198472046FFF7CAFBE5
:1041800087E000BF0C210020B8D801008489FF1F00
:10419000BCD80100C4D80100C8D80100D8D801009B
:1041A000E8D80100F8D8010008D9010018D90100A9
:1041B00028D9010038D9010048D9010058D9010097
:1041C00068D9010078D9010088D9010098D9010087
:1041D000A8D90100B8D901009C1C0020A4D8010076
:1041E000DFF8A092C6EBC6084FEA880809EB08077B
:1041F000384600210A460DF057FA59F808301B6876
:1042000038460021984759F808305B683846994984
:1042100007229847984B53F8253003F1050A50467A
:1042200012F04EF9024659F808305B68384651469C
:10423000984759F808305B683846904903229847F8
:1042400059F808301B6838460021984721E0DFF80C
:104250003492C6EBC6084FEA880809EB08073846CF
:1042600000210A460DF020FA59F80830DFF820A2A4
:104270005B68384651461022984738460021012293
:104280000DF012FA59F808305B6838465146102292
:104290009847FF2D40F0428204EBC403784A02EBBA
:1042A000C3035B78013B0A2B00F22082DFE813F0A6
:1042B0001200A600C40056007C003000FE0034014D
:1042C000F2011E020B002046FFF7CEFA2046FFF750
:1042D00021FB23E26B4FC6EBC606B600BD1928468C
:1042E00000210A460DF0E0F9BB591B682846002161
:1042F0009847BB595B68284663490E229847BB59CB
:104300001B682846002198472046FFF703FB05E27B
:104310005C4FC6EBC606B5007C19204600210A4654
:104320000DF0C2F97B591B682046002198477B5944
:104330005B68204655490E2298477B591B682046EA
:10434000002198472046002101220DF0ADF97B594C
:104350005B6820464E4910229847DFE1494FC6EB83
:10436000C606B5007C19204600210A460DF09CF9CE
:104370007B591B682046002198477B595B68204683
:1043800044490E2298477B591B68204600219847D4
:104390002046002101220DF087F920463E493F4B7F
:1043A0009A790FF093FCB9E1364FC6EBC606B6001A
:1043B000BD19284600210A460DF076F9BB591B6845
:1043C000284600219847BB595B68284634490E228D
:1043D0009847BB591B68284600219847284600216A
:1043E00001220DF061F904EBC404254B03EBC40377
:1043F000284629491A8E0FF069FC8FE1214FC6EB40
:10440000C606B600BD19284600210A460DF04CF933
:10441000BB591B68284600219847BB595B68284652
:1044200020490E229847BB591B682846002198470F
:104430002046FFF76FFA71E1124FC6EBC606B600D1
:10444000BD19284600210A460DF02EF9BB591B68FC
:10445000284600219847BB595B68284612490E221E
:104460009847BB591B682846002198472046FFF70C
:1044700051FA53E1C8D901008489FF1FB4D7010064
:104480000C2100209C1C0020D0D90100E0D90100A3
:10449000A8D60100F0D9010000DA0100F4B5FF1F31
:1044A00014DA010024DA010034DA01009D4FC6EB72
:1044B000C606B600BD19284600210A460DF0F4F8DC
:1044C000BB591B68284600219847BB591B682846E2
:1044D00000219847BB591B6828460021984704EBE8
:1044E000C402914B03EBC203284690491A8E0FF089
:1044F000EDFBBB591B68284600219847BB591B6838
:10450000284600219847BB591B6828460021984738
:104510002046FFF7FFF901E1824FC6EBC606B60061
:10452000BD19284600210A460DF0BEF8BB591B688C
:10453000284600219847BB591B6828460021984708
:10454000BB591B6828460021984704EBC403764AF0
:1045500002EBC3035B7A012B09D804EBC402724B54
:1045600003EBC203284672491A8E0FF0AFFB04EB2F
:10457000C4036D4A02EBC3035B7A023BDBB2012B3F
:1045800009D804EBC402684B03EBC203284669490F
:104590001A8E0FF09BFB04EBC403634A02EBC303C8
:1045A0005B7A052B13D12846022100220DF07CF8FE
:1045B00004EBC4015C4B03EBC1010A8E91F83E3061
:1045C00038318988009128465B490FF07FFB04EB66
:1045D000C403554A02EBC3035B7A062B2ED104EBCE
:1045E000C40302EBC303DB7AA3B1BB591B682846A3
:1045F0000121984704EBC4024B4B03EBC20328464E
:104600004E491A8E0FF062FBBB591B6828460121E8
:10461000984713E0BB591B6828460221984704EBD2
:10462000C402414B03EBC203284644491A8E0FF0E3
:104630004DFBBB591B68284602219847BB591B6894
:10464000284600219847BB591B68284600219847F7
:10465000BB591B6828460021984704EBC403324A23
:1046600002EBC3035B7A062B10D1284600210122FE
:104670000DF01AF804EBC4042B4B03EBC4032846DB
:104680002F4993F83E200FF021FB47E02046FFF72B
:1046900041F943E0234FC6EBC606B600BD192846D4
:1046A00000210A460DF000F8BB591B68284600217E
:1046B0009847BB591B6828460021984704EBC40261
:1046C000194B03EBC20328461E491A8E0FF0FEFA5F
:1046D000BB591B68284600219847BB591B682846D0
:1046E000002198472046FFF715F917E0C6EBC606EC
:1046F0000C4B03EB8604204600210A460CF0D4FF45
:10470000114D204629460FF0A5FA2046002101222E
:104710000CF0CAFF204629460FF09CFA0BB0BDE80A
:10472000F08F00BF9C1C00200C21002044DA010007
:1047300054DA010064DA010074DA010088DA010059
:1047400094DA0100A8DA0100242B002010B50446F9
:104750000B280ED8074B1B5C5BB90748C4EBC4039E
:104760009B00C25812691844012190470122014B55
:104770001A5510BD042900209C1C002038B506489D
:104780000CF07EFF054C04F5A87520460CF078FF70
:104790001C34AC42F9D138BD78EAFF1F9C1C0020C4
:1047A00038B5FFF7EBFF214C204600210A460CF0FC
:1047B0007BFF23685B6820461D49102298471D4CEB
:1047C00004F1FC05284600210A460CF06DFFD4F8E0
:1047D000FC305B682846184910229847284600217B
:1047E00001220CF061FFD4F8FC305B6828461349C5
:1047F0001022984704F58C75284600210A460CF0D3
:1048000053FFD4F818315B6828460D4910229847A9
:104810002846002101220CF047FFD4F818315B68CC
:10482000284608491022984738BD00BF78EAFF1F84
:10483000B8DA01009C1C0020CCDA0100E0DA0100AB
:10484000F4DA010008DB010008B5FFF7A9FF0EF05C
:1048500069F800BF2DE9F0418EB086468846214FA9
:10486000A7FB0027FF08204C01AE04F1200C3546C1
:1048700020686168A268E3680FC510342E4664455D
:10488000F5D120682860174BA3FB0E23DB0803EB50
:104890004303AEEB830E5FFA8EFE0EEB4E014046F5
:1048A00001AB19440FF0F6FA27B940460F490FF053
:1048B00069FB14E0012F04D140460D490FF062FB63
:1048C0000DE0012F0BD90AA8B91E0A220FF008FB30
:1048D00040460AA90FF04EFB0AA80FF03FFA0EB0AF
:1048E000BDE8F081ABAAAAAA5C9C01001CDB010018
:1048F00024DB010008B50022064B1A540B2808D807
:10490000C0EBC000044B03EB80001146034A0CF0DF
:1049100085FF08BD98E9FF1F9C1C00201C28002073
:1049200008B5154B1B5C8B4224D0134B19540B2834
:1049300020D841B9C0EBC000104B03EB8000104AF7
:104940000CF06CFF08BD012909D1C0EBC0000B4B76
:1049500003EB800000210B4A0CF060FF08BD022928
:1049600008D1C0EBC000054B03EB80000021064AD4
:104970000CF054FF08BD00BF98E9FF1F9C1C0020ED
:104980001C280020E888FF1F9888FF1F08B5013900
:10499000C9B208298CBF00210121FFF7C1FF08BD62
:1049A00070B50F480CF098FF0E4B1C681B681B1B62
:1049B000642B08D80A4E0B4D30460CF099FF2B683B
:1049C0001B1B642BF8D9074B1A68074B1A60074C5E
:1049D00020460CF081FF20460CF08AFF70BD00BF1E
:1049E000101E0020F02B0020502800206CB0FF1F6C
:1049F0000138082821D8DFE800F005080B0E111453
:104A0000171A1D000E4B987A70470D4BD87A7047D5
:104A10000B4B187B70470A4B587B7047084B987BB1
:104A20007047074BD87B7047054B187C7047044B89
:104A3000587C7047024B987C70470020704700BF3D
:104A4000F4B5FF1F70B582B0054601F07F041F2C3E
:104A500050D811F0800F32D02E4B1B78DBB12E4B8B
:104A60009B787BB12D4B1E5C2D4804EB44028318D0
:104A7000805C59789A780DF00DF802462948314645
:104A80000CF0E4FF244BDB78002B41D02846214674
:104A9000FFF77CFF3CE0204B9B783BB11F4B195C40
:104AA000002300931F481A460CF0B2FF1A4BDB7824
:104AB000002B2DD028460021FFF768FF28E0164B79
:104AC0009B787BB1154B1E5C154804EB44028318A0
:104AD000805C59789A780CF0DDFF02461148314627
:104AE0000CF0B4FF0C4BDB7893B128462146FFF75E
:104AF0004DFF0DE0094B1C5C094B987FD97F93F863
:104B000020200CF0C7FF0246064821460CF09EFF0D
:104B100002B070BD2289FF1FF4B5FF1F9C89FF1FE3
:104B20002489FF1F101E002008B5064BDB7923B136
:104B300041F01001FFF786FF08BD0021FFF782FF5B
:104B400008BD00BFF4B5FF1F10B51F2911D80B28F1
:104B50000FD8084B1C5C084801EB41028318805CAD
:104B600059789A780CF096FF0246044821460CF0DA
:104B70006DFF10BDF888FF1FAC89FF1F6CB0FF1FD1
:104B800070B500242646124D3046314632460CF0B0
:104B900081FF02462846A1B20CF058FF01340C2CCC
:104BA000F2D10B480CF0A4FE00242646094D3046F5
:104BB000314632460CF06EFF02462846A1B20CF098
:104BC00045FF01340C2CF2D102480CF091FE70BD6F
:104BD000101E00206CB0FF1F10B50A4C0520217A72
:104BE000FFF730FF0620217AFFF72CFF0920217AFA
:104BF000FFF728FF0A20217AFFF724FF02480CF074
:104C000077FE10BDF4B5FF1F101E002030B585B033
:104C100001200146FDF79CF8FFF7DEFF68460E49CC
:104C20000FF0E8F86846FEF769F968460FF096F865
:104C30000A4D0024A0B22946FDF778F901340A355F
:104C4000562CF7D15620FDF7C9F91E200DF018FD9E
:104C5000FFF796FF05B030BD2CDB0100E89F010097
:104C60000A4B1A680A4B1B68D31AB3F5FA7F0BD9A3
:104C7000064B1A68064B1A60064B1A7882F001023E
:104C80001A700122044B1A70704700BFF02B0020ED
:104C9000502800202289FF1FE488FF1FF8B50B4D24
:104CA000002427460A4EE0B22B7A1BB1317AFFF777
:104CB000C9FE02E03946FFF7C5FE013448350C2C29
:104CC000F1D10122034B1A70F8BD00BF0C21002066
:104CD000F4B5FF1FE488FF1F10B5FFF751FF064C26
:104CE0000920217AFFF730FF0A20217AFFF72CFFF5
:104CF00002480CF0FDFD10BDF4B5FF1F6CB0FF1FA6
:104D00002DE9F04104460E461746C078062811D119
:104D10002379022B0ED1084B1D1F03F1100855F803
:104D2000040F0368D3F80CC0214632463B46E047E7
:104D30004545F4D1BDE8F0818489FF1F2DE9F04796
:104D400005460E46194B93F800804FEA28180022BA
:104D50001346FCF7C5FE6B787E2B0DD15FFA88F801
:104D6000134B13F80820114B1B78284631461A4381
:104D7000FFF7C6FFBDE8F0870E4B1C1F03F1100ABA
:104D8000DFF82C905FFA88F8084F54F8040F026897
:104D900019F808E03B78D2F804C0294632464EEABA
:104DA0000303E0475445F0D1BDE8F08775EAFF1FE3
:104DB000941C00208489FF1F2DE9F84F05468B467F
:104DC0001A4B1B781E1142787E2A08D1F2B218497C
:104DD0008A5C1FFA8BF11A43FFF792FF18E0154B1C
:104DE0001C1F03F1100A1FFA81F9DFF844800F4FEE
:104DF00054F8040F0268F3B218F803E03B78D2F8D5
:104E000004C029464A464EEA0303E0475445EFD121
:104E1000F6B2074B9A5D054B1B7828461FFA8BF1BB
:104E20001A430023FCF75CFEBDE8F88F75EAFF1F0C
:104E3000941C00208489FF1F2DE9F0072D4B93F867
:104E4000009009EB49032C4C23445B788B4206D03D
:104E50002A4B93F800A0BAF1000F0CD12AE009EB1D
:104E60004903254C23449B789342F1D109EB49092E
:104E700004F809003AE00AF1FF3C5FFA8CFC0CF1FF
:104E8000010C0CEB4C0C00231C461B4FFD186E78DC
:104E90008E4208D1AD78954205D104EB4408164BFB
:104EA00003F8080022E0013403336345EED1BAF180
:104EB000180F04D80AF1010A104B83F800A009F179
:104EC00001095FFA89F9B9F1180F03D8094B83F882
:104ED000009002E00024074B1C70064B1C78064D26
:104EE00004EB44042B19285559709A70BDE8F0075B
:104EF000704700BF311E0020BCE9FF1FC0B2FF1F7A
:104F0000F0B41A4B1B7803EB4302194C224452783D
:104F1000824204D0174B1B7863B9FF2024E003EBD7
:104F20004302134C224492788A42F3D103EB4303A9
:104F3000E05C19E05F1EFFB2013707EB4707002373
:104F40001A460B4EF4186578854208D1A4788C4235
:104F500005D102EB420C064B13F80C0004E00132C1
:104F60000333BB42EED1FF20F0BC7047311E00205E
:104F7000BCE9FF1FC0B2FF1F2DE9F00F314C94F8C0
:104F800000A0314C14F82A4084420BD12E4C04EB83
:104F90008A04A478944205D12B4C04EB8A04E4786B
:104FA0009C4206D0294C94F80090B9F1000F06D12C
:104FB00028E0254B03EB8A0A8AF801103FE009F14B
:104FC000FF3C5FFA8CFC0CF1010C4FEA8C0C0024C6
:104FD00025461D4FE65D86420DD13E1996F802B07A
:104FE000934508D1F6789E4205D1174B03EB85080F
:104FF00088F8011023E0013504346445EAD1B9F1A1
:10500000180F04D809F10109104C84F800900AF136
:10501000010A5FFA8AFABAF1180F03D8094C84F82A
:1050200000A002E00025074C2570064C2578064CB0
:1050300004F8250004EB850041708270C370BDE860
:10504000F00F70474D28002098280020301E0020C7
:105050002DE9F0011E4B1B781E4C14F823408442AE
:105060000BD11C4C04EB8304A4788C4205D1194C61
:1050700004EB8304E478944204D0174B1B7833B9D3
:10508000FF2021E0134A02EB830358781CE05F1EE7
:10509000FFB20137BF0000231C460E4E9D5D8542C6
:1050A0000DD1F51895F80280884508D1ED78954224
:1050B00005D1084B03EB840C9CF8010004E001349B
:1050C0000433BB42EAD1FF20BDE8F001704700BFC6
:1050D0004D28002098280020301E002070B504467E
:1050E0000E46154B0360002580F82050458428307B
:1050F00029460EF07FFE0123A387E3870A2284F866
:10510000402084F8415084F8425084F8445084F898
:10511000455084F8475084F8483084F84950256554
:10512000A4F85A5084F85C5084F85D5084F85E50BE
:105130002671204670BD00BF80B3010008291FD82A
:10514000DFE801F00507090C0F1215181B00807F1E
:105150007047C07F704790F82000704790F821009A
:10516000704790F83C00704790F84800704790F8FE
:105170005C00704790F85D00704790F85E007047E3
:10518000002070472DE9F0471F4C254604F11B060F
:105190000134601B0F3014F8011C0CF0AFFFB44257
:1051A000F6D11A4F07F1140A4FF080084FF00009AA
:1051B00057F8043B598C4046090AFCF7C9FD3E46A6
:1051C00008F1010057F8043C80B293F82210FCF774
:1051D000BFFD08F10205ADB24C4656F8040CE1B231
:1051E000FFF7ACFF01462846FCF7B2FD013401355C
:1051F000ADB2092CF1D108F120081FFA88F8574503
:10520000D6D1BDE8F08700BFF4B5FF1F8489FF1F2A
:105210002DE9F04184B0FFF7DFFC684626490EF027
:10522000E9FD6846FDF76AFE68460EF097FD00202E
:105230000121FCF78DFD0220CB21FCF789FD032025
:105240000021FCF785FD1D4C254604F11B060134A9
:10525000601B0F3014F8011C0CF050FFB442F6D163
:10526000174E80274FF0000838464146FCF770FD86
:10527000781C80B24146FCF76BFD56F8040B0368BE
:105280001B689847BD1CADB2444656F8040CE1B209
:10529000FFF754FF01462846FCF75AFD013401355B
:1052A000ADB2092CF1D12037BFB2B7F5907FDBD179
:1052B00004B0BDE8F08100BF2CDB01000489FF1FB2
:1052C0008489FF1F082920D8DFE801F00507090CB1
:1052D0000F11171A1D0082777047C277704780F848
:1052E0002020704780F82120704782877047003265
:1052F00018BF012280F84820704780F85C20704772
:1053000080F85D20704780F85E2070472DE9F041FD
:10531000184C254604F11B060134601B0F300CF0BD
:10532000D9FE04F8010CB442F6D1134D80274FF09A
:10533000000855F8044B38460CF0CCFE0646781CA5
:105340000CF0C8FE00EB062060844446BE1C3019F9
:105350000CF0C0FE024655F8040CE1B2FFF7B2FFB4
:105360000134092CF3D12037B7F5907FE1D1BDE8A6
:10537000F08100BFF4B5FF1F8489FF1F08B500202E
:105380000CF0A8FE012801D0FFF742FF01200CF02D
:10539000A1FE012801D0FFF739FCFFF7B7FF02207B
:1053A0000CF098FE044B187003200CF093FE034B96
:1053B0001870FCF741FE08BDA889FF1FA8E9FF1F70
:1053C00010B4C47F9C4208D190F820409DF804306E
:1053D0009C4202D109B980F841205DF8044B704726
:1053E0002DE9F04FA7B005460E469046554C94F86F
:1053F00000904FEA291902A853490EF0FBFC06A8B9
:1054000031460EF059FD02A806A90EF0EDFD4F49F8
:105410000EF0F4FD07460AA841460EF04DFD384651
:105420000AA90EF0E1FD4A490EF0E8FD07460EA874
:1054300029460EF041FD38460EA90EF0D5FD45492E
:105440000EF0DCFD0746217812A809110A220EF0A1
:1054500047FD384612A90EF0C7FD3F490EF0CEFDBC
:1054600004465FFA89F716A83C4BD95D0EF024FD7F
:10547000204616A90EF0B8FD0146394C20460EF024
:10548000E9FB20460EF00CFC16A80EF067FC12A8F3
:105490000EF064FC0EA80EF061FC0AA80EF05EFC93
:1054A00006A80EF05BFC02A80EF058FC102D01D1EE
:1054B000772E08D02B4B1C1F03F1100BDFF89CA09C
:1054C000DFF880902CE0254C04F807801AA82649C4
:1054D0000EF090FC1EA849460EF0EEFC1AA81EA97C
:1054E0000EF082FD21490EF089FD054622A8E15DFE
:1054F0000EF0E2FC284622A90EF076FD0146184C7B
:1055000020460EF0A7FB20460EF0CAFB22A80EF0A4
:1055100025FC1EA80EF022FC1AA80EF01FFC0EE0BF
:1055200054F8040F1AF8072099F800301343009339
:10553000314642462B46FFF743FF5C45F0D127B08A
:10554000BDE8F08F75EAFF1F3CDB010044DB010082
:1055500018D7010030D7010024DC0100941C002082
:10556000502D00208489FF1F4CDB010074DB0100FB
:1055700010B594B00446002380F8443080F84730DA
:10558000283022490EF068FC053408A821460EF0A8
:1055900031FC04A808A90EF069FC04A81C490EF00F
:1055A0002DFD014668460EF061FC6846FDF7A6FC3D
:1055B00068460EF0D3FB04A80EF0D0FB08A80EF04E
:1055C000CDFB10A821460EF015FC0CA810A90EF07A
:1055D0004DFC0CA80F490EF011FD01460E4C204663
:1055E0000EF038FB20460EF05BFB0CA80EF0B6FB6D
:1055F00010A80EF0B3FB094B1A7842F001021A70A2
:105600000122074B1A7014B010BD00BF242B0020DC
:105610007CDB010088DB0100502D00205AB0FF1F09
:1056200025E9FF1F10B5044690F8443063B190F8A7
:10563000452090F846309A4201D3FFF799FF94F83D
:105640004530013384F8453010BD00BF38B5054DF5
:105650002C1F103554F8040FFFF7E4FFAC42F9D1CA
:1056600038BD00BF8489FF1F10B4046DC16C054AAA
:1056700013681B1B8B42FBD9024B1B6803655DF84B
:10568000044B7047F02B0020438C028F9A423ABFA4
:1056900003F1FF3398B2408F704700BF438C428FB5
:1056A0009A4286BF013398B2008F7047044B1B7833
:1056B00000790130834214BF00200120704700BFF1
:1056C00091EAFF1F2DE9F84FA84CA94821790CF069
:1056D000E7F9A84861790CF0E3F9A74D0024DFF859
:1056E000A492DFF8A4A25FFA84F82E4695F8483019
:1056F000FE2B0CBF99F800701F46042F00F210819A
:1057000095F84920643A112A00F20281DFE812F08C
:1057100012008D008D00340063006300630063009D
:10572000EB00CE00CE00CE00CE00000180008D0048
:10573000630063005AF82730598CB5F878209142FD
:1057400010D193F847302BB1404695F87610FFF70B
:1057500079F90BE095F87610404641F01001FFF71B
:1057600071F903E040460021FFF76CF9404696F8D6
:105770007610FFF7E9F9D3E05AF827B05846FFF75B
:1057800095FF38B195F87610404641F08001FFF75B
:1057900059F91AE0BBF82220B5F878309A4210D1B6
:1057A0009BF847302BB1404695F87610FFF74AF941
:1057B0000BE095F87610404641F01001FFF742F9F2
:1057C00003E040460021FFF73DF9404696F8761089
:1057D000FFF7BAF9A4E095F876B0BBF1FF0F05D159
:1057E00099F800305AF8233093F81EB096F85030EC
:1057F00023B140465946FFF725F904E040464BF0F7
:105800001001FFF71FF940465946FFF79DF987E061
:1058100095F87610404641F08001FFF713F94046B5
:1058200095F87610FFF790F97AE095F85130012B52
:105830001FD895F84E30012B07D195F87600FFF769
:10584000D7F801464046FFF7FDF896F84E30022B98
:1058500007D196F87600FFF7CBF801464046FFF7F0
:1058600063F996F84E30C3B940460021FFF7EAF8D5
:1058700013E095F8503043B195F87600FFF7B8F88B
:1058800001464046FFF7DEF807E095F87600FFF79F
:10589000AFF801464046FFF747F996F87600FFF764
:1058A000A7F801464046FFF74FF939E095F8502038
:1058B0004AB9B5F87810314A1278914209D199F86D
:1058C00000209A4205D14046284A117AFFF7BAF8DB
:1058D00003E040460021FFF7B5F84046234B197A14
:1058E000FFF732F91CE05AF8273093F8473023B11C
:1058F00040460021FFF7A6F804E0404695F87610F0
:10590000FFF7A0F8404696F87610FFF71DF907E07C
:1059100040460021FFF796F840460021FFF714F9B2
:10592000FF2F40F0C68096F84930013B0A2B00F269
:10593000B880DFE803F08AB6B60611A3355E4B8A5D
:105940008A0040460E4B1978FFF77CF84046074A1C
:10595000517AFFF7F9F8ACE096F85030B3B1404611
:10596000024B597AFFF76EF814E000BFF4B5FF1F41
:10597000101E00206CB0FF1F0C210020E588FF1FC7
:1059800040280020A8E9FF1F8489FF1F404600210E
:10599000FFF758F840464D4A517AFFF7D5F888E0AE
:1059A00096F8880096F88910FFF7AAFAB6F87830CA
:1059B000834240460CBF96F876100021FFF742F86C
:1059C000404696F87610FFF7BFF872E096F8503030
:1059D0002BB1404696F87610FFF734F803E04046C6
:1059E0000021FFF72FF8404696F87610FFF7ACF845
:1059F0005FE096F85130023BDBB2012B11D896F8EC
:105A00004E3023B9404696F87610FFF71BF896F80B
:105A10004E30012B13D1404696F87610FFF784F8EC
:105A20000DE096F850302BB1404696F87610FFF70F
:105A300009F804E0404696F87610FFF775F84046FE
:105A400096F87610FFF780F833E096F850302BB9CF
:105A5000B6F878201E4B1B789A4205D1404696F83E
:105A60007610FEF7EFFF03E040460021FEF7EAFF65
:105A7000404696F87610FFF767F81AE0154B1B784A
:105A80002BB14046114B197AFEF7DCFF03E040468C
:105A90000021FEF7D7FF40460C4A117AFFF754F871
:105AA00007E040460021FEF7CDFF40460021FFF70A
:105AB0004BF8013448350C2C7FF415AE06480BF03A
:105AC00017FF06480BF014FFBDE8F88FF4B5FF1F71
:105AD000E588FF1F78280020101E00206CB0FF1FF3
