:1000000000000320D1010000DDC3020095C30200FF
:1000100095C3020095C3020095C3020095C3020078
:1000200095C3020095C3020095C30200DDC3020020
:10003000DDC3020095C30200C1E30200C5E3020074
:10004000DDC30200DDC30200DDC30200DDC3020028
:10005000DDC30200DDC30200DDC30200DDC3020018
:10006000DDC30200DDC30200DDC30200DDC3020008
:10007000DDC30200DDC30200DDC30200DDC30200F8
:10008000DDC30200DDC30200DDC30200DDC30200E8
:10009000DDC30200DDC30200DDC30200DDC30200D8
:1000A000B9850200C5850200DDC30200DDC3020080
:1000B000DDC30200DDC30200DDC3020069F50200FA
:1000C000DDC30200D9FC0200DDC30200DDC3020073
:1000D000DDC30200DDC30200DDC30200DDC3020098
:1000E000DDC30200DDC30200DDC3020085BD0200E6
:1000F000DDC30200DDC30200DDC30200DDC3020078
:1001000011E7020025E7020039E702004DE702008F
:10011000DDC3020045CD0200DDC30200DDC30200E5
:10012000DDC30200DDC30200DDC30200DDC3020047
:10013000DDC30200DDC30200DDC30200DDC3020037
:10014000DDC30200DDC30200DDC30200DDC3020027
:10015000DDC30200DDC30200DDC30200DDC3020017
:10016000DDC30200DDC30200D1850200DDC3020051
:10017000DDC30200DDC30200DDC30200DDC30200F7
:10018000DDC30200DDC30200DDC30200DDC30200E7
:10019000DDC30200DDC30200DDC30200DDC30200D7
:1001A000DDC30200DDC30200DDC30200DD85020005
:1001B000DDC30200DDC30200DDC30200DDC30200B7
:1001C000DDC30200DDC30200DDC30200DDC30200A7
:1001D0005C4B4CF2205210B51A804DF628121A8052
:1001E00000BF00BF2CF0FEF8574B4FF030621A6092
:1001F000564A9A60564ADA60564B4FF470021A60BB
:10020000554B564A1A60564B1A78110703D51A787F
:1002100042F008021A70534B5349AA221A70534AEB
:10022000534B8B4204D252F8040F43F8040BF8E707
:10023000504B514900228B4202D243F8042BFAE77B
:100240004E494F4A002352F8230041F8230001335E
:10025000742BF8D14B4B4C4A802103F8011B93427D
:10026000FBD14A4B454A1A60494B8A221A70A3F5C2
:10027000805324225A70A0221A709A799207FCD5D2
:100280009A79D406FCD4434A937903F00C03082BE3
:10029000FAD1414B60221A7002331A78802AFCD1BD
:1002A0003C4B01221A715D225A719A799006FCD555
:1002B0009979384A4906FBD5384B394919600021EC
:1002C000596020231370937903F00C030C2BFAD19F
:1002D000344B354A1A60354A354C136813F4807331
:1002E00003D123604FF4A8531360324B324A1A6093
:1002F00000225A60072243F8042C304AC3F80C2D20
:1003000062B62CF08DFB2368DA0705D52C482CF05B
:1003100045F92C4B2C4A1A602C4B1B785B0609D5EF
:10032000284C294B22689A4204D125482CF036F9F2
:10033000002323602FF086FF2CF05AF82EF0C8FC23
:10034000FEE700BF0E20054030800440823F0400DD
:100350000100002B88ED00E0002008E0030000858C
:1003600002D0074000E007404821FF1FAC5C0400BA
:100370005008FF1F0030FF1FAC7900200002FF1F54
:100380000000000000E400E064E400E008ED00E0AC
:10039000005006400040064001E007404480044011
:1003A0000000060204800440C010070010D0034083
:1003B00014D0034014E000E01FBF02000000202022
:1003C0009D3F84601CE00340A5C3945A00F00740A1
:1003D000FFFFFFFFFFFFFFFFFFFFFFFFFFFFFFFF2D
:1003E000FFFFFFFFFFFFFFFFFFFFFFFFFFFFFFFF1D
:1003F000FFFFFFFFFFFFFFFFFFFFFFFFFFFFFFFF0D
:10040000FFFFFFFFFFFFFFFFFFFFFFFFDEF9FFFF23
:1004100010B5054C237833B9044B13B10448AFF33E
:1004200000800123237010BD0030FF1F000000007A
:10043000A85C0400084B10B51BB108490848AFF38D
:1004400000800848036803B910BD074B002BFBD0A0
:10045000BDE81040184700BF000000000430FF1F37
:10046000A85C04004821FF1F000000000020704726
:10047000704700BF72B6034B012283F8A42062B616
:10048000704700BF9C99FF1F704700BF704700BFB7
:10049000704700BF704700BF704700BF2DE9F041B3
:1004A000DFF834800A4C98F800300A4F1E1104F12E
:1004B000380501E098F8003054F8040FB95D02687F
:1004C0001943D2699047AC42F4D1BDE8F08100BF36
:1004D0003809FF1F4C6600204CE1FF1F704700BF2A
:1004E000704700BF704700BF044A4379107801335A
:1004F000181AB0FA80F04009704700BF721000204F
:1005000070B4838C0A4C42790A4D0B49B0F84A60AA
:100510002E70A4FB03430132642500245B090A709A
:10052000A0F84A5080F84D40A0F8483070BC7047A1
:100530001F85EB51E19BFF1F721000200368DB6FEA
:10054000184700BF01EBC10301EB43018900064AD4
:1005500001F11C032C3113440A44202103F8011F2C
:100560009342FBD1012070471C30FF1F00207047D1
:10057000002070470368D3F8983018470846704742
:1005800001EBC10301EB43018900064A01F11C03A1
:100590002C3113440A44202103F8011F9342FBD15C
:1005A000704700BF1C30FF1F002380F86610A0F8C2
:1005B000643070470020704700207047704700BFCC
:1005C000704700BF90F86A304BB10133DBB2022BA9
:1005D00088BF012380F86A30014B02221A707047ED
:1005E000A00E002001EBC10301EB43018900064A84
:1005F00001F11C032C3113440A44202103F8011F8C
:100600009342FBD1012070471C30FF1F704700BF91
:10061000704700BF0020704700207047704700BF40
:100620005D207047542901D8022070475D2934BFEE
:1006300080200020704700BF0379022B06BF90F88E
:10064000F20040005D20704790F8F300704700BF53
:10065000082070472F2070472E2906D8044B01EB45
:10066000410103EBC101087A70470020704700BFC9
:10067000509A030043790A4A0A4910B40133B0F88A
:100680004A4014700B704FF496740022A0F84A4050
:10069000A0F8482080F84D205DF8044B704700BF5B
:1006A000E19BFF1F7210002090F84D304BB9C1EB59
:1006B0000111490089B2022986BF033988B200209E
:1006C0007047B0F8483001EB4101C3EB031301EB75
:1006D000430189B2EFE700BF2E2070472D2906D8CD
:1006E000044B01EB410103EBC101087A7047002084
:1006F000704700BF00140400082070471531C8B2CD
:10070000704700BF022380F86A30704743790A4A75
:100710000A4910B40133B0F84A4014700B704FF41A
:10072000C8740022A0F84A40A0F8482080F84D2064
:100730005DF8044B704700BFE19BFF1F7210002063
:10074000026890F84E1080F85110136C184700BFE3
:100750000F2907D801EB4102034B01EB8201194439
:10076000087B704700207047B829040010B40AB90C
:1007700090F86A20012A1FD0022A1BD0032A0CBF3E
:100780000D2400240D4A01EBC10001EB40004C2375
:1007900003FB0121800000F11C032C3013444C8624
:1007A0000244202103F8011F9342FBD101205DF890
:1007B000044B70470C24E5E70B24E3E71C30FF1FD4
:1007C00043790D4990F8952030B40C4CB0F84A505C
:1007D000257001330B7052B14FF4FA73A0F84A3010
:1007E0000023A0F8483080F84D3030BC70476423B7
:1007F000A0F84A30F4E700BF72100020E19BFF1F11
:100800001220704790F86A304BB10133DBB2032BF2
:1008100088BF012380F86A30014B01221A707047AB
:10082000A00E002010B40AB990F86A20012A1FD047
:10083000022A1BD0032A0CBF0D2400240D4A01EB11
:10084000C10001EB40004C2303FB0121800000F1BB
:100850001C032C3013444C860244202103F8011F52
:100860009342FBD101205DF8044B70470C24E5E76F
:100870000B24E3E71C30FF1F4379094A094910B4F0
:100880000133B0F84A4014700B7050240022A0F8D5
:100890004A40A0F8482080F84D205DF8044B70478E
:1008A000E19BFF1F721000208A20704790F866308D
:1008B0000BB98A207047024A134413F8010C7047A1
:1008C000B06A0020F0B490F86660CEB100230F4A01
:1008D0001D460B2403E08A2B0ED012F81C4CB442A8
:1008E000DFB202F11C0203F10103F4D1A9420AD0E4
:1008F00001358A2BEDB2F0D14FF6FF70F0BC704796
:100900000846F0BC7047B8B2F0BC7047C1D10300D4
:10091000704700BF1020704790F86A304BB1013328
:10092000DBB2022B88BF012380F86A30014B012221
:100930001A707047A00E002030B40AB990F86A20EF
:10094000012A20D0022A12D001EBC10301EB43019E
:1009500089000E4A01F11C032C3113440A44202162
:1009600003F8011F9342FBD1012030BC70470F23D5
:10097000064C05684C2202FB01441A466386D5F8F2
:10098000943030BC18470E23F2E700BF1C30FF1F25
:100990000120704721B109298CBF00200120704738
:1009A000084670474379094A094910B40133B0F841
:1009B0004A4014700B7024240022A0F84A40A0F88A
:1009C000482080F84D205DF8044B7047E19BFF1FE5
:1009D0007210002009207047082994BF02200020CF
:1009E000704700BF704700BF0F2070470E2907D81F
:1009F000044B01EB4101C1EBC1011944887C7047F4
:100A0000002070470C9F03000C4A01EBC10001EB72
:100A100040004C2303FB0121800010B400F11C03B3
:100A20000E242C304C8613442021024403F8011F6D
:100A30009342FBD101205DF8044B70471C30FF1F2F
:100A400043790A4A0A4910B40133B0F84A40147095
:100A50000B704FF4C8740022A0F84A40A0F8482058
:100A600080F84D205DF8044B704700BFE19BFF1FED
:100A70007210002090F84D3043B901EB8101C9009C
:100A8000032986BF043988B200207047B0F8483087
:100A900003EB830301EB4301890089B2F0E700BF58
:100AA00063207047622905D8034B1A2202FB0131EB
:100AB000887A704700207047B0B803001A2070474A
:100AC000112986BF0331C8B2084670470139C9B23F
:100AD00007299DBF90F8720340FA01F101F001006F
:100AE0000020704790F86A304BB10133DBB2022B23
:100AF00088BF012380F86A30014B01221A707047C9
:100B0000A00E0020B0207047C12906D8044B01EB8D
:100B1000410103EBC101887870470020704700BF96
:100B20003C42040090F866300BB9C2207047024A7C
:100B3000134413F8010C7047A4310020F0B490F86E
:100B40006660CEB100230F4A1D460C2403E0C22B81
:100B50000ED012F8184CB442DFB202F1180203F1C1
:100B60000103F4D1A9420AD00135C22BEDB2F0D174
:100B70004FF6FF70F0BC70470846F0BC7047B8B243
:100B8000F0BC70476B4204002720704710B4054C3E
:100B90004C2000FB014181F8303081F83C205DF8A9
:100BA000044B70471C30FF1F90F86A304BB1013383
:100BB000DBB2022B88BF012380F86A30014B01228F
:100BC0001A707047A00E00200620704710B40A4A21
:100BD0000A4813780A49012B96BF0A4B03F1FF33E9
:100BE0001B781370084A00230124137004700B70E3
:100BF0005DF8044B704700BFA0AEFF1F7870FF1F69
:100C0000856E00208109FF1FE912002010B40A4AF6
:100C10000A49137809780A4899428CBF01330123A5
:100C20001370084A084900230124137004700B70E4
:100C30005DF8044B704700BFA0AEFF1F8109FF1F86
:100C40007870FF1FE9120020856E0020704700BFFA
:100C500010B5044B044640F8303B2DF0CDFD204646
:100C600010BD00BF10E9030010B5044B044640F866
:100C7000303B2DF0C1FD204610BD00BF10E9030040
:100C800010B5044B044640F8303B2DF0B5FD20462E
:100C900010BD00BF10E9030010B5044B044640F836
:100CA000303B2DF0A9FD204610BD00BF10E9030028
:100CB00010B5044B044640F8303B2DF09DFD204616
:100CC00010BD00BF10E9030010B5044B044640F806
:100CD000303B2DF091FD204610BD00BF10E9030010
:100CE00010B5044B044640F8303B2DF085FD2046FE
:100CF00010BD00BF10E9030010B5044B044640F8D6
:100D0000303B2DF079FD204610BD00BF10E90300F7
:100D100010B5044B044640F8303B2DF06DFD2046E5
:100D200010BD00BF10E9030010B5044B044640F8A5
:100D3000303B2DF061FD204610BD00BF10E90300DF
:100D400010B5044B044640F8303B2DF055FD2046CD
:100D500010BD00BF10E9030010B5044B044640F875
:100D6000303B2DF049FD204610BD00BF10E90300C7
:100D700010B5044B044640F8303B2DF03DFD2046B5
:100D800010BD00BF10E9030010B5044B044640F845
:100D9000303B2DF031FD204610BD00BF10E90300AF
:100DA000F8B50F4C04F1100514F8011F0D482DF093
:100DB0009DFEAC42F8D10C4B0C491F780F700C4EC5
:100DC0000C4D0D4A0D4C0E480821197010270123B7
:100DD000022137702B70117023700370F8BD00BFB3
:100DE000E39AFF1F04130020F71E00203F2D002070
:100DF0008109FF1FA0AEFF1FA00E00208110002060
:100E00007870FF1F38B504460023CD2200F130056D
:100E100080F88C201121237184F88D3084F88E3075
:100E200084F88F3028462DF0EFFC284603492DF03A
:100E3000FBFD012384F8523038BD00BFB45B0300D2
:100E4000104601492DF0F0BDC85B0300184601496A
:100E50002DF0EABDD85B0300104601492DF0E4BD3A
:100E6000DC5B0300104601492DF0DEBDE85B0300AA
:100E7000104601492DF0D8BDD85B0300F8B51049E4
:100E80001048114C2DF0D0FD04F1080514F8011F95
:100E90000C482DF02BFEAC42F8D10C490C4B0A78D3
:100EA0001A700C4F0C4E0D480D4D0E4C08220123AC
:100EB0000A7002213A70337001702B702370F8BDF4
:100EC000C45B03000413002054170020F71E002009
:100ED0003F2D00208109FF1FA0AEFF1FA00E0020A4
:100EE000A72D00207870FF1F811D10462DF0F0BD4A
:100EF000104601492DF0ECBDF05B0300104601499E
:100F00002DF0E6BDC45B0300072900D9704701EB53
:100F10008100034B01EB4001194410462DF0D8BD70
:100F20003E370400044B01EB410103EBC1011046C5
:100F300009312DF0CDBD00BF509A0300044B01EBE9
:100F4000410103EBC101104609312DF0C1BD00BFC5
:100F50000014040010B401EB4103044C01EB8301C5
:100F6000214410465DF8044B2DF0B2BDB8290400B1
:100F7000024B104603EB01112DF0AABD9439040079
:100F800010B401EB4103044CC1EBC30121441046F2
:100F90005DF8044B2DF09CBD00060400034B01EBF3
:100FA0008101104603EB41012DF092BD942A04000B
:100FB00001EB4101034BC1EBC101104619442DF077
:100FC00087BD00BF0C9F0300622900D97047044B06
:100FD0001A2000FB01310B3110462DF079BD00BF06
:100FE000B0B80300044B01EB410103EBC101104613
:100FF00003312DF06DBD00BF3C420400262903D90A
:10100000104605492DF064BD044B01EB410110462B
:1010100003EBC1012DF05CBD005C03001026040051
:10102000262903D9104606492DF052BD054B01EB88
:10103000410103EBC10110460E312DF049BD00BF47
:10104000005C03001026040070B501EB41030C4660
:101050001F49C4EBC30305461944104616462DF03C
:1010600037FD0B2C00D970BD3A2130462DF03EFDE6
:10107000AB8C184A1849126803EB4303C3EB031304
:101080001A4422440023547D92F82120184606E099
:101090000133712B01F1130114D011F8130C8442A8
:1010A000DDB2F5D111F8120C9042F1D155B103EB3C
:1010B000C3020A4903EB420330461944BDE87040BD
:1010C0002DF006BD30460649BDE870402DF000BD4C
:1010D0001106040048340020B7E00300A6E0030036
:1010E000005C030030B4B9B101EB4103C1EBC303B1
:1010F000DBB200F23C4100F24445C418013394F8DD
:101100006C4301F8014FA942DBB2F6D100F23D4138
:1011100030BC10462DF0DCBC1723EAE770B50F4C4D
:10112000A4FB0134E4080D4604F1410184B0C9B2C6
:10113000104604EB840416462DF0D8FCA5EB4401C0
:101140000A2289B268462DF0DDFB694630462DF053
:10115000BBFC68462DF050FB04B070BDCDCCCCCCB0
:1011600030B589B00D4604A80B4914462DF084FB18
:10117000294668462DF0B2FB694604A82DF0DAFC3A
:10118000014620462DF0A0FC68462DF035FB04A852
:101190002DF032FB09B030BD045C030070B590F84F
:1011A0004D308CB004460D46164633BBB0F848307F
:1011B0000BB9002964D0354908A82DF05DFBB4F8BF
:1011C000481001EB810105EB410101390A2204A815
:1011D0002DF098FB04A908A82DF0ACFC2C492DF0AB
:1011E000B1FC014630462DF06FFC04A82DF004FB45
:1011F00008A82DF001FB0CB070BDB0F84830A3B9C1
:1012000029B9104623492DF063FC0CB070BD08A825
:1012100021492DF031FB294604A80A222DF072FB4A
:1012200004A908A82DF086FCDBE704A817492DF0D7
:1012300023FBB4F848100A22013968462DF062FBFE
:10124000694604A82DF076FC14492DF07BFC0A2297
:101250000446294608A82DF055FB08A920462DF084
:1012600069FC014630462DF02FFC08A82DF0C4FA89
:1012700068462DF0C1FA04A82DF0BEFA0CB070BD7E
:10128000104607492DF024FC0CB070BD145C03001F
:10129000185C03001C5C0300245C0300BC740300A6
:1012A000105C030030B562298BB01D462FD83A4B35
:1012B0001A2404FB0131C98A0BB2002B55DDA1F5BC
:1012C000F844063C112C10D8DFE804F0090F0F0F8A
:1012D0000F0F0F0F0F0F0F0F0F0F0F2D4D2790F840
:1012E000A530002B14BF092101210A44013A2B49E2
:1012F00002EBC202114406A82DF0BEFA06A9284648
:101300002DF0E2FB06A82DF077FA0BB030BD1846A1
:1013100023492DF0DDFB0BB030BD114606A80A2293
:101320002DF0F0FAEAE73F2A28D9402A2FD001927F
:10133000EBD91C4906A82DF09FFA019AA2F13201BF
:101340000A2202A82DF0DEFA02A906A82DF0F2FB6F
:10135000014628462DF0B8FB02A82DF04DFA06A84C
:101360002DF04AFAD1E75100D8E7012A28460CBFF0
:101370000D490E492DF0ACFB0BB030BD0C4901926C
:1013800006A82DF079FA019AC2F13201D8E7284671
:1013900008492DF09DFBB8E7B0B8030070190400B0
:1013A0001479030024700300CC670300285C030059
:1013B000205C0300186C030030B5112989B0154674
:1013C00022D91239CCB2072C05D9104612492DF07A
:1013D0007FFB09B030BD04A810492DF04DFA0A2258
:1013E000611C68462DF08EFA694604A82DF0A2FB18
:1013F000014628462DF068FB68462DF0FDF904A84B
:101400002DF0FAF909B030BD054B104603EB011180
:101410002DF05EFB09B030BD005C03002C5C0300C6
:101420006C54040030B5112989B0154622D91239FF
:10143000CCB2072C05D9104613492DF049FB09B051
:1014400030BD04A811492DF017FA0A22611C684624
:101450002DF058FA694604A82DF06CFB0146284689
:101460002DF032FB68462DF0C7F904A82DF0C4F921
:1014700009B030BD064B03EB0111104608312DF0C9
:1014800027FB09B030BD00BF005C03003C5C0300DB
:101490006C54040030B589B00D4604A80B491446BD
:1014A0002DF0EAF9294668462DF018FA694604A895
:1014B0002DF040FB014620462DF006FB68462DF03E
:1014C0009BF904A82DF098F909B030BD405C0300E9
:1014D00030B589B00D4604A80C4914462DF0CCF95E
:1014E0000A22691C68462DF00DFA694604A82DF001
:1014F00021FB014620462DF0E7FA68462DF07CF9E5
:1015000004A82DF079F909B030BD00BF485C030094
:101510002DE9F041454FA7FB01346408622C8CB0E3
:101520000D46164673D990F8933003F13102B4EBAF
:10153000420F804670DC62339C4256DC3C493046A8
:101540002DF0C6FA6FF494731D44ADB2A7FB0534B9
:10155000C4F34F040134374FE4B2A7FB0437FF084C
:1015600039460A2268462DF0CDF907EB8707694610
:1015700008A82DF095F9A4EB47010A22C9B204A8E6
:101580002DF0C0F904A908A82DF0D4FA0146304680
:101590002DF09AFA04A82DF02FF908A82DF02CF9B7
:1015A00068462DF029F908A823492DF065F91F494F
:1015B000A1FB0531490801EB4101691A89B20A22F0
:1015C000013104A82DF09EF904A908A82DF0B2FA63
:1015D000014630462DF078FA04A82DF00DF908A840
:1015E0002DF00AF90CB0BDE8F081144930462DF019
:1015F0006FFA98F8933003EB4303C3F57E43D73378
:101600001D44ADB2A7FB0534C4F34F04A2E7552136
:1016100010462DF06BFA9DE7094930462DF058FA37
:1016200098F8933003EB43035B00E6E7ABAAAAAA62
:10163000205C0300CDCCCCCCD85B0300247003002D
:101640004C5C0300F0B5C1F38705194C013584FBF0
:101650000534EB178DB0C3EBA4040E4617462146A4
:101660000A2268462DF04EF9694608A82DF018F9AF
:1016700004EB84010A22A5EB410104A82DF042F9F4
:1016800004A908A82DF056FA06F0030141312DF007
:1016900067FA014638462DF017FA04A82DF0ACF889
:1016A00008A82DF0A9F868462DF0A6F80DB0F0BDF9
:1016B000676666662DE9F04390F8953095B00C4664
:1016C0001546002B51D1042948D90C1F08A85649AA
:1016D0002DF0D2F85549A4B2A1FB04310A224909E0
:1016E00004A82DF00FF904A908A82DF023FA504BF7
:1016F000A3FB0426F608B1B2A3FB0123DB0803EB2E
:101700008303A1EB430107460A2289B20CA82DF0FE
:10171000F9F80CA938462DF00DFA06EB8606A4EB75
:1017200046010A22074689B210A82DF0EBF810A94D
:1017300038462DF0FFF9014628462DF0C5F910A8CE
:101740002DF05AF80CA82DF057F804A82DF054F8F5
:1017500008A82DF051F815B0BDE8F08310463549C2
:101760002DF0B6F915B0BDE8F083314E2F49A6FB38
:101770000437BF0807F10109A1FB09310A22A6FBC2
:101780000938C1F34F1168462DF0BCF84FEAD8086C
:10179000694608A82DF084F81FFA88F1A6FB0136E7
:1017A000F60806EB8606A1EB46010A2289B204A8D8
:1017B0002DF0A8F804A908A82DF0BCF908EB8808BA
:1017C000A9EB48010A22064689B20CA82DF09AF826
:1017D0000CA930462DF0AEF917492DF0B3F907EBFF
:1017E0008701611A89B20A220646013110A82DF03C
:1017F00089F810A930462DF09DF9014628462DF0B4
:1018000063F910A82CF0F8FF0CA82CF0F5FF04A841
:101810002CF0F2FF08A82CF0EFFF68462CF0ECFF4C
:1018200015B0BDE8F08300BF585C03001F85EB5185
:10183000CDCCCCCC505C0300D85B0300F0B590F865
:10184000953091B004460F461646002B36D190F8DD
:101850004D30002B75D190F84810614D01EB81019E
:1018600007EB4104E4B2A5FB0435ED0829460A2242
:1018700004A82DF047F805EB850504A90CA82DF068
:101880000FF8A4EB4501C9B20A2208A82DF03AF8D6
:1018900008A90CA82DF04EF952492DF053F9014634
:1018A00030462DF011F908A82CF0A6FF0CA82CF05A
:1018B000A3FF04A82CF0A0FF11B0F0BD90F84D30AC
:1018C000002B69D0B0F84810454DA5FB01310A2224
:1018D000C90868462DF016F8694608A82CF0E0FF04
:1018E000B4F84810A5FB0135ED0805EB8505A1EB23
:1018F00045010A2289B204A82DF004F804A908A819
:101900002DF018F9394604460A220CA82CF0FAFFEB
:101910000CA920462DF00EF933492DF013F901469C
:1019200030462DF0D1F80CA82CF066FF04A82CF05E
:1019300063FF08A82CF060FF68462CF05DFF11B033
:10194000F0BDB0F84810264DA5FB01310A22C908A8
:1019500068462CF0D7FF694608A82CF0A1FFB4F820
:101960004810A5FB0135ED0805EB8505A1EB450108
:101970000A2289B204A82CF0C5FF04A908A82DF0FA
:10198000D9F8394604460A220CA82CF0BBFF0CA952
:1019900020462DF0CFF8C2E7B0F84840104904EBDC
:1019A000840407EB4404A4B2A1FB0437FF083946C2
:1019B0000A2204A82CF0A6FF07EB870704A90CA8AD
:1019C0002CF06EFFA4EB470189B20A2208A82CF084
:1019D00099FF08A90CA82DF0ADF804495DE700BFF8
:1019E000CDCCCCCC5C5C0300645C0300605C030089
:1019F000F0B5224B01318CB291B0A3FB04311646F5
:101A000049090A2268462CF07DFF694608A82CF097
:101A100047FF1B4BA3FB0425ED08A9B2A3FB012341
:101A2000DB0803EB8303A1EB43010A2289B204A87C
:101A30002CF068FF04A908A82DF07CF805EB8505BB
:101A4000A4EB45010A22074689B20CA82CF05AFFE4
:101A50000CA938462DF06EF8014630462DF034F8CA
:101A60000CA82CF0C9FE04A82CF0C6FE08A82CF087
:101A7000C3FE68462CF0C0FE11B0F0BD1F85EB51CF
:101A8000CDCCCCCCF0B5284C284FC7290E468DB014
:101A900094BF55215021A4FB0634104615462DF065
:101AA00025F8A309C82404FB1364C4F38D0401348E
:101AB000E4B2A7FB0437FF0839460A2268462CF037
:101AC00021FF07EB8707694608A82CF0E9FEA4EB85
:101AD00047010A22C9B204A82CF014FF04A908A8DF
:101AE0002DF028F8014628462CF0EEFF04A82CF033
:101AF00083FE08A82CF080FE68462CF07DFE2D2188
:101B000028462CF0F3FF06F003010A22013108A851
:101B10002CF0F8FE08A928462CF0D6FF08A82CF0D7
:101B20006BFE0DB0F0BD00BF1F85EB51CDCCCCCC12
:101B3000F0B5C72991B00C4610468CBF50215521F5
:101B4000164601342CF0D2FF2049A4B2A1FB043187
:101B50000A22490968462CF0D5FE694608A82CF0EF
:101B60009FFE1B4BA3FB0425ED08A9B2A3FB012399
:101B7000DB0803EB8303A1EB43010A2289B204A82B
:101B80002CF0C0FE04A908A82CF0D4FF05EB8505B5
:101B9000A4EB45010A22074689B20CA82CF0B2FE3C
:101BA0000CA938462CF0C6FF014630462CF08CFFBD
:101BB0000CA82CF021FE04A82CF01EFE08A82CF086
:101BC0001BFE68462CF018FE11B0F0BD1F85EB51CE
:101BD000CDCCCCCCF0B590F84D3091B005460F4649
:101BE00016466BBBB0F84830012B8CBF50215521F5
:101BF00010462CF07BFFB5F848100A2204A82CF000
:101C000081FE04A90CA82CF04BFE0A22394608A834
:101C10002CF078FE08A90CA82CF08CFF2B492CF096
:101C200091FF014630462CF04FFF08A82CF0E4FD50
:101C30000CA82CF0E1FD04A82CF0DEFD11B0F0BDE5
:101C4000B0F84830224C132B8CBF50215521104640
:101C50002CF04CFFB5F84810A4FB01310A22C9084A
:101C600068462CF04FFE694608A82CF019FEB5F81E
:101C70004810A4FB0134E40804EB8404A1EB440104
:101C80000A2289B204A82CF03DFE04A908A82CF071
:101C900051FF0A22044639460CA82CF033FE0CA949
:101CA00020462CF047FF014630462CF00DFF0CA8D3
:101CB0002CF0A2FD04A82CF09FFD08A82CF09CFDA0
:101CC00068462CF099FD11B0F0BD00BF5C5C0300CC
:101CD000CDCCCCCC30B500EB410089B0B0F894301D
:101CE000154601310A2268465C102CF00BFE69464D
:101CF00004A82CF0D5FD04A83A212CF031FFE3B262
:101D0000094903EBC30301EB43012CF01BFF014620
:101D100028462CF0D9FE04A82CF06EFD68462CF065
:101D20006BFD09B030BD00BFFCA8030070B5164CB8
:101D30004D1C84FB0534EB178CB0C3EBA404164692
:101D400021460A2268462CF0DDFD694608A82CF0E1
:101D5000A7FD04EB84010A22A5EB410104A82CF0A5
:101D6000D1FD04A908A82CF0E5FE014630462CF070
:101D7000ABFE04A82CF040FD08A82CF03DFD684601
:101D80002CF03AFD0CB070BD6766666630B500EBAE
:101D9000410089B0B0F89430154601310A226846F6
:101DA0005C102CF0AFFD694604A82CF079FD04A866
:101DB0003A212CF0D5FEE3B2094903EB830301EB92
:101DC000830102312CF0BEFE014628462CF07CFE39
:101DD00004A82CF011FD68462CF00EFD09B030BDB2
:101DE00080190300F0B50C46C91191B04131C9B258
:101DF00004A8164601342CF0D5FD2149A4B2A1FB5C
:101E000004310A22490968462CF07CFD694604A881
:101E10002CF090FE1B4BA3FB0425ED08A9B2A3FBFD
:101E20000123DB0803EB8303A1EB430107460A22EE
:101E300089B208A82CF066FD08A938462CF07AFE75
:101E400005EB8505A4EB45010A22074689B20CA8DB
:101E50002CF058FD0CA938462CF06CFE014630469B
:101E60002CF032FE0CA82CF0C7FC08A82CF0C4FC07
:101E700068462CF0C1FC04A82CF0BEFC11B0F0BDEB
:101E80001F85EB51CDCCCCCC2DE9F04190F84D30F5
:101E900090B007460D461646002B47D0B0F84810C4
:101EA0003D4C01EB810189114131C9B204A82CF0EC
:101EB00079FDB7F84810A4FB01310A22C908684629
:101EC0002CF020FD694604A82CF034FEB7F8481029
:101ED000A4FB0134E40804EB8404A1EB4401804634
:101EE0000A2289B208A82CF00DFD08A940462CF062
:101EF00021FE0A22044629460CA82CF003FD0CA959
:101F000020462CF017FE014630462CF0DDFD0CA8D3
:101F10002CF072FC08A82CF06FFC68462CF06CFCCE
:101F200004A82CF069FC10B0BDE8F081B0F848308E
:101F300001EB81014A00642101FB0321C9114131F8
:101F4000C9B208A82CF02EFDB7F848100A2204A840
:101F50002CF0D8FC04A908A82CF0ECFD0A220446B9
:101F600029460CA82CF0CEFC0CA920462CF0E2FD52
:101F70000A492CF0E7FD014630462CF0A5FD0CA8DF
:101F80002CF03AFC04A82CF037FC08A82CF034FC08
:101F900010B0BDE8F08100BFCDCCCCCC5C5C0300C0
:101FA000F0B50D468DB0184C013504A850211646E9
:101FB00084FB05342CF0F6FCEB17C3EBA40421469C
:101FC0000A2268462CF09EFC694604A82CF0B2FD5B
:101FD00004EB84010A220746A5EB410108A82CF076
:101FE00091FC08A938462CF0A5FD014630462CF09E
:101FF0006BFD08A82CF000FC68462CF0FDFB04A843
:102000002CF0FAFB0DB0F0BD6766666670B523294B
:1020100001F0030588B00C46164605F141051CD9B0
:1020200004A846212CF0BEFCA1080A220839684603
:102030002CF068FC694604A82CF07CFD29462CF0A5
:102040008FFD014630462CF03FFD68462CF0D4FB56
:1020500004A82CF0D1FB08B070BD89080A22013118
:1020600068462CF04FFC694604A82CF019FC294660
:1020700004A82CF075FD014630462CF025FD04A87F
:102080002CF0BAFB68462CF0B7FB08B070BD00BF5F
:10209000F0B590F84D3089B0044616460D46DBB9D0
:1020A000B0F84830002B3BD10A2268462CF02AFCBD
:1020B000694604A82CF0F4FB04A82A492CF042FD40
:1020C000014630462CF000FD04A82CF095FB684634
:1020D0002CF092FB09B0F0BD01F00307232907F1B2
:1020E00041072ED9462104A82CF05CFCB4F8481016
:1020F0000A22083968462CF005FC694604A82CF031
:1021000019FD39462CF02CFD014630462CF0DCFC44
:1021100068462CF071FB04A82CF06EFB09B0F0BDF2
:1021200004A846212CF03EFC29460A2268462CF0E1
:10213000E9FB694604A82CF0FDFC0A492CF002FDDD
:10214000E2E7B0F848100A22013168462CF0DAFBC9
:10215000694604A82CF0A4FB394604A82CF000FD25
:10216000AEE700BF5C5C030070B590F84D308CB0FA
:102170000C461546EBB9052908A84FD950212CF07B
:1021800011FC611F0A2204A82CF0BCFB04A908A8BA
:102190002CF0D0FC24492CF0D5FC014628462CF02C
:1021A00093FC04A82CF028FB08A82CF025FB0CB00D
:1021B00070BD90F848600A2313FB0613322B28DD0C
:1021C000502110462CF092FC053EF6B2314668468E
:1021D0002CF084FB694608A82CF062FB0A222146F9
:1021E00004A82CF08FFB04A908A82CF0A3FC0F492D
:1021F0002CF0A8FC014628462CF066FC04A82CF024
:10220000FBFA08A82CF0F8FA68462CF0F5FA0CB0A6
:1022100070BD552110462CF069FCD7E755212CF0F4
:10222000C1FB2146AEE700BF605C0300645C0300B5
:1022300008B5044829F0CEFC0348BDE8084029F061
:10224000C9BC00BFA06E0020B86E00202DE9F0418F
:102250000446FEF7D7FD1F4A1F4B1068C4F806005E
:1022600007CB02271D8893F802802771CF234FF0F8
:10227000C70CC4F80E004FF0040E0120C4F8121071
:10228000CD270021658304F19A05C4F8162084F84F
:102290008D3084F81C80A4F844C084F850E084F8A1
:1022A0008C702A4684F82800E07784F8200084F8AF
:1022B0006A00A4F84210616584F88E1084F88F10CB
:1022C00004F1920303F8010FAB4202F8011FF9D1A8
:1022D000BDE8F081685C03006C5C0300F8B51C4D40
:1022E0000446FEF78FFD1B4B2868C4F8060003CB9D
:1022F0002D79B3F800C0A5729B78C4F80E000225B2
:1023000001222571CD26C4F81210CF250421D0203A
:10231000237600234FF0620E0527A4F816C084F838
:102320008C6084F88D5084F88E0084F8933084F8A3
:10233000943084F88F3084F85010E17784F82020AE
:10234000A4F844E06765A4F8423084F85220F8BD50
:102350007C5C0300845C03002DE9F041214E0446BF
:10236000FEF750FD204B3068C4F8060007CB3679E5
:102370001B78A672A37602260A2326714FF0040C5E
:10238000C4F80E004FF0280EC4F812100327C4F84A
:1023900016200826CD20CF21D022636500234FF4DC
:1023A0002478012584F850C084F893E0E77784F816
:1023B000206084F88C0084F88D1084F88E2084F8D6
:1023C000943084F8953084F8963084F8973084F807
:1023D0008F30A4F8448084F85250A4F84230BDE80D
:1023E000F08100BF905C0300985C03002DE9F04190
:1023F0000446FEF707FD1C4B1C4D1868C4F8060088
:102400000FCD022626714FF0040CC4F80E004FF0D9
:102410000A0ECD27C4F81620CF260122C4F81A30A0
:10242000D32000234FF41C78C4F8121084F850C055
:102430000F4984F81FE084F88C7084F88D6084F86C
:102440008E0084F88F3084F8202084F8212084F8CE
:102450009520A4F84480C4F88810A4F8423063653D
:1024600084F89430BDE8F081A85C0300AC5C030004
:1024700080C3C901F8B50446FEF7C4FC184A194BDD
:102480001068C4F8060003CB02271E8827710423B6
:10249000C4F80E000627E682C4F812100126CD20EB
:1024A000CF21D22284F8503000230F4DE7774FF030
:1024B0000B0E84F8206084F88C0084F88D1084F86A
:1024C0008E2084F88F30C4F89330A4F844E0C4F828
:1024D0008850A4F84230636584F89930E366F8BD0B
:1024E000BC5C0300C05C030080C3C901F8B5184D93
:1024F0000446FEF787FC174B2868C4F8060003CB98
:10250000AD881B8865810225012204272571C4F846
:102510000E000625E382CD200023C4F81210DA2134
:102520004FF0470E052684F85070E57784F88C004C
:1025300084F88D1084F88E3084F88F3084F8202051
:1025400084F82120A4F844E06665A4F84230F8BD80
:10255000D05C0300CC5C0300F8B50446FEF752FCE7
:10256000164B174D1868C4F806000FCD02262671C9
:102570000427C4F80E000726C4F81210CD20C4F8B2
:102580001620CF210122C4F81A30002340F22B1E5E
:1025900084F85070E67784F88C0084F88D1084F805
:1025A0008E3084F88F3084F8202084F82120A4F81D
:1025B00044E0A4F842306365F8BD00BFD85C030076
:1025C000DC5C0300F8B50446FEF71CFC154A164B0C
:1025D0001068C4F8060003CB022301220427CD268D
:1025E0002371CF2500234FF0630C4FF0050EC4F884
:1025F0000E00C4F8121084F8507084F88C6084F8CF
:102600008D5084F8283084F88E3084F88F30E2774B
:1026100084F82020A4F844C0C4F854E0A4F8423060
:10262000F8BD00BFEC5C0300F05C0300F8B5194E88
:102630000446FEF7E7FB184B3068C4F8060007CBEA
:1026400036791B88A672022626710427C4F80E006C
:1026500001266383CD200023C4F81210C4F816208D
:10266000CF2105224FF0310E84F8507084F820609D
:1026700084F88C0084F88D1084F88E3084F88F30C4
:10268000E277A4F844E0A4F8423084F83231E366FB
:102690006265F8BDF85C0300005D0300F8B5224EEA
:1026A0000446FEF7AFFB214B3068C4F8060007CBA9
:1026B000B3F800C093F802E0B68866810223237164
:1026C00003230025C4F80E00C4F81210C4F8162025
:1026D000CD20CF21D12284F8933040F27F170123FF
:1026E000042684F88C0084F88D1084F88E20A4F8D9
:1026F0001AC084F81CE0A4F8447084F85060A4F870
:102700004250656584F88F50E37784F8203084F870
:102710002130294604F194005D222EF037F984F827
:10272000F25084F8F350F8BD105D0300185D03000B
:10273000F8B5224D0446FEF765FB214B2868C4F826
:10274000060007CBAD8865810225C4F80E00C4F8E9
:102750001210C4F816201121257104F130002CF05C
:1027600053F8042384F8503000210123154A1648F9
:1027700061654FF0CD0ED127D22684F88F1084F8F2
:10278000203084F82130E57784F88CE084F88D706F
:1027900084F88E60C4F8882002680C4B84F893108B
:1027A00042F400727F21A4F8441002601A6822F0FB
:1027B00010021A601A682A431A60F8BD285D0300E7
:1027C000305D030080C3C9013C800440009002409A
:1027D000F8B52D4D0446FEF715FB2C4B2868C4F8C0
:1027E000060007CB2D792A4BA57204260025C4F8D4
:1027F0000E00C4F8121002204FF09E0CC4F81620F0
:102800004FF0050ED7220127CD2184F89350207177
:10281000A4F84250E07784F88E5084F88F5084F802
:102820008D2084F8946084F850601A4DA4F844C058
:10283000C4F854E084F8207084F88C1003F6187003
:102840000B2201E013F81C2C511E1C3312B16A5CE0
:1028500001326A548342F5D1292240F20D130E4D04
:102860000E4E4FF6FF7001E016F8122025F81230D8
:10287000591E8BB28342C3EBC302F5D1002384F807
:102880006E31C4F87C31F8BD3C5D0300445D03004B
:10289000C1D10300B06A0020940A0020A4EC030018
:1028A000F8B5234E234C0546FEF7ACFA224B3068B0
:1028B000C5F8060007CB36791F78AE72C5F80E0052
:1028C0000226042040F28F1CAF76C5F812104FF09C
:1028D000090EC5F81620CD270022D02185F850001A
:1028E000A5F8422085F8932085F894206A6585F83C
:1028F0008E2085F88F20114B2E71EE77A5F844C0FD
:102900000F4885F820E085F88C7085F88D100C2232
:1029100001E013F8182C511E183312B1425C013239
:102920004254A342F5D1002385F85130F8BD00BFD1
:10293000505D03009B540400585D03006B4204008B
:10294000A431002010B5034C20682DF0E5FC0023D5
:10295000236010BD4834002010B504462BF0B6FEAD
:10296000204610BD0B290ED9A1F117030A2B07D958
:10297000A1F122031F2B9ABF1E31C8B2002070475D
:102980000239C8B270470131C8B2704770B5054608
:102990000C460AB990F86A20012A32D0022A11D0D6
:1029A00004EBC40304EB4304A400174A04F11C0322
:1029B0002C3413442021224403F8011F9342FBD1FD
:1029C000012070BD0A21104E104A4C2303FB046302
:1029D000284683F83C102B68D3F8C43093420ED1BC
:1029E000FFF7C0FF4C2303FB0463214683F830004C
:1029F0002B682846D3F8D4309847002070BD9847FC
:102A0000F0E70821DFE700BF1C30FF1F6529000049
:102A100030B590F84D3085B00D461446A3B190F80E
:102A200048104131C9B210462CF060F80A222946FC
:102A300068462BF067FF694620462CF045F868464B
:102A40002BF0DAFE05B030BD41311046C9B22CF092
:102A50004DF8204602492CF03BF805B030BD00BFD0
:102A60005C5C030010B584B00A220C46014668463F
:102A70002BF048FF694620462CF026F868462BF0DC
:102A8000BBFE04B010BD00BF542905D8012A18466A
:102A90000CD008492CF01CB85C2903D9184606490B
:102AA0002CF016B819461046FFF7DCBF03492CF08E
:102AB0000FB800BF285C030014790300CC67030043
:102AC00030B590F84D308DB0144613B30D460A2240
:102AD000B0F8481068462BF015FF694608A82BF09F
:102AE000DFFE0A22294604A82BF00CFF04A908A83F
:102AF0002CF020F8014620462BF0E6FF04A82BF02E
:102B00007BFE08A82BF078FE68462BF075FE0DB012
:102B100030BD0A2208A82BF0F5FE08A904A82BF066
:102B2000BFFE04A807492CF00DF8014620462BF003
:102B3000CBFF04A82BF060FE08A82BF05DFE0DB0C3
:102B400030BD00BF5C5C030070B590F84D308CB0B8
:102B50000E4615463BB30446502104A82BF022FF35
:102B6000B4F848100A2268462BF0CCFE694604A847
:102B70002BF0E0FF0A220446314608A82BF0C2FEE3
:102B800008A920462BF0D6FF014628462BF09CFFD3
:102B900008A82BF031FE68462BF02EFE04A82BF07F
:102BA0002BFE0CB070BD04A850212BF0FBFE0A22B6
:102BB000314608A82BF0A6FE08A904A82BF0BAFFFE
:102BC00007492BF0BFFF014628462BF07DFF08A8E0
:102BD0002BF012FE04A82BF00FFE0CB070BD00BF4E
:102BE0005C5C030030B5072989B0154605D910464D
:102BF0000F492BF06DFF09B030BD0C4668460D49FA
:102C00002BF03AFE0A22611C04A82BF07BFE04A9DB
:102C100068462BF08FFF014628462BF055FF04A88D
:102C20002BF0EAFD68462BF0E7FD09B030BD00BF90
:102C3000005C0300685D030030B5072989B01546C4
:102C400005D910460F492BF043FF09B030BD0C46A3
:102C500068460D492BF010FE0A22611C04A82BF0D7
:102C600051FE04A968462BF065FF014628462BF06B
:102C70002BFF04A82BF0C0FD68462BF0BDFD09B06A
:102C800030BD00BF005C03003C5C030030B590F831
:102C90004D308DB014462BB30D460A22B0F84810C3
:102CA00068462BF02FFE694608A82BF0F9FD0A2292
:102CB000294604A82BF026FE04A908A82BF03AFF09
:102CC00014492BF03FFF014620462BF0FDFE04A8DF
:102CD0002BF092FD08A82BF08FFD68462BF08CFDA1
:102CE0000DB030BD0A2208A82BF00CFE08A904A8DC
:102CF0002BF0D6FD04A808492BF024FF01462046FE
:102D00002BF0E2FE04A82BF077FD08A82BF074FD51
:102D10000DB030BD5C5C0300705D0300F0B516467D
:102D20008DB000294DD008290C4631D9284D2949AC
:102D3000093C85FB0435A5EBE47568462BF09CFD4A
:102D40000A22294604A82BF0DDFD04A968462BF0D1
:102D5000F1FE21492BF0F6FE05EB4505611B0A2229
:102D60000746013108A82BF0CDFD08A938462BF005
:102D7000E1FE014630462BF0A7FE08A82BF03CFDF3
:102D800004A82BF039FD68462BF036FD0DB0F0BDE0
:102D900008A812492BF070FD0A22214604A82BF046
:102DA000B1FD04A908A82BF0C5FE014630462BF062
:102DB0008BFE04A82BF020FD08A82BF01DFD0DB004
:102DC000F0BD104606492BF083FE0DB0F0BD00BFEC
:102DD00056555555145C0300BC740300245C030075
:102DE000745D030030B589B005460C4604A80B4954
:102DF0002BF042FD294668462BF070FD694604A879
:102E00002BF098FE014620462BF0FEFD68462BF085
:102E1000F3FC04A82BF0F0FC09B030BD785D030092
:102E20004BB2002B084602DD1146FFF7DBBF104610
:102E300001492BF0F9BD00BFD85B030011290B46F7
:102E400009D95F2903D9104606492BF0EDBD11467B
:102E50001846FFF7C7BF0449104601EB03112BF0DA
:102E6000E3BD00BFD85B03006C54040030B54B1EBB
:102E7000072B89B00C46154629D909293FD00A29C4
:102E800042D00B2945D00C2948D0A1F10D03722B5B
:102E900005D9104624492BF0C7FD09B030BD68465E
:102EA00022492BF0E9FC214604A82BF017FD04A9C8
:102EB00068462BF03FFE014628462BF0A5FD04A8EE
:102EC0002BF09AFC68462BF097FC09B030BD04A8A3
:102ED00017492BF0D1FC214668462BF0FFFC6946D0
:102EE00004A82BF027FE014628462BF08DFD6846EE
:102EF0002BF082FC04A82BF07FFC09B030BD1046FB
:102F00000C492BF091FDC8E710460B492BF08CFDC6
:102F1000C3E7104609492BF087FDBEE71046084974
:102F20002BF082FDB9E700BFD85B0300785D03009A
:102F30007C5D0300885D0300945D0300A45D0300D5
:102F4000B05D030030B589B005460C4604A80D49B4
:102F50002BF092FC0A22691C68462BF0D3FC6946D0
:102F600004A82BF0E7FD08492BF0ECFD01462046B4
:102F70002BF04AFD68462BF03FFC04A82BF03CFCEC
:102F800009B030BDC05D0300C45D030000EB8000EC
:102F900000EB800001F01F010844084B33F81000DB
:102FA00058B1074A32F81030012033B132F81330EB
:102FB0000130C0B2002BF9D1704770474C3400206B
:102FC000AC1F0020034B1B78032B02D8024B0122BD
:102FD0001A7070479471FF1F7870FF1F2DE9F04140
:102FE000204F4C2404FB00748846617A062916465B
:102FF00020D0FF2918D049B11B4B618E53F828000F
:103000000368BDE8F041D3F8803018473C211046F2
:103010002BF06CFD144B618E53F828000368324688
:10302000DB6FBDE8F041184710461049BDE8F0419C
:103030002BF04EBDE37A05467BB910462BF056FDCA
:10304000094B53F828004C2202FB05750368698E72
:10305000DB6F3246BDE8F0411847052110462BF0E2
:1030600045FDEDE71C30FF1F3C09FF1FC85D030055
:103070002DE9F04100EB001466001B4B112414FBFA
:1030800001661E4402F1100C14464FF00008FF25A3
:10309000A31A16F801EF14F8017BBE45DBB204D089
:1030A000FF2D08BF1D46377098466445F0D1FF2DAF
:1030B00016D010B10120BDE8F08114460B480A4635
:1030C000294625F07DFB4545F4D8615D074801356B
:1030D000EDB225F0E1FA4545F7D90120BDE8F081D0
:1030E0000020BDE8F08100BFA36800203469002003
:1030F000024B1A5C0AB100221A547047582D002066
:1031000010B4094B094A19680948137883B083F051
:1031100001030191019C07490460012013700870AC
:1031200003B05DF8044B70479C7500207409FF1FC5
:10313000701E00203A09FF1F10B5037A0022022BEF
:103140000446427482B0007826D029F0DFFB08B92B
:1031500001236374607829F0D9FB70B11549637C51
:103160000968A27C0191019961619A421FD08BB9D3
:103170000120E274A37402B010BD237F002BEDD1B7
:103180000C4BA27C1B680193019B636102239A4252
:1031900063740CD00022EBE729F0B8FB012808BFCC
:1031A0006074607829F0B2FB0128D7D1E8E70020ED
:1031B00002B010BD9C75002030B4416D084D846D87
:1031C00082B02B680193019B054A1B1B8B42F8D9E7
:1031D00013680093009B836502B030BC704700BF4A
:1031E0009C75002010B51B4CE3780D2B00D910BD49
:1031F000194AE17952F823000368D3F89C309847C4
:1032000008B10138C0B2637A032B1ED8DFE803F09F
:103210001919130202B2114B11496074520083FB59
:1032200002E3A1FB0010A3EBE27340080022E3736A
:103230006073E27210BD42080023E0736273E372B0
:1032400010BD0023E072637310BD00236073E3724E
:10325000CDE700BFB80AFF1F3C09FF1F5655555563
:10326000ABAAAAAA10B40A4A0A49137809780A48EC
:1032700099428CBF013301231370084A0849002387
:103280000124137004700B705DF8044B704700BF8D
:10329000A0AEFF1F8109FF1F7870FF1FE9120020F9
:1032A000856E0020084A10B402F12E048179C3799A
:1032B00003EBC11302F8013F944200F10200F5D183
:1032C0005DF8044B704700BFA31E00200E4A4379EF
:1032D000127801339A4201D00020704790F8943060
:1032E000FF2B08D0094A4C2000FB01214A8ED1084F
:1032F000B1EB530F01D001207047B3EB920F0CBF1D
:1033000001200020704700BF721000201C30FF1FFA
:10331000144A4379127801339A4201D00020704751
:1033200090F89D20FF2A1BD030B40F4C0F4B104853
:103330004C2505FB0141A0FB0254498EA3FB015320
:103340005B08B3EB540F02D0012030BC7047A0FBE8
:103350000131B2EB510F0CBF0120002030BC70478F
:1033600001207047721000201C30FF1F398EE33897
:10337000ABAAAAAA0A7ACB7970B412044E7A8C7AD4
:103380000B4D02EB036202EB06232344AB420AD04F
:10339000084A934205D1CB7A80F89430002380F814
:1033A000533070BC7047CB7A80F8933070BC704754
:1033B0000030006000380060184B10B4A3FB0123FC
:1033C000DB08DCB2021903EB830390F8A50092F846
:1033D0009E20A1EB43039BB288B1022A84BF053231
:1033E000D2B202EB820203EB42030D490D4A31F8DF
:1033F000230052F824305DF8044B1844704702EB68
:10340000820203EB42030649074A31F8230052F8CF
:1034100024305DF8044B1844704700BFCDCCCCCCB1
:10342000CC500300A42A0300482C0400F0B590F807
:103430004E609DF8145026B190F82170AF420446BA
:1034400000D0F0BD90F820509D42FAD13C2924D004
:10345000DFF860C016489CF800E000239C341F464B
:103460003E2506E00133092B04F1010410D010F8C9
:103470000A5CA94200F10A00F4D10BB104F8092C4E
:10348000151C18BF012537464FF0020E2570E9E7DD
:10349000002FD6D08CF800E0F0BD838C92B293421E
:1034A000CFD00168C38482848B6CBDE8F04018479C
:1034B000A42A0400A00E0020044B82B01B680193D4
:1034C000019B03F5FA73C36602B070479C75002038
:1034D00038B5134D2B680446D3B100210D4618466C
:1034E0004FF407722DF052FA204684F8975084F872
:1034F0009850FFF7E1FF0B4A236815709B6C20463C
:103500009847094A02210123117084F86A3038BDB6
:103510004FF407702CF0F8FE28600346DDE700BF8B
:10352000483400208009FF1FA00E002030B490F81E
:103530004E409DF808501CB190F82140AC4201D09B
:1035400030BC704790F820409C42F9D1A1B10C4B9F
:10355000933003F23B15502405E0AB4200F101002B
:10356000EED013F8154CA14203F11503F5D1141C4C
:1035700018BF01240470F0E780F84C20E0E700BF9A
:10358000329F030030B42E4A90F8A5401A2303FB63
:10359000012334BBDB88512B36D0522B37D01D048E
:1035A00044BFC3F30E0343F4803303F180531A2561
:1035B00005FB01214A7E8AB102F00F01084402F0A6
:1035C000F002102A90F89D1027D0202A06D14CBB7B
:1035D000042931D0052901D103F20123184630BC5A
:1035E00070471B89512B0CD0522B13D01D0444BFA4
:1035F000C3F30E0343F4803303F1805303F5003328
:10360000D5E7104830BC70470F4830BC70470F48B2
:1036100030BC70470E4830BC70470129DED103F240
:103620000620EFE7042904D00529D7D103F5FA7065
:10363000E8E703F1F200E5E703F581731846CEE70A
:10364000B0B803003F1008003F1001002110010036
:103650002110080090F89330DBB1254BC1EBC1017C
:1036600003EB81014B8803F47042B2F5204F1AD06E
:1036700020D8B2F5004F35D0B2F5104F27D190F8D1
:103680006C111C4A32F8110003F00F03184480B289
:103690007047C1EBC101164B33F8213003F470427F
:1036A000B2F5204FE4D190F86D21012A14BF072113
:1036B0002921E6E7B2F5304F0CD0B2F5404F06D1E4
:1036C00090F86E21012A14BF07212921D9E74FF66E
:1036D000FF70704790F86F213AB1012A14BF25217D
:1036E0002821CEE790F86A11CBE70221C9E700BF95
:1036F0008CD10300940A002089291DD8F8B5CE008A
:103700001C4D90F89470721A05EB8202927EBA42B8
:1037100010D80C46FFF79EFF4FF6FF7398420DD06E
:10372000B0F5877F06D2144BC0EBC00003EB40001E
:103730004078F8BD0020F8BD00207047282C0ED03E
:10374000182C06D0472C04D0341B05EB84052879AF
:10375000F8BD012F07D9022F07D12520F8BD022F70
:10376000F2D91A20F8BD2420F8BD032FECD1272070
:10377000F8BD00BF8CD10300A4EC03004A7A0B7A99
:1037800070B412048E7ACC7A0B4D02EB036202EB1A
:1037900006232344AB420AD0084A934205D10B7B4F
:1037A00080F89430002380F8533070BC70470B7B56
:1037B00080F8933070BC704700100020040800208F
:1037C0000A7ACB7970B412044E7A8C7A134D02EBDC
:1037D000036202EB06232344AB420FD0104A93420C
:1037E00007D0104A93420ED1CB7A80F8963070BC45
:1037F0007047CB7A80F8953070BC7047CB7A80F8F0
:10380000943070BC7047084A9342F0D1CB7A80F86C
:103810009730002380F8533070BC704703200018A5
:10382000032100180A10001832020018094B93F8FF
:103830002D20042A00D0704790F85220002AFAD197
:1038400090F851100029F6D0016880F85120CB6B18
:10385000184700BFA41E00200E4A43791278013396
:103860009A4201D00020704790F8A430FF2B08D076
:10387000094A4C2000FB01214A8ED108B1EB530FBD
:1038800001D001207047B3EB920F0CBF0120002044
:10389000704700BF721000201C30FF1F0E4A437992
:1038A000127801339A4201D00020704790F8A53079
:1038B000FF2B08D0094A4C2000FB01214A8ED10879
:1038C000B1EB530F01D001207047B3EB920F0CBF47
:1038D00001200020704700BF721000201C30FF1F25
:1038E000F0B590F84D300F4691B005461646B0F849
:1038F0004810002B39D02E4CA4FB01310A22C908F4
:1039000008A82AF0FFFF08A90CA82AF0C9FFB5F8FB
:103910004810A4FB0134E40804EB8404A1EB440147
:103920000A2289B204A82AF0EDFF04A90CA82BF002
:1039300001F90A220446394668462AF0E3FF69463F
:1039400020462BF0F7F8014630462BF0BDF86846CC
:103950002AF052FF04A82AF04FFF0CA82AF04CFFCF
:1039600008A82AF049FF11B0F0BD0A2204A82AF0E5
:10397000C9FF04A90CA82AF093FF0A22394608A817
:103980002AF0C0FF08A90CA82BF0D4F809492BF0A5
:10399000D9F8014630462BF097F808A82AF02CFFFA
:1039A0000CA82AF029FF04A82AF026FF11B0F0BDC8
:1039B000CDCCCCCC5C5C0300F0B590F84D300F461C
:1039C00091B005461646B0F84810002B39D02E4C61
:1039D000A4FB01310A22C90808A82AF093FF08A90C
:1039E0000CA82AF05DFFB5F84810A4FB0134E408E8
:1039F00004EB8404A1EB44010A2289B204A82AF052
:103A000081FF04A90CA82BF095F80A220446394638
:103A100068462AF077FF694620462BF08BF801466E
:103A200030462BF051F868462AF0E6FE04A82AF04A
:103A3000E3FE0CA82AF0E0FE08A82AF0DDFE11B093
:103A4000F0BD0A2204A82AF05DFF04A90CA82AF000
:103A500027FF0A22394608A82AF054FF08A90CA813
:103A60002BF068F809492BF06DF8014630462BF031
:103A70002BF808A82AF0C0FE0CA82AF0BDFE04A866
:103A80002AF0BAFE11B0F0BDCDCCCCCC5C5C03000A
:103A900070B590F84D308CB00E46154653B30446C1
:103AA000552108A82AF07EFFB4F848100A2204A87D
:103AB0002AF028FF04A908A82BF03CF80A220446A3
:103AC000314668462AF01EFF694620462BF032F840
:103AD00016492BF037F8014628462AF0F5FF6846CC
:103AE0002AF08AFE04A82AF087FE08A82AF084FE9D
:103AF0000CB070BD08A855212AF054FF0A223146A7
:103B000004A82AF0FFFE04A908A82BF013F808491E
:103B10002BF018F8014628462AF0D6FF04A82AF010
:103B20006BFE08A82AF068FE0CB070BD645C030050
:103B3000605C03005C2920D8542938B513D9154698
:103B40000C46811D10462AF0C3FF202128462AF08A
:103B5000CDFF0A4BC4EBC401284603EB4101BDE88D
:103B600038402AF0B5BF054BC1EBC10103EB410161
:103B70001046BDE838402AF0ABBF7047102B030059
:103B800090F8693003B9704730B50D46044685B0EA
:103B90002D2128462AF0AAFF94F8691068462AF0D9
:103BA0009DFE694628462AF08FFF68462AF024FECB
:103BB00005B030BD90F84E2080F8512002B9704712
:103BC0000268818C536C184790F84D309BB1B0F867
:103BD000483003B9E9B1B0F84420B0F8420003EB33
:103BE0008303121A01EB4301531CB3EB810FACBFEB
:103BF000012000207047B0F84430B0F842209B1AF2
:103C000001EB81010133B3EBC10FACBF01200020F8
:103C100070470846704700BF38B590F84E501DB148
:103C200090F821509D4200D038BD90F8203093424A
:103C3000FAD1838C89B28B42F6D090F84C5002684E
:103C4000C38401EBC511936C81849847014B022218
:103C50001A70E9E7A00E002038B590F821509D4277
:103C600000D038BD90F820309342FAD1838C89B2CD
:103C70008B42F6D00268C3848184936C9847024BD0
:103C800002221A70EDE700BFA00E002090F86A3003
:103C900093B10133DBB2032B88BF012380F86A3074
:103CA000036810B5D3F8E8300C469847034A044B34
:103CB000147001221A7010BD704700BF9471FF1F6D
:103CC000A00E002090F84D3063B1B0F84820B0F855
:103CD000423003EBC200084480B200B9704701389B
:103CE00080B27047B0F84830B0F8420003EB83036D
:103CF00001EB430100EBC10188B2704790F84D30F1
:103D00006BB1B0F8483023B908298CBF00200120DE
:103D10007047481E07288CBF002001207047B0F86C
:103D2000483010B4C3EB0313B0F84440B0F842007D
:103D30005A000323201A13FB01218142CCBF00202B
:103D400001205DF8044B704710B590F821409C426B
:103D500000D010BD90F820309342FAD1042915D03C
:103D6000032996BF013189B2C9B2838C8B42F0D04E
:103D70000268C3840446136D8184984723682046F3
:103D80009B6C9847024B02221A70E2E70021ECE795
:103D9000A00E002030B490F8953063B390F84D3009
:103DA0002BB1B0F84830B3B9A9B9084611E0B0F862
:103DB0004850B0F84430B0F842404FF4FA7202FB79
:103DC00005F0322212FB01011B1B9942CCBF0020DF
:103DD000012030BC7047B0F84420B0F842003224D3
:103DE00001EB8101101A04FB03118142CCBF0020BA
:103DF000012030BC7047012030BC7047037900229D
:103E0000022B80F84F2000D0704790F84E30002BE6
:103E1000FAD1012380F8211080F89330704700BF59
:103E200038B590F821509D4200D038BD90F8203030
:103E30009342FAD1838C89B28B42F6D00268C38454
:103E40008184936C9847024B02221A70EDE700BF01
:103E5000A00E002090F84D3093B1B0F8483003B96F
:103E6000D9B1B0F84420B0F8420003EB830301EB72
:103E70004301131AB3EB810FACBF01200020704740
:103E8000B0F84430B0F8422001EB81019B1AB3EB4B
:103E9000C10FACBF0120002070470846704700BF2B
:103EA00090F8982002B9704703685B6F184700BF0D
:103EB00038B590F821509D4200D038BD90F82030A0
:103EC0009342FAD190F84C20838C01EBC2119942B5
:103ED000F3D00268C3848184936C9847014B02221B
:103EE0001A70EAE7A00E00200379022B01D00846E1
:103EF0007047002370B41A4600F1930403E00132C6
:103F0000D2B25D2B0AD014F8015FDEB20133002D6E
:103F1000F7D09142F3D1B0B270BC70474FF6FF704A
:103F200070BC704790F84D3083B1B0F8483090F8CD
:103F3000280003EB830301EB430189B281422CBFCC
:103F4000C0EB0100C0EB000080B27047B0F8480041
:103F500001EB810100EB8000490000EB800001EBE8
:103F6000800080B2704700BF90F84D3073B9B0F850
:103F70004820B0F84400642303FB02F20A2313FB39
:103F800001218142CCBF00200120704701207047F1
:103F900030B490F821509D4201D030BC704790F869
:103FA00020309342F9D1838C89B28B42F5D00268DC
:103FB000C3848184936C30BC184700BFA1F10B030C
:103FC000032B0DD90368084AD3F89830934210B5F3
:103FD0000C4607D11220844234BF0220002010BDBD
:103FE000802070479847F6E70108000030B5036865
:103FF0000F4DD3F89830AB4283B00C4614D15D20FE
:10400000A04206D80B49104603B0BDE830402AF064
:104010000BBD0949C4EBC404104601EB440103B0D5
:10402000BDE830402AF000BD01929847019AE7E7C9
:104030002106000014790300102B030030B503683B
:10404000104DD3F89830AB4283B00C4615D1082000
:10405000A04206D80C49104603B0BDE830402AF013
:10406000E3BC04EB8403094904EB430410462144F8
:1040700003B0BDE830402AF0D7BC01929847019ABE
:10408000E6E700BF51060000147903003E37040044
:1040900003680B4AD3F89830934205D10820884230
:1040A0008CBF02200020704700B583B00191984773
:1040B000019988428CBF0220002003B05DF804FB08
:1040C0005106000030B504680F4DD4F89840AC425A
:1040D00085B012D108208842184608D9012A0CBFA1
:1040E0000A490B4905B0BDE830402AF0F1BC094946
:1040F00005B0BDE830402AF0EBBC03930292019179
:10410000A04701A90EC9E6E751060000CC670300ED
:10411000285C03001479030030B50368104DD3F810
:104120009830AB4283B00C4615D12F20A04206D860
:104130000C49104603B0BDE830402AF075BC0A496E
:1041400004EB440401EBC4011046093103B0BDE89F
:1041500030402AF069BC01929847019AE6E700BF17
:104160005506000014790300509A0300F0B5046866
:104170003B4FD4F89850BD428BB016461C462FD109
:104180002F20884226D9374801EB410100EBC101BD
:10419000898A0BB2002B4BDD47F61643994223D098
:1041A00047F6174399424CD047F61543994221D020
:1041B0008A19013A2C4902EBC202114406A82AF0DE
:1041C0005BFB06A920462AF07FFC06A82AF014FB18
:1041D0000BB0F0BD204625492AF07AFC0BB0F0BDAB
:1041E0000191A8470199CCE7710006A80A222AF09C
:1041F00089FBE6E73F2E26D9402E2BD0EED91C496D
:1042000006A82AF039FBA6F132010A2202A82AF0F8
:1042100079FB02A906A82AF08DFC014620462AF067
:1042200053FC02A82AF0E8FA06A82AF0E5FAD5E736
:10423000012E20460CBF0F490F492AF049FC0BB054
:10424000F0BD3146D1E70D4906A82AF015FBC6F1AD
:104250003201DAE720460A492AF03AFCBEE700BFFD
:1042600055060000509A030010480300147903001B
:1042700024700300CC670300285C0300205C03006B
:10428000186C030030B50368104DD3F89830AB427A
:1042900083B00C4615D12E20A04206D80C491046FA
:1042A00003B0BDE830402AF0BFBB0A4904EB440428
:1042B00001EBC4011046093103B0BDE830402AF0DB
:1042C000B3BB01929847019AE6E700BFD906000008
:1042D0001479030000140400F0B50468394FD4F8D1
:1042E0009850BD428BB016461C4628D12E208842DD
:1042F0001FD9354801EB410100EBC101898A0BB29E
:10430000002B49DD47F6154399421CD03AD347F6B6
:104310001743994236D8314606A80A222AF0F2FA03
:1043200006A920462AF0D0FB06A82AF065FA0BB0B1
:10433000F0BD204625492AF0CBFB0BB0F0BD019122
:10434000A8470199D3E73F2E2FD9402E34D0F4D976
:104350001F4906A82AF090FAA6F132010A2202A803
:104360002AF0D0FA02A906A82AF0E4FB014620466A
:104370002AF0AAFB02A82AF03FFA06A82AF03CFA83
:104380000BB0F0BD8A19013A124902EBC202114486
:1043900006A82AF071FAC3E7012E20460CBF0E4989
:1043A0000E492AF095FB0BB0F0BD0D4906A82AF086
:1043B00063FAC6F13201D1E720460A492AF088FBA8
:1043C000BBE700BFD9060000001404001479030005
:1043D00024700300B43A0400CC670300285C030097
:1043E000205C0300186C030030B50368104DD3F84F
:1043F0009830AB4283B00C4615D11020A04206D8AD
:104400000C49104603B0BDE830402AF00DBB04EB68
:104410004403094904EB83041046214403B0BDE87A
:1044200030402AF001BB01929847019AE6E700BFAD
:104430001509000014790300B829040030B5046898
:104440000E4DD4F89840AC4285B010D1102088426F
:1044500006D80B49184605B0BDE830402AF038BBF5
:104460001946104605B0BDE83040FEF7FBBA03938D
:1044700002920191A04701A90EC9E8E715090000C1
:10448000D05D030010B503680F4CD3F89830A342F9
:1044900082B012D11220884206D80C49104602B0D0
:1044A000BDE810402AF0C0BA094B104603EB0111D9
:1044B00002B0BDE810402AF0B7BA8DE80600984770
:1044C0009DE80600E7E700BF01080000147903003B
:1044D0009439040030B504680E4DD4F89840AC42CD
:1044E00085B010D11220884206D80B49184605B075
:1044F000BDE830402AF0ECBA1946104605B0BDE8D8
:104500003040FEF7AFBA039302920191A04701A990
:104510000EC9E8E701080000D05D0300F8B50368A4
:10452000444DD3F89830AB4206460C46174659D155
:104530008A20A04243D9892C56D821463046FFF71D
:1045400089F84FF6FF73984205464DD096F89330A0
:1045500023B3394BC4EBC40403EB8404638803F432
:104560007043B3F5204F23D02FD8B3F5004F4ED072
:10457000B3F5104F59D1314938462AF055FA96F81B
:104580006C212F49C5EBC5056D004B5D934245D0AD
:1045900038462C49BDE8F8402AF09ABAC4EBC40466
:1045A000254B33F8243003F47043B3F5204FDBD1AF
:1045B00096F86D31012B14BF07222922E1E7384616
:1045C0002149BDE8F8402AF02FBAB3F5304F16D094
:1045D000B3F5404F29D196F86E31012B14BF072255
:1045E0002922CEE79847A4E7134BC4EBC40403EB9E
:1045F000840138460531BDE8F8402AF015BA96F82E
:104600006F31A3B1012B0CBF28222522B9E70F4936
:1046100038462AF009FA96F86A21B2E72944384662
:104620000231BDE8F8402AF053BA0022A9E702227D
:10463000A7E700BFA90800008CD10300485C030075
:10464000A4EC0300005C030014790300D45D0300B4
:104650002DE9F0410468DFF8B4E2D4F89880F04521
:1046600088B007460C4615461E462ED18A20A04229
:1046700024D9892C2BD838462146FEF7EBFF4FF67C
:10468000FF73984223D0904BC0EBC00003EB400077
:10469000828913B2002B23DDA2F5F8430E3B092BD0
:1046A00000F2E780DFE813F035005400AC007C0036
:1046B000810056006B00C100E000260030468349AF
:1046C0002AF006FA08B0BDE8F081C047CFE7804B7A
:1046D000C4EBC40403EB8404E28A13B2002BDBDCDA
:1046E000012D30460CBF7B497B492AF0F1F908B017
:1046F000BDE8F081294604A80A222AF003F904A99A
:1047000030462AF0E1F904A82AF076F808B0BDE8AE
:10471000F081182D00F2C380A5F1180101EBD171D1
:104720000A22491004A82AF0EDF804A930462AF01C
:10473000CBF904A82AF060F8EB0754BF6749684931
:1047400030462AF0C5F9304666492AF0C1F9B9E782
:10475000691CD0E7142D00F2A7800A22A5F11401EC
:1047600004A82AF0CFF804A930462AF0ADF904A82D
:104770002AF042F830465B492AF0AAF9A2E7294616
:104780000A2204A82AF0BEF804A930462AF09CF9AF
:1047900004A82AF031F8304653492AF099F991E7F4
:1047A000182D77D8A5F11801A5E701354F4CADB20A
:1047B000A4FB0534E4080A22214604A82AF0A2F842
:1047C00004A930462AF080F904A82AF015F804EB71
:1047D0008404474930462AF07BF9A5EB44010A22BC
:1047E00089B204A82AF08EF804A930462AF06CF9A0
:1047F00004A82AF001F830463E492AF069F961E739
:104800000A22690804A82AF07DF804A930462AF093
:104810005BF904A829F0F0FF05F0010534493046A2
:104820002AF056F9A9002944AAE73F2D2BD9402D9B
:1048300044D07FF647AF304904A82AF01DF8A5F10F
:1048400032010A2268462AF05DF8694604A82AF077
:1048500071F9014630462AF037F9684629F0CCFF55
:1048600004A829F0C9FF2DE7322D22D8A5F1320185
:1048700041E72A44013A214902EBC202114404A84B
:1048800029F0FAFF3BE71E4904A829F0F5FFC5F11E
:104890003201D6E71B4930462AF01AF982E7194956
:1048A00030462AF015F937E7164930462AF010F954
:1048B00053E7144930462AF00BF9D7E7304612493E
:1048C0002AF006F9FEE600BFA4EC03001479030009
:1048D0008CD10300CC670300285C0300E85D030073
:1048E000EC5D0300E45D0300DC5D0300CDCCCCCCCB
:1048F000BC740300F05D03002470030068FB030038
:10490000205C0300E05D0300186C0300A9080000B0
:1049100030B50368104DD3F89830AB4283B00C46E5
:1049200015D11020A04206D80C49104603B0BDE8AE
:1049300030402AF079B804EB44030949C4EBC304BE
:104940001046214403B0BDE830402AF06DB8019212
:104950009847019AE6E700BF1509000014790300A3
:1049600000060400F8B5A1F10E05012D1DD91D4664
:1049700003681746D3F89830104A93420C461AD170
:1049800010208442284606D2012F09D00C49BDE8E8
:10499000F8402AF09DB80B49BDE8F8402AF098B8D5
:1049A0000949BDE8F8402AF093B819461046BDE819
:1049B000F840FEF757B89847E3E700BF1509000035
:1049C000F45D0300D05D0300CC67030030B50368DD
:1049D0000F4DD3F89830AB4283B00C4614D1092068
:1049E000A04206D80B49104603B0BDE830402AF07B
:1049F0001BB8094904EB8404104601EB440103B0E1
:104A0000BDE830402AF010B801929847019AE7E7D4
:104A1000D509000014790300942A040030B5046815
:104A20000E4DD4F89840AC4285B010D10920884290
:104A300006D80B49184605B0BDE830402AF048B802
:104A40001946104605B0BDE83040FEF70BB8039399
:104A500002920191A04701A90EC9E8E7D50900001B
:104A6000D05D030010B50368104CD3F89830A34212
:104A700082B015D10F20884206D80D49104602B0E9
:104A8000BDE8104029F0D0BF0A4B01EB4101C1EB5A
:104A9000C1011046194402B0BDE8104029F0C4BF5E
:104AA0008DE8060098479DE80600E4E7E909000064
:104AB000147903000C9F030030B504680E4DD4F840
:104AC0009840AC4285B010D10F20884206D80B49DF
:104AD000184605B0BDE8304029F0FABF1946104627
:104AE00005B0BDE83040FDF7BDBF039302920191D0
:104AF000A04701A90EC9E8E7E9090000D05D03005D
:104B000030B503680F4DD3F89830AB4283B00C46F4
:104B100014D16320A04206D80B49104603B0BDE86B
:104B2000304029F081BF094B1A2101FB04311046A6
:104B30000B3103B0BDE8304029F076BF01929847B1
:104B4000019AE7E7A10A000014790300B0B8030056
:104B500030B50368104DD3F89830AB4283B00C46A3
:104B600015D1B020A04206D80C49104603B0BDE8CC
:104B7000304029F059BF0A4904EB440401EBC40159
:104B80001046033103B0BDE8304029F04DBF01921B
:104B90009847019AE6E700BF050B0000147903006F
:104BA0003C420400F0B504683A4FD4F89840BC4247
:104BB0008BB016461D462ED1B020884225D93648E6
:104BC00001EB410100EBC101898A0BB2002B4ADDE8
:104BD00047F61643994222D047F6174399424BD0E5
:104BE00047F61543994220D031442C4B013903EB51
:104BF000C10106A829F040FE06A9284629F064FF55
:104C000006A829F0F9FD0BB0F0BD2846244929F08B
:104C10005FFF0BB0F0BD0191A0470199CDE7710096
:104C200006A80A2229F06EFEE6E7312E26D9322E9A
:104C30002BD0EED91B4906A829F01EFEA6F13201A1
:104C40000A2202A829F05EFE02A906A829F072FF36
:104C50000146284629F038FF02A829F0CDFD06A814
:104C600029F0CAFDD5E7012E28460CBF0E490F4991
:104C700029F02EFF0BB0F0BD3146D1E70C4906A854
:104C800029F0FAFDC6F13201DAE72846094929F090
:104C90001FFFBEE7050B00003C420400742D04001A
:104CA0001479030024700300CC670300285C030020
:104CB000205C0300186C030030B503680D4DD3F879
:104CC0009830AB4283B00C4610D10620A04206D8E3
:104CD0000949104603B0BDE8304029F0A5BE114691
:104CE000204603B0BDE83040FEF72CB9019298474A
:104CF000019AEBE7C90B00001479030003680B4A23
:104D0000D3F89830934205D1062088428CBF022008
:104D10000020704700B583B00191984701998842FF
:104D20008CBF0220002003B05DF804FBC90B00001B
:104D300030B504680F4DD4F89840AC4285B012D11C
:104D400006208842184608D9012A0CBF0A490B4997
:104D500005B0BDE8304029F0BBBE094905B0BDE84B
:104D6000304029F0B5BE039302920191A04701A9FA
:104D70000EC9E6E7C90B0000CC670300285C0300FE
:104D80001479030030B503680D4DD3F89830AB4269
:104D900083B00C4610D10620A04206D8094910461F
:104DA00003B0BDE8304029F03FBE1146204603B0B5
:104DB000BDE83040FEF7C6B801929847019AEBE78C
:104DC000C90B00001479030003680B4AD3F898302C
:104DD000934205D1062088428CBF022000207047F4
:104DE00000B583B001919847019988428CBF022099
:104DF000002003B05DF804FBC90B000030B5046867
:104E00000F4DD4F89840AC4285B012D106208842AC
:104E1000184608D9012A0CBF0A490B4905B0BDE85C
:104E2000304029F055BE094905B0BDE8304029F0B1
:104E30004FBE039302920191A04701A90EC9E6E774
:104E4000C90B0000CC670300285C03001479030041
:104E5000A1F10E02012A01D8802070470368074A99
:104E6000D3F89830934210B50C4605D110208442F7
:104E700034BF0220002010BD9847F8E71509000054
:104E800010B5838C8B4282B0044618BFC38409D00E
:104E900009480A4AA1840123037084F8A0301370E2
:104EA00002B010BD0368064A5B6F9342F0D00191D7
:104EB00098470199ECE700BF3A09FF1F7870FF1F80
:104EC000E5090000828C8A4208B503460AD0012019
:104ED000DA84998483F833010649074A01230B7069
:104EE000137008BD0368054A5B6F9342F4D098477E
:104EF000F2E700BF3A09FF1F7870FF1FE5090000C5
:104F000030B5838C8B4283B004460AD00A480B4AE2
:104F1000E3840123A184037084F8A330137003B0E9
:104F200030BD0268064D526FAA42EFD00191904702
:104F3000A38C0199EAE700BF3A09FF1F7870FF1FB1
:104F4000E509000008B51821064829F097F8064839
:104F500029F042FCC82027F011FD044B044A1A60D6
:104F600008BD00BFFC5D0300A816FF1F0CED00E0AC
:104F70000400FA0530B5044689B08078104D27F05A
:104F8000BBF80023E37160840E4904A829F074FC87
:104F90000A22618C684629F0B5FC694604A829F00C
:104FA000C9FD0146284629F0F1FB284629F014FCEA
:104FB000684629F021FC04A829F01EFC09B030BD88
:104FC000A816FF1F185E030030B5044689B080782C
:104FD000104D27F091F80023E37120840E4904A8B6
:104FE00029F04AFC0A22218C684629F08BFC69468C
:104FF00004A829F09FFD0146284629F0C7FB284652
:1050000029F0EAFB684629F0F7FB04A829F0F4FB35
:1050100009B030BDA816FF1F345E030030B589B05B
:1050200004461449144D04A829F026FC214668467C
:1050300029F054FC694604A829F07CFD0F4929F0A9
:1050400081FD0146284629F0A1FB284629F0C4FB32
:10505000684629F0D1FB04A829F0CEFB27F06AFCB2
:10506000074A0849084B1470042208601A7009B0F6
:1050700030BD00BF505E0300A816FF1F645E030032
:1050800091310020A06800204D33002010B51A4A4D
:105090001A4B94791A4A03FB01F100FB04F091FBCF
:1050A000F0F4631E934288B009D8C4EB04139B004C
:1050B000013B232B03D9134A126802B1136004A8E1
:1050C000114929F0D9FB0A222146684629F042FC01
:1050D000694604A829F02EFD01460C4829F056FB2C
:1050E0000A4829F079FB684629F086FB04A829F0D4
:1050F00083FB08B010BD00BFA41E002000879303EF
:1051000047444404D81E00207C5E0300A816FF1FFD
:1051100090F8A13013B190F8A01001B9704718466B
:10512000FFF7B4BFF0B58DB004460D4608A81A4984
:105130001A4E29F0A1FB214604A829F0CFFB04A9AF
:1051400008A829F0F7FC164929F0FCFC2946074677
:10515000684629F0C3FB6946384629F0EBFC014656
:10516000304629F013FB304629F036FB684629F01B
:1051700043FB04A829F040FB08A829F03DFB27F0D9
:10518000D9FB084A084E0949094B157005223060C1
:105190000C701A700DB0F0BD945E0300A816FF1FCE
:1051A000A85E0300F90A0020A068002091310020C9
:1051B0004D330020F0B58DB004460D4608A81A49BD
:1051C0001A4E29F059FB214604A829F087FB04A9AF
:1051D00008A829F0AFFC164929F0B4FC2946074677
:1051E000684629F07BFB6946384629F0A3FC014656
:1051F000304629F0CBFA304629F0EEFA684629F01D
:10520000FBFA04A829F0F8FA08A829F0F5FA27F023
:1052100091FB084A084E0949094B1570012230607C
:105220000C701A700DB0F0BDC45E0300A816FF1F0D
:10523000D85E0300A1AEFF1FA068002091310020BE
:105240004D33002010B588B004461A4904A829F04F
:1052500013FB2146684629F041FB694604A829F062
:1052600069FC0146144829F091FA134829F0B4FA70
:10527000684629F0C1FA04A829F0BEFA0F4B93F84A
:105280002A30012B14BF0E490E4904EB44028B183F
:10529000885C9A78597823F0D1FD002102460A48AB
:1052A00023F0C6FD084823F0C5FC084B1C7008B06D
:1052B00010BD00BFF05E0300A816FF1FA41E002053
:1052C0008808FF1F000AFF1F00AFFF1F9C6E002011
:1052D000074B084A53F820301278DB7F06499A4280
:1052E000087001D01F2B00D970471846FFF7AABFDE
:1052F0003C09FF1F9C6E0020F509FF1FF0B58DB023
:105300000C46074624496846154629F0B5FA0A2294
:10531000611E04A829F0F6FA04A9684629F00AFCDF
:105320001E4929F00FFC2946064608A829F0D6FA9E
:1053300008A9304629F0FEFB0146194829F026FA53
:10534000174829F049FA08A829F056FA04A829F0C4
:1053500053FA0B3C684629F04FFA052C06D8DFE8D3
:1053600004F0070B0F13170387F865540DB0F0BD59
:1053700087F860540DB0F0BD87F863540DB0F0BDF0
:1053800087F861540DB0F0BD87F864540DB0F0BDDE
:1053900087F862540DB0F0BD105F0300E87403009D
:1053A000A816FF1F30B590F8204089B09C429DF8A8
:1053B000305001D009B030BD90F82130AB42F9D166
:1053C0000029F7D1144680F84C200D4904A829F093
:1053D00053FA2146684629F081FA694604A829F063
:1053E000A9FB0146074829F0D1F9064829F0F4F94C
:1053F000684629F001FA04A829F0FEF9DAE700BFAF
:10540000205F0300A816FF1FF0B5C1EBC101A14B3F
:1054100090F8945089005A1891B0947EAC421AD8F2
:1054200090F89360DEB1548804F47043B3F5104FE4
:1054300000F0D38040F29680B3F5304F00F0A080AA
:10544000B3F5404F00F00581B3F5204F00F0B38075
:1054500004F1C04400E00024204611B0F0BD5C5AC5
:1054600004F47043B3F5104F00F0F6801AD9B3F589
:10547000304F00F08580B3F5404F00F09F80B3F5CA
:10548000204FE5D18449854A90F86D31002B00F01A
:105490009E80022D40F29B80012BDCD104F00F0492
:1054A0000C44D9E7B3F5E04F7DD0B3F5004FCFD131
:1054B00090F86A317A4931F83350DB000B4404F03C
:1054C0000F049B799C42C6DA2C44A4B2220604D570
:1054D00047F67F73234003F58074002E40F0CA80A6
:1054E000B4F5127F00F0D280264604F1C04468462D
:1054F0006C4929F0C1F90A22314604A829F002FAC0
:1055000004A9684629F016FB674929F01BFB0A220B
:105510000746294608A829F0F5F908A9384629F0D0
:1055200009FB624929F00EFB0A22054631460CA808
:1055300029F0E8F90CA9284629F0FCFA01465C4854
:1055400029F024F95A4829F047F90CA829F054F910
:1055500008A829F051F904A829F04EF9684629F065
:105560004BF979E7B3F5E04F1DD0B3F5004F7FF469
:105570006FAF90F86A314A49DB00CA1895889DE7F9
:1055800090F86F314B4A03EB43035B00D11804F0F2
:105590000F0408798442BFF65EAF3EB14B8803F139
:1055A000C0431C4458E7C4F30B0455E7D35A03F136
:1055B000C0431C4450E74049404A65E74FF48861C6
:1055C00040F2334290F86E31002B7FF462AF04F06A
:1055D0000F041444204611B0F0BD90F86C313049EE
:1055E000DA008B189B8803F500739BB20A4404F021
:1055F0007F0492799442BFF62EAFE11889B20B0670
:1056000004D547F67F730B4003F580715EBB40F213
:105610005443994236D00D4601F1C04408A82849A8
:1056200029F02AF90A2229460CA829F06BF90CA9BD
:1056300008A829F07FFA01461D4829F0A7F81C4860
:1056400029F0CAF80CA829F0D7F808A829F0D4F84E
:1056500002E71E211322B5E790F86C311049DA00F9
:105660008B185B88C2E7B1F5577FD4D1154C40F257
:105670007155D3E7B4F5AE7F7FF436AF114C40F2ED
:10568000715634E7104C4FF4E365C7E70E4C4FF406
:10569000E3662CE78CD10300051100603101006046
:1056A000301104003C5F0300E05D0300545F030021
:1056B000A816FF1F50EA03004D0000604200006082
:1056C000585F030071050060180700608929F8B56C
:1056D0000C461746064615D9164996F89430C4EB81
:1056E000C40401EB84018A7E9A4205D8384605310C
:1056F000BDE8F84029F0ECB938460F49BDE8F8405C
:1057000029F0E6B9FDF7A6FF4FF6FF73984205466C
:10571000E2D0E1B23046FFF777FE0028ECD007492F
:10572000C5EBC50501EB450138460231BDE8F8403F
:1057300029F0CEB98CD10300005C0300A4EC030077
:1057400038B5054629F022F80446284629F044F8E1
:10575000204438BD38B5044608460D462BF050FDB0
:105760002368024629465B6820469847054620463E
:1057700029F032F8284438BD10B51B481B4B02688D
:105780008AB040F6B73400920099194A196013782C
:105790002BB903680193019BCB1AA342F7D92321AC
:1057A000144828F06BFC144829F016F806A8134991
:1057B00029F062F80A2202A842F63D2129F0A2F857
:1057C00002A906A829F0B6F901460B4828F0DEFF29
:1057D000094829F001F802A829F00EF806A829F0D6
:1057E0000BF80AB010BD00BF9C7500208C37FF1F5E
:1057F00080760020705F0300A816FF1F945F0300EF
:1058000010B5124A12491348134C88B028F014FFFF
:1058100004A8124929F030F80A22684645F26111BD
:1058200029F098F8694604A829F084F90146204631
:1058300028F0ACFF204628F0CFFF684628F0DCFFB8
:1058400004A828F0D9FF08B010BD00BFBB12130098
:1058500075040000D81E0020A816FF1FA85F0300D3
:1058600030B5144D89B00024134904A829F004F878
:10587000E1B2684629F032F8694604A829F05AF9DD
:1058800001460E4828F082FF0C4828F0A5FF684624
:1058900028F0B2FF04A828F0AFFF55F8040F036802
:1058A00001341B6898470E2CDED1FFF7A9FF09B021
:1058B00030BD00BF3809FF1FC85F0300A816FF1FD7
:1058C00008B5074A074B1178022000221A6026F01B
:1058D00033FD054B03201978BDE8084026F02CBDA8
:1058E0003809FF1FF8AEFF1FF509FF1F00B5074A73
:1058F000074B12681B6883B00192019A934202D24F
:105900000BB1FFF7DDFF03B05DF804FB9C750020D1
:10591000F8AEFF1F38B50C46054626F0F3FC84426E
:1059200005D021462846BDE8384026F005BD38BDE3
:1059300070B584B00C46064629F09CF9057AA5425C
:105940000DD2013C651BEDB201350024013420214C
:10595000304629F0CBF8AC42F8D104B070BD2346F4
:1059600000226846314629F059F96946304629F047
:1059700053F8684628F040FF04B070BD2DE9F041AF
:10598000057A102D28BF102585B16F1EFFB20D4E70
:105990008046013700242146404629F01BF9013496
:1059A000BC4206F8010FF6D1102D08D0064920227E
:1059B0006B1C4A55DDB2102DFAD1BDE8F081BDE86F
:1059C000F08100BFEF120020F01200202DE9F0411D
:1059D000057A102D28BF102585B16F1EFFB20D4E20
:1059E0008046013700242146404629F0F3F801346F
:1059F000BC4206F8010FF6D1102D08D0064920222E
:105A00006B1C4A55DDB2102DFAD1BDE8F081BDE81E
:105A1000F08100BF7F31002080310020F8B5047A8A
:105A2000102C064629D8012C1FD8C4F11007002FCE
:105A300009DD00221248134620210133DBB2BB42AC
:105A400081541A46F9DBD4B1651E0E4BEDB2013517
:105A50001F4400242146304629F0BCF80134AC42F2
:105A600007F8010FF6D1F8BDECB2651E29463046A5
:105A700029F0B0F82028F7D0D7E71024F5E7F8BDD3
:105A8000803100207F3100202DE9F0470D7A102D64
:105A900028BF102580465DB300EBC006DFF85890A4
:105AA00000EB460605F1FF3A09EB86065FFA8AFA33
:105AB0000F460B360AF1010A00242146384629F028
:105AC0007BF80134037806F8013F5445F5D1102DD9
:105AD0000CD04C2303FB0898202208EB050301356A
