:1000000000800020BD010000955600004D56000004
:100010004D5600004D5600004D5600004D56000054
:100020004D5600004D5600004D56000095560000FC
:10003000955600004D560000698300006D84000055
:100040009556000095560000955600009556000004
:1000500095560000955600009556000095560000F4
:1000600095560000955600009556000095560000E4
:1000700095560000955600009556000095560000D4
:1000800095560000955600009556000095560000C4
:1000900095560000955600009556000095560000B4
:1000A000014500000D4500009556000095560000E2
:1000B0009556000095560000955600009556000094
:1000C0009556000095560000955600009556000084
:1000D0009556000095560000955600009556000074
:1000E0009556000095560000955600009556000064
:1000F000955600001D64000095560000756B0000C9
:1001000095560000BD8500009556000095560000EC
:100110009556000095560000955600009556000033
:100120009556000095560000955600009556000023
:100130009556000095560000955600009556000013
:100140009556000095560000955600009556000003
:1001500095560000955600009556000095560000F3
:1001600095560000356E000095560000955600002B
:1001700095560000955600009556000095560000D3
:1001800095560000955600009556000095560000C3
:1001900095560000955600009556000095560000B3
:1001A00095560000955600009556000095560000A3
:1001B000955600009556000095560000564B4CF29F
:1001C000205210B51A804DF628121A8000BF00BFC9
:1001D00005F064FA514B4FF010621A60504A9A6071
:1001E000504ADA60504A136813F4807304D14F49BF
:1001F0000B604FF4A85313604D4B1A78110703D5C9
:100200001A7842F008021A704A4B4B492A221A7097
:100210004A4A4B4B8B4204D252F8040F43F8040B6A
:10022000F8E7484B484900228B4202D243F8042B9E
:10023000FAE74649464A002352F8230041F82300D2
:1002400001336F2BF8D1434B434A802103F8011B44
:100250009342FBD1414B3D4A1A60414B8A221A70AE
:10026000A3F5805324225A70A0221A709A7992071B
:10027000FCD59A79D406FCD43A4A937903F00C035E
:10028000082B384BF9D103221A7140225A719A79FE
:100290009006FCD5334A9179324B4906FBD5324A58
:1002A000324911600221516020221A709A7902F0BD
:1002B0000C020C2AFAD12E4B2E4A1A602E4B2F4AD2
:1002C0001A6000225A60072243F8042C2C4AC3F813
:1002D0000C2D62B605F004FD144B1B68DA0705D53A
:1002E000284805F063FB284B284A1A60284B1B78E6
:1002F0005B0609D5244C254B22689A4204D121483B
:1003000005F054FB0023236008F050FA05F0CCF907
:1003100005F0FAF8FEE700BF0E20054030800440EB
:10032000823F04000100002B10D0034014D0034092
:1003300002D0074000E007400C99FF1FF09E00002C
:100340004088FF1F0C99FF1F00A2FF1F0082FF1FA4
:100350000000000000E400E05FE400E008ED00E0E1
:100360000050064000400640448004400000030165
:1003700004800440C010050014E000E0FF76010096
:10038000000020200553765D1CE00340A5C3945A6D
:1003900000F00740FFFFFFFFFFFFFFFFFFFFFFFF32
:1003A000FFFFFFFFFFFFFFFFFFFFFFFFFFFFFFFF5D
:1003B000FFFFFFFFFFFFFFFFFFFFFFFFFFFFFFFF4D
:1003C000FFFFFFFFFFFFFFFFFFFFFFFFFFFFFFFF3D
:1003D000FFFFFFFFFFFFFFFFFFFFFFFFFFFFFFFF2D
:1003E000FFFFFFFFFFFFFFFFFFFFFFFFFFFFFFFF1D
:1003F000FFFFFFFFFFFFFFFFFFFFFFFFFFFFFFFF0D
:10040000FFFFFFFFFFFFFFFFFFFFFFFFDEF9FFFF23
:1004100010B5054C237833B9044B13B10448AFF33E
:1004200000800123237010BD0C99FF1F0000000005
:10043000F49E0000084B10B51BB108490848AFF303
:1004400000800848036803B910BD074B002BFBD0A0
:10045000BDE81040184700BF000000001099FF1FC2
:10046000F49E00000C99FF1F00000000704700BFC1
:1004700030B50A4B0A4C1B680A4D83B00D2001931E
:100480002378019A83F0010302F5167219462A6057
:10049000237005F09BFB03B030BD00BF889DFF1F9C
:1004A000689CFF1F7499FF1F70B590B006460D46FB
:1004B00004A81E491E4C04F009FF2946684604F0B2
:1004C00037FF694604A804F0A7FF1A4904F0ACFFFF
:1004D0003146054608A804F02BFF08A9284604F079
:1004E0009BFF154904F0A0FF144B19780A2205461A
:1004F00009090CA804F030FF0CA9284604F08CFF71
:100500000146204604F06CFE204604F08FFE0CA845
:1005100004F09CFE08A804F099FE684604F096FEDC
:1005200004A804F093FE10B070BD00BF2099000035
:10053000C08FFF1F2899000040990000B09CFF1F4A
:10054000F0B5064689B00F464448022107F052FD37
:10055000434B1B78102B7BD06FD9202B68D0302BCE
:1005600071D107213F4807F045FD3F4904A804F039
:10057000ADFE0A223946684604F002FF694604A827
:1005800004F04AFF394904F04FFF0146384804F0AF
:1005900027FE684604F05AFE04A804F057FE002F18
:1005A00041D000252C461CE004F090FE1022715D25
:1005B000684604F0D1FE694604A804F02DFF2D49D9
:1005C00004F032FF01462A4804F00AFE013468466E
:1005D00004F03CFEE4B204A804F038FEA74225462D
:1005E00021D9735D24490F2B04A84FF01002DBD9E9
:1005F0001946684604F0B0FE694604A804F07AFE85
:100600001C4904A804F010FF0146194804F0E8FD55
:10061000013404A804F01AFEE4B2684604F016FEA1
:10062000A7422546DDD8124804F000FE09B0F0BD0F
:100630000721124807F0DEFC97E723B9072110488D
:1006400007F0D8FC91E70A210E4807F0D3FC8CE7AD
:1006500007210D4807F0CEFC87E700BF4C9900004A
:10066000B09CFF1F689900007C99000080990000F1
:10067000C08FFF1FE89900008C990000609900006E
:100680005099000070990000589900001F4B10B459
:10069000D3F884201368506819780478507A137A54
:1006A000044201EA03011AD0937A03F0030309B16B
:1006B00043F0040343F008039910013B91720D2BA2
:1006C0000BD8DFE803F01E0719070A141E1E140AD0
:1006D0000719071ED368013BD36010BC7047937A9B
:1006E00003F003030029E7D043F00403E4E7D368F1
:1006F00010BC023BD3607047D36810BC0233D36098
:100700007047D36810BC0133D3607047FC9CFF1F57
:100710001F4B10B45A681368506819780478507ADF
:10072000137A044201EA03011AD0937A03F0030317
:1007300009B143F0040343F008039910013B91729F
:100740000D2B0BD8DFE803F01E0719070A141E1E35
:10075000140A0719071ED368013BD36010BC704709
:10076000937A03F003030029E7D043F00403E4E79E
:10077000D36810BC023BD3607047D36810BC02330F
:10078000D3607047D36810BC0133D360704700BF9B
:10079000FC9CFF1F1F4B10B49A68136850681978AF
:1007A0000478507A137A044201EA03011AD0937A4A
:1007B00003F0030309B143F0040343F00803991065
:1007C000013B91720D2B0BD8DFE803F01E071907D0
:1007D0000A141E1E140A0719071ED368013BD360B2
:1007E00010BC7047937A03F003030029E7D043F06D
:1007F0000403E4E7D36810BC023BD3607047D368BE
:1008000010BC0233D3607047D36810BC0133D3608F
:10081000704700BFFC9CFF1F1F4B10B4DA681368C1
:10082000506819780478507A137A044201EA030177
:100830001AD0937A03F0030309B143F0040343F0A1
:1008400008039910013B91720D2B0BD8DFE803F0E0
:100850001E0719070A141E1E140A0719071ED3685B
:10086000013BD36010BC7047937A03F00303002967
:10087000E7D043F00403E4E7D36810BC023BD36045
:100880007047D36810BC0233D3607047D36810BC84
:100890000133D360704700BFFC9CFF1F1F4B10B497
:1008A0001A691368506819780478507A137A0442E8
:1008B00001EA03011AD0937A03F0030309B143F06C
:1008C000040343F008039910013B91720D2B0BD8E0
:1008D000DFE803F01E0719070A141E1E140A071981
:1008E000071ED368013BD36010BC7047937A03F0B6
:1008F00003030029E7D043F00403E4E7D36810BC06
:10090000023BD3607047D36810BC0233D36070479A
:10091000D36810BC0133D360704700BFFC9CFF1F3D
:100920001F4B10B41A681368506819780478507A0D
:10093000137A044201EA03011AD0937A03F0030305
:1009400009B143F0040343F008039910013B91728D
:100950000D2B0BD8DFE803F01E0719070A141E1E23
:10096000140A0719071ED368013BD36010BC7047F7
:10097000937A03F003030029E7D043F00403E4E78C
:10098000D36810BC023BD3607047D36810BC0233FD
:10099000D3607047D36810BC0133D360704700BF89
:1009A000FC9CFF1F1F4B10B45A6F136850681978D6
:1009B0000478507A137A044201EA03011AD0937A38
:1009C00003F0030309B143F0040343F00803991053
:1009D000013B91720D2B0BD8DFE803F01E071907BE
:1009E0000A141E1E140A0719071ED368013BD360A0
:1009F00010BC7047937A03F003030029E7D043F05B
:100A00000403E4E7D36810BC023BD3607047D368AB
:100A100010BC0233D3607047D36810BC0133D3607D
:100A2000704700BFFC9CFF1F1F4B10B49A6F1368E8
:100A3000506819780478507A137A044201EA030165
:100A40001AD0937A03F0030309B143F0040343F08F
:100A500008039910013B91720D2B0BD8DFE803F0CE
:100A60001E0719070A141E1E140A0719071ED36849
:100A7000013BD36010BC7047937A03F00303002955
:100A8000E7D043F00403E4E7D36810BC023BD36033
:100A90007047D36810BC0233D3607047D36810BC72
:100AA0000133D360704700BFFC9CFF1F1F4B10B485
:100AB000DA6F1368506819780478507A137A044210
:100AC00001EA03011AD0937A03F0030309B143F05A
:100AD000040343F008039910013B91720D2B0BD8CE
:100AE000DFE803F01E0719070A141E1E140A07196F
:100AF000071ED368013BD36010BC7047937A03F0A4
:100B000003030029E7D043F00403E4E7D36810BCF3
:100B1000023BD3607047D36810BC0233D360704788
:100B2000D36810BC0133D360704700BFFC9CFF1F2B
:100B30001F4B10B4D3F880201368506819780478DC
:100B4000507A137A044201EA03011AD0937A03F02F
:100B5000030309B143F0040343F008039910013B78
:100B600091720D2B0BD8DFE803F01E0719070A144A
:100B70001E1E140A0719071ED368013BD36010BC60
:100B80007047937A03F003030029E7D043F004038E
:100B9000E4E7D36810BC023BD3607047D36810BC55
:100BA0000233D3607047D36810BC0133D360704701
:100BB000FC9CFF1F1F4B10B45A69136850681978CA
:100BC0000478507A137A044201EA03011AD0937A26
:100BD00003F0030309B143F0040343F00803991041
:100BE000013B91720D2B0BD8DFE803F01E071907AC
:100BF0000A141E1E140A0719071ED368013BD3608E
:100C000010BC7047937A03F003030029E7D043F048
:100C10000403E4E7D36810BC023BD3607047D36899
:100C200010BC0233D3607047D36810BC0133D3606B
:100C3000704700BFFC9CFF1F1F4B10B49A691368DC
:100C4000506819780478507A137A044201EA030153
:100C50001AD0937A03F0030309B143F0040343F07D
:100C600008039910013B91720D2B0BD8DFE803F0BC
:100C70001E0719070A141E1E140A0719071ED36837
:100C8000013BD36010BC7047937A03F00303002943
:100C9000E7D043F00403E4E7D36810BC023BD36021
:100CA0007047D36810BC0233D3607047D36810BC60
:100CB0000133D360704700BFFC9CFF1F1F4B10B473
:100CC000DA691368506819780478507A137A044204
:100CD00001EA03011AD0937A03F0030309B143F048
:100CE000040343F008039910013B91720D2B0BD8BC
:100CF000DFE803F01E0719070A141E1E140A07195D
:100D0000071ED368013BD36010BC7047937A03F091
:100D100003030029E7D043F00403E4E7D36810BCE1
:100D2000023BD3607047D36810BC0233D360704776
:100D3000D36810BC0133D360704700BFFC9CFF1F19
:100D40001F4B10B41A6A1368506819780478507AE7
:100D5000137A044201EA03011AD0937A03F00303E1
:100D600009B143F0040343F008039910013B917269
:100D70000D2B0BD8DFE803F01E0719070A141E1EFF
:100D8000140A0719071ED368013BD36010BC7047D3
:100D9000937A03F003030029E7D043F00403E4E768
:100DA000D36810BC023BD3607047D36810BC0233D9
:100DB000D3607047D36810BC0133D360704700BF65
:100DC000FC9CFF1F1F4B10B45A6A136850681978B7
:100DD0000478507A137A044201EA03011AD0937A14
:100DE00003F0030309B143F0040343F0080399102F
:100DF000013B91720D2B0BD8DFE803F01E0719079A
:100E00000A141E1E140A0719071ED368013BD3607B
:100E100010BC7047937A03F003030029E7D043F036
:100E20000403E4E7D36810BC023BD3607047D36887
:100E300010BC0233D3607047D36810BC0133D36059
:100E4000704700BFFC9CFF1F1F4B10B49A6A1368C9
:100E5000506819780478507A137A044201EA030141
:100E60001AD0937A03F0030309B143F0040343F06B
:100E700008039910013B91720D2B0BD8DFE803F0AA
:100E80001E0719070A141E1E140A0719071ED36825
:100E9000013BD36010BC7047937A03F00303002931
:100EA000E7D043F00403E4E7D36810BC023BD3600F
:100EB0007047D36810BC0233D3607047D36810BC4E
:100EC0000133D360704700BFFC9CFF1F1F4B10B461
:100ED000DA6A1368506819780478507A137A0442F1
:100EE00001EA03011AD0937A03F0030309B143F036
:100EF000040343F008039910013B91720D2B0BD8AA
:100F0000DFE803F01E0719070A141E1E140A07194A
:100F1000071ED368013BD36010BC7047937A03F07F
:100F200003030029E7D043F00403E4E7D36810BCCF
:100F3000023BD3607047D36810BC0233D360704764
:100F4000D36810BC0133D360704700BFFC9CFF1F07
:100F50001F4B10B41A6B1368506819780478507AD4
:100F6000137A044201EA03011AD0937A03F00303CF
:100F700009B143F0040343F008039910013B917257
:100F80000D2B0BD8DFE803F01E0719070A141E1EED
:100F9000140A0719071ED368013BD36010BC7047C1
:100FA000937A03F003030029E7D043F00403E4E756
:100FB000D36810BC023BD3607047D36810BC0233C7
:100FC000D3607047D36810BC0133D360704700BF53
:100FD000FC9CFF1F1F4B10B45A6B136850681978A4
:100FE0000478507A137A044201EA03011AD0937A02
:100FF00003F0030309B143F0040343F0080399101D
:10100000013B91720D2B0BD8DFE803F01E07190787
:101010000A141E1E140A0719071ED368013BD36069
:1010200010BC7047937A03F003030029E7D043F024
:101030000403E4E7D36810BC023BD3607047D36875
:1010400010BC0233D3607047D36810BC0133D36047
:10105000704700BFFC9CFF1F1F4B10B49A6B1368B6
:10106000506819780478507A137A044201EA03012F
:101070001AD0937A03F0030309B143F0040343F059
:1010800008039910013B91720D2B0BD8DFE803F098
:101090001E0719070A141E1E140A0719071ED36813
:1010A000013BD36010BC7047937A03F0030300291F
:1010B000E7D043F00403E4E7D36810BC023BD360FD
:1010C0007047D36810BC0233D3607047D36810BC3C
:1010D0000133D360704700BFFC9CFF1F1F4B10B44F
:1010E000DA6B1368506819780478507A137A0442DE
:1010F00001EA03011AD0937A03F0030309B143F024
:10110000040343F008039910013B91720D2B0BD897
:10111000DFE803F01E0719070A141E1E140A071938
:10112000071ED368013BD36010BC7047937A03F06D
:1011300003030029E7D043F00403E4E7D36810BCBD
:10114000023BD3607047D36810BC0233D360704752
:10115000D36810BC0133D360704700BFFC9CFF1FF5
:101160001F4B10B41A6C1368506819780478507AC1
:10117000137A044201EA03011AD0937A03F00303BD
:1011800009B143F0040343F008039910013B917245
:101190000D2B0BD8DFE803F01E0719070A141E1EDB
:1011A000140A0719071ED368013BD36010BC7047AF
:1011B000937A03F003030029E7D043F00403E4E744
:1011C000D36810BC023BD3607047D36810BC0233B5
:1011D000D3607047D36810BC0133D360704700BF41
:1011E000FC9CFF1F1F4B10B45A6C13685068197891
:1011F0000478507A137A044201EA03011AD0937AF0
:1012000003F0030309B143F0040343F0080399100A
:10121000013B91720D2B0BD8DFE803F01E07190775
:101220000A141E1E140A0719071ED368013BD36057
:1012300010BC7047937A03F003030029E7D043F012
:101240000403E4E7D36810BC023BD3607047D36863
:1012500010BC0233D3607047D36810BC0133D36035
:10126000704700BFFC9CFF1F1F4B10B49A6C1368A3
:10127000506819780478507A137A044201EA03011D
:101280001AD0937A03F0030309B143F0040343F047
:1012900008039910013B91720D2B0BD8DFE803F086
:1012A0001E0719070A141E1E140A0719071ED36801
:1012B000013BD36010BC7047937A03F0030300290D
:1012C000E7D043F00403E4E7D36810BC023BD360EB
:1012D0007047D36810BC0233D3607047D36810BC2A
:1012E0000133D360704700BFFC9CFF1F1F4B10B43D
:1012F000DA6C1368506819780478507A137A0442CB
:1013000001EA03011AD0937A03F0030309B143F011
:10131000040343F008039910013B91720D2B0BD885
:10132000DFE803F01E0719070A141E1E140A071926
:10133000071ED368013BD36010BC7047937A03F05B
:1013400003030029E7D043F00403E4E7D36810BCAB
:10135000023BD3607047D36810BC0233D360704740
:10136000D36810BC0133D360704700BFFC9CFF1FE3
:101370001F4B10B41A6D1368506819780478507AAE
:10138000137A044201EA03011AD0937A03F00303AB
:1013900009B143F0040343F008039910013B917233
:1013A0000D2B0BD8DFE803F01E0719070A141E1EC9
:1013B000140A0719071ED368013BD36010BC70479D
:1013C000937A03F003030029E7D043F00403E4E732
:1013D000D36810BC023BD3607047D36810BC0233A3
:1013E000D3607047D36810BC0133D360704700BF2F
:1013F000FC9CFF1F1F4B10B45A6D1368506819787E
:101400000478507A137A044201EA03011AD0937ADD
:1014100003F0030309B143F0040343F008039910F8
:10142000013B91720D2B0BD8DFE803F01E07190763
:101430000A141E1E140A0719071ED368013BD36045
:1014400010BC7047937A03F003030029E7D043F000
:101450000403E4E7D36810BC023BD3607047D36851
:1014600010BC0233D3607047D36810BC0133D36023
:10147000704700BFFC9CFF1F1F4B10B49A6D136890
:10148000506819780478507A137A044201EA03010B
:101490001AD0937A03F0030309B143F0040343F035
:1014A00008039910013B91720D2B0BD8DFE803F074
:1014B0001E0719070A141E1E140A0719071ED368EF
:1014C000013BD36010BC7047937A03F003030029FB
:1014D000E7D043F00403E4E7D36810BC023BD360D9
:1014E0007047D36810BC0233D3607047D36810BC18
:1014F0000133D360704700BFFC9CFF1F1F4B10B42B
:10150000DA6D1368506819780478507A137A0442B7
:1015100001EA03011AD0937A03F0030309B143F0FF
:10152000040343F008039910013B91720D2B0BD873
:10153000DFE803F01E0719070A141E1E140A071914
:10154000071ED368013BD36010BC7047937A03F049
:1015500003030029E7D043F00403E4E7D36810BC99
:10156000023BD3607047D36810BC0233D36070472E
:10157000D36810BC0133D360704700BFFC9CFF1FD1
:101580001F4B10B41A6E1368506819780478507A9B
:10159000137A044201EA03011AD0937A03F0030399
:1015A00009B143F0040343F008039910013B917221
:1015B0000D2B0BD8DFE803F01E0719070A141E1EB7
:1015C000140A0719071ED368013BD36010BC70478B
:1015D000937A03F003030029E7D043F00403E4E720
:1015E000D36810BC023BD3607047D36810BC023391
:1015F000D3607047D36810BC0133D360704700BF1D
:10160000FC9CFF1F1F4B10B45A6E1368506819786A
:101610000478507A137A044201EA03011AD0937ACB
:1016200003F0030309B143F0040343F008039910E6
:10163000013B91720D2B0BD8DFE803F01E07190751
:101640000A141E1E140A0719071ED368013BD36033
:1016500010BC7047937A03F003030029E7D043F0EE
:101660000403E4E7D36810BC023BD3607047D3683F
:1016700010BC0233D3607047D36810BC0133D36011
:10168000704700BFFC9CFF1F1F4B10B49A6E13687D
:10169000506819780478507A137A044201EA0301F9
:1016A0001AD0937A03F0030309B143F0040343F023
:1016B00008039910013B91720D2B0BD8DFE803F062
:1016C0001E0719070A141E1E140A0719071ED368DD
:1016D000013BD36010BC7047937A03F003030029E9
:1016E000E7D043F00403E4E7D36810BC023BD360C7
:1016F0007047D36810BC0233D3607047D36810BC06
:101700000133D360704700BFFC9CFF1F1F4B10B418
:10171000DA6E1368506819780478507A137A0442A4
:1017200001EA03011AD0937A03F0030309B143F0ED
:10173000040343F008039910013B91720D2B0BD861
:10174000DFE803F01E0719070A141E1E140A071902
:10175000071ED368013BD36010BC7047937A03F037
:1017600003030029E7D043F00403E4E7D36810BC87
:10177000023BD3607047D36810BC0233D36070471C
:10178000D36810BC0133D360704700BFFC9CFF1FBF
:101790001F4B10B41A6F1368506819780478507A88
:1017A000137A044201EA03011AD0937A03F0030387
:1017B00009B143F0040343F008039910013B91720F
:1017C0000D2B0BD8DFE803F01E0719070A141E1EA5
:1017D000140A0719071ED368013BD36010BC704779
:1017E000937A03F003030029E7D043F00403E4E70E
:1017F000D36810BC023BD3607047D36810BC02337F
:10180000D3607047D36810BC0133D360704700BF0A
:10181000FC9CFF1F30B50A4B0A4A597B186987B0F8
:1018200000230492122501221324059203930093AE
:101830001A460295019401F0D9FE07B030BD00BFF1
:10184000E49CFF1F60E3160030B51848184C83B0C5
:1018500003F01EF9642004F0F5F9164803F018F9B6
:10186000144803F06BF901210D2004F0C3F923683B
:101870000093009D02E00D4803F060F92368019396
:10188000019B5B1BB3F5FA7FF5D901210D2004F014
:101890009DF90A21054803F059FA642004F0D2F9B1
:1018A000FF21044803F052FA03B030BD6C9CFF1FC7
:1018B000889DFF1F3899FF1FF8B5144C00EB4000BE
:1018C000044400252646A27816F8011B607803F030
:1018D00037FAA9B2024601350D4803F02BFA032D61
:1018E000F0D10B4803F02AF9642004F0ABF9A27898
:1018F0002178307803F024FA00210246054803F0ED
:1019000019FA0448BDE8F84003F018B92089FF1F10
:101910006C9CFF1F3899FF1F30B5124C83B0002517
:101920006279E178207903F00BFAA9B20246013519
:101930000D4803F0FFF9032D04F10304F0D10A4828
:1019400003F0FCF8642004F07DF9FF2300931A46AD
:101950000021064803F0C8F9044803B0BDE8304050
:1019600003F0ECB82089FF1F6C9CFF1F3899FF1F04
:1019700010B5002482B0E3B200931A460021074854
:1019800003F0B2F9054803F0D9F80134082004F057
:1019900059F9FF2CEFD102B010BD00BF3899FF1FDD
:1019A0002DE9F8432C4E2D4DB06CDFF8B490036850
:1019B000DFF8B080DB6947F61221984796F864306B
:1019C000C6F81090002403F0FE034FF6FF7764F38F
:1019D00047036420C6F81C8086F8643086F84C40C3
:1019E00086F84E4086F84D40B465746586F86941C6
:1019F00086F8664086F8654086F8674086F8684055
:101A0000F765376604F01EF9A86C036847F61221E3
:101A1000DB69984795F8643085F84C4003F0FE0385
:101A200064F3470385F84E4085F84D4085F86540DE
:101A300085F8674085F8684085F86430C5F81090EF
:101A4000AC656C65EF652F6685F8694185F8664081
:101A5000C5F81C80BDE8F8837899FF1FE49AFF1F42
:101A6000A904000041050000F8B5044615460E46DD
:101A70000846022104F0BEF82846022104F0BAF814
:101A80009D4A52F83610012301F500702060237240
:101A900052F83520637202F5007700204FF47A4344
:101AA0006760E060013BFDD191F8003292F80022BE
:101AB00003F00103D20744BF43F00203DBB2A37279
:101AC000212E00F24983DFE816F03C0333032A039A
:101AD000210318030F030603FD02F402EB02E202E6
:101AE000D9028C0283027A02710268025F025602F6
:101AF0004D0244023B0232022902200217020E026A
:101B00000502FC01F301EA01E101D70122007B4B50
:101B10007B49C3F884400422212003F087FE01237F
:101B20002374212D00F21683DFE815F09C01920149
:101B300088017E0174016A01600156014C01420175
:101B400038012E0124011A011001DB00D100C70069
:101B5000BD00B300A9009F0095008B0081007700B5
:101B60006D00630059004F0045003B00300022002B
:101B7000624B6349C3F884400422212003F056FEDF
:101B8000237C0122134423742046F8BD5B4B5D493E
:101B9000C3F880400422202003F048FE237C012269
:101BA000F0E7564B5849DC6704221F2003F03EFE45
:101BB000237C0122E6E7514B54499C6704221E20F6
:101BC00003F034FE237C0122DCE74C4B50495C6778
:101BD00004221D2003F02AFE237C0122D2E7474B7A
:101BE0004C491C6704221C2003F020FE237C0122A8
:101BF000C8E7424B4849DC6604221B2003F016FE6E
:101C0000237C0122BEE73D4B44499C6604221A20F6
:101C100003F00CFE237C0122B4E7384B40495C669C
:101C20000422192003F002FE237C0122AAE7334B91
:101C30003C491C660422182003F0F8FD237C012295
:101C4000A0E72E4B3849DC650422172003F0EEFD97
:101C5000237C012296E7294B34499C6504221620F7
:101C600003F0E4FD237C01228CE7244B30495C65C2
:101C70000422152003F0DAFD237C012282E71F4BAA
:101C80002C491C650422142003F0D0FD237C012282
:101C900078E71A4B2849DC640422132003F0C6FDC0
:101CA000237C01226EE7154B24499C6404221220F8
:101CB00003F0BCFD237C012264E7104B20495C64E7
:101CC0000422112003F0B2FD237C01225AE70B4BC2
:101CD0001C491C640422102003F0A8FD237C01226F
:101CE00050E7064B1849DC6304220F2003F09EFDE9
:101CF000237C012246E700BF049D0000FC9CFF1FDF
:101D00008D060000310B0000AD0A0000290A00001A
:101D1000A5090000911700000D17000089160000AA
:101D20000516000081150000FD1400007914000064
:101D3000F513000071130000ED120000691200009D
:101D4000E511000061110000DD100000A94BAA4957
:101D50009C6304220E2003F069FD237C012211E71D
:101D6000A44BA6495C6304220D2003F05FFD237C95
:101D7000012207E79F4BA2491C6304220C2003F0B9
:101D800055FD237C0122FDE69A4B9E49DC6204222C
:101D90000B2003F04BFD237C0122F3E6954B9A497F
:101DA0009C6204220A2003F041FD237C0122E9E623
:101DB000904B96495C620422092003F037FD237C96
:101DC0000122DFE68B4B92491C620422082003F0BB
:101DD0002DFD237C0122D5E6864B8E49DC61042251
:101DE000072003F023FD237C0122CBE6814B8A49A7
:101DF0009C610422062003F019FD237C0122C1E628
:101E00007C4B86495C610422052003F00FFD237C96
:101E10000122B7E6774B82491C610422104603F089
:101E200005FD237C0122ADE6724B7E49DC60042275
:101E3000032003F0FBFC237C0122A3E66D4B7A49CF
:101E40009C600422022003F0F1FC237C012299E62D
:101E5000684B76495C600422012003F0E7FC237C98
:101E600001228FE6634B72491C600422002003F0BC
:101E7000DDFC237C012285E65E4B6E49C3F8804081
:101E80000422202003F0D2FC012349E6594B6A4981
:101E9000DC6704221F2003F0C9FC012340E6554BF8
:101EA00066499C6704221E2003F0C0FC012337E62C
:101EB000504B63495C6704221D2003F0B7FC0123EB
:101EC0002EE64C4B5F491C6704221C2003F0AEFC3D
:101ED000012325E6474B5C49DC6604221B2003F006
:101EE000A5FC01231CE6434B58499C6604221A209A
:101EF00003F09CFC012313E63E4B55495C6604222B
:101F0000192003F093FC01230AE63A4B51491C6661
:101F10000422182003F08AFC012301E6354B4E49C8
:101F2000DC650422172003F081FC0123F8E5314B26
:101F30004A499C650422162003F078FC0123EFE552
:101F40002C4B47495C650422152003F06FFC0123EC
:101F5000E6E5284B43491C650422142003F066FC87
:101F60000123DDE5234B4049DC640422132003F008
:101F70005DFC0123D4E51F4B3C499C6404221220E4
:101F800003F054FC0123CBE51A4B39495C6404226D
:101F9000112003F04BFC0123C2E5164B35491C64AC
:101FA0000422102003F042FC0123B9E5114B324911
:101FB000DC6304220F2003F039FC0123B0E50D4B54
:101FC0000D499C6304220E2003F030FC0123A7E599
:101FD000084B0A495C6304220D2003F027FC01230F
:101FE0009EE5044B06491C6304220C2003F01EFCF2
:101FF000012395E5FC9CFF1F59100000D50F000040
:10200000510F0000CD0E0000490E0000C50D00006C
:10201000410D0000BD0C0000390C0000B50B0000A4
:102020009D08000019080000950700001107000036
:1020300021090000310B0000AD0A0000290A000050
:10204000A5090000911700000D1700008916000077
:102050000516000081150000FD1400007914000031
:10206000F513000071130000ED120000691200006A
:10207000E511000061110000DD100000374B384908
:10208000DC6204220B2003F0D1FB012348E5334B33
:1020900034499C6204220A2003F0C8FB01233FE577
:1020A0002E4B31495C620422092003F0BFFB01235F
:1020B00036E52A4B2D491C620422082003F0B6FBAA
:1020C00001232DE5254B2A49DC610422072003F07A
:1020D000ADFB012324E5214B26499C610422062007
:1020E00003F0A4FB01231BE51C4B23495C61042284
:1020F000052003F09BFB012312E5184B1F491C61CF
:102100000422104603F092FB012309E5134B1C49FE
:10211000DC600422032003F089FB012300E50F4B60
:1021200018499C600422022003F080FB0123F7E49D
:102130000A4B15495C600422012003F077FB012360
:10214000EEE4064B11491C600422002003F06EFBF4
:102150000123E5E4002215E50023E1E4FC9CFF1FD8
:10216000CD0E0000490E0000C50D0000410D00001D
:10217000BD0C0000390C0000B50B00009D080000EC
:102180001908000095070000110700002109000050
:1021900008B50221102003F02DFD02210F2003F0CD
:1021A00029FD02210E2003F025FD0221182003F055
:1021B00021FD0221192003F01DFD0C4802F026FE2E
:1021C0000B4802F023FE0B4802F020FE0A4802F002
:1021D0001DFE0A4802F01AFE72B6094A0023D360B7
:1021E00062B672B6074AD36062B608BD809CFF1F14
:1021F000909CFF1FA09CFF1F5099FF1F2899FF1F55
:10220000B89CFF1F6099FF1F38B590F86430816457
:10221000012213430025044662F347034FF6FF7281
:1022200080F8643080F84C5080F84D5080F84E5063
:102230004565856580F8655080F8665080F8675080
:1022400080F8685080F86951C265026629464FF4EB
:102250008072693006F018FE25606560A560E56053
:1022600025616561A561E56125626562A562E5623A
:1022700025636563A563E56325646564204638BD11
:10228000F8B50446806C03681B69984708B90020BC
:10229000F8BDA06C03685B699847C3B203F0FB020A
:1022A000F92AF4D0A26D82B994F84D2084F84F3009
:1022B000150600F19E8040B20028C0F26581002022
:1022C00084F84D00A0656065F8BD010669D494F8F6
:1022D0004F10F02904EB020140D081F84F30616DBE
:1022E0004B1E9A4240D394F84F20F02AE7D01306B1
:1022F0003DD4002384F86630B02B4CD0A02B4AD0BC
:10230000D02B48D0E02B46D0C02B44D0002084F8FE
:102310006500032994F8500008BF94F8515084F8E0
:10232000670018BF002500210120B02B84F86850F9
:10233000A165616584F8690100F0B78000F2AE80A4
:10234000902B00F0B280A02B00F0AF80802B00F02B
:10235000AC80002384F84D300120F8BD81F869304D
:10236000636D013B9A42AAD20132A2658FE702F166
:102370000C03DBB2012BBCD902F0FB03F92BB8D064
:10238000EF2A00F2FF8002F0F003802B84F8663021
:1023900001D0902BB0D102F00F00013084F865001D
:1023A000B7E7A3F1F701082991D8012505FA01F053
:1023B00010F4DD7F40F09680002988D194F86930D0
:1023C000F02B7FF47CAF561C2244F720370A82F8AA
:1023D000690084F8676084F8687084F8651084F890
:1023E0004D10284684F8663084F86951A16561650E
:1023F000F8BD02F10C01CDB2012D7FF65CAF02F009
:10240000FB05F92D3FF457AFEF2A2ED802F0F00666
:10241000802E2BD140B20028FFF64EAF012084F869
:102420004F2084F85030A065C9B201297FF647AF2C
:1024300002F0FB03F92B3FF442AFEF2A5FD802F022
:10244000F003B02B26D01ED9D02B04D0E02B21D006
:10245000C02B7FF434AF022363650121A36D994241
:1024600027D90133A3650020F8BD164606F0DF0525
:10247000902DCFD006F0BF05A02DCBD006F0EF06F3
:10248000C02EC7D017E7902B04D0A02B02D0802BF2
:102490007FF415AF032363650221DFE7D02B04D05F
:1024A000E02B02D0C02B7FF454AF84F84D200120E4
:1024B000F8BDEF2A94BF02F0F005154602F00F02B6
:1024C0000023013294F8501084F86520012084F82C
:1024D000671084F8683084F86650A365636584F8F3
:1024E0006901F8BD002284F8672084F8682084F828
:1024F000652084F8663084F869512846F8BDA2F159
:10250000F0030F2B3FF6DBAE01A151F823F000BF23
:102510005125000057240000952400005724000096
:10252000BF220000BF22000067250000BF2200007C
:1025300067250000BF220000672500006725000016
:1025400067250000BF220000672500006725000006
:1025500000214FF48070F02384F84D10606584F8FA
:102560006930FF217AE70023012084F8653084F880
:10257000673084F8683084F86620A365636584F862
:102580006901F8BD1346B5E61A4603F10C014BE7A5
:1025900090F86630803B7F2B43D8DFE803F047425A
:1025A00042424242424242424242424242425142FC
:1025B0004242424242424242424242424242B0428D
:1025C0004242424242424242424242424242A84285
:1025D0004242424242424242424242424242AC4271
:1025E000424242424242424242424242424281428C
:1025F0004242424242424242424242424242894274
:1026000042424242424242424242424242429B4053
:102610005563424269426D42717579427D43036A56
:102620001BBB7047436C002BFBD018470368002B83
:10263000F7D090F8682090F8671090F86500184778
:102640004368002BF5D1ECE7426A002AE9D090F804
:10265000683090F86700DB0103F47E5300F07F00E0
:1026600018431047836A002BDBD090F867001847A7
:10267000C36A002BD9D1D4E7036B002BD5D1D0E7A7
:10268000436B002BD1D1CCE7836B002BCDD1C8E7B6
:10269000C36B002BC9D1C4E7036C002BC5D1C0E7C5
:1026A0004369002BBDD090F8671090F8650018477B
:1026B0008269002AB5D090F8681090F8673090F8D9
:1026C0006500C90101F47E5103F07F031943A1F5B0
:1026D00000511047C369002BA3D0B0F86710B1F5C3
:1026E000807F00F1690028BF4FF480711847C368EC
:1026F000002B9ED195E70369002BD4D191E7836825
:10270000002B96D18DE700BF2DE9F0479DF82040C2
:10271000013CE4B20F2C03D84EB2002E0D4601DB73
:10272000BDE8F087E0290FD9F729F9D90835EDB2CE
:10273000012303FA05F515F0DD0FF1D0806C036875
:10274000BDE8F0471B6818478146806C1F46036848
:1027500046EA0401C9B21B6890469847D9F8480078
:10276000036808F07F011B6805F0EF059847C02D4E
:10277000D6D0D9F84800036807F07F011B68BDE890
:10278000F047184790F86430DA0718D513F0FE0FB9
:1027900015D070B590F8665085F08002602A82B03E
:1027A00004460DD890F865608E4231D081B35B0845
:1027B000012B32D0032B00F09A8002B070BD70471D
:1027C000A5F1F0030F2BF8D801A252F823F000BFB7
:1027D000C3280000A3280000752800005528000029
:1027E000BB270000BB2700002F280000BB270000EC
:1027F0002F280000BB2700002F2800002F280000F2
:102800002F280000BB2700002F2800002F280000E1
:102810005B08012B01D0022BCFD194F8683094F8DB
:102820006720009629462046FFF76EFFC5E705F1B1
:102830000803DBB2072BC0D8012202FA03F313F01E
:10284000DD0FBAD0A06C03681B68294602B0BDE852
:1028500070401847806C94F867500368F3211B6838
:102860009847A06C0368DB6C05F07F0102B0BDE8FF
:1028700070401847806C94F86730026894F868508C
:102880001268F22143EAC5159047A06C036805F071
:102890007F019B6C9847A06C0368C5F3C6119B6CC5
:1028A000E4E7806C94F8675094F8683002682D0172
:1028B00003F00F0305F070051268F1211D439047E6
:1028C000C0E7B0F86760B6F5807F28BF4FF4807628
:1028D00000F16905002E3FF470AF2E44A06C15F88E
:1028E000011B03681B689847B542F7D165E794F868
:1028F000683094F8672000962946FFF705FF5CE7EB
:1029000070B500232C4C2D4D2370184605F0D8F8D7
:1029100095F84C6010239E42237007D9284D95F8F6
:102920004C602023102E237015D970BD2846FFF768
:10293000A7FC0028F2D095F86630902B2AD083F0BF
:102940008003602B29D91D48FFF722FE31461B4822
:10295000FFF718FFE2E72846FFF792FC0028E4D0D3
:1029600095F86630902B0BD083F08003602B0AD94A
:102970001348FFF70DFE31461148FFF703FF70BD06
:1029800095F86830A3B195F865309E42F0D0002EDE
:10299000EED0F0E795F8683033B195F865309E4297
:1029A000D1D0002ECFD0D1E7802385F86630F4E770
:1029B000802385F86630E6E7B09CFF1F7899FF1FFB
:1029C000E49AFF1FF0B585B002F056FD0625304FA2
:1029D000304C009508220723029201932E4E2F4877
:1029E00005230422032101F085FF2B4638462C4D98
:1029F0001122032102F062F922463146384605F0E1
:102A00008BFE284F4FF4837328460222012102F0E7
:102A100055F9224631462846234E244D05F07CFECA
:102A200038462349FFF7F0FB22463146384605F089
:102A300073FE28461F49FFF7E7FB2246314628462A
:102A400005F06AFE322210211B4802F0A9F9322259
:102A50000F211A4802F0A4F932220E21184802F080
:102A60009FF90B220C211748FEF7FEFF3222182196
:102A7000154802F095F9142215211448FEF7F4FFC9
:102A800013483222192105B0BDE8F04002F088B9A0
:102A90006C9CFF1F1C89FF1F714A0000509CFF1F88
:102AA0003899FF1F7899FF1F6D040000E49AFF1FFB
:102AB000B88EFF1FC88EFF1F809CFF1F909CFF1FBA
:102AC000A09CFF1FB89CFF1F5099FF1F6099FF1F1C
:102AD0002899FF1F30B51D4B1D491A6885B0054662
:102AE0000B680393039B9B1A052BF9D9194C5021B2
:102AF000204600F07DFEC5F30721204600F04EFB86
:102B0000E9B22046002500F049FB627B216900956F
:102B10000123204601F06AF9012300935022617BD2
:102B20002069019501F078F92069D0F83821D0F8B2
:102B300034319A4202D1FF2005B030BD01F086F950
:102B400020EAE070C0B205B030BD00BFB49CFF1FEA
:102B5000889DFF1FE49CFF1FF0B585B00C4605461D
:102B6000FFF7B8FFA04227D0144F15483968036813
:102B70000393039B124A5B1A052BF8D91368114E75
:102B80000293029B3B603046502100F031FEC5F3BA
:102B90000721304600F002FBE9B2304600F0FEFAB1
:102BA0002146304600F0FAFA00230093727B316927
:102BB0003046012301F01AF905B0F0BDB49CFF1FA7
:102BC000889DFF1FE49CFF1F10B50D4C002320467D
:102BD0000222102101F01AFD204601F0A3FD20463B
:102BE0001022084902F0E6FA20460122002101F0F5
:102BF000A5FD204609220449BDE8104002F0DABADA
:102C0000509CFF1F90990000A499000010B58AB055
:102C1000FEF71AFEFFF7D8FFFEF7FCFDFFF7B8FA44
:102C2000FEF7A6FE3049314A0B680093009C40F63F
:102C3000B73013782BB90B680193019BE31A8342D9
:102C4000F7D925212A4805F0D5F92A4802F0EEFAED
:102C5000294906A802F03AFB0A2242F6392102A8C5
:102C600002F07AFB02A906A802F0D6FB0146214831
:102C700002F0B6FA1F4802F0D9FA02A802F0E6FA0A
:102C800006A802F0E3FAFEF747FE4D210A20FFF7FF
:102C900063FFFF211948FFF75FFF0A20FFF71AFFC4
:102CA0004D280DD001220021154801F047FD0E22CC
:102CB0001449134802F07EFAFEF772FE0AB010BD06
:102CC0000E48FFF707FFFF28ECD1012200210C4836
:102CD00001F034FD0F220C49094802F06BFAFEF7AF
:102CE0005FFE0AB010BD00BF889DFF1F809FFF1FC1
:102CF000B0990000C08FFF1FD89900009F09010004
:102D0000509CFF1FFC990000EC99000030B5B348BF
:102D1000B34D89B002F07AF8B04802F0A7F808B1D4
:102D200001232B70AD48AF4C02F096F808B1012397
:102D30002370AD4802F06AF8AB4802F097F808B18A
:102D400002232B70A84802F087F808B102232370F1
:102D5000A64802F05BF8A54802F088F808B1032302
:102D60002B70A24802F078F808B103232370A04822
:102D700002F04CF89E4802F079F800287DD19C487A
:102D800002F06AF8002840F088809A4802F03EF885
:102D9000984802F06BF8002840F01481954802F042
:102DA0005BF8002840F003812B788D4D002B40F01C
:102DB000DD8023788B4C002B7AD18F4A137C012B3A
:102DC00040F29A8072B6D36862B68C4C03EBD37330
:102DD0002278C3F347039A421ED00122002188487B
:102DE000237001F0ABFC874904A802F06FFA217848
:102DF000684602F09DFA694604A802F00DFB82497C
:102E000002F012FB01467E4802F0EAF9684602F041
:102E10001DFA04A802F01AFA7C4A137C012B40F236
:102E2000078172B6D36862B6794C03EBD37322780C
:102E3000C3F347039A421ED0012200217048237039
:102E400001F07CFC734904A802F040FA217868463E
:102E500002F06EFA694604A802F0DEFA6A4902F04E
:102E6000E3FA0146664802F0BBF9684602F0EEF963
:102E700004A802F0EBF909B030BD0122002160483E
:102E800001F05CFC102264495D4802F093F9584857
:102E900001F0E2FF00283FF478AF012200215848FA
:102EA00001F04CFC10225D49554802F083F96CE7B3
:102EB00001220021524801F041FC594904A802F0C6
:102EC00005FA2178684602F033FA694604A802F050
:102ED000A3FA01464A4802F083F9684602F0B6F9BF
:102EE00004A802F0B3F9FEF717FD434A002323704C
:102EF000137C012B3FF666AF72B6136850681978E1
:102F00000478507A137A044201EA030100F0D08079
:102F1000937A03F00303002940F0F38043F00803A1
:102F20009910013B91720D2B3FF64DAF01A151F865
:102F300023F000BFDB300000D3300000CB300000B6
:102F4000D3300000C72D0000C3300000DB3000008C
:102F5000DB300000C3300000C72D0000D33000007C
:102F6000CB300000D3300000DB3000000122002114
:102F7000234801F0E3FB2B4904A802F0A7F92978C4
:102F8000684602F0D5F9694604A802F045FA014600
:102F90001B4802F025F9684602F058F904A802F02F
:102FA00055F92878FEF788FC00232B7001E70122F1
:102FB0000021134801F0C2FB10221B49104802F007
:102FC000F9F8F1E6012200210D4801F0B7FB1022CB
:102FD00016490B4802F0EEF8E0E600BF809CFF1FA8
:102FE0004E99FF1FCC9CFF1F909CFF1FA09CFF1FB2
:102FF0005099FF1F2899FF1FB89CFF1F4C99FF1F76
:10300000509CFF1F7C9A00008C9A00006099FF1F63
:103010004D99FF1F909A00000C9A0000209A000022
:103020006C9A00005C9A0000489A0000349A0000F4
:1030300072B61368506819780478507A137A04428B
:1030400001EA03012CD0937A03F0030309B143F0A2
:10305000040343F008039910013B91720D2B3FF6D6
:10306000E1AE01A151F823F0FB300000F330000085
:10307000EB300000F3300000252E0000E3300000AC
:10308000FB300000FB300000E3300000252E000084
:10309000F3300000EB300000F3300000FB300000A4
:1030A000937A03F003030029D5D043F00403D2E759
:1030B000937A03F0030300293FF432AF43F0040393
:1030C0002EE7D368023BD3607EE6D3680233D36039
:1030D0007AE6D368013BD36076E6D3680133D360E8
:1030E00072E6D368023BD3609DE6D3680233D360B7
:1030F00099E6D368013BD36095E6D3680133D3608A
:1031000091E643F0040309E700B583B0FFF7FEFD45
:10311000FFF7F6FB064A074B12680192019A1B68FB
:103120009A4201D9FDF7A4F903B05DF804FB00BF92
:10313000889DFF1F7499FF1F00207047704700BFD4
:103140000369D3F83801D3F83431C01A704700BF8F
:103150000369D3F83411D3F83821914208D2D3F857
:103160003421511C1A44C3F8341192F830007047CE
:103170004FF0FF30704700BF0369D3F83411D3F824
:10318000382191423DBFD3F834219B1893F8300089
:103190004FF0FF30704700BF704700BF0369D3F89E
:1031A0004422B2F5817F03D90123037100207047C7
:1031B000D3F8442210B49C180132C3F8442284F896
:1031C0003C11012010BC704738B503690A4A0260FF
:1031D00093F84822022A044601D0204638BDD3F88D
:1031E0007452002DF9D0284601F0AEFE2846082181
:1031F00002F094FA204638BDA89A000038B5036959
:103200000546D3F84402B0F5817F1AD81446D3F8A6
:103210004422D3F84402C2F58172013203F59E7351
:10322000A242184402D2012314462B71224602F016
:1032300073F92A69D2F844322344C2F84432204652
:1032400038BD01232B71002038BD00BF2DE9F047A8
:103250001E46044617469DF820909DF824309DF8A0
:1032600028A00D4659B301290FD090F84A329A424E
:103270004FF0000800D14DB3012D0ED094F84B3221
:103280009E4212D00020BDE8F0871D2F4FD01A2F8C
:1032900077D094F84A324FF000081E2E1AD01F2E15
:1032A0006DD094F84B329E42ECD1BAF1000FE9D0C8
:1032B0000025B8F1000FE5D0002DE3D031E0102A51
:1032C00035D0132A33D090F84A328846A6F111033C
:1032D000012BE6D8022594F84B329E4257D0BAF122
:1032E000000F09D094F84C3294F84B02002B14BF15
:1032F0000221002102F07EFC2B02B9F1000F13D154
:1033000043F06403264A02EBC602012152681360AF
:1033100084F84B6284F84C9284F89912B8F1000F4B
:10332000B0D00120BDE8F08743F00303EAE74FF097
:10333000020894F84A22974226D04BB194F84C32B6
:1033400094F84A02002B14BF0221002102F052FC23
:103350004FEA0822B9F1000F0ED142F06402104B7F
:1033600003EBC703596801230A6084F84A7284F8A2
:103370004C9284F898327EE742F00302EFE706258C
:10338000A9E74FF00608D4E7002BE1D073E7BAF1C4
:10339000000FB1D0B8F1000F3FF474AF8CE700BF5D
:1033A000049D0000F8B5C3681B789B0610D48368A1
:1033B0000D4680211970C3681221197090F84932A6
:1033C000012B044606D08AB980F848220120F8BDB6
:1033D0000020F8BD1A4675B9474B4FF0807119604F
:1033E000022A0FD0012084F84802F8BD531E012B99
:1033F000F1D90120F8BD012DF2D13F4B4FF0007102
:103400001960EDE7D4F87462002E6AD03379102B7E
:1034100030D0002D3CD132683849938B384F9BB265
:1034200043F0080393833279531102F110009B009B
:1034300041F8207003F1604303F56143012102F07C
:103440001F0201FA02F231681A608B8B9BB243F0C3
:1034500002038B83337903F1804303F5043396220F
:103460001D701A700022022384F85E2284F848320C
:103470000120F8BD304601F067FD3046082102F01A
:103480004DF900230120C4F8743284F84802F8BDD5
:10349000012DE7D132681949938B1A4F9BB243F043
:1034A000080393833279531102F110009B0041F815
:1034B000207003F1604303F5614302F01F02954061
:1034C00032681D60938B9BB243F002039383337980
:1034D00003F1804303F504330021972219701A7019
:1034E000C0E7082002F018F9314607463E4601F0D1
:1034F000C7FCC4F8747289E700E100E00082FF1F96
:10350000014500000D450000F0B5284EDFF8ACE0A5
:10351000A6FB0143A6FB02429E09370275469609A7
:1035200014240023B7FBF6F604E00133372B1BD03D
:1035300055F8044F22029642F7DA83BB14241C4A42
:103540004568B1FBF4F491422B70C0F8504207D8A3
:10355000184B8269A3FB0131C1F307511170F0BD13
:10356000836904221A70F0BD002422464FF47027AC
:103570004FF470654FF0360CB21AF71B002A87EA39
:10358000E776A6EBE776B8BF5242964202DD0A4ADA
:10359000D35CD4E7084B2C4613F80C30CFE703F18B
:1035A000FF3C5EF82C502F02E6E700BFD34D6210BF
:1035B000FF6BDC02819F5E16A09B0000C49A000096
:1035C000F0B49DF814409DF810609DF818503CB17F
:1035D00035B1C7683F78BF0602D50020F0BC704700
:1035E000069505940496F0BCFFF730BE2DE9F04136
:1035F00084B0044694469DF828609DF82C209DF8E0
:1036000030009DF834E09DF83C700D4600294BD108
:10361000DFF8E080D8F8001041F04001C8F8001051
:10362000002184F849C284F85512BCF1000F2AD158
:1036300063692021197012B994F84A22D2B210B9E4
:1036400094F84B02C0B294F8981294F899620296DA
:103650000346CDF800E0019120462946FFF7B0FF70
:103660000E9A23492046FFF74FFF3A462946204647
:10367000FFF798FE94F8493263B3A368C0221A702A
:1036800004B0BDE8F0816169CEB14FF0280C81F83B
:1036900000C09E42216823D95B00DBB20B7076002C
:1036A000E369F6B21E70C6E70129B9D1DFF844809C
:1036B000D8F8001041F08001C8F80010B0E74FF0D2
:1036C000200C81F800C021685B00DBB20B70E3695D
:1036D0001E70B0E7A36880221A7004B0BDE8F081C4
:1036E0007600F6B20E705E00E369F6B21E70A2E7D5
:1036F000006CDC02348004402DE9F041154682B0B4
:1037000004460F46984602F07BFA0DB9D4F8785279
:1037100002F076FAA3681A789206064609D5B42212
:103720001A70304B1B78002B35D0012002B0BDE859
:10373000F08155BBE3681B7803F0200303F0FF0220
:10374000002BF6D1A36884F84922B0221A70A3682E
:103750001B7803F0200303F0FF00002BE1D10623C8
:1037600084F85532D4F89032013304D0D4F8903232
:103770000133C4F89032D4F87032002BD6D00190C7
:103780009847019802B0BDE8F08102F039FA801B39
:103790008542CFD8DBE794F84832013B012BC4D8EF
:1037A00001F09CFF8FB1012F0FD10F4B1B7883428B
:1037B000BBDB0F2812DD5FB1012F09D1A0F110038F
:1037C000094ADBB238461370B0E7084B1B78EEE7C6
:1037D000A0F11003054ADBB21370A6E7012088F8B8
:1037E0000000A3E7F89CFF1F19E400E018E400E0E4
:1037F0000369490083F83C11036900220121C3F8E1
:103800004412027183F85522704700BF2DE9F0433E
:10381000054683B0D0F8440200248DF8074070B10B
:1038200090461C460BB9D5F87842EB6812221A7004
:1038300028460DF107032246FFF75EFF10B903B0DB
:10384000BDE8F08395F84832BBB19DF80720A2B9D6
:10385000591E0129F3D80821022B85F8551285F845
:103860005482C5F8402200F0A180AB68F0221A70A3
:103870002B6995F83C211A70E1E702F0C1F90823A1
:1038800085F85532D5F8447285F8548206465FB300
:1038900005F23B1800274FF00209002C44D12B6998
:1038A00018F8012F1A70EA681378980737D4002C9B
:1038B000FAD002F0A5F9801B8442F4D8EB6883F8B3
:1038C000009002F09DF9801B84420BD9EA681378BE
:1038D000DBB2D9063AD4DB074AD4D5F844320137F3
:1038E000BB42DAD895F85482AB68B8F1010F0CBF2F
:1038F0008022B0221A70D5F84432BB421AD9012373
:1039000085F85532D5F88032013304D0D5F88032AD
:103910000133C5F88032D5F870329BB98FE782F851
:103920000090002CD2D0CCE702F06AF9801B8442D0
:10393000B5D8D7E7D5F86032002285F85522002B9C
:103940003FF47DAF984703B0BDE8F0831023042116
:1039500085F855121370AB6880221A70D5F88C3236
:103960000133D8D0D5F88C320133C5F88C32D2E788
:103970007FB9022385F85532D5F88432013304D05B
:10398000D5F884320133C5F88432AB6880221A70CE
:10399000C1E7032385F85532D5F888320133F4D0D6
:1039A000D5F888320133C5F88832EEE7D5F84432CD
:1039B000042B7FF65AAFD5F8741201200C6885F8F5
:1039C0005E02D5F84432E2710E68A08005F59F775B
:1039D0002760B0600C68033B98B2E08309685B42E3
:1039E000E360C882D5F8741228690B68B0F1804F83
:1039F0009A7118619A820B6801D39A6812B90122F0
:103A00009A600B6800229A612FE700BF2DE9F04110
:103A100082B000258DF807509DF82070099E2BB1CB
:103A2000B3F5827F05D3052380F8553202B0BDE897
:103A3000F081C0F83451C0F85832C0F838510EB98E
:103A4000D0F87862C368904612221A700DF107030D
:103A500032460446FFF750FE0028E7D094F848327B
:103A60001BB19DF80720002A51D002F0C9F84FEA97
:103A7000480343F00103226984F85472DBB2092140
:103A800084F8551205461370E26813789B071ED41C
:103A9000002EFAD002F0B4F8401B8642F4D8E36856
:103AA00002221A7002F0ACF8401B864213D8A268BA
:103AB00001238021117084F85532D4F8803201330B
:103AC0001FD0D4F880320133C4F8803219E00223C9
:103AD0001370002EE6D1E2681378DBB2D9062CD43D
:103AE000DF073CD5A3680221802284F855121A70A2
:103AF000D4F88432013304D0D4F884320133C4F8CA
:103B00008432D4F87032002B90D098478EE7591E3B
:103B100001298BD80921022B84F8547284F855129C
:103B200000F0E080A268F02111704FEA480343F0F2
:103B300001032269DBB2137078E71023042184F8B3
:103B400055121370A36880221A70D4F88C32013396
:103B5000D7D0D4F88C320133C4F88C32D1E7D4F802
:103B600058320A22012BA36884F855220CBFA822E0
:103B7000A0221A7023691B784FF00008B027D4F8F0
:103B80005832D4F838219A42BFF450AF94F85532E5
:103B90000A2B7FF44BAFE268137898073CD4002ED1
:103BA000FAD002F02DF8401B8642F4D8E3680222D6
:103BB0001A7002F025F8D4F83821D4F85832401B96
:103BC000911C86428CBF00220122994206D0864277
:103BD0002FD894F85D22002A4CD10122A368A82195
:103BE0001970D4F83811D4F858320131994226D2DC
:103BF000002A5AD094F85D32002B3DD1D4F83831E8
:103C00002269591CC4F838112344127883F83020F3
:103C1000012384F85D32B2E702231370002EC8D16D
:103C2000D4F83821D4F8583202329A4201D13246BF
:103C3000D4E7D4F838210132934236D80022A36861
:103C400084F85D821F7023691878D4F83831E11840
:103C50000133C4F8383181F8300094F85432012B24
:103C60001CD06ABBD4F8643284F85522002B86D06D
:103C7000984784E7D4F83821A36884F85D821F70E0
:103C800023691978D4F83831E2180133C4F838318F
:103C900082F8301094F85422012A11D12023013BDC
:103CA000FDD1A36880211970DBE7D4F838212169A0
:103CB000501CC4F838012244097882F8301060E7BB
:103CC000012384F85532D4F88032013304D0D4F87B
:103CD00080320133C4F88032D4F87032002B97D090
:103CE000984795E7D4F85832042B7FF61BAFD4F8E9
:103CF000743220691968012584F85E52B0F1804F52
:103D0000CA718A8008601A6801D3916811B90121CB
:103D100091601A68D4F87412D4F8583208680025F3
:103D2000D56085710E6804F130020125026185823B
:103D3000B5600868013B9AB2C28309685B4283613F
:103D4000CA82EFE6036993F85532013B052B0CD884
:103D5000DFE803F00307090305030420704701208F
:103D6000704702207047032070470079003018BF69
:103D70000120704770B51546044601F041FF0DB9AA
:103D8000D4F8785201F03CFF064694F85532072BE0
:103D90001AD9002DF9D001F033FF801B8542F4D8E9
:103DA00001F02EFF801B854210D894F84832022B78
:103DB0000CD194F85E324BB194F85532072BFBD8F6
:103DC000012384F8553201E0002DE9D194F85532F1
:103DD000072B02D9012384F855328023013BFDD102
:103DE00094F85502B0FA80F0400970BDF8B5069E0F
:103DF0000C46154607461A46294620463346FFF725
:103E000005FD324629462046FFF7B4FF3846BDE897
:103E1000F840FFF797BF00BFF0B583B09DF8206072
:103E200013B9002003B0F0BD099F04460D468DE88C
:103E3000C000FFF7EBFD099A29462046FFF79AFFDD
:103E40000028EED0D4F8380103B0F0BDD0F834210A
:103E5000D0F838319A4208D2D0F834315A1C034491
:103E6000C0F8342193F8300070474FF0FF307047AE
:103E70002DE9F041C04E337804460133DBB2C0680F
:103E8000A768337005783B78DBB203F0200282B07C
:103E9000EDB23AB313F0100F94F85E327AD0022BE1
:103EA00000F0D88094F85E32032B00F0D38094F8B1
:103EB0005532082B00F0298294F85532092B00F076
:103EC000648294F85532012B00F0D38180233B703B
:103ED000E36802221A703378013BDBB2337002B020
:103EE000BDE8F08102F0FF08EA0624D405F04002A4
:103EF00002F0FF0E1ABB03F0100303F0FF02002BC9
:103F000000F0838015F0010540F0A881D4F840222C
:103F1000D4F844329A4207D2D4F840325A1C23448F
:103F2000C4F8402293F83C5123691D70A368D02245
:103F30001A70E0686EE0102303706806C8D594F824
:103F400055320C2B00F0098105F0040505F0FF0740
:103F5000002D64D0A3680021D0220B2084F85502E4
:103F6000C4F844121A702269D4F86C1213785B08F2
:103F700084F8563209B188472269D4F84432002BBC
:103F800000F0748194F83C8182F800800123C4F829
:103F900040329DE7022B00F0A68094F85E32032B9E
:103FA00000F0A180D4F83831D4F85822023393427B
:103FB00000F04F8194F85532012B00F04581D4F880
:103FC00038310133934280F0198194F85532012B36
:103FD00000F00F81D4F838312269591CC4F8381127
:103FE0002344127883F83020E36802221A7094F890
:103FF0005532DBB2012B7FF46EAF94F85D22002ABC
:104000007FF469AF84F85D3265E794F855320C2B84
:1040100000F09C810223037002B0BDE8F081574B91
:10402000574A94F84B0284F85C72002914BF114679
:104030001946032201F0FAFBA3680C21C02284F880
:104040005512C4F838711A7023691B785B0884F81C
:1040500056323DE7D4F8742213689B8B190604D5B9
:1040600094F85E32022B00F0B88094F85E32032B95
:1040700000F08E80434B12791968012393400B4264
:104080003FF429AF4049414B0A70D4F874120979C2
:1040900019700022072384F85E2284F85532D4F880
:1040A0009432013304D0D4F894320133C4F89432FA
:1040B000EA0611D5042384F85532D4F88C32013342
:1040C00004D0D4F88C320133C4F88C32E268102169
:1040D00000231170C4F84032A36880221A70E3688C
:1040E00002221A7032E0D4F874321A68928B1206E7
:1040F00003D594F85E22022A63D094F85E22032A44
:1041000000F0DA801F491A790968012393400B42B5
:104110003FF4E1AE1C491D4B0A70D4F874221279A9
:104120001A70A36880220020072184F85E0284F8B8
:1041300055121A70E36802221A70D4F894320133CF
:1041400004D0D4F894320133C4F89432D4F87032E5
:10415000002B3FF4C0AE9847BDE6D4F86832002B80
:104160003FF4F2AE0022C4F83421D4F838010191B2
:1041700098470199E8E600BFF89CFF1F71450000D1
:104180007D4500002C8000401E8000401F800040C4
:1041900003781906FCD5C14B12791A70002384F8F4
:1041A0005E32D4F844322169013BC4F84032D4F87D
:1041B00040322344022293F83C310B70E3681A70BA
:1041C00089E6B7491B790B70A368E8211970E36889
:1041D000032184F85E121A707DE6B14912790A70E3
:1041E000A268F0211170E268032184F85E12137056
:1041F00071E694F85D32002B3FF4ECAEA368002129
:10420000B02284F85D121A70D4F838312269591C32
:10421000C4F838112344127883F8302094F85432CB
:10422000012B00F0C480E36802221A7094F8553222
:10423000012B33D0D4F86432002284F85522002BAD
:104240003FF4D5AE9847D2E694F85D32002B7FF468
:10425000B6AEE8233B70D4F85822B0E6C0233B70DA
:104260002369E0681B7884F855E2D3E684F83C3192
:104270008AE694F85432012B0CBF8023B0233B70A4
:10428000E36802221A70D4F8803201333FF45EAF43
:10429000D4F880320133C4F8803257E7D4F8803242
:1042A000013304D0D4F880320133C4F88032D4F81A
:1042B0007032002BC6D19AE6784A1B791370A36836
:1042C0000021B02284F85E121A70D4F858322269A4
:1042D000013BC4F83831D4F83831591CC4F83811CE
:1042E0002344127883F8302094F85432012B00F0E4
:1042F000C180E36802221A70D4F86432002284F884
:104300005522002B7FF427AFE5E505F0100303F0FD
:10431000FF02002B52D000230421102284F85E32C9
:1043200084F855120270A26880211170E268C4F806
:10433000403202231370D4F88C3201333FF406AFBD
:10434000D4F88C320133C4F88C32FFE6554B564D0D
:1043500084F85C22002914BF29461946032294F8E8
:104360004B0201F063FA23691B78D4F83821B2F5C7
:10437000817FDBB207D8D4F83821A1180132C4F804
:10438000382181F83030E06844E6EB062ED504226F
:10439000102384F855220370A36880221A70E36802
:1043A00002221A70D4F88C320133C9D1CEE6202310
:1043B000013BFDD1A36880221A7034E715F0010596
:1043C00028D084F85E22D4F84032002B59D1022341
:1043D00084F85532D4F88432013304D0D4F88432CE
:1043E0000133C4F8843280233B7078E6E9072CD58A
:1043F0000223802284F855323A70E2681370D4F8B0
:10440000843201333FF4A2AED4F884320133C4F8CD
:1044100084329BE6D4F840320133C4F84032D4F8F9
:104420004422934242D394F8543284F85552012BDB
:104430000CBF8023B0233B70E36802221A70D4F8CB
:104440006032002B7FF487AE45E594F85E32012B95
:1044500034D0D4F85832012B4FF00A020CBFE823B5
:10446000E02384F855223B702269E3681278022227
:104470001A7030E52023013BFDD1A36880221A7019
:1044800037E7032384F85532D4F888320133AAD0B1
:10449000D4F888320133C4F88832A4E71C80004085
:1044A0001F800040714500007D45000094F85E3299
:1044B000012B12D0D4F8403221697AE60223E1229E
:1044C00084F85E323A70D4F874120C4A097911708B
:1044D0002169E26809781370FDE40223F12284F86F
:1044E0005E323A70D4F87412044A09791170226964
:1044F00094F83D111170E2681370ECE41B800040E9
:1045000000210148FFF7B4BC8089FF1F0121014849
:10451000FFF7AEBC1C8CFF1FC3681B7803F02003A1
:104520005BB190F85C320133DBB2012B80F85C3276
:1045300017D990F84B0201F0F5B970B503F0FF05FB
:10454000044680F8555290F84B0201F0EBF9D4F88C
:1045500068325BB1C4F83451D4F83801BDE870401A
:10456000184790F84932012BE3D1704770BD00BF66
:1045700000210148FFF7D0BF8089FF1F01210148BA
:10458000FFF7CABF1C8CFF1F2DE9F843134BDFF860
:104590005C90DFF85C80124E124D1E6000244FF4D8
:1045A0007A774A4641461C711C739F6018465C73BB
:1045B0001D6104F0B1F80C4B4FF0010E05F52775A5
:1045C0001C711C7383F80DE04A46414618461D6174
:1045D0009F601E60BDE8F84304F09EB8E49CFF1F96
:1045E000A89A00008089FF1FD09CFF1F1C89FF1F15
:1045F000C9310000704700BF704700BF08B50368AD
:104600000122DB699847012008BD00BF70B5044650
:1046100040792272012A84BF40F008006071617203
:1046200023B1012A04BF40F004006071C206236870
:1046300044D540F02001DB69002220469847334BE7
:10464000013BFDD16179236841F02001DB692046FF
:10465000002298474FF49653013BFDD161792368BE
:1046600041F02001DB6920460022984761792368E8
:10467000204641F02001DB6900229847236804228C
:10468000A2712046DB6900220C2198472368002292
:10469000DB690121204698474FF47A43013BFDD165
:1046A00002222368E271DB69002220460621984736
:1046B0002368174A9B69934222D170BD134DDB6971
:1046C00002220321204698472B46013BFDD1236857
:1046D0002046DB69022203219847013DFDD1236872
:1046E0002046DB690222032198474FF49653013B91
:1046F000FDD123680222DB69204611469847B5E7C1
:104700002046FF21BDE87040184700BF80320200FC
:10471000F94500000021024A01710260704700BFA4
:10472000E89B000008B503680022DB690221984776
:104730004FF47A43013BFDD108BD00BF30B40346BE
:10474000124C1D7A54F8040B82B0954200902068F8
:104750001C89019098BF05F1FF3241F2040098BF17
:10476000D2B2844202A8024418680CBF12F8042C8A
:1047700012F8082CC469114461F07F011846C9B2CF
:104780000022234602B030BC184700BFD89B00006F
:1047900070B504460D4608460121164601F02AFA76
:1047A0002368A575A67220469B690021BDE870406C
:1047B000184700BF827DFF2A26D0D31EDBB2142B00
:1047C00030B40D460AD8114C24FA03F3DB0705D5A3
:1047D000837A5BB9104630BC01F0FAB865B1837AD0
:1047E0006BB11046002130BC01F0F0B9C5F1FF01FA
:1047F000104630BC01F0ECB8837A012BF1D11046A1
:10480000012130BC01F0E2B9704700BFCF001E00AB
:10481000F8B504469DF818509DF828709DF82C6056
:104820009DF81C009DF820C09DF824E0E2722373DF
:1048300065739DF834209DF830509DF838306774CA
:10484000A674E57484F80FC084F810E00F46227552
:104850006375A07304F10E0604F11105012101F046
:10486000C9F9AE4206D016F8010F012101F0C2F9D4
:10487000AE42F8D147BB04F1150615F8010F01212E
:1048800001F0B8F9B542F8D1E07A012101F0B2F9AE
:10489000207BFF2829D10121607B01F0ABF9102397
:1048A00063710021E07A01F091F9607B002101F051
:1048B0008DF9207BFF2802D0002101F087F9FF222B
:1048C0000023A275A372F8BDE07A012101F092F9EC
:1048D000207BFF2802D0012101F08CF90121607BAF
:1048E00001F088F900236371DBE7012101F082F90F
:1048F000D1E700BF2DE9F0478AB004460D461646C1
:104900009A469DF848709DF84C809DF85090FFF7AE
:1049100001FF00230B48CDF804A0CDF81090CDF88E
:104920000C80029700962A462060012120460893B9
:10493000079306930593FF23FFF76AFF20460AB00B
:10494000BDE8F087109C000010B501210446407BB3
:1049500001F03CF92023013BFDD10021607BBDE843
:10496000104001F033B900BF2DE9F04180468AB113
:10497000561EF6B20F46013600F10D05002447FA27
:1049800004F101F00101013415F8010F01F01EF9E5
:10499000B442F4D14046BDE8F041FFF7D5BF00BFB7
:1049A00070B50E46A2F101010446B1FA81F1C07A58
:1049B0004909154601F00AF9207BFF2802D00021A1
:1049C00001F004F9022D18D06379DB060FD404221C
:1049D00026FA02F12046FFF7C7FF3146204604229F
:1049E000FFF7C2FF4FF49463013BFDD170BD314628
:1049F00020460822FFF7B8FFF4E73146204604229C
:104A0000FFF7B2FFEEE700BFC379F0B5160C150A49
:104A1000F6B2EDB25FFA82FE5BB103FB06F603FB72
:104A200005F503FB0EFEC6F30726C5F30725CEF3F7
:104A3000072EC77B047BBC4214D0846804EB810141
:104A4000120E0F444BB9D3B23B70077BCE55437B5C
:104A5000CD54837B01F803E0F0BD03FB02F3C3F305
:104A60000723F1E7836801EB41011944EEE700BF3A
:104A700010B50446806808B103F0E2FE94F9060020
:104A8000002803DBC0B2002101F0B4F8204610BDBD
:104A900010B5044690F90600002807DBC0B20121DA
:104AA00001F0A8F80021A07901F090F801236370CB
:104AB00010BD00BF38B5044680680D4608B103F04C
:104AC000BFFEE37B207B83420CBF0320042010FB4E
:104AD00005F080B2A080012103F024FEA06008B19F
:104AE000658038BDA080608038BD00BFF0B4077B12
:104AF000C47B8568C1F38106FF29A4EB0704C1F3D9
:104B0000811201F003074673B4FA84F48CBF0026C7
:104B10000126C1F30111C273640987730670017322
:104B20004DB1511AB1FA81F14909A14203D041882E
:104B3000F0BCFFF7BFBFF0BC704700BF2DE9F843E2
:104B40008368002B4FD0044601F05AF82369C01A3D
:104B5000B0F5967FF8D372B6454994F906500B68C4
:104B60004448454A50F83500A668A788257843F0A0
:104B700080730B60136843F0010337441360A5B3DF
:104B8000A1F55D41F8390A68BE4202F178021FD2F0
:104B900089464FF0010C16F8018B4FF0080E802566
:104BA0000B689B1A772BFBD918EA050FD9F8002060
:104BB00080F880C053D00B689B1A4B2BFBD9BEF1F9
:104BC000010E80F800C14FEA5505E9D1B742E2D1A4
:104BD0002A490B689B1A772BFBD962B601F010F8B3
:104BE0002061BDE8F883BDE8F88324490A68BE4225
:104BF00002F1F0021FD289464FF0010C16F8018B2A
:104C00004FF0080E80250B689B1AEF2BFBD918EA92
:104C1000050FD9F8002080F880C017D00B689B1AC8
:104C2000722BFBD9BEF1010E80F800C14FEA550589
:104C3000E9D1B742E2D111490B689B1AEF2BFBD99E
:104C400062B600F0DDFF2061BDE8F8830B689B1AB7
:104C50002F2BE7D80B689B1A2F2BF7D9E2E70B68AD
:104C60009B1A172BABD80B689B1A172BF7D9A6E703
:104C7000FCED00E0049D0000001000E0041000E0E6
:104C800038B543786BB1044690F9060000280D460C
:104C900009DBC0B2002100F0ADFF6378A5711BB93C
:104CA00038BD817138BDA1712846012100F0A2FFF5
:104CB00028460021BDE8384000F088BF70B50025C7
:104CC00004460E4645701946C57185600561154656
:104CD000FFF70CFF31462046FFF7ECFE2046294641
:104CE000FFF7CEFF204670BD70B444889DF80C607D
:104CF0008C4219D9C47944B112FB04F214FB03F3BA
:104D000014FB06F4120A1B0A260A047BC57BAC427C
:104D100084680BD004EB810100244C55057B4A5577
:104D2000427B8B54837BCE5470BC704701EB4101B6
:104D30002144F4E743888B4201D9FFF765BE7047F1
:104D400042EA012242EA0040704700BF70B44E1CA4
:104D5000C479F6B2A64213D0013C14F0FF04856872
:104D600010D183882A4653B1137804FB03F31B1236
:104D700002F8013B531B81889BB29942F4D8C6715B
:104D800070BC7047FF2905D03302013B93FBF4F45C
:104D9000A4B2E6E74FF6FF7393FBF4F4E1E700BF3C
:104DA00030B5094B426083B01B6801930D46019BEF
:104DB0000360002104468160284600F00DFF207347
:104DC0002046657303B030BD889DFF1F30B5044693
:104DD00083B0407B00F000FF237B834210D00A4A5F
:104DE000256813680093009B61685B1B8B4207D3A7
:104DF00013680193019B20730120236003B030BD31
:104E0000002003B030BD00BF889DFF1F30B583B0C8
:104E10000446FFF7DBFFB0B9A3681BB90023A373F7
:104E200003B030BD0B4925680A680092009A521BF6
:104E30009342F3D80B680193019BA060012023608B
:104E4000A07303B030BD01200023A360A07303B0A2
:104E500030BD00BF889DFF1F837B23B1007B0030E6
:104E600018BF012070471846704700BF837B23B1ED
:104E7000007BB0FA80F0400970471846704700BFC9
:104E8000F0B572B699B902688AB103790F2B0ED8C2
:104E9000274C218841FA03F5ED070AD503F1007389
:104EA00003F59063B2EB431F03D162B6F0BD204C13
:104EB0002188002341FA03F212F0010207D00133E6
:104EC000102BF7D162B6002203710260F0BD0125FC
:104ED0009D402943218062B6164E174D174FDFF8CB
:104EE00064E0D9B20171346844F0020434602C6883
:104EF00044F002042C60A6F580268224A5F58025C6
:104F000003F100733C6003F59063223E243D0C4C9A
:104F10008EF800105B0131702970217003601A60F7
:104F20005A609A60DA601A615A619A61DA61F0BD7A
:104F3000849DFF1F408004403C800440008000406E
:104F40001F8000401A80004003790F2B11D8094AB6
:104F500010B4137072B6084904790A880123A3407B
:104F600022EA03030B8062B61022002310BC0271F8
:104F7000036070471A800040849DFF1F0368C9B218
:104F80001B6818470368C9B21B6818470368C9B291
:104F90001B6818470368C9B21B68184708B508465C
:104FA00001F02EF9012008BD08B5084601F028F9E6
:104FB000012008BD38B508460D4604F021FA044624
:104FC0000146284601F026F9204638BD10B50846AE
:104FD0001446114601F01EF9204610BD01F0F8B943
:104FE00008B5084601F0E4F8003018BF012008BDFC
:104FF00008B5084601F0BAF8003018BF012008BD16
:105000000846114601F04EB8084601F085B800BFC9
:10501000084601F02BB800BF00F0C6BF4B0803F1F3
:10502000376000F5D830B0FBF1F000F01BBF00BFD7
:1050300010B54B0803F13760144600F5D830B0FBCB
:10504000F1F000F00FFF2046BDE8104000F080BFF7
:1050500001F0A6B901F070B901F05EB901F03EB9F6
:1050600001F048B9704700BF08B5084601F026FCBA
:10507000012008BD08B5084601F020FC012008BD4C
:1050800038B508460D4604F0BBF9044601462846EB
:1050900001F06CFC204638BD10B508461446114698
:1050A00001F064FC204610BD01F03EBD08B5084685
:1050B00001F0E4FB003018BF012008BD08B5084628
:1050C00001F0BAFB003018BF012008BD08461146A8
:1050D00001F04ABB084601F081BB00BF084601F061
:1050E00027BB00BF01F0C2BA4B0803F1376000F5DF
:1050F000D830B0FBF1F001F017BA00BF10B54B0883
:1051000003F13760144600F5D830B0FBF1F001F040
:105110000BFA2046BDE8104001F07CBA01F0ECBC6F
:1051200001F0B6BC01F0A4BC01F084BC01F08EBC5F
:105130000368064A1B68934205D110B5C8B201F056
:10514000BDFB012010BDC9B2184700BF755000005B
:105150000368064A1B68934205D110B5C8B201F036
:10516000ADFB012010BDC9B2184700BF755000004B
:105170000368064A1B68934205D110B5C8B201F016
:105180009DFB012010BDC9B2184700BF755000003B
:105190000368064A1B68934205D110B5C8B201F0F6
:1051A0008DFB012010BDC9B2184700BF755000002B
:1051B000704700BFF8B50E4671B17AB10746144684
:1051C00000253B6816F8011B1B6838469847013CD0
:1051D0000544F6D12846F8BD0846F8BD1046F8BD8E
:1051E0002DE9F0438C688BB0ECB10025064689466A
:1051F0002F462B46212201A9484600F023F93268A8
:10520000202C234628BF2023D2F8048001A91A4667
:1052100030461D44E41AC0470744002CE9D1384603
:105220000BB0BDE8F0832746F9E700BF00B5064A9A
:10523000036812885B6883B001A9ADF804200222DC
:10524000984703B05DF804FBF09C000010B50446DD
:10525000006803F0F5FA204610BD00BF38B543687A
:105260008B4201D3012038BD0D4604460131006850
:1052700003F05CFE0028F6D0A36884E82100002B30
:10528000F0D10370EEE700BFF8B50446154632B919
:10529000036803B11A700023A3602046F8BD0E46D0
:1052A0001146FFF7DBFF074648B9206810B103F04D
:1052B000C7FA276000236360A3602046F8BDA5609D
:1052C0003146206804F03CF8E7E700BF38B500231A
:1052D0000446036043608360037341B108460D4692
:1052E00004F08EF8294602462046FFF7CDFF2046FF
:1052F00038BD00BF0023884210B5044603604360F8
:105300008360037303D08A680968FFF7BDFF2046F6
:1053100010BD00BF38B5054608460C4604F070F8CD
:10532000214602462846BDE83840FFF7ADBF00BF22
:1053300010B50446002382B023606360A36023732A
:105340000A22084601A904F03DF901A92046FFF709
:10535000E1FF204602B010BD10B50446002386B020
:1053600023606360A3602373084601A903F05EFA1B
:1053700001A92046FFF7CEFF204606B010BD00BFB2
:1053800010B50446002386B023606360A3602373D6
:10539000084601A904F016F901A92046FFF7BAFF53
:1053A000204606B010BD00BF2DE9F84303680F4644
:1053B000BB420446816815460AD85A18974207D25C
:1053C000C3EB07094FF0010835B92046BDE8F88363
:1053D0004FF00008002DF8D04E1931462046FFF757
:1053E0003DFF0028F1D0B8F1000F0ED02368A0686F
:1053F0002A4603EB0901184400F08EF823680022C6
:105400009A55A6602046BDE8F8832068A36839460F
:10541000184403F095FFF4E710B58A68096804465C
:10542000FFF7C2FF204610BD38B5054641B108461A
:105430000C4603F0E5FF214602462846FFF7B4FF7D
:10544000284638BDB2B1A9B138B584689C420ED99E
:10545000E41A013A0D469442016828BF14461944E3
:105460002246284604F03AF800232B5538BD002385
:105470000B7038BD704700BFF0B51B4B1B4E596811
:1054800018689A68DB6885B06C460FC43378990752
:105490001DD5174A174C1378174913F0700318BF1E
:1054A0001370164A164B80271770002633200322EC
:1054B00026706D4608701A7072B6043C45F00105FE
:1054C0002046A84762B6237813F0700309D10D4B2C
:1054D000064901E0013B02D00A78D207FAD505B0AF
:1054E000F0BD237005B0F0BDF49C00000100024047
:1054F00000000240040002400B000240070002408E
:105500000A000240410D030008B5FDF77FFBFDF7DF
:10551000FBFD02F06DFEFAE7844641EA000313F05A
:1055200003036DD1403A41D351F8043B40F8043BAA
:1055300051F8043B40F8043B51F8043B40F8043B6D
:1055400051F8043B40F8043B51F8043B40F8043B5D
:1055500051F8043B40F8043B51F8043B40F8043B4D
:1055600051F8043B40F8043B51F8043B40F8043B3D
:1055700051F8043B40F8043B51F8043B40F8043B2D
:1055800051F8043B40F8043B51F8043B40F8043B1D
:1055900051F8043B40F8043B51F8043B40F8043B0D
:1055A00051F8043B40F8043B403ABDD2303211D3AD
:1055B00051F8043B40F8043B51F8043B40F8043BED
:1055C00051F8043B40F8043B51F8043B40F8043BDD
:1055D000103AEDD20C3205D351F8043B40F8043BAD
:1055E000043AF9D2043208D0D2071CBF11F8013BAB
:1055F00000F8013B01D30B8803806046704700BF71
:10560000082A13D38B078DD010F003038AD0C3F17F
:105610000403D21ADB071CBF11F8013B00F8013B61
:1056200080D331F8023B20F8023B7BE7043AD9D320
:10563000013A11F8013B00F8013BF9D20B780370F5
:105640004B7843708B7883706046704708B5104C78
:1056500008E0236859050DD423681A050FD4236880
:10566000DB0411D423685803F3D501F0E3FB23686E
:105670005905F1D500F0D2FE23681A05EFD501F0E7
:1056800079FA2368DB04EDD502F098FFEAE700BF62
:105690003480044008B5FFF7D9FF00BF014B10224A
:1056A0001A80704700200540704700BF094908B5BF
:1056B0000B6830B16A461844A2F58052904202D27B
:1056C0000860184608BD03F06BF80C2303604FF028
:1056D000FF3008BDD88EFF1FFEE700BFEFF3138039
:1056E00070B9EFF310836BB9EFF305825AB94FF439
:1056F0008070EFF311832BB1984228BF1846704792
:105700004FF0FF3070470F2A01D81846F1E7014BE0
:10571000D05CEEE7F0E300E003F08AB803F090B865
:10572000F0B44D1E2E46002400E00134B0FBF2F32D
:1057300002FB1300092800F130078ABF3730F8B2A6
:10574000C0B206F8010F1846002BEED10A195370AB
:105750004CB1107815F8016F28700133E01A8342BC
:1057600002F80169F5DB0846F0BC7047704700BFDE
:1057700010B40F4B53F8302092F880422CB1012323
:1057800069B182F8803010BC704703EBC0035B68DE
:105790001A6841B922F002021A6010BC704782F800
:1057A000003110BC704742F003021A6010BC704711
:1057B000049D00001C4A02EBC00301295B6811D064
:1057C00004291BD052F83000002280F8802229B131
:1057D000022920D0032922D01A6070474FF480722A
:1057E0001A60704752F830004FF4A27280F88012AD
:1057F0001A601A6822F020021A60704752F83010BE
:105800004FF4A272012081F880021A601A6842F0F7
:1058100020021A60704740F203121A6070474FF47A
:1058200081721A60704700BF049D0000212848D88B
:10583000F8B5042A44D8DFE802F0484B4E0345008F
:105840004FF410262B4B03EBC0030D465C68216818
:1058500011F4E06148D0284B284A2949C3F89C211B
:1058600004F140422748C3F8A411A2F59221264F23
:10587000C3F8A0017C292548C3F8A871C3F8AC017E
:105880002CD9A2F594237C2B2AD9A2F596237C2B24
:1058900028D9A2F598237C2B29D9A2F59A227C2A13
:1058A00027D81B4872B6236823F4702343F0807214
:1058B000C4F384011643236040F82150266062B689
:1058C000F8BD70474FF43026BCE74FF40026B9E727
:1058D0004FF44026B6E74FF42026B3E70D48E1E742
:1058E0000D48DFE70D48DDE7FFF764FFB3E70C483D
:1058F000D8E7F8BD049D00000082FF1FF188FF1F5C
:105900009988FF1FC588FF1F6D88FF1F4188FF1FF3
:10591000B48FFF1FDC8EFF1F148FFF1F648FFF1FCC
:10592000948FFF1F1A4B03EBC00010B4426802F1C2
:105930004043A3F592217C2923D9A3F594217C2906
:105940000DD9A3F596217C291FD9A3F598217C298F
:1059500019D9A3F59A237C2B11D80E4C00E00E4CDC
:1059600072B613680D4823F08773C2F3840123F4E1
:10597000803343F08073136044F8210062B610BC9A
:105980007047074CECE7074CEAE7074CE8E700BF35
:10599000049D0000B48FFF1F148FFF1F6D57000080
:1059A000DC8EFF1F948FFF1F648FFF1F30B4054BE9
:1059B000054D064C002210211A602A6020601960F3
:1059C00030BC704714D0034004D0034000D00340E3
:1059D000282838B52ED0002904464FDD5F4B1B78B0
:1059E000012505FA03F28A4202D8212837D938BDA9
:1059F0000338C2B2012A3AD9202C4AD0192C48D0F7
:105A0000574A126802FB011222FA03F31D2800F222
:105A10009B80DFE800F0928B847D9999766F99994D
:105A20009999999999999968615A53994C99999921
:105A300099999945494B1B780B2B08D90C2B1CBF06
:105A40000C3B19410846BDE8384002F089BDC3F15E
:105A50000C0399400846BDE8384002F081BD294654
:105A6000FFF786FE2946BDE83840FFF7A3BE3D4A52
:105A7000126802FB011222FA03F3C7E72128B6D805
:105A80000021FFF775FE20460121BDE83840FFF7F1
:105A900091BE354A126802FB011222FA03F3B5E700
:105AA0003249334A0B604FF45173136038BD3149AA
:105AB000314A0B604FF45173136038BD2F49304A9F
:105AC0000B6040F24443136038BD2E492E4A0B60F0
:105AD00040F24443136038BD2C492D4A0B6040F21C
