:0200000460009A
:100000004643464200000156000000000103030081
:1000100000000000000000000000000000000000E0
:1000200000000000000000000000000000000000D0
:1000300000000000000000000000000000000000C0
:1000400000000000010408000000000000000000A3
:100050000000800000000000000000000000000020
:100060000000000000000000000000000000000090
:100070000000000000000000000000000000000080
:10008000EB04180A063204260000000000000000FD
:10009000050404240000000000000000000000002F
:1000A0000000000000000000000000000000000050
:1000B0000604000000000000000000000000000036
:1000C0000000000000000000000000000000000030
:1000D00020041808000000000000000000000000DC
:1000E0000000000000000000000000000000000010
:1000F0000000000000000000000000000000000000
:10010000D8041808000000000000000000000000F3
:100110000204180804200000000000000000000095
:1001200000000000000000000000000000000000CF
:10013000600400000000000000000000000000005B
:1001400000000000000000000000000000000000AF
:10015000000000000000000000000000000000009F
:10016000000000000000000000000000000000008F
:10017000000000000000000000000000000000007F
:10018000000000000000000000000000000000006F
:10019000000000000000000000000000000000005F
:1001A000000000000000000000000000000000004F
:1001B000000000000000000000000000000000003F
:1001C000000100000010000001000000000000001D
:1001D000000001000000000000000000000000001E
:1001E000000000000000000000000000000000000F
:1001F00000000000000000000000000000000000FF
:10020000FFFFFFFFFFFFFFFFFFFFFFFFFFFFFFFFFE
:10021000FFFFFFFFFFFFFFFFFFFFFFFFFFFFFFFFEE
:10100000D10020432914006000000000000000000F
:10101000201000600010006000F404600000000078
:10102000000000600000050000000000FFFFFFFF5F
:10103000FFFFFFFFFFFFFFFFFFFFFFFFFFFFFFFFC0
:10104000FFFFFFFFFFFFFFFFFFFFFFFFFFFFFFFFB0
:10105000FFFFFFFFFFFFFFFFFFFFFFFFFFFFFFFFA0
:10106000FFFFFFFFFFFFFFFFFFFFFFFFFFFFFFFF90
:10140000884207D0904205D251F8043B40F8043B93
:101410008242F9D8704700BF884204D2002340F8C6
:10142000043B8142FBD87047664B4FF42A01664A61
:1014300066482DE9F0475A641864654A99639546F1
:10144000BFF34F8FBFF36F8F15F04CFF614B082038
:10145000614A6249C3F854016148FFF7D1FF614A0C
:1014600061496248FFF7CCFF61496248FFF7D4FF4A
:10147000614C62494FF470000023614A086044F8EF
:1014800023200133B02BFAD15E4B80215E4A03F852
:10149000011B9342FBD14F4D4FF080385B494FF019
:1014A000FF325B4B0026DFF8A4A1DFF8A4911C609B
:1014B000C5F80481C5F800A1C5F8F480C5F8F0901E
:1014C0000B68544F43F4E0230B60FB693D4923F064
:1014D0007F0343F04003FB617B6A23F07F0343F00B
:1014E00040037B628A66CA660A674A6715F000FF96
:1014F000494A4A4B6320A2630321E363484A494BAC
:10150000106000F160401E6042F8041C00F6A170FB
:101510004549464AC3F8082D0B68454A43F0807395
:101520000B601368434943F00103136003680B60C9
:1015300016F02EF9C5F804813F48C5F800A1C5F89A
:10154000F480C5F8F09016F01FFBF96E3B4A41F4A9
:1015500040513B4BF9661660C2F80861C2F8186149
:10156000C2F82861C2F838619A6BD20708D442F6F3
:101570001562344959651A659A6B42F001029A6303
:101580002F4A314C936843F00113936015F022FF0A
:1015900015F07CFE16F0B0FB16F02CF915F0A4FE49
:1015A0002368132BFCD916F0B3F92368B3F5967FA3
:1015B000FBD315F09BFE16F0B3FB16F0DDFA30BF3F
:1015C000FDE700BF00C00A40FFABAAAA0700200049
:1015D0000080052000800D40480C0200D89D02606C
:1015E00000000000C046002024AA04600000002083
:1015F000A0270120C04600200044002088ED00E024
:101600005DB7010000E400E0A0E400E024ED00E0AC
:1016100008ED00E000C00F4045D1010049D10100B4
:1016200014E000E018E000E0FCED00E00000202005
:10163000001000E09C2401200046C3230040084025
:1016400000400D400000C056A02401201B101820AF
:101650000C0D1113000000005D207047542901D8C3
:10166000022070475D2934BF80200020704700BFF2
:101670000379022B01D05D20704790F8FB004000F9
:10168000704700BF4B1E072B05D890F86D308B427A
:1016900018BF80F86D10704790F8FC00704700BFCD
:1016A000082070472F2070472E2906D8044B01EBE5
:1016B000410103EBC101087A70470020704700BF69
:1016C000407D01601531C8B2704700BF43790022E8
:1016D00008490133A0F84C2080F8512070B4B0F8CC
:1016E0004E504FF49676044CA0F84E6025700B7067
:1016F00070BC7047822501206425012090F851308C
:101700003BB9C1EB0111490089B202290CD8002074
:101710007047B0F84C3001EB4101C3EB031301EB10
:10172000430189B20229F2D9033988B2704700BF58
:10173000302070472F2907D8044B01EB410103EB00
:10174000C10191F87004704700207047407D01602E
:101750000C2070470139C9B2072906D890F8410119
:1017600040FA01F101F0010070470020704700BF0E
:101770000820704790F89020072A16D8012393403C
:1017800013F0F00F0BD113F00C0F0FD19B070CD0FF
:101790007F220823A0F8482080F8AD3070477F22D0
:1017A0000423A0F8482080F8AD3070477D22032341
:1017B000A0F8482080F8AD30704700BF022380F8C1
:1017C0006E3070474379002208490133A0F84C205D
:1017D00080F8512070B4B0F84E504FF4C876044CE5
:1017E000A0F84E6025700B7070BC704782250120F8
:1017F0006425012090F85210026880F85510D36CCF
:10180000184700BF0F2908D801EB4102044B01EB38
:101810008201194491F8F40870470020704700BF16
:10182000407D016030B40AB990F86E20012A1ED0C4
:10183000022A1AD0032A0CBF0D25002501EBC10096
:101840000C4A4C23202401EB400003FB01218000C3
:101850004D8600F11C032C301344024403F8014F61
:101860009342FBD1012030BC70470C25E6E70B25E5
:10187000E4E700BF2C1301204B1E072B05D890F87E
:101880006D308B4218BF80F86D10704743790D4959
:10189000013390F89E2030B40B4CB0F84E500B70D2
:1018A000257052B14FF4FA73A0F84E30002330BCCB
:1018B000A0F84C3080F8513070476423A0F84E30C7
:1018C000F4E700BF82250120642501201420704721
:1018D00090F86E304BB101330122DBB2032B88BF8D
:1018E000012380F86E30014B1A707047CE2501201D
:1018F00030B40AB990F86E20012A1ED0022A1AD0FC
:10190000032A0CBF0E25002501EBC1000C4A4C2315
:10191000202401EB400003FB012180004D8600F1F3
:101920001C032C301344024403F8014F9342FBD1B3
:10193000012030BC70470D25E6E70C25E4E700BF29
:101940002C1301204B1E092B05D890F86D308B42CB
:1019500018BF80F86D10704702207047437900224D
:1019600008490133A0F84C2080F8512070B4B0F839
:101970004E505026044CA0F84E6025700B7070BC81
:10198000704700BF82250120642501208A2070470E
:1019900090F86A300BB98A207047024A134413F852
:1019A000010C7047E0F90020F0B490F86A50B5B12E
:1019B00000230E4A0B241F4603E08A2B12D012F894
:1019C0001C4CAC42DEB202F11C0203F10103F4D163
:1019D0007C1CB942E7B2F0D1B0B2F0BC7047084607
:1019E000F0BC70474FF6FF70F0BC70472D87016068
:1019F000704700BF1020704790F86E304BB1013334
:101A00000122DBB2022B88BF012380F86E30014B2C
:101A10001A707047CE25012070B40AB990F86E2074
:101A2000012A21D0022A12D001EBC1030F4A202043
:101A300001EB4301890001F11C032C3113440A44DA
:101A400003F8010F9342FBD1012070BC70470F23B4
:101A5000064E4C2405681A4604FB0164D5F8B050C4
:101A600063862B4670BC18470E23F1E72C13012028
:101A700001207047013908298CBF002001207047E0
:101A80004379002208490133A0F84C2080F8512006
:101A900070B4B0F84E502426044CA0F84E60257067
:101AA0000B7070BC704700BF8225012064250120A7
:101AB00009207047082994BF02200020704700BF0A
:101AC0000F2070470E2908D801EB4101044BC1EBF0
:101AD000C101194491F8EA0770470020704700BF20
:101AE000388E016030B40C4A4C2301EBC1050E2442
:101AF00003FB0123202001EB45015C86890001F1F5
:101B00001C032C3113440A4403F8010F9342FBD108
:101B1000012030BC704700BF2C130120704700BF6C
:101B20004379002208490133A0F84C2080F8512065
:101B300070B4B0F84E504FF4C876044CA0F84E6024
:101B400025700B7070BC7047822501206425012030
:101B500090F8513033B901EB8101C90003290BD84A
:101B600000207047B0F84C3003EB830301EB4301D6
:101B7000890089B20329F3D9043988B2704700BFBC
:101B800063207047622906D8044B1A2202FB0131F8
:101B900091F81E0970470020704700BF388E016021
:101BA000182070470F2902D90531C8B2704708467E
:101BB000704700BF0139C9B2072906D890F87A03E7
:101BC00040FA01F101F0010070470020704700BFAA
:101BD00090F86E304BB101330122DBB2022B88BF8B
:101BE000012380F86E30014B1A707047CE2501201A
:101BF000B0207047C12907D8044B01EB410103EB2A
:101C0000C10191F82E02704700207047309F01609B
:101C100090F86A300BB9C2207047024A134413F897
:101C2000010C7047001B0120F0B490F86A50B5B168
:101C300000230E4A0C241F4603E0C22B12D012F8D8
:101C4000184CAC42DEB202F1180203F10103F4D1E8
:101C50007C1CB942E7B2F0D1B0B2F0BC7047084684
:101C6000F0BC70474FF6FF70F0BC70478BA101606D
:101C70002720704710B44C20044C00FB014181F830
:101C8000303081F83C205DF8044B70472C13012064
:101C900090F86E304BB101330122DBB2022B88BFCA
:101CA000012380F86E30014B1A707047CE25012059
:101CB00006207047104607291DD8DFE801F0070A03
:101CC0000D10131619040D4916F01EB80C4916F024
:101CD0001BB80C4916F018B80B4916F015B80B498B
:101CE00016F012B80A4916F00FB80A4916F00CB8E7
:101CF000094916F009B8094916F006B8DC1F00209A
:101D0000681F0020741F0020801F0020901F0020EB
:101D1000A01F0020B41F0020C81F0020E02C0020BE
:101D200049B1012903D11046054915F0EDBF104610
:101D3000044915F0E9BF1046034915F0E5BF00BF9F
:101D400004200020E02C0020F01F002001EB4101C6
:101D5000034B104603EBC101093115F0A1BF00BFD1
:101D6000407D016001EB4101034B104603EBC101D3
:101D7000093115F095BF00BFA881016001EB410357
:101D8000104610B401EB8301024C21445DF8044B72
:101D900015F086BF28860160024B104603EB011147
:101DA00015F07EBFE4B3016001EB4103104610B4AF
:101DB000C1EBC301024C21445DF8044B15F070BF28
:101DC00024B5016001EB8101024B104603EB410198
:101DD00015F066BF94B6016001EB4101034B10465C
:101DE000C1EBC101194415F05BBF00BF1096016043
:101DF000622900D9704710B4044B1A24104604FB22
:101E000001315DF8044B0B3115F04ABF4C9701606E
:101E100001EB4101034B104603EBC101033115F007
:101E20003FBF00BF5CA10160262903D910460549C8
:101E300015F036BF01EB4101034B104603EBC10126
:101E400015F02EBF28200020F0B60160262903D906
:101E50001046064915F024BF01EB4101044B104622
:101E600003EBC1010E3115F01BBF00BF282000207D
:101E7000F0B6016030B4B9B101EB4103C1EBC3036B
:101E8000DBB200F20B2100F21325C418013394F8E1
:101E90003B41DBB201F8014FA942F6D100F50371D5
:101EA000104630BC15F0FCBE1723EAE72DE9F041DF
:101EB000234F3B6873B10D4601EB4101214C804635
:101EC000C5EBC101104616462144113115F0E8FE5C
:101ED0000B2D01D9BDE8F0813A21304615F020FEE6
:101EE000B8F828203968002302EB420204F2875038
:101EF0001C46C2EB02120A441544697D95F8212064
:101F000005E001331330712B14D010F8134CA142AB
:101F1000DDB2F6D110F8124C9442F2D155B103EB78
:101F2000C3020949304603EB4203BDE8F0411944BE
:101F300015F0B6BE30460549BDE8F04115F0B0BE1B
:101F40000CFA002024B501609ABA01602820002014
:101F500030B4B9B101EB4103C1EBC303DBB200F212
:101F6000444100F24C45C418013394F87443DBB289
:101F700001F8014FA942F6D100F24541104630BCAC
:101F800015F08EBE1723EAE790F89E30012B00D0A3
:101F9000704700F1B801104615F0E6BD30B589B0C4
:101FA0000D460C49144604A815F0EAFD294668467A
:101FB00015F06AFE694604A815F062FE0146204647
:101FC00015F0D2FD684615F083FE04A815F060FEFA
:101FD00009B030BD3020002030B589B00D460C4925
:101FE000144604A815F0CCFD2946684615F04CFEB1
:101FF000694604A815F044FE0146204615F0B4FDDC
:10200000684615F065FE04A815F042FE09B030BD23
:102010003C2000202DE9F0414A4F8CB00E46154679
:10202000A7FB01346408622C73D990F89C30804679
:1020300003F13102B4EB420F70DC62339C4256DC98
:102040004149284615F02CFE6FF494731E44B6B235
:10205000A7FB0634C4F34F0401343C4F0A22684600
:10206000E4B2A7FB0437FF08394607EB870715F0F2
:1020700037FE694608A815F013FD0A22A4EB4701B4
:1020800004A8C9B215F02CFE04A908A815F0F8FDA3
:102090000146284615F068FD04A815F019FE08A8A9
:1020A00015F0F6FD684615F013FE08A8284915F04E
:1020B00067FD24490A2204A8A1FB0631490801EB67
:1020C0004101711A89B2013115F00AFE04A908A86C
:1020D00015F0D6FD0146284615F046FD04A815F07A
:1020E000F7FD08A815F0D4FD0CB0BDE8F081194942
:1020F000284615F0D5FD98F89C204FF6D76302EBE3
:1021000042029B1A1E44B6B2A7FB0634C4F34F0426
:10211000A2E75521104615F003FD9DE70E4928461C
:1021200015F0BEFD98F89C304FF6D76203EB4303E1
:102130005B00D21A1644B6B2A7FB0634C4F34F04B0
:102140008AE700BFABAAAAAA90200020CDCCCCCCB5
:10215000501F00209826002094270020032930B526
:10216000154689B022D90439CCB2072C05D91449B7
:10217000104615F095FD09B030BD124904A815F0C0
:10218000FFFC0A22611C684615F0AAFD694604A8F6
:1021900015F076FD0146284615F0E6FC684615F078
:1021A00097FD04A815F074FD09B030BD064BC1EBD6
:1021B000C1011046194415F073FD09B030BD00BFD0
:1021C0002820002048200020FCC20160032930B5EF
:1021D000154689B022D90439CCB2072C05D9144947
:1021E000104615F05DFD09B030BD124904A815F088
:1021F000C7FC0A22611C684615F072FD694604A8F6
:1022000015F03EFD0146284615F0AEFC684615F077
:102210005FFD04A815F03CFD09B030BD064BC1EBD5
:10222000C1011046194415F03BFD09B030BD00BF97
:10223000282000205420002018C301602DE9F0431D
:1022400090F8905091B0072D45D8012316460C46C2
:10225000AB4013F0AA0F41D113F0550F3BD0022D24
:102260003F4D4FF00A0204A80CBF4FF003094FF096
:10227000040991FBF9F75FFA87F808F1010885FB7B
:1022800008354FEAE873C3EBA505294615F028FD8C
:1022900004A90CA815F004FC0A2205EB850108A886
:1022A000A8EB410115F01CFD08A90CA815F0E8FCED
:1022B00009FB17414131C9B215F03AFD01463046DC
:1022C00015F052FC08A815F003FD0CA815F0E0FC71
:1022D00004A815F0FDFC11B0BDE8F08321490A22E5
:1022E0006846A1FB0431490915F0FAFC694608A8C3
:1022F00015F0D6FB1C4B04A8A3FB04250A22ED080D
:10230000A9B205EB8505A3FB0173DB0803EB83038F
:10231000A1EB430189B215F0E3FC04A908A815F06C
:10232000AFFC0746A4EB45010A220CA889B215F0C0
:10233000D7FC0CA9384615F0A3FC0146304615F031
:1023400013FC0CA815F0C4FC04A815F0C1FC08A8E7
:1023500015F09EFC684615F0BBFC11B0BDE8F0839B
:10236000676666661F85EB51CDCCCCCCF0B590F896
:102370009E3091B01546002B51D190F8AD31002B15
:1023800047D14C1C04A8474915F0FAFB4649A4B2B2
:102390000A226846A1FB0431490915F0A1FC6946EF
:1023A00004A815F06DFC414B074608A8A3FB0426C2
:1023B0000A22F608B1B206EB8606A3FB01E3DB08AE
:1023C00003EB8303A1EB430189B215F089FC08A953
:1023D000384615F055FC0746A4EB46010A220CA826
:1023E00089B215F07DFC0CA9384615F049FC014670
:1023F000284615F0B9FB0CA815F06AFC08A815F0E2
:1024000067FC684615F064FC04A815F041FC11B0A7
:10241000F0BD2749104615F043FC11B0F0BD013165
:10242000214B0A2268468CB2A3FB0431490915F0FE
:1024300057FC694608A815F033FB1C4B04A8A3FB06
:1024400004260A22F608B1B206EB8606A3FB017346
:10245000DB0803EB8303A1EB430189B215F040FCD9
:1024600004A908A815F00CFC0746A4EB46010A22B3
:102470000CA889B215F034FC0CA9384615F000FC04
:102480000146284615F070FB0CA815F021FC04A8A5
:1024900015F01EFC08A815F0FBFB684615F018FCAB
:1024A00011B0F0BD602000201F85EB51CDCCCCCC0D
:1024B00058200020F0B590F89E3091B004460F46A9
:1024C0001646002B36D190F85130002B75D190F87C
:1024D0004C100A22604D04A801EB810107EB410476
:1024E000E4B2A5FB0435ED08294605EB850515F09A
:1024F000F7FB04A90CA815F0D3FA0A22A4EB4501B6
:1025000008A8C9B215F0ECFB08A90CA815F0B8FB97
:10251000524915F0A9FB0146304615F025FB08A8E5
:1025200015F0D6FB0CA815F0B3FB04A815F0D0FBF2
:1025300011B0F0BD90F85130002B69D0B0F84C10BC
:102540000A22454D6846A5FB0131C90815F0C8FBB4
:10255000694608A815F0A4FAB4F84C100A2204A899
:10256000A5FB0135ED0805EB8505A1EB450189B219
:1025700015F0B6FB04A908A815F082FB04463946FD
:102580000A220CA815F0ACFB0CA9204615F078FB2C
:10259000334915F069FB0146304615F0E5FA0CA801
:1025A00015F096FB04A815F093FB08A815F070FB36
:1025B000684615F08DFB11B0F0BDB0F84C100A2242
:1025C000254D6846A5FB0131C90815F089FB694610
:1025D00008A815F065FAB4F84C100A2204A8A5FB67
:1025E0000135ED0805EB8505A1EB450189B215F034
:1025F00077FB04A908A815F043FB044639460CA84C
:102600000A2215F06DFB0CA9204615F039FBC2E734
:10261000B0F84C400A22104904A804EB840407EBEC
:102620004404A4B2A1FB0437FF08394607EB87072F
:1026300015F056FB04A90CA815F032FA0A22A4EBF7
:10264000470108A889B215F04BFB08A90CA815F0A2
:1026500017FB04495DE700BFCDCCCCCC6420002043
:102660006C20002068200020F0B590F890308DB0EC
:102670001646012B0CBF04250825002942D0A9428B
:102680000C4645D9012B34D105295AD0641B2F495A
:1026900004A82F4D15F074FA023C684685FB0435FA
:1026A0000A22A5EBE475294605EB450515F018FB54
:1026B000694604A815F0E4FA264915F0D5FA611B1D
:1026C00007460A22013108A815F00AFB08A9384676
:1026D00015F0D6FA0146304615F046FA08A815F06E
:1026E000F7FA684615F0F4FA04A815F0D1FA0DB01F
:1026F000F0BD641B154904A8154D15F041FA013CC5
:102700006846CBE71449104615F0CAFA0DB0F0BD83
:10271000124908A815F034FA0A22214604A815F037
:10272000DFFA04A908A815F0ABFA0146304615F007
:102730001BFA04A815F0CCFA08A815F0A9FA0DB0F8
:10274000F0BD1046064915F0ABFAD0E7782000201E
:1027500056555555302C0020702000207420002044
:102760007C20002070B590F851308CB004460D46A6
:10277000164633BBB0F84C300BB9002964D035494C
:1027800008A815F0FDF9B4F84C100A2204A801EBD2
:10279000810105EB4101013915F0A2FA04A908A84D
:1027A00015F06EFA2C4915F05FFA0146304615F027
:1027B000DBF904A815F08CFA08A815F069FA0CB03A
:1027C00070BDB0F84C30A3B929B92449104615F0B2
:1027D00067FA0CB070BD224908A815F0D1F9294656
:1027E00004A80A2215F07CFA04A908A815F048FAF2
:1027F000DBE7184904A815F0C3F9B4F84C100A2215
:102800006846013915F06CFA694604A815F038FAE3
:10281000144915F029FA04460A22294608A815F099
:102820005FFA08A9204615F02BFA0146304615F04C
:102830009BF908A815F04CFA684615F049FA04A867
:1028400015F026FA0CB070BD0749104615F028FAAD
:102850000CB070BD78200020882000208C20002043
:1028600074200020302C0020842000200131224BD5
:10287000F0B58CB291B016460A22A3FB043168462B
:10288000490915F02DFA694608A815F009F91B4BFE
:1028900004A8A3FB04250A22ED08A9B205EB8505CF
:1028A000A3FB0173DB0803EB8303A1EB430189B2B4
:1028B00015F016FA04A908A815F0E2F90746A4EBEA
:1028C00045010A220CA889B215F00AFA0CA938466B
:1028D00015F0D6F90146304615F046F90CA815F06A
:1028E000F7F904A815F0F4F908A815F0D1F968462D
:1028F00015F0EEF911B0F0BD1F85EB51CDCCCCCC6D
:10290000C7291046F0B50E468DB094BF5521502111
:10291000154615F005F9234BC824234F6846A3FB41
:1029200006230A229B0904FB1364C4F38D040134BB
:10293000E4B2A7FB0437FF08394607EB870715F019
:10294000CFF9694608A815F0ABF80A22A4EB4701B5
:1029500004A8C9B215F0C4F904A908A815F090F9A3
:102960000146284615F000F904A815F0B1F908A8A9
:1029700015F08EF9684615F0ABF92D21284615F0B3
:10298000CFF806F003010A2208A8013115F0A8F9D2
:1029900008A9284615F0E8F808A815F099F90DB02F
:1029A000F0BD00BF1F85EB51CDCCCCCC622930B53A
:1029B0001D468BB02FD83A4B1A2404FB0131B1F8D5
:1029C0002A190BB2002B54DD364C0C44112C10D8B4
:1029D000DFE804F0090F0F0F0F0F0F0F0F0F0F0F8E
:1029E0000F0F0F2D4D2790F8AD30002B14BF09218C
:1029F00001210A442C4906A8013A02EBC202114403
:102A000015F02EF806A9284615F0AEF806A815F020
:102A10005FF90BB030BD2549184615F041F90BB0F0
:102A200030BD11460A2206A815F05AF9EAE73F2AF6
:102A300028D9402A2FD00192EBD91D4906A815F0BC
:102A40009FF8019AA2F132010A2202A815F048F972
:102A500002A906A815F014F90146284615F084F8D5
:102A600002A815F035F906A815F012F9D1E75100C2
:102A7000D8E7012A28460CBF0E490F4915F010F976
:102A80000BB030BD0D4906A8019215F079F8019AF6
:102A9000C2F13201D8E72846094915F001F9B8E733
:102AA000388E0160FA83FFFF34C30160E02C002000
:102AB00098260020542A00209820002090200020F2
:102AC000942000200F2930B5154689B022D910393D
:102AD000CCB2072C05D91349104615F0E1F809B01E
:102AE00030BD114904A815F04BF80A22611C684654
:102AF00015F0F6F8694604A815F0C2F80146284614
:102B000015F032F8684615F0E3F804A815F0C0F89F
:102B100009B030BD054B104603EB011115F0C0F8AC
:102B200009B030BD2820002048200020D4CF01600B
:102B30000F2930B5154689B022D91039CCB2072CEF
:102B400005D91449104615F0ABF809B030BD12494B
:102B500004A815F015F80A22611C684615F0C0F8A3
:102B6000694604A815F08CF80146284614F0FCFFCD
:102B7000684615F0ADF804A815F08AF809B030BD24
:102B8000064B104603EB0111083115F089F809B026
:102B900030BD00BF2820002054200020D4CF016089
:102BA000F0B50C46C72991B0104604F101048CBF62
:102BB000502155211646A4B214F0B2FF20490A2232
:102BC0006846A1FB0431490915F08AF8694608A84E
:102BD00014F066FF1B4B04A8A3FB04250A22ED0892
:102BE000A9B205EB8505A3FB0173DB0803EB8303A7
:102BF000A1EB430189B215F073F804A908A815F0F8
:102C00003FF80746A4EB45010A220CA889B215F04B
:102C100067F80CA9384615F033F80146304614F031
:102C2000A3FF0CA815F054F804A815F051F808A853
:102C300015F02EF8684615F04BF811B0F0BD00BF46
:102C40001F85EB51CDCCCCCCF0B590F8513091B084
:102C500005460F4616466BBBB0F84C301046012BAC
:102C60008CBF5021552114F05BFFB5F84C100A229F
:102C700004A815F035F804A90CA814F011FF0A22D5
:102C8000394608A815F02CF808A90CA814F0F8FF8C
:102C90002B4914F0E9FF0146304614F065FF08A8FF
:102CA00015F016F80CA814F0F3FF04A815F010F8AE
:102CB00011B0F0BDB0F84C301046224C132B8CBF35
:102CC0005021552114F02CFFB5F84C100A2268460B
:102CD000A4FB0131C90815F003F8694608A814F0EF
:102CE000DFFEB5F84C100A2204A8A4FB0134E40866
:102CF00004EB8404A1EB440189B214F0F1FF04A9B0
:102D000008A814F0BDFF04460A2239460CA814F0A6
:102D1000E7FF0CA9204614F0B3FF0146304614F03B
:102D200023FF0CA814F0D4FF04A814F0D1FF08A8C6
:102D300014F0AEFF684614F0CBFF11B0F0BD00BF39
:102D400064200020CDCCCCCC70B54D1C154C8CB083
:102D5000164684FB0534EB170A226846C3EBA4042D
:102D6000214614F0BDFF694608A814F099FE0A2216
:102D700004EB840104A8A5EB410114F0B1FF04A900
:102D800008A814F07DFF0146304614F0EDFE04A8BB
:102D900014F09EFF08A814F07BFF684614F098FF1B
:102DA0000CB070BD6766666630B589B00D460D49DA
:102DB000144604A814F0E4FE0A22691C684614F0C4
:102DC0008FFF694604A814F05BFF0146204614F00B
:102DD000CBFE684614F07CFF04A814F059FF09B03C
:102DE00030BD00BF9C20002000EB4103013130B515
:102DF00089B0B3F89E3015460A2268465C1014F07C
:102E00006FFF694604A814F04BFE04A83A2114F0A1
:102E10008FFF0A49E3B203EB830301EB8301023125
:102E200014F022FF0146284614F09EFE04A814F078
:102E30002FFF684614F04CFF09B030BD44D9016043
:102E4000CB11F0B54C1C91B003F14101164604A81A
:102E5000A4B2C9B214F010FE20490A226846A1FBB0
:102E60000431490914F03CFF694604A814F008FF36
:102E70001B4B074608A8A3FB04250A22ED08A9B2AC
:102E800005EB8505A3FB01E3DB0803EB8303A1EB63
:102E9000430189B214F024FF08A9384614F0F0FE6B
:102EA0000746A4EB45010A220CA889B214F018FFCA
:102EB0000CA9384614F0E4FE0146304614F054FEE6
:102EC0000CA814F005FF08A814F002FF684614F0DF
:102ED000FFFE04A814F0DCFE11B0F0BD1F85EB511D
:102EE000CDCCCCCC2DE9F04190F8513090B00746D4
:102EF0000D461646002B47D0B0F84C1004A83D4CA8
:102F000001EB810189114131C9B214F0B5FDB7F867
:102F10004C100A226846A4FB0131C90814F0E0FEF7
:102F2000694604A814F0ACFEB7F84C1080460A229B
:102F3000A4FB013408A8E40804EB8404A1EB4401D9
:102F400089B214F0CDFE08A9404614F099FE04465B
:102F50000A2229460CA814F0C3FE0CA9204614F03E
:102F60008FFE0146304614F0FFFD0CA814F0B0FEB1
:102F700008A814F0ADFE684614F0AAFE04A814F0E8
:102F800087FE10B0BDE8F08101EB8102B0F84C3053
:102F9000642108A8520001FB0321C9114131C9B2C3
:102FA00014F06AFDB7F84C100A2204A814F098FE39
:102FB00004A908A814F064FE04460A2229460CA8B5
:102FC00014F08EFE0CA9204614F05AFE0A4914F0A3
:102FD0004BFE0146304614F0C7FD0CA814F078FEF5
:102FE00004A814F075FE08A814F052FE10B0BDE855
:102FF000F08100BFCDCCCCCC64200020F0B50D46D4
:103000008DB0184C5021013504A8164614F034FD3B
:1030100084FB0524EB170A226846C3EBA40421466F
:1030200014F05EFE694604A814F02AFE074604EB7D
:1030300084010A2208A8A5EB410114F051FE08A959
:10304000384614F01DFE0146304614F08DFD08A8E8
:1030500014F03EFE684614F03BFE04A814F018FE7F
:103060000DB0F0BD6766666670B5232901F00305F3
:1030700088B00C46164605F141051CD9462104A826
:1030800014F0FAFC0A22A1086846083914F028FE58
:10309000694604A814F0F4FD294614F049FE0146DF
:1030A000304614F061FD684614F012FE04A814F0D6
:1030B000EFFD08B070BD89080A226846013114F09E
:1030C0000FFE694604A814F0EBFC294604A814F08E
:1030D0002FFE0146304614F047FD04A814F0D8FD39
:1030E000684614F0F5FD08B070BD00BFF0B590F86B
:1030F000513089B0044616460D46DBB9B0F84C3065
:10310000002B3BD10A22684614F0EAFD694604A868
:1031100014F0C6FC04A82A4914F0A6FD0146304666
:1031200014F022FD04A814F0B3FD684614F0D0FD9D
:1031300009B0F0BD01F00307232907F141072ED99B
:10314000462104A814F098FCB4F84C100A226846F2
:10315000083914F0C5FD694604A814F091FD3946FC
:1031600014F0E6FD0146304614F0FEFC684614F00B
:10317000AFFD04A814F08CFD09B0F0BD462104A8F1
:1031800014F07AFC29460A22684614F0A9FD694623
:1031900004A814F075FD0A4914F066FDE2E7B0F8E2
:1031A0004C100A226846013114F09AFD694604A8C1
:1031B00014F076FC394604A814F0BAFDAEE700BF5F
:1031C0006420002070B590F851308CB00C46154644
:1031D000EBB9052950D9502108A814F04DFC611F06
:1031E0000A2204A814F07CFD04A908A814F048FDE4
:1031F000244914F039FD0146284614F0B5FC04A812
:1032000014F066FD08A814F043FD0CB070BD90F8F2
:103210004C600A2313FB0613322B28DD053E502198
:103220001046F6B214F07CFC3146684614F02CFDD2
:10323000694608A814F034FC0A22214604A814F0B8
:103240004FFD04A908A814F01BFD0F4914F00CFD54
:103250000146284614F088FC04A814F039FD08A89B
:1032600014F016FD684614F033FD0CB070BD552106
:10327000104614F055FCD7E7552108A814F0FCFBC4
:103280002146ADE7682000206C200020F8B50446F8
:1032900014F02EFC1B4902251B4B012208684FF03D
:1032A000620C09794FF0030EC4F806000527A172DD
:1032B00004262571CD25A4F848C084F854E0A765FC
:1032C000E67784F8915084F8212084F8242084F84B
:1032D000562003CBC4F8121019889B78C4F80E004E
:1032E000CF20E182D0212376002384F8920084F855
:1032F0009310A4F8463084F89C3084F89D3084F80C
:103300009430F8BDB4200020BC200020F8B504465D
:1033100014F0EEFB1A4A02251A4B01271068CD263D
:103320009288C4F806006281257107CBC4F80E00AC
:1033300004F13400C4F812101121C4F8162014F05E
:1033400053FC7F2200234FF0030ED120D221A4F89A
:1033500048200D4AE57784F8245084F854E084F836
:10336000217084F8916084F8920084F89310C4F876
:103370008C20A36584F8943084F89C30F8BD00BF9D
:10338000C8200020D020002080C3C9012DE9F041D1
:10339000044614F0ADFB224B0227224D4FF0030EE2
:1033A00018684FF07C0C4FF0CF08D326C4F8060005
:1033B000277184F82470A4F848C084F854E084F895
:1033C000928084F893600FCDDF25C4F80E00C4F816
:1033D00012100520C4F816200A21C4F81A30012260
:1033E000002384F89150104DA06504F5CE70E1776C
:1033F0001121C4F88C50A4F8463084F8943084F835
:103400009D30C4F8CC3084F8212084F89E2014F03C
:10341000EBFB04F1B8001121BDE8F04114F0E4BB6E
:10342000DC200020E020002080C3C9012DE9F0410C
:10343000044614F05DFB1C4902221C4B4FF00B08A4
:1034400008684FF0030C22714FF0060EC4F8060016
:103450000127CD2684F82420154AA4F8488084F852
:1034600054C084F81FE084F8217084F89160C4F897
:103470008C2003CB1B88C4F80E00CF20E3820023EE
:10348000C4F81210D22184F8920084F89310A4F8A2
:103490004630A36584F8943084F8A230C4F89C3098
:1034A0002367BDE8F08100BFF0200020F420002059
:1034B00080C3C901F8B5044614F01AFB1749022568
:1034C000174B012208684FF0470C89884FF0030E14
:1034D000C4F806000527618106262571CD25A4F8CC
:1034E00048C084F854E0A765E67784F8915084F8E2
:1034F000212084F8242003CB1B88C4F80E00DA2096
:10350000E3820023C4F8121084F89200A4F8463035
:1035100084F8933084F89430F8BD00BF0421002073
:1035200000210020F8B5044614F0E2FA164B0227F9
:10353000164D40F22B1C18684FF0030E2771C4F88B
:10354000060084F82470A4F848C084F854E00FCD35
:103550000725C4F80E00C4F812100120C4F8162084
:10356000CD21C4F81A30CF220023E57784F821005A
:1035700084F8911084F89220A4F84630A36584F86A
:10358000933084F89430F8BD0C21002010210020E5
:103590002DE9F041044614F0ABFA1B4A02211B4B03
:1035A0004FF0310C10684FF0030E1279CD27C4F89C
:1035B0000600CF26A2722171A4F848C084F854E016
:1035C00084F8917084F8926007CBB3F800800023F0
:1035D000C4F80E000520C4F816200122A4F81A80B1
:1035E000C4F81210A4F8463084F8933084F894306C
:1035F00084F83C312367A065E07784F8212084F8C3
:103600002420BDE8F08100BF2C21002034210020BF
:103610002DE9F843044614F06BFA204A0025204BAC
:10362000022710684FF0CF0C92884FF0D10EC4F8EB
:1036300006000326628140F27F184FF0CD09277102
:1036400084F82470A4F8488084F8919084F892C09B
:1036500084F893E084F89C6084F85460A4F84650A1
:10366000A56584F8945007CBC4F816201A889B7877
:10367000C4F80E0004F19D0023770123C4F8121052
:10368000294662835D22E37784F8213014F0E0FA62
:1036900084F8FB5084F8FC50BDE8F88344210020F6
:1036A0004C2100202DE9F843044614F021FA2F4A5A
:1036B00004212F4D00261068022712794FF09E0832
:1036C000C4F806004FF0030C84F89D104FF0CD09AC
:1036D000A2724FF0D70E274B84F89C602771A4F894
:1036E0004660E77784F8936084F89460A4F8488093
:1036F00084F854C084F8919084F892E007CDC4F81F
:103700000E000520C4F812100121C4F8162003F69B
:103710001875A0650B22184884F8211084F824102D
:1037200001E013F81C2C511E1C3312B1425C013213
:103730004254AB42F5D1292240F20D130F4E4FF601
:10374000FF750F4801E092F83826591E26F812300E
:103750008BB2C3EBC302AB4200EB4202F3D10023B6
:10376000C4F8843184F87731BDE8F8835C21002007
:10377000642100202D870160E0F900208CF90020F1
:1037800010E301602DE9F843054614F0B1F9244A2D
:103790000224244B40F28F1910684FF0030812796D
:1037A0004FF0090CC5F806004FF0CD0EAA72D027D5
:1037B0002C71EC7785F82440A5F8489085F8548062
:1037C000194C85F821C085F891E085F8927007CBF7
:1037D0001B78C5F812100021C5F80E00AB76C5F8AD
:1037E00016200C22114B1248A5F8461085F89C10A3
:1037F00085F89D10A96585F8931085F8941001E06F
:1038000013F8182C511E183312B1425C0132425485
:10381000A342F5D1002385F85530BDE8F88300BFF9
:103820007021002078210020BBB301608BA10160D2
:10383000001B0120F8B5154D04462868F8B14FF477
:103840000772002114F004FA114841F28833002174
:1038500002680768204602F5FA7225683B440D4E5F
:1038600084F8A01084F8A110226733606B6D98472C
:103870000121094B032284F86E101A70F8BD4FF431
:10388000077014F01DFA2860D9E700BF0CFA002079
:10389000A024012050F70020CE25012010B5034CB4
:1038A000206814F005F90023236010BD0CFA0020F5
:1038B000032907D90B1F072B02D81131C8B2704753
:1038C00000207047084670470B290DD9A1F1170356
:1038D0000A2B06D9A1F122031F2B08D81E31C8B22A
:1038E00070470239C8B270470131C8B27047002032
:1038F000704700BF70B505460C460AB990F86E20B7
:10390000012A34D0022A11D004EBC403194A202121
:1039100004EB4304A40004F11C032C34134422449C
:1039200003F8011F9342FBD1012070BD0A21114E03
:103930004C23114A284603FB046383F83C102B6890
:10394000D3F8E03093420FD1FFF7BEFF02464C237D
:103950002146284603FB046484F830202B68D3F802
:10396000F0309847002070BD98470246EFE70821E5
:10397000DDE700BF2C130120C938006010B584B00A
:103980000C460A220146684614F0AAF96946204608
:1039900014F0EAF8684614F09BF904B010BD00BFBB
:1039A000542905D8012A18460BD0074914F078B9D4
:1039B0005C2903D91846054914F072B91946104616
:1039C000DCE7034914F06CB998200020E02C0020BB
:1039D000542A002090F8A93090F8A8101BB111B11A
:1039E000184614F0ADB8704770B590F851308CB0EF
:1039F0000E4615463BB30446502104A814F03CF88B
:103A0000B4F84C100A22684614F06AF9694604A812
:103A100014F036F904460A22314608A814F060F979
:103A200008A9204614F02CF90146284614F09CF809
:103A300008A814F04DF9684614F04AF904A814F0E7
:103A400027F90CB070BD502104A814F015F80A2213
:103A5000314608A814F044F908A904A814F010F994
:103A6000074914F001F90146284614F07DF808A82A
:103A700014F02EF904A814F00BF90CB070BD00BFBF
:103A800064200020072930B5154689B005D91049B2
:103A9000104614F005F909B030BD0C4668460D49D2
:103AA00014F06EF80A22611C04A814F019F904A994
:103AB000684614F0E5F80146284614F055F804A8C5
:103AC00014F006F9684614F0E3F809B030BD00BF01
:103AD0002820002088210020072930B5154689B00C
:103AE00005D91049104614F0DBF809B030BD0C467A
:103AF00068460D4914F044F80A22611C04A814F029
:103B0000EFF804A9684614F0BBF80146284614F003
:103B10002BF804A814F0DCF8684614F0B9F809B0E2
:103B200030BD00BF2820002054200020032930B5DC
:103B30000C4689B015461FD90B0617D413496846A1
:103B400014F01EF8214604A814F09EF804A9684653
:103B500014F096F80146284614F006F804A814F06C
:103B6000B7F8684614F094F809B030BD084910461B
:103B700014F096F809B030BDC1EBC10405491046F8
:103B8000214414F08DF809B030BD00BF9021002011
:103B9000501F0020FCC2016030B590F851308DB04C
:103BA00014462BB30D460A22B0F84C10684614F0A8
:103BB00097F8694608A813F073FF0A22294604A85B
:103BC00014F08EF804A908A814F05AF8144914F057
:103BD0004BF80146204613F0C7FF04A814F078F80C
:103BE00008A814F055F8684614F072F80DB030BD0E
:103BF0000A2208A814F074F808A904A813F050FFCA
:103C000004A8084914F030F80146204613F0ACFF30
:103C100004A814F03DF808A814F05AF80DB030BD0F
:103C20006420002094210020052930B50C4689B07D
:103C3000154618D9184904A813F0A2FF0A22611FDB
:103C4000684614F04DF8694604A814F019F80146C6
:103C5000284613F089FF684614F03AF804A814F0D7
:103C600017F809B030BD0D49684613F089FF2146A9
:103C700004A814F009F804A9684614F001F80146F4
:103C8000284613F071FF04A814F022F8684613F0D8
:103C9000FFFF09B030BD00BFA02100209821002007
:103CA00030B589B005460C460B4904A813F068FFEF
:103CB0002946684613F0E8FF694604A813F0E0FFC0
:103CC0000146204613F00CFF684614F001F804A8E2
:103CD00013F0DEFF09B030BD902100204BB2084642
:103CE000002B01DD1146DBE71046014914F00CB84A
:103CF000501F00200F290B4608D95F2903D9104611
:103D0000054914F001B811461846C9E703491046A1
:103D100001EB031113F0F8BF501F0020D4CF016056
:103D20004B1E072B30B50C4689B0154629D90929F9
:103D30003FD00A2942D00B2945D00C2948D0A1F107
:103D40000D03722B05D91046244913F0DDFF09B08D
:103D500030BD2349684613F013FF214604A813F031
:103D600093FF04A9684613F08BFF0146284613F021
:103D7000B7FE04A813F0ACFF684613F089FF09B042
:103D800030BD184904A813F0FBFE2146684613F025
:103D90007BFF694604A813F073FF0146284613F021
:103DA0009FFE684613F094FF04A813F071FF09B05A
:103DB00030BD10460C4913F0A7FFC8E710460B4969
:103DC00013F0A2FFC3E71046094913F09DFFBEE7B9
:103DD0001046084913F098FFB9E700BF501F0020B4
:103DE00090210020AC210020B8210020C421002017
:103DF000D4210020E0210020074B03EB8000B0F825
:103E00000404B0F5004F04D3C0F30E0000F10070BD
:103E1000704700F1C050704708F4016003682DE955
:103E2000F047D3F82C310446DFF8308115460E46B2
:103E3000434552D1FDF78EFC0746434529462046AF
:103E40003ED1FDF787FC002E3DD0731EDBB203EBA5
:103E5000430C9946C3EBCC0C0CF1080C5FFA8CFCBC
:103E6000BDB3013DEDB205EB4503AA46C5EBC30367
:103E70000833DBB203F11708C3EB0C0C5FFA88F8C8
:103E8000E11803EB0C02013354FA82F291F83B5132
:103E9000DBB292F83BE1434581F83BE182F83B51CC
:103EA000EED19FB3BAF1070F4DD9E0B1B9F1070FC9
:103EB00039D9002384F86D6084F8FC31BDE8F087BF
:103EC0009847002EC1D14FF0FF094FF0080C002D8C
:103ED000C7D14FF0FF0A0823CCE79847236807466D
:103EE000D3F82C31A9E7B9F1070FE2D8012294F8F1
:103EF000413184F86D6002FA09F923EA090384F874
:103F00004131002384F8FC31BDE8F087BAF1070F96
:103F1000CBD8012294F8413102FA0AFA23EA0A03C3
:103F200084F84131C1E7012394F8412184F86D60A0
:103F300003FA09F942EA090384F84131002384F8BD
:103F4000FC31BDE8F087012394F8412103FA0AFA15
:103F500042EA0A0384F84131A7E700BF5517006021
:103F6000134A4379127801339A4201D000207047F6
:103F700090F8A820FF2A19D00E480F4B10B54C24FA
:103F800004FB01010D48498EA0FB02E4A3FB01E301
:103F90005B08B3EB540F01D0012010BDA0FB013131
:103FA000B2EB510F0CBF0120002010BD0120704763
:103FB000822501202C130120398EE338ABAAAAAA4E
:103FC0000A7ACB79120470B402EB03624E7A8C7ACF
:103FD00002EB0623094D2344AB420AD0084A934220
:103FE00005D1CA7A002380F89D2080F8573070BC34
:103FF0007047CB7A70BC80F89C307047003000600E
:10400000003800600B39052906D8DFE801F0060901
:104010000C0F120380F86D24704780F868247047F5
:1040200080F86B24704780F86924704780F86C240E
:10403000704780F86A247047154BA3FB0123DB0807
:1040400003EB8302DBB2A1EB420110B490F8AD4068
:10405000184489B290F8A620A4B1022A0FD802EB26
:1040600082020C480C4C01EB420154F823305DF8FD
:10407000044B00EB8101B1F8A004184470470532ED
:10408000D2B2ECE702EB82020248044CEBE700BF3D
:10409000CDCCCCCC08F40160900500209C0500201C
:1040A00030B42F4A1A2390F8AD4003FB012344BBE0
:1040B000B3F81A39512B36D0522B37D01D0403D503
:1040C000C3F30E0343F4803303F180531A2505FB39
:1040D000012191F82D298AB102F00F0102F0F002BE
:1040E0000844102A90F8A51026D0202A06D144BBF7
:1040F000042930D0052901D103F20123184630BC30
:104100007047B3F81C59512D0AD0522D11D02B04F1
:1041100003D5C5F30E0545F48035124B2B44D5E786
:10412000114830BC7047114830BC7047104830BC53
:104130007047104830BC70470129DFD103F20620D8
:10414000EFE7042904D00529D8D103F5FA70E8E790
:1041500003F1F200E5E703F581731846CFE700BFEE
:10416000388E0160000002103F1008003F1001006F
:10417000211001002110080030B490F852409DF841
:1041800008501CB190F82240AC4201D030BC7047BE
:1041900090F821409C42F9D1A1B10C4B9C305024A5
:1041A00003F23B1505E0AB4200F10100EED013F83D
:1041B000154CA14203F11503F5D1141C18BF0124BD
:1041C0000470F0E780F85020E0E700BF3696016009
:1041D0007B4BC1EBC10103EB810190F89D3091F85D
:1041E000D2299A423ED870B490F89C40B4B1B1F84C
:1041F000BA1901F47042B2F5104F00F0BF8058D9DF
:10420000B2F5304F63D0B2F5404F00F08780B2F581
:10421000204F7CD001F1C04070BC7047B1F8B81994
:1042200001F47042B2F5104F00F08A801CD9B2F54B
:10423000304F4CD0B2F5404F00F0AB80B2F5204F7C
:10424000E8D1604D604C90F87621002A62D0022BB4
:104250008CBF00230123002B5CD1012A00F0AC802D
:104260001846D9E700207047B2F5E04F46D0B2F5C6
:10427000004FCFD190F87301544DC200AB18B3F882
:1042800080362A4401F00F0092F88626904232DAF6
:10429000184480B2020604D547F67F73034003F545
:1042A0008070002C7FD1B0F5127F65D000F1C04046
:1042B000B2E7B2F5E04F21D0B2F5004FAAD190F8A5
:1042C0007301424DC200AB18B3F88436D9E790F8B9
:1042D000783101F00F003D4A03EB430302EB430347
:1042E00093F8D427904206DA5CB1B3F8D23703F1E1
:1042F000C043184490E7002070BC7047C1F30B0026
:104300008AE7B3F8D03703F1C043184484E7304D4F
:10431000304C98E701F00F0020447DE71E2613255E
:10432000022B90F8774107D9B4FA84F252091AB9EE
:10433000012C3DD010466FE701F00F0028446BE7D9
:1043400090F87521214DD300EA18B2F882261D4459
:1043500001F07F0095F886369842CCDA104480B29E
:10436000030604D547F67F73034003F58070ACB9AC
:1043700040F25443984299D117484DE790F875217F
:10438000124DD300EA18B2F8842602F5007292B2F8
:10439000DDE74FF4886640F23345C1E7B0F5577F5B
:1043A00084D10E4838E7B0F5AE7F7FF47FAFF8E7F1
:1043B00001F00F0398192FE701F00F0358192BE7AD
:1043C000407D0160310100600511006008F401606A
:1043D0004D00006042000060180700607105006039
:1043E0000022036810B50446C0F8CC20DB6D984766
:1043F000236820465B6D9847014B03221A7010BD5D
:10440000CE25012090F8A4306BB990F8A13003EBD1
:104410008303074A01EB430302EB8303B3F8E4078A
:1044200000F1C050704790F8A2200432D3B2EEE7FA
:1044300008F401604A7A0B7A120470B402EB03624A
:104440008E7ACC7A02EB0623094D2344AB420AD084
:10445000084A934205D10A7B002380F89D2080F80A
:10446000573070BC70470B7B70BC80F89C30704735
:1044700000100020040800200A7ACB79120470B4DE
:1044800002EB03624E7A8C7A02EB0623144D23442E
:10449000AB4215D0134A93420DD0134A934214D124
:1044A0004B7D80F89F30CB7A80F8A1300B7C80F870
:1044B000A23070BC7047CB7A70BC80F89E307047D9
:1044C000CB7A70BC80F89D307047084A9342F0D197
:1044D000CA7A002380F8A02080F8573070BC70475B
:1044E00003200018032100180010001832020018E1
:1044F0000E4A4379127801339A4201D00020704766
:1045000090F89D30FF2B08D0094A4C2000FB012178
:104510004A8ED108B1EB530F01D001207047B3EBA5
:10452000920F0CBF01200020704700BF82250120A0
:104530002C1301200E4A4379127801339A4201D09C
:104540000020704790F8AC30FF2B08D0094A4C206F
:1045500000FB01214A8ED108B1EB530F01D001209D
:104560007047B3EB920F0CBF01200020704700BFD3
:10457000822501202C1301200E4A43791278013341
:104580009A4201D00020704790F8AE30FF2B08D03F
:10459000094A4C2000FB01214A8ED108B1EB530F90
:1045A00001D001207047B3EB920F0CBF0120002017
:1045B000704700BF822501202C130120094A92F880
:1045C0002D20042A00D0704790F85620002AFAD1F6
:1045D00090F855100029F6D0016880F855208B6CB2
:1045E000184700BF981A0120F0B590F851300F46D7
:1045F00091B005461646B0F84C10002B39D02E4C21
:104600000A2208A8A4FB0131C90813F069FB08A914
:104610000CA813F045FAB5F84C100A2204A8A4FB24
:104620000134E40804EB8404A1EB440189B213F0E3
:1046300057FB04A90CA813F023FB04460A223946B1
:10464000684613F04DFB6946204613F019FB0146FE
:10465000304613F089FA684613F03AFB04A813F0C9
:1046600037FB0CA813F014FB08A813F031FB11B0B2
:10467000F0BD0A2204A813F033FB04A90CA813F020
:104680000FFA0A22394608A813F02AFB08A90CA839
:1046900013F0F6FA094913F0E7FA0146304613F031
:1046A00063FA08A813F014FB0CA813F0F1FA04A89D
:1046B00013F00EFB11B0F0BDCDCCCCCC64200020AB
:1046C00070B590F851308CB00E46154653B3044681
:1046D000552108A813F0D0F9B4F84C100A2204A808
:1046E00013F0FEFA04A908A813F0CAFA04460A2235
:1046F0003146684613F0F4FA6946204613F0C0FAD2
:10470000164913F0B1FA0146284613F02DFA68460F
:1047100013F0DEFA04A813F0DBFA08A813F0B8FAD5
:104720000CB070BD552108A813F0A6F90A22314635
:1047300004A813F0D5FA04A908A813F0A1FA0849AF
:1047400013F092FA0146284613F00EFA04A813F06B
:10475000BFFA08A813F09CFA0CB070BD6C200020C2
:104760006820002090F89C30C1EBC101D3B1244BEC
:1047700003EB8101B1F8BA3903F47042B2F5204F6E
:104780001AD020D8B2F5004F35D0B2F5104F27D14E
:1047900090F875111B4A03F00F0332F8110018440A
:1047A00080B27047164B03EB8101B1F8B83903F4BE
:1047B0007042B2F5204FE4D190F87621012A14BF5F
:1047C00007212921E6E7B2F5304F0CD0B2F5404F72
:1047D00006D190F87721012A14BF07212921D9E7B2
:1047E0004FF6FF70704790F878213AB1012A14BF54
:1047F00025212821CEE790F87311CBE70221C9E7E4
:10480000407D01608CF9002089291FD8F8B5CF00C0
:104810001D4E90F89D507A1A06EB820292F8D2292A
:10482000AA4211D80C46FFF79DFF4FF6FF7398423E
:104830000ED0B0F5877F07D2144BC0EBC00003EB5E
:10484000400090F83906F8BD0020F8BD0020704700
:10485000022D03D9282C01D11A20F8BD182C07D01D
:10486000472C05D03C1B06EB840696F8BC09F8BD26
:10487000012D03D9022D03D12520F8BD2420F8BD38
:10488000032DEFD12720F8BD407D016010E30160CA
:104890008929F8B50C461746064618D9C4EBC40456
:1048A000174996F89D30A4000A1992F8D2299A4225
:1048B00007D82144384601F6BD11BDE8F84013F091
:1048C000EFB938460F49BDE8F84013F0E9B9FFF7F2
:1048D00049FF4FF6FF7305469842DFD0E1B23046FC
:1048E000FFF776FC0028ECD0C5EBC5050649384635
:1048F00001EB4501BDE8F840023113F0D1B900BF2A
:10490000407D01602820002048E901605C2920D812
:10491000542938B513D915460C46811D104613F09D
:10492000BFF92021284613F0FBF80A4BC4EBC40161
:10493000284603EB4101BDE8384013F0B1B9054BFF
:10494000C1EBC101104603EB4101BDE8384013F053
:10495000A7B9704704FD016090F86D3003B9704746
:1049600030B50D4685B004462D21284613F0D8F801
:1049700094F86D10684613F087F96946284613F0DD
:10498000F3F8684613F0A4F905B030BD90F86D3027
:1049900003B9704730B50D4685B004462D21284631
:1049A00013F0BEF894F86D10684613F06DF969467F
:1049B000284613F0D9F8684613F08AF905B030BDDF
:1049C00090F8522080F8552002B970470268018D96
:1049D000136D184790F85130ABB1B0F84C3013B9A3
:1049E00009B900207047B0F8482003EB8303B0F802
:1049F000460001EB4301131A0133B3EB810FACBF47
:104A0000012000207047B0F8483001EB8101B0F878
:104A100046209B1A0133B3EBC10FACBF012000202D
:104A2000704700BF90F86E3093B10133DBB2032BB7
:104A300088BF012380F86E30036810B5D3F80431C5
:104A40000C4698470349044B01220C701A7010BDA4
:104A5000704700BFCC250120CE25012090F85130B1
:104A600063B1B0F84C20B0F8463003EBC200084404
:104A700080B200B97047013880B27047B0F84C304E
:104A8000B0F8460003EB830301EB430100EBC101E7
:104A900088B2704790F851309BB190F89030B0F8E0
:104AA0004C20012B0CBF0423082322B98B4234BFB6
:104AB000002001207047481E07288CBF00200120DD
:104AC0007047B0F84C200323C2EB021210B452001E
:104AD000B0F84840B0F8460013FB0121201A5DF8F9
:104AE000044B8142CCBF00200120704790F8513028
:104AF0009BB1B0F84C3013B909B900207047B0F839
:104B0000482003EB8303B0F8460001EB4301101A81
:104B10008142CCBF00200120704730B4B0F84C5027
:104B20006424B0F848300A22B0F8460004FB05F4CB
:104B300012FB01411B1A994230BCCCBF002001205E
:104B4000704700BF03790022022B80F8532000D069
:104B5000704790F85230002BFAD1012380F82210D0
:104B600080F89C30704700BF90F85130A3B1B0F886
:104B70004C3013B909B900207047B0F8482003EB56
:104B80008303B0F8460001EB4301131AB3EB810F26
:104B9000ACBF012000207047B0F8483001EB810124
:104BA000B0F846209B1AB3EBC10FACBF0120002028
:104BB000704700BF4B1E072B08D890F86D308B4212
:104BC00004D0034B012280F86D101A70704700BFAB
:104BD000CD25012090F8A32002B970470368D3F8CF
:104BE000903018470379022B01D008467047002304
:104BF00000F19C02F0B41C4601E05D2B0CD012F8D1
:104C0000015FDFB2661C0133002DF6D0A142F4B281
:104C1000F3D1B8B2F0BC70474FF6FF70F0BC7047EC
:104C200030B5046885B00F4DD4F8B440AC4212D111
:104C300006208842184608D9012A0CBF0A490B49A8
:104C400005B0BDE8304013F02BB8094905B0BDE808
:104C5000304013F025B8039302920191A04701A9B7
:104C60000EC9E6E7B11C0060542A002098200020FD
:104C7000E02C0020036810B5D3F8B4300C460E4980
:104C800082B08B4214D16320A04206D810460B4953
:104C900002B0BDE8104013F037B8094B1A21104696
:104CA00001FB04310B3102B0BDE8104013F02CB809
:104CB00001929847019AE7E7811B0060E02C0020F1
:104CC0004C970160036810B5D3F8B43082B00F4C34
:104CD000A34215D1B020884206D810460C4902B034
:104CE000BDE8104013F010B80A4B01EB410110462B
:104CF00003EBC101033102B0BDE8104013F004B86A
:104D00008DE8060098479DE80600E4E7F11B006087
:104D1000E02C00205CA10160F0B504688BB03B4F33
:104D20001646D4F8B4401D46BC422FD1B02088426C
:104D300026D901EB4101364800EBC101B1F8401220
:104D40000BB2002B4ADD47F61643994222D047F6B4
:104D5000174399424BD047F61543994220D031442E
:104D60002C4B06A8013903EBC10112F079FE06A90C
:104D7000284612F0F9FE06A812F0AAFF0BB0F0BD0B
:104D80002846254912F08CFF0BB0F0BD0191A047D9
:104D90000199CCE771000A2206A812F0A1FFE6E70C
:104DA000312E26D9322E2BD0EED91C4906A812F06E
:104DB000E7FEA6F132010A2202A812F091FF02A931
:104DC00006A812F05DFF0146284612F0CDFE02A8AB
:104DD00012F07EFF06A812F05BFFD5E7012E2846F1
:104DE0000CBF0F490F4912F05BFF0BB0F0BD31460D
:104DF000D1E70D4906A812F0C3FEC6F13201DAE789
:104E000028460A4912F04CFFBEE700BFF11B0060C4
:104E1000309F01601C020260E02C002098260020D8
:104E2000542A002098200020902000209420002068
:104E300003680B4AD3F8B430934205D10620884268
:104E40008CBF02200020704700B583B001919847C5
:104E5000019988428CBF0220002003B05DF804FB5A
:104E6000B11C0060036830B5D3F8B4300C46164965
:104E700089B015468B4224D10620A04205D813499B
:104E8000284612F041FF09B030BD1149684612F0C2
:104E900077FE0A22611C04A812F022FF04A96846CA
:104EA00012F0EEFE0B4912F0DFFE0146284612F02A
:104EB00017FE04A812F00CFF684612F0E9FE09B0D4
:104EC00030BD9847D9E700BFB11C0060E02C00203E
:104ED0000C2200201022002003680B4AD3F8B430C3
:104EE000934205D1062088428CBF022000207047E3
:104EF00000B583B001919847019988428CBF022088
:104F0000002003B05DF804FBB11C0060F8B5036835
:104F10000646464D0C46D3F8B4301746AB425CD13A
:104F20008A20A04246D9892C59D821463046FFF71D
:104F300019FC4FF6FF730546984250D096F89C3006
:104F4000C4EBC4042BB33A4B03EB8404B4F8BA3972
:104F500003F47043B3F5204F25D031D8B3F5004F9B
:104F600050D0B3F5104F5CD13249384612F0CCFE28
:104F700096F87521C5EBC5052F496D004B1993F8BF
:104F80003836934245D038462C49BDE8F84012F0F7
:104F900087BE274B03EB8404B4F8B83903F470439D
:104FA000B3F5204FD9D196F87631012B14BF0722E3
:104FB0002922DFE738462249BDE8F84012F0A4BEB6
:104FC000B3F5304F16D0B3F5404F2AD196F877316C
:104FD000012B14BF07222922CCE79847A1E7C4EB95
:104FE000C404184B384603EB8401BDE8F840053192
:104FF00012F08ABE96F87831ABB1012B0CBF282293
:105000002522B7E71049384612F07EFE96F8732144
:10501000B0E72944384601F23A61BDE8F84012F0A1
:105020003FBE0022A6E70222A4E700BF8D19006060
:10503000407D01609C20002010E3016028200020BA
:10504000E02C0020F886016014220020F0B51546FF
:105050000268DFF8B8E21E46D2F8B43089B00746DD
:105060000C4673452DD18A20A04224D9892C2AD8F8
:1050700038462146FFF776FB4FF6FF73984222D061
:10508000904BC0EBC00003EB4000B0F8442613B2D5
:10509000002B22DD8C4B1344092B00F2E980DFE862
:1050A00013F033005400AC007C00810056006B000C
:1050B000C300E20025003046844912F0F1FD09B03A
:1050C000F0BD9847D0E7824BC4EBC40403EB8404E3
:1050D000B4F8CE2913B2002BDCDC012D30460CBF16
:1050E0007C497D4912F0DCFD09B0F0BD29460A2259
:1050F00004A812F0F5FD04A9304612F035FD04A80D
:1051000012F0E6FD09B0F0BD182D00F2C780B5F130
:1051100018014FF00A0204A848BFA5F11701491071
:1051200012F0DEFD04A9304612F01EFD04A812F0B4
:10513000CFFDEB07304654BF6849694912F0B0FD16
:105140003046684912F0ACFDB9E7691CCFE7142D71
:1051500000F2A9800A22A5F1140104A812F0C0FDF2
:1051600004A9304612F000FD04A812F0B1FD30464B
:105170005C4912F095FDA2E729460A2204A812F024
:10518000AFFD04A9304612F0EFFC04A812F0A0FD18
:105190003046554912F084FD91E7182D79D8A5F1D4
:1051A0001801A4E70135514C0A2204A8ADB2A4FBB2
:1051B0000534E408214604EB840412F091FD04A9AF
:1051C000304612F0D1FC04A812F082FD4849304666
:1051D00012F066FD0A22A5EB440104A889B212F080
:1051E0007FFD04A9304612F0BFFC04A812F070FD48
:1051F0003046404912F054FD61E70A22690804A8CC
:1052000005F0010512F06CFD04A9304612F0ACFC6B
:1052100004A812F05DFD3649304612F041FD04A8A5
:10522000A9000A222944AAE73F2D2BD9402D44D0BA
:105230007FF645AF304904A812F0A2FCA5F1320177
:105240000A22684612F04CFD694604A812F018FDC7
:105250000146304612F088FC684612F039FD04A879
:1052600012F016FD2BE7322D22D8A5F132013EE7D0
:105270002A44224904A8013A02EBC202114412F066
:10528000EFFB38E71E4904A812F07AFCC5F13201A1
:10529000D6E71C49304612F003FD80E71949304635
:1052A00012F0FEFC33E71749304612F0F9FC51E7E3
:1052B0001449304612F0F4FCD7E73046124912F098
:1052C000EFFCFCE610E30160F283FFFFE02C00201E
:1052D000407D0160542A00209820002028220020D0
:1052E0002C220020242200201C220020CDCCCCCC5B
:1052F000302C00203022002098260020C40A0260B2
:105300009020002020220020942000208D19006091
:10531000036810B5D3F8B4300C460F4982B08B4205
:1053200015D11020A04206D810460C4902B0BDE8A5
:10533000104012F0E9BC04EB440309491046C4EBE9
:10534000C304214402B0BDE8104012F0DDBC01925C
:105350009847019AE6E700BFF5190060E02C0020AD
:1053600024B50160F8B5A1F10E05012D1DD91D462A
:1053700003681746114AD3F8B4300C4693421AD149
:1053800010208442284606D2012F09D00C49BDE8DE
:10539000F84012F085BC0B49BDE8F84012F080BC23
:1053A0000949BDE8F84012F07BBC19461046BDE83B
:1053B000F840FEF7E3BA9847E3E700BFF51900604D
:1053C000342200203C220020542A0020036810B51B
:1053D000D3F8B43082B00F4CA34214D109208842D4
:1053E00006D810460C4902B0BDE8104012F08CBC43
:1053F0000A4B01EB8101104603EB410102B0BDE80D
:10540000104012F081BC8DE8060098479DE8060028
:10541000E5E700BFB11A0060E02C002094B60160FF
:1054200030B5046885B00E4DD4F8B440AC4210D10C
:105430000920884206D818460A4905B0BDE8304020
:1054400012F02EBC1946104605B0BDE83040FEF7FC
:1054500095BA039302920191A04701A90EC9E8E70A
:10546000B11A00603C220020036810B5D3F8B430B4
:1054700082B00F4CA34215D10F20884206D81046A7
:105480000C4902B0BDE8104012F03EBC01EB4101F6
:10549000094B1046C1EBC101194402B0BDE81040F0
:1054A00012F032BC8DE8060098479DE80600E4E75C
:1054B000C11A0060E02C00201096016030B504682D
:1054C00085B00E4DD4F8B440AC4210D10F208842C4
:1054D00006D818460A4905B0BDE8304012F0E0BBD6
:1054E0001946104605B0BDE83040FEF747BA0393B1
:1054F00002920191A04701A90EC9E8E7C11A006014
:105500003C220020A1F10E02012A01D88020704720
:105510000368074AD3F8B430934210B50C4605D15E
:105520001020844234BF0220002010BD9847F8E7C5
:10553000F5190060A1F10C03032B01D880207047FE
:105540000368074AD3F8B430934210B50C4605D12E
:105550001420844234BF0220002010BD9847F8E791
:10556000CD180060036810B5D3F8B43082B00F4C8A
:10557000A34214D15D20884206D810460C4902B0DF
:10558000BDE8104012F0C0BB0A4BC1EBC101104690
:1055900003EB410102B0BDE8104012F0B5BB8DE84D
:1055A000060098479DE80600E5E700BF5916006031
:1055B000E02C002004FD016003680B4AD3F8B430EE
:1055C000934205D1082088428CBF022000207047FA
:1055D00000B583B001919847019988428CBF0220A1
:1055E000002003B05DF804FBA1160060036810B54D
:1055F000D3F8B43082B00F4CA34215D12F2088428B
:1056000006D810460C4902B0BDE8104012F07CBB31
:105610000A4B01EB4101104603EBC101093102B015
:10562000BDE8104012F070BB8DE8060098479DE879
:105630000600E4E7A5160060E02C0020407D016034
:10564000F0B504688BB03B4F1646D4F8B4501C46F6
:10565000BD422FD12F20884226D901EB4101364887
:1056600000EBC101898A0BB2002B4BDD47F61643D4
:10567000994223D047F6174399424CD047F6154339
:10568000994221D08A192D4906A8013A02EBC2029B
:10569000114412F0E5F906A9204612F065FA06A8B1
:1056A00012F016FB0BB0F0BD2046254912F0F8FAB7
:1056B0000BB0F0BD0191A8470199CCE771000A2217
:1056C00006A812F00DFBE6E73F2E26D9402E2BD080
:1056D000EED91C4906A812F053FAA6F132010A22AB
:1056E00002A812F0FDFA02A906A812F0C9FA0146B2
:1056F000204612F039FA02A812F0EAFA06A812F0CF
:10570000C7FAD5E7012E20460CBF0F490F4912F00A
:10571000C7FA0BB0F0BD3146D1E70D4906A812F02B
:105720002FFAC6F13201DAE720460A4912F0B8FA38
:10573000BEE700BFA5160060407D01603416026020
:10574000E02C002098260020542A002098200020D9
:105750009020002094200020036810B5D3F8B430C6
:1057600082B00F4CA34215D13020884206D8104693
:105770000C4902B0BDE8104012F0C6BA0A4B01EB6A
:105780004101104603EBC101093102B0BDE81040F0
:1057900012F0BABA8DE8060098479DE80600E4E7E3
:1057A00031170060E02C0020A8810160F0B504688A
:1057B0008BB0394F1646D4F8B4501C46BD4229D19F
:1057C0003020884220D901EB4101344800EBC1016F
:1057D000B1F87C140BB2002B49DD47F61543994212
:1057E0001CD03AD347F61743994236D831460A229D
:1057F00006A812F075FA06A9204612F0B5F906A817
:1058000012F066FA0BB0F0BD2046254912F048FAB6
:105810000BB0F0BD0191A8470199D2E73F2E2FD9D7
:10582000402E34D0F4D91F4906A812F0A9F9A6F1E8
:1058300032010A2202A812F053FA02A906A812F0B5
:105840001FFA0146204612F08FF902A812F040FA22
:1058500006A812F01DFA0BB0F0BD8A19124906A86D
:10586000013A02EBC202114412F0FAF8C3E7012E2A
:1058700020460CBF0D490E4912F012FA0BB0F0BDD4
:105880000C4906A812F07CF9C6F13201D1E7204696
:10589000094912F005FABBE731170060407D01604D
:1058A000E02C002098260020B81C0260542A00201A
:1058B000982000209020002094200020036810B53C
:1058C000D3F8B4300C460F4982B08B4215D110206A
:1058D000A04206D810460C4902B0BDE8104012F0B4
:1058E00013BA04EB44030949104604EB8304214432
:1058F00002B0BDE8104012F007BA01929847019A31
:10590000E6E700BFF5190060E02C00202886016062
:1059100030B5046885B00E4DD4F8B440AC4210D117
:105920001020884206D818460A4905B0BDE8304024
:1059300012F0B6B91946104605B0BDE83040FEF782
:105940001DB8039302920191A04701A90EC9E8E78F
:10595000F51900603C220020036810B5D3F8B4307C
:1059600082B00E4CA34212D11420884206D81046B1
:105970000B4902B0BDE8104012F0C6B9094B104601
:1059800003EB011102B0BDE8104012F0BDB98DE883
:10599000060098479DE80600E7E700BFCD180060C5
:1059A000E02C0020E4B3016030B5046885B00E4DF2
:1059B000D4F8B440AC4210D11420884206D818461E
:1059C0000A4905B0BDE8304012F06AB919461046E0
:1059D00005B0BDE83040FDF7D1BF039302920191BD
:1059E000A04701A90EC9E8E7CD1800603C220020BD
:1059F000028D8A4208B503460AD001205A851985CE
:105A000083F83D0101230649064A0B70137008BD57
:105A10000368054AD3F890309342F3D09847F1E7F2
:105A200031410020CD2501208D0200002DE9F043F9
:105A30001D4D95B081468846EC46DFF878E005AE0E
:105A40001A4F0AAC0FCDACE80F002B68184D8CF83C
:105A50000030BEE80F000FC60FCFDEF800E03F6851
:105A600086F800E00FC427700FAC0FCD99F86E6078
:105A70002D68012E0FC425700BD0022E0ED0032EE0
:105A800040460CBF0FA9694612F0DEF815B0BDE81C
:105A9000F08305A9404612F0D7F8F7E70AA9404677
:105AA00012F0D2F8F2E700BF882200209C220020EA
:105AB000B0220020C42200202DE9F0431C4D95B0F7
:105AC00081468846EC46DFF874E005AE194F0AAC13
:105AD0000FCDACE80F002B68174D8CF80030BEE8F6
:105AE0000F000FC60FCFDEF800E03F6886F800E039
:105AF0000FC427700FAC0FCD99F86E602D68012E82
:105B00000FC425700AD0022E0DD08CBF0FA9694694
:105B1000404612F099F815B0BDE8F08305A940465B
:105B200012F092F8F7E70AA9404612F08DF8F2E772
:105B3000D8220020EC220020002300201423002083
:105B400070B5054684B00E4622B3543215484C2336
:105B50000021D4B203FB060368465C86C4EBC40490
:105B600011F07EFFA91D684612F0CEF8684620218C
:105B700011F0D6FF0C49684601EB440112F090F891
:105B80006946304612F01CF8684612F0A1F8012070
:105B900004B070BD90F86E20002AD6D1012004B068
:105BA00070BD00BF2C13012004FD016070B588B0EA
:105BB00006460C461E496846154611F051FF1D4920
:105BC0004C230220A5F10E0203FB0413012AD87115
:105BD000F07F83F82E0009D92046694611F0F0FFC6
:105BE000684612F075F8012008B070BD0E2D1AD06D
:105BF00096F86D2083F842204C230A2204A803FB68
:105C000004114B7A042B0CBF91F8421091F8441008
:105C1000013112F065F804A9684611F0A5FF04A847
:105C200012F056F8D8E796F86C2083F84220E3E7A4
:105C3000341F00202C130120174B70B51E6884B050
:105C4000B6B102EB42030C4615466846C3EB03119E
:105C5000314411F005FF0B2D05D9684612F038F8D4
:105C6000012004B070BD2046694611F0A9FFF4E799
:105C700001EBC103094A202001EB4301890001F136
:105C80001C032C3113440A4403F8010F9342FBD147
:105C9000012004B070BD00BF0CFA00202C130120BD
:105CA000F0B585B0064614460D466846264911F003
:105CB000D7FE301990F89C304BBBB4FA84F14909F7
:105CC00029BB4C22214E224B02FB0566A200F1713A
:105CD00086F82E10144403EB440494F8741661B152
:105CE00090F89C204B1E1B496846134403EB83022B
:105CF00003EB4203194411F0D3FF2846694611F023
:105D00005FFF684611F0E4FF012005B0F0BD90F898
:105D1000A5300E4F8BB14C23012203FB0573DA71C2
:105D2000A2000B4B4C21161901FB057103EB460633
:105D300096F8756681F82E60CCE74C23022203FBAF
:105D40000573DA71ECE700BF341F00202C1301202B
:105D500028B00160C422026070B50646154684B0C2
:105D60000C4635441149684611F07AFE95F89C308E
:105D7000ABB10F4B4C22012102FB0432D1714C25F7
:105D8000F27F2046694605FB043484F82E2011F08A
:105D900017FF684611F09CFF012004B070BD044B52
:105DA0004C22022102FB0432D171E8E7341F0020AB
:105DB0002C1301202DE9F04F8BB09A4604460F4674
:105DC0009DF8509002A888491546B9FA89F67609D7
:105DD00011F046FEBAF1000F1ED1EEB1002D40F0D9
:105DE000FC80172304F20B2204F21320E118013384
:105DF00091F83B11DBB202F8011F8242F6D104F5A3
:105E0000037106A811F02CFE06A8102202A911F0B9
:105E100077FE06A811F05CFF1AF1000B18BF4FF0D7
:105E2000010B002E4BD0BBF1000F48D0002D40F0ED
:105E3000CE80172304F20B2804F213204246E11807
:105E4000013391F83B11DBB202F8011F8242F6D117
:105E500004F5037306AE19463046019311F000FEB7
:105E6000082230460DEB020111F04AFE304611F0D7
:105E70002FFF202102A811F053FE0AF1FF32019BEF
:105E800002EB4201C2EBC101C9B201F117021F319D
:105E9000D2B2C9B2A0180132D2B290F83B019142FD
:105EA00008F8010FF6D11946304611F0D9FD3046F9
:105EB000072202A911F024FE304611F009FFB9F1C2
:105EC000000F73D0BBF1000F70D0002D79D11723D4
:105ED00004F20B2504F213202A46E118013391F84D
:105EE0003B11DBB202F8011F9042F6D106AE04F579
:105EF00003780AF1FF3A4146304611F0B1FD052220
:105F000002A9304611F0FCFD304611F0E1FE2021DF
:105F100002A811F005FE29460AEB4A02CAEBC20AA2
:105F20005FFA8AFA0AF117030AF11F0ADBB25FFA75
:105F30008AF2E0180133DBB290F83B019A4201F893
:105F4000010FF6D14146304611F08AFD052202A923
:105F5000304611F0D5FD09F1FF39304611F0B8FE99
:105F6000202102A811F0DCFD09EB4902C9EBC209AE
:105F70005FFA89F909F1170309F11F09DBB25FFA2A
:105F800089F2E1180133DBB291F83B11934205F835
:105F9000011FF6D14146304611F062FD3046042221
:105FA00002A911F0ADFD304611F092FE384602A96B
:105FB00011F006FE02A811F08BFE01200BB0BDE827
:105FC000F08F05EB4503C5EBC303DBB280E705EBC0
:105FD0004503C5EBC303DBB22CE705EB4503C5EB7B
:105FE000C303DBB2FEE600BF341F00202DE9F047FB
:105FF000DFF8EC9190B0D9F80030002B70D0164645
:106000000F4680466F49684611F02AFD0B2E6BD86B
:10601000DFF8C4A14C210220D9F8002001FB07A120
:106020000023694CC8711D46B8F8281001EB4101E6
:10603000C1EB01110A443244517D92F821E005E0A0
:1060400001331334712B34D014F8135CA942DAB243
:10605000F6D114F8120C7045F2D152B303EBC3021F
:106060005A49684603EB4203194411F019FE584A95
:10607000B8F82830A2FB0612D9F8001003EB43034E
:106080005208C3EB031302EB42000B44301A1A44CC
:106090000130547CC2B2944200F0878033445B7D6F
:1060A000023B072B7AD8DFE803F0645D726B7979E5
:1060B000795DBEF1000F02D098F852302BBB4549F4
:1060C000684611F021FE4C23002203FB07AA8AF840
:1060D0002E203846694611F073FD684611F0F8FD30
:1060E000012010B0BDE8F0873B494C2398F81F20F1
:1060F000464403FB071383F82E2096F8902012B134
:106100000122DA71E5E7DA71E3E704A811F0BCFDDA
:1061100004A908A811F0C4FC08A8304911F0A4FD96
:10612000B8F82830D9F80020044603EB43030CA844
:10613000C3EB031313441E4496F8211011F0A4FD81
:106140000CA9204611F09CFD0146684611F00CFD9B
:106150000CA811F0BDFD08A811F09AFD04A811F0DB
:10616000B7FDB0E74C23EA2203FB07AA8AF82E20EA
:10617000AFE74C23E92203FB07AA8AF82E20A8E701
:106180004C23EC2203FB07AA8AF82E20A1E74C231C
:10619000E82203FB07AA8AF82E209AE74C23ED2277
:1061A00003FB07AA8AF82E2093E74C23012203FB66
:1061B00007A3DA71B8F8283003EB4303C3EB0313EA
:1061C0000B446BE7341F0020ABBA01609ABA016040
:1061D000ABAAAAAA282000202C13012014200020FA
:1061E0000CFA00202DE9F04F8BB09A4604460F467A
:1061F0009DF8509002A888491546B9FA89F67609A3
:1062000011F02EFCBAF1000F1ED1EEB1002D40F0BE
:10621000FC80172304F2444204F24C40E11801339D
:1062200091F87413DBB202F8011F8242F6D104F236
:10623000454106A811F014FC06A8102202A911F08D
:106240005FFC06A811F044FD1AF1000B18BF4FF0D7
:10625000010B002E4BD0BBF1000F48D0002D40F0B9
:10626000CE80172304F2444804F24C404246E11821
:10627000013391F87413DBB202F8011F8242F6D1A8
:1062800004F2454306AE19463046019311F0E8FB8F
:10629000082230460DEB020111F032FC304611F0BD
:1062A00017FD202102A811F03BFC0AF1FF32019BEF
:1062B00002EB4201C2EBC101C9B201F117021F3169
:1062C000D2B2C9B2A0180132D2B290F8740391428E
:1062D00008F8010FF6D11946304611F0C1FB3046DF
:1062E000072202A911F00CFC304611F0F1FCB9F1C3
:1062F000000F73D0BBF1000F70D0002D79D11723A0
:1063000004F2444504F24C402A46E118013391F866
:106310007413DBB202F8011F9042F6D106AE04F20C
:1063200045480AF1FF3A4146304611F099FB0522F3
:1063300002A9304611F0E4FB304611F0C9FC2021DF
:1063400002A811F0EDFB29460AEB4A02CAEBC20A89
:106350005FFA8AFA0AF117030AF11F0ADBB25FFA41
:106360008AF2E0180133DBB290F874039A4201F824
:10637000010FF6D14146304611F072FB052202A909
:10638000304611F0BDFB09F1FF39304611F0A0FC99
:10639000202102A811F0C4FB09EB4902C9EBC20994
:1063A0005FFA89F909F1170309F11F09DBB25FFAF6
:1063B00089F2E1180133DBB291F87413934205F8C6
:1063C000011FF6D14146304611F04AFB3046042207
:1063D00002A911F095FB304611F07AFC384602A96B
:1063E00011F0EEFB02A811F073FC01200BB0BDE828
:1063F000F08F05EB4503C5EBC303DBB280E705EB8C
:106400004503C5EBC303DBB22CE705EB4503C5EB46
:10641000C303DBB2FEE600BF341F0020114A4C2349
:1064200003FB012393F83230013BD8B20A2812D97A
:1064300001EBC10001EB4001890001F11C032C318B
:1064400010B4134420240A4403F8014F9342FBD1B3
:106450005DF8044B704703EB0313034A0846D11859
:1064600011F0FABB2C13012020260260F0B585B094
:10647000144606460D466846784911F0F1FA0CB903
:1064800096F86E40013C052C00F29B80DFE804F09A
:1064900041535557620396F87521714FBB1813F895
:1064A000143C002B00F0AA806E49684631F8124077
:1064B0006D49013C23449CB211F026FC96F87431DE
:1064C000002B00F0BA80C4EBC4046849684601EBB5
:1064D0004401023111F0E4FB96F874311BB9292113
:1064E000684611F01DFB6946284611F069FB96F8D5
:1064F00075114C235E4A07EB4107012403FB052578
:106500007B7E85F82E30684611F0E2FB204605B010
:10651000F0BD5849284611F09FFB55494C23F27FA6
:10652000012403FB0515684685F82E2011F0D0FBE9
:10653000204605B0F0BD5049ECE75049EAE796F82F
:106540007831002B72D0012B00F08180022BE4D136
:106550004B49DFE796F87321414FBB1813F8143C01
:10656000002B5FD03F49684631F812404549013C55
:1065700023449CB211F0C8FB96F87231002B61D015
:10658000C4EBC4043949684601EB4401023111F0FF
:1065900087FB96F872311BB92921684611F0C0FAC1
:1065A0006946284611F00CFB96F873214C233049BC
:1065B00007EB4207012403FB05157B7E85F82E308F
:1065C000A1E705EBC5022A48202105EB4202920013
:1065D00002F11C032C320344024403F8011F9342CE
:1065E000FBD14C220023012402FB0505684685F8F7
:1065F0002E3011F06DFB204605B0F0BD1C4A4C2337
:10660000462003FB0523346802462946D4F8B040EF
:1066100058863046A0470446684611F059FB20468C
:1066200005B0F0BD124A4C231720EAE71649284668
:1066300011F012FB96F8783185E72821684611F0B1
:106640006FFA40E72821684611F06AFA98E70F4987
:10665000284611F001FB96F8783177E7341F0020C7
:10666000F02602608CF900209C20002048E901609F
:106670002C130120402300204C230020AD93016007
:1066800070230020142200205823002064230020BF
:10669000114A4C2303FB012393F83230013BD8B25B
:1066A0000B2812D901EBC10001EB4001890001F177
:1066B0001C032C3110B4134420240A4403F8014F66
:1066C0009342FBD15DF8044B704703EB0313034A7D
:1066D0000846D11811F0C0BA2C1301205C270260C3
:1066E000F8B590F89C300D46934202F14C0226D941
:1066F00000EB4203134EDB8813F0010F4FF04C0305
:1067000014BF0121022103FB0563D97100EB420292
:106710000D4F2846D38807F6B471C3F3470404EB42
:10672000C404640021443C4411F096FA4C2294F8CD
:10673000C53F012002FB056585F82E30F8BD014EEE
:10674000E4E700BF2C13012020C10160F8B590F8E8
:106750009C300D46934202F14C0226D900EB4203D5
:10676000134EDB8813F0010F4FF04C0314BF0121CF
:10677000022103FB0563D97100EB42020D4F28464D
:10678000D388C3F3470404EB8404A40039193C44C0
:1067900001F22E7111F060FA4C2294F83F3701207B
:1067A00002FB056585F82E30F8BD014EE4E700BF19
:1067B0002C13012018D2016070B50AB990F86E2030
:1067C000022A22D8012A03464FF0000414BF1226E1
:1067D0000F2603E001341133082C28D093F8A95078
:1067E000012DF7D193F8B350B542F3D104EB041463
:1067F000031993F8AB0093F8AA40000193F8AC603A
:1068000000EB04231E44B6B212E001EBC1031C4AA4
:10681000202401EB4301890001F11C032C311344B6
:106820000A4403F8014F9342FBD1012070BDFF26BB
:10683000144C002340F22B1504E00133302B11D00F
:1068400034F8185CAE4204F11804F6D1DBB20E4AFB
:10685000084603EB430302EBC301093111F0FCF9D5
:10686000012070BD012A05D00846084911F0F4F94D
:10687000012070BD0846064911F0EEF9D5E700BFCA
:106880002C130120C2810160A881016088230020AF
:1068900080230020F0B589B0144607460D466846AF
:1068A000002111F0DDF85C2C20D8542C34D827447A
:1068B000234E4C233E2C97F89D2003FB0563DA7191
:1068C0001AD997F89D302846012B0CBF1D491E4947
:1068D00011F0C2F9C4EBC4041C4A4C2302EB44047B
:1068E00003FB056594F8093985F82E30684611F0E8
:1068F000EFF9012009B0F0BD05EBC502202105EB41
:106900004202920002F11C032C323344324403F859
:10691000011F9342FBD1DDE727440D4904A8084E2F
:1069200011F09EF804A997F89D0011F0B1F82846DF
:1069300004A911F045F904A811F0CAF9CAE700BF8B
:106940002C1301203C2400204424002008F4016082
:10695000341F002030B585B00D460446094968460D
:1069600011F07EF86946284611F092F869462046F3
:1069700011F026F9044B68461C7011F0A9F905B016
:1069800030BD00BF341F0020CC25012090F85220DC
:10699000A2B1D0F8CC3010B504461BB9D4F884307D
:1069A0003BB910BD064A12689342F7D2FDF718FDB5
:1069B000F4E72046BDE8104011F036B9704700BF3B
:1069C000A024012090F8522012B1D0F8843003B9ED
:1069D000704711F029B900BFF0B5044680F89C104B
:1069E000102921D8DFE801F021282048205E718A93
:1069F0009B20A220202020200900524A0027524B31
:106A000040F2FF161068C4F80600A4F84670A4F817
:106A1000486007CBC4F80E0018889B78C4F81210A1
:106A2000C4F8162060832377F0BD484A0027484BFE
:106A300040F27F161068E6E7464B4FF0000E464DD9
:106A400040F27F1718681B79C4F80600A372A4F8F7
:106A500046E0A4F848700FCD95F800C00125C4F8B1
:106A60000E0084F81EC0C4F81210C4F81620C4F832
:106A70001A3084F87B50F0BD384A0027384B40F27A
:106A80007F161068A4F84670C4F80600A4F84860A1
:106A900007CB1B78C4F80E00A376C4F81210C4F814
:106AA0001620F0BD2F4A00272F4B7F261068C4F810
:106AB0000600A4F84670A4F8486007CBC4F80E009E
:106AC000C4F81210C4F81620F0BD284B4FF0000E89
:106AD000274D40F2FF2718689B88C4F806006381A1
:106AE0000FCDC4F80E00C4F81210C4F81620C4F874
:106AF0001A30A4F846E0A4F84870F0BD1D4B4FF0E2
:106B0000000E1D4D40F2FF2718681B79C4F80600DF
:106B1000A3720FCD2D78C4F80E00A577E3E7174ACE
:106B20000027174B40F2FF161068C0E7154A0027F0
:106B3000154B40F2FF1610689288C4F80600628177
:106B400063E700BF5425002058250020AC24002016
:106B5000B0240020C0240020C8240020DC24002011
:106B6000E0240020F8240020F0240020FC24002051
:106B700004250020142500201C2500203825002095
:106B8000302500203C2500204425002062B1002350
:106B9000184630B45D1CCC5CEBB260409342F9D334
:106BA00000F07F0030BC7047104670479D305D227A
:106BB000002111F04DB800BF24290AD92539C9B2E6
:106BC0005C2906D8002A01440CBF0223012381F866
:106BD0009D30704710B44C23074C03FB01435B8E80
:106BE000553B9BB2072B02D95DF8044B7047084612
:106BF0005DF8044B1146ADE62C13012090F8573098
:106C00000BB1FDF717BC7047F0B54C231C4C85B099
:106C100003FB01435E8EFF2E2FD01A4B06EB460579
:106C200003EBC503B3F91430002B26DD01EBC105DE
:106C3000202701EB4505AD0005F11C032C3523444D
:106C40002C4403F8017FA342FBD105460C4668465D
