:0200000460009A
:100000004643464200000156000000000103030081
:1000100000000000000000000000000000000000E0
:1000200000000000000000000000000000000000D0
:1000300000000000000000000000000000000000C0
:1000400000000000010408000000000000000000A3
:100050000000800000000000000000000000000020
:100060000000000000000000000000000000000090
:100070000000000000000000000000000000000080
:10008000EB04180A063204260000000000000000FD
:10009000050404240000000000000000000000002F
:1000A0000000000000000000000000000000000050
:1000B0000604000000000000000000000000000036
:1000C0000000000000000000000000000000000030
:1000D00020041808000000000000000000000000DC
:1000E0000000000000000000000000000000000010
:1000F0000000000000000000000000000000000000
:10010000D8041808000000000000000000000000F3
:100110000204180804200000000000000000000095
:1001200000000000000000000000000000000000CF
:10013000600400000000000000000000000000005B
:1001400000000000000000000000000000000000AF
:10015000000000000000000000000000000000009F
:10016000000000000000000000000000000000008F
:10017000000000000000000000000000000000007F
:10018000000000000000000000000000000000006F
:10019000000000000000000000000000000000005F
:1001A000000000000000000000000000000000004F
:1001B000000000000000000000000000000000003F
:1001C000000100000010000001000000000000001D
:1001D000000001000000000000000000000000001E
:1001E000000000000000000000000000000000000F
:1001F00000000000000000000000000000000000FF
:10020000FFFFFFFFFFFFFFFFFFFFFFFFFFFFFFFFFE
:10021000FFFFFFFFFFFFFFFFFFFFFFFFFFFFFFFFEE
:10100000D10020432914006000000000000000000F
:101010002010006000100060003405600000000037
:10102000000000600040050000000000FFFFFFFF1F
:10103000FFFFFFFFFFFFFFFFFFFFFFFFFFFFFFFFC0
:10104000FFFFFFFFFFFFFFFFFFFFFFFFFFFFFFFFB0
:10105000FFFFFFFFFFFFFFFFFFFFFFFFFFFFFFFFA0
:10106000FFFFFFFFFFFFFFFFFFFFFFFFFFFFFFFF90
:10140000884207D0904205D251F8043B40F8043B93
:101410008242F9D8704700BF884204D2002340F8C6
:10142000043B8142FBD87047664B4FF42A01664A61
:1014300066482DE9F0475A641864654A99639546F1
:10144000BFF34F8FBFF36F8F17F0F2FC614B082093
:10145000614A6249C3F854016148FFF7D1FF614A0C
:1014600061496248FFF7CCFF61496248FFF7D4FF4A
:10147000614C62494FF470000023614A086044F8EF
:1014800023200133B02BFAD15E4B80215E4A03F852
:10149000011B9342FBD14F4D4FF080385B494FF019
:1014A000FF325B4B0026DFF8A4A1DFF8A4911C609B
:1014B000C5F80481C5F800A1C5F8F480C5F8F0901E
:1014C0000B68544F43F4E0230B60FB693D4923F064
:1014D0007F0343F04003FB617B6A23F07F0343F00B
:1014E00040037B628A66CA660A674A6717F0A6FCF1
:1014F000494A4A4B6320A2630321E363484A494BAC
:10150000106000F160401E6042F8041C00F6A170FB
:101510004549464AC3F8082D0B68454A43F0807395
:101520000B601368434943F00103136003680B60C9
:1015300017F0D4FEC5F804813F48C5F800A1C5F8EE
:10154000F480C5F8F09018F0A7F9F96E3B4A41F421
:1015500040513B4BF9661660C2F80861C2F8186149
:10156000C2F82861C2F838619A6BD20708D442F6F3
:101570001562344959651A659A6B42F001029A6303
:101580002F4A314C936843F00113936017F0C8FC65
:1015900017F022FC18F048F817F0D2FE17F04AFCBA
:1015A0002368132BFCD917F059FF2368B3F5967FF6
:1015B000FBD317F041FC18F057F918F005F830BFCD
:1015C000FDE700BF00C00A40FFABAAAA0700200049
:1015D0000080052000800D4058270200CCC1026029
:1015E00000000000C04A002028E90460000000203C
:1015F000E0320120C04A00200048002088ED00E0D1
:101600006DD0010000E400E0A0E400E024ED00E083
:1016100008ED00E000C00F4055EA010059EA010062
:1016200014E000E018E000E0FCED00E00000202005
:10163000001000E0CC2F01200046C32300400840EA
:1016400000400D400000C056D02F01201B10182074
:101650000C0D1113000000005D207047542901D8C3
:10166000022070475D2934BF80200020704700BFF2
:101670000379022B01D05D20704790F8FB004000F9
:10168000704700BF4B1E072B05D890F86D308B427A
:1016900018BF80F86D10704790F8FC00704700BFCD
:1016A000082070472F2070472E2906D8044B01EBE5
:1016B000410103EBC101087A70470020704700BF69
:1016C000D89801601531C8B2704700BF4379002235
:1016D00008490133A0F84C2080F8512070B4B0F8CC
:1016E0004E504FF49676044CA0F84E6025700B7067
:1016F00070BC7047BC3001209C30012090F8513004
:101700003BB9C1EB0111490089B202290CD8002074
:101710007047B0F84C3001EB4101C3EB031301EB10
:10172000430189B20229F2D9033988B2704700BF58
:10173000302070472F2907D8044B01EB410103EB00
:10174000C10191F87004704700207047D89801607B
:101750000C2070470139C9B2072906D890F8410119
:1017600040FA01F101F0010070470020704700BF0E
:101770000820704790F89020072A16D8012393403C
:1017800013F0F00F0BD113F00C0F0FD19B070CD0FF
:101790007F220823A0F8482080F8AD3070477F22D0
:1017A0000423A0F8482080F8AD3070477D22032341
:1017B000A0F8482080F8AD30704700BF022380F8C1
:1017C0006E3070474379002208490133A0F84C205D
:1017D00080F8512070B4B0F84E504FF4C876044CE5
:1017E000A0F84E6025700B7070BC7047BC300120B3
:1017F0009C30012090F85210026880F85510136D4B
:10180000184700BF0F2908D801EB4102044B01EB38
:101810008201194491F8F40870470020704700BF16
:10182000D898016030B40AB990F86E20012A1ED011
:10183000022A1AD0032A0CBF0D25002501EBC10096
:101840000C4A4C23202401EB400003FB01218000C3
:101850004D8600F11C032C301344024403F8014F61
:101860009342FBD1012030BC70470C25E6E70B25E5
:10187000E4E700BF581E01204B1E072B05D890F847
:101880006D308B4218BF80F86D10704743790D4959
:10189000013390F89E2030B40B4CB0F84E500B70D2
:1018A000257052B14FF4FA73A0F84E30002330BCCB
:1018B000A0F84C3080F8513070476423A0F84E30C7
:1018C000F4E700BFBC3001209C3001201420704799
:1018D00090F86E304BB101330122DBB2032B88BF8D
:1018E000012380F86E30014B1A7070470B310120D4
:1018F00030B40AB990F86E20012A1ED0022A1AD0FC
:10190000032A0CBF0E25002501EBC1000C4A4C2315
:10191000202401EB400003FB012180004D8600F1F3
:101920001C032C301344024403F8014F9342FBD1B3
:10193000012030BC70470D25E6E70C25E4E700BF29
:10194000581E01204B1E092B05D890F86D308B4294
:1019500018BF80F86D1070470A207047022070474A
:101960004379002208490133A0F84C2080F8512027
:1019700070B4B0F84E505026044CA0F84E6025705C
:101980000B7070BC704700BFBC3001209C30012040
:101990008A20704790F86A300BB98A207047024A53
:1019A000134413F8010C704760F80020F0B490F86D
:1019B0006A50B5B100230E4A0B241F4603E08A2B60
:1019C00012D012F81C4CAC42DEB202F11C0203F140
:1019D0000103F4D17C1CB942E7B2F0D1B0B2F0BC43
:1019E00070470846F0BC70474FF6FF70F0BC704778
:1019F000C5A20160704700BF1020704790F86E309C
:101A00004BB101330122DBB2022B88BF012380F8E6
:101A10006E30014B1A7070470B31012070B40AB957
:101A200090F86E20012A21D0022A12D001EBC103C6
:101A30000F4A202001EB4301890001F11C032C31E6
:101A400013440A4403F8010F9342FBD1012070BCF8
:101A500070470F23064E4C2405681A4604FB0164A8
:101A6000D5F8B45063862B4670BC18470E23F1E7B7
:101A7000581E012001207047013908298CBF002021
:101A8000012070474379002208490133A0F84C2017
:101A900080F8512070B4B0F84E502426044CA0F8C1
:101AA0004E6025700B7070BC704700BFBC300120C9
:101AB0009C30012009207047082994BF0220002093
:101AC000704700BF0F2070470E2908D801EB410175
:101AD000044BC1EBC101194491F8EA07704700209B
:101AE000704700BFD0A9016030B40C4A4C2301EB11
:101AF000C1050E2403FB0123202001EB45015C8678
:101B0000890001F11C032C3113440A4403F8010F2E
:101B10009342FBD1012030BC704700BF581E01200A
:101B2000704700BF4379002208490133A0F84C20D8
:101B300080F8512070B4B0F84E504FF4C876044C81
:101B4000A0F84E6025700B7070BC7047BC3001204F
:101B50009C30012090F8513033B901EB8101C9006C
:101B600003290BD800207047B0F84C3003EB8303F7
:101B700001EB4301890089B20329F3D9043988B202
:101B8000704700BF63207047622906D8044B1A22B1
:101B900002FB013191F81E0970470020704700BF19
:101BA000D0A90160182070470F2902D90531C8B2A9
:101BB00070470846704700BF0139C9B2072906D8E7
:101BC00090F87A0340FA01F101F00100704700201B
:101BD000704700BF90F86E304BB101330122DBB289
:101BE000022B88BF012380F86E30014B1A707047BA
:101BF0000B310120192070470C2909D8014491F8B4
:101C00000D31042B13D8DFE803F008080A0A0A0094
:101C100018298CBF0020012070470220704791F8DE
:101C2000E73091F800110133591AC8B2704701200A
:101C3000704700BF90F8DE00003018BF01207047E9
:101C400090F8DB301BB190F8F4300133DBB218466A
:101C5000704700BFB1207047C22907D8044B01EB81
:101C6000410103EBC10191F82E027047002070473B
:101C7000C8BA016090F86A300BB9C3207047024AB5
:101C8000134413F8010C70472C260120F0B490F88F
:101C90006A50B5B100230E4A0C241F4603E0C32B43
:101CA00012D012F8184CAC42DEB202F1180203F165
:101CB0000103F4D17C1CB942E7B2F0D1B0B2F0BC60
:101CC00070470846F0BC70474FF6FF70F0BC704795
:101CD00023BD01602720704710B44C20044C00FB4A
:101CE000014181F8303081F83C205DF8044B7047A9
:101CF000581E012090F86E304BB101330122DBB247
:101D0000022B88BF012380F86E30014B1A70704798
:101D10000B310120062070470320704790F89D008A
:101D2000704700BF104607291DD8DFE801F0070AF9
:101D30000D10131619040D4917F0A2BC0C4917F029
:101D40009FBC0C4917F09CBC0B4917F099BC0B4980
:101D500017F096BC0A4917F093BC0A4917F090BCDB
:101D6000094917F08DBC094917F08ABC602300208F
:101D7000EC220020F822002004230020142300205D
:101D800024230020382300204C230020B0310020E1
:101D900049B1012903D11046054917F071BC10461D
:101DA000044917F06DBC1046034917F069BC00BF29
:101DB00088230020B03100207423002001290ED098
:101DC00009D3022903D11046074917F059BC104620
:101DD000064917F055BC1046054917F051BC10468E
:101DE000044917F04DBC00BFB0230020B0310020E3
:101DF00098230020A423002001EB4101034B10464F
:101E000003EBC101093117F037BD00BFD89801605D
:101E100001EB4101034B104603EBC101093117F0FF
:101E20002BBD00BF409D016001EB4103104610B483
:101E300001EB8301024C21445DF8044B17F01CBDFB
:101E4000C0A10160024B104603EB011117F014BD55
:101E500094CF016001EB4103104610B4C1EBC30104
:101E6000024C21445DF8044B17F006BDD4D001604C
:101E700001EB8101024B104603EB410117F0FCBC62
:101E800044D2016001EB4101034B1046C1EBC1019B
:101E9000194417F0F1BC00BFA8B10160622900D954
:101EA000704710B4044B1A24104604FB01315DF84E
:101EB000044B0B3117F0E0BCE4B2016001EB4101CF
:101EC000034B104603EBC101033117F0D5BC00BF33
:101ED000F4BC0160262903D91046054917F0CCBC93
:101EE00001EB4101034B104603EBC10117F0C4BCE9
:101EF000D4230020A0D20160262903D91046064928
:101F000017F0BABC01EB4101044B104603EBC101D1
:101F10000E3117F0B1BC00BFD4230020A0D2016065
:101F200030B4B9B101EB4103C1EBC303DBB200F242
:101F30000B2100F21325C418013394F83B41DBB2A6
:101F400001F8014FA942F6D100F50371104630BCEB
:101F500017F092BC1723EAE72DE9F041234F3B68C5
:101F600073B10D4601EB4101214C8046C5EBC10127
:101F7000104616462144113117F07EFC0B2D01D975
:101F8000BDE8F0813A21304617F0CAFBB8F82820A6
:101F90003968002302EB420204F287501C46C2EB70
:101FA00002120A441544697D95F8212005E00133A9
:101FB0001330712B14D010F8134CA142DDB2F6D1BE
:101FC00010F8124C9442F2D155B103EBC302094907
:101FD000304603EB4203BDE8F041194417F04CBC16
:101FE00030460549BDE8F04117F046BC8CF80020AA
:101FF000D4D001604AD60160D423002030B4B9B1F6
:1020000001EB4103C1EBC303DBB200F2444100F238
:102010004C45C418013394F87443DBB201F8014F06
:10202000A942F6D100F24541104630BC17F024BC5D
:102030001723EAE790F89E30012B00D0704700F19B
:10204000B801104617F030BC30B589B00D460C49C8
:10205000144604A817F0C4FA2946684617F014FB82
:10206000694604A817F048FB0146204617F01CFCFF
:10207000684617F029FC04A817F05EFB09B030BDD4
:10208000DC23002030B589B00D460C49144604A865
:1020900017F0A6FA2946684617F0F6FA694604A82A
:1020A00017F02AFB0146204617F0FEFB684617F0A2
:1020B0000BFC04A817F040FB09B030BDE82300205A
:1020C000032930B5154689B022D90439CCB2072C82
:1020D00005D91449104617F0CFFB09B030BD12499D
:1020E00004A817F07DFA0A22611C684617F05CFB11
:1020F000694604A817F000FB0146284617F0D4FBF8
:10210000684617F0E1FB04A817F016FB09B030BDD4
:10211000064BC1EBC1011046194417F0ADFB09B0E5
:1021200030BD00BFD4230020F4230020ACDE0160CA
:10213000032930B5154689B022D90439CCB2072C11
:1021400005D91449104617F097FB09B030BD124964
:1021500004A817F045FA0A22611C684617F024FB10
:10216000694604A817F0C8FA0146284617F09CFBF8
:10217000684617F0A9FB04A817F0DEFA09B030BDD5
:10218000064BC1EBC1011046194417F075FB09B0AD
:1021900030BD00BFD423002000240020C8DE016031
:1021A0002DE9F04390F8905091B0072D45D80123C8
:1021B00016460C46AB4013F0AA0F41D113F0550F51
:1021C0003BD0022D3F4D4FF00A0204A80CBF4FF048
:1021D00003094FF0040991FBF9F75FFA87F808F15A
:1021E000010885FB08354FEAE873C3EBA5052946CE
:1021F00017F0DAFA04A90CA817F01AFA0A2205EB6C
:10220000850108A8A8EB410117F0CEFA08A90CA88F
:1022100017F072FA09FB17414131C9B217F078FA89
:102220000146304617F040FB08A817F04DFB0CA8FC
:1022300017F082FA04A817F047FB11B0BDE8F0834D
:1022400021490A226846A1FB0431490917F0ACFA7A
:10225000694608A817F0ECF91C4B04A8A3FB042559
:102260000A22ED08A9B205EB8505A3FB0173DB0883
:1022700003EB8303A1EB430189B217F095FA04A99C
:1022800008A817F039FA0746A4EB45010A220CA862
:1022900089B217F089FA0CA9384617F02DFA0146D1
:1022A000304617F001FB0CA817F00EFB04A817F03E
:1022B0000BFB08A817F040FA684617F005FB11B0B1
:1022C000BDE8F083676666661F85EB51CDCCCCCC4C
:1022D000F0B590F89E3091B01546002B51D190F892
:1022E000AD31002B47D14C1C04A8474917F078F9B1
:1022F0004649A4B20A226846A1FB0431490917F0F5
:1023000053FA694604A817F0F7F9414B074608A8A5
:10231000A3FB04260A22F608B1B206EB8606A3FB4D
:1023200001E3DB0803EB8303A1EB430189B217F060
:102330003BFA08A9384617F0DFF90746A4EB460137
:102340000A220CA889B217F02FFA0CA9384617F008
:10235000D3F90146284617F0A7FA0CA817F0B4FAEB
:1023600008A817F0B1FA684617F0AEFA04A817F0FB
:10237000E3F911B0F0BD2749104617F07DFA11B00E
:10238000F0BD0131214B0A2268468CB2A3FB043117
:10239000490917F009FA694608A817F049F91C4BD2
:1023A00004A8A3FB04260A22F608B1B206EB8606AF
:1023B000A3FB0173DB0803EB8303A1EB430189B2A9
:1023C00017F0F2F904A908A817F096F90746A4EB4C
:1023D00046010A220CA889B217F0E6F90CA9384682
:1023E00017F08AF90146284617F05EFA0CA817F094
:1023F0006BFA04A817F068FA08A817F09DF9684668
:1024000017F062FA11B0F0BD0C2400201F85EB51CB
:10241000CDCCCCCC04240020F0B590F89E3091B007
:1024200004460F461646002B36D190F85130002B4B
:1024300075D190F84C100A22604D04A801EB81017F
:1024400007EB4104E4B2A5FB0435ED08294605EB92
:10245000850517F0A9F904A90CA817F0E9F80A22D4
:10246000A4EB450108A8C9B217F09EF908A90CA869
:1024700017F042F9524917F0C7F80146304617F0F5
:1024800013FA08A817F020FA0CA817F055F904A8B9
:1024900017F01AFA11B0F0BD90F85130002B69D046
:1024A000B0F84C100A22454D6846A5FB0131C90819
:1024B00017F07AF9694608A817F0BAF8B4F84C1082
:1024C0000A2204A8A5FB0135ED0805EB8505A1EB63
:1024D000450189B217F068F904A908A817F00CF9AA
:1024E000044639460A220CA817F05EF90CA92046CA
:1024F00017F002F9334917F087F80146304617F014
:10250000D3F90CA817F0E0F904A817F0DDF908A832
:1025100017F012F9684617F0D7F911B0F0BDB0F80E
:102520004C100A22254D6846A5FB0131C90817F059
:102530003BF9694608A817F07BF8B4F84C100A225A
:1025400004A8A5FB0135ED0805EB8505A1EB4501C8
:1025500089B217F029F904A908A817F0CDF80446A4
:1025600039460CA80A2217F01FF90CA9204617F0CB
:10257000C3F8C2E7B0F84C400A22104904A804EBA3
:10258000840407EB4404A4B2A1FB0437FF083946D6
:1025900007EB870717F008F904A90CA817F048F80B
:1025A0000A22A4EB470108A889B217F0FDF808A990
:1025B0000CA817F0A1F804495DE700BFCDCCCCCC46
:1025C000102400201824002014240020F0B590F8D6
:1025D00090308DB01646012B0CBF0425082500292C
:1025E00042D0A9420C4645D9012B34D105295AD0F5
:1025F000641B2F4904A82F4D16F0F2FF023C6846D9
:1026000085FB04350A22A5EBE475294605EB450553
:1026100017F0CAF8694604A817F06EF8264916F0B4
:10262000F3FF611B07460A22013108A817F0BCF826
:1026300008A9384617F060F80146304617F034F91B
:1026400008A817F041F9684617F03EF904A817F0FA
:1026500073F80DB0F0BD641B154904A8154D16F0B4
:10266000BFFF013C6846CBE71449104617F004F958
:102670000DB0F0BD124908A816F0B2FF0A2221469B
:1026800004A817F091F804A908A817F035F8014636
:10269000304617F009F904A817F016F908A817F042
:1026A0004BF80DB0F0BD1046064917F0E5F8D0E73D
:1026B0002424002056555555FC3000201C240020B1
:1026C000202400202824002070B590F851308CB0D0
:1026D00004460D46164633BBB0F84C300BB9002902
:1026E00064D0354908A816F07BFFB4F84C100A22D4
:1026F00004A801EB810105EB4101013917F054F801
:1027000004A908A816F0F8FF2C4916F07DFF014631
:10271000304617F0C9F804A817F0D6F808A817F043
:102720000BF80CB070BDB0F84C30A3B929B92449EE
:10273000104617F0A1F80CB070BD224908A816F099
:102740004FFF294604A80A2217F02EF804A908A86A
:1027500016F0D2FFDBE7184904A816F041FFB4F8E1
:102760004C100A226846013917F01EF8694604A881
:1027700016F0C2FF144916F047FF04460A22294604
:1027800008A817F011F808A9204616F0B5FF014671
:10279000304617F089F808A817F096F8684617F041
:1027A00093F804A816F0C8FF0CB070BD0749104696
:1027B00017F062F80CB070BD2424002034240020EF
:1027C0003824002020240020FC3000203024002069
:1027D000C7291046F0B50E468DB094BF5521502143
:1027E000154616F09DFF234BC824234F6846A3FBD4
:1027F00006230A229B0904FB1364C4F38D040134ED
:10280000E4B2A7FB0437FF08394607EB870716F049
:10281000CBFF694608A816F00BFF0A22A4EB47017C
:1028200004A8C9B216F0C0FF04A908A816F064FFF6
:102830000146284617F038F804A817F045F808A80C
:1028400016F07AFF684617F03FF82D21284616F05B
:1028500067FF06F003010A2208A8013116F0A4FF61
:1028600008A9284617F020F808A817F02DF80DB091
:10287000F0BD00BF1F85EB51CDCCCCCC622930B56B
:102880001D468BB02FD83A4B1A2404FB0131B1F806
:102890002A190BB2002B54DD364C0C44112C10D8E5
:1028A000DFE804F0090F0F0F0F0F0F0F0F0F0F0FBF
:1028B0000F0F0F2D4D2790F8AD30002B14BF0921BD
:1028C00001210A442C4906A8013A02EBC202114434
:1028D00016F006FF06A9284616F0E6FF06A816F031
:1028E000F3FF0BB030BD2549184616F0C5FF0BB0FD
:1028F00030BD11460A2206A816F056FFEAE73F2A25
:1029000028D9402A2FD00192EBD91D4906A816F0EC
:1029100067FE019AA2F132010A2202A816F044FFD2
:1029200002A906A816F0E8FE0146284616F0BCFFEC
:1029300002A816F0C9FF06A816F0FEFED1E7510066
:10294000D8E7012A28460CBF0E490F4916F094FF1C
:102950000BB030BD0D4906A8019216F041FE019A58
:10296000C2F13201D8E72846094916F085FFB8E7D9
:10297000D0A90160FA83FFFFE4DE0160B0310020DE
:10298000B42A0020F82E0020442400203C240020FB
:10299000402400200F2930B5154689B022D91039BE
:1029A000CCB2072C05D91349104616F065FF09B0C3
:1029B00030BD114904A816F013FE0A22611C6846B6
:1029C00016F0F2FE694604A816F096FE0146284667
:1029D00016F06AFF684616F077FF04A816F0ACFE02
:1029E00009B030BD054B104603EB011116F044FF52
:1029F00009B030BDD4230020F423002084EB016013
:102A00000F2930B5154689B022D91039CCB2072C20
:102A100005D91449104616F02FFF09B030BD1249F0
:102A200004A816F0DDFD0A22611C684616F0BCFE03
:102A3000694604A816F060FE0146284616F034FFE9
:102A4000684616F041FF04A816F076FE09B030BDC6
:102A5000064B104603EB0111083116F00DFF09B0CB
:102A600030BD00BFD42300200024002084EB01608F
:102A7000F0B50C46C72991B0104604F101048CBF93
:102A8000502155211646A4B216F04AFE20490A22CA
:102A90006846A1FB0431490916F086FE694608A87C
:102AA00016F0C6FD1B4B04A8A3FB04250A22ED0863
:102AB000A9B205EB8505A3FB0173DB0803EB8303D8
:102AC000A1EB430189B216F06FFE04A908A816F025
:102AD00013FE0746A4EB45010A220CA889B216F0A2
:102AE00063FE0CA9384616F007FE0146304616F084
:102AF000DBFE0CA816F0E8FE04A816F0E5FE08A818
:102B000016F01AFE684616F0DFFE11B0F0BD00BFE9
:102B10001F85EB51CDCCCCCCF0B590F8513091B0B5
:102B200005460F4616466BBBB0F84C301046012BDD
:102B30008CBF5021552116F0F3FDB5F84C100A2238
:102B400004A816F031FE04A90CA816F071FD0A22A3
:102B5000394608A816F028FE08A90CA816F0CCFDE6
:102B60002B4916F051FD0146304616F09DFE08A88F
:102B700016F0AAFE0CA816F0DFFD04A816F0A4FEBD
:102B800011B0F0BDB0F84C301046224C132B8CBF66
:102B90005021552116F0C4FDB5F84C100A226846A4
:102BA000A4FB0131C90816F0FFFD694608A816F01C
:102BB0003FFDB5F84C100A2204A8A4FB0134E40838
:102BC00004EB8404A1EB440189B216F0EDFD04A9E5
:102BD00008A816F091FD04460A2239460CA816F002
:102BE000E3FD0CA9204616F087FD0146304616F09D
:102BF0005BFE0CA816F068FE04A816F065FE08A897
:102C000016F09AFD684616F05FFE11B0F0BD00BFE9
:102C100010240020CDCCCCCC70B54D1C154C8CB004
:102C2000164684FB0534EB170A226846C3EBA4045E
:102C3000214616F0B9FD694608A816F0F9FC0A22EB
:102C400004EB840104A8A5EB410116F0ADFD04A935
:102C500008A816F051FD0146304616F025FE04A8DE
:102C600016F032FE08A816F067FD684616F02CFE36
:102C70000CB070BD6766666630B589B00D460D490B
:102C8000144604A816F0ACFC0A22691C684616F02B
:102C90008BFD694604A816F02FFD0146204616F06C
:102CA00003FE684616F010FE04A816F045FD09B0B4
:102CB00030BD00BF4824002001F15003013130B580
:102CC00089B030F8133015460A2268465C1016F0B9
:102CD0006BFD694604A816F0ABFC04A83A2116F077
:102CE00017FD0A49E3B203EB830301EB83010231D1
:102CF00016F08AFC0146284616F0D6FD04A816F008
:102D00001BFD684616F0E0FD09B030BDF4F401602B
:102D1000CB11F0B54C1C91B003F14101164604A84B
:102D2000A4B2C9B216F0A4FC20490A226846A1FB4D
:102D30000431490916F038FD694604A816F0DCFC98
:102D40001B4B074608A8A3FB04250A22ED08A9B2DD
:102D500005EB8505A3FB01E3DB0803EB8303A1EB94
:102D6000430189B216F020FD08A9384616F0C4FCCC
:102D70000746A4EB45010A220CA889B216F014FDFF
:102D80000CA9384616F0B8FC0146304616F08CFD0A
:102D90000CA816F099FD08A816F096FD684616F0E6
:102DA00093FD04A816F0C8FC11B0F0BD1F85EB51CF
:102DB000CDCCCCCC2DE9F04190F8513090B0074605
:102DC0000D461646002B47D0B0F84C1004A83D4CD9
:102DD00001EB810189114131C9B216F049FCB7F804
:102DE0004C100A226846A4FB0131C90816F0DCFC2D
:102DF000694604A816F080FCB7F84C1080460A22F9
:102E0000A4FB013408A8E40804EB8404A1EB44010A
:102E100089B216F0C9FC08A9404616F06DFC0446BC
:102E20000A2229460CA816F0BFFC0CA9204616F071
:102E300063FC0146304616F037FD0CA816F044FD41
:102E400008A816F041FD684616F03EFD04A816F0ED
:102E500073FC10B0BDE8F08101EB8102B0F84C309A
:102E6000642108A8520001FB0321C9114131C9B2F4
:102E700016F0FEFBB7F84C100A2204A816F094FCDA
:102E800004A908A816F038FC04460A2229460CA812
:102E900016F08AFC0CA9204616F02EFC0A4916F002
:102EA000B3FB0146304616F0FFFC0CA816F00CFDF3
:102EB00004A816F009FD08A816F03EFC10B0BDE805
:102EC000F08100BFCDCCCCCC1024002070B52329DC
:102ED00001F0030588B00C46164605F141051CD9E2
:102EE000462104A816F0C4FB0A22A1086846083946
:102EF00016F05AFC694604A816F0FEFB294616F0A7
:102F000007FC0146304616F0CFFC684616F0DCFCA4
:102F100004A816F011FC08B070BD89080A226846A2
:102F2000013116F041FC694604A816F081FB2946E0
:102F300004A816F0EDFB0146304616F0B5FC04A8D7
:102F400016F0FAFB684616F0BFFC08B070BD00BF73
:102F5000F0B590F8513089B0044616460D46DBB9FD
:102F6000B0F84C30002B3BD10A22684616F01CFC0E
:102F7000694604A816F05CFB04A82A4916F044FB35
:102F80000146304616F090FC04A816F0D5FB6846C2
:102F900016F09AFC09B0F0BD01F00307232907F1F0
:102FA00041072ED9462104A816F062FBB4F84C1054
:102FB0000A226846083916F0F7FB694604A816F09D
:102FC0009BFB394616F0A4FB0146304616F06CFC1C
:102FD000684616F079FC04A816F0AEFB09B0F0BD07
:102FE000462104A816F044FB29460A22684616F03A
:102FF000DBFB694604A816F07FFB0A4916F004FBC8
:10300000E2E7B0F84C100A226846013116F0CCFB1A
:10301000694604A816F00CFB394604A816F078FBA4
:10302000AEE700BF1024002070B590F851308CB08E
:103030000C461546EBB9052950D9502108A816F0C1
:1030400017FB611F0A2204A816F0AEFB04A908A80A
:1030500016F052FB244916F0D7FA0146284616F01E
:1030600023FC04A816F030FC08A816F065FB0CB091
:1030700070BD90F84C600A2313FB0613322B28DD39
:10308000053E50211046F6B216F04AFB314668461E
:1030900016F0FAFA694608A816F0CAFA0A2221467A
:1030A00004A816F081FB04A908A816F025FB0F4917
:1030B00016F0AAFA0146284616F0F6FB04A816F008
:1030C00003FC08A816F038FB684616F0FDFB0CB0B0
:1030D00070BD5521104616F023FBD7E7552108A8EF
:1030E00016F0C6FA2146ADE714240020182400206B
:1030F000F8B5044616F094FB1B4902251B4B012230
:1031000008684FF0620C09794FF0030EC4F806000E
:103110000527A17204262571CD25A4F848C084F89E
:1031200054E0A765E67784F8915084F8212084F86C
:10313000242084F8562003CBC4F8121019889B78F9
:10314000C4F80E00CF20E182D0212376002384F83A
:10315000920084F89310A4F8463084F89C3084F8E8
:103160009D3084F89430F8BD60240020682400204D
:10317000F8B5044616F054FB1A4A02251A4B0127EB
:103180001068CD269288C4F806006281257107CBAD
:10319000C4F80E0004F13400C4F812101121C4F870
:1031A000162016F065FB7F2200234FF0030ED1207E
:1031B000D221A4F848200D4AE57784F8245084F8F9
:1031C00054E084F8217084F8916084F8920084F8C7
:1031D0009310C4F88C20A36584F8943084F89C3054
:1031E000F8BD00BF742400207C24002080C3C901E6
:1031F0002DE9F041044616F013FB224B0227224D25
:103200004FF0030E18684FF07C0C4FF0CF08D32618
:10321000C4F80600277184F82470A4F848C084F824
:1032200054E084F8928084F893600FCDDF25C4F8D1
:103230000E00C4F812100520C4F816200A21C4F8A4
:103240001A300122002384F89150104DA06504F536
:10325000CE70E1771121C4F88C50A4F8463084F880
:10326000943084F89D30C4F8CC3084F8212084F860
:103270009E2016F0FDFA04F1B8001121BDE8F041DE
:1032800016F0F6BA882400208C24002080C3C901DF
:103290002DE9F041044616F0C3FA1C4902221C4BEA
:1032A0004FF00B0808684FF0030C22714FF0060E28
:1032B000C4F806000127CD2684F82420154AA4F876
:1032C000488084F854C084F81FE084F8217084F8A2
:1032D0009160C4F88C2003CB1B88C4F80E00CF206B
:1032E000E3820023C4F81210D22184F8920084F8FB
:1032F0009310A4F84630A36584F8943084F8A23083
:10330000C4F89C302367BDE8F08100BF9C240020F6
:10331000A024002080C3C901F8B5044616F080FA45
:1033200017490225174B012208684FF0470C89887E
:103330004FF0030EC4F806000527618106262571AB
:10334000CD25A4F848C084F854E0A765E67784F852
:10335000915084F8212084F8242003CB1B88C4F8E2
:103360000E00DA20E3820023C4F8121084F89200E1
:10337000A4F8463084F8933084F89430F8BD00BF48
:10338000B0240020AC240020F8B5044616F048FA1A
:10339000164B0227164D40F22B1C18684FF0030EF7
:1033A0002771C4F8060084F82470A4F848C084F893
:1033B00054E00FCD0725C4F80E00C4F81210012008
:1033C000C4F81620CD21C4F81A30CF220023E577A7
:1033D00084F8210084F8911084F89220A4F84630F3
:1033E000A36584F8933084F89430F8BDB8240020A5
:1033F000BC240020F8B5044616F012FA194902223E
:10340000194B4FF0310E086803272271CD26C4F8FE
:103410000600A4F848E084F8547084F8916007CB63
:10342000B3F800C09B78C4F80E00CF20C4F8121087
:103430000521C4F81620002223770123A4F81AC01E
:1034400084F89200A4F8462084F8932084F894200D
:1034500084F83E212267A165E17784F8213084F861
:103460002430F8BDD8240020DC2400202DE9F843C6
:10347000044616F0D5F9204A0025204B0227106893
:103480004FF0CF0C92884FF0D10EC4F806000326FF
:10349000628140F27F184FF0CD09277184F82470C3
:1034A000A4F8488084F8919084F892C084F893E05E
:1034B00084F89C6084F85460A4F84650A56584F8AC
:1034C000945007CBC4F816201A889B78C4F80E00D5
:1034D00004F19D0023770123C4F81210294662836A
:1034E0005D22E37784F8213016F0DAF884F8FB5097
:1034F00084F8FC50BDE8F883EC240020F42400207C
:103500002DE9F843044616F08BF92F4A04212F4D7C
:1035100000261068022712794FF09E08C4F80600B2
:103520004FF0030C84F89D104FF0CD09A2724FF0BC
:10353000D70E274B84F89C602771A4F84660E77784
:1035400084F8936084F89460A4F8488084F854C0A8
:1035500084F8919084F892E007CDC4F80E0005201D
:10356000C4F812100121C4F8162003F61875A065DE
:103570000B22184884F8211084F8241001E013F875
:103580001C2C511E1C3312B1425C01324254AB421E
:10359000F5D1292240F20D130F4E4FF6FF750F485B
:1035A00001E092F85026591E26F812308BB2C3EB78
:1035B000C302AB4200EB4202F3D10023C4F88431D2
:1035C00084F87731BDE8F883042500200C2500201D
:1035D000C5A2016060F800200CF80020A8FE016080
:1035E0002DE9F843054616F01BF9244A0224244B22
:1035F00040F28F1910684FF0030812794FF0090C50
:10360000C5F806004FF0CD0EAA72D0272C71EC77CA
:1036100085F82440A5F8489085F85480194C85F821
:1036200021C085F891E085F8927007CB1B78C5F82A
:1036300012100021C5F80E00AB76C5F816200C223A
:10364000114B1248A5F8461085F89C1085F89D107E
:10365000A96585F8931085F8941001E013F8182CEB
:10366000511E183312B1425C01324254A342F5D1CB
:10367000002385F85530BDE8F88300BF18250020E9
:10368000202500206BCF016023BD01602C26012086
:10369000F8B5154D04462868F8B14FF407720021BB
:1036A00015F0FEFF114841F28833002102680768D7
:1036B000204602F5FA7225683B440D4E84F8A010AE
:1036C00084F8A11022673360AB6D98470121094B44
:1036D000032284F86E101A70F8BD4FF4077016F0CC
:1036E000EFF82860D9E700BF8CF80020D02F012028
:1036F00050F700200B31012010B5034C206815F065
:1037000087FF0023236010BD8CF80020032907D910
:103710000B1F072B02D81131C8B270470020704729
:10372000084670470B290DD9A1F117030A2B06D9BA
:10373000A1F122031F2B08D81E31C8B270470239ED
:10374000C8B270470131C8B270470020704700BF4F
:1037500070B505460C460AB990F86E20012A34D09F
:10376000022A11D004EBC403194A202104EB4304BC
:10377000A40004F11C032C341344224403F8011F59
:103780009342FBD1012070BD0A21114E4C23114AF6
:10379000284603FB046383F83C102B68D3F8E4301D
:1037A00093420FD1FFF7BEFF02464C232146284625
:1037B00003FB046484F830202B68D3F8F430984776
:1037C000002070BD98470246EFE70821DDE700BF03
:1037D000581E01202537006010B584B00C460A221F
:1037E0000146684615F0E0FF6946204616F05CF891
:1037F000684616F069F804B010BD00BF542905D81A
:10380000012A18460BD0074916F036B85C2903D9AF
:103810001846054916F030B819461046DCE703494A
:1038200016F02AB844240020B0310020F82E0020E1
:1038300090F8A93090F8A8101BB111B1184615F0F6
:10384000AFBF704770B590F851308CB00E4615463A
:103850003BB30446502104A815F00AFFB4F84C10FD
:103860000A22684615F0A0FF694604A815F044FF37
:1038700004460A22314608A815F096FF08A92046FA
:1038800015F03AFF0146284616F00EF808A816F083
:103890001BF8684616F018F804A815F04DFF0CB098
:1038A00070BD502104A815F0E3FE0A22314608A895
:1038B00015F07AFF08A904A815F01EFF074915F0B6
:1038C000A3FE0146284615F0EFFF08A815F0FCFFFF
:1038D00004A815F031FF0CB070BD00BF102400200B
:1038E000072930B5154689B005D91049104615F09D
:1038F000C3FF09B030BD0C4668460D4915F070FE97
:103900000A22611C04A815F04FFF04A9684615F0AF
:10391000F3FE0146284615F0C7FF04A815F0D4FFB2
:10392000684615F009FF09B030BD00BFD423002060
:1039300030250020072930B5154689B005D9104932
:10394000104615F099FF09B030BD0C4668460D4988
:1039500015F046FE0A22611C04A815F025FF04A9F3
:10396000684615F0C9FE0146284615F09DFF04A8DB
:1039700015F0AAFF684615F0DFFE09B030BD00BFA4
:10398000D423002000240020032930B50C4689B040
:1039900015461FD90B0617D41349684615F020FEAB
:1039A000214604A815F070FE04A9684615F0A4FE8F
:1039B0000146284615F078FF04A815F085FF6846F3
:1039C00015F0BAFE09B030BD0849104615F054FF95
:1039D00009B030BDC1EBC10405491046214415F0C2
:1039E0004BFF09B030BD00BF38250020D422002095
:1039F000ACDE016030B590F851308DB014462BB379
:103A00000D460A22B0F84C10684615F0CDFE694606
:103A100008A815F00DFE0A22294604A815F0C4FED8
:103A200004A908A815F068FE144915F0EDFD01463B
:103A3000204615F039FF04A815F046FF08A815F038
:103A40007BFE684615F040FF0DB030BD0A2208A885
:103A500015F0AAFE08A904A815F0EAFD04A8084973
:103A600015F0D2FD0146204615F01EFF04A815F002
:103A700063FE08A815F028FF0DB030BD102400200B
:103A80003C250020052930B50C4689B0154618D9CB
:103A9000184904A815F0A4FD0A22611F684615F014
:103AA00083FE694604A815F027FE0146284615F056
:103AB000FBFE684615F008FF04A815F03DFE09B0AE
:103AC00030BD0D49684615F08BFD214604A815F060
:103AD000DBFD04A9684615F00FFE0146284615F0E7
:103AE000E3FE04A815F0F0FE684615F025FE09B0C7
:103AF00030BD00BF482500204025002030B589B0EA
:103B000005460C460B4904A815F06AFD294668468F
:103B100015F0BAFD694604A815F0EEFD01462046F1
:103B200015F05AFD684615F0CFFE04A815F004FE06
:103B300009B030BD382500204BB20846002B01DD0E
:103B40001146DBE71046014915F09ABDD42200204A
:103B50000F290B4608D95F2903D91046054915F0EE
:103B60008FBD11461846C9E70349104601EB031102
:103B700015F086BDD422002084EB01604B1E072B7C
:103B800030B50C4689B0154629D909293FD00A29F4
:103B900042D00B2945D00C2948D0A1F10D03722B3E
:103BA00005D91046244915F06BFD09B030BD2349F5
:103BB000684615F015FD214604A815F065FD04A919
:103BC000684615F099FD0146284615F005FD04A844
:103BD00015F07AFE684615F0AFFD09B030BD184902
:103BE00004A815F0FDFC2146684615F04DFD694618
:103BF00004A815F081FD0146284615F0EDFC684645
:103C000015F062FE04A815F097FD09B030BD10460E
:103C10000C4915F035FDC8E710460B4915F030FD8D
:103C2000C3E71046094915F02BFDBEE710460849C9
:103C300015F026FDB9E700BFD4220020382500206A
:103C400054250020602500206C2500207C250020C4
:103C500088250020074B03EB8000B0F81C04B0F56A
:103C6000004F04D3C0F30E0000F10070704700F164
:103C7000C0507047A00F026003682DE9F047D3F8E9
:103C800030310446DFF8308115460E46434552D1A7
:103C9000FDF760FD07464345294620463ED1FDF726
:103CA00059FD002E3DD0731EDBB203EB430C994649
:103CB000C3EBCC0C0CF1080C5FFA8CFCBDB3013DDE
:103CC000EDB205EB4503AA46C5EBC3030833DBB2EF
:103CD00003F11708C3EB0C0C5FFA88F8E11803EB4B
:103CE0000C02013354FA82F291F83B51DBB292F8A4
:103CF0003BE1434581F83BE182F83B51EED19FB374
:103D0000BAF1070F4DD9E0B1B9F1070F39D9002346
:103D100084F86D6084F8FC31BDE8F0879847002E88
:103D2000C1D14FF0FF094FF0080C002DC7D14FF063
:103D3000FF0A0823CCE7984723680746D3F83031B9
:103D4000A9E7B9F1070FE2D8012294F8413184F8CC
:103D50006D6002FA09F923EA090384F8413100236E
:103D600084F8FC31BDE8F087BAF1070FCBD8012207
:103D700094F8413102FA0AFA23EA0A0384F841313D
:103D8000C1E7012394F8412184F86D6003FA09F931
:103D900042EA090384F84131002384F8FC31BDE88C
:103DA000F087012394F8412103FA0AFA42EA0A0350
:103DB00084F84131A7E700BF55170060134A4379E3
:103DC000127801339A4201D00020704790F8A82061
:103DD000FF2A19D00E480F4B10B54C2404FB0101EB
:103DE0000D48498EA0FB02E4A3FB01E35B08B3EBA3
:103DF000540F01D0012010BDA0FB0131B2EB510FD7
:103E00000CBF0120002010BD01207047BC300120F4
:103E1000581E0120398EE338ABAAAAAA094A92F8A3
:103E20002D20042A00D0704790F85620002AFAD19D
:103E300090F855100029F6D0016880F85520CB6C19
:103E4000184700BFC42501200A7ACB79120470B448
:103E500002EB03624E7A8C7A02EB0623094D23446F
:103E6000AB420AD0084A934205D1CA7A002380F8AF
:103E70009D2080F8573070BC7047CB7A70BC80F8BA
:103E80009C30704700300060003800600B39052915
:103E900006D8DFE801F006090C0F120380F8712440
:103EA000704780F86C24704780F86F24704780F862
:103EB0006D24704780F87024704780F86E24704736
:103EC000154BA3FB0123DB0803EB8302DBB2A1EB61
:103ED000420110B490F8AD40184489B290F8A62081
:103EE000A4B1022A0FD802EB82020C480C4C01EB61
:103EF000420154F823305DF8044B00EB8101B1F826
:103F0000B804184470470532D2B2ECE702EB8202E3
:103F10000248044CEBE700BFCDCCCCCCA00F026034
:103F2000A0050020AC0500200E4903460E4A086893
:103F30008988F0B4C3F80600002759810626922527
:103F400083F8907083F89D6083F89E5003CAC3F88D
:103F50000E0010889278C3F81210D8821A76F0BC3E
:103F6000704700BFB42500209823002030B42F4AAA
:103F70001A2390F8AD4003FB012344BBB3F81A3970
:103F8000512B36D0522B37D01D0403D5C3F30E036B
:103F900043F4803303F180531A2505FB012191F886
:103FA0002D298AB102F00F0102F0F0020844102A14
:103FB00090F8A51026D0202A06D144BB042930D081
:103FC000052901D103F20123184630BC7047B3F82C
:103FD0001C59512D0AD0522D11D02B0403D5C5F3F5
:103FE0000E0545F48035124B2B44D5E7114830BC03
:103FF0007047114830BC7047104830BC70471048BB
:1040000030BC70470129DFD103F20620EFE7042915
:1040100004D00529D8D103F5FA70E8E703F1F200DE
:10402000E5E703F581731846CFE700BFD0A901602B
:10403000000002103F1008003F1001002110010095
:104040002110080030B490F852409DF808501CB17F
:1040500090F82240AC4201D030BC704790F821402B
:104060009C42F9D1A1B10C4B9C30502403F23B157A
:1040700005E0AB4200F10100EED013F8154CA1426F
:1040800003F11503F5D1141C18BF01240470F0E7E7
:1040900080F85020E0E700BFCEB101607B4BC1EB60
:1040A000C10103EB810190F89D3091F8D2299A4229
:1040B0003ED870B490F89C40B4B1B1F8BA1901F48C
:1040C0007042B2F5104F00F0BF8058D9B2F5304FB2
:1040D00063D0B2F5404F00F08780B2F5204F7CD01E
:1040E00001F1C04070BC7047B1F8B81901F47042DA
:1040F000B2F5104F00F08A801CD9B2F5304F4CD089
:10410000B2F5404F00F0AB80B2F5204FE8D1604DE2
:10411000604C90F87621002A62D0022B8CBF0023DD
:104120000123002B5CD1012A00F0AC801846D9E7AE
:1041300000207047B2F5E04F46D0B2F5004FCFD126
:1041400090F87301544DC200AB18B3F898362A4466
:1041500001F00F0092F89E26904232DA184480B2A5
:10416000020604D547F67F73034003F58070002CE8
:104170007FD1B0F5127F65D000F1C040B2E7B2F553
:10418000E04F21D0B2F5004FAAD190F87301424D13
:10419000C200AB18B3F89C36D9E790F8783101F03B
:1041A0000F003D4A03EB430302EB430393F8EC2774
:1041B000904206DA5CB1B3F8EA3703F1C043184421
:1041C00090E7002070BC7047C1F30B008AE7B3F89A
:1041D000E83703F1C043184484E7304D304C98E78A
:1041E00001F00F0020447DE71E261325022B90F8D6
:1041F000774107D9B4FA84F252091AB9012C3DD09B
:1042000010466FE701F00F0028446BE790F8752126
:10421000214DD300EA18B2F89A261D4401F07F0020
:1042200095F89E369842CCDA104480B2030604D545
:1042300047F67F73034003F58070ACB940F25443F6
:10424000984299D117484DE790F87521124DD30047
:10425000EA18B2F89C2602F5007292B2DDE74FF43C
:10426000886640F23345C1E7B0F5577F84D10E48E8
:1042700038E7B0F5AE7F7FF47FAFF8E701F00F03CA
:1042800098192FE701F00F0358192BE7D898016010
:104290003101006005110060A00F02604D00006058
:1042A00042000060180700607105006090F89C30C3
:1042B000C1EBC101D3B1244B03EB8101B1F8BA3991
:1042C00003F47042B2F5204F1AD020D8B2F5004F57
:1042D00035D0B2F5104F27D190F875111B4A03F075
:1042E0000F0332F81100184480B27047164B03EBED
:1042F0008101B1F8B83903F47042B2F5204FE4D12E
:1043000090F87621012A14BF07212921E6E7B2F5AA
:10431000304F0CD0B2F5404F06D190F87721012AEA
:1043200014BF07212921D9E74FF6FF70704790F895
:1043300078213AB1012A14BF25212821CEE790F82F
:104340007311CBE70221C9E7D89801600CF800206F
:1043500089291FD8F8B5CF001D4E90F89D507A1AC4
:1043600006EB820292F8D229AA4211D80C46FFF736
:104370009DFF4FF6FF7398420ED0B0F5877F07D2AE
:10438000144BC0EBC00003EB400090F85106F8BDA1
:104390000020F8BD00207047022D03D9282C01D140
:1043A0001A20F8BD182C07D0472C05D03C1B06EB73
:1043B000840696F8BC09F8BD012D03D9022D03D15E
:1043C0002520F8BD2420F8BD032DEFD12720F8BD0E
:1043D000D8980160A8FE01608929F8B50C461746F7
:1043E000064618D9C4EBC404174996F89D30A400BA
:1043F0000A1992F8D2299A4207D82144384601F680
:10440000BD11BDE8F84015F037BA38460F49BDE890
:10441000F84015F031BAFFF749FF4FF6FF73054634
:104420009842DFD0E1B23046FFF738FE0028ECD0EA
:10443000C5EBC5050649384601EB4501BDE8F84026
:10444000023115F019BA00BFD8980160D4230020BA
:10445000F80402600022036810B50446C0F8CC20BE
:104460001B6E9847236820469B6D9847014B03229B
:104470001A7010BD0B31012090F8A4306BB990F880
:10448000A13003EB8303074A01EB430302EB8303F1
:10449000B3F8FC0700F1C050704790F8A220043236
:1044A000D3B2EEE7A00F02600A7ACB79120470B49F
:1044B00002EB03624E7A8C7A02EB0623144D2344FE
:1044C000AB4215D0134A93420DD0134A934214D1F4
:1044D0004B7D80F89F30CB7A80F8A1300B7C80F840
:1044E000A23070BC7047CB7A70BC80F89E307047A9
:1044F000CB7A70BC80F89D307047084A9342F0D167
:10450000CA7A002380F8A02080F8573070BC70472A
:1045100003200018032100180010001832020018B0
:104520004A7A0B7A120470B402EB03628E7ACC7A68
:1045300002EB0623094D2344AB420AD0084A9342BA
:1045400005D10A7B002380F89D2080F8573070BC8D
:1045500070470B7B70BC80F89C30704700100020C7
:10456000040800200E4A4379127801339A4201D0A0
:104570000020704790F8AC30FF2B08D0094A4C203F
:1045800000FB01214A8ED108B1EB530F01D001206D
:104590007047B3EB920F0CBF01200020704700BFA3
:1045A000BC300120581E01200E4A43791278013395
:1045B0009A4201D00020704790F8AE30FF2B08D00F
:1045C000094A4C2000FB01214A8ED108B1EB530F60
:1045D00001D001207047B3EB920F0CBF01200020E7
:1045E000704700BFBC300120581E01200E4A43799D
:1045F000127801339A4201D00020704790F89D3024
:10460000FF2B08D0094A4C2000FB01214A8ED1081B
:10461000B1EB530F01D001207047B3EB920F0CBFE9
:1046200001200020704700BFBC300120581E01202F
:10463000F0B590F851300F4691B005461646B0F8E7
:104640004C10002B39D02E4C0A2208A8A4FB0131B3
:10465000C90815F0A9F808A90CA814F0E9FFB5F8E5
:104660004C100A2204A8A4FB0134E40804EB8404DF
:10467000A1EB440189B215F097F804A90CA815F034
:104680003BF804460A223946684615F08DF869461B
:10469000204615F031F80146304615F005F9684618
:1046A00015F012F904A815F00FF90CA815F044F84C
:1046B00008A815F009F911B0F0BD0A2204A815F0F8
:1046C00073F804A90CA814F0B3FF0A22394608A80D
:1046D00015F06AF808A90CA815F00EF8094914F0AD
:1046E00093FF0146304615F0DFF808A815F0ECF806
:1046F0000CA815F021F804A815F0E6F811B0F0BDEB
:10470000CDCCCCCC10240020F0B590F851300F4621
:1047100091B005461646B0F84C10002B39D02E4CFF
:104720000A2208A8A4FB0131C90815F03DF808A920
:104730000CA814F07DFFB5F84C100A2204A8A4FBC5
:104740000134E40804EB8404A1EB440189B215F0C0
:104750002BF804A90CA814F0CFFF04460A2239460E
:10476000684615F021F86946204614F0C5FF014659
:10477000304615F099F8684615F0A6F804A815F02B
:10478000A3F80CA814F0D8FF08A815F09DF811B0F4
:10479000F0BD0A2204A815F007F804A90CA814F02B
:1047A00047FF0A22394608A814F0FEFF08A90CA802
:1047B00014F0A2FF094914F027FF0146304615F016
:1047C00073F808A815F080F80CA814F0B5FF04A839
:1047D00015F07AF811B0F0BDCDCCCCCC102400206F
:1047E00070B590F851308CB00E46154653B3044660
:1047F000552108A814F03CFFB4F84C100A2204A874
:1048000014F0D2FF04A908A814F076FF04460A2287
:104810003146684614F0C8FF6946204614F06CFF24
:10482000164914F0F1FE0146284615F03DF8684699
:1048300015F04AF804A815F047F808A814F07CFF12
:104840000CB070BD552108A814F012FF0A223146A1
:1048500004A814F0A9FF04A908A814F04DFF084902
:1048600014F0D2FE0146284615F01EF804A815F0F3
:104870002BF808A814F060FF0CB070BD18240020BD
:10488000142400205C2920D8542938B513D91546A2
:104890000C46811D104614F0EFFF2021284614F02D
:1048A0003FFF0A4BC4EBC401284603EB4101BDE8BE
:1048B000384014F0E1BF054BC1EBC101104603EBDA
:1048C0004101BDE8384014F0D7BF7047B41802600A
:1048D00090F86D3003B9704730B50D4685B0044689
:1048E0002D21284614F01CFF94F86D10684614F032
:1048F000CBFE6946284614F0D7FF684614F0E4FF63
:1049000005B030BD90F86D3003B9704730B50D4635
:1049100085B004462D21284614F002FF94F86D104E
:10492000684614F0B1FE6946284614F0BDFF68469B
:1049300014F0CAFF05B030BD90F8522080F8552021
:1049400002B970470268018D536D184790F85130D5
:10495000ABB1B0F84C3013B909B900207047B0F8CA
:10496000482003EB8303B0F8460001EB4301131A20
:104970000133B3EB810FACBF012000207047B0F8CA
:10498000483001EB8101B0F846209B1A0133B3EBAC
:10499000C10FACBF01200020704700BF90F86E30FF
:1049A00093B10133DBB2032B88BF012380F86E3053
:1049B000036810B5D3F808310C4698470349044BF7
:1049C00001220C701A7010BD704700BF0931012020
:1049D0000B31012090F8513063B1B0F84C20B0F8A1
:1049E000463003EBC200084480B200B9704701387A
:1049F00080B27047B0F84C30B0F8460003EB830348
:104A000001EB430100EBC10188B2704790F85130CF
:104A10009BB190F89030B0F84C20012B0CBF0423D0
:104A2000082322B98B4234BF002001207047481E62
:104A300007288CBF002001207047B0F84C200323CA
:104A4000C2EB021210B45200B0F84840B0F8460071
:104A500013FB0121201A5DF8044B8142CCBF0020DA
:104A60000120704790F851309BB1B0F84C3013B929
:104A700009B900207047B0F8482003EB8303B0F871
:104A8000460001EB4301101A8142CCBF00200120F7
:104A9000704730B4B0F84C506424B0F848300A2263
:104AA000B0F8460004FB05F412FB01411B1A9942C1
:104AB00030BCCCBF00200120704700BF037900222A
:104AC000022B80F8532000D0704790F85230002B12
:104AD000FAD1012380F8221080F89C30704700BF83
:104AE00090F85130A3B1B0F84C3013B909B9002097
:104AF0007047B0F8482003EB8303B0F8460001EBA1
:104B00004301131AB3EB810FACBF012000207047A3
:104B1000B0F8483001EB8101B0F846209B1AB3EBA6
:104B2000C10FACBF01200020704700BF4B1E072BF8
:104B300008D890F86D308B4204D0034B012280F8E6
:104B40006D101A70704700BF0A31012090F8A32041
:104B500002B970470368D3F89430184790F8522090
:104B600002B9704790F85510026880F8A310D2F887
:104B7000983018470379022B01D00846704700236C
:104B800000F19C02F0B41C4601E05D2B0CD012F841
:104B9000015FDFB2661C0133002DF6D0A142F4B2F2
:104BA000F3D1B8B2F0BC70474FF6FF70F0BC70475D
:104BB000A1F10E02012A01D8802070470368074A3C
:104BC000D3F8B830934210B50C4605D1102084427A
:104BD00034BF0220002010BD9847F8E7F9190060A3
:104BE000A1F10C03032B01D8802070470368074A0A
:104BF000D3F8B830934210B50C4605D11420844246
:104C000034BF0220002010BD9847F8E7CD1800609F
:104C1000036810B5D3F8B83082B00E4CA34213D15C
:104C20001920884206D810460B4902B0BDE8104052
:104C300014F026BD094B01EB01111046194402B0D6
:104C4000BDE8104014F01CBD8DE8060098479DE8B3
:104C50000600E6E7F51B0060B031002040060020AA
:104C600030B5046885B00E4DD4F8B840AC4210D1D0
:104C70001920884206D818460A4905B0BDE83040D8
:104C800014F0FABD1946104605B0BDE83040FEF7F5
:104C9000A3BD039302920191A04701A90EC9E8E7C1
:104CA000F51B0060BC250020036810B5D3F8B830B0
:104CB00082B00F4CA34215D1B120884206D81046CD
:104CC0000C4902B0BDE8104014F0DABC0A4B01EB0D
:104CD0004101104603EBC101033102B0BDE81040B1
:104CE00014F0CEBC8DE8060098479DE80600E4E786
:104CF000551C0060B0310020F4BC0160F0B50468C0
:104D00008BB03B4F1646D4F8B8401D46BC422FD15D
:104D1000B120884226D901EB4101364800EBC101A0
:104D2000B1F840120BB2002B4ADD47F61643994208
:104D300022D047F6174399424BD047F61543994284
:104D400020D031442C4B06A8013903EBC10114F0EB
:104D5000C7FC06A9284614F0A7FD06A814F0B4FD68
:104D60000BB0F0BD2846254914F086FD0BB0F0BD10
:104D70000191A0470199CCE771000A2206A814F01E
:104D800013FDE6E7312E26D9322E2BD0EED91C4961
:104D900006A814F025FCA6F132010A2202A814F09C
:104DA00003FD02A906A814F0A7FC0146284614F04A
:104DB0007BFD02A814F088FD06A814F0BDFCD5E721
:104DC000012E28460CBF0F490F4914F055FD0BB0BA
:104DD000F0BD3146D1E70D4906A814F001FCC6F13B
:104DE0003201DAE728460A4914F046FDBEE700BF63
:104DF000551C0060C8BA0160CC1D0260B0310020B3
:104E0000B42A0020F82E0020442400203C24002056
:104E10004024002003680B4AD3F8B830934205D1F0
:104E2000062088428CBF02200020704700B583B066
:104E300001919847019988428CBF0220002003B05D
:104E40005DF804FB151D0060036810B5D3F8B83099
:104E500082B00F4CA34214D10920884206D81046D4
:104E60000C4902B0BDE8104014F00ABC0A4B01EB3B
:104E70008101104603EB410102B0BDE8104014F07F
:104E8000FFBB8DE8060098479DE80600E5E700BFF8
:104E9000B51A0060B031002044D2016030B504681A
:104EA00085B00E4DD4F8B840AC4210D109208842EC
:104EB00006D818460A4905B0BDE8304014F0DCBCFD
:104EC0001946104605B0BDE83040FEF785BC039397
:104ED00002920191A04701A90EC9E8E7B51A006046
:104EE000BC250020036810B5D3F8B83082B00F4C51
:104EF000A34215D10F20884206D810460C4902B0B3
:104F0000BDE8104014F0BCBB01EB4101094B104659
:104F1000C1EBC101194402B0BDE8104014F0B0BBB0
:104F20008DE8060098479DE80600E4E7C51A006092
:104F3000B0310020A8B1016030B5046885B00E4DD5
:104F4000D4F8B840AC4210D10F20884206D8184699
:104F50000A4905B0BDE8304014F08EBC1946104631
:104F600005B0BDE83040FEF737BC039302920191D3
:104F7000A04701A90EC9E8E7C51A0060BC250020BA
:104F8000036810B5D3F8B8300C460E4982B08B4296
:104F900014D16320A04206D810460B4902B0BDE8E8
:104FA000104014F06DBB094B1A21104601FB04316F
:104FB0000B3102B0BDE8104014F062BB019298477B
:104FC000019AE7E7851B0060B0310020E4B2016080
:104FD000036810B5D3F8B83082B00F4CA34214D197
:104FE0005D20884206D810460C4902B0BDE810404A
:104FF00014F046BB0A4BC1EBC101104603EB410163
:1050000002B0BDE8104014F03BBB8DE806009847A5
:105010009DE80600E5E700BF59160060B0310020AA
:10502000B418026003680B4AD3F8B830934205D134
:10503000082088428CBF02200020704700B583B052
:1050400001919847019988428CBF0220002003B04B
:105050005DF804FBA1160060036810B5D3F8B83002
:1050600082B00F4CA34215D12F20884206D810469B
:105070000C4902B0BDE8104014F002BB0A4B01EB32
:105080004101104603EBC101093102B0BDE81040F7
:1050900014F0F6BA8DE8060098479DE80600E4E7AC
:1050A000A5160060B0310020D8980160F0B5046802
:1050B0008BB03B4F1646D4F8B8501C46BD422FD19A
:1050C0002F20884226D901EB4101364800EBC1016F
:1050D000898A0BB2002B4BDD47F61643994223D049
:1050E00047F6174399424CD047F61543994221D0D1
:1050F0008A192D4906A8013A02EBC202114414F0A4
:10510000EFFA06A9204614F0CFFB06A814F0DCFB4A
:105110000BB0F0BD2046254914F0AEFB0BB0F0BD3E
:105120000191A8470199CCE771000A2206A814F062
:105130003BFBE6E73F2E26D9402E2BD0EED91C496B
:1051400006A814F04DFAA6F132010A2202A814F0C2
:105150002BFB02A906A814F0CFFA0146204614F052
:10516000A3FB02A814F0B0FB06A814F0E5FAD5E7FB
:10517000012E20460CBF0F490F4914F07DFB0BB0E8
:10518000F0BD3146D1E70D4906A814F029FAC6F161
:105190003201DAE720460A4914F06EFBBEE700BF91
:1051A000A5160060D898016074260260B031002016
:1051B000B42A0020F82E0020442400203C240020A3
:1051C00040240020036810B5D3F8B83082B00F4CEB
:1051D000A34215D13020884206D810460C4902B0AF
:1051E000BDE8104014F04CBA0A4B01EB41011046E7
:1051F00003EBC101093102B0BDE8104014F040BA20
:105200008DE8060098479DE80600E4E73117006046
:10521000B0310020409D0160F0B504688BB0394F7B
:105220001646D4F8B8501C46BD4229D130208842D9
:1052300020D901EB4101344800EBC101B1F87C14E5
:105240000BB2002B49DD47F6154399421CD03AD3E7
:1052500047F61743994236D831460A2206A814F079
:10526000A3FA06A9204614F01FFB06A814F02CFB95
:105270000BB0F0BD2046254914F0FEFA0BB0F0BD8E
:105280000191A8470199D2E73F2E2FD9402E34D063
:10529000F4D91F4906A814F0A3F9A6F132010A2295
:1052A00002A814F081FA02A906A814F025FA014612
:1052B000204614F0F9FA02A814F006FB06A814F030
:1052C0003BFA0BB0F0BD8A19124906A8013A02EB6D
:1052D000C202114414F004FAC3E7012E20460CBFA9
:1052E0000D490E4914F0C8FA0BB0F0BD0C4906A8E0
:1052F00014F076F9C6F13201D1E72046094914F0DD
:10530000BBFABBE731170060D8980160B0310020CC
:10531000B42A0020F82C0260F82E0020442400203B
:105320003C24002040240020036810B5D3F8B83096
:105330000C460F4982B08B4215D11020A04206D8EE
:1053400010460C4902B0BDE8104014F099B904EBC6
:1053500044030949104604EB8304214402B0BDE82C
:10536000104014F08DB901929847019AE6E700BF0A
:10537000F9190060B0310020C0A1016030B50468A7
:1053800085B00E4DD4F8B840AC4210D11020884200
:1053900006D818460A4905B0BDE8304014F06CBA8A
:1053A0001946104605B0BDE83040FEF715BA039324
:1053B00002920191A04701A90EC9E8E7F91900601E
:1053C000BC250020036810B5D3F8B83082B00E4C6D
:1053D000A34212D11420884206D810460B4902B0CD
:1053E000BDE8104014F04CB9094B104603EB011115
:1053F00002B0BDE8104014F043B98DE806009847AC
:105400009DE80600E7E700BFCD180060B03100203E
:1054100094CF016030B5046885B00E4DD4F8B84023
:10542000AC4210D11420884206D818460A4905B06B
:10543000BDE8304014F020BA1946104605B0BDE86A
:105440003040FEF7C9B9039302920191A04701A928
:105450000EC9E8E7CD180060BC250020F8B5036848
:105460000646464D0C46D3F8B8301746AB425CD1E1
:105470008A20A04246D9892C59D821463046FEF7C9
:1054800015FF4FF6FF730546984250D096F89C30B2
:10549000C4EBC4042BB33A4B03EB8404B4F8BA391D
:1054A00003F47043B3F5204F25D031D8B3F5004F46
:1054B00050D0B3F5104F5CD13249384614F0E0F8C3
:1054C00096F87521C5EBC5052F496D004B1993F86A
:1054D0005036934245D038462C49BDE8F84014F088
:1054E000CBB9274B03EB8404B4F8B83903F4704309
:1054F000B3F5204FD9D196F87631012B14BF07228E
:105500002922DFE738462249BDE8F84014F0B8B850
:10551000B3F5304F16D0B3F5404F2AD196F8773116
:10552000012B14BF07222922CCE79847A1E7C4EB3F
:10553000C404184B384603EB8401BDE8F84005313C
:1055400014F09EB896F87831ABB1012B0CBF28222D
:105550002522B7E71049384614F092F896F87321DF
:10556000B0E72944384601F25261BDE8F84014F032
:1055700083B90022A6E70222A4E700BF91190060C8
:10558000D898016048240020A8FE0160D4230020A0
:10559000B031002090A20160C8250020F0B515466A
:1055A0000268DFF8B8E21E46D2F8B83089B0074684
:1055B0000C4673452DD18A20A04224D9892C2AD8A3
:1055C00038462146FEF772FE4FF6FF73984222D00E
:1055D000904BC0EBC00003EB4000B0F85C2613B268
:1055E000002B22DD8C4B1344092B00F2E980DFE80D
:1055F00013F033005400AC007C00810056006B00B7
:10560000C300E20025003046844914F035F909B0A2
:10561000F0BD9847D0E7824BC4EBC40403EB84048D
:10562000B4F8CE2913B2002BDCDC012D30460CBFC0
:105630007C497D4914F020F909B0F0BD29460A22C1
:1056400004A814F0B1F804A9304614F02DF904A808
:1056500014F03AF909B0F0BD182D00F2C780B5F189
:1056600018014FF00A0204A848BFA5F1170149101C
:1056700014F09AF804A9304614F016F904A814F0AE
:1056800023F9EB07304654BF6849694914F0F4F830
:105690003046684914F0F0F8B9E7691CCFE7142DDB
:1056A00000F2A9800A22A5F1140104A814F07CF8E4
:1056B00004A9304614F0F8F804A814F005F93046AF
:1056C0005C4914F0D9F8A2E729460A2204A814F08C
:1056D0006BF804A9304614F0E7F804A814F0F4F8C5
:1056E0003046554914F0C8F891E7182D79D8A5F13E
:1056F0001801A4E70135514C0A2204A8ADB2A4FB5D
:105700000534E408214604EB840414F04DF804A9A0
:10571000304614F0C9F804A814F0D6F848493046C9
:1057200014F0AAF80A22A5EB440104A889B214F0E7
:105730003BF804A9304614F0B7F804A814F0C4F8F4
:105740003046404914F098F861E70A22690804A835
:1057500005F0010514F028F804A9304614F0A4F867
:1057600004A814F0B1F83649304614F085F804A8BE
:10577000A9000A222944AAE73F2D2BD9402D44D065
:105780007FF645AF304904A813F02AFFA5F1320196
:105790000A22684614F008F8694604A813F0ACFF22
:1057A0000146304614F080F8684614F08DF804A8DD
:1057B00013F0C2FF2BE7322D22D8A5F132013EE7CC
:1057C0002A44224904A8013A02EBC202114413F010
:1057D00087FF38E71E4904A813F002FFC5F1320124
:1057E000D6E71C49304614F047F880E7194930469F
:1057F00014F042F833E71749304614F03DF851E70A
:105800001449304614F038F8D7E73046124914F0FE
:1058100033F8FCE6A8FE0160F283FFFFB031002000
:10582000D8980160F82E002044240020DC250020B8
:10583000E0250020D8250020D0250020CDCCCCCCE0
:10584000FC300020E4250020B42A0020043302604C
:105850003C240020D4250020402400209119006021
:10586000036810B5D3F8B8300C460F4982B08B42AC
:1058700015D11020A04206D810460C4902B0BDE850
:10588000104013F0FDBE04EB440309491046C4EB7D
:10589000C304214402B0BDE8104013F0F1BE0192F0
:1058A0009847019AE6E700BFF9190060B03100207F
:1058B000D4D00160F8B5A1F10E05012D1DD91D460A
:1058C00003681746114AD3F8B8300C4693421AD1F0
:1058D00010208442284606D2012F09D00C49BDE889
:1058E000F84013F0C9BF0B49BDE8F84013F0C4BF3E
:1058F0000949BDE8F84013F0BFBF19461046BDE89E
:10590000F840FDF769BF9847E3E700BFF919006069
:10591000E8250020BC250020F82E0020028D8A42B8
:1059200008B503460AD001205A85198583F83F013E
:1059300001230649064A0B70137008BD0368054A27
:10594000D3F894309342F3D09847F1E763460020B0
:105950000A310120D902000070B515460268174EC1
:1059600088B0D2F8B8200C46B24225D190F89D00FC
:10597000A04205D81249284613F082FE08B070BD37
:105980001049684613F02CFE0A22611C04A813F08B
:105990000BFF04A9684613F0AFFE0B4913F034FE69
:1059A0000146284613F018FE04A813F08DFF684640
:1059B00013F0C2FE08B070BD9047D9E71D1D00600E
:1059C000B0310020C0250020C4250020026810B599
:1059D000D2F8B82082B0074CA24207D190F89D00BF
:1059E00088428CBF0220002002B010BD0191904778
:1059F0000199F5E71D1D006070B5056884B0104E73
:105A0000D5F8B850B54213D190F89D008842184699
:105A100008D9012A0CBF0B490B4904B0BDE87040FE
:105A200013F02ABF094904B0BDE8704013F024BF49
:105A3000039302920191A84701A90EC9E6E700BFAE
:105A40001D1D0060F82E002044240020B0310020ED
:105A50002DE9F0431D4D95B081468846EC46DFF8B0
:105A600078E005AE1A4F0AAC0FCDACE80F002B68FA
:105A7000184D8CF80030BEE80F000FC60FCFDEF8CF
:105A800000E03F6886F800E00FC427700FAC0FCD30
:105A900099F86E602D68012E0FC425700BD0022E70
:105AA0000ED0032E40460CBF0FA9694613F010FE1E
:105AB00015B0BDE8F08305A9404613F009FEF7E7ED
:105AC0000AA9404613F004FEF2E700BF3826002082
:105AD0004C26002060260020742600202DE9F0438B
:105AE0001C4D95B081468846EC46DFF874E005AE63
:105AF000194F0AAC0FCDACE80F002B68174D8CF88E
:105B00000030BEE80F000FC60FCFDEF800E03F68A0
:105B100086F800E00FC427700FAC0FCD99F86E60C7
:105B20002D68012E0FC425700AD0022E0DD08CBF17
:105B30000FA96946404613F0CBFD15B0BDE8F083D0
:105B400005A9404613F0C4FDF7E70AA9404613F043
:105B5000BFFDF2E7882600209C260020B02600200A
:105B6000C426002070B5054684B00E4622B35432D8
:105B700015484C230021D4B203FB060368465C861B
:105B8000C4EBC40413F0ACFDA91D684613F078FD06
:105B90006846202113F0C4FD0C49684601EB44011E
:105BA00013F06AFE6946304613F0E2FD684613F0D2
:105BB0008BFE012004B070BD90F86E20002AD6D173
:105BC000012004B070BD00BF581E0120B41802604F
:105BD00070B588B006460C461E496846154613F057
:105BE0007FFD1D494C230220A5F10E0203FB041387
:105BF000012AD871F07F83F82E0009D92046694622
:105C000013F0B6FD684613F05FFE012008B070BDCA
:105C10000E2D1AD096F86D2083F842204C230A22CC
:105C200004A803FB04114B7A042B0CBF91F842101B
:105C300091F84410013113F0B7FD04A9684613F040
:105C400033FE04A813F040FED8E796F86C2083F8E2
:105C50004220E3E7B8220020581E0120174B70B500
:105C60001E6884B0B6B102EB42030C461546684686
:105C7000C3EB0311314413F033FD0B2D05D96846F6
:105C800013F022FE012004B070BD2046694613F0D7
:105C90006FFDF4E701EBC103094A202001EB43014A
:105CA000890001F11C032C3113440A4403F8010F4D
:105CB0009342FBD1012004B070BD00BF8CF80020DE
:105CC000581E0120F0B585B0064614460D466846BC
:105CD000264913F005FD301990F89C304BBBB4FAFF
:105CE00084F1490929BB4C22214E224B02FB056657
:105CF000A200F17186F82E10144403EB440494F8CA
:105D00008C1661B190F89C204B1E1B4968461344C9
:105D100003EB830203EB4203194413F0ADFD284665
:105D2000694613F025FD684613F0CEFD012005B04D
:105D3000F0BD90F8A5300E4F8BB14C23012203FB30
:105D40000573DA71A2000B4B4C21161901FB05718A
:105D500003EB460696F88D6681F82E60CCE74C235F
:105D6000022203FB0573DA71ECE700BFB8220020C2
:105D7000581E0120C0CB0160743E026070B506461B
:105D8000154684B00C4635441149684613F0A8FC0A
:105D900095F89C30ABB10F4B4C22012102FB043231
:105DA000D1714C25F27F2046694605FB043484F806
:105DB0002E2013F0DDFC684613F086FD012004B0B0
:105DC00070BD044B4C22022102FB0432D171E8E782
:105DD000B8220020581E01202DE9F04F8BB09A46C2
:105DE00004460F469DF8509002A888491546B9FA16
:105DF00089F6760913F074FCBAF1000F1ED1EEB1EA
:105E0000002D40F0FC80172304F20B2204F2132033
:105E1000E118013391F83B11DBB202F8011F824215
:105E2000F6D104F5037106A813F05AFC06A8102257
:105E300002A913F02DFD06A813F046FD1AF1000B80
:105E400018BF4FF0010B002E4BD0BBF1000F48D014
:105E5000002D40F0CE80172304F20B2804F213200B
:105E60004246E118013391F83B11DBB202F8011F01
:105E70008242F6D104F5037306AE1946304601930B
:105E800013F02EFC082230460DEB020113F000FD4A
:105E9000304613F019FD202102A813F041FC0AF14D
:105EA000FF32019B02EB4201C2EBC101C9B201F119
:105EB00017021F31D2B2C9B2A0180132D2B290F883
:105EC0003B01914208F8010FF6D11946304613F014
:105ED00007FC3046072202A913F0DAFC304613F023
:105EE000F3FCB9F1000F73D0BBF1000F70D0002D9F
:105EF00079D1172304F20B2504F213202A46E11866
:105F0000013391F83B11DBB202F8011F9042F6D148
:105F100006AE04F503780AF1FF3A4146304613F025
:105F2000DFFB052202A9304613F0B2FC304613F025
:105F3000CBFC202102A813F0F3FB29460AEB4A020E
:105F4000CAEBC20A5FFA8AFA0AF117030AF11F0ABA
:105F5000DBB25FFA8AF2E0180133DBB290F83B0162
:105F60009A4201F8010FF6D14146304613F0B8FBD2
:105F7000052202A9304613F08BFC09F1FF393046A7
:105F800013F0A2FC202102A813F0CAFB09EB49027E
:105F9000C9EBC2095FFA89F909F1170309F11F0971
:105FA000DBB25FFA89F2E1180133DBB291F83B1101
:105FB000934205F8011FF6D14146304613F090FB9D
:105FC0003046042202A913F063FC304613F07CFC37
:105FD000384602A913F0CCFB02A813F075FC01208F
:105FE0000BB0BDE8F08F05EB4503C5EBC303DBB297
:105FF00080E705EB4503C5EBC303DBB22CE705EBFC
:106000004503C5EBC303DBB2FEE600BFB8220020A8
:106010002DE9F047DFF8EC9190B0D9F80030002B73
:1060200070D016460F4680466F49684613F058FBFD
:106030000B2E6BD8DFF8C4A14C210220D9F8002028
:1060400001FB07A10023694CC8711D46B8F8281050
:1060500001EB4101C1EB01110A443244517D92F838
:1060600021E005E001331334712B34D014F8135CB4
:10607000A942DAB2F6D114F8120C7045F2D152B33B
:1060800003EBC3025A49684603EB4203194413F079
:10609000F3FB584AB8F82830A2FB0612D9F80010D2
:1060A00003EB43035208C3EB031302EB42000B4420
:1060B000301A1A440130547CC2B2944200F08780F6
:1060C00033445B7D023B072B7AD8DFE803F0645D45
:1060D000726B7979795DBEF1000F02D098F8523079
:1060E0002BBB4549684613F0CBFA4C23002203FB37
:1060F00007AA8AF82E203846694613F039FB68460D
:1061000013F0E2FB012010B0BDE8F0873B494C23BF
:1061100098F81F20464403FB071383F82E2096F8B7
:10612000902012B10122DA71E5E7DA71E3E704A801
:1061300013F0AAFA04A908A813F07AFA08A83049BB
:1061400013F062FAB8F82830D9F80020044603EBBF
:1061500043030CA8C3EB031313441E4496F8211009
:1061600013F092FA0CA9204613F0C6FA01466846CD
:1061700013F09AFB0CA813F0A7FB08A813F0DCFAA5
:1061800004A813F0A1FBB0E74C23EA2203FB07AA03
:106190008AF82E20AFE74C23E92203FB07AA8AF8EE
:1061A0002E20A8E74C23EC2203FB07AA8AF82E2016
:1061B000A1E74C23E82203FB07AA8AF82E209AE7DE
:1061C0004C23ED2203FB07AA8AF82E2093E74C23E9
:1061D000012203FB07A3DA71B8F8283003EB43036D
:1061E000C3EB03130B446BE7B82200205BD60160BE
:1061F0004AD60160ABAAAAAAD4230020581E0120C7
:10620000C02300208CF800202DE9F04F8BB09A4677
:1062100004460F469DF8509002A888491546B9FAE1
:1062200089F6760913F05CFABAF1000F1ED1EEB1CF
:10623000002D40F0FC80172304F2444204F24C404D
:10624000E118013391F87413DBB202F8011F8242A6
:10625000F6D104F2454106A813F042FA06A810222E
:1062600002A913F015FB06A813F02EFB1AF1000B80
:1062700018BF4FF0010B002E4BD0BBF1000F48D0E0
:10628000002D40F0CE80172304F2444804F24C4025
:106290004246E118013391F87413DBB202F8011F92
:1062A0008242F6D104F2454306AE194630460193C8
:1062B00013F016FA082230460DEB020113F0E8FA4B
:1062C000304613F001FB202102A813F029FA0AF14D
:1062D000FF32019B02EB4201C2EBC101C9B201F1E5
:1062E00017021F31D2B2C9B2A0180132D2B290F84F
:1062F0007403914208F8010FF6D11946304613F0A5
:10630000EFF93046072202A913F0C2FA304613F023
:10631000DBFAB9F1000F73D0BBF1000F70D0002D84
:1063200079D1172304F2444504F24C402A46E1187F
:10633000013391F87413DBB202F8011F9042F6D1D9
:1063400006AE04F245480AF1FF3A4146304613F0E2
:10635000C7F9052202A9304613F09AFA304613F025
:10636000B3FA202102A813F0DBF929460AEB4A020E
:10637000CAEBC20A5FFA8AFA0AF117030AF11F0A86
:10638000DBB25FFA8AF2E0180133DBB290F87403F3
:106390009A4201F8010FF6D14146304613F0A0F9B8
:1063A000052202A9304613F073FA09F1FF3930468D
:1063B00013F08AFA202102A813F0B2F909EB49027E
:1063C000C9EBC2095FFA89F909F1170309F11F093D
:1063D000DBB25FFA89F2E1180133DBB291F8741392
:1063E000934205F8011FF6D14146304613F078F983
:1063F0003046042202A913F04BFA304613F064FA37
:10640000384602A913F0B4F902A813F05DFA01208E
:106410000BB0BDE8F08F05EB4503C5EBC303DBB262
:1064200080E705EB4503C5EBC303DBB22CE705EBC7
:106430004503C5EBC303DBB2FEE600BFB822002074
:10644000114A4C2303FB012393F83230013BD8B2AD
:106450000A2812D901EBC10001EB4001890001F1CA
:106460001C032C3110B4134420240A4403F8014FB8
:106470009342FBD15DF8044B704703EB0313034ACF
:106480000846D11813F080B9581E0120D04102608F
:10649000F0B585B0144606460D466846784913F0B7
:1064A0001FF90CB996F86E40013C052C00F29B8058
:1064B000DFE804F041535557620396F87521714F98
:1064C000BB181B79002B00F0AB806F49684631F890
:1064D00012406E49013C23449CB213F0D1F896F867
:1064E0007431002B00F0BB80C4EBC40468496846DB
:1064F00001EB4401023113F0BFF996F874311BB976
:106500002921684613F00CF96946284613F030F942
:1065100096F875114C235F4A07EB4107012403FBF2
:10652000052597F8313085F82E30684613F0CCF900
:10653000204605B0F0BD5849284613F025F95549C5
:106540004C23F27F012403FB0515684685F82E20B5
:1065500013F0BAF9204605B0F0BD5049ECE75049B8
:10656000EAE796F87831002B72D0012B00F0818099
:10657000022BE4D14B49DFE796F87321414FBB185A
:106580001B79002B60D04049684631F812404649DB
:10659000013C23449CB213F073F896F87231002B3F
:1065A00062D0C4EBC4043A49684601EB44010231AD
:1065B00013F062F996F872311BB92921684613F07D
:1065C000AFF86946284613F0D3F896F873214C23A8
:1065D000304907EB4207012403FB051597F83130DA
:1065E00085F82E30A1E705EBC5022A48202105EBEE
:1065F0004202920002F11C032C320344024403F8CD
:10660000011F9342FBD14C220023012402FB05050C
:10661000684685F82E3013F057F9204605B0F0BDD6
:106620001C4A4C23462003FB0523346802462946B6
:10663000D4F8B44058863046A0470446684613F064
:1066400043F9204605B0F0BD124A4C231720EAE773
:106650001649284613F098F896F8783185E72821EE
:10666000684613F05DF83FE72821684613F058F8B4
:1066700097E70F49284613F087F896F8783177E7BF
:10668000B8220020884202600CF800204824002034
:10669000F8040260581E0120F0260020FC2600208D
:1066A00045AF016020270020C825002008270020D2
:1066B00014270020114A4C2303FB012393F83230A6
:1066C000013BD8B20B2812D901EBC10001EB40010C
:1066D000890001F11C032C3110B4134420240A4416
:1066E00003F8014F9342FBD15DF8044B704703EB75
:1066F0000313034A0846D11813F046B8581E012068
:106700000C430260F8B590F89C300D46934202F1BC
:106710004C0226D900EB4203134EDB8813F0010F25
:106720004FF04C0314BF0121022103FB0563D97113
:1067300000EB42020D4F2846D38807F6CC71C3F315
:10674000470404EBC404640021443C4413F01CF8E7
:106750004C2294F8DD3F012002FB056585F82E30C0
:10676000F8BD014EE4E700BF581E0120B8DC01600F
:10677000F8B590F89D300D46934202F1500224D9AD
:1067800030F81230124F13F0010F4FF04C0314BFCA
:106790000121022103FB0573D97130F8123028461C
:1067A0000C4EC3F3470404EB8404A40031193444B1
:1067B00001F2467112F0E8FF4C2294F8573701209D
:1067C00002FB057585F82E30F8BD014FE5E700BFE7
:1067D000581E0120B0ED016070B50AB990F86E2026
:1067E000022A22D8012A03464FF0000414BF1226C1
:1067F0000F2603E001341133082C28D093F8A95058
:10680000012DF7D193F8B350B542F3D104EB041442
:10681000031993F8AB0093F8AA40000193F8AC6019
:1068200000EB04231E44B6B212E001EBC1031C4A84
:10683000202401EB4301890001F11C032C31134496
:106840000A4403F8014F9342FBD1012070BDFF269B
:10685000144C002340F22B1504E00133302B11D0EF
:1068600034F8185CAE4204F11804F6D1DBB20E4ADB
:10687000084603EB430302EBC301093112F084FF26
:10688000012070BD012A05D00846084912F07CFF9E
:10689000012070BD0846064912F076FFD5E700BF1B
:1068A000581E01205A9D0160409D0160382700203C
:1068B00030270020F0B589B0144607460D466846DB
:1068C000002112F00DFF5C2C20D8542C34D8274422
:1068D000234E4C233E2C97F89D2003FB0563DA7171
:1068E0001AD997F89D302846012B0CBF1D491E4927
:1068F00012F04AFFC4EBC4041C4A4C2302EB4404CC
:1069000003FB056594F8213985F82E30684612F0AE
:10691000DBFF012009B0F0BD05EBC502202105EB2E
:106920004202920002F11C032C323344324403F839
:10693000011F9342FBD1DDE727440D4904A8084E0F
:1069400012F0CEFE04A997F89D0012F041FF2846F0
:1069500004A912F00DFF04A812F0B6FFCAE700BFA9
:10696000581E0120EC270020F4270020A00F026011
:10697000B822002030B585B00D4604460949684666
:1069800012F0AEFE6946284612F022FF6946204604
:1069900012F0EEFE044B68461C7012F095FF05B035
:1069A00030BD00BFB82200200931012070B584B08D
:1069B000054616460C466846002112F091FE6B46CD
:1069C000324695F89C10012012F04AFF6946204695
:1069D00012F0CEFE684612F077FF012004B070BDC1
:1069E0000146012001F134030A8D91F89C1012F048
:1069F00037BF00BF2DE9F04188B0064688463449CC
:106A0000684617464FEAC82512F06AFE328DADB2CD
:106A10006B46013296F89C1002202A4492B212F082
:106A20001FFF58B30024264602E001340C2C12D07C
:106A30002146684612F038FE0378E5B2202BF4D9DF
:106A40002146684612F030FE013403787A2B98BF55
:106A50002E460C2CECD1731C0022694604A812F0BF
:106A60009BFE04A9384612F01FFF04A812F02CFF69
:106A7000684612F029FF08B0BDE8F08104462A46B6
:106A800096F89C106B46022012F0EAFEA8B126464A
:106A900002E001340C2CDED02146684612F004FEE0
:106AA0000378E5B2202BF4D92146684612F0FCFDAC
:106AB00003787A2B98BF2E46EBE708EB08180549B8
:106AC0003846414412F0D8FE684612F0FDFED2E787
:106AD000B822002040060020F0B5074689B01646CF
:106AE0000C4600293CD03049684612F0F9FD3A8D39
:106AF000E4026B46013297F89C10A5B203202A44A9
:106B000092B212F0ADFE044678B30024274602E0AC
:106B100001340C2C12D02146684612F0C5FD0378D2
:106B2000E5B2202BF4D92146684612F0BDFD0134B0
:106B300003787A2B98BF2F460C2CECD17B1C0022BB
:106B4000694604A812F028FE04A9304612F0ACFEF3
:106B500004A812F0B9FE684612F0B6FE09B0F0BD06
:106B60001249104612F088FEBDE72A4697F89C109D
:106B70006B46032012F074FE0028ECD0274602E09A
:106B800001340C2CDAD02146684612F08DFD0378D2
:106B9000E5B2202BF4D92146684612F085FD037832
:106BA0007A2B98BF2F46EBE7B8220020D423002091
:106BB0002DE9F04794B01E4618460D461C9F90469E
:106BC00012F012FD384612F00FFD347A14B1BB6892
:106BD0009C4206D03146404612F066FE14B0BDE835
:106BE000F08731466846013C12F0BAFD13E05028A8
:106BF0001ED1012D00F0E2806D08A9F13009B9F134
:106C0000090F04D8AAF1300ABAF1090F3AD914F1E0
:106C1000FF34C0F095802146304612F0E9FC8146F1
:106C20002146384612F0E4FCB9F1550F8246DED019
:106C3000B9F1500F0AD1BAF1550F07D1012DDBD1AF
:106C400055222146684612F07FFDD5E7484612F0EE
