:1000000000000320D101000039880200F1870200BE
:10001000F1870200F1870200F1870200F1870200F8
:10002000F1870200F1870200F1870200398802009F
:1000300039880200F1870200CDA50200D1A5020097
:1000400039880200398802003988020039880200A4
:100050003988020039880200398802003988020094
:100060003988020039880200398802003988020084
:100070003988020039880200398802003988020074
:100080003988020039880200398802003988020064
:100090003988020039880200398802003988020054
:1000A000614A02006D4A0200398802003988020064
:1000B0003988020039880200398802006DB60200D2
:1000C00039880200DDBD020039880200398802004B
:1000D0003988020039880200398802003988020014
:1000E000398802003988020039880200E181020063
:1000F00039880200398802003988020039880200F4
:100100001DA9020031A9020045A9020059A9020057
:1001100039880200A1910200398802003988020062
:1001200039880200398802003988020039880200C3
:1001300039880200398802003988020039880200B3
:1001400039880200398802003988020039880200A3
:100150003988020039880200398802003988020093
:100160003988020039880200794A02003988020081
:100170003988020039880200398802003988020073
:100180003988020039880200398802003988020063
:100190003988020039880200398802003988020053
:1001A000398802003988020039880200854A020035
:1001B0003988020039880200398802003988020033
:1001C0003988020039880200398802003988020023
:1001D0005C4B4CF2205210B51A804DF628121A8052
:1001E00000BF00BF28F02CFB574B4FF030621A6065
:1001F000564A9A60564ADA60564B4FF470021A60BB
:10020000554B564A1A60564B1A78110703D51A787F
:1002100042F008021A70534B5349AA221A70534AEB
:10022000534B8B4204D252F8040F43F8040BF8E707
:10023000504B514900228B4202D243F8042BFAE77B
:100240004E494F4A002352F8230041F8230001335E
:10025000742BF8D14B4B4C4A802103F8011B93427D
:10026000FBD14A4B454A1A60494B8A221A70A3F5C2
:10027000805324225A70A0221A709A799207FCD5D2
:100280009A79D406FCD4434A937903F00C03082BE3
:10029000FAD1414B60221A7002331A78802AFCD1BD
:1002A0003C4B01221A715D225A719A799006FCD555
:1002B0009979384A4906FBD5384B394919600021EC
:1002C000596020231370937903F00C030C2BFAD19F
:1002D000344B354A1A60354A354C136813F4807331
:1002E00003D123604FF4A8531360324B324A1A6093
:1002F00000225A60072243F8042C304AC3F80C2D20
:1003000062B628F0BBFD2368DA0705D52C4828F033
:1003100073FB2C4B2C4A1A602C4B1B785B0609D5BF
:10032000284C294B22689A4204D1254828F064FBC6
:10033000002323602CF008F828F088FA2AF05CFDEE
:10034000FEE700BF0E20054030800440823F0400DD
:100350000100002B88ED00E0002008E0030000858C
:1003600002D0074000E007403895FF1F280704002F
:10037000507CFF1F00A0FF1FA87900200076FF1F00
:100380000000000000E400E064E400E008ED00E0AC
:10039000005006400040064001E007404480044011
:1003A0000000060204800440C010070010D0034083
:1003B00014D0034014E000E01FBF02000000202022
:1003C0000BCDF9601CE00340A5C3945A00F0074030
:1003D000FFFFFFFFFFFFFFFFFFFFFFFFFFFFFFFF2D
:1003E000FFFFFFFFFFFFFFFFFFFFFFFFFFFFFFFF1D
:1003F000FFFFFFFFFFFFFFFFFFFFFFFFFFFFFFFF0D
:10040000FFFFFFFFFFFFFFFFFFFFFFFFDEF9FFFF23
:1004100010B5054C237833B9044B13B10448AFF33E
:1004200000800123237010BD00A0FF1F000000000A
:1004300024070400084B10B51BB108490848AFF366
:1004400000800848036803B910BD074B002BFBD0A0
:10045000BDE81040184700BF0000000004A0FF1FC7
:10046000240704003895FF1F00000000002070479B
:10047000704700BF72B6034B012283F8A42062B616
:10048000704700BF64F7FF1F704700BF704700BF91
:10049000704700BF704700BF704700BF2DE9F041B3
:1004A000DFF834800A4C98F800300A4F1E1104F12E
:1004B000380501E098F8003054F8040FB95D02687F
:1004C0001943D2699047AC42F4D1BDE8F08100BF36
:1004D000407DFF1FFC6600205CFAFF1F704700BFD5
:1004E00030B490F820409DF808509C4201D030BCB8
:1004F000704790F82130AB42F9D10029F7D180F84C
:100500004C20F4E7704700BF704700BF044A4379AE
:1005100010780133181AB0FA80F04009704700BF14
:10052000F34C002070B4838C0A4C42790A4D0B497D
:10053000B0F84A602E70A4FB034301326425002406
:100540005B090A70A0F84A5080F84D40A0F8483086
:1005500070BC70471F85EB51A9F9FF1FF34C0020B9
:100560000368DB6F184700BF01EBC10301EB4301D8
:100570008900064A01F11C032C3113440A4420214E
:1005800003F8011F9342FBD1012070471CA0FF1FFD
:1005900000207047002070470368D3F89830184750
:1005A0000846704701EBC10301EB43018900064A8D
:1005B00001F11C032C3113440A44202103F8011FCC
:1005C0009342FBD1704700BF1CA0FF1F002380F89F
:1005D0006610A0F864307047002070470020704714
:1005E000704700BF704700BF90F86A304BB10133CD
:1005F000DBB2022B88BF012380F86A30014B022254
:100600001A707047F04C002001EBC10301EB43016D
:100610008900064A01F11C032C3113440A442021AD
:1006200003F8011F9342FBD1012070471CA0FF1F5C
:10063000704700BF704700BF002070470020704720
:10064000704700BF5D207047542901D802207047D1
:100650005D2934BF80200020704700BF0379022B42
:1006600006BF90F8F20040005D20704790F8F3005C
:10067000704700BF082070472F2070472E2906D8EA
:10068000044B01EB410103EBC101087A70470020E4
:10069000704700BF5011030043790A4A0A4910B459
:1006A0000133B0F84A4014700B704FF49674002276
:1006B000A0F84A40A0F8482080F84D205DF8044B8F
:1006C000704700BFA9F9FF1FF34C002090F84D3090
:1006D0004BB9C1EB0111490089B2022986BF033928
:1006E00088B200207047B0F8483001EB4101C3EBFD
:1006F000031301EB430189B2EFE700BF2E207047DF
:100700002D2906D8044B01EB410103EBC101087A06
:1007100070470020704700BFFCAA03000820704704
:100720001531C8B2704700BF022380F86A307047A5
:1007300043790A4A0A4910B40133B0F84A401470A8
:100740000B704FF4C8740022A0F84A40A0F848206B
:1007500080F84D205DF8044B704700BFA9F9FF1FDA
:10076000F34C0020026890F84E1080F85110136C82
:10077000184700BF0F2907D801EB4102034B01EBDB
:1007800082011944087B704700207047B4C0030001
:1007900010B40AB990F86A20012A1FD0022A1BD08F
:1007A000032A0CBF0D2400240D4A01EBC10001EB0C
:1007B00040004C2303FB0121800000F11C032C307E
:1007C00013444C860244202103F8011F9342FBD1BD
:1007D00001205DF8044B70470C24E5E70B24E3E7A8
:1007E0001CA0FF1F43790D4990F8952030B40C4CA4
:1007F000B0F84A50257001330B7052B14FF4FA73C0
:10080000A0F84A300023A0F8483080F84D3030BCC2
:1008100070476423A0F84A30F4E700BFF34C00208F
:10082000A9F9FF1F1220704790F86A304BB10133CD
:10083000DBB2032B88BF012380F86A30014B012211
:100840001A707047F04C002010B40AB990F86A2072
:10085000012A1FD0022A1BD0032A0CBF0D2400241A
:100860000D4A01EBC10001EB40004C2303FB0121C9
:10087000800000F11C032C3013444C8602442021DC
:1008800003F8011F9342FBD101205DF8044B704730
:100890000C24E5E70B24E3E71CA0FF1F4379094A7A
:1008A000094910B40133B0F84A4014700B70502459
:1008B0000022A0F84A40A0F8482080F84D205DF8BA
:1008C000044B7047A9F9FF1FF34C00208A207047A2
:1008D00090F866300BB98A207047024A134413F827
:1008E000010C7047746B0020F0B490F86660CEB1D4
:1008F00000230F4A1D460B2403E08A2B0ED012F86A
:100900001C4CB442DFB202F11C0203F10103F4D12A
:10091000A9420AD001358A2BEDB2F0D14FF6FF7013
:10092000F0BC70470846F0BC7047B8B2F0BC7047E6
:10093000A1680300704700BF1020704790F86A302C
:100940004BB10133DBB2022B88BF012380F86A3040
:10095000014B01221A707047F04C002030B40AB9E4
:1009600090F86A20012A20D0022A12D001EBC1039C
:1009700001EB430189000E4A01F11C032C311344A1
:100980000A44202103F8011F9342FBD1012030BC0F
:1009900070470F23064C05684C2202FB01441A469F
:1009A0006386D5F8943030BC18470E23F2E700BFB9
:1009B0001CA0FF1F0120704721B109298CBF002016
:1009C00001207047084670474379094A094910B425
:1009D0000133B0F84A4014700B7024240022A0F8B0
:1009E0004A40A0F8482080F84D205DF8044B70473D
:1009F000A9F9FF1FF34C002009207047082994BF74
:100A000002200020704700BF704700BF0F207047D2
:100A10000E2907D8044B01EB4101C1EBC101194478
:100A2000887C7047002070475C3203000C4A01EB61
:100A3000C10001EB40004C2303FB0121800010B4F6
:100A400000F11C030E242C304C8613442021024458
:100A500003F8011F9342FBD101205DF8044B70475E
:100A60001CA0FF1F43790A4A0A4910B40133B0F8A9
:100A70004A4014700B704FF4C8740022A0F84A402A
:100A8000A0F8482080F84D205DF8044B704700BF67
:100A9000A9F9FF1FF34C002090F84D3043B901EB4A
:100AA0008101C900032986BF043988B2002070473C
:100AB000B0F8483003EB830301EB4301890089B2AE
:100AC000F0E700BF63207047622905D8034B1A2264
:100AD00002FB0131887A704700207047745103008F
:100AE000182070470F2986BF0531C8B208467047E5
:100AF0000139C9B207299DBF90F8720340FA01F18C
:100B000001F001000020704790F86A304BB10133CA
:100B1000DBB2022B88BF012380F86A30014B01222F
:100B20001A707047F04C0020B0207047C12906D8D9
:100B3000044B01EB410103EBC101887870470020B1
:100B4000704700BF00ED030090F866300BB9C2207B
:100B50007047024A134413F8010C70475464002094
:100B6000F0B490F86660CEB100230F4A1D460C2405
:100B700003E0C22B0ED012F8184CB442DFB202F1DF
:100B8000180203F10103F4D1A9420AD00135C22BA6
:100B9000EDB2F0D14FF6FF70F0BC70470846F0BCE4
:100BA0007047B8B2F0BC70472FED030027207047A4
:100BB00010B4054C4C2000FB014181F8303081F825
:100BC0003C205DF8044B70471CA0FF1F90F86A3072
:100BD0004BB10133DBB2022B88BF012380F86A30AE
:100BE000014B01221A707047F04C0020062070471C
:100BF00010B40A4A0A4813780A49012B96BF0A4BD7
:100C000003F1FF331B781370084A0023012413708B
:100C100004700B705DF8044B704700BFABF9FF1F09
:100C200090E0FF1F816B0020897DFF1F694F00202E
:100C300010B40A4A0A49137809780A4899428CBFC5
:100C4000013301231370084A08490023012413705B
:100C500004700B705DF8044B704700BFABF9FF1FC9
:100C6000897DFF1F90E0FF1F694F0020816B0020EE
:100C7000704700BF10B5044B044640F8303B29F0E4
:100C80008BFE204610BD00BFF07F030010B5044B63
:100C9000044640F8303B29F07FFE204610BD00BFDF
:100CA000F07F030010B5044B044640F8303B29F0B8
:100CB00073FE204610BD00BFF07F030010B5044B4B
:100CC000044640F8303B29F067FE204610BD00BFC7
:100CD000F07F030010B5044B044640F8303B29F088
:100CE0005BFE204610BD00BFF07F030010B5044B33
:100CF000044640F8303B29F04FFE204610BD00BFAF
:100D0000F07F030010B5044B044640F8303B29F057
:100D100043FE204610BD00BFF07F030010B5044B1A
:100D2000044640F8303B29F037FE204610BD00BF96
:100D3000F07F030010B5044B044640F8303B29F027
:100D40002BFE204610BD00BFF07F030010B5044B02
:100D5000044640F8303B29F01FFE204610BD00BF7E
:100D6000F07F030010B5044B044640F8303B29F0F7
:100D700013FE204610BD00BFF07F030010B5044BEA
:100D8000044640F8303B29F007FE204610BD00BF66
:100D9000F07F030010B5044B044640F8303B29F0C7
:100DA000FBFD204610BD00BFF07F030010B5044BD3
:100DB000044640F8303B29F0EFFD204610BD00BF4F
:100DC000F07F030008B5C82028F006F8014B024A5E
:100DD0001A6008BD0CED00E00400FA05F8B50F4CF0
:100DE00004F1100514F8011F0D4829F013FFAC425F
:100DF000F8D10C4B0C491F780F700C4E0C4D0D4A5E
:100E00000D4C0E480821197010270123022137705C
:100E10002B70117023700370F8BD00BFABF8FF1F7B
:100E2000844F0020A35B002049600020897DFF1FC4
:100E3000ABF9FF1FF04C0020014D002090E0FF1F98
:100E400038B504460023CD2200F1300580F88C200F
:100E50001121237184F88D3084F88E3084F88F301E
:100E6000284629F0A1FD2846034929F071FE0123F7
:100E700084F8523038BD00BFB80403001046014961
:100E800029F066BECC0403001846014929F060BE73
:100E9000DC0403001046014929F05ABEE0040300B7
:100EA0001046014929F054BEEC04030010460149E4
:100EB00029F04EBEDC040300F8B510491048114C6F
:100EC00029F046FE04F1080514F8011F0C4829F02A
:100ED000A1FEAC42F8D10C490C4B0A781A700C4FA9
:100EE0000C4E0D480D4D0E4C082201230A700221B4
:100EF0003A70337001702B702370F8BDC804030082
:100F0000844F0020D4530020A35B002049600020C0
:100F1000897DFF1FABF9FF1FF04C002063600020AC
:100F200090E0FF1F811D104629F066BE1046014962
:100F300029F062BEF40403001046014929F05CBEAA
:100F4000C8040300072900D9704701EB8100034B57
:100F500001EB40011944104629F04EBE0EE8030093
:100F6000044B01EB410103EBC1011046093129F0AB
:100F700043BE00BF50110300044B01EB410103EBE2
:100F8000C1011046093129F037BE00BFFCAA030099
:100F900010B401EB4103044C01EB830121441046E2
:100FA0005DF8044B29F028BEB4C00300024B104684
:100FB00003EB011129F020BE64EA030010B401EB39
:100FC0004103044CC1EBC301214410465DF8044BBE
:100FD00029F012BEE09C0300034B01EB8101104697
:100FE00003EB410129F008BEA4C2030001EB41015B
:100FF000034BC1EBC1011046194429F0FDBD00BFF0
:101000005C320300622900D97047044B1A2000FBB0
:1010100001310B31104629F0EFBD00BF74510300C0
:10102000044B01EB410103EBC1011046033129F0F0
:10103000E3BD00BF00ED0300262903D91046054992
:1010400029F0DABD044B01EB4101104603EBC1016D
:1010500029F0D2BD040503000CBD0300262903D9E5
:101060001046064929F0C8BD054B01EB410103EBD1
:10107000C10110460E3129F0BFBD00BF04050300B9
:101080000CBD030070B501EB41030C461F49C4EBD6
:10109000C303054619441046164629F0ADFD0B2C36
:1010A00000D970BD3A21304629F0B4FDAB8C184A06
:1010B0001849126803EB4303C3EB03131A44224499
:1010C0000023547D92F82120184606E00133712B4D
:1010D00001F1130114D011F8130C8442DDB2F5D1E3
:1010E00011F8120C9042F1D155B103EBC3020A4939
:1010F00003EB420330461944BDE8704029F07CBD43
:1011000030460649BDE8704029F076BDF19C0300E9
:10111000F866002097770300867703000405030034
:1011200030B4B9B101EB4103C1EBC303DBB200F250
:101130003C4100F24445C418013394F86C4301F873
:10114000014FA942DBB2F6D100F23D4130BC10465E
:1011500029F052BD1723EAE730B589B00D4604A83F
:101160000B49144629F058FC2946684629F086FCAC
:10117000694604A829F072FD0146204629F038FD91
:10118000684629F009FC04A829F006FC09B030BD26
:101190000805030030B589B00D4604A80B49144674
:1011A00029F03AFC2946684629F068FC694604A8FB
:1011B00029F054FD0146204629F01AFD684629F021
:1011C000EBFB04A829F0E8FB09B030BD14050300CF
:1011D00070B50F4CA4FB0134E4080D4604F1410145
:1011E00084B0C9B2104604EB8404164629F012FDFF
:1011F000A5EB44010A2289B2684629F053FC6946EE
:10120000304629F0F5FC684629F0C6FB04B070BDF5
:10121000CDCCCCCC2DE9F041454FA7FB013464087F
:10122000622C8CB00D46164673D990F8933003F1BA
:101230003102B4EB420F804670DC62339C4256DCD4
:101240003C49304629F0D8FC6FF494731D44ADB28C
:10125000A7FB0534C4F34F040134374FE4B2A7FBB6
:101260000437FF0839460A22684629F01BFC07EBC1
:101270008707694608A829F0E3FBA4EB47010A2287
:10128000C9B204A829F00EFC04A908A829F0E6FCBC
:101290000146304629F0ACFC04A829F07DFB08A8E3
:1012A00029F07AFB684629F077FB08A8234929F042
:1012B000B3FB1F49A1FB0531490801EB4101691A44
:1012C00089B20A22013104A829F0ECFB04A908A87C
:1012D00029F0C4FC0146304629F08AFC04A829F014
:1012E0005BFB08A829F058FB0CB0BDE8F08114495D
:1012F000304629F081FC98F8933003EB4303C3F5A3
:101300007E43D7331D44ADB2A7FB0534C4F34F046D
:10131000A2E75521104629F07DFC9DE7094930469A
:1013200029F06AFC98F8933003EB43035B00E6E78F
:10133000ABAAAAAA48050300CDCCCCCCDC040300A0
:10134000000D03001C0503002DE9F04390F89530D3
:1013500095B00C461546002B51D1042948D90C1FD5
:1013600008A8564929F058FB5549A4B2A1FB0431FD
:101370000A22490904A829F095FB04A908A829F024
:101380006DFC504BA3FB0426F608B1B2A3FB01236E
:10139000DB0803EB8303A1EB430107460A2289B272
:1013A0000CA829F07FFB0CA9384629F057FC06EB66
:1013B0008606A4EB46010A22074689B210A829F046
:1013C00071FB10A9384629F049FC0146284629F04E
:1013D0000FFC10A829F0E0FA0CA829F0DDFA04A807
:1013E00029F0DAFA08A829F0D7FA15B0BDE8F08399
:1013F0001046354929F000FC15B0BDE8F083314EA8
:101400002F49A6FB0437BF0807F10109A1FB0931E9
:101410000A22A6FB0938C1F34F11684629F042FBA6
:101420004FEAD808694608A829F00AFB1FFA88F194
:10143000A6FB0136F60806EB8606A1EB46010A225A
:1014400089B204A829F02EFB04A908A829F006FCFB
:1014500008EB8808A9EB48010A22064689B20CA8C5
:1014600029F020FB0CA9304629F0F8FB174929F098
:10147000FDFB07EB8701611A89B20A22064601319A
:1014800010A829F00FFB10A9304629F0E7FB014610
:10149000284629F0ADFB10A829F07EFA0CA829F007
:1014A0007BFA04A829F078FA08A829F075FA6846AA
:1014B00029F072FA15B0BDE8F08300BF28050300DB
:1014C0001F85EB51CDCCCCCC20050300DC04030000
:1014D000F0B590F8953091B004460F461646002BB3
:1014E00036D190F84D30002B75D190F84810614DF1
:1014F00001EB810107EB4104E4B2A5FB0435ED08E3
:1015000029460A2204A829F0CDFA05EB850504A98D
:101510000CA829F095FAA4EB4501C9B20A2208A843
:1015200029F0C0FA08A90CA829F098FB524929F023
:101530009DFB0146304629F05BFB08A829F02CFAF8
:101540000CA829F029FA04A829F026FA11B0F0BD58
:1015500090F84D30002B69D0B0F84810454DA5FBF0
:1015600001310A22C908684629F09CFA694608A890
:1015700029F066FAB4F84810A5FB0135ED0805EB33
:101580008505A1EB45010A2289B204A829F08AFA4F
:1015900004A908A829F062FB394604460A220CA8CF
:1015A00029F080FA0CA9204629F058FB334929F08C
:1015B0005DFB0146304629F01BFB0CA829F0ECF935
:1015C00004A829F0E9F908A829F0E6F9684629F005
:1015D000E3F911B0F0BDB0F84810264DA5FB01317C
:1015E0000A22C908684629F05DFA694608A829F068
:1015F00027FAB4F84810A5FB0135ED0805EB850581
:10160000A1EB45010A2289B204A829F04BFA04A9EA
:1016100008A829F023FB394604460A220CA829F021
:1016200041FA0CA9204629F019FBC2E7B0F848405E
:10163000104904EB840407EB4404A4B2A1FB043773
:10164000FF0839460A2204A829F02CFA07EB87077D
:1016500004A90CA829F0F4F9A4EB470189B20A22E5
:1016600008A829F01FFA08A90CA829F0F7FA0449DC
:101670005DE700BFCDCCCCCC2C05030034050300C6
:101680003005030070B590F84D308CB004460D461F
:10169000164633BBB0F848300BB9002964D0354941
:1016A00008A829F0B9F9B4F8481001EB810105EB5D
:1016B000410101390A2204A829F0F4F904A908A873
:1016C00029F0CCFA2C4929F0D1FA0146304629F00C
:1016D0008FFA04A829F060F908A829F05DF90CB088
:1016E00070BDB0F84830A3B929B91046234929F094
:1016F00083FA0CB070BD08A8214929F08DF929465C
:1017000004A80A2229F0CEF904A908A829F0A6FA0B
:10171000DBE704A8174929F07FF9B4F848100A223A
:101720000139684629F0BEF9694604A829F096FAFD
:10173000144929F09BFA0A220446294608A829F0F0
:10174000B1F908A9204629F089FA0146304629F066
:101750004FFA08A829F020F9684629F01DF904A8D5
:1017600029F01AF90CB070BD1046074929F044FA67
:101770000CB070BD3C0503004005030044050300A8
:101780004C050300A00D030038050300F0B5224B03
:1017900001318CB291B0A3FB0431164649090A22EB
:1017A000684629F07FF9694608A829F049F91B4BDA
:1017B000A3FB0425ED08A9B2A3FB0123DB0803EB7F
:1017C0008303A1EB43010A2289B204A829F06AF934
:1017D00004A908A829F042FA05EB8505A4EB450108
:1017E0000A22074689B20CA829F05CF90CA93846F0
:1017F00029F034FA0146304629F0FAF90CA829F00C
:10180000CBF804A829F0C8F808A829F0C5F868465C
:1018100029F0C2F811B0F0BD1F85EB51CDCCCCCC76
:10182000F0B5284C284FC7290E468DB094BF5521DE
:101830005021A4FB06341046154629F0EBF9A30904
:10184000C82404FB1364C4F38D040134E4B2A7FB81
:101850000437FF0839460A22684629F023F907EBC6
:101860008707694608A829F0EBF8A4EB47010A228C
:10187000C9B204A829F016F904A908A829F0EEF9BC
:101880000146284629F0B4F904A829F085F808A8EB
:1018900029F082F8684629F07FF82D21284629F0A2
:1018A000B9F906F003010A22013108A829F0FAF873
:1018B00008A9284629F09CF908A829F06DF80DB070
:1018C000F0BD00BF1F85EB51CDCCCCCC30B562292B
:1018D0008BB01D462FD83A4B1A2404FB0131C98A1C
:1018E0000BB2002B55DDA1F5F844063C112C10D8A5
:1018F000DFE804F0090F0F0F0F0F0F0F0F0F0F0F7F
:101900000F0F0F2D4D2790F8A530002B14BF092184
:1019100001210A44013A2B4902EBC202114406A8F4
:1019200029F07AF806A9284629F062F906A829F0D4
:1019300033F80BB030BD1846234929F05DF90BB0E0
:1019400030BD114606A80A2229F0ACF8EAE73F2A82
:1019500028D9402A2FD00192EBD91C4906A829F09A
:101960005BF8019AA2F132010A2202A829F09AF842
:1019700002A906A829F072F90146284629F038F98B
:1019800002A829F009F806A829F006F8D1E75100C5
:10199000D8E7012A28460CBF0D490E4929F02CF939
:1019A0000BB030BD0C49019206A829F035F8019A18
:1019B000C2F13201D8E72846084929F01DF9B8E7F5
:1019C000745103006CB00300140E0300000D0300FB
:1019D000000B0300540503004805030050050300F5
:1019E00030B50F2989B0154622D91039CCB2072C51
:1019F00005D91046124929F0FFF809B030BD04A8F6
:101A0000104929F009F80A22611C684629F04AF8B1
:101A1000694604A829F022F90146284629F0E8F889
:101A2000684628F0B9FF04A828F0B6FF09B030BD19
:101A3000054B104603EB011129F0DEF809B030BD6B
:101A4000040503005805030030FF030030B50F29DB
:101A500089B0154622D91039CCB2072C05D91046C9
:101A6000134929F0C9F809B030BD04A8114928F07C
:101A7000D3FF0A22611C684629F014F8694604A8BD
:101A800029F0ECF80146284629F0B2F8684628F01B
:101A900083FF04A828F080FF09B030BD064B03EB9C
:101AA00001111046083129F0A7F809B030BD00BF78
:101AB000040503006405030030FF0300F0B5C729E7
:101AC00091B00C4610468CBF50215521164601346A
:101AD00029F0A0F82049A4B2A1FB04310A22490947
:101AE000684628F0DFFF694608A828F0A9FF1B4BCD
:101AF000A3FB0425ED08A9B2A3FB0123DB0803EB3C
:101B00008303A1EB43010A2289B204A828F0CAFF8B
:101B100004A908A829F0A2F805EB8505A4EB450166
:101B20000A22074689B20CA828F0BCFF0CA9384647
:101B300029F094F80146304629F05AF80CA828F00C
:101B40002BFF04A828F028FF08A828F025FF6846E6
:101B500028F022FF11B0F0BD1F85EB51CDCCCCCCCD
:101B6000F0B590F84D3091B005460F4616466BBB68
:101B7000B0F84830012B8CBF50215521104629F078
:101B800049F8B5F848100A2204A828F08BFF04A9E8
:101B90000CA828F055FF0A22394608A828F082FF31
:101BA00008A90CA829F05AF82B4929F05FF801463A
:101BB000304629F01DF808A828F0EEFE0CA828F001
:101BC000EBFE04A828F0E8FE11B0F0BDB0F84830F4
:101BD000224C132B8CBF50215521104629F01AF8A6
:101BE000B5F84810A4FB01310A22C908684628F05C
:101BF00059FF694608A828F023FFB5F84810A4FB50
:101C00000134E40804EB8404A1EB44010A2289B204
:101C100004A828F047FF04A908A829F01FF80A2201
:101C2000044639460CA828F03DFF0CA9204629F0AF
:101C300015F80146304628F0DBFF0CA828F0ACFE72
:101C400004A828F0A9FE08A828F0A6FE684628F0F7
:101C5000A3FE11B0F0BD00BF2C050300CDCCCCCC51
:101C600070B5164C4D1C84FB0534EB178CB0C3EBE0
:101C7000A404164621460A22684628F013FF694646
:101C800008A828F0DDFE04EB84010A22A5EB41013F
:101C900004A828F007FF04A908A828F0DFFF0146E0
:101CA000304628F0A5FF04A828F076FE08A828F002
:101CB00073FE684628F070FE0CB070BD67666666FD
:101CC00030B589B00D4604A80C49144628F0A4FE8E
:101CD0000A22691C684628F0E5FE694604A828F037
:101CE000BDFF0146204628F083FF684628F054FED9
:101CF00004A828F051FE09B030BD00BF68050300FC
:101D0000F0B50C46C91191B04131C9B204A81646CC
:101D1000013428F0DBFE2149A4B2A1FB04310A22E0
:101D20004909684628F0BEFE694604A828F096FFD7
:101D30001B4BA3FB0425ED08A9B2A3FB0123DB0881
:101D400003EB8303A1EB430107460A2289B208A8EB
:101D500028F0A8FE08A9384628F080FF05EB850585
:101D6000A4EB45010A22074689B20CA828F09AFE86
:101D70000CA9384628F072FF0146304628F038FF9B
:101D80000CA828F009FE08A828F006FE684628F0EE
:101D900003FE04A828F000FE11B0F0BD1F85EB5132
:101DA000CDCCCCCC2DE9F04190F84D3090B0074629
:101DB0000D461646002B47D0B0F848103D4C01EBBD
:101DC000810189114131C9B204A828F07FFEB7F81A
:101DD0004810A4FB01310A22C908684628F062FEB7
:101DE000694604A828F03AFFB7F84810A4FB01346C
:101DF000E40804EB8404A1EB440180460A2289B282
:101E000008A828F04FFE08A9404628F027FF0A221C
:101E1000044629460CA828F045FE0CA9204628F0C7
:101E20001DFF0146304628F0E3FE0CA828F0B4FD63
:101E300008A828F0B1FD684628F0AEFD04A828F0F7
:101E4000ABFD10B0BDE8F081B0F8483001EB810186
:101E50004A00642101FB0321C9114131C9B208A81C
:101E600028F034FEB7F848100A2204A828F01AFE19
:101E700004A908A828F0F2FE0A22044629460CA864
:101E800028F010FE0CA9204628F0E8FE0A4928F0A8
:101E9000EDFE0146304628F0ABFE0CA828F07CFD94
:101EA00004A828F079FD08A828F076FD10B0BDE858
:101EB000F08100BFCDCCCCCC2C050300F0B50D4695
:101EC0008DB0184C013504A85021164684FB05340A
:101ED00028F0FCFDEB17C3EBA40421460A22684658
:101EE00028F0E0FD694604A828F0B8FE04EB840160
:101EF0000A220746A5EB410108A828F0D3FD08A94E
:101F0000384628F0ABFE0146304628F071FE08A89E
:101F100028F042FD684628F03FFD04A828F03CFD6B
:101F20000DB0F0BD6766666670B590F84D308CB048
:101F30000C461546EBB9052908A84FD9502128F0C1
:101F4000C5FD611F0A2204A828F0ACFD04A908A859
:101F500028F084FE244928F089FE0146284628F00E
:101F600047FE04A828F018FD08A828F015FD0CB0BD
:101F700070BD90F848600A2313FB0613322B28DD4E
:101F80005021104628F046FE053EF6B2314668461E
:101F900028F074FD694608A828F052FD0A2221465F
:101FA00004A828F07FFD04A908A828F057FE0F49CF
:101FB00028F05CFE0146284628F01AFE04A828F006
:101FC000EBFC08A828F0E8FC684628F0E5FC0CB01B
:101FD00070BD5521104628F01DFED7E7552128F089
:101FE00075FD2146AEE700BF300503003405030050
:101FF00008B5044826F01CF80348BDE8084026F060
:1020000017B800BF9C6B0020B46B00202DE9F04195
:102010000446FEF715FF1F4A1F4B1068C4F8060060
:1020200007CB02271D8893F802802771CF234FF03A
:10203000C70CC4F80E004FF0040E0120C4F81210B3
:10204000CD270021658304F19A05C4F8162084F891
:102050008D3084F81C80A4F844C084F850E084F8E3
:102060008C702A4684F82800E07784F8200084F8F1
:102070006A00A4F84210616584F88E1084F88F100D
:1020800004F1920303F8010FAB4202F8011FF9D1EA
:10209000BDE8F0816C05030070050300F8B51C4D28
:1020A0000446FEF7CDFE1B4B2868C4F8060003CBA0
:1020B0002D79B3F800C0A5729B78C4F80E000225F4
:1020C00001222571CD26C4F81210CF250421D0207D
:1020D000237600234FF0620E0527A4F816C084F87B
:1020E0008C6084F88D5084F88E0084F8933084F8E6
:1020F000943084F88F3084F85010E17784F82020F1
:10210000A4F844E06765A4F8423084F85220F8BD92
:1021100080050300880503002DE9F041214E0446A7
:10212000FEF78EFE204B3068C4F8060007CB3679E8
:102130001B78A672A37602260A2326714FF0040CA0
:10214000C4F80E004FF0280EC4F812100327C4F88C
:1021500016200826CD20CF21D022636500234FF41E
:102160002478012584F850C084F893E0E77784F858
:10217000206084F88C0084F88D1084F88E2084F818
:10218000943084F8953084F8963084F8973084F849
:102190008F30A4F8448084F85250A4F84230BDE84F
:1021A000F08100BF940503009C0503002DE9F04178
:1021B0000446FEF745FE1C4B1C4D1868C4F806008B
:1021C0000FCD022626714FF0040CC4F80E004FF01C
:1021D0000A0ECD27C4F81620CF260122C4F81A30E3
:1021E000D32000234FF41C78C4F8121084F850C098
:1021F0000F4984F81FE084F88C7084F88D6084F8AF
:102200008E0084F88F3084F8202084F8212084F810
:102210009520A4F84480C4F88810A4F8423063657F
:1022200084F89430BDE8F081AC050300B0050300EC
:1022300080C3C901F8B50446FEF702FE184A194BDF
:102240001068C4F8060003CB02271E8827710423F8
:10225000C4F80E000627E682C4F812100126CD202D
:10226000CF21D22284F8503000230F4DE7774FF072
:102270000B0E84F8206084F88C0084F88D1084F8AC
:102280008E2084F88F30C4F89330A4F844E0C4F86A
:102290008850A4F84230636584F89930E366F8BD4D
:1022A000C0050300C405030080C3C901F8B5184D7B
:1022B0000446FEF7C5FD174B2868C4F8060003CB9B
:1022C000AD881B8865810225012204272571C4F889
:1022D0000E000625E382CD200023C4F81210DA2177
:1022E0004FF0470E052684F85070E57784F88C008F
:1022F00084F88D1084F88E3084F88F3084F8202094
:1023000084F82120A4F844E06665A4F84230F8BDC2
:10231000D4050300D0050300F8B50446FEF790FD90
:10232000164B174D1868C4F806000FCD022626710B
:102330000427C4F80E000726C4F81210CD20C4F8F4
:102340001620CF210122C4F81A30002340F22B1EA0
:1023500084F85070E67784F88C0084F88D1084F847
:102360008E3084F88F3084F8202084F82120A4F85F
:1023700044E0A4F842306365F8BD00BFDC0503000B
:10238000E0050300F8B50446FEF75AFD154A164B62
:102390001068C4F8060003CB022301220427CD26CF
:1023A0002371CF2500234FF0630C4FF0050EC4F8C6
:1023B0000E00C4F8121084F8507084F88C6084F811
:1023C0008D5084F8283084F88E3084F88F30E2778E
:1023D00084F82020A4F844C0C4F854E0A4F84230A3
:1023E000F8BD00BFF0050300F4050300F8B5194E71
:1023F0000446FEF725FD184B3068C4F8060007CBED
:1024000036791B88A672022626710427C4F80E00AE
:1024100001266383CD200023C4F81210C4F81620CF
:10242000CF2105224FF0310E84F8507084F82060DF
:1024300084F88C0084F88D1084F88E3084F88F3006
:10244000E277A4F844E0A4F8423084F83231E3663D
:102450006265F8BDFC05030004060300F8B5224ED2
:102460000446FEF7EDFC214B3068C4F8060007CBAC
:10247000B3F800C093F802E0B688668102232371A6
:1024800003230025C4F80E00C4F81210C4F8162067
:10249000CD20CF21D12284F8933040F27F17012341
:1024A000042684F88C0084F88D1084F88E20A4F81B
:1024B0001AC084F81CE0A4F8447084F85060A4F8B2
:1024C0004250656584F88F50E37784F8203084F8B3
:1024D0002130294604F194005D222AF0D9FA84F8CB
:1024E000F25084F8F350F8BD140603001C060300F4
:1024F000F8B5224D0446FEF7A3FC214B2868C4F82A
:10250000060007CBAD8865810225C4F80E00C4F82B
:102510001210C4F816201121257104F1300028F0A2
:1025200043FA042384F8503000210123154A164849
:1025300061654FF0CD0ED127D22684F88F1084F834
:10254000203084F82130E57784F88CE084F88D70B1
:1025500084F88E60C4F8882002680C4B84F89310CD
:1025600042F400727F21A4F8441002601A6822F03D
:1025700010021A601A682A431A60F8BD2C0603007C
:102580003406030080C3C9013C800440009002402F
:10259000F8B52D4D0446FEF753FC2C4B2868C4F8C3
:1025A000060007CB2D792A4BA57204260025C4F816
:1025B0000E00C4F8121002204FF09E0CC4F8162032
:1025C0004FF0050ED7220127CD2184F893502071BA
:1025D000A4F84250E07784F88E5084F88F5084F845
:1025E0008D2084F8946084F850601A4DA4F844C09B
:1025F000C4F854E084F8207084F88C1003F6187046
:102600000B2201E013F81C2C511E1C3312B16A5C22
:1026100001326A548342F5D1292240F20D130E4D46
:102620000E4E4FF6FF7001E016F8122025F812301A
:10263000591E8BB28342C3EBC302F5D1002384F849
:102640006E31C4F87C31F8BD400603004806030033
:10265000A1680300746B0020C0480020848303003D
:10266000F8B5234E234C0546FEF7EAFB224B3068B3
:10267000C5F8060007CB36791F78AE72C5F80E0094
:102680000226042040F28F1CAF76C5F812104FF0DE
:10269000090EC5F81620CD270022D02185F850005C
:1026A000A5F8422085F8932085F894206A6585F87E
:1026B0008E2085F88F20114B2E71EE77A5F844C03F
:1026C0000F4885F820E085F88C7085F88D100C2275
:1026D00001E013F8182C511E183312B1425C01327C
:1026E0004254A342F5D1002385F85130F8BD00BF14
:1026F000540603005FFF03005C0603002FED030098
:1027000054640020F0B5C1F38705194C013584FBF2
:102710000534EB178DB0C3EBA4040E4617462146D3
:102720000A22684628F0BEF9694608A828F088F908
:1027300004EB84010A22A5EB410104A828F0B2F9B8
:1027400004A908A828F08AFA06F00301413128F00C
:102750009BFA0146384628F04BFA04A828F01CF9E9
:1027600008A828F019F9684628F016F90DB0F0BD50
:102770006766666670B5232901F0030588B00C46CC
:10278000164605F141051CD904A8462128F09EF9FA
:10279000A1080A220839684628F084F9694604A885
:1027A00028F05CFA294628F06FFA0146304628F0F6
:1027B0001FFA684628F0F0F804A828F0EDF808B0F1
:1027C00070BD89080A220131684628F06BF9694614
:1027D00004A828F035F9294604A828F055FA01463E
:1027E000304628F005FA04A828F0D6F8684628F004
:1027F000D3F808B070BD00BFF0B590F84D3089B087
:10280000044616460D46DBB9B0F84830002B3BD1E4
:102810000A22684628F046F9694604A828F010F90B
:1028200004A82A4928F022FA0146304628F0E0F9A7
:1028300004A828F0B1F8684628F0AEF809B0F0BD59
:1028400001F00307232907F141072ED9462104A8E7
:1028500028F03CF9B4F848100A220839684628F0F4
:1028600021F9694604A828F0F9F9394628F00CFA4C
:102870000146304628F0BCF9684628F08DF804A8D7
:1028800028F08AF809B0F0BD04A8462128F01EF906
:1028900029460A22684628F005F9694604A828F066
:1028A000DDF90A4928F0E2F9E2E7B0F848100A2217
:1028B0000131684628F0F6F8694604A828F0C0F807
:1028C000394604A828F0E0F9AEE700BF2C05030064
:1028D00030B500EB410089B0B0F8943015460131B5
:1028E0000A2268465C1028F0DDF8694604A828F042
:1028F000A7F804A83A2128F0C7F9E3B2094903EB85
:10290000C30301EB430128F0B1F90146284628F042
:102910006FF904A828F040F8684628F03DF809B09F
:1029200030BD00BFC041030030B500EB410089B0AD
:10293000B0F89430154601310A2268465C1028F040
:10294000B1F8694604A828F07BF804A83A2128F0D9
:102950009BF9E3B2094903EB830301EB83010231E5
:1029600028F084F90146284628F042F904A828F006
:1029700013F8684628F010F809B030BD5CDA0200A0
:1029800010B5034C206829F049FD0023236010BDD9
:10299000F866002010B5044627F09EFF204610BDC3
:1029A0000B290ED9A1F117030A2B07D9A1F1220394
:1029B0001F2B9ABF1E31C8B2002070470239C8B21F
:1029C00070470131C8B2704770B505460C460AB968
:1029D00090F86A20012A32D0022A11D004EBC403F5
:1029E00004EB4304A400174A04F11C032C341344E1
:1029F0002021224403F8011F9342FBD1012070BD26
:102A00000A21104E104A4C2303FB0463284683F826
:102A10003C102B68D3F8C43093420ED1FFF7C0FFAF
:102A20004C2303FB0463214683F830002B682846BF
:102A3000D3F8D4309847002070BD9847F0E70821BC
:102A4000DFE700BF1CA0FF1FA129000030B590F8F0
:102A50004D3085B00D461446A3B190F84810413171
:102A6000C9B2104628F0D6F80A222946684628F04E
:102A700019F86946204628F0BBF8684627F08CFF15
:102A800005B030BD41311046C9B228F0C3F8204628
:102A9000024928F0B1F805B030BD00BF2C05030095
:102AA00010B584B00A220C460146684627F0FAFFAA
:102AB0006946204628F09CF8684627F06DFF04B070
:102AC00010BD00BF542905D8012A18460CD008496A
:102AD00028F092B85C2903D91846064928F08CB82A
:102AE00019461046FFF7DCBF034928F085B800BF40
:102AF00054050300140E0300000B030010B40D4A2C
:102B00000D4B92790D4C03FB01F100FB02F091FBA0
:102B1000F0F14B1EA34209D8C1EB01118900013924
:102B2000232903D9064B1B6803B119605DF8044BD8
:102B3000704700BF445B0020008793034744440470
:102B4000845B002090F8A13013B190F8A01001B977
:102B500070471846FFF7D2BF00EB800000EB800003
:102B600001F01F0108440A4B33F8100078B1094AFC
:102B700002EB400030F8E83C012043B102EB430394
:102B8000013033F8E83CC0B2002BF7D170477047F2
:102B90000002FF1FE834FF1F30B590F84D308DB0B4
:102BA000144613B30D460A22B0F84810684627F0C1
:102BB00079FF694608A827F043FF0A22294604A89E
:102BC00027F070FF04A908A828F048F8014620461D
:102BD00028F00EF804A827F0DFFE08A827F0DCFE96
:102BE000684627F0D9FE0DB030BD0A2208A827F0AC
:102BF00059FF08A904A827F023FF04A8074928F0D3
:102C000035F80146204627F0F3FF04A827F0C4FE5C
:102C100008A827F0C1FE0DB030BD00BF2C05030091
:102C200070B590F84D308CB00E4615463BB3044657
:102C3000502104A827F04AFFB4F848100A22684639
:102C400027F030FF694604A828F008F80A22044655
:102C5000314608A827F026FF08A9204627F0FEFFE6
:102C60000146284627F0C4FF08A827F095FE6846CD
:102C700027F092FE04A827F08FFE0CB070BD04A8C8
:102C8000502127F023FF0A22314608A827F00AFF27
:102C900008A904A827F0E2FF074927F0E7FF01464B
:102CA000284627F0A5FF08A827F076FE04A827F0FD
:102CB00073FE0CB070BD00BF2C05030030B50729B2
:102CC00089B0154605D910460F4927F095FF09B080
:102CD00030BD0C4668460D4927F09EFE0A22611C55
:102CE00004A827F0DFFE04A9684627F0B7FF0146D5
:102CF000284627F07DFF04A827F04EFE684627F0FF
:102D00004BFE09B030BD00BF040503006C06030094
:102D100030B5072989B0154605D910460F4927F067
:102D20006BFF09B030BD0C4668460D4927F074FEB4
:102D30000A22611C04A827F0B5FE04A9684627F002
:102D40008DFF0146284627F053FF04A827F024FEF4
:102D5000684627F021FE09B030BD00BF040503001E
:102D60006405030030B590F84D308DB014462BB398
:102D70000D460A22B0F84810684627F093FE6946CF
:102D800008A827F05DFE0A22294604A827F08AFE3B
:102D900004A908A827F062FF144927F067FF01463D
:102DA000204627F025FF04A827F0F6FD08A827F005
:102DB000F3FD684627F0F0FD0DB030BD0A2208A8EB
:102DC00027F070FE08A904A827F03AFE04A80849D5
:102DD00027F04CFF0146204627F00AFF04A827F001
:102DE000DBFD08A827F0D8FD0DB030BD2C05030091
:102DF00074060300F0B516468DB000294DD00829A1
:102E00000C4631D9284D2949093C85FB0435A5EBF1
:102E1000E475684627F000FE0A22294604A827F038
:102E200041FE04A9684627F019FF214927F01EFF3B
:102E300005EB4505611B0A220746013108A827F06A
:102E400031FE08A9384627F009FF0146304627F031
:102E5000CFFE08A827F0A0FD04A827F09DFD684636
:102E600027F09AFD0DB0F0BD08A8124927F0D4FD57
:102E70000A22214604A827F015FE04A908A827F075
:102E8000EDFE0146304627F0B3FE04A827F084FD8E
:102E900008A827F081FD0DB0F0BD1046064927F0C7
:102EA000ABFE0DB0F0BD00BF565555553C050300B7
:102EB000A00D03004C0503007806030030B589B06F
:102EC00005460C4604A80B4927F0A6FD294668468E
:102ED00027F0D4FD694604A827F0C0FE014620462D
:102EE00027F026FE684627F057FD04A827F054FD7A
:102EF00009B030BD7C0603004BB2002B084602DD52
:102F00001146FFF7DBBF1046014927F021BE00BF85
:102F1000DC0403000F290B4609D95F2903D91046A9
:102F2000064927F015BE11461846FFF7C7BF0449EA
:102F3000104601EB031127F00BBE00BFDC040300B9
:102F400030FF030030B54B1E072B89B00C461546E9
:102F500029D909293FD00A2942D00B2945D00C296B
:102F600048D0A1F10D03722B05D91046244927F052
:102F7000EFFD09B030BD6846224927F04DFD2146DE
:102F800004A827F07BFD04A9684627F067FE0146E8
:102F9000284627F0CDFD04A827F0FEFC684627F060
:102FA000FBFC09B030BD04A8174927F035FD2146C8
:102FB000684627F063FD694604A827F04FFE0146E6
:102FC000284627F0B5FD684627F0E6FC04A827F060
:102FD000E3FC09B030BD10460C4927F0B9FDC8E745
:102FE00010460B4927F0B4FDC3E71046094927F006
:102FF000AFFDBEE71046084927F0AAFDB9E700BFBC
:10300000DC0403007C060300800603008C0603003A
:1030100098060300A8060300B406030030B589B083
:1030200005460C4604A80D4927F0F6FC0A22691C47
:10303000684627F037FD694604A827F00FFE0849C7
:1030400027F014FE0146204627F072FD684627F05F
:10305000A3FC04A827F0A0FC09B030BDC4060300FF
:10306000C8060300034B1B78032B02D8024B012236
:103070001A707047ACE1FF1F90E0FF1F2DE9F0418F
:10308000204F4C2404FB00748846617A06291646BA
:1030900020D0FF2918D049B11B4B618E53F828006E
:1030A0000368BDE8F041D3F8803018473C21104652
:1030B00027F0B0FD144B618E53F8280003683246A8
:1030C000DB6FBDE8F041184710461049BDE8F041FC
:1030D00027F092BDE37A05467BB9104627F09AFDAA
:1030E000094B53F828004C2202FB05750368698ED2
:1030F000DB6F3246BDE8F04118470521104627F046
:1031000089FDEDE71CA0FF1F447DFF1FCC060300D7
:103110002DE9F04100EB001466001C4B112414FB58
:1031200001661E4402F1100C14464FF00008FF2502
:10313000A31A16F801EF14F8017BBE45DBB204D0E8
:10314000FF2D08BF1D46377098466445F0D1FF2D0E
:1031500003D040B10120BDE8F081B8F1000FF8D1F3
:103160004046BDE8F081144609480A46294621F048
:103170007BFD4545EED8615D05480135EDB221F096
:10318000DFFC4545F7D90120BDE8F08153690020F7
:10319000E469002010B50D4B93F82A30012B14BFC1
:1031A0000B490C4900EB40028B180446885C9A7866
:1031B000597822F071F800210246074822F066F89B
:1031C000054821F08BFF054B1C7010BD445B0020AF
:1031D000887CFF1F047EFF1F10FAFF1F986B0020E2
:1031E000074B084A53F820301278DB7F06499A4291
:1031F000087001D01F2B00D970471846FFF7CABFCF
:10320000447DFF1F986B0020F87DFF1F10B4094B11
:10321000094A19680948137883B083F001030191C2
:10322000019C0749046001201370087003B05DF829
:10323000044B70479C7500207C7DFF1F105B0020B5
:10324000407DFF1F10B5037A0022022B0446427412
:1032500082B0007826D025F087FD08B90123637479
:10326000607825F081FD70B11549637C0968A27C06
:103270000191019961619A421FD08BB90120E274DA
:10328000A37402B010BD237F002BEDD10C4BA27CA8
:103290001B680193019B636102239A4263740CD003
:1032A0000022EBE725F060FD012808BF607460781C
:1032B00025F05AFD0128D7D1E8E7002002B010BD63
:1032C0009C75002030B4416D084D846D82B02B6830
:1032D0000193019B054A1B1B8B42F8D9136800938D
:1032E000009B836502B030BC704700BF9C75002016
:1032F00010B51B4CE3780D2B00D910BD194AE179AC
:1033000052F823000368D3F89C30984708B101387D
:10331000C0B2637A032B1ED8DFE803F01919130239
:1033200002B2114B11496074520083FB02E3A1FB0E
:103330000010A3EBE27340080022E3736073E272B3
:1033400010BD42080023E0736273E37210BD0023D6
:10335000E072637310BD00236073E372CDE700BFBA
:10336000B87EFF1F447DFF1F56555555ABAAAAAA2C
:1033700010B40A4A0A49137809780A4899428CBF5E
:10338000013301231370084A0849002301241370F4
:1033900004700B705DF8044B704700BFABF9FF1F62
:1033A000897DFF1F90E0FF1F694F0020816B002087
:1033B000084A10B402F137048179C37903EBC113D1
:1033C00002F8013F944200F10200F5D15DF8044B90
:1033D000704700BF435B0020144A437912780133E1
:1033E0009A4201D00020704790F89D20FF2A1BD000
:1033F00030B40F4C0F4B10484C2505FB0141A0FB8E
:103400000254498EA3FB01535B08B3EB540F02D067
:10341000012030BC7047A0FB0131B2EB510F0CBF53
:103420000120002030BC704701207047F34C002081
:103430001CA0FF1F398EE338ABAAAAAA0B390529B5
:1034400006D8DFE801F006090C0F120380F86524A6
:10345000704780F86024704780F86324704780F8D4
:103460006124704780F86424704780F862247047B4
:103470000A7ACB7970B412044E7A8C7A0B4D02EB37
:10348000036202EB06232344AB420AD0084A93426C
:1034900005D1CB7A80F89430002380F8533070BC8B
:1034A0007047CB7A80F8933070BC70470030006072
:1034B0000038006030B42E4A90F8A5401A2303FB70
:1034C000012334BBDB88512B36D0522B37D01D045F
:1034D00044BFC3F30E0343F4803303F180531A2532
:1034E00005FB01214A7E8AB102F00F01084402F077
:1034F000F002102A90F89D1027D0202A06D14CBB4C
:10350000042931D0052901D103F20123184630BC2A
:1035100070471B89512B0CD0522B13D01D0444BF74
:10352000C3F30E0343F4803303F1805303F50033F8
:10353000D5E7104830BC70470F4830BC70470F4883
:1035400030BC70470E4830BC70470129DED103F211
:103550000620EFE7042904D00529D7D103F5FA7036
:10356000E8E703F1F200E5E703F581731846CEE7DB
:10357000745103003F1008003F10010021100100AA
:1035800021100800184B10B4A3FB0123DB08DCB2A8
:10359000021903EB830390F8A50092F89E20A1EB9B
:1035A00043039BB288B1022A84BF0532D2B202EB38
:1035B000820203EB42030D490D4A31F8230052F811
:1035C00024305DF8044B1844704702EB820203EB91
:1035D00042030649074A31F8230052F824305DF8C7
:1035E000044B1844704700BFCDCCCCCCD0F90200BE
:1035F00080EB020078C50300F0B590F84E609DF8AE
:10360000145026B190F82170AF42044600D0F0BDAE
:1036100090F820509D42FAD13C2924D0DFF860C0B8
:1036200016489CF800E000239C341F463E2506E027
:103630000133092B04F1010410D010F80A5CA942EF
:1036400000F10A00F4D10BB104F8092C151C18BFC5
:10365000012537464FF0020E2570E9E7002FD6D03E
:103660008CF800E0F0BD838C92B29342CFD0016819
:10367000C38482848B6CBDE8F0401847B4C2030059
:10368000F04C0020044B82B01B680193019B03F5B2
:10369000FA73C36602B070479C75002038B5134DAD
:1036A0002B680446D3B100210D4618464FF407722B
:1036B00029F0EEF9204684F8975084F89850FFF7E7
:1036C000E1FF0B4A236815709B6C20469847094A16
:1036D00002210123117084F86A3038BD4FF407705D
:1036E00028F094FE28600346DDE700BFF86600205E
:1036F000887DFF1FF04C002030B490F84E409DF8BC
:1037000008501CB190F82140AC4201D030BC704749
:1037100090F820409C42F9D1A1B10C4B933003F2B8
:103720003B15502405E0AB4200F10100EED013F848
:10373000154CA14203F11503F5D1141C18BF012447
:103740000470F0E780F84C20E0E700BF823203000D
:1037500030B4C1EBC101674B90F8944089005A180E
:10376000957EA54217D890F89350BDB1538803F4C5
:103770007042B2F5104F00F08A8051D9B2F5304F47
:103780005BD0B2F5404F00F0A280B2F5204F6ED072
:1037900003F1C04000E0002030BC70475B5A03F4E6
:1037A0007042B2F5104F00F0958016D9B2F5304F47
:1037B00043D0B2F5404F5DD0B2F5204FE8D14E4D29
:1037C0004E4990F86D21002A5CD0022C5AD9012A6A
:1037D000E1D103F00F035819DEE7B2F5E04F3ED018
:1037E000B2F5004FD4D190F86A21454C34F832102C
:1037F000D200224403F00F0093799842CBDA0844B8
:1038000080B2020604D547F67F73034003F580704B
:10381000002D6BD1B0F5127F57D000F1C040BBE74F
:10382000B2F5E04F1BD0B2F5004FB1D190F86A214C
:10383000334CD200A1188988DBE790F86F21314919
:1038400002EB420252008C1803F00F0023799842D9
:10385000A1DA3DB1638803F1C04318449CE7C3F388
:103860000B0099E78B5A03F1C043184494E7264DA7
:103870002649A6E74FF4886540F2334190F86E215F
:10388000002AA2D103F00F00084430BC704790F822
:103890006C211B4CD1006218928802F5007292B222
:1038A000214403F07F008B799842BFF674AF104437
:1038B00080B2030604D547F67F73034003F580709A
:1038C0007DB940F254439842A7D1114864E71E25C0
:1038D0001321D3E790F86C21094CD100621852886B
:1038E000DEE7B0F5577F98D10A4855E7B0F5AE7FCF
:1038F00093D1F9E76C6803000511006031010060A5
:1039000008A80300308103004D0000604200006001
:10391000180700607105006090F89330DBB1254B0B
:10392000C1EBC10103EB81014B8803F47042B2F596
:10393000204F1AD020D8B2F5004F35D0B2F5104F35
:1039400027D190F86C111C4A32F8110003F00F03D4
:10395000184480B27047C1EBC101164B33F82130D7
:1039600003F47042B2F5204FE4D190F86D21012AA2
:1039700014BF07212921E6E7B2F5304F0CD0B2F58C
:10398000404F06D190F86E21012A14BF072129214A
:10399000D9E74FF6FF70704790F86F213AB1012ACE
:1039A00014BF25212821CEE790F86A11CBE7022128
:1039B000C9E700BF6C680300C048002089291DD8F2
:1039C000F8B5CE001C4D90F89470721A05EB820287
:1039D000927EBA4210D80C46FFF79EFF4FF6FF7357
:1039E00098420DD0B0F5877F06D2144BC0EBC000D3
:1039F00003EB40004078F8BD0020F8BD0020704780
:103A0000282C0ED0182C06D0472C04D0341B05EBE4
:103A100084052879F8BD012F07D9022F07D1252069
:103A2000F8BD022FF2D91A20F8BD2420F8BD032FCB
:103A3000ECD12720F8BD00BF6C680300848303002D
:103A40008929F8B50C461746064615D9164996F841
:103A50009430C4EBC40401EB84018A7E9A4205D8F9
:103A600038460531BDE8F84027F0C6B838460F495A
:103A7000BDE8F84027F0C0B8FFF74EFF4FF6FF73E0
:103A800098420546E2D0E1B23046FFF761FE0028D9
:103A9000ECD00749C5EBC50501EB450138460231BD
:103AA000BDE8F84027F0A8B86C68030004050300DF
:103AB000848303004A7A0B7A70B412048E7ACC7A2B
:103AC0000B4D02EB036202EB06232344AB420AD008
:103AD000084A934205D10B7B80F89430002380F88C
:103AE000533070BC70470B7B80F8933070BC7047CC
:103AF00000100020040800200A7ACB7970B4120468
:103B00004E7A8C7A134D02EB036202EB06232344B8
:103B1000AB420FD0104A934207D0104A93420ED1C5
:103B2000CB7A80F8963070BC7047CB7A80F89530AD
:103B300070BC7047CB7A80F8943070BC7047084AEC
:103B40009342F0D1CB7A80F89730002380F853303D
:103B500070BC704703200018032100180A100018D9
:103B600032020018094B93F82D20042A00D0704728
:103B700090F85220002AFAD190F851100029F6D07E
:103B8000016880F85120CB6B184700BF445B0020D0
:103B90000E4A4379127801339A4201D000207047CF
:103BA00090F8A430FF2B08D0094A4C2000FB0121DB
:103BB0004A8ED108B1EB530F01D001207047B3EB0F
:103BC000920F0CBF01200020704700BFF34C002073
:103BD0001CA0FF1F0E4A4379127801339A4201D08C
:103BE0000020704790F89430FF2B08D0094A4C20F1
:103BF00000FB01214A8ED108B1EB530F01D0012007
:103C00007047B3EB920F0CBF01200020704700BF3C
:103C1000F34C00201CA0FF1F0E4A43791278013399
:103C20009A4201D00020704790F8A530FF2B08D0B1
:103C3000094A4C2000FB01214A8ED108B1EB530FF9
:103C400001D001207047B3EB920F0CBF0120002080
:103C5000704700BFF34C00201CA0FF1FF0B590F888
:103C60004D300F4691B005461646B0F84810002B6F
:103C700039D02E4CA4FB01310A22C90808A826F02D
:103C800011FF08A90CA826F0DBFEB5F84810A4FB2C
:103C90000134E40804EB8404A1EB44010A2289B254
:103CA00004A826F0FFFE04A90CA826F0D7FF0A22DC
:103CB00004463946684626F0F5FE6946204626F059
:103CC000CDFF0146304626F093FF684626F064FE9D
:103CD00004A826F061FE0CA826F05EFE08A826F0D7
:103CE0005BFE11B0F0BD0A2204A826F0DBFE04A999
:103CF0000CA826F0A5FE0A22394608A826F0D2FE16
:103D000008A90CA826F0AAFF094926F0AFFF014632
:103D1000304626F06DFF08A826F03EFE0CA826F0DF
:103D20003BFE04A826F038FE11B0F0BDCDCCCCCCC3
:103D30002C050300F0B590F84D300F4691B00546C4
:103D40001646B0F84810002B39D02E4CA4FB013198
:103D50000A22C90808A826F0A5FE08A90CA826F082
:103D60006FFEB5F84810A4FB0134E40804EB8404AA
:103D7000A1EB44010A2289B204A826F093FE04A90B
:103D80000CA826F06BFF0A2204463946684626F046
:103D900089FE6946204626F061FF0146304626F03E
:103DA00027FF684626F0F8FD04A826F0F5FD0CA8CC
:103DB00026F0F2FD08A826F0EFFD11B0F0BD0A22B2
:103DC00004A826F06FFE04A90CA826F039FE0A22EA
:103DD000394608A826F066FE08A90CA826F03EFF82
:103DE000094926F043FF0146304626F001FF08A8A6
:103DF00026F0D2FD0CA826F0CFFD04A826F0CCFDBD
:103E000011B0F0BDCDCCCCCC2C05030070B590F832
:103E10004D308CB00E46154653B30446552108A8C4
:103E200026F054FEB4F848100A2204A826F03AFE00
:103E300004A908A826F012FF0A2204463146684663
:103E400026F030FE6946204626F008FF164926F087
:103E50000DFF0146284626F0CBFE684626F09CFD65
:103E600004A826F099FD08A826F096FD0CB070BDB8
:103E700008A8552126F02AFE0A22314604A826F079
:103E800011FE04A908A826F0E9FE084926F0EEFE76
:103E90000146284626F0ACFE04A826F07DFD08A8C1
:103EA00026F07AFD0CB070BD340503003005030028
:103EB0005C2920D8542938B513D915460C46811DE4
:103EC000104626F099FE2021284626F0A3FE0A4B34
:103ED000C4EBC401284603EB4101BDE8384026F09D
:103EE0008BBE054BC1EBC10103EB41011046BDE8A0
:103EF000384026F081BE7047F4EB020090F869303C
:103F000003B9704730B50D46044685B02D212846CB
:103F100026F080FE94F86910684626F0AFFD6946E9
:103F2000284626F065FE684626F036FD05B030BD11
:103F300090F84E2080F8512002B970470268818CB9
:103F4000536C184790F84D309BB1B0F8483003B926
:103F5000E9B1B0F84420B0F8420003EB8303121A31
:103F600001EB4301531CB3EB810FACBF01200020D8
:103F70007047B0F84430B0F842209B1A01EB810141
:103F80000133B3EBC10FACBF0120002070470846DE
:103F9000704700BF38B590F84E501DB190F82150D1
:103FA0009D4200D038BD90F820309342FAD1838CE6
:103FB00089B28B42F6D090F84C500268C38401EB72
:103FC000C511936C81849847014B02221A70E9E76E
:103FD000F04C002038B590F821509D4200D038BDFB
:103FE00090F820309342FAD1838C89B28B42F6D07C
:103FF0000268C3848184936C9847024B02221A7032
:10400000EDE700BFF04C002090F86A3093B1013327
:10401000DBB2032B88BF012380F86A30036810B538
:10402000D3F8E8300C469847034A044B1470012239
:104030001A7010BD704700BFACE1FF1FF04C0020AC
:1040400090F84D3063B1B0F84820B0F8423003EB3F
:10405000C200084480B200B97047013880B270478E
:10406000B0F84830B0F8420003EB830301EB4301A2
:1040700000EBC10188B2704790F84D306BB1B0F8D9
:10408000483023B908298CBF002001207047481E02
:1040900007288CBF002001207047B0F8483010B4CA
:1040A000C3EB0313B0F84440B0F842005A000323B6
:1040B000201A13FB01218142CCBF002001205DF8B2
:1040C000044B704710B590F821409C4200D010BDC1
:1040D00090F820309342FAD1042915D0032996BFD5
:1040E000013189B2C9B2838C8B42F0D00268C3849B
:1040F0000446136D81849847236820469B6C98473B
:10410000024B02221A70E2E70021ECE7F04C00209B
:1041100030B490F8953063B390F84D302BB1B0F8CF
:104120004830B3B9A9B9084611E0B0F84850B0F822
:104130004430B0F842404FF4FA7202FB05F03222EC
:1041400012FB01011B1B9942CCBF0020012030BC97
:104150007047B0F84420B0F84200322401EB8101EE
:10416000101A04FB03118142CCBF0020012030BC97
:104170007047012030BC704703790022022B80F881
:104180004F2000D0704790F84E30002BFAD1012319
:1041900080F8211080F89330704700BF38B590F850
:1041A00021509D4200D038BD90F820309342FAD182
:1041B000838C89B28B42F6D00268C3848184936C6D
:1041C0009847024B02221A70EDE700BFF04C002026
:1041D00090F84D3093B1B0F8483003B9D9B1B0F888
:1041E0004420B0F8420003EB830301EB4301131AB0
:1041F000B3EB810FACBF012000207047B0F8443012
:10420000B0F8422001EB81019B1AB3EBC10FACBFA8
:104210000120002070470846704700BF90F89820A2
:1042200002B9704703685B6F184700BF38B590F854
:1042300021509D4200D038BD90F820309342FAD1F1
:1042400090F84C20838C01EBC2119942F3D00268A4
:10425000C3848184936C9847014B02221A70EAE769
:10426000F04C00200379022B01D008467047002350
:1042700070B41A4600F1930403E00132D2B25D2B10
:104280000AD014F8015FDEB20133002DF7D091425D
:10429000F3D1B0B270BC70474FF6FF7070BC70477E
:1042A00090F84D3083B1B0F8483090F8280003EB17
:1042B000830301EB430189B281422CBFC0EB0100B3
:1042C000C0EB000080B27047B0F8480001EB8101FC
:1042D00000EB8000490000EB800001EB800080B221
:1042E000704700BF90F84D3073B9B0F84820B0F86F
:1042F0004400642303FB02F20A2313FB01218142E1
:10430000CCBF0020012070470120704730B490F8E6
:1043100021509D4201D030BC704790F8203093422C
:10432000F9D1838C89B28B42F5D00268C384818431
:10433000936C30BC184700BFA1F10B03032B0DD9C0
:104340000368084AD3F89830934210B50C4607D159
:104350001220844234BF0220002010BD802070470C
:104360009847F6E72508000030B503680F4DD3F8ED
:104370009830AB4283B00C4614D15D20A04206D8E1
:104380000B49104603B0BDE8304026F0E1BB0949B7
:10439000C4EBC404104601EB440103B0BDE8304057
:1043A00026F0D6BB01929847019AE7E74506000040
:1043B000140E0300F4EB020030B50368104DD3F87F
:1043C0009830AB4283B00C4615D10820A04206D8E5
:1043D0000C49104603B0BDE8304026F0B9BB04EBF1
:1043E0008403094904EB43041046214403B0BDE8AB
:1043F000304026F0ADBB01929847019AE6E700BF36
:1044000075060000140E03000EE8030003680B4A53
:10441000D3F89830934205D1082088428CBF0220FF
:104420000020704700B583B00191984701998842F8
:104430008CBF0220002003B05DF804FB750600006D
:1044400030B504680F4DD4F89840AC4285B012D115
:1044500008208842184608D9012A0CBF0A490B498E
:1044600005B0BDE8304026F0C7BB094905B0BDE83E
:10447000304026F0C1BB039302920191A04701A9ED
:104480000EC9E6E775060000000B030054050300A3
:10449000140E030030B50368104DD3F89830AB42CA
:1044A00083B00C4615D12F20A04206D80C491046E7
:1044B00003B0BDE8304026F04BBB0A4904EB44048E
:1044C00001EBC4011046093103B0BDE8304026F0CD
:1044D0003FBB01929847019AE6E700BF79060000CA
:1044E000140E030050110300F0B504683B4FD4F8DC
:1044F0009850BD428BB016461C462FD12F208842C3
:1045000026D9374801EB410100EBC101898A0BB282
:10451000002B4BDD47F61643994223D047F617434D
:1045200099424CD047F61543994221D08A19013A55
:104530002C4902EBC202114406A826F06DFA06A926
:10454000204626F055FB06A826F026FA0BB0F0BD53
:104550002046254926F050FB0BB0F0BD0191A8473D
:104560000199CCE7710006A80A2226F09BFAE6E73B
:104570003F2E26D9402E2BD0EED91C4906A826F076
:104580004BFAA6F132010A2202A826F08BFA02A900
:1045900006A826F063FB0146204626F029FB02A868
:1045A00026F0FAF906A826F0F7F9D5E7012E2046FD
:1045B0000CBF0F490F4926F01FFB0BB0F0BD314671
:1045C000D1E70D4906A826F027FAC6F13201DAE74D
:1045D00020460A4926F010FBBEE700BF790600001E
:1045E000501103000CF10200140E0300000D030033
:1045F000000B0300540503004805030050050300A9
:1046000030B50368104DD3F89830AB4283B00C46F8
:1046100015D12E20A04206D80C49104603B0BDE8A3
:10462000304026F095BA0A4904EB440401EBC4017A
:104630001046093103B0BDE8304026F089BA019236
:104640009847019AE6E700BFFD060000140E03003C
:10465000FCAA0300F0B50468394FD4F89850BD4265
:104660008BB016461C4628D12E2088421FD93548CB
:1046700001EB410100EBC101898A0BB2002B49DD3E
:1046800047F6154399421CD03AD347F6174399424F
:1046900036D8314606A80A2226F004FA06A9204692
:1046A00026F0A6FA06A826F077F90BB0F0BD204652
:1046B000254926F0A1FA0BB0F0BD0191A847019958
:1046C000D3E73F2E2FD9402E34D0F4D91F4906A866
:1046D00026F0A2F9A6F132010A2202A826F0E2F998
:1046E00002A906A826F0BAFA0146204626F080FA6A
:1046F00002A826F051F906A826F04EF90BB0F0BD3D
:104700008A19013A124902EBC202114406A826F0A6
:1047100083F9C3E7012E20460CBF0E490E4926F04F
:104720006BFA0BB0F0BD0D4906A826F075F9C6F17D
:104730003201D1E720460A4926F05EFABBE700BF06
:10474000FD060000FCAA0300140E0300000D030088
:10475000B8340300000B03005405030048050300B0
:104760005005030030B50368104DD3F89830AB42C4
:1047700083B00C4615D11020A04206D80C49104633
:1047800003B0BDE8304026F0E3B904EB4403094927
:1047900004EB83041046214403B0BDE8304026F00A
:1047A000D7B901929847019AE6E700BF390900009E
:1047B000140E0300B4C0030030B504680E4DD4F8E5
:1047C0009840AC4285B010D11020884206D80B49E1
:1047D000184605B0BDE8304026F00EBA194610461E
:1047E00005B0BDE83040FEF75BB90393029201913A
:1047F000A04701A90EC9E8E739090000D406030063
:1048000010B503680F4CD3F89830A34282B012D190
:104810001220884206D80C49104602B0BDE810406C
:1048200026F096B9094B104603EB011102B0BDE822
:10483000104026F08DB98DE8060098479DE80600E7
:10484000E7E700BF25080000140E030064EA030038
:1048500030B504680E4DD4F89840AC4285B010D104
:104860001220884206D80B49184605B0BDE83040F2
:1048700026F0C2B91946104605B0BDE83040FEF733
:104880000FB9039302920191A04701A90EC9E8E76D
:1048900025080000D4060300F8B50368444DD3F89A
:1048A0009830AB4206460C46174659D18A20A042A2
:1048B00043D9892C56D821463046FFF72DF84FF6BC
:1048C000FF73984205464DD096F8933023B3394B89
:1048D000C4EBC40403EB8404638803F47043B3F5AE
:1048E000204F23D02FD8B3F5004F4ED0B3F5104F43
:1048F00059D13149384626F02BF996F86C212F49C9
:10490000C5EBC5056D004B5D934245D038462C493B
:10491000BDE8F84026F070B9C4EBC404254B33F869
:10492000243003F47043B3F5204FDBD196F86D319A
:10493000012B14BF07222922E1E738462149BDE8AF
:10494000F84026F005B9B3F5304F16D0B3F5404F17
:1049500029D196F86E31012B14BF07222922CEE708
:104960009847A4E7134BC4EBC40403EB8401384617
:104970000531BDE8F84026F0EBB896F86F31A3B1E9
:10498000012B0CBF28222522B9E70F49384626F013
:10499000DFF896F86A21B2E7294438460231BDE8CB
:1049A000F84026F029B90022A9E70222A7E700BFB4
:1049B000CD0800006C6803006805030084830300D1
:1049C00004050300140E0300D80603002DE9F0418E
:1049D0000468DFF8B4E2D4F89880F04588B0074660
:1049E0000C4615461E462ED18A20A04224D9892C79
:1049F0002BD838462146FEF78FFF4FF6FF739842BB
:104A000023D0904BC0EBC00003EB4000828913B26F
:104A1000002B23DDA2F5F8430E3B092B00F2E780C3
:104A2000DFE813F035005400AC007C008100560034
:104A30006B00C100E00026003046834926F0DCF818
:104A400008B0BDE8F081C047CFE7804BC4EBC40499
:104A500003EB8404E28A13B2002BDBDC012D304629
:104A60000CBF7B497B4926F0C7F808B0BDE8F08150
:104A7000294604A80A2226F015F804A9304626F093
:104A8000B7F804A825F088FF08B0BDE8F081182D1C
:104A900000F2C380A5F1180101EBD1710A2249107F
:104AA00004A825F0FFFF04A9304626F0A1F804A8C9
:104AB00025F072FFEB0754BF67496849304626F07E
:104AC0009BF83046664926F097F8B9E7691CD0E7AD
:104AD000142D00F2A7800A22A5F1140104A825F0E4
:104AE000E1FF04A9304626F083F804A825F054FF1E
:104AF00030465B4926F080F8A2E729460A2204A83E
:104B000025F0D0FF04A9304626F072F804A825F05D
:104B100043FF3046534926F06FF891E7182D77D8B8
:104B2000A5F11801A5E701354F4CADB2A4FB053442
:104B3000E4080A22214604A825F0B4FF04A930465F
:104B400026F056F804A825F027FF04EB8404474913
:104B5000304626F051F8A5EB44010A2289B204A898
:104B600025F0A0FF04A9304626F042F804A825F05D
:104B700013FF30463E4926F03FF861E70A226908F4
:104B800004A825F08FFF04A9304626F031F804A8C8
:104B900025F002FF05F001053449304626F02CF8D7
:104BA000A9002944AAE73F2D2BD9402D44D07FF6F8
:104BB00047AF304904A825F02FFFA5F132010A22A2
:104BC000684625F06FFF694604A826F047F80146BD
:104BD000304626F00DF8684625F0DEFE04A825F0E4
:104BE000DBFE2DE7322D22D8A5F1320141E72A4420
:104BF000013A214902EBC202114404A825F00CFF3E
:104C00003BE71E4904A825F007FFC5F13201D6E7AE
:104C10001B49304625F0F0FF82E71949304625F060
:104C2000EBFF37E71649304625F0E6FF53E7144916
:104C3000304625F0E1FFD7E73046124925F0DCFF8A
:104C4000FEE600BF84830300140E03006C680300BB
:104C5000000B030054050300EC060300F0060300FC
:104C6000E8060300E0060300CDCCCCCCA00D030089
:104C7000F4060300000D03004892030048050300FA
:104C8000E406030050050300CD08000030B50368BA
:104C9000104DD3F89830AB4283B00C4615D110209C
:104CA000A04206D80C49104603B0BDE8304025F0BC
:104CB0004FBF04EB44030949C4EBC304104621442D
:104CC00003B0BDE8304025F043BF01929847019AF8
:104CD000E6E700BF39090000140E0300E09C030062
:104CE000F8B5A1F10E05012D1DD91D460368174623
:104CF000D3F89830104A93420C461AD110208442BF
:104D0000284606D2012F09D00C49BDE8F84025F00D
:104D100073BF0B49BDE8F84025F06EBF0949BDE8F7
:104D2000F84025F069BF19461046BDE8F840FDF788
:104D3000B7BE9847E3E700BF39090000F806030053
:104D4000D4060300000B030030B503680F4DD3F801
:104D50009830AB4283B00C4614D10920A04206D84B
:104D60000B49104603B0BDE8304025F0F1BE0949BB
:104D700004EB8404104601EB440103B0BDE830406D
:104D800025F0E6BE01929847019AE7E7F90900008D
:104D9000140E0300A4C2030030B504680E4DD4F80D
:104DA0009840AC4285B010D10920884206D80B4902
:104DB000184605B0BDE8304025F01EBF1946104624
:104DC00005B0BDE83040FDF76BBE03930292019140
:104DD000A04701A90EC9E8E7F9090000D4060300BD
:104DE00010B50368104CD3F89830A34282B015D1A7
:104DF0000F20884206D80D49104602B0BDE8104089
:104E000025F0A6BE0A4B01EB4101C1EBC1011046E2
:104E1000194402B0BDE8104025F09ABE8DE80600A6
:104E200098479DE80600E4E70D0A0000140E030011
:104E30005C32030030B504680E4DD4F89840AC42A3
:104E400085B010D10F20884206D80B49184605B00E
:104E5000BDE8304025F0D0BE1946104605B0BDE88B
:104E60003040FDF71DBE039302920191A04701A9B6
:104E70000EC9E8E70D0A0000D406030030B5036848
:104E80000F4DD3F89830AB4283B00C4614D1632059
:104E9000A04206D80B49104603B0BDE8304025F0CB
:104EA00057BE094B1A2101FB043110460B3103B0E8
:104EB000BDE8304025F04CBE01929847019AE7E7E3
:104EC000C50A0000140E03007451030030B50368D6
:104ED000104DD3F89830AB4283B00C4615D1B020BA
:104EE000A04206D80C49104603B0BDE8304025F07A
:104EF0002FBE0A4904EB440401EBC4011046033100
:104F000003B0BDE8304025F023BE01929847019AD6
:104F1000E6E700BF290B0000140E030000ED0300BC
:104F2000F0B504683A4FD4F89840BC428BB01646AE
:104F30001D462ED1B020884225D9364801EB4101CB
:104F400000EBC101898A0BB2002B4ADD47F61643FC
:104F5000994222D047F6174399424BD047F6154362
:104F6000994220D031442C4B013903EBC10106A8F2
:104F700025F052FD06A9284625F03AFE06A825F0A0
:104F80000BFD0BB0F0BD2846244925F035FE0BB0D3
:104F9000F0BD0191A0470199CDE7710006A80A2252
:104FA00025F080FDE6E7312E26D9322E2BD0EED922
:104FB0001B4906A825F030FDA6F132010A2202A8FD
:104FC00025F070FD02A906A825F048FE01462846F6
:104FD00025F00EFE02A825F0DFFC06A825F0DCFC7B
:104FE000D5E7012E28460CBF0E490F4925F004FED7
:104FF0000BB0F0BD3146D1E70C4906A825F00CFDF9
:10500000C6F13201DAE72846094925F0F5FDBEE789
:10501000290B000000ED030058DF0300140E03000D
:10502000000D0300000B03005405030048050300B6
:105030005005030030B503680D4DD3F89830AB42EE
:1050400083B00C4610D10620A04206D8094910466C
:1050500003B0BDE8304025F07BBD1146204603B0CB
:10506000BDE83040FDF7DABF01929847019AEBE7BF
:10507000ED0B0000140E030003680B4AD3F89830C0
:10508000934205D1062088428CBF02200020704741
:1050900000B583B001919847019988428CBF0220E6
:1050A000002003B05DF804FBED0B000030B5046890
:1050B0000F4DD4F89840AC4285B012D106208842FA
:1050C000184608D9012A0CBF0A490B4905B0BDE8AA
:1050D000304025F091BD094905B0BDE8304025F0CC
:1050E0008BBD039302920191A04701A90EC9E6E787
:1050F000ED0B0000000B030054050300140E030029
:1051000030B503680D4DD3F89830AB4283B00C46F0
:1051100010D10620A04206D80949104603B0BDE8C8
:10512000304025F015BD1146204603B0BDE83040A3
:10513000FDF774BF01929847019AEBE7ED0B000071
:10514000140E030003680B4AD3F89830934205D13C
:10515000062088428CBF02200020704700B583B033
:1051600001919847019988428CBF0220002003B02A
:105170005DF804FBED0B000030B504680F4DD4F86A
:105180009840AC4285B012D106208842184608D912
:10519000012A0CBF0A490B4905B0BDE8304025F093
:1051A0002BBD094905B0BDE8304025F025BD03936E
:1051B00002920191A04701A90EC9E6E7ED0B00009C
:1051C000000B030054050300140E0300A1F10E02AE
:1051D000012A01D8802070470368074AD3F8983025
:1051E000934210B50C4605D11020844234BF0220F2
:1051F000002010BD9847F8E739090000828C8A42E8
:1052000008B503460AD00120DA84998483F8330173
:105210000649074A01230B70137008BD0368054A4D
:105220005B6F9342F4D09847F2E700BF407DFF1FC9
:1052300090E0FF1F090A000010B5838C8B4282B0FA
:10524000044618BFC38409D009480A4AA18401232F
:10525000037084F8A030137002B010BD0368064AD2
:105260005B6F9342F0D0019198470199ECE700BF42
:10527000407DFF1F90E0FF1F090A000030B5838CBE
:105280008B4283B004460AD00A480B4AE3840123C8
:10529000A184037084F8A330137003B030BD02689A
:1052A000064D526FAA42EFD001919047A38C01990D
:1052B000EAE700BF407DFF1F90E0FF1F090A0000E2
:1052C00038B5084C04F1380554F8040F03681B681E
:1052D0009847AC42F8D1044A04490548BDE8384033
:1052E00025F0B0BA407DFF1FBB121300750400000B
:1052F000845B002008B5074A074B11780220002282
:105300001A6023F047FA054B03201978BDE80840DE
:1053100023F040BA387DFF1F08FAFF1FF87DFF1FFA
:1053200000B5074A074B12681B6883B00192019AC7
:10533000934202D20BB1FFF7DDFF03B05DF804FB2F
:105340009C75002008FAFF1F38B50C46054623F06F
:1053500007FA844205D021462846BDE8384023F0AC
:1053600019BA38BD70B584B00C46064625F016FD56
:10537000057AA5420DD2013C651BEDB20135002432
:1053800001342021304625F045FCAC42F8D104B070
:1053900070BD234600226846314625F0D3FC69469D
:1053A000304625F0CDFB684625F0F6FA04B070BD16
:1053B000F0B5057A0F2D85B001D905B0F0BDC5F166
:1053C000100505EBD577C7F34707ED1B06461349D4
:1053D0006846EDB225F020FB00243DB101342021C8
:1053E000684625F017FCE3B2AB42F7D33146684676
:1053F00025F0FEFB47B1002401342021684625F04A
:1054000009FCE3B29F42F7D86946304625F090FB8D
:10541000684625F0C1FA05B0F0BD00BFC80403001E
:105420002DE9F041057A102D28BF102585B16F1E9A
:10543000FFB20D4E8046013700242146404625F03C
:105440005DFC0134BC4206F8010FF6D1102D08D0E6
:10545000064920226B1C4A55DDB2102DFAD1BDE859
:10546000F081BDE8F08100BF6F4F0020704F002039
:105470002DE9F041057A102D28BF102585B16F1E4A
:10548000FFB20D4E8046013700242146404625F0EC
:1054900035FC0134BC4206F8010FF6D1102D08D0BE
:1054A000064920226B1C4A55DDB2102DFAD1BDE809
:1054B000F081BDE8F08100BF835F0020845F0020A1
:1054C000F8B5047A102C064629D8012C1FD8C4F14F
:1054D0001007002F09DD0022124813462021013356
:1054E000DBB2BB4281541A46F9DBD4B1651E0E4BC8
:1054F000EDB201351F4400242146304625F0FEFB65
:105500000134AC4207F8010FF6D1F8BDECB2651ECC
:105510002946304625F0F2FB2028F7D0D7E71024A3
:10552000F5E7F8BD845F0020835F00202DE9F04798
:105530000D7A102D28BF102580465DB300EBC00604
:10554000DFF8589000EB460605F1FF3A09EB8606B6
:105550005FFA8AFA0F460B360AF1010A0024214647
:10556000384625F0BDFB0134037806F8013F544569
:10557000F5D1102D0CD04C2303FB0898202208EB0A
:1055800005030135EDB2102D1A73F8D1BDE8F0878F
:10559000BDE8F087DFF80490EDE700BF1CA0FF1F17
:1055A000F8B5064608460C4627F0AAFEC0B21028F9
:1055B00028BF1020F8B106EBC603104F06EB4303DB
:1055C00007EB8303451E0B3354FA85F5611E11F872
:1055D000012F03F8012FA942F9D110280AD04C233A
:1055E00003FB0676202233180130C0B210281A734C
:1055F000F9D1F8BDF8BD014FF1E700BF1CA0FF1FB6
:10560000F0B5134B134E144D07468E460FCB8DB09D
:105610006C4607C4237096E80F0004AC07C42370DF
:1056200095E80F0008AC07C497F86A20237042B1D0
:10563000012A0CBF04A908A97046FFF7B1FF0DB0FD
:10564000F0BD69467046FFF7ABFF0DB0F0BD00BF7F
:105650001007030020070300300703002DE9F0477F
:10566000DFF87C80DFF87CC0DFF87CE01B4D8246F1
:105670008946B8E80F0094B06F460FC7BCE80F002A
:1056800005AE0FC6BEE80F000AAC0FC4D8F8001074
:10569000DCF80020DEF800302370397032700FCD56
:1056A0000FAC0FC49AF86A302A682270012B0BD015
:1056B000022B0ED0032B0CBF0FA969464846FFF7FB
:1056C0006FFF14B0BDE8F08705A94846FFF768FFF3
:1056D000F7E70AA94846FFF763FFF2E74007030030
:1056E00054070300680703007C0703002DE9F04717
:1056F000DFF87C80DFF87CC0DFF87CE01B4D824661
:105700008946B8E80F0094B06F460FC7BCE80F0099
:1057100005AE0FC6BEE80F000AAC0FC4D8F80010E3
:10572000DCF80020DEF800302370397032700FCDC5
:105730000FAC0FC49AF86A302A682270012B0AD085
:10574000022B0DD08CBF0FA969464846FFF728FFF2
:1057500014B0BDE8F08705A94846FFF721FFF7E739
:105760000AA94846FFF71CFFF2E700BF90070300B5
:10577000A4070300B8070300CC0703002DE9F04796
:105780000D7A102D28BF102580465DB300EBC006B2
:10579000DFF8589000EB460605F1FF3A09EB860664
:1057A0005FFA8AFA0F461C360AF1010A00242146E4
:1057B000384625F095FA0134037806F8013F544540
:1057C000F5D1102D0CD04C2303FB0898202208EBB8
:1057D00005030135EDB2102D5A77F8D1BDE8F087F9
:1057E000BDE8F087DFF80490EDE700BF1CA0FF1FC5
:1057F00070B5054684B00E4622B316494C2303FB10
:1058000006135432D4B25C866846002125F004F9B0
:10581000A91D684625F09CF96846202125F0FAF973
:105820000D49C4EBC40401EB4401684625F0E4F9DA
:1058300069463046FFF7A2FF684625F0ADF8012023
:1058400004B070BD90F86A20002AD6D1012004B0BF
:1058500070BD00BF1CA0FF1FF4EB020070B588B044
:1058600006460C4668461E49154625F0D5F81D49E2
:105870004C2303FB04130222DA71F27F83F82E20FB
:10588000A5F10E02012A09D920466946FFF776FFE5
:10589000684625F081F8012008B070BD0E2D1AD0A1
:1058A00096F8692083F842204C2303FB04110A2256
:1058B0004B7A042B0CBF91F8421091F8441004A8C5
:1058C000013125F0EFF804A9684625F091F904A804
:1058D00025F062F8D8E796F8682083F84220E3E7DD
:1058E000C80403001CA0FF1F30B50C48144602EB8F
:1058F0004203026885B0C3EB03130D466846D11816
:1059000025F08AF80B2C03D828466946FFF736FFA6
:10591000684625F041F8012005B030BDF86600204A
:10592000F0B585B0064614460D466846234925F075
:1059300073F8301990F8931001B9ACBB90F89C3013
:105940001F4F5BB34C2303FB05730122DA71A200E6
:105950001C4B161903EB46064C2101FB0571767AA8
:1059600081F82E60144403EB4404237A63B190F869
:1059700093201549013B134403EB830203EB4203DD
:105980001944684625F038F928466946FFF7F6FEBF
:10599000684625F001F8012005B0F0BD4C2303FB5B
:1059A00005730222DA71D2E7054E064B4C2202FB48
:1059B0000566A200F17186F82E10D3E7C804030033
:1059C0001CA0FF1FA4C203001C65030070B5154690
:1059D000064684B035440C466846114925F01CF84B
:1059E00095F893300F4AA3B14C2303FB0423012104
:1059F000D9714C2303FB0423F27F83F82E20204629
:105A00006946FFF7BBFE684624F0C6FF012004B0DC
:105A100070BD4C2303FB04230221D971E9E700BFC9
:105A2000C80403001CA0FF1F2DE9F04391B01546E8
:105A300007460E4668466F4924F0EEFF0B2D52D8FC
:105A4000DFF8C081DFF8C8916B48D9F800204C23FB
:105A500003FB06830221D971BB8C03EB4303C3EB29
:105A600003131A442A440023517D92F821E01C4676
:105A700006E00133712B00F113004BD010F8134CEA
:105A8000A142DAB2F5D110F8124C7445F1D1002AD6
:105A900040D003EBC302594903EB42031944684663
:105AA00025F0AAF8BB8C564AD9F8001003EB430343
:105AB000A2FB0502C3EB031352080B4402EB4200A6
:105AC0001A44281A547C0130C2B2944200F08580F6
:105AD0002B445B7D023B072B78D8DFE803F0705B3B
