:1000000000000320D1010000FD490300B5490300B1
:10001000B5490300B5490300B5490300B5490300DC
:10002000B5490300B5490300B5490300FD49030084
:10003000FD490300B5490300896703008D6703008C
:10004000FD490300FD490300FD490300FD4903008C
:10005000FD490300FD490300FD490300FD4903007C
:10006000FD490300FD490300FD490300FD4903006C
:10007000FD490300FD490300FD490300FD4903005C
:10008000FD490300FD490300FD490300FD4903004C
:10009000FD490300FD490300FD490300FD4903003C
:1000A000ED0B0300F90B0300FD490300FD490300BC
:1000B000FD490300FD490300FD490300657A030083
:1000C000FD490300BD830300FD490300FD49030012
:1000D000FD490300FD490300FD490300FD490300FC
:1000E000FD490300FD490300FD4903003D430300B2
:1000F000FD490300FD490300FD490300FD490300DC
:10010000F96A03000D6B0300216B0300356B0300DC
:10011000FD49030039530300FD490300FD49030075
:10012000FD490300FD490300FD490300FD490300AB
:10013000FD490300FD490300FD490300FD4903009B
:10014000FD490300FD490300FD490300FD4903008B
:10015000FD490300FD490300FD490300FD4903007B
:10016000FD490300FD490300050C0300FD490300A0
:10017000FD490300FD490300FD490300FD4903005B
:10018000FD490300FD490300FD490300FD4903004B
:10019000FD490300FD490300FD490300FD4903003B
:1001A000FD490300FD490300FD490300110C030054
:1001B000FD490300FD490300FD490300FD4903001B
:1001C000FD490300FD490300FD490300FD4903000B
:1001D0005C4B4CF2205210B51A804DF628121A8052
:1001E00000BF00BF34F00EFC574B4FF030621A6076
:1001F000564A9A60564ADA60564B4FF470021A60BB
:10020000554B564A1A60564B1A78110703D51A787F
:1002100042F008021A70534B5349AA221A70534AEB
:10022000534B8B4204D252F8040F43F8040BF8E707
:10023000504B514900228B4202D243F8042BFAE77B
:100240004E494F4A002352F8230041F8230001335E
:10025000742BF8D14B4B4C4A802103F8011B93427D
:10026000FBD14A4B454A1A60494B8A221A70A3F5C2
:10027000805324225A70A0221A709A799207FCD5D2
:100280009A79D406FCD4434A937903F00C03082BE3
:10029000FAD1414B60221A7002331A78802AFCD1BD
:1002A0003C4B01221A715D225A719A799006FCD555
:1002B0009979384A4906FBD5384B394919600021EC
:1002C000596020231370937903F00C030C2BFAD19F
:1002D000344B354A1A60354A354C136813F4807331
:1002E00003D123604FF4A8531360324B324A1A6093
:1002F00000225A60072243F8042C304AC3F80C2D20
:1003000062B634F06FFC2368DA0705D52C4834F068
:1003100055FC2C4B2C4A1A602C4B1B785B0609D5DC
:10032000284C294B22689A4204D1254834F046FCD7
:100330000023236034F06CFB3AF030F936F0B6FE5F
:10034000FEE700BF0E20054030800440823F0400DD
:100350000100002B88ED00E0002008E0030000858C
:1003600002D0074000E0074018A2FF1F0414050058
:100370005088FF1F00B0FF1FBC8F00200082FF1FAE
:100380000000000000E400E064E400E008ED00E0AC
:10039000005006400040064001E007404480044011
:1003A0000000060204800440C010070010D0034083
:1003B00014D0034014E000E01FBF02000000202022
:1003C000423794651CE00340A5C3945A00F00740EF
:1003D000FFFFFFFFFFFFFFFFFFFFFFFFFFFFFFFF2D
:1003E000FFFFFFFFFFFFFFFFFFFFFFFFFFFFFFFF1D
:1003F000FFFFFFFFFFFFFFFFFFFFFFFFFFFFFFFF0D
:10040000FFFFFFFFFFFFFFFFFFFFFFFFDEF9FFFF23
:1004100010B5054C237833B9044B13B10448AFF33E
:1004200000800123237010BD00B0FF1F00000000FA
:1004300000140500084B10B51BB108490848AFF37C
:1004400000800848036803B910BD074B002BFBD0A0
:10045000BDE81040184700BF0000000004B0FF1FB7
:100460000014050018A2FF1F0000000000207047C4
:10047000704700BF0120704772B6034B012283F81A
:10048000AC2062B6704700BF7C740020704700BF8C
:10049000704700BF704700BF704700BF2DE9F041B3
:1004A000DFF834800A4C98F800300A4F1E1104F12E
:1004B000600501E098F8003054F8040FB95D026857
:1004C0001943926A9047AC42F4D1BDE8F08100BF75
:1004D000848AFF1FCCE4FF1F1C780020094A0A49C8
:1004E00010B40023094C82F82A30012082F82B3006
:1004F00082F82C3082F82D30237008705DF8044BA0
:10050000704700BF0002FF1F39E0FF1FAC790020D9
:1005100001207047704700BF704700BF30B490F8AB
:1005200021409DF808509C4201D030BC704790F8A3
:100530002230AB42F9D10029F7D180F85020F4E7FE
:100540000379022B0CBF90F852000020704700BFC7
:10055000704700BF044A437910780133181AB0FA83
:1005600080F04009704700BFE4B1FF1F008D704765
:10057000B0F84800704700BF03689B6E184700BF83
:1005800070B4038D0A4C42790A4D0B49B0F84E60A5
:100590002E70A4FB03430132642500245B090A701A
:1005A000A0F84E5080F85140A0F84C3070BC704715
:1005B0001F85EB51C4780020E4B1FF1F0368D3F816
:1005C0009C30184701EBC10301EB43018900064A47
:1005D00001F11C032C3113440A44202103F8011FAC
:1005E0009342FBD101207047FCE4FF1F00207047BD
:1005F000002070470368D3F8B830184708467047A2
:1006000001EBC10301EB43018900064A01F11C0320
:100610002C3113440A44202103F8011F9342FBD1DB
:10062000704700BFFCE4FF1F002380F86A10A0F8A9
:10063000683070470020704700207047704700BF47
:10064000704700BF90F86E304BB10133DBB2022B24
:1006500088BF012380F86E30014B03221A70704767
:100660002D75002001EBC10301EB43018900064A0F
:1006700001F11C032C3113440A44202103F8011F0B
:100680009342FBD101207047FCE4FF1F01EBC10343
:1006900001EB43018900064A01F11C032C3113448C
:1006A0000A44202103F8011F9342FBD10120704727
:1006B000FCE4FF1F704700BF704700BF704700BFDA
:1006C00000207047002070475D207047542901D8F2
:1006D000022070475D2934BF80200020704700BF92
:1006E0000379022B06BF90F8FB0040005D207047A5
:1006F0004B1E072B05D890F86D308B4218BF80F841
:100700006D10704790F8FC00704700BF08207047DC
:100710002F2070472E2906D8044B01EB410103EB33
:10072000C101087A70470020704700BF140204001E
:100730001531C8B2704700BF43790A4A0A4910B45C
:100740000133B0F84E4014700B704FF496740022D1
:10075000A0F84E40A0F84C2080F851205DF8044BE2
:10076000704700BFC4780020E4B1FF1F90F85130FB
:100770004BB9C1EB0111490089B2022986BF033987
:1007800088B200207047B0F84C3001EB4101C3EB58
:10079000031301EB430189B2EFE700BF302070473C
:1007A0002F2906D8044B01EB410103EBC101087A64
:1007B00070470020704700BF14DA03000C20704718
:1007C0000139C9B207299DBF90F8410140FA01F1F2
:1007D00001F00100002070470820704790F8902039
:1007E000072A16D80123934013F0F00F0BD113F012
:1007F0000C0F0FD19B070CD07F220823A0F84820B4
:1008000080F8AD3070477F220423A0F8482080F89C
:10081000AD3070477D220323A0F8482080F8AD302A
:10082000704700BF022380F86E30704790F86C303C
:10083000008DC3EBC303184480B27047B0F8480082
:10084000C0EBC000063080B2704700BF43790A4A4F
:100850000A4910B40133B0F84E4014700B704FF4D5
:10086000C8740022A0F84E40A0F84C2080F8512017
:100870005DF8044B704700BFC4780020E4B1FF1F4F
:10088000026890F8521080F85510136D184700BF99
:100890000F2907D801EB4102034B01EB82011944F8
:1008A000087B7047002070471875040010B40AB91F
:1008B00090F86E20012A1FD0022A1BD0032A0CBFF9
:1008C0000D2400240D4A01EBC10001EB40004C2334
:1008D00003FB0121800000F11C032C3013444C86E3
:1008E0000244202103F8011F9342FBD101205DF84F
:1008F000044B70470C24E5E70B24E3E7FCE4FF1FFF
:100900004B1E072B05D890F86D308B4218BF80F82E
:100910006D10704743790D4990F89E2030B40C4C0F
:10092000B0F84E50257001330B7052B14FF4FA738A
:10093000A0F84E300023A0F84C3080F8513030BC85
:1009400070476423A0F84E30F4E700BFE4B1FF1F06
:10095000C47800201420704790F86E304BB10133FA
:10096000DBB2032B88BF012380F86E30014B0122DC
:100970001A7070472D75002010B40AB990F86E20D7
:10098000012A1FD0022A1BD0032A0CBF0E240024E8
:100990000D4A01EBC10001EB40004C2303FB012198
:1009A000800000F11C032C3013444C8602442021AB
:1009B00003F8011F9342FBD101205DF8044B7047FF
:1009C0000D24E5E70C24E3E7FCE4FF1F4B1E092B95
:1009D00005D890F86D308B4218BF80F86D107047C5
:1009E0000A207047022070474379094A094910B428
:1009F0000133B0F84E4014700B7050240022A0F860
:100A00004E40A0F84C2080F851205DF8044B704710
:100A1000C4780020E4B1FF1F8A20704790F86A3044
:100A20000BB98A207047024A134413F8010C70472F
:100A30004C780020F0B490F86A60CEB100230F4AE1
:100A40001D460B2403E08A2B0ED012F81C4CB44236
:100A5000DFB202F11C0203F10103F4D1A9420AD072
:100A600001358A2BEDB2F0D14FF6FF70F0BC704724
:100A70000846F0BC7047B8B2F0BC7047351D0400A2
:100A8000704700BF1020704790F86E304BB10133B3
:100A9000DBB2022B88BF012380F86E30014B0122AC
:100AA0001A7070472D75002030B40AB990F86E2086
:100AB000012A20D0022A12D001EBC10301EB43012D
:100AC00089000E4A01F11C032C3113440A442021F1
:100AD00003F8011F9342FBD1012030BC70470F2364
:100AE000064C05684C2202FB01441A466386D5F881
:100AF000B43030BC18470E23F2E700BFFCE4FF1F00
:100B00000120704721B109298CBF002001207047C6
:100B1000084670474379094A094910B40133B0F8CF
:100B20004E4014700B7024240022A0F84E40A0F810
:100B30004C2080F851205DF8044B7047C4780020A9
:100B4000E4B1FF1F09207047082994BF022000204C
:100B5000704700BF0F2070470E2907D8044B01EBE8
:100B60004101C1EBC1011944887C704700207047E6
:100B70002CCE03000C4A01EBC10001EB40004C23DA
:100B800003FB0121800010B400F11C030E242C3063
:100B90004C8613442021024403F8011F9342FBD1E9
:100BA00001205DF8044B7047FCE4FF1F704700BF55
:100BB00043790A4A0A4910B40133B0F84E40147020
:100BC0000B704FF4C8740022A0F84E40A0F84C20DF
:100BD00080F851205DF8044B704700BFC4780020B6
:100BE000E4B1FF1F90F8513043B901EB8101C90016
:100BF000032986BF043988B200207047B0F84C3012
:100C000003EB830301EB4301890089B2F0E700BFE6
:100C100063207047622905D8034B1A2202FB013179
:100C2000887A70470020704790A20400182070470F
:100C30000F2986BF0531C8B2084670470139C9B2CD
:100C400007299DBF90F87A0340FA01F101F00100F5
:100C50000020704790F86E304BB10133DBB2022BAD
:100C600088BF012380F86E30014B01221A70704753
:100C70002D750020192070470C2909D8014491F8DE
:100C80000D31042B13D8DFE803F008080A0A0A0024
:100C900018298CBF0020012070470220704791F86E
:100CA000E73091F800110133591AC8B2704701209A
:100CB000704700BF90F8DE00003018BF0120704779
:100CC00090F8DB301BB190F8F4300133DBB21846FA
:100CD000704700BFB1207047C22906D8044B01EB12
:100CE000410103EBC101887870470020704700BFC5
:100CF0000C09040090F86A300BB9C3207047024A0F
:100D0000134413F8010C7047CC780020F0B490F82D
:100D10006A60CEB100230F4A1D460C2403E0C32BAA
:100D20000ED012F8184CB442DFB202F1180203F1EF
:100D30000103F4D1A9420AD00135C32BEDB2F0D1A1
:100D40004FF6FF70F0BC70470846F0BC7047B8B271
:100D5000F0BC70473B0904002720704710B4054CD5
:100D60004C2000FB014181F8303081F83C205DF8D7
:100D7000044B7047FCE4FF1F90F86E304BB1013319
:100D8000DBB2022B88BF012380F86E30014B0122B9
:100D90001A7070472D750020062070470320704799
:100DA00090F89D00704700BF10B40C4A1378012BD7
:100DB0000CD9013B13700A4A0A480B49002301244D
:100DC000137004700B705DF8044B7047074B1B7871
:100DD000002BF0D1064B1B781370ECE7C0BBFF1F54
:100DE0004276002051DCFF1F34750020437600203E
:100DF000328BFF1F10B40C4A0C49137809789942C2
:100E00000FD80B4B1B780BB901231370094A0A4802
:100E10000A4900230124137004700B705DF8044B21
:100E2000704701331370F1E7C0BBFF1F328BFF1F08
:100E3000437600204276002051DCFF1F34750020ED
:100E4000704700BF10B5044B044640F8343B35F002
:100E5000CBFE204610BD00BFD073040010B5044B7C
:100E6000044640F8343B35F0BFFE204610BD00BFBD
:100E7000D073040010B5044B044640F8343B35F001
:100E8000B3FE204610BD00BFD073040010B5044B64
:100E9000044640F8343B35F0A7FE204610BD00BFA5
:100EA000D073040010B5044B044640F8343B35F0D1
:100EB0009BFE204610BD00BFD0730400094B10B547
:100EC0000446036000F5CE7035F08EFE04F1B800E4
:100ED00035F08AFE2046044B40F8343B35F084FE62
:100EE000204610BD288F0400D073040010B5044BB9
:100EF000044640F8343B35F077FE204610BD00BF75
:100F0000D073040010B5044B044640F8343B35F070
:100F10006BFE204610BD00BFD073040010B5044B1B
:100F2000044640F8343B35F05FFE204610BD00BF5C
:100F3000D073040010B5044B044640F8343B35F040
:100F400053FE204610BD00BFD073040010B5044B03
:100F5000044640F8343B35F047FE204610BD00BF44
:100F6000D073040010B5044B044640F8343B35F010
:100F70003BFE204610BD00BFD073040010B5044BEB
:100F8000044640F8343B35F02FFE204610BD00BF2C
:100F9000D073040010B5044B044640F8343B35F0E0
:100FA00023FE204610BD00BFD073040010B5044BD3
:100FB000044640F8343B35F017FE204610BD00BF14
:100FC000D073040070B5114EB368DBB10021104D31
:100FD0000C460E4835F0D8FF2B19B268017883F81B
:100FE0007F100134E4B294422146F2D30F2AD3B2E7
:100FF0000AD82021EA180133DBB2102B82F87F10C7
:10100000F8D170BD024DF4E770BD00BFECD0FF1FFA
:101010000002FF1F70B5124D00242E4621461148D4
:1010200035F0B2FF0134037806F8013F082CF5D102
:101030000D4C94F8FB318BB103EB4302C3EBC203BD
:10104000DBB203F10800C0B25A1C234415F8011F9B
:1010500083F83B11D3B28342F6D170BD1723F0E77A
:101060009FE4FF1FECD0FF1F94E2FF1F70B5124DED
:1010700000242E462146114835F086FF01340378BE
:1010800006F8013F082CF5D10D4C94F834348BB19F
:1010900003EB4302C3EBC203DBB203F10800C0B2AF
:1010A0005A1C234415F8011F83F87413D3B28342EA
:1010B000F6D170BD1723F0E73C7E0020ECD0FF1F77
:1010C000F879002038B504460023CD2200F134051C
:1010D00080F891201121237184F8923084F89330A4
:1010E00084F89430284635F087FD2846034935F0CA
:1010F0004FFE012384F8563038BD00BFC8E9040014
:101100001046014935F044BEDCE9040010460149AF
:1011100035F03EBEE4E904001846014935F038BE1A
:10112000F4E904001046014935F032BEF8E9040044
:101130001046014935F02CBE04EA0400104601496E
:1011400035F026BEF4E90400104607291DD8DFE873
:1011500001F0070A0D10131619040D4935F018BED9
:101160000C4935F015BE0C4935F012BE0B4935F06F
:101170000FBE0B4935F00CBE0A4935F009BE0A49CD
:1011800035F006BE094935F003BE094935F000BE09
:1011900080EA04000CEA040018EA040024EA0400CF
:1011A00034EA040044EA040058EA04006CEA04004B
:1011B000A0F7040049B1012903D11046054935F0D3
:1011C000E7BD1046044935F0E3BD1046034935F04C
:1011D000DFBD00BFA8EA0400A0F7040094EA040001
:1011E00001290ED009D3022903D11046074935F051
:1011F000CFBD1046064935F0CBBD1046054935F048
:10120000C7BD1046044935F0C3BD00BFD0EA040095
:10121000A0F70400B8EA0400C4EA040070B504466C
:1012200015460E461046A11D35F0B2FD284605496B
:1012300035F002FE23682A46314620469B6EBDE803
:1012400070401847E0EA0400811D104635F0F4BDF7
:101250001046014935F0F0BDE4EA040010460149AA
:1012600035F0EABDD8E90400072900D9704701EB41
:101270008100034B01EB40011944104635F0DCBD01
:10128000B6D00300044B01EB410103EBC101104652
:10129000093135F0D1BD00BF14020400044B01EB4D
:1012A000410103EBC1011046093135F0C5BD00BF56
:1012B00014DA030070B5044615460E461046A11D0B
:1012C00035F066FD2846054935F0B6FD23682A4607
:1012D00031462046DB6FBDE870401847E0EA040065
:1012E00010B401EB4103044C01EB8301214410468F
:1012F0005DF8044B35F0A0BD18750400024B104694
:1013000003EB011135F098BD6077040010B401EBD8
:101310004103044CC1EBC301214410465DF8044B6A
:1013200035F08ABD90DE0400034B01EB81011046CD
:1013300003EB410135F080BDE8E6030001EB41011C
:10134000034BC1EBC1011046194435F075BD00BF18
:101350002CCE0300622900D97047044B1A2000FBF1
:1013600001310B31104635F067BD00BF90A204007B
:10137000044B01EB410103EBC1011046033135F091
:101380005BBD00BF0C090400262903D9104605499E
:1013900035F052BD044B01EB4101104603EBC10196
:1013A00035F04ABDF4EA04006CFE0300262903D997
:1013B0001046064935F040BD054B01EB410103EBFA
:1013C000C10110460E3135F037BD00BFF4EA04000C
:1013D0006CFE030030B4B9B101EB4103C1EBC303B0
:1013E000DBB200F20B2100F21325C418013394F88C
:1013F0003B4101F8014FA942DBB2F6D100F5037180
:1014000030BC104635F018BD1723EAE7F8B5224F77
:101410003B686BB10C4601EB41032049C4EBC303AD
:10142000054619441046164635F006FD0B2C00D92A
:10143000F8BD3A21304635F00DFD2B8D396818483E
:1014400003EB4303C3EB03131944214400234C7DF6
:1014500091F82120194606E00133712B00F11300A9
:1014600014D010F8131C8C42DDB2F5D110F8121C08
:101470009142F1D155B103EBC3020A4903EB420398
:1014800030461944BDE8F84035F0D6BC3046064930
:10149000BDE8F84035F0D0BC68B5FF1FA1DE040000
:1014A000CFE80300BEE80300F4EA040030B4B9B1A9
:1014B00001EB4103C1EBC303DBB200F2444100F294
:1014C0004C45C418013394F8744301F8014FA94204
:1014D000DBB2F6D100F2454130BC104635F0ACBC71
:1014E0001723EAE790F89E30012B00D0704700F1F7
:1014F000B801104635F09CBC30B5104685B00D469D
:101500000849144635F098FC2946684635F0DEFB5C
:101510006946204635F08CFC684635F065FB05B021
:1015200030BD00BFF8EA040030B589B00D4604A80C
:101530000B49144635F098FB2946684635F0C6FB42
:10154000694604A835F0AAFC0146204635F070FC37
:10155000684635F049FB04A835F046FB09B030BDBC
:10156000FCEA040030B589B00D4604A80B491446C6
:1015700035F07AFB2946684635F0A8FB694604A891
:1015800035F08CFC0146204635F052FC684635F0BB
:101590002BFB04A835F028FB09B030BD08EB040094
:1015A00070B584B068460A490A4C35F071FB04F105
:1015B000100665422919684635F0E6FC037804F800
:1015C000013FB442F6D1684635F00EFB04B070BD61
:1015D000ECD0FF1F70B4FF1F70B50F4CA4FB01349B
:1015E000E4080D4604F1410184B0C9B2104604EB91
:1015F0008404164635F02EFCA5EB44010A2289B27C
:10160000684635F077FB6946304635F011FC684690
:1016100035F0EAFA04B070BDCDCCCCCC70B505463F
:1016200084B00E4610460F49144635F005FCC6F34B
:10163000C7110A220131684635F05CFB6946204635
:1016400035F0F6FB684635F0CFFA2046202135F01C
:1016500001FC2B68224606F07F019B6E28469847C6
:1016600004B070BD10EB040030B5032989B01546F5
:1016700022D90439CCB2072C05D91046134935F0CC
:10168000DBFB09B030BD04A8114935F0EDFA0A22A0
:10169000611C684635F02EFB694604A835F0FEFB58
:1016A0000146284635F0C4FB684635F09DFA04A88B
:1016B00035F09AFA09B030BD064BC1EBC1011046B6
:1016C000194435F0B9FB09B030BD00BFF4EA04009D
:1016D00014EB0400E875040030B5032989B0154601
:1016E00022D90439CCB2072C05D91046134935F05C
:1016F000A3FB09B030BD04A8114935F0B5FA0A22A0
:10170000611C684635F0F6FA694604A835F0C6FB58
:101710000146284635F08CFB684635F065FA04A88A
:1017200035F062FA09B030BD064BC1EBC10110467D
:10173000194435F081FB09B030BD00BFF4EA040064
:1017400020EB0400944504002DE9F04390F89050FC
:10175000072D91B044D80123AB4013F0AA0F1646D1
:101760000C4640D113F0550F3AD0022D0CBF4FF06C
:1017700003094FF004093D4D91FBF9F75FFA87F833
:1017800008F1010885FB08354FEAE873C3EBA505AE
:101790000A22294604A835F0ADFA04A90CA835F0B0
:1017A00077FA05EB85010A22A8EB410108A835F07C
:1017B000A1FA08A90CA835F071FB09FB17414131CA
:1017C000C9B235F081FB0146304635F031FB08A83F
:1017D00035F00AFA0CA835F007FA04A835F004FA37
:1017E00011B0BDE8F0832249A1FB04310A22490966
:1017F000684635F07FFA694608A835F049FA1D4B6E
:10180000A3FB0425ED08A9B2A3FB0123DB0803EB2E
:101810008303A1EB43010A2289B204A835F06AFAD6
:1018200004A908A835F03AFB05EB8505A4EB4501B2
:101830000A22074689B20CA835F05CFA0CA9384692
:1018400035F02CFB0146304635F0F2FA0CA835F0A5
:10185000CBF904A835F0C8F908A835F0C5F96846F1
:1018600035F0C2F911B0BDE8F08300BF6766666667
:101870001F85EB51CDCCCCCCF0B590F89E3091B01B
:101880001546002B51D190F8AD31002B47D14C1C9F
:1018900004A8474935F0E8F94649A4B2A1FB043150
:1018A0000A224909684635F025FA694604A835F048
:1018B000F5FA414BA3FB0426F608B1B2A3FB0123C2
:1018C000DB0803EB8303A1EB430107460A2289B23D
:1018D00008A835F00FFA08A9384635F0DFFA06EB0C
:1018E0008606A4EB46010A22074689B20CA835F009
:1018F00001FA0CA9384635F0D1FA0146284635F0F0
:1019000097FA0CA835F070F908A835F06DF968461B
:1019100035F06AF904A835F067F911B0F0BD10464A
:10192000264935F089FA11B0F0BD224B01318CB255
:10193000A3FB04310A224909684635F0DBF9694600
:1019400008A835F0A5F91C4BA3FB0426F608B1B294
:10195000A3FB0123DB0803EB8303A1EB43010A2272
:1019600089B204A835F0C6F904A908A835F096FA9A
:1019700006EB8606A4EB46010A22074689B20CA8AC
:1019800035F0B8F90CA9384635F088FA01462846F2
:1019900035F04EFA0CA835F027F904A835F024F9F3
:1019A00008A835F021F9684635F01EF911B0F0BDF0
:1019B0002CEB04001F85EB51CDCCCCCC24EB0400E8
:1019C000F0B590F89E3091B004460F461646002BB5
:1019D00036D190F85130002B75D190F84C10614DF4
:1019E00001EB810107EB4104E4B2A5FB0435ED08EE
:1019F00029460A2204A835F07DF905EB850504A9DE
:101A00000CA835F045F9A4EB4501C9B20A2208A893
:101A100035F070F908A90CA835F040FA524935F0B4
:101A200045FA0146304635F003FA08A835F0DCF8EF
:101A30000CA835F0D9F804A835F0D6F811B0F0BDEF
:101A400090F85130002B69D0B0F84C10454DA5FBF3
:101A500001310A22C908684635F04CF9694608A8E0
:101A600035F016F9B4F84C10A5FB0135ED0805EB7F
:101A70008505A1EB45010A2289B204A835F03AF99F
:101A800004A908A835F00AFA394604460A220CA827
:101A900035F030F90CA9204635F000FA334935F01D
:101AA00005FA0146304635F0C3F90CA835F09CF82C
:101AB00004A835F099F808A835F096F8684635F08E
:101AC00093F811B0F0BDB0F84C10264DA5FB0131D4
:101AD0000A22C908684635F00DF9694608A835F0AC
:101AE000D7F8B4F84C10A5FB0135ED0805EB8505DA
:101AF000A1EB45010A2289B204A835F0FBF804A93C
:101B000008A835F0CBF9394604460A220CA835F06E
:101B1000F1F80CA9204635F0C1F9C2E7B0F84C4005
:101B2000104904EB840407EB4404A4B2A1FB04377E
:101B3000FF0839460A2204A835F0DCF807EB8707CE
:101B400004A90CA835F0A4F8A4EB470189B20A2235
:101B500008A835F0CFF808A90CA835F09FF904497A
:101B60005DE700BFCDCCCCCC30EB040038EB0400FB
:101B700034EB0400F0B590F89030012B8DB0164690
:101B80000CBF04250825002941D0A9420C4644D9A0
:101B9000012B34D1052959D004A82F4935F064F818
:101BA000641B2E4D023C85FB0435A5EBE4750A222F
:101BB0002946684635F09EF8694604A835F06EF966
:101BC000274935F073F905EB4505611B0A220746E5
:101BD000013108A835F08EF808A9384635F05EF9CD
:101BE0000146304635F024F908A834F0FDFF684678
:101BF00034F0FAFF04A834F0F7FF0DB0F0BD641B19
:101C000004A81549154D35F02FF8013CCBE71046D7
:101C1000144935F011F90DB0F0BD08A8124935F09E
:101C200023F80A22214604A835F064F804A908A87C
:101C300035F034F90146304635F0FAF804A834F0AE
:101C4000D3FF08A834F0D0FF0DB0F0BD104607490F
:101C500035F0F2F8D1E700BF44EB04005655555576
:101C6000A4F604003CEB040040EB040048EB040045
:101C700070B590F851308CB004460D46164633BB13
:101C8000B0F84C300BB9002964D0354908A834F0BD
:101C9000EBFFB4F84C1001EB810105EB4101013978
:101CA0000A2204A835F026F804A908A835F0F6F8A9
:101CB0002C4935F0FBF80146304635F0B9F804A858
:101CC00034F092FF08A834F08FFF0CB070BDB0F86C
:101CD0004C30A3B929B91046234935F0ADF80CB002
:101CE00070BD08A8214934F0BFFF294604A80A2284
:101CF00035F000F804A908A835F0D0F8DBE704A80F
:101D0000174934F0B1FFB4F84C100A220139684683
:101D100034F0F0FF694604A835F0C0F8144935F0F6
:101D2000C5F80A220446294608A834F0E3FF08A9AA
:101D3000204635F0B3F80146304635F079F808A86A
:101D400034F052FF684634F04FFF04A834F04CFFE3
:101D50000CB070BD1046074935F06EF80CB070BD80
:101D600044EB040054EB040058EB040040EB040087
:101D7000A4F6040050EB0400F0B5284C284FC72906
:101D80000E468DB094BF55215021A4FB0634104659
:101D9000154635F05FF8A309C82404FB1364C4F3A7
:101DA0008D040134E4B2A7FB0437FF0839460A2248
:101DB000684634F09FFF07EB8707694608A834F0B0
:101DC00067FFA4EB47010A22C9B204A834F092FFCE
:101DD00004A908A835F062F80146284635F028F82D
:101DE00004A834F001FF08A834F0FEFE684634F081
:101DF000FBFE2D21284635F02DF806F003010A22BE
:101E0000013108A834F076FF08A9284635F010F80B
:101E100008A834F0E9FE0DB0F0BD00BF1F85EB51FE
:101E2000CDCCCCCC30B562298BB01D462FD83A4BE7
:101E30001A2404FB0131C98A0BB2002B55DDA1F530
:101E4000F844063C112C10D8DFE804F0090F0F0FFE
:101E50000F0F0F0F0F0F0F0F0F0F0F2D4D2790F8B4
:101E6000AD30002B14BF092101210A44013A2B494E
:101E700002EBC202114406A834F0F6FE06A9284679
:101E800034F0D6FF06A834F0AFFE0BB030BD1846D4
:101E9000234934F0D1FF0BB030BD114606A80A2209
:101EA00034F028FFEAE73F2A28D9402A2FD00192B0
:101EB000EBD91C4906A834F0D7FE019AA2F13201F1
:101EC0000A2202A834F016FF02A906A834F0E6FFA1
:101ED0000146284634F0ACFF02A834F085FE06A87F
:101EE00034F082FED1E75100D8E7012A28460CBF22
:101EF0000D490E4934F0A0FF0BB030BD0C490192E2
:101F000006A834F0B1FE019AC2F13201D8E72846A2
:101F1000084934F091FFB8E790A204009C950400B2
:101F2000A0F7040090F204002CF5040064EB040018
:101F30005CEB040060EB040030B50F2989B0154656
:101F400022D91039CCB2072C05D91046124934F0E9
:101F500073FF09B030BD04A8104934F085FE0A2291
:101F6000611C684634F0C6FE694604A834F096FF4A
:101F70000146284634F05CFF684634F035FE04A87C
:101F800034F032FE09B030BD054B104603EB0111B1
:101F900034F052FF09B030BDF4EA040014EB040041
:101FA00088D1040030B50F2989B0154622D91039DF
:101FB000CCB2072C05D91046134934F03DFF09B0C7
:101FC00030BD04A8114934F04FFE0A22611C684656
:101FD00034F090FE694604A834F060FF01462846BC
:101FE00034F026FF684634F0FFFD04A834F0FCFD11
:101FF00009B030BD064B03EB01111046083134F037
:102000001BFF09B030BD00BFF4EA040020EB040060
:1020100088D10400F0B5C72991B00C4610468CBF9A
:10202000502155211646013434F014FF2049A4B242
:10203000A1FB04310A224909684634F05BFE694677
:1020400008A834F025FE1B4BA3FB0425ED08A9B21C
:10205000A3FB0123DB0803EB8303A1EB43010A226B
:1020600089B204A834F046FE04A908A834F016FF8B
:1020700005EB8505A4EB45010A22074689B20CA8A9
:1020800034F038FE0CA9384634F008FF01463046DB
:1020900034F0CEFE0CA834F0A7FD04A834F0A4FD63
:1020A00008A834F0A1FD684634F09EFD11B0F0BDE3
:1020B0001F85EB51CDCCCCCCF0B590F8513091B020
:1020C00005460F4616466BBBB0F84C30012B8CBF53
:1020D00050215521104634F0BDFEB5F84C100A22AF
:1020E00004A834F007FE04A90CA834F0D1FD0A229C
:1020F000394608A834F0FEFD08A90CA834F0CEFE3D
:102100002B4934F0D3FE0146304634F091FE08A846
:1021100034F06AFD0CA834F067FD04A834F064FDC7
:1021200011B0F0BDB0F84C30224C132B8CBF5021B5
:102130005521104634F08EFEB5F84C10A4FB013149
:102140000A22C908684634F0D5FD694608A834F06B
:102150009FFDB5F84C10A4FB0134E40804EB8404A3
:10216000A1EB44010A2289B204A834F0C3FD04A9FA
:1021700008A834F093FE0A22044639460CA834F02D
:10218000B9FD0CA9204634F089FE0146304634F0F2
:102190004FFE0CA834F028FD04A834F025FD08A853
:1021A00034F022FD684634F01FFD11B0F0BD00BFD1
:1021B00030EB0400CDCCCCCC30B500EB410089B085
:1021C000B0F89E30154601310A2268465C1034F0A2
:1021D00091FD694604A834F05BFD04A83A2134F06F
:1021E00073FEE3B2094903EBC30301EB430134F08F
:1021F0005DFE0146284634F01BFE04A834F0F4FCD2
:10220000684634F0F1FC09B030BD00BF00E00400C6
:1022100070B5164C4D1C84FB0534EB178CB0C3EB2A
:10222000A404164621460A22684634F063FD694636
:1022300008A834F02DFD04EB84010A22A5EB41012E
:1022400004A834F057FD04A908A834F027FE01467D
:10225000304634F0EDFD04A834F0C6FC08A834F094
:10226000C3FC684634F0C0FC0CB070BD676666669F
:1022700030B589B00D4604A80C49144634F0F4FC7E
:102280000A22691C684634F035FD694604A834F01A
:1022900005FE0146204634F0CBFD684634F0A4FC30
:1022A00004A834F0A1FC09B030BD00BF68EB040005
:1022B00030B501F1500389B030F8133015460131C3
:1022C0000A2268465C1034F015FD694604A834F013
:1022D000DFFC04A83A2134F0F7FDE3B2094903EB2F
:1022E000830301EB8301023134F0E0FD014628460F
:1022F00034F09EFD04A834F077FC684634F074FC9A
:1023000009B030BD80350400F0B50C46C91191B05C
:102310004131C9B204A81646013434F0FFFC21490A
:10232000A4B2A1FB04310A224909684634F0E2FC58
:10233000694604A834F0B2FD1B4BA3FB0425ED084D
:10234000A9B2A3FB0123DB0803EB8303A1EB430149
:1023500007460A2289B208A834F0CCFC08A93846FE
:1023600034F09CFD05EB8505A4EB45010A220746E8
:1023700089B20CA834F0BEFC0CA9384634F08EFDAE
:102380000146304634F054FD0CA834F02DFC08A86A
:1023900034F02AFC684634F027FC04A834F024FC0E
:1023A00011B0F0BD1F85EB51CDCCCCCC2DE9F04167
:1023B00090F8513090B007460D461646002B47D096
:1023C000B0F84C103D4C01EB810189114131C9B28B
:1023D00004A834F0A3FCB7F84C10A4FB01310A2286
:1023E000C908684634F086FC694604A834F056FDF6
:1023F000B7F84C10A4FB0134E40804EB8404A1EB0F
:10240000440180460A2289B208A834F073FC08A966
:10241000404634F043FD0A22044629460CA834F015
:1024200069FC0CA9204634F039FD0146304634F0F1
:10243000FFFC0CA834F0D8FB08A834F0D5FB6846A4
:1024400034F0D2FB04A834F0CFFB10B0BDE8F0812B
:10245000B0F84C3001EB81014A00642101FB0321FB
:10246000C9114131C9B208A834F058FCB7F84C1072
:102470000A2204A834F03EFC04A908A834F00EFD9A
:102480000A22044629460CA834F034FC0CA9204644
:1024900034F004FD0A4934F009FD0146304634F0B9
:1024A000C7FC0CA834F0A0FB04A834F09DFB08A8DE
:1024B00034F09AFB10B0BDE8F08100BFCDCCCCCC9D
:1024C00030EB040070B5232901F0030588B00C46F9
:1024D000164605F141051CD904A8462134F01EFC1E
:1024E000A1080A220839684634F004FC694604A8A9
:1024F00034F0D4FC294634F0E7FC0146304634F091
:1025000097FC684634F070FB04A834F06DFB08B00B
:1025100070BD89080A220131684634F0EBFB694638
:1025200004A834F0B5FB294604A834F0CDFC0146DC
:10253000304634F07DFC04A834F056FB684634F095
:1025400053FB08B070BD00BFF0B590F8513089B0B2
:10255000044616460D46DBB9B0F84C30002B3BD193
:102560000A22684634F0C6FB694604A834F090FBA2
:1025700004A82A4934F09AFC0146304634F058FC4D
:1025800004A834F031FB684634F02EFB09B0F0BDEE
:1025900001F00307232907F141072ED9462104A89A
:1025A00034F0BCFBB4F84C100A220839684634F009
:1025B000A1FB694604A834F071FC394634F084FC70
:1025C0000146304634F034FC684634F00DFB04A874
:1025D00034F00AFB09B0F0BD04A8462134F09EFB9C
:1025E00029460A22684634F085FB694604A834F07F
:1025F00055FC0A4934F05AFCE2E7B0F84C100A22C4
:102600000131684634F076FB694604A834F040FB9B
:10261000394604A834F058FCAEE700BF30EB0400A4
:1026200070B590F851308CB00C461546EBB90529C1
:1026300008A84FD9502134F071FB611F0A2204A869
:1026400034F058FB04A908A834F028FC244934F0DD
:102650002DFC0146284634F0EBFB04A834F0C4FA04
:1026600008A834F0C1FA0CB070BD90F84C600A2391
:1026700013FB0613322B28DD5021104634F0EAFB01
:10268000053EF6B23146684634F020FB694608A89C
:1026900034F0FEFA0A22214604A834F02BFB04A9E8
:1026A00008A834F0FBFB0F4934F000FC0146284633
:1026B00034F0BEFB04A834F097FA08A834F094FA7A
:1026C000684634F091FA0CB070BD5521104634F0D4
:1026D000C1FBD7E7552134F021FB2146AEE700BF0F
:1026E00034EB040038EB040008B5C82032F018FDC4
:1026F000014B024A1A6008BD0CED00E00400FA0527
:1027000008B5044831F042FD0348BDE8084031F007
:102710003DBD00BF4CB2FF1F64B2FF1FF8B50446B9
:102720000226FEF7CFFC04221A492671A01D31F0C3
:1027300013FE0F22184904F10E0031F00DFE03279D
:1027400001200021CD22CF234FF0C70E04F1A305B5
:1027500084F8912084F8923084F82460A4F848E04A
:1027600084F854702A4684F82C00E07784F821001D
:1027700084F86E00A4F84610A16584F8931084F8DC
:10278000941004F19B0303F8010FAB4202F8011F00
:10279000F9D1F8BD6CEB040070EB0400F8B5044609
:1027A0000525FEF78FFC022323712A461649A01D3A
:1027B00031F0D2FD0B22154904F10E0031F0CCFDB1
:1027C000622200234FF0030E0427CD26CF20D02114
:1027D000A4F84820012284F854E0E77784F8916057
:1027E00084F8920084F8931084F89C3084F89D302B
:1027F00084F8943084F8212084F82420A565A4F876
:10280000463084F85620F8BD80EB040088EB0400C5
:10281000F8B504460225FEF755FC06221749257136
:10282000A01D31F099FD0C22154904F10E0031F084
:1028300093FD112104F1340034F0DEF97F234FF0D1
:10284000030E0127CD26D120D221A4F84830002341
:102850000C4AE57784F8245084F854E084F8217019
:1028600084F8916084F8920084F8931084F894308E
:10287000C4F88C20A36584F89C30F8BD94EB040068
:102880009CEB040080C3C901F8B504460225FEF79D
:1028900019FC2571A01D04221E4931F05DFD04F1D3
:1028A0000E0010221C4931F057FD7C210323052224
:1028B0004FF00A0EA4F8481084F85430A2650023A3
:1028C0000122DF27CF26D320144984F89300C4F8CF
:1028D0008C1084F8245084F81FE084F8917084F8F8
:1028E0009260A4F8463084F8943084F89D30C4F89F
:1028F000CC3084F8212084F89E2004F5CE7011217C
:1029000034F07AF904F1B8001121BDE8F84034F050
:1029100073B900BFA8EB0400ACEB040080C3C9018D
:10292000F8B504460225FEF7CDFB257104221A49AD
:10293000A01D31F011FD194904F10E000A2231F0F9
:102940000BFD0B20032306210127CD2684F82450FC
:10295000A4F84800CF25D22084F854300023E17732
:1029600084F821700E4984F8916084F8925084F8BC
:10297000930084F8943084F89C3084F89D3084F877
:102980009E3084F89F30A4F84630A36584F8A230C6
:102990002367C4F88C10F8BDBCEB0400C0EB040046
:1029A00080C3C901F8B504460625FEF78BFB022358
:1029B00023712A461349601931F0CEFC0A221249CC
:1029C00004F10E0031F0C8FC032700230122CD20C2
:1029D000DA214FF0470E0526E57784F8547084F825
:1029E000910084F8921084F8933084F8943084F83D
:1029F000212084F82420A4F848E0A665A4F84630F5
:102A0000F8BD00BFD0EB0400CCEB0400F8B50446E1
:102A10000225FEF757FB042213492571A01D31F052
:102A20009BFC1022114904F10E0031F095FC0327A4
:102A3000002307260120CD21CF2240F22B1E84F84F
:102A4000245084F85470E67784F8210084F89110BB
:102A500084F8922084F8933084F89430A4F848E005
:102A6000A4F84630A365F8BDD8EB0400DCEB040005
:102A7000F8B50446FEF726FB02232371042214490D
:102A8000A01D31F069FC0822124904F10E0031F05A
:102A900063FC032500230122CD20CF2163270526D7
:102AA00084F8545084F8910084F8921084F82C3003
:102AB00084F8933084F89430E27784F8212084F805
:102AC0002420A4F84870A665A4F84630F8BD00BFDD
:102AD000ECEB0400F0EB0400F8B50446FEF7F2FA64
:102AE0000223237104221449A01D31F035FC0F226A
:102AF000124904F10E0031F02FFC032600230521BA
:102B00000122CD25CF20312784F8546084F89150DC
:102B100084F8920084F8933084F89430E17784F854
:102B2000212084F82420A4F84870A4F8463084F8C2
:102B30003E312367A165F8BDF8EB0400FCEB04000F
:102B4000F8B504460226FEF7BDFA06221949267199
:102B5000A01D31F001FC0F22174904F10E0031F0E5
:102B6000FBFB00250322012340F27F1ECF20D12151
:102B7000CD2784F8920084F8931084F89C2084F880
:102B8000542084F82460A4F848E084F89170A4F8F4
:102B90004650A56584F89450E37784F8213029469F
:102BA00004F19D005D2238F0ABF884F8FB5084F806
:102BB000FC50F8BD0CEC040014EC04002DE9F041CD
:102BC00004460026FEF77EFA022704234FF005088C
:102BD00084F89D304246294984F89C602771A01DE5
:102BE00031F0BAFB0C222649264D04F10E0031F0DB
:102BF000B3FB254BA4F846600122CD204FF09E0C7C
:102C00004FF0030ED72184F8910084F8212084F836
:102C10002420C4F85880E77784F8936084F894609F
:102C2000A4F848C084F854E084F8921003F61870B1
:102C30000B2201E013F81C2C511E1C3312B16A5CEC
:102C400001326A548342F5D1292240F20D130F4D0F
:102C50000F4E4FF6FF7001E016F8122025F81230E3
:102C6000591E8BB28342C3EBC302F5D1002384F813
:102C70007731C4F88431BDE8F08100BF24EC040052
:102C80002CEC04004C780020351D04007CDFFF1F75
:102C900088BD0300F8B505460224FEF713FA2C712F
:102CA00005221E49A81D31F057FB0D221C4905F1D4
:102CB0000E0031F051FB09270022032040F28F1E45
:102CC000CD26D021EC7785F8244085F85400A5F86E
:102CD000462085F89C2085F89D20AA6585F89320DC
:102CE00085F894200F4BA5F848E00F4C0F4885F865
:102CF000217085F8916085F892100C2201E013F89C
:102D0000182C511E183312B1425C01324254A342B6
:102D1000F5D1002385F85530F8BD00BF38EC04002C
:102D200040EC04003B090400831B0400CC78002025
:102D300010B5034C206837F0A9FC0023236010BDB8
:102D400068B5FF1F002311220149024834F034B94D
:102D50000002FF1FECD0FF1F002307220149024899
:102D600034F02AB91102FF1FECD0FF1F0023072205
:102D70000149024834F020B91C02FF1FECD0FF1FAC
:102D8000002307220149024834F016B92302FF1F2D
:102D9000ECD0FF1F10B5044633F08CFE204610BD6A
:102DA000032907D90B1F072B02D81131C8B270476E
:102DB00000207047084670470B290ED9A1F1170370
:102DC0000A2B07D9A1F122031F2B9ABF1E31C8B2CB
:102DD000002070470239C8B270470131C8B270474D
:102DE00070B505460C460AB990F86E20012A32D01B
:102DF000022A11D004EBC40304EB4304A400174AD5
:102E000004F11C032C3413442021224403F8011F35
:102E10009342FBD1012070BD0A21104E104A4C2371
:102E200003FB0463284683F83C102B68D3F8E43096
:102E300093420ED1FFF7C0FF4C2303FB04632146EE
:102E400083F830002B682846D3F8F43098470020E8
:102E500070BD9847F0E70821DFE700BFFCE4FF1FE3
:102E6000B92D000030B590F8513085B00D461446AC
:102E7000A3B190F84C104131C9B2104633F0EAFFCB
:102E80000A222946684633F035FF6946204633F06A
:102E9000CFFF684633F0A8FE05B030BD4131104683
:102EA000C9B233F0D7FF2046024933F0C5FF05B061
:102EB00030BD00BF30EB040010B584B00A220C46D0
:102EC0000146684633F016FF6946204633F0B0FFEE
:102ED000684633F089FE04B010BD00BF542905D800
:102EE000012A18460CD0084933F0A6BF5C2903D943
:102EF0001846064933F0A0BF19461046FFF7DCBF5D
:102F0000034933F099BF00BF64EB0400A0F704004D
:102F10002CF5040010B40D4A0D4B92790D4C03FBB7
:102F200001F100FB02F091FBF0F14B1EA34209D826
:102F3000C1EB011189000139232903D9064B1B6814
:102F400003B119605DF8044B704700BF58DCFF1FE8
:102F5000008793034744440494E1FF1F90F8A9308D
:102F600013B190F8A81001B970471846FFF7D2BF07
:102F700008B5094B197821B90848BDE808402DF07B
:102F80006BBF01390548C9B201222DF033FF034858
:102F9000BDE808402DF06EBFC0BBFF1F3478002095
:102FA00030B590F851308DB0144613B30D460A2257
:102FB000B0F84C10684633F09DFE694608A833F01F
:102FC00067FE0A22294604A833F094FE04A908A843
:102FD00033F064FF0146204633F02AFF04A833F0A3
:102FE00003FE08A833F000FE684633F0FDFD0DB087
:102FF00030BD0A2208A833F07DFE08A904A833F0EA
:1030000047FE04A8074933F051FF0146204633F03C
:103010000FFF04A833F0E8FD08A833F0E5FD0DB07C
:1030200030BD00BF30EB040070B590F851308CB06B
:103030000E4615463BB30446502104A833F06EFEFD
:10304000B4F84C100A22684633F054FE694604A8CE
:1030500033F024FF0A220446314608A833F04AFE22
:1030600008A9204633F01AFF0146284633F0E0FE57
:1030700008A833F0B9FD684633F0B6FD04A833F074
:10308000B3FD0CB070BD04A8502133F047FE0A22F6
:10309000314608A833F02EFE08A904A833F0FEFE3E
:1030A000074933F003FF0146284633F0C1FE08A864
:1030B00033F09AFD04A833F097FD0CB070BD00BF4B
:1030C00030EB040030B5072989B0154605D9104604
:1030D0000F4933F0B1FE09B030BD0C4668460D49CA
:1030E00033F0C2FD0A22611C04A833F003FE04A9D8
:1030F000684633F0D3FE0146284633F099FE04A813
:1031000033F072FD684633F06FFD09B030BD00BF8B
:10311000F4EA040050EC040030B5072989B01546E4
:1031200005D910460F4933F087FE09B030BD0C4673
:1031300068460D4933F098FD0A22611C04A833F05B
:10314000D9FD04A9684633F0A9FE0146284633F0AC
:103150006FFE04A833F048FD684633F045FD09B022
:1031600030BD00BFF4EA040020EB040030B50329B1
:1031700089B00C4615461FD90B0617D4684613496B
:1031800033F072FD214604A833F0A0FD04A968467F
:1031900033F084FE0146284633F04AFE04A833F09B
:1031A00023FD684633F020FD09B030BD10460849C4
:1031B00033F042FE09B030BD0649C4EBC4041046EA
:1031C000214433F039FE09B030BD00BF58EC040093
:1031D000F4E90400E875040030B590F851308DB082
:1031E00014462BB30D460A22B0F84C10684633F053
:1031F00081FD694608A833F04BFD0A22294604A840
:1032000033F078FD04A908A833F048FE144933F0E0
:103210004DFE0146204633F00BFE04A833F0E4FCDB
:1032200008A833F0E1FC684633F0DEFC0DB030BD99
:103230000A2208A833F05EFD08A904A833F028FD8F
:1032400004A8084933F032FE0146204633F0F0FD71
:1032500004A833F0C9FC08A833F0C6FC0DB030BD9B
:1032600030EB04005CEC040030B5052989B00C4655
:10327000154618D904A8184933F0F6FC0A22611F34
:10328000684633F037FD694604A833F007FE01466F
:10329000284633F0CDFD684633F0A6FC04A833F091
:1032A000A3FC09B030BD68460C4933F0DDFC214673
:1032B00004A833F00BFD04A9684633F0EFFD014686
:1032C000284633F0B5FD04A833F08EFC684633F091
:1032D0008BFC09B030BD00BF68EC040060EC04005A
:1032E00030B5052989B00C46154618D904A81849E7
:1032F00033F0BAFC0A22611F684633F0FBFC6946D2
:1033000004A833F0CBFD0146284633F091FD684612
:1033100033F06AFC04A833F067FC09B030BD68469E
:103320000C4933F0A1FC214604A833F0CFFC04A9DA
:10333000684633F0B3FD0146284633F079FD04A812
:1033400033F052FC684633F04FFC09B030BD00BF8B
:1033500070EC0400F8EA040030B589B005460C466C
:1033600004A80B4933F080FC2946684633F0AEFCD4
:10337000694604A833F092FD0146204633F0F8FC7C
:10338000684633F031FC04A833F02EFC09B030BDA0
:1033900058EC04004BB2002B084602DD1146FFF743
:1033A000DBBF1046014933F0F3BC00BFF4E9040071
:1033B0000F290B4609D95F2903D91046064933F076
:1033C000E7BC11461846FFF7C7BF0449104601EB9A
:1033D000031133F0DDBC00BFF4E9040088D1040020
:1033E00030B54B1E072B89B00C46154629D9092943
:1033F0003FD00A2942D00B2945D00C2948D0A1F151
:103400000D03722B05D91046244933F0C1FC09B0D5
:1034100030BD6846224933F027FC214604A833F02A
:1034200055FC04A9684633F039FD0146284633F0BF
:103430009FFC04A833F0D8FB684633F0D5FB09B0F5
:1034400030BD04A8174933F00FFC2146684633F01D
:103450003DFC694604A833F021FD0146284633F0BF
:1034600087FC684633F0C0FB04A833F0BDFB09B00D
:1034700030BD10460C4933F08BFCC8E710460B49B1
:1034800033F086FCC3E71046094933F081FCBEE700
:103490001046084933F07CFCB9E700BFF4E90400AA
:1034A00058EC040074EC040080EC04008CEC040084
:1034B0009CEC0400A8EC040030B589B005460C462D
:1034C00004A80D4933F0D0FB0A22691C684633F08A
:1034D00011FC694604A833F0E1FC084933F0E6FC2E
:1034E0000146204633F044FC684633F07DFB04A8D7
:1034F00033F07AFB09B030BDB8EC0400BCEC04003A
:10350000034B1B78032B02D8024B01221A70704721
:1035100080B2FF1F51DCFF1F2DE9F041214F4C24E9
:1035200004FB00748846617A0629164621D0FF29DB
:1035300019D049B11C4B618E53F828000368BDE8CF
:10354000F041D3F8A03018473C21104633F082FCFC
:10355000154B618E53F8280003683246D3F89C302F
:10356000BDE8F041184710461049BDE8F04133F07E
:1035700063BCE37A054683B9104633F06BFC0A4B13
:1035800053F828004C2202FB05750368698ED3F8B6
:103590009C303246BDE8F04118470521104633F013
:1035A00059FCECE7FCE4FF1F888AFF1FC0EC040015
:1035B0002DE9F04100EB001466001C4B112414FBB4
:1035C00001661E4402F1100C14464FF00008FF255E
:1035D000A31A16F801EF14F8017BBE45DBB204D044
:1035E000FF2D08BF1D46377098466445F0D1FF2D6A
:1035F00003D040B10120BDE8F081B8F1000FF8D14F
:103600004046BDE8F081144609480A4629462DF097
:10361000F1FB4545EED8615D05480135EDB22DF071
:1036200055FB4545F7D90120BDE8F0813B03FF1F5D
:103630003478002010B50D4B93F82A30012B14BFBD
:103640000B490C4900EB40028B180446885C9A78C1
:1036500059782DF0EFFE0021024607482DF0E4FED8
:1036600005482DF009FE054B1C7010BD58DCFF1FEE
:103670008C89FF1F048CFF1F647400201CB0FF1F87
:10368000074B084A53F820301278DB7F06499A42EC
:10369000087001D01F2B00D970471846FFF7CABF2A
:1036A000888AFF1F1CB0FF1F758AFF1F10B4094BCB
:1036B000094A19680948137883B083F0010301911E
:1036C000019C0749046001201370087003B05DF885
:1036D000044B70479C8B0020308BFF1F987E00208E
:1036E000648CFF1F00EB800000EB800001F01F01E5
:1036F0000D4B084403EB4000B0F8C40198B10B4AED
:1037000002EB4000B0F8DC30012063B102EB430370
:103710000130B3F8DC3080B2002BF7D1FF2828BF8E
:10372000FF20C0B2704770470002FF1FE834FF1F40
:1037300010B5037A0022022B0446427482B000784E
:1037400026D031F0B5FC08B901236374607831F0FC
:10375000AFFC70B11549637C0968A27C01910199A5
:1037600061619A421FD08BB90120E274A37402B048
:1037700010BD237F002BEDD10C4BA27C1B68019365
:10378000019B636102239A4263740CD00022EBE731
:1037900031F08EFC012808BF6074607831F088FC3D
:1037A0000128D7D1E8E7002002B010BD9C8B002093
:1037B00030B4816D084DC46D82B02B680193019BBC
:1037C000054A1B1B8B42F8D913680093009BC36505
:1037D00002B030BC704700BF9C8B0020064B33F812
:1037E0002000B0F5004F32BF00F1C050C0F30E0012
:1037F00000F10070704700BFACD2040003682DE9EF
:10380000F047D3F83031DFF8388143450746144696
:103810000D4654D1FCF7D4FF0646434521463846B1
:1038200040D1FCF7CDFF002D3FD005F1FF395FFA05
:1038300089F909EB490EC9EBCE0E0EF1080E5FFABD
:103840008EFEC4B304F1FF385FFA88F808EB480332
:10385000C8EBC3030833DBB203F1170C5FFA8CFC2F
:10386000C3EB0E0E03EB0E02F91857FA82F2013386
:10387000DBB292F83BA191F83B4181F83BA1634553
:1038800082F83B41EED19EB3B8F1070F4DD9E0B1BC
:10389000B9F1070F39D9002387F86D5087F8FC314B
:1038A000BDE8F0879847002DBFD14FF0FF094FF0DA
:1038B000080E002CC6D14FF0FF080823CCE798472C
:1038C0003B680646D3F83031A7E7B9F1070FE2D8D5
:1038D00097F8413187F86D50012202FA09F923EA7D
:1038E000090387F84131002387F8FC31BDE8F087F0
:1038F000B8F1070FCBD897F84131012202FA08F846
:1039000023EA080387F84131C1E7012397F84121F1
:1039100087F86D5003FA09F942EA090387F8413143
:10392000002387F8FC31BDE8F087012397F8412197
:1039300003FA08F842EA080387F84131A7E700BF15
:10394000C107000010B51C4CE378172B00D910BD3F
:103950001A4AE17952F823000368D3F8BC3098473B
:1039600008B10138C0B2637A072B20D8DFE803F032
:103970001B1B15041F1F1F1B02B2114B1149607442
:10398000520083FB02E3A1FB0010A3EBE2734008AB
:103990000022E3736073E27210BD42080023E073FB
:1039A0006273E37210BD0023E072637310BD0023E5
:1039B0006073E372CBE700BF688CFF1F888AFF1F2C
:1039C00056555555ABAAAAAA10B40D4A0D491378FD
:1039D000097899420CD9013313700B4A0B480C49F2
:1039E00000230124137004700B705DF8044B7047C2
:1039F000084B1B78002BF0D101231370EDE700BFBB
:103A0000C0BBFF1F328BFF1F4276002051DCFF1F1F
:103A1000347500204376002070B53E4B18448CB0BE
:103A200090F891400E4615469CB1012C59D0022CBD
:103A300014D0032C3CD0043CE3B2172B07D8364BF0
:103A400053F8240003682A4631469B6F98470CB010
:103A500070BD3249104633F09BF9ECE708A83049B5
:103A600033F002F90A22F10904A833F043F904A95A
:103A700008A833F013FA2B4933F018FA0A22044647
:103A800006F07F01684633F035F96946204633F089
:103A900005FA0146284633F06BF9684633F0A4F87E
:103AA00004A833F0A1F808A833F09EF80CB070BD5C
:103AB0000A22283104A833F01DF904A908A833F01C
:103AC000E7F808A8184933F0F1F90146284633F021
:103AD0004FF908A833F088F804A833F085F80CB043
:103AE00070BD08A8114933F0BFF80A22314604A876
:103AF00033F000F904A908A833F0D0F901462846AC
:103B000033F036F904A833F06FF808A833F06CF8F6
:103B10000CB070BD0002FF1F888AFF1FF4EA04008A
:103B200058EC0400CCEC0400D4EC0400C8EC040015
:103B30000E4B184490F89130012B0CD0022B07D07B
:103B4000032B0AD0043BDAB2172A08D900207047A9
:103B500043F6FF7070477F207047D2207047044AB9
:103B600052F8230003685B6F184700BF0002FF1F75
:103B7000888AFF1FF0B5DFF83CE00C4B9EF8007020
:103B80000B4A04305D1D002613F8014F844205D016
:103B9000AB4202F10202F7D126B9F0BD1180012635
:103BA0000327F5E78EF80070F7E700BF9002FF1FCC
:103BB000B07900202D75002000EB8000F8B585005D
:103BC000EDB205F12003084F2A350E46DBB2EDB207
:103BD000FA180133DCB292F87C10304633F03AF92F
:103BE000AC422346F4D1F8BD0002FF1F2DE9F04797
:103BF00091F8088000EB80008400B8F10A0F04F10E
:103C0000200428BF4FF00A08E4B2B8F1000F29D011
:103C1000DFF85CA08946254600263146484633F049
:103C2000B3F96F1C5544037885F87C300136F3B244
:103C3000FFB243453D46F0D34444B8F10A0FE4B225
:103C400013D004F10A03C8EB03085FFA88F82021B7
:103C5000621C0AEB0403D4B2444583F87C10F7D10C
:103C6000BDE8F087DFF808A0EBE7BDE8F08700BF0C
:103C70000002FF1FF0B5154B154D1E78154C06EBD5
:103C800086008000C0B200F12A033430DBB2C0B23B
:103C900035F8021BDFF83CC05A1CE718023354FA0F
:103CA00082F2DBB24FEA212E984287F87CE082F85C
:103CB0007C10EDD1072E07D89CF88F20012303FA42
:103CC00006F616438CF88F60F0BD00BF9079002097
:103CD000B07900200002FF1F084A10B402F141042D
:103CE0008179C37903EBC11302F8013F944200F1DB
:103CF0000200F5D15DF8044B704700BF57DCFF1F91
:103D0000144A4379127801339A4201D00020704757
:103D100090F8A820FF2A1BD030B40F4C0F4B10484E
:103D20004C2505FB0141A0FB0254498EA3FB015326
:103D30005B08B3EB540F02D0012030BC7047A0FBEE
:103D40000131B2EB510F0CBF0120002030BC704795
:103D500001207047E4B1FF1FFCE4FF1F398EE338F8
:103D6000ABAAAAAA094B93F82D20042A00D07047C9
:103D700090F85620002AFAD190F855100029F6D074
:103D8000016880F85520CB6C184700BF58DCFF1F36
:103D900090F8A4305BB990F8A130074A03EB830395
:103DA00001EB430332F8230000F1C050704790F854
:103DB000A2200432D3B2F0E704F403000A7ACB79EC
:103DC00070B412044E7A8C7A0B4D02EB036202EB54
:103DD00006232344AB420AD0084A934205D1CB7A4A
:103DE00080F89D30002380F8573070BC7047CB7A44
:103DF00080F89C3070BC7047003000600038006074
:103E00000B39052906D8DFE801F006090C0F12036B
:103E100080F87124704780F86C24704780F86F2414
:103E2000704780F86D24704780F87024704780F8E0
:103E30006E24704738B5062504462A4609492844A9
:103E400030F08AFA0B2204F10E00074930F084FAB0
:103E50000022922384F89D5084F8902084F89E30AC
:103E600038BD00BFDCEC0400B8EA0400184B10B405
:103E7000A3FB0123DB08DCB2021903EB830390F8F8
:103E8000AD0092F8A620A1EB43039BB288B1022AB1
:103E900084BF0532D2B202EB820203EB42030D492A
:103EA0000D4A31F8230052F824305DF8044B1844D1
:103EB000704702EB820203EB42030649074A31F8DE
:103EC000230052F824305DF8044B1844704700BFBB
:103ED000CDCCCCCC4CCC03002C9404000CD10300F2
:103EE00030B42E4A90F8AD401A2303FB012334BBB3
:103EF000DB88512B36D0522B37D01D0444BFC3F37F
:103F00000E0343F4803303F180531A2505FB01218E
:103F10004A7E8AB102F00F01084402F0F002102A32
:103F200090F8A51027D0202A06D14CBB042931D007
:103F3000052901D103F20123184630BC70471B89C3
:103F4000512B0CD0522B13D01D0444BFC3F30E03CE
:103F500043F4803303F1805303F50033D5E7104871
:103F600030BC70470F4830BC70470F4830BC7047BA
:103F70000E4830BC70470129DED103F20620EFE77E
:103F8000042904D00529D7D103F5FA70E8E703F135
:103F9000F200E5E703F581731846CEE790A204002E
:103FA0003F1008003F1001002110010021100800FF
:103FB000044B82B01B680193019B03F5FA730367FE
:103FC00002B070479C8B002030B5174D2B6883B032
:103FD000044613B34FF407720021184636F090FEE2
:103FE000002384F8A03084F8A1302046FFF7E0FFDA
:103FF0000E4B22681B680193019B0D4903F59C53EE
:1040000008330B602046936D98470A4A0321012329
:10401000117084F86E3003B030BD4FF4077036F085
:104020002DFB28600346D5E768B5FF1F9C8B002059
:10403000E0E1FF1F2D75002030B490F852409DF84C
:1040400008501CB190F82240AC4201D030BC7047FF
:1040500090F821409C42F9D1A1B10C4B9C3003F265
:104060003B15502405E0AB4200F10100EED013F8FF
:10407000154CA14203F11503F5D1141C18BF0124FE
:104080000470F0E780F85020E0E700BF52CE030054
:1040900030B4C1EBC101674B90F89D4089005A18BC
:1040A000957EA54217D890F89C50BDB1538803F473
:1040B0007042B2F5104F00F08A8051D9B2F5304FFE
:1040C0005BD0B2F5404F00F0A280B2F5204F6ED029
:1040D00003F1C04000E0002030BC70475B5A03F49D
:1040E0007042B2F5104F00F0958016D9B2F5304FFE
:1040F00043D0B2F5404F5DD0B2F5204FE8D14E4DE0
:104100004E4990F87621002A5CD0022C5AD9012A17
:10411000E1D103F00F035819DEE7B2F5E04F3ED0CE
:10412000B2F5004FD4D190F87321454C34F83210D9
:10413000D200224403F00F0093799842CBDA08446E
:1041400080B2020604D547F67F73034003F5807002
:10415000002D6BD1B0F5127F57D000F1C040BBE706
:10416000B2F5E04F1BD0B2F5004FB1D190F87321FA
:10417000334CD200A1188988DBE790F878213149C7
:1041800002EB420252008C1803F00F002379984290
:10419000A1DA3DB1638803F1C04318449CE7C3F33F
:1041A0000B0099E78B5A03F1C043184494E7264D5E
:1041B0002649A6E74FF4886540F2334190F877210D
:1041C000002AA2D103F00F00084430BC704790F8D9
:1041D00075211B4CD1006218928802F5007292B2D0
:1041E000214403F07F008B799842BFF674AF1044EE
:1041F00080B2030604D547F67F73034003F5807051
:104200007DB940F254439842A7D1114864E71E2576
:104210001321D3E790F87521094CD1006218528818
:10422000DEE7B0F5577F98D10A4855E7B0F5AE7F85
:1042300093D1F9E7001D0400310100600511006011
:1042400004760400389404004D00006042000060D1
:10425000180700607105006090F89C30DBB1254BB9
:10426000C1EBC10103EB81014B8803F47042B2F54D
:10427000204F1AD020D8B2F5004F35D0B2F5104FEC
:1042800027D190F875111C4A32F8110003F00F0382
:10429000184480B27047C1EBC101164B33F821308E
:1042A00003F47042B2F5204FE4D190F87621012A50
:1042B00014BF07212921E6E7B2F5304F0CD0B2F543
:1042C000404F06D190F87721012A14BF07212921F8
:1042D000D9E74FF6FF70704790F878213AB1012A7C
:1042E00014BF25212821CEE790F87311CBE70221D6
:1042F000C9E700BF001D04007CDFFF1F89291DD80E
:10430000F8B5CE001C4D90F89D70721A05EB820234
:10431000927EBA4210D80C46FFF79EFF4FF6FF730D
:1043200098420DD0B0F5877F06D2144BC0EBC00089
:1043300003EB40004078F8BD0020F8BD0020704736
:10434000282C0ED0182C06D0472C04D0341B05EB9B
:1043500084052879F8BD012F07D9022F07D1252020
:10436000F8BD022FF2D91A20F8BD2420F8BD032F82
:10437000ECD12720F8BD00BF001D040088BD03005C
:104380008929F8B50C461746064615D9164996F8F8
:104390009D30C4EBC40401EB84018A7E9A4205D8A7
:1043A00038460531BDE8F84032F046BD38460F4981
:1043B000BDE8F84032F040BDFFF74EFF4FF6FF7307
:1043C00098420546E2D0E1B23046FFF761FE002890
:1043D000ECD00749C5EBC50501EB45013846023174
:1043E000BDE8F84032F028BD001D0400F4EA0400E6
:1043F00088BD03004A7A0B7A70B412048E7ACC7AA4
:104400000B4D02EB036202EB06232344AB420AD0BE
:10441000084A934205D10B7B80F89D30002380F839
:10442000573070BC70470B7B80F89C3070BC704775
:1044300000100020040800200A7ACB7970B412041E
:104440004E7A8C7A164D02EB036202EB062323446C
:10445000AB4215D0134A93420DD0134A934214D164
:104460004B7D80F89F30CB7A80F8A1300B7C80F8B0
:10447000A23070BC7047CB7A80F89E3070BC704719
:10448000CB7A80F89D3070BC7047084A9342F0D1D7
:10449000CB7A80F8A030002380F8573070BC70478A
:1044A0000320001803210018001000183202001821
:1044B0000E4A4379127801339A4201D000207047A6
:1044C00090F8AE30FF2B08D0094A4C2000FB0121A8
:1044D0004A8ED108B1EB530F01D001207047B3EBE6
:1044E000920F0CBF01200020704700BFE4B1FF1FF6
:1044F000FCE4FF1F0E4A4379127801339A4201D03F
:104500000020704790F89D30FF2B08D0094A4C20BE
:1045100000FB01214A8ED108B1EB530F01D00120DD
:104520007047B3EB920F0CBF01200020704700BF13
:10453000E4B1FF1FFCE4FF1F0E4A437912780133F8
:104540009A4201D00020704790F8AC30FF2B08D081
:10455000094A4C2000FB01214A8ED108B1EB530FD0
:1045600001D001207047B3EB920F0CBF0120002057
:10457000704700BFE4B1FF1FFCE4FF1FF0B590F8E7
:1045800051300F4691B005461646B0F84C10002B3E
:1045900039D02E4CA4FB01310A22C90808A832F0F8
:1045A000A9FB08A90CA832F073FBB5F84C10A4FBCA
:1045B0000134E40804EB8404A1EB44010A2289B22B
:1045C00004A832F097FB04A90CA832F067FC0A2279
:1045D00004463946684632F08DFB6946204632F083
:1045E0005DFC0146304632F023FC684632F0FCFAAE
:1045F00004A832F0F9FA0CA832F0F6FA08A832F062
:10460000F3FA11B0F0BD0A2204A832F073FB04A93A
:104610000CA832F03DFB0A22394608A832F06AFBAA
:1046200008A90CA832F03AFC094932F03FFC0146D7
:10463000304632F0FDFB08A832F0D6FA0CA832F072
:10464000D3FA04A832F0D0FA11B0F0BDCDCCCCCC66
:1046500030EB0400F0B590F851300F4691B00546AC
:104660001646B0F84C10002B39D02E4CA4FB01316B
:104670000A22C90808A832F03DFB08A90CA832F0AC
:1046800007FBB5F84C10A4FB0134E40804EB8404E8
:10469000A1EB44010A2289B204A832F02BFB04A941
:1046A0000CA832F0FBFB0A2204463946684632F079
:1046B00021FB6946204632F0F1FB0146304632F0DC
:1046C000B7FB684632F090FA04A832F08DFA0CA8D5
:1046D00032F08AFA08A832F087FA11B0F0BD0A2247
:1046E00004A832F007FB04A90CA832F0D1FA0A2280
:1046F000394608A832F0FEFA08A90CA832F0CEFB21
:10470000094932F0D3FB0146304632F091FB08A84C
:1047100032F06AFA0CA832F067FA04A832F064FAB0
:1047200011B0F0BDCDCCCCCC30EB040070B590F81E
:1047300051308CB00E46154653B30446552108A897
:1047400032F0ECFAB4F84C100A2204A832F0D2FA93
:1047500004A908A832F0A2FB0A22044631466846A2
:1047600032F0C8FA6946204632F098FB164932F01A
:104770009DFB0146284632F05BFB684632F034FA76
:1047800004A832F031FA08A832F02EFA0CB070BD4D
:1047900008A8552132F0C2FA0A22314604A832F0A4
:1047A000A9FA04A908A832F079FB084932F07EFB87
:1047B0000146284632F03CFB04A832F015FA08A85E
:1047C00032F012FA0CB070BD38EB040034EB040088
:1047D000F0B590F851300F4691B005461646B0F846
:1047E0004C10002B39D02E4CA4FB01310A22C908F1
:1047F00008A832F07FFA08A90CA832F049FAB5F8F7
:104800004C10A4FB0134E40804EB8404A1EB440144
:104810000A2289B204A832F06DFA04A90CA832F079
:104820003DFB0A2204463946684632F063FA69467F
:10483000204632F033FB0146304632F0F9FA684642
:1048400032F0D2F904A832F0CFF90CA832F0CCF94A
:1048500008A832F0C9F911B0F0BD0A2204A832F05C
:1048600049FA04A90CA832F013FA0A22394608A81A
:1048700032F040FA08A90CA832F010FB094932F0D6
:1048800015FB0146304632F0D3FA08A832F0ACF9F5
:104890000CA832F0A9F904A832F0A6F911B0F0BDC5
:1048A000CDCCCCCC30EB04005C2920D8542938B5D1
:1048B00013D915460C46811D104632F0BDFA202151
:1048C000284632F0C7FA0A4BC4EBC401284603EB72
:1048D0004101BDE8384032F0AFBA054BC1EBC10130
:1048E00003EB41011046BDE8384032F0A5BA7047ED
:1048F000C4DF030090F86D3003B9704730B50D4642
:10490000044685B02D21284632F0A4FA94F86D10A3
:10491000684632F0DBF96946284632F089FA684683
:1049200032F062F905B030BD90F86D3003B97047D0
:1049300030B50D46044685B02D21284632F08AFA5E
:1049400094F86D10684632F0C1F96946284632F095
:104950006FFA684632F048F905B030BD90F8522041
:1049600080F8552002B970470268018D536D1847D1
:1049700090F851309BB1B0F84C3003B9E9B1B0F8C0
:104980004820B0F8460003EB8303121A01EB430101
:10499000531CB3EB810FACBF012000207047B0F86F
:1049A0004830B0F846209B1A01EB81010133B3EB8C
:1049B000C10FACBF0120002070470846704700BF00
:1049C00090F86E3093B10133DBB2032B88BF012323
:1049D00080F86E30036810B5D3F808310C4698475C
:1049E000034A044B147001221A7010BD704700BFB7
:1049F00080B2FF1F2D75002090F8513063B1B0F8E0
:104A00004C20B0F8463003EBC200084480B200B935
:104A10007047013880B27047B0F84C30B0F84600AB
:104A200003EB830301EB430100EBC10188B2704744
:104A300090F851309BB190F89030B0F84C20012B99
:104A40000CBF0423082322B98B4234BF002001206D
:104A50007047481E07288CBF002001207047B0F81F
:104A60004C3010B4C3EB0313B0F84840B0F8460024
:104A70005A000323201A13FB01218142CCBF0020DE
:104A800001205DF8044B704790F851308BB1B0F8BD
:104A90004C3003B909B3B0F84820B0F8460003EB36
:104AA0008303101A01EB43018142CCBF0020012097
:104AB000704730B4B0F84C50B0F84640B0F84830C9
:104AC000642202FB05F00A2212FB01011B1B994222
:104AD000CCBF0020012030BC70470846704700BFA3
:104AE00003790022022B80F8532000D0704790F801
:104AF0005230002BFAD1012380F8221080F89C302C
:104B0000704700BF90F8513093B1B0F84C3003B902
:104B1000D9B1B0F84820B0F8460003EB830301EBAD
:104B20004301131AB3EB810FACBF01200020704783
:104B3000B0F84830B0F8462001EB81019B1AB3EB86
:104B4000C10FACBF0120002070470846704700BF6E
:104B50004B1E072B08D890F86D308B4204D0034BC6
:104B600080F86D1001221A70704700BF51DCFF1FE2
:104B700090F8A32002B970470368D3F8943018471F
:104B800090F8522002B97047026890F85510D2F898
:104B9000982080F8A31010470379022B01D0084613
:104BA0007047002370B41A4600F19C0403E0013200
:104BB000D2B25D2B0AD014F8015FDEB20133002DB2
:104BC000F7D09142F3D1B0B270BC70474FF6FF708E
:104BD00070BC704790F8513083B1B0F84C3090F809
:104BE0002C0003EB830301EB430189B281422CBF0C
:104BF000C0EB0100C0EB000080B27047B0F84C0081
:104C000001EB810100EB8000490000EB800001EB2B
:104C1000800080B2704700BF90F8513073B9B0F88F
:104C20004C20B0F84800642303FB02F20A2313FB74
:104C300001218142CCBF0020012070470120704734
:104C400038B5B0F848408C4205D3036804460D4699
:104C50005B6D9847258538BDA1F10E02012A01D868
:104C6000802070470368074AD3F8B830934210B5E4
:104C70000C4605D11020844234BF0220002010BD14
:104C80009847F8E7850A0000A1F10C03032B0DD922
:104C90000368084AD3F8B830934210B50C4607D1E0
:104CA0001420844234BF0220002010BD80207047B1
:104CB0009847F6E75509000030B503680F4DD3F863
:104CC000B830AB4283B00C4613D11920A04206D8AD
:104CD0000B49104603B0BDE8304032F059B80949DD
:104CE00004EB04141046214403B0BDE8304032F018
:104CF0004FB801929847019AE8E700BF750C000091
:104D0000A0F70400541B040030B504680E4DD4F81D
:104D1000B840AC4285B010D11920884206D80B4962
:104D2000184605B0BDE8304032F086B81946104646
:104D300005B0BDE83040FEF7BFB803930292019181
:104D4000A04701A90EC9E8E7750C0000E4EC0400D7
:104D500030B50368104DD3F8B830AB4283B00C4681
:104D600015D1B120A04206D80C49104603B0BDE8C9
:104D7000304032F00DB80A4904EB440401EBC401A1
:104D80001046033103B0BDE8304032F001B8019263
:104D90009847019AE6E700BFD50C0000A0F7040091
:104DA0000C090400F0B504683A4FD4F8B840BC428E
:104DB0008BB016461D462ED1B120884225D93648E3
:104DC00001EB410100EBC101898A0BB2002B4ADDE6
:104DD00047F61643994222D047F6174399424BD0E3
:104DE00047F61543994220D031442C4B013903EB4F
:104DF000C10106A831F038FF06A9284632F018F89C
:104E000006A831F0F1FE0BB0F0BD2846244932F07F
:104E100013F80BB0F0BD0191A0470199CDE77100E7
:104E200006A80A2231F066FFE6E7312E26D9322E97
:104E30002BD0EED91B4906A831F016FFA6F132019E
:104E40000A2202A831F056FF02A906A832F026F87D
:104E50000146284631F0ECFF02A831F0C5FE06A855
:104E600031F0C2FED5E7012E28460CBF0E490F498E
:104E700031F0E2FF0BB0F0BD3146D1E70C4906A896
:104E800031F0F2FEC6F13201DAE72846094931F085
:104E9000D3FFBEE7D50C00000C09040048D3040082
:104EA000A0F7040090F204002CF5040064EB040069
:104EB0005CEB040060EB040030B503680D4DD3F8E3
:104EC000B830AB4283B00C4610D10620A04206D8C1
:104ED0000949104603B0BDE8304031F059BF1146D2
:104EE000204603B0BDE83040FEF7E6BA019298478D
:104EF000019AEBE7990D0000A0F7040003680B4A44
:104F0000D3F8B830934205D1062088428CBF0220E6
:104F10000020704700B583B00191984701998842FD
:104F20008CBF0220002003B05DF804FB990D000047
:104F300030B504680F4DD4F8B840AC4285B012D1FA
:104F400006208842184608D9012A0CBF0A490B4995
:104F500005B0BDE8304031F06FBF094905B0BDE88C
:104F6000304031F069BF039302920191A04701A93B
:104F70000EC9E6E7990D00002CF5040064EB04006F
:104F8000A0F7040030B503680F4DD3F8B830AB423A
:104F900083B00C4614D10920A04206D80B49104614
:104FA00003B0BDE8304031F0F3BE094904EB84049E
:104FB000104601EB440103B0BDE8304031F0E8BEDB
:104FC00001929847019AE7E7450B0000A0F704001B
:104FD000E8E6030030B504680E4DD4F8B840AC42A2
:104FE00085B010D10920884206D80B49184605B073
:104FF000BDE8304031F020BF1946104605B0BDE88D
:105000003040FDF759BF039302920191A04701A9D7
:105010000EC9E8E7450B0000E4EC040010B5036896
:10502000104CD3F8B830A34282B015D10F2088427B
:1050300006D80D49104602B0BDE8104031F0A8BEB8
:105040000A4B01EB4101C1EBC1011046194402B00A
:10505000BDE8104031F09CBE8DE8060098479DE801
:105060000600E4E7550B0000A0F704002CCE030077
:1050700030B504680E4DD4F8B840AC4285B010D1BC
:105080000F20884206D80B49184605B0BDE83040CD
:1050900031F0D2BE1946104605B0BDE83040FDF7EC
:1050A0000BBF039302920191A04701A90EC9E8E743
:1050B000550B0000E4EC040030B503680F4DD3F845
:1050C000B830AB4283B00C4614D16320A04206D85E
:1050D0000B49104603B0BDE8304031F059BE094BD2
:1050E0001A2101FB043110460B3103B0BDE83040FA
:1050F00031F04EBE01929847019AE7E7110C00008B
:10510000A0F7040090A2040030B503680F4DD3F857
:10511000B830AB4283B00C4614D15D20A04206D813
:105120000B49104603B0BDE8304031F031BE0949AB
:10513000C4EBC404104601EB440103B0BDE83040A9
:1051400031F026BE01929847019AE7E7C9060000B0
:10515000A0F70400C4DF030030B50368104DD3F896
:10516000B830AB4283B00C4615D10820A04206D817
:105170000C49104603B0BDE8304031F009BE04EBE5
:105180008403094904EB43041046214403B0BDE8FD
:10519000304031F0FDBD01929847019AE6E700BF2B
:1051A0000D070000A0F70400B6D0030003680B4A07
:1051B000D3F8B830934205D1082088428CBF022032
:1051C0000020704700B583B001919847019988424B
:1051D0008CBF0220002003B05DF804FB0D07000027
:1051E00030B504680F4DD4F8B840AC4285B012D148
:1051F00008208842184608D9012A0CBF0A490B49E1
:1052000005B0BDE8304031F017BE094905B0BDE832
:10521000304031F011BE039302920191A04701A9E1
:105220000EC9E6E70D0700002CF5040064EB04004E
:10523000A0F7040030B50368104DD3F8B830AB4286
:1052400083B00C4615D12F20A04206D80C49104639
:1052500003B0BDE8304031F09BBD0A4904EB440483
:1052600001EBC4011046093103B0BDE8304031F014
:105270008FBD01929847019AE6E700BF1107000031
:10528000A0F7040014020400F0B504683B4FD4F802
:10529000B850BD428BB016461C462FD12F208842F5
:1052A00026D9374801EB410100EBC101898A0BB2D5
:1052B000002B4BDD47F61643994223D047F61743A0
:1052C00099424CD047F61543994221D08A19013AA8
:1052D0002C4902EBC202114406A831F0C5FC06A914
:1052E000204631F0A5FD06A831F07EFC0BB0F0BDE4
:1052F0002046254931F0A0FD0BB0F0BD0191A84733
:105300000199CCE7710006A80A2231F0F3FCE6E728
:105310003F2E26D9402E2BD0EED91C4906A831F0BD
:10532000A3FCA6F132010A2202A831F0E3FC02A993
:1053300006A831F0B3FD0146204631F079FD02A800
:1053400031F052FC06A831F04FFCD5E7012E204683
:105350000CBF0F490F4931F06FFD0BB0F0BD314666
:10536000D1E70D4906A831F07FFCC6F13201DAE73A
:1053700020460A4931F060FDBEE700BF110700007A
:1053800014020400CCFC0400A0F7040090F2040016
:105390002CF5040064EB04005CEB040060EB0400FB
:1053A00030B50368104DD3F8B830AB4283B00C462B
:1053B00015D13020A04206D80C49104603B0BDE8F4
:1053C000304031F0E5BC0A4904EB440401EBC40170
:1053D0001046093103B0BDE8304031F0D9BC01922C
:1053E0009847019AE6E700BF9D070000A0F7040078
:1053F00014DA0300F0B50468394FD4F8B850BD4250
:105400008BB016461C4628D1302088421FD935481B
:1054100001EB410100EBC101898A0BB2002B49DD90
:1054200047F6154399421CD03AD347F617439942A1
:1054300036D8314606A80A2231F05CFC06A920467F
:1054400031F0F6FC06A831F0CFFB0BB0F0BD2046E2
:10545000254931F0F1FC0BB0F0BD0191A84701994D
:10546000D3E73F2E2FD9402E34D0F4D91F4906A8B8
:1054700031F0FAFBA6F132010A2202A831F03AFC1F
:1054800002A906A831F00AFD0146204631F0D0FC01
:1054900002A831F0A9FB06A831F0A6FB0BB0F0BDC5
:1054A0008A19013A124902EBC202114406A831F0EE
:1054B000DBFBC3E7012E20460CBF0E490E4931F03D
:1054C000BBFC0BB0F0BD0D4906A831F0CDFBC6F119
:1054D0003201D1E720460A4931F0AEFCBBE700BFFC
:1054E0009D07000014DA0300A0F7040090F2040006
:1054F00018D103002CF5040064EB04005CEB0400FD
:1055000060EB040030B50368104DD3F8B830AB42FF
:1055100083B00C4615D11020A04206D80C49104685
:1055200003B0BDE8304031F033BC04EB440309491B
:1055300004EB83041046214403B0BDE8304031F051
:1055400027BC01929847019AE6E700BF850A000050
:10555000A0F704001875040030B504680E4DD4F8A7
:10556000B840AC4285B010D11020884206D80B4913
:10557000184605B0BDE8304031F05EBC1946104613
:1055800005B0BDE83040FDF797BC0393029201914E
:10559000A04701A90EC9E8E7850A0000E4EC040071
:1055A00010B503680F4CD3F8B830A34282B012D1C3
:1055B0001420884206D80C49104602B0BDE81040BD
:1055C00031F0E6BB094B104603EB011102B0BDE818
:1055D000104031F0DDBB8DE8060098479DE80600DD
:1055E000E7E700BF55090000A0F70400607704005A
:1055F00030B504680E4DD4F8B840AC4285B010D137
:105600001420884206D80B49184605B0BDE8304042
:1056100031F012BC1946104605B0BDE83040FDF728
:105620004BBC039302920191A04701A90EC9E8E780
:1056300055090000E4EC0400F8B50368444DD3F8C4
:10564000B830AB4206460C46174659D18A20A042D4
:1056500043D9892C56D821463046FEF7FDFD4FF63A
:10566000FF73984205464DD096F89C3023B3394BD2
:10567000C4EBC40403EB8404638803F47043B3F500
:10568000204F23D02FD8B3F5004F4ED0B3F5104F95
:1056900059D13149384631F07BFB96F875212F49B5
:1056A000C5EBC5056D004B5D934245D038462C498E
:1056B000BDE8F84031F0C0BBC4EBC404254B33F85F
:1056C000243003F47043B3F5204FDBD196F87631E4
:1056D000012B14BF07222922E1E738462149BDE802
:1056E000F84031F055BBB3F5304F16D0B3F5404F0D
:1056F00029D196F87731012B14BF07222922CEE752
:105700009847A4E7134BC4EBC40403EB8401384669
:105710000531BDE8F84031F03BBB96F87831A3B1D4
:10572000012B0CBF28222522B9E70F49384631F05A
:105730002FFB96F87321B2E7294438460231BDE8C1
:10574000F84031F079BB0022A9E70222A7E700BFA9
:10575000190A0000001D040068EB040088BD030066
:10576000F4EA0400A0F70400E8EC04002DE9F0419D
:105770000468DFF8B4E2D4F8B880F04588B0074692
:105780000C4615461E462ED18A20A04224D9892CCB
:105790002BD838462146FEF75FFD4FF6FF7398423F
:1057A00023D0904BC0EBC00003EB4000828913B2C2
:1057B000002B23DDA2F5F8430E3B092B00F2E78016
:1057C000DFE813F035005400AC007C008100560087
:1057D0006B00C100E00026003046834931F02CFB0D
:1057E00008B0BDE8F081C047CFE7804BC4EBC404EC
:1057F00003EB8404E28A13B2002BDBDC012D30467C
:105800000CBF7B497B4931F017FB08B0BDE8F08144
:10581000294604A80A2231F06DFA04A9304631F075
:1058200007FB04A831F0E0F908B0BDE8F081182DBD
:1058300000F2C380A5F1180101EBD1710A224910D1
:1058400004A831F057FA04A9304631F0F1FA04A85F
:1058500031F0CAF9EB0754BF67496849304631F067
:10586000EBFA3046664931F0E7FAB9E7691CD0E750
:10587000142D00F2A7800A22A5F1140104A831F02A
:1058800039FA04A9304631F0D3FA04A831F0ACF962
:1058900030465B4931F0D0FAA2E729460A2204A833
:1058A00031F028FA04A9304631F0C2FA04A831F0E8
:1058B0009BF93046534931F0BFFA91E7182D77D85C
:1058C000A5F11801A5E701354F4CADB2A4FB053495
:1058D000E4080A22214604A831F00CFA04A9304653
:1058E00031F0A6FA04A831F07FF904EB84044749AB
:1058F000304631F0A1FAA5EB44010A2289B204A88E
:1059000031F0F8F904A9304631F092FA04A831F0E8
:105910006BF930463E4931F08FFA61E70A22690897
:1059200004A831F0E7F904A9304631F081FA04A85F
:1059300031F05AF905F001053449304631F07CFA6E
:10594000A9002944AAE73F2D2BD9402D44D07FF64A
:1059500047AF304904A831F087F9A5F132010A2296
:10596000684631F0C7F9694604A831F097FA014654
:10597000304631F05DFA684631F036F904A831F06E
:1059800033F92DE7322D22D8A5F1320141E72A441F
:10599000013A214902EBC202114404A831F064F932
:1059A0003BE71E4904A831F05FF9C5F13201D6E7A3
:1059B0001B49304631F040FA82E71949304631F050
:1059C0003BFA37E71649304631F036FA53E71449C7
:1059D000304631F031FAD7E73046124931F02CFA2F
:1059E000FEE600BF88BD0300A0F70400001D040010
:1059F0002CF5040064EB0400FCEC040000ED040052
:105A0000F8EC0400F0EC0400CDCCCCCCA4F60400FF
:105A100004ED040090F20400A4AC04005CEB04006C
:105A2000F4EC040060EB0400190A000030B50368D0
:105A3000104DD3F8B830AB4283B00C4615D11020CE
:105A4000A04206D80C49104603B0BDE8304031F002
:105A50009FB904EB44030949C4EBC3041046214435
:105A600003B0BDE8304031F093B901929847019AF4
:105A7000E6E700BF850A0000A0F7040090DE0400FE
:105A8000F8B5A1F10E05012D1DD91D460368174675
:105A9000D3F8B830104A93420C461AD110208442F1
:105AA000284606D2012F09D00C49BDE8F84031F054
:105AB000C3B90B49BDE8F84031F0BEB90949BDE8AA
:105AC000F84031F0B9B919461046BDE8F840FDF785
:105AD000F3B99847E3E700BF850A000008ED04002A
