:1000000000000320D10100009139020049390200AB
:1000100049390200493902004939020049390200D0
:100020004939020049390200493902009139020078
:100030009139020049390200255702002957020070
:100040009139020091390200913902009139020080
:100050009139020091390200913902009139020070
:100060009139020091390200913902009139020060
:100070009139020091390200913902009139020050
:100080009139020091390200913902009139020040
:100090009139020091390200913902009139020030
:1000A0006DFB010079FB01009139020091390200DA
:1000B000913902009139020091390200C5670200AE
:1000C00091390200356F0200913902009139020026
:1000D00091390200913902009139020091390200F0
:1000E000913902009139020091390200393302003E
:1000F00091390200913902009139020091390200D0
:10010000755A0200895A02009D5A0200B15A020033
:1001100091390200F942020091390200913902003E
:10012000913902009139020091390200913902009F
:10013000913902009139020091390200913902008F
:10014000913902009139020091390200913902007F
:10015000913902009139020091390200913902006F
:10016000913902009139020085FB010091390200AA
:10017000913902009139020091390200913902004F
:10018000913902009139020091390200913902003F
:10019000913902009139020091390200913902002F
:1001A00091390200913902009139020091FB01005E
:1001B000913902009139020091390200913902000F
:1001C00091390200913902009139020091390200FF
:1001D0005C4B4CF2205210B51A804DF628121A8052
:1001E00000BF00BF23F0D8FB574B4FF030621A60BE
:1001F000564A9A60564ADA60564B4FF470021A60BB
:10020000554B564A1A60564B1A78110703D51A787F
:1002100042F008021A70534B5349AA221A70534AEB
:10022000534B8B4204D252F8040F43F8040BF8E707
:10023000504B514900228B4202D243F8042BFAE77B
:100240004E494F4A002352F8230041F8230001335E
:10025000742BF8D14B4B4C4A802103F8011B93427D
:10026000FBD14A4B454A1A60494B8A221A70A3F5C2
:10027000805324225A70A0221A709A799207FCD5D2
:100280009A79D406FCD4434A937903F00C03082BE3
:10029000FAD1414B60221A7002331A78802AFCD1BD
:1002A0003C4B01221A715D225A719A799006FCD555
:1002B0009979384A4906FBD5384B394919600021EC
:1002C000596020231370937903F00C030C2BFAD19F
:1002D000344B354A1A60354A354C136813F4807331
:1002E00003D123604FF4A8531360324B324A1A6093
:1002F00000225A60072243F8042C304AC3F80C2D20
:1003000062B623F067FE2368DA0705D52C4823F090
:100310001FFC2C4B2C4A1A602C4B1B785B0609D512
:10032000284C294B22689A4204D1254823F010FC1E
:100330000023236027F0B4F823F034FB25F008FEF7
:10034000FEE700BF0E20054030800440823F0400DD
:100350000100002B88ED00E0002008E0030000858C
:1003600002D0074000E007404822FF1FE4A303003B
:100370005008FF1F0030FF1FA88900200002FF1F48
:100380000000000000E400E064E400E008ED00E0AC
:10039000005006400040064001E007404480044011
:1003A0000000060204800440C010070010D0034083
:1003B00014D0034014E000E01FBF02000000202022
:1003C000A737C55F1CE00340A5C3945A00F007405F
:1003D000FFFFFFFFFFFFFFFFFFFFFFFFFFFFFFFF2D
:1003E000FFFFFFFFFFFFFFFFFFFFFFFFFFFFFFFF1D
:1003F000FFFFFFFFFFFFFFFFFFFFFFFFFFFFFFFF0D
:10040000FFFFFFFFFFFFFFFFFFFFFFFFDEF9FFFF23
:1004100010B5054C237833B9044B13B10448AFF33E
:1004200000800123237010BD0030FF1F000000007A
:10043000E0A30300084B10B51BB108490848AFF30F
:1004400000800848036803B910BD074B002BFBD0A0
:10045000BDE81040184700BF000000000430FF1F37
:10046000E0A303004822FF1F0000000000207047A7
:10047000704700BF704700BF704700BF704700BFA4
:10048000704700BF704700BF2DE9F041DFF83480AE
:100490000A4C98F800300A4F1E1104F1380501E0AB
:1004A00098F8003054F8040FB95D02681943D26916
:1004B0009047AC42F4D1BDE8F08100BF3809FF1F7E
:1004C000E86C0020C4BBFF1F704700BF30B490F839
:1004D00020409DF808509C4201D030BC704790F8F5
:1004E0002130AB42F9D10029F7D180F84C20F4E754
:1004F000704700BF704700BF044A4379107801334A
:10050000181AB0FA80F04009704700BFF60C0020BE
:1005100070B4838C0A4C42790A4D0B49B0F84A609A
:100520002E70A4FB03430132642500245B090A708A
:10053000A0F84A5080F84D40A0F8483070BC704791
:100540001F85EB519976FF1FF60C00200368DB6FC7
:10055000184700BF01EBC10301EB43018900064AC4
:1005600001F11C032C3113440A44202103F8011F1C
:100570009342FBD1012070478857FF1F002070472E
:10058000002070470368D3F8983018470846704732
:1005900001EBC10301EB43018900064A01F11C0391
:1005A0002C3113440A44202103F8011F9342FBD14C
:1005B000704700BF8857FF1F002380F86610A0F81F
:1005C000643070470020704700207047704700BFBC
:1005D000704700BF704700BF90F86A304BB10133DD
:1005E000DBB2022B88BF012380F86A30014B022264
:1005F0001A707047580B002001EBC10301EB430157
:100600008900064A01F11C032C3113440A442021BD
:1006100003F8011F9342FBD1012070478857FF1F49
:10062000704700BF00207047704700BF5D207047D3
:10063000542901D8022070475D2934BF8020002052
:10064000704700BF0379022B06BF90F8F20040000C
:100650005D20704790F8F300704700BF0820704796
:100660002F2070472E299DBF024B03EB4111087AC2
:1006700000207047D4D7020043790A4A0A4910B4CF
:100680000133B0F84A4014700B704FF49674002296
:10069000A0F84A40A0F8482080F84D205DF8044BAF
:1006A000704700BF9976FF1FF60C002090F84D3080
:1006B0004BB9C1EB0111490089B2022986BF033948
:1006C00088B200207047B0F8483001EB4101C3EB1D
:1006D000031301EB430189B2EFE700BF2E207047FF
:1006E0002D299DBF024B03EB4111087A0020704772
:1006F0001848030008207047022380F86A307047CA
:1007000043790A4A0A4910B40133B0F84A401470D8
:100710000B704FF4C8740022A0F84A40A0F848209B
:1007200080F84D205DF8044B704700BF9976FF1F9D
:10073000F60C00200F2907D801EBC102034B01EB97
:1007400042011944887C70470020704754580300C8
:1007500010B40AB990F86A20012A1FD0022A1BD0CF
:10076000032A0CBF0D2400240D4A01EBC10001EB4C
:1007700040004C2303FB0121800000F11C032C30BE
:1007800013444C860244202103F8011F9342FBD1FD
:1007900001205DF8044B70470C24E5E70B24E3E7E8
:1007A0008857FF1F43790D4990F8952030B40C4CC1
:1007B000B0F84A50257001330B7052B14FF4FA7300
:1007C000A0F84A300023A0F8483080F84D3030BC03
:1007D00070476423A0F84A30F4E700BFF60C00200D
:1007E0009976FF1F1220704790F86A304BB10133A1
:1007F000DBB2032B88BF012380F86A30014B012252
:100800001A707047580B002010B40AB990F86A208B
:10081000012A1FD0022A1BD0032A0CBF0D2400245A
:100820000D4A01EBC10001EB40004C2303FB012109
:10083000800000F11C032C3013444C86024420211C
:1008400003F8011F9342FBD101205DF8044B704770
:100850000C24E5E70B24E3E78857FF1F4379094A97
:10086000094910B40133B0F84A4014700B70502499
:100870000022A0F84A40A0F8482080F84D205DF8FA
:10088000044B70479976FF1FF60C00208A207047B2
:1008900090F866300BB98A207047024A134413F867
:1008A000010C70475C710020F0B490F86660CEB126
:1008B00000230F4A1D460B2403E08A2B0ED012F8AA
:1008C0001C4CB442DFB202F11C0203F10103F4D16B
:1008D000A9420AD001358A2BEDB2F0D14FF6FF7054
:1008E000F0BC70470846F0BC7047B8B2F0BC704727
:1008F00001090300704700BF1020704790F86A306C
:100900004BB10133DBB2022B88BF012380F86A3080
:10091000014B01221A707047580B002030B40AB9FD
:1009200090F86A20012A20D0022A12D001EBC103DC
:1009300001EB430189000E4A01F11C032C311344E1
:100940000A44202103F8011F9342FBD1012030BC4F
:1009500070470F23064C05684C2202FB01441A46DF
:100960006386D5F8943030BC18470E23F2E700BFF9
:100970008857FF1F0120704721B109298CBF002033
:1009800001207047084670474379094A094910B465
:100990000133B0F84A4014700B7024240022A0F8F0
:1009A0004A40A0F8482080F84D205DF8044B70477D
:1009B0009976FF1FF60C002009207047082994BF84
:1009C00002200020704700BF704700BF0F20704713
:1009D0000E2907D8044B01EB4101C1EBC1011944B9
:1009E000887C70470020704708DE02000C4A01EB4B
:1009F000C10001EB40004C2303FB0121800010B437
:100A000000F11C030E242C304C8613442021024498
:100A100003F8011F9342FBD101205DF8044B70479E
:100A20008857FF1F43790A4A0A4910B40133B0F8C6
:100A30004A4014700B704FF4C8740022A0F84A406A
:100A4000A0F8482080F84D205DF8044B704700BFA7
:100A50009976FF1FF60C002090F84D3043B901EB5A
:100A60008101C900032986BF043988B2002070477C
:100A7000B0F8483003EB830301EB4301890089B2EE
:100A8000F0E700BF18207047172906D8044B01EB88
:100A9000C10103EB8101087B70470020704700BF54
:100AA00084F60200102070471531C8B2704700BFAD
:100AB00090F86A304BB10133DBB2022B88BF0123BF
:100AC00080F86A30014B01221A707047580B0020E1
:100AD000026890F84E1080F85110526C818C1047CB
:100AE000B0207047C12906D8044B01EB410103EB4C
:100AF000C101887870470020704700BFBC8A03009E
:100B000090F866300BB9C2207047024A134413F8BC
:100B1000010C704734380020F0B490F86660CEB114
:100B200000230F4A1D460C2403E0C22B0ED012F8FE
:100B3000184CB442DFB202F1180203F10103F4D100
:100B4000A9420AD00135C22BEDB2F0D14FF6FF70A9
:100B5000F0BC70470846F0BC7047B8B2F0BC7047B4
:100B6000EB8A03002720704710B4054C4C2000FB93
:100B7000014181F8303081F83C205DF8044B70472A
:100B80008857FF1F90F86A304BB10133DBB2022B5C
:100B900088BF012380F86A30014B01221A70704728
:100BA000580B00200620704710B4094A09481378F2
:100BB0000949012B84BF03F1FF331370074A002357
:100BC0000124137004700B705DF8044B704700BF74
:100BD0009B76FF1F7056FF1F75710020060D0020C9
:100BE00010B4084A0848137808490F2B9CBF0133FA
:100BF0001370074A00230124137004700B705DF812
:100C0000044B70479B76FF1F7056FF1F75710020C5
:100C1000060D0020704700BF10B5044B044640F895
:100C2000303B24F065FF204610BD00BF502003007C
:100C300010B5044B044640F8303B24F059FF2046E1
:100C400010BD00BF5020030010B5044B044640F80F
:100C5000303B24F04DFF204610BD00BF5020030064
:100C600010B5044B044640F8303B24F041FF2046C9
:100C700010BD00BF5020030010B5044B044640F8DF
:100C8000303B24F035FF204610BD00BF502003004C
:100C900010B5044B044640F8303B24F029FF2046B1
:100CA00010BD00BF5020030010B5044B044640F8AF
:100CB000303B24F01DFF204610BD00BF5020030034
:100CC00010B5044B044640F8303B24F011FF204699
:100CD00010BD00BF5020030010B5044B044640F87F
:100CE000303B24F005FF204610BD00BF502003001C
:100CF00010B5044B044640F8303B24F0F9FE204682
:100D000010BD00BF5020030010B5044B044640F84E
:100D1000303B24F0EDFE204610BD00BF5020030004
:100D200010B5044B044640F8303B24F0E1FE204669
:100D300010BD00BF5020030010B5044B044640F81E
:100D4000303B24F0D5FE204610BD00BF50200300EC
:100D500010B5044B044640F8303B24F0C9FE204651
:100D600010BD00BF5020030008B5C82023F0E0F8F4
:100D7000014B024A1A6008BD0CED00E00400FA05C0
:100D800070B50C4C04F1100514F8011F0A4824F04A
:100D9000EDFFAC42F8D1094A094B107809491870A7
:100DA000094D0A4C082602200123167008702B708A
:100DB000237070BD9475FF1F200D00205B1700206D
:100DC00053330020580B0020FA0C00207056FF1FF0
:100DD00038B504460023CD2200F1300580F88C2080
:100DE0001121237184F88D3084F88E3084F88F308F
:100DF000284624F085FE2846034924F055FF0123A8
:100E000084F8523038BD00BF24B3020010460149B7
:100E100024F04ABF38B302001846014924F044BF09
:100E200048B302001046014924F03EBF4CB3020013
:100E30001046014924F038BF58B30200104601495A
:100E400024F032BF48B30200811D104624F080BF59
:100E50001046014924F07CBF60B30200072900D985
:100E6000704701EB4101034BC1EBC101104619442E
:100E700024F06EBF127F0300034B03EB41111046B9
:100E8000093124F065BF00BFD4D70200034B03EB48
:100E900041111046093124F05BBF00BF1848030020
:100EA00010B401EBC103044C01EB43012144104693
:100EB0005DF8044B24F04CBF54580300044B10B4AD
:100EC000162404FB013110465DF8044B24F040BFAA
:100ED000B081030010B401EB4103044CC1EBC3012A
:100EE000214410465DF8044B24F032BFFC3B030064
:100EF000034B01EB8101104603EB410124F028BFB5
:100F0000B45B030001EB4101034BC1EBC10110468F
:100F1000194424F01DBF00BF08DE0200044B01EBA2
:100F2000C10103EB810110460D3124F011BF00BF58
:100F300084F60200044B01EB410103EBC1011046B2
:100F4000033124F005BF00BFBC8A0300262903D962
:100F50001046054924F0FCBE044B01EB410110464C
:100F600003EBC10124F0F4BE7CBC0200AC540300CE
:100F7000262903D91046064924F0EABE054B01EBA9
:100F8000410103EBC10110460E3124F0E1BE00BF68
:100F90007CBC0200AC54030070B501EB41030C466D
:100FA0001F49C4EBC303054619441046164624F0F6
:100FB000CFFE0B2C00D970BD3A21304624F0D6FE6E
:100FC000AB8C184A1849126803EB4303C3EB0313B5
:100FD0001A4422440023547D92F82120184606E04A
:100FE0000133712B01F1130114D011F8130C844259
:100FF000DDB2F5D111F8120C9042F1D155B103EBED
:10100000C3020A4903EB420330461944BDE870406D
:1010100024F09EBE30460649BDE8704024F098BEDC
:101020000D3C030068710020F7170300E61703006A
:1010300070B3020030B589B00D4604A80B491446C0
:1010400024F096FD2946684624F0C4FD694604A8AC
:1010500024F0B0FE0146204624F076FE684624F0D7
:1010600047FD04A824F044FD09B030BD74B302006C
:1010700030B589B00D4604A80B49144624F078FD1C
:101080002946684624F0A6FD694604A824F092FE8D
:101090000146204624F058FE684624F029FD04A8A5
:1010A00024F026FD09B030BD7CB3020070B50F4CB2
:1010B000A4FB0134E4080D4604F1410184B0C9B237
:1010C000104604EB8404164624F050FEA5EB4401C0
:1010D0000A2289B2684624F091FD6946304624F020
:1010E00033FE684624F004FD04B070BDCDCCCCCCFA
:1010F0002DE9F041454FA7FB01346408622C8CB008
:101100000D46164673D990F8933003F13102B4EBD3
:10111000420F804670DC62339C4256DC3C493046CC
:1011200024F016FE6FF494731D44ADB2A7FB053492
:10113000C4F34F040134374FE4B2A7FB0437FF0870
:1011400039460A22684624F059FD07EB87076946AD
:1011500008A824F021FDA4EB47010A22C9B204A883
:1011600024F04CFD04A908A824F024FE01463046D2
:1011700024F0EAFD04A824F0BBFC08A824F0B8FC85
:10118000684624F0B5FC08A8234924F0F1FC1F4967
:10119000A1FB0531490801EB4101691A89B20A2214
:1011A000013104A824F02AFD04A908A824F002FEB5
:1011B0000146304624F0C8FD04A824F099FC08A894
:1011C00024F096FC0CB0BDE8F0811449304624F0C0
:1011D000BFFD98F8933003EB4303C3F57E43D73349
:1011E0001D44ADB2A7FB0534C4F34F04A2E755215B
:1011F000104624F0BBFD9DE70949304624F0A8FDC8
:1012000098F8933003EB43035B00E6E7ABAAAAAA86
:10121000B4B30200CDCCCCCC48B3020034BB020046
:1012200088B302002DE9F04390F8953095B00C4654
:101230001546002B51D1042948D90C1F08A856493E
:1012400024F096FC5549A4B2A1FB04310A224909B5
:1012500004A824F0D3FC04A908A824F0ABFD504B4B
:10126000A3FB0426F608B1B2A3FB0123DB0803EBC2
:101270008303A1EB430107460A2289B20CA824F09C
:10128000BDFC0CA9384624F095FD06EB8606A4EBC0
:1012900046010A22074689B210A824F0AFFC10A923
:1012A000384624F087FD0146284624F04DFD10A85D
:1012B00024F01EFC0CA824F01BFC04A824F018FC4D
:1012C00008A824F015FC15B0BDE8F0831046354998
:1012D00024F03EFD15B0BDE8F083314E2F49A6FB4A
:1012E0000437BF0807F10109A1FB09310A22A6FB57
:1012F0000938C1F34F11684624F080FC4FEAD80842
:10130000694608A824F048FC1FFA88F1A6FB0136BC
:10131000F60806EB8606A1EB46010A2289B204A86C
:1013200024F06CFC04A908A824F044FD08EB88080C
:10133000A9EB48010A22064689B20CA824F05EFCFB
:101340000CA9304624F036FD174924F03BFD07EB8D
:101350008701611A89B20A220646013110A824F0D9
:101360004DFC10A9304624F025FD0146284624F006
:10137000EBFC10A824F0BCFB0CA824F0B9FB04A8DB
:1013800024F0B6FB08A824F0B3FB684624F0B0FBB9
:1013900015B0BDE8F08300BF94B302001F85EB5188
:1013A000CDCCCCCC8CB3020048B30200F0B590F8A1
:1013B000953091B004460F461646002B36D190F872
:1013C0004D30002B75D190F84810614D01EB810133
:1013D00007EB4104E4B2A5FB0435ED0829460A22D7
:1013E00004A824F00BFC05EB850504A90CA824F047
:1013F000D3FBA4EB4501C9B20A2208A824F0FEFBE6
:1014000008A90CA824F0D6FC524924F0DBFC0146C4
:10141000304624F099FC08A824F06AFB0CA824F0BC
:1014200067FB04A824F064FB11B0F0BD90F84D30C8
:10143000002B69D0B0F84810454DA5FB01310A22B8
:10144000C908684624F0DAFB694608A824F0A4FB22
:10145000B4F84810A5FB0135ED0805EB8505A1EBB7
:1014600045010A2289B204A824F0C8FB04A908A8EF
:1014700024F0A0FC394604460A220CA824F0BEFB46
:101480000CA9204624F096FC334924F09BFC01462D
:10149000304624F059FC0CA824F02AFB04A824F0C0
:1014A00027FB08A824F024FB684624F021FB11B098
:1014B000F0BDB0F84810264DA5FB01310A22C9083D
:1014C000684624F09BFB694608A824F065FBB4F845
:1014D0004810A5FB0135ED0805EB8505A1EB45019D
:1014E0000A2289B204A824F089FB04A908A824F0E0
:1014F00061FC394604460A220CA824F07FFB0CA9A3
:10150000204624F057FCC2E7B0F84840104904EBED
:10151000840407EB4404A4B2A1FB0437FF08394656
:101520000A2204A824F06AFB07EB870704A90CA889
:1015300024F032FBA4EB470189B20A2208A824F068
:101540005DFB08A90CA824F035FC04495DE700BF49
:10155000CDCCCCCC98B30200A0B302009CB3020067
:1015600070B590F84D308CB004460D46164633BB2E
:10157000B0F848300BB9002964D0354908A824F0E8
:10158000F7FAB4F8481001EB810105EB410101398C
:101590000A2204A824F032FB04A908A824F00AFCBB
:1015A0002C4924F00FFC0146304624F0CDFB04A862
:1015B00024F09EFA08A824F09BFA0CB070BDB0F895
:1015C0004830A3B929B91046234924F0C1FB0CB017
:1015D00070BD08A8214924F0CBFA294604A80A22A4
:1015E00024F00CFB04A908A824F0E4FBDBE704A822
:1015F000174924F0BDFAB4F848100A2201396846A8
:1016000024F0FCFA694604A824F0D4FB144924F021
:10161000D9FB0A220446294608A824F0EFFA08A9B3
:10162000204624F0C7FB0146304624F08DFB08A875
:1016300024F05EFA684624F05BFA04A824F058FA15
:101640000CB070BD1046074924F082FB0CB070BD91
:10165000A8B30200ACB30200B0B30200B8B30200FA
:1016600008BC0200A4B30200F0B5224B01318CB2D9
:1016700091B0A3FB0431164649090A22684624F0BA
:10168000BDFA694608A824F087FA1B4BA3FB042582
:10169000ED08A9B2A3FB0123DB0803EB8303A1EB55
:1016A00043010A2289B204A824F0A8FA04A908A8D0
:1016B00024F080FB05EB8505A4EB45010A220746D3
:1016C00089B20CA824F09AFA0CA9384624F072FBCF
:1016D0000146304624F038FB0CA824F009FA04A88F
:1016E00024F006FA08A824F003FA684624F000FA69
:1016F00011B0F0BD1F85EB51CDCCCCCCF0B52B4C4F
:101700002B4FC7290E468DB094BF55215021A4FB05
:1017100006341046154624F029FBA309C82404FB0F
:101720001364C4F38D040134E4B2A7FB0437FF084B
:1017300039460A22684624F061FA07EB87076946B2
:1017400008A824F029FAA4EB47010A22C9B204A888
:1017500024F054FA04A908A824F02CFB01462846DA
:1017600024F0F2FA04A824F0C3F908A824F0C0F980
:10177000684624F0BDF908A80E4924F0F9F906F0EE
:1017800003010A22013104A824F038FA04A908A8A8
:1017900024F010FB0146284624F0D6FA04A824F0D1
:1017A000A7F908A824F0A4F90DB0F0BD1F85EB51EE
:1017B000CDCCCCCC48B30200F0B5C72991B00C46D3
:1017C00010468CBF502155211646013424F0CEFA24
:1017D0002049A4B2A1FB04310A224909684624F039
:1017E0000DFA694608A824F0D7F91B4BA3FB042582
:1017F000ED08A9B2A3FB0123DB0803EB8303A1EBF4
:1018000043010A2289B204A824F0F8F904A908A81F
:1018100024F0D0FA05EB8505A4EB45010A22074622
:1018200089B20CA824F0EAF90CA9384624F0C2FACF
:101830000146304624F088FA0CA824F059F904A88F
:1018400024F056F908A824F053F9684624F050F91A
:1018500011B0F0BD1F85EB51CDCCCCCCF0B590F8DC
:101860004D3091B005460F4616466BBBB0F8483078
:10187000012B8CBF50215521104624F077FAB5F882
:1018800048100A2204A824F0B9F904A90CA824F0ED
:1018900083F90A22394608A824F0B0F908A90CA84F
:1018A00024F088FA2B4924F08DFA0146304624F0C2
:1018B0004BFA08A824F01CF90CA824F019F904A884
:1018C00024F016F911B0F0BDB0F84830224C132BBB
:1018D0008CBF50215521104624F048FAB5F8481025
:1018E000A4FB01310A22C908684624F087F9694639
:1018F00008A824F051F9B5F84810A4FB0134E40815
:1019000004EB8404A1EB44010A2289B204A824F068
:1019100075F904A908A824F04DFA0A2204463946AC
:101920000CA824F06BF90CA9204624F043FA0146D8
:10193000304624F009FA0CA824F0DAF804A824F0C0
:10194000D7F808A824F0D4F8684624F0D1F811B0EC
:10195000F0BD00BF98B30200CDCCCCCC70B5164C16
:101960004D1C84FB0534EB178CB0C3EBA404164666
:1019700021460A22684624F041F9694608A824F065
:101980000BF904EB84010A22A5EB410104A824F021
:1019900035F904A908A824F00DFA0146304624F0D0
:1019A000D3F904A824F0A4F808A824F0A1F8684604
:1019B00024F09EF80CB070BD6766666630B589B0DD
:1019C0000D4604A80C49144624F0D2F80A22691CDA
:1019D000684624F013F9694604A824F0EBF901469F
:1019E000204624F0B1F9684624F082F804A824F0D7
:1019F0007FF809B030BD00BFBCB30200F0B50C46A3
:101A0000C91191B04131C9B204A81646013424F07D
:101A100009F92149A4B2A1FB04310A224909684607
:101A200024F0ECF8694604A824F0C4F91B4BA3FB8E
:101A30000425ED08A9B2A3FB0123DB0803EB830314
:101A4000A1EB430107460A2289B208A824F0D6F880
:101A500008A9384624F0AEF905EB8505A4EB45014D
:101A60000A22074689B20CA824F0C8F80CA9384607
:101A700024F0A0F90146304624F066F90CA824F0C1
:101A800037F808A824F034F8684624F031F804A8A0
:101A900024F02EF811B0F0BD1F85EB51CDCCCCCC8D
:101AA0002DE9F04190F84D3090B007460D461646AE
:101AB000002B47D0B0F848103D4C01EB8101891153
:101AC0004131C9B204A824F0ADF8B7F84810A4FB1E
:101AD00001310A22C908684624F090F8694604A832
:101AE00024F068F9B7F84810A4FB0134E40804EBCB
:101AF0008404A1EB440180460A2289B208A824F09C
:101B00007DF808A9404624F055F90A2204462946E2
:101B10000CA824F073F80CA9204624F04BF90146D8
:101B2000304624F011F90CA823F0E2FF08A823F0B6
:101B3000DFFF684623F0DCFF04A823F0D9FF10B0D4
:101B4000BDE8F081B0F8483001EB81014A00642122
:101B500001FB0321C9114131C9B208A824F062F880
:101B6000B7F848100A2204A824F048F804A908A8E5
:101B700024F020F90A22044629460CA824F03EF855
:101B80000CA9204624F016F90A4924F01BF9014655
:101B9000304624F0D9F80CA823F0AAFF04A823F0BB
:101BA000A7FF08A823F0A4FF10B0BDE8F08100BF94
:101BB000CDCCCCCC98B30200F0B50D468DB0184C0E
:101BC000013504A85021164684FB053424F02AF878
:101BD000EB17C3EBA40421460A22684624F00EF852
:101BE000694604A824F0E6F804EB84010A220746BB
:101BF000A5EB410108A824F001F808A9384624F013
:101C0000D9F80146304624F09FF808A823F070FF69
:101C1000684623F06DFF04A823F06AFF0DB0F0BD05
:101C20006766666670B590F84D308CB00C46154608
:101C3000EBB9052908A84FD9502123F0F3FF611F04
:101C40000A2204A823F0DAFF04A908A824F0B2F8B5
:101C5000244924F0B7F80146284624F075F804A872
:101C600023F046FF08A823F043FF0CB070BD90F8A6
:101C700048600A2313FB0613322B28DD502110463F
:101C800024F074F8053EF6B23146684623F0A2FF10
:101C9000694608A823F080FF0A22214604A823F001
:101CA000ADFF04A908A824F085F80F4924F08AF8AC
:101CB0000146284624F048F804A823F019FF08A894
:101CC00023F016FF684623F013FF0CB070BD5521BA
:101CD000104624F04BF8D7E7552123F0A3FF214607
:101CE000AEE700BF9CB30200A0B3020008B50448F1
:101CF00021F04AFA0348BDE8084021F045BA00BF88
:101D000090710020A87100202DE9F0410446FFF7F2
:101D10005FF81F4A1F4B1068C4F8060007CB022764
:101D20001D8893F802802771CF234FF0C70CC4F8A9
:101D30000E004FF0040E0120C4F81210CD27002130
:101D4000658304F19A05C4F8162084F88D3084F870
:101D50001C80A4F844C084F850E084F88C702A46B3
:101D600084F82800E07784F8200084F86A00A4F85A
:101D70004210616584F88E1084F88F1004F192038C
:101D800003F8010FAB4202F8011FF9D1BDE8F08161
:101D9000C0B30200C4B30200F8B51C4D0446FFF7FF
:101DA00017F81B4B2868C4F8060003CB2D79B3F84D
:101DB00000C0A5729B78C4F80E000225012225718F
:101DC000CD26C4F81210CF250421D020237600237D
:101DD0004FF0620E0527A4F816C084F88C6084F8D2
:101DE0008D5084F88E0084F8933084F8943084F811
:101DF0008F3084F85010E17784F82020A4F844E074
:101E00006765A4F8423084F85220F8BDD4B30200CC
:101E1000DCB302002DE9F041214E0446FEF7D8FF65
:101E2000204B3068C4F8060007CB36791B78A672C1
:101E3000A37602260A2326714FF0040CC4F80E0084
:101E40004FF0280EC4F812100327C4F816200826F5
:101E5000CD20CF21D022636500234FF424780125C3
:101E600084F850C084F893E0E77784F8206084F821
:101E70008C0084F88D1084F88E2084F8943084F8D7
:101E8000953084F8963084F8973084F88F30A4F831
:101E9000448084F85250A4F84230BDE8F08100BF7D
:101EA000E8B30200F0B30200F8B51C4D0446FEF79B
:101EB0008FFF1B4B2868C4F8060007CBAD886581EF
:101EC0000225C4F80E00C4F81210C4F8162011211F
:101ED000257104F1300023F013FE7F2200234FF020
:101EE000040ECD27D126D220A4F8442001220D498A
:101EF000E57784F850E084F88C7084F88D6084F87D
:101F00008E0084F88F3084F8202084F82120C4F8D3
:101F10008810636584F89330F8BD00BF00B40200F8
:101F200008B4020080C3C9012DE9F0410446FEF760
:101F30004FFF1C4B1C4D1868C4F806000FCD02263D
:101F400026714FF0040CC4F80E004FF00A0ECD2796
:101F5000C4F81620CF260122C4F81A30D32000235B
:101F60004FF41C78C4F8121084F850C00F4984F85C
:101F70001FE084F88C7084F88D6084F88E0084F8FB
:101F80008F3084F8202084F8212084F89520A4F84C
:101F90004480C4F88810A4F84230636584F8943013
:101FA000BDE8F08114B4020018B4020080C3C90176
:101FB000F8B50446FEF70CFF184A194B1068C4F830
:101FC000060003CB02271E8827710423C4F80E00E5
:101FD0000627E682C4F812100126CD20CF21D22296
:101FE00084F8503000230F4DE7774FF00B0E84F844
:101FF000206084F88C0084F88D1084F88E2084F89A
:102000008F30C4F89330A4F844E0C4F88850A4F8A2
:102010004230636584F89930E366F8BD28B4020065
:102020002CB4020080C3C901F8B5184D0446FEF770
:10203000CFFE174B2868C4F8060003CBAD881B8879
:1020400065810225012204272571C4F80E000625AA
:10205000E382CD200023C4F81210DA214FF0470E9E
:10206000052684F85070E57784F88C0084F88D108C
:1020700084F88E3084F88F3084F8202084F8212072
:10208000A4F844E06665A4F84230F8BD3CB4020010
:1020900038B40200F8B50446FEF79AFE164B174D09
:1020A0001868C4F806000FCD022626710427C4F86C
:1020B0000E000726C4F81210CD20C4F81620CF2138
:1020C0000122C4F81A30002340F22B1E84F850700D
:1020D000E67784F88C0084F88D1084F88E3084F8CC
:1020E0008F3084F8202084F82120A4F844E0A4F85C
:1020F00042306365F8BD00BF44B4020048B402003A
:10210000F8B51E4D0446FEF763FE1D4B2868C4F863
:10211000060007CB022793F800C0AB88AD79277182
:102120006381257300230427C4F80E000126CD2502
:10213000C4F81210CF20C4F81620D021052240F296
:102140008F1E84F81AC084F8507084F8206084F8D8
:102150008C5084F88D0084F88E1084F8933084F8C5
:10216000943084F8953084F8993084F88F30E27791
:10217000A4F844E0A4F842306265F8BD58B4020007
:1021800060B40200F8B50446FEF722FE154A164B6D
:102190001068C4F8060003CB022301220427CD26D1
:1021A0002371CF2500234FF0630C4FF0050EC4F8C8
:1021B0000E00C4F8121084F8507084F88C6084F813
:1021C0008D5084F8283084F88E3084F88F30E27790
:1021D00084F82020A4F844C0C4F854E0A4F84230A5
:1021E000F8BD00BF70B4020074B40200F8B5194E17
:1021F0000446FEF7EDFD184B3068C4F8060007CB27
:1022000036791B88A672022626710427C4F80E00B0
:1022100001266383CD200023C4F81210C4F81620D1
:10222000CF2105224FF0310E84F8507084F82060E1
:1022300084F88C0084F88D1084F88E3084F88F3008
:10224000E277A4F844E0A4F8423084F83231E3663F
:102250006265F8BD7CB4020084B40200F8B5224E79
:102260000446FEF7B5FD214B3068C4F8060007CBE5
:10227000B3F800C093F802E0B688668102232371A8
:1022800003230025C4F80E00C4F81210C4F8162069
:10229000CD20CF21D12284F8933040F27F17012343
:1022A000042684F88C0084F88D1084F88E20A4F81D
:1022B0001AC084F81CE0A4F8447084F85060A4F8B4
:1022C0004250656584F88F50E37784F8203084F8B5
:1022D0002130294604F194005D2225F085FC84F824
:1022E000F25084F8F350F8BD94B402009CB402009C
:1022F000F8B52D4D0446FEF76BFD2C4B2868C4F84D
:10230000060007CB2D792A4BA57204260025C4F8B8
:102310000E00C4F8121002204FF0580CC4F816201A
:102320004FF0050ED7220127CD2184F8935020715C
:10233000A4F84250E07784F88E5084F88F5084F8E7
:102340008D2084F8946084F850601A4DA4F844C03D
:10235000C4F854E084F8207084F88C1003F61870E8
:102360000B2201E013F81C2C511E1C3312B16A5CC5
:1023700001326A548342F5D1292240F20D130E4DE9
:102380000E4E4FF6FF7001E016F8122025F81230BD
:10239000591E8BB28342C3EBC302F5D1002384F8EC
:1023A0006E31C4F87C31F8BDACB40200B4B40200A4
:1023B000010903005C710020400A0020A0220300F4
:1023C000F8B5214E214C0546FEF702FD204B306842
:1023D000C5F8060007CB36791F78AE72C5F80E0037
:1023E0000226042040F28F1CAF76C5F812104FF081
:1023F000090EC5F81620CD270022D02185F85000FF
:10240000A5F8422085F8932085F894206A6585F820
:102410008E2085F88F200F4B2E71EE77A5F844C0E3
:102420000D4885F820E085F88C7085F88D100C2219
:1024300001E013F8182C511E183312B1425C01321E
:102440004254A342F5D1F8BDC0B402001B9D030065
:10245000C8B40200EB8A030034380020F0B5C1F3A1
:102460008705194C013584FB0534EB178DB0C3EBA0
:10247000A4040E46174621460A22684623F0BEFBF6
:10248000694608A823F088FB04EB84010A22A5EB27
:10249000410104A823F0B2FB04A908A823F08AFC98
:1024A00006F00301413123F09BFC0146384623F03E
:1024B0004BFC04A823F01CFB08A823F019FB68467A
:1024C00023F016FB0DB0F0BD6766666670B5232974
:1024D00001F0030588B00C46164605F141051CD9EC
:1024E00004A8462123F09EFBA1080A220839684669
:1024F00023F084FB694604A823F05CFC294623F002
:102500006FFC0146304623F01FFC684623F0F0FACA
:1025100004A823F0EDFA08B070BD89080A22013141
:10252000684623F06BFB694604A823F035FB294677
:1025300004A823F055FC0146304623F005FC04A80E
:1025400023F0D6FA684623F0D3FA08B070BD00BF76
:10255000F0B590F84D3089B0044616460D46DBB90B
:10256000B0F84830002B3BD10A22684623F046FBE6
:10257000694604A823F010FB04A82A4923F022FC92
:102580000146304623F0E0FB04A823F0B1FA684688
:1025900023F0AEFA09B0F0BD01F00307232907F1DB
:1025A00041072ED9462104A823F03CFBB4F848107B
:1025B0000A220839684623F021FB694604A823F063
:1025C000F9FB394623F00CFC0146304623F0BCFBF6
:1025D000684623F08DFA04A823F08AFA09B0F0BD0A
:1025E00004A8462123F01EFB29460A22684623F050
:1025F00005FB694604A823F0DDFB0A4923F0E2FB52
:10260000E2E7B0F848100A220131684623F0F6FAF2
:10261000694604A823F0C0FA394604A823F0E0FB79
:10262000AEE700BF98B3020030B500EB410089B0BF
:10263000B0F89430154601310A2268465C1023F048
:10264000DDFA694604A823F0A7FA04A83A2123F08A
:10265000C7FBE3B2094903EBC30301EB430123F0DA
:10266000B1FB0146284623F06FFB04A823F040FA93
:10267000684623F03DFA09B030BD00BFD0E6020045
:1026800030B500EB410089B0B0F894301546013107
:102690000A2268465C1023F0B1FA694604A823F0C8
:1026A0007BFA04A83A2123F09BFBE3B2094903EB30
:1026B000830301EB8301023123F084FB01462846AA
:1026C00023F042FB04A823F013FA684623F010FA23
:1026D00009B030BD148B020010B5034C206824F003
:1026E00049FF0023236010BD6871002010B5044627
:1026F00023F09EF9204610BD0B290ED9A1F1170336
:102700000A2B07D9A1F122031F2B9ABF1E31C8B291
:10271000002070470239C8B270470131C8B2704713
:1027200070B505460C460AB990F86A20012A32D0E5
:10273000022A11D004EBC40304EB4304A400174A9B
:1027400004F11C032C3413442021224403F8011FFC
:102750009342FBD1012070BD0A21104E104A4C2338
:1027600003FB0463284683F83C102B68D3F8C4307D
:1027700093420ED1FFF7C0FF4C2303FB04632146B5
:1027800083F830002B682846D3F8D43098470020CF
:1027900070BD9847F0E70821DFE700BF8857FF1FAB
:1027A000F926000030B590F84D3085B00D4614463E
:1027B000A3B190F848104131C9B2104623F0D6FABF
:1027C0000A222946684623F019FA6946204623F072
:1027D000BBFA684623F08CF905B030BD4131104694
:1027E000C9B223F0C3FA2046024923F0B1FA05B07A
:1027F00030BD00BF98B3020010B584B00A220C4669
:102800000146684623F0FAF96946204623F09CFA0F
:10281000684623F06DF904B010BD00BF542905D8F7
:10282000012A18460CD0084923F092BA5C2903D932
:102830001846064923F08CBA19461046FFF7DCBF4C
:10284000034923F085BA00BFD8B402007CBC020063
:1028500050B9020000EB800000EB800001F01F0186
:102860000844084B33F8100058B1074A32F81030CA
:10287000012033B132F813300130C0B2002BF9D14E
:1028800070477047E83A0020E81B002030B590F808
:102890004D308DB0144613B30D460A22B0F84810DF
:1028A000684623F0ABF9694608A823F075F90A22B7
:1028B000294604A823F0A2F904A908A823F07AFA6B
:1028C0000146204623F040FA04A823F011F908A895
:1028D00023F00EF9684623F00BF90DB030BD0A2243
:1028E00008A823F08BF908A904A823F055F904A837
:1028F000074923F067FA0146204623F025FA04A889
:1029000023F0F6F808A823F0F3F80DB030BD00BFAF
:1029100098B3020070B590F84D308CB00E46154655
:102920003BB30446502104A823F07CF9B4F84810C6
:102930000A22684623F062F9694604A823F03AFAAD
:102940000A220446314608A823F058F908A920466F
:1029500023F030FA0146284623F0F6F908A823F0C0
:10296000C7F8684623F0C4F804A823F0C1F80CB0F7
:1029700070BD04A8502123F055F90A22314608A859
:1029800023F03CF908A904A823F014FA074923F01E
:1029900019FA0146284623F0D7F908A823F0A8F829
:1029A00004A823F0A5F80CB070BD00BF98B30200D6
:1029B00030B590F84D308DB014462BB30D460A2239
:1029C000B0F84810684623F019F9694608A823F0C2
:1029D000E3F80A22294604A823F010F904A908A85C
:1029E00023F0E8F9144923F0EDF90146204623F0DD
:1029F000ABF904A823F07CF808A823F079F868461E
:102A000023F076F80DB030BD0A2208A823F0F6F8BE
:102A100008A904A823F0C0F804A8084923F0D2F9B3
:102A20000146204623F090F904A823F061F808A895
:102A300023F05EF80DB030BD98B30200DCB40200A4
:102A4000F0B516468DB000294DD008290C4631D975
:102A5000284D2949093C85FB0435A5EBE4756846FA
:102A600023F086F80A22294604A823F0C7F804A90F
:102A7000684623F09FF9214923F0A4F905EB4505A9
:102A8000611B0A220746013108A823F0B7F808A9FC
:102A9000384623F08FF90146304623F055F908A84F
:102AA00023F026F804A823F023F8684623F020F842
:102AB0000DB0F0BD08A8124923F05AF80A222146A9
:102AC00004A823F09BF804A908A823F073F9014691
:102AD000304623F039F904A823F00AF808A823F0B7
:102AE00007F80DB0F0BD1046064923F031F90DB0DE
:102AF000F0BD00BF56555555A8B3020008BC0200F2
:102B0000B8B30200E0B4020030B589B005460C4607
:102B100004A80C4923F02CF80A22691C684623F00B
:102B20006DF8694604A823F045F90146204623F0D4
:102B30000BF9684622F0DCFF04A822F0D9FF09B0A7
:102B400030BD00BFE4B402000729084603D910468F
:102B5000024923F0FDB81146FFF7D6BF7CBC020046
:102B60000F29084603D91046024923F0F1B811464F
:102B7000FFF7CABF7CBC020030B589B005460C46E1
:102B800004A80C4922F0F4FF0A22691C684623F0CD
:102B900035F8694604A823F00DF90146204623F0D4
:102BA000D3F8684622F0A4FF04A822F0A1FF09B0E0
:102BB00030BD00BFECB402000729084603D9104617
:102BC000024923F0C5B81146FFF7D6BF7CBC02000E
:102BD0000F29084603D91046024923F0B9B8114617
:102BE000FFF7CABF7CBC020030B54BB2002B89B0E6
:102BF000154618DD0C4668460E4922F0B9FF2146FD
:102C000004A822F0E7FF04A9684623F0D3F80146A0
:102C1000284623F039F804A822F06AFF684622F01B
:102C200067FF09B030BD1046034923F03DF809B0F5
:102C300030BD00BFF0B4020048B3020030B54B1EF7
:102C4000072B89B00C46154629D909293FD00A29F6
:102C500042D00B2945D00C2948D0A1F10D03722B8D
:102C600005D91046244923F01FF809B030BD684645
:102C7000224922F07DFF214604A822F0ABFF04A9DF
:102C8000684623F097F80146284622F0FDFF04A885
:102C900022F02EFF684622F02BFF09B030BD04A8B9
:102CA000174922F065FF2146684622F093FF6946E6
:102CB00004A823F07FF80146284622F0E5FF684685
:102CC00022F016FF04A822F013FF09B030BD104611
:102CD0000C4922F0E9FFC8E710460B4922F0E4FF57
:102CE000C3E71046094922F0DFFFBEE71046084956
:102CF00022F0DAFFB9E700BF48B30200F0B40200E7
:102D0000F4B4020000B502000CB502001CB50200CC
:102D100028B5020030B589B005460C4604A80D4917
:102D200022F026FF0A22691C684622F067FF6946E6
:102D300004A823F03FF8084923F044F80146204650
:102D400022F0A2FF684622F0D3FE04A822F0D0FEB3
:102D500009B030BD38B502003CB50200034B1B780A
:102D6000032B02D8024B01221A707047040D002079
:102D70007056FF1F2DE9F041204F4C2404FB0074D6
:102D80008846617A0629164620D0FF2918D049B115
:102D90001B4B618E53F828000368BDE8F041D3F85F
:102DA000803018473C21104622F0E0FF144B618E22
:102DB00053F8280003683246DB6FBDE8F04118473E
:102DC00010461049BDE8F04122F0C2BFE37A054643
:102DD0007BB9104622F0CAFF094B53F828004C2259
:102DE00002FB05750368698EDB6F3246BDE8F04172
:102DF00018470521104622F0B9FFEDE78857FF1F5D
:102E00003C09FF1F40B502002DE9F04100EB001422
:102E100066001B4B112414FB01661E4402F1100CCA
:102E200014464FF00008FF25A31A16F801EF14F816
:102E3000017BBE45DBB204D0FF2D08BF1D463770B5
:102E400098466445F0D1FF2D16D010B10120BDE8A1
:102E5000F08114460B480A4629461CF08BFF454575
:102E6000F4D8615D07480135EDB21CF0EFFE454531
:102E7000F7D90120BDE8F0810020BDE8F08100BF56
:102E80003F6F0020D06F0020024B1A5C0AB1002275
:102E90001A5470477033002010B50D4B93F82A3048
:102EA000012B14BF0B490C4900EB40028B18044660
:102EB000885C9A7859781DF09BFA002102460748F1
:102EC0001DF090FA05481DF08FF9054B1C7010BDE0
:102ED00024170020D008FF1F140AFF1F7889FF1F46
:102EE0008C710020074B084A53F820301278DB7FA2
:102EF00006499A42087001D01F2B00D97047184626
:102F0000FFF7CABF3C09FF1F8C710020000AFF1F9A
:102F100010B4094B094A19680948137883B083F043
:102F200001030191019C074904600120137008709E
:102F300003B05DF8044B70479C8500207409FF1FA7
:102F4000F01600203A09FF1F10B5037A0022022B69
:102F50000446427482B0007826D020F0B1FF08B950
:102F600001236374607820F0ABFF70B11549637C76
:102F70000968A27C0191019961619A421FD08BB9C5
:102F80000120E274A37402B010BD237F002BEDD1A9
:102F90000C4BA27C1B680193019B636102239A4244
:102FA00063740CD00022EBE720F08AFF012808BFF1
:102FB0006074607820F084FF0128D7D1E8E7002012
:102FC00002B010BD9C85002030B4416D084D846D69
:102FD00082B02B680193019B054A1B1B8B42F8D9D9
:102FE00013680093009B836502B030BC704700BF3C
:102FF0009C85002010B51B4CE3780D2B00D910BD2B
:10300000194AE17952F823000368D3F89C309847B5
:1030100008B10138C0B2637A032B1ED8DFE803F091
:103020001919130202B2114B11496074520083FB4B
:1030300002E3A1FB0010A3EBE27340080022E3735C
:103040006073E27210BD42080023E0736273E372A2
:1030500010BD0023E072637310BD00236073E37240
:10306000CDE700BFB80AFF1F3C09FF1F5655555555
:10307000ABAAAAAA10B4084A0848137808490F2B2B
:103080009CBF01331370074A00230124137004709E
:103090000B705DF8044B70479B76FF1F7056FF1F47
:1030A00075710020060D0020084A10B402F12E04AC
:1030B0008179C37903EBC11302F8013F944200F117
:1030C0000200F5D15DF8044B704700BF23170020C4
:1030D00070B590F84D308CB00E46154653B304468B
:1030E000552108A822F09EFDB4F848100A2204A831
:1030F00022F084FD04A908A822F05CFE0A220446FE
:103100003146684622F07AFD6946204622F052FE9A
:10311000164922F057FE0146284622F015FE684661
:1031200022F0E6FC04A822F0E3FC08A822F0E0FC70
:103130000CB070BD08A8552122F074FD0A2231465A
:1031400004A822F05BFD04A908A822F033FE084978
:1031500022F038FE0146284622F0F6FD04A822F0AF
:10316000C7FC08A822F0C4FC0CB070BDA0B30200DC
:103170009CB302000A7ACB7970B412044E7A8C7A2E
:103180000B4D02EB036202EB06232344AB420AD051
:10319000084A934205D1CB7A80F89430002380F816
:1031A000533070BC7047CB7A80F8933070BC704756
:1031B0000030006000380060F0B590F84E609DF877
:1031C000145026B190F82170AF42044600D0F0BDF3
:1031D00090F820509D42FAD13C2924D0DFF860C0FD
:1031E00016489CF800E000239C341F463E2506E06C
:1031F0000133092B04F1010410D010F80A5CA94234
:1032000000F10A00F4D10BB104F8092C151C18BF09
:10321000012537464FF0020E2570E9E7002FD6D082
:103220008CF800E0F0BD838C92B29342CFD001685D
:10323000C38482848B6CBDE8F0401847C45B0300F4
:10324000580B0020044B82B01B680193019B03F5CF
:10325000FA73C36602B070479C85002038B5134DE1
:103260002B680446D3B100210D4618464FF407726F
:1032700024F0BAFC204684F8975084F89850FFF761
:10328000E1FF0B4A236815709B6C20469847094A5A
:1032900002210123117084F86A3038BD4FF40770A1
:1032A00024F060F928600346DDE700BF6871002064
:1032B0008009FF1F580B002030B490F84E409DF855
:1032C00008501CB190F82140AC4201D030BC70478E
:1032D00090F820409C42F9D1A1B10C4B933003F2FD
:1032E0003B15502405E0AB4200F10100EED013F88D
:1032F000154CA14203F11503F5D1141C18BF01248C
:103300000470F0E780F84C20E0E700BF2EDE0200FA
:103310004A7A0B7A70B412048E7ACC7A1D4D02EB85
:10332000036202EB0623234423F40032AA4205D1B0
:103330000C7B80F893404C7B80F89640164CA3425F
:1033400017D004F5FF3404F58074A34211D0134C58
:10335000A34217D004F5FF34A34213D0104B9A4276
:1033600005D10B7B80F89930002380F8533070BC76
:1033700070470C7B80F894404C7B80F89740074C5A
:10338000A342E7D10B7B80F895304B7B80F89830D7
:10339000E4E700BF0015001000200010002B001013
:1033A0000112001030B4C1EBC101674B90F894409A
:1033B00089005A18957EA54217D890F89350BDB150
:1033C000538803F47042B2F5104F00F08A8051D94F
:1033D000B2F5304F5BD0B2F5404F00F0A280B2F5AD
:1033E000204F6ED003F1C04000E0002030BC704799
:1033F0005B5A03F47042B2F5104F00F0958016D975
:10340000B2F5304F43D0B2F5404F5DD0B2F5204F0A
:10341000E8D14E4D4E4990F86D21002A5CD0022C27
:103420005AD9012AE1D103F00F035819DEE7B2F5AA
:10343000E04F3ED0B2F5004FD4D190F86A21454C10
:1034400034F83210D200224403F00F0093799842EE
:10345000CBDA084480B2020604D547F67F730340F6
:1034600003F58070002D6BD1B0F5127F57D000F1BD
:10347000C040BBE7B2F5E04F1BD0B2F5004FB1D171
:1034800090F86A21334CD200A1188988DBE790F8C4
:103490006F21314902EB420252008C1803F00F00F9
:1034A00023799842A1DA3DB1638803F1C0431844FF
:1034B0009CE7C3F30B0099E78B5A03F1C043184410
:1034C00094E7264D2649A6E74FF4886540F233413C
:1034D00090F86E21002AA2D103F00F00084430BCFE
:1034E000704790F86C211B4CD1006218928802F54D
:1034F000007292B2214403F07F008B799842BFF6AC
:1035000074AF104480B2030604D547F67F730340BE
:1035100003F580707DB940F254439842A7D1114819
:1035200064E71E251321D3E790F86C21094CD100E4
:1035300062185288DEE7B0F5577F98D10A4855E700
:10354000B0F5AE7F93D1F9E7CC0803000511006018
:1035500031010060A8450300B80803004D00006079
:103560004200006018070060710500604A7A0B7A1B
:1035700070B412048E7ACC7A0B4D02EB036202EB2C
:1035800006232344AB420AD0084A934205D10B7B61
:1035900080F89430002380F8533070BC70470B7B68
:1035A00080F8933070BC70470010002004080020A1
:1035B0000A7ACB7970B412044E7A8C7A134D02EBEE
:1035C000036202EB06232344AB420FD0104A93421E
:1035D00007D0104A93420ED1CB7A80F8963070BC57
:1035E0007047CB7A80F8953070BC7047CB7A80F802
:1035F000943070BC7047084A9342F0D1CB7A80F87F
:103600009730002380F8533070BC704703200018B7
:10361000032100180A100018320200180E4A4379DC
:10362000127801339A4201D00020704790F8A530FB
:10363000FF2B08D0094A4C2000FB01214A8ED108FB
:10364000B1EB530F01D001207047B3EB920F0CBFC9
:1036500001200020704700BFF60C00208857FF1F94
:103660000E4A4379127801339A4201D00020704704
:1036700090F89C30FF2B08D0094A4C2000FB012118
:103680004A8ED108B1EB530F01D001207047B3EB44
:10369000920F0CBF01200020704700BFF60C0020E5
:1036A0008857FF1F144A4379127801339A4201D098
:1036B0000020704790F89D20FF2A1BD030B40F4C9B
:1036C0000F4B10484C2505FB0141A0FB0254498ECD
:1036D000A3FB01535B08B3EB540F02D0012030BCB5
:1036E0007047A0FB0131B2EB510F0CBF012000204D
:1036F00030BC704701207047F60C00208857FF1F30
:10370000398EE338ABAAAAAA0E4A4379127801335C
:103710009A4201D00020704790F89430FF2B08D0D7
:10372000094A4C2000FB01214A8ED108B1EB530F0E
:1037300001D001207047B3EB920F0CBF0120002095
:10374000704700BFF60C00208857FF1FF0B590F8B7
:103750004D300F4691B005461646B0F84810002B84
:1037600039D02E4CA4FB01310A22C90808A822F046
:1037700045FA08A90CA822F00FFAB5F84810A4FBE6
:103780000134E40804EB8404A1EB44010A2289B269
:1037900004A822F033FA04A90CA822F00BFB0A2299
:1037A00004463946684622F029FA6946204622F046
:1037B00001FB0146304622F0C7FA684622F098F92C
:1037C00004A822F095F90CA822F092F908A822F09A
:1037D0008FF911B0F0BD0A2204A822F00FFA04A953
:1037E0000CA822F0D9F90A22394608A822F006FAD4
:1037F00008A90CA822F0DEFA094922F0E3FA0146F2
:10380000304622F0A1FA08A822F072F90CA822F0A2
:103810006FF904A822F06CF911B0F0BDCDCCCCCC7E
:1038200098B30200F0B590F84D300F4691B00546C0
:103830001646B0F84810002B39D02E4CA4FB0131AD
:103840000A22C90808A822F0D9F908A90CA822F070
:10385000A3F9B5F84810A4FB0134E40804EB840490
:10386000A1EB44010A2289B204A822F0C7F904A9F5
:103870000CA822F09FFA0A2204463946684622F034
:10388000BDF96946204622F095FA0146304622F0FD
:103890005BFA684622F02CF904A822F029F90CA85A
:1038A00022F026F908A822F023F911B0F0BD0A226F
:1038B00004A822F0A3F904A90CA822F06DF90A22A9
:1038C000394608A822F09AF908A90CA822F072FA41
:1038D000094922F077FA0146304622F035FA08A865
:1038E00022F006F90CA822F003F904A822F000F94E
:1038F00011B0F0BDCDCCCCCC98B302005C2920D85F
:10390000542938B513D915460C46811D104622F0AE
:103910001FFA2021284622F029FA0A4B04EBC401A1
:10392000284603EB4101BDE8384022F011BA054BAF
:1039300001EBC10103EB41011046BDE8384022F024
:1039400007BA7047909C020090F8693003B970473D
:1039500030B50D46044685B02D21284622F006FAE2
:1039600094F86910684622F035F96946284622F035
:10397000EBF9684622F0BCF805B030BD90F8933002
:10398000DBB1254BC1EBC10103EB81014B8803F493
:103990007042B2F5204F1AD020D8B2F5004F35D082
:1039A000B2F5104F27D190F86C111C4A32F8110073
:1039B00003F00F03184480B27047C1EBC101164BEE
:1039C00033F8213003F47042B2F5204FE4D190F87F
:1039D0006D21012A14BF07212921E6E7B2F5304FF6
:1039E0000CD0B2F5404F06D190F86E21012A14BFD9
:1039F00007212921D9E74FF6FF70704790F86F2112
:103A00003AB1012A14BF25212821CEE790F86A1186
:103A1000CBE70221C9E700BFCC080300400A002021
:103A200089291DD8F8B5CE001C4D90F89470721AF3
:103A300005EB8202927EBA4210D80C46FFF79EFF39
:103A40004FF6FF7398420DD0B0F5877F06D2144B26
:103A5000C0EBC00003EB40004078F8BD0020F8BD8B
:103A600000207047282C0ED0182C06D0472C04D0EC
:103A7000341B05EB84052879F8BD012F07D9022FE7
:103A800007D12520F8BD022FF2D91A20F8BD242035
:103A9000F8BD032FECD12720F8BD00BFCC080300F0
:103AA000A02203008929F8B50C461746064615D909
:103AB000164996F89430C4EBC40401EB84018A7E65
:103AC0009A4205D838460531BDE8F84022F040B9A1
:103AD00038460F49BDE8F84022F03AB9FFF74EFFEB
:103AE0004FF6FF7398420546E2D0E1B23046FFF749
:103AF00059FC0028ECD00749C5EBC50501EB450191
:103B000038460231BDE8F84022F022B9CC08030063
:103B100070B30200A022030090F84D309BB1B0F8C2
:103B2000483003B9E9B1B0F84420B0F8420003EBE3
:103B30008303121A01EB4301531CB3EB810FACBF9B
:103B4000012000207047B0F84430B0F842209B1AA2
:103B500001EB81010133B3EBC10FACBF01200020A9
:103B600070470846704700BF38B590F821509D4215
:103B700000D038BD90F8203093420446F9D190F837
:103B80004C30828C03EB830303EB830301EB830153
:103B900089B29142EDD00368C28481841B6D98473D
:103BA000236820469B6C9847014B02221A70E0E77D
:103BB000580B002038B590F84E501DB190F82150A8
:103BC0009D4200D038BD90F820309342FAD1838CCA
:103BD00089B28B42F6D090F84C500268C38401EB56
:103BE000C511936C81849847014B02221A70E9E752
:103BF000580B002038B590F821509D4200D038BDB8
:103C000090F820309342FAD1838C89B28B42F6D05F
:103C10000268C3848184936C9847024B02221A7015
:103C2000EDE700BF580B002090F86A3093B10133E4
:103C3000DBB2032B88BF012380F86A30036810B51C
:103C4000D3F8E8300C469847034A044B147001221D
:103C50001A7010BD704700BF040D0020580B0020E3
:103C600090F84D3063B1B0F84820B0F8423003EB23
:103C7000C200084480B200B97047013880B2704772
:103C8000B0F84830B0F8420003EB830301EB430186
:103C900000EBC10188B2704790F84D306BB1B0F8BD
:103CA000483023B908298CBF002001207047481EE6
:103CB00007288CBF002001207047B0F8483010B4AE
:103CC000C3EB0313B0F84440B0F842005A0003239A
:103CD000201A13FB01218142CCBF002001205DF896
:103CE000044B704710B590F821409C4200D010BDA5
:103CF00090F820309342FAD1042915D0032996BFB9
:103D0000013189B2C9B2838C8B42F0D00268C3847E
:103D10000446136D81849847236820469B6C98471E
:103D2000024B02221A70E2E70021ECE7580B002058
:103D300030B490F8953063B390F84D302BB1B0F8B3
:103D40004830B3B9A9B9084611E0B0F84850B0F806
:103D50004430B0F842404FF4FA7202FB05F03222D0
:103D600012FB01011B1B9942CCBF0020012030BC7B
:103D70007047B0F84420B0F84200322401EB8101D2
:103D8000101A04FB03118142CCBF0020012030BC7B
:103D90007047012030BC704703790022022B80F865
:103DA0004F2000D0704790F84E30002BFAD10123FD
:103DB00080F8211080F89330704700BF38B590F834
:103DC00021509D4200D038BD90F820309342FAD166
:103DD000838C89B28B42F6D00268C3848184936C51
:103DE0009847024B02221A70EDE700BF580B0020E3
:103DF00090F84D3093B1B0F8483003B9D9B1B0F86C
:103E00004420B0F8420003EB830301EB4301131A93
:103E1000B3EB810FACBF012000207047B0F84430F5
:103E2000B0F8422001EB81019B1AB3EBC10FACBF8C
:103E30000120002070470846704700BF90F8982086
:103E400002B9704703685B6F184700BF38B590F838
:103E500021509D4200D038BD90F820309342FAD1D5
:103E600090F84C20838C01EBC2119942F3D0026888
:103E7000C3848184936C9847014B02221A70EAE74D
:103E8000580B00200379022B01D00846704700230D
:103E900070B41A4600F1930403E00132D2B25D2BF4
:103EA0000AD014F8015FDEB20133002DF7D0914241
:103EB000F3D1B0B270BC70474FF6FF7070BC704762
:103EC00090F84D3083B1B0F8483090F8280003EBFB
:103ED000830301EB430189B281422CBFC0EB010097
:103EE000C0EB000080B27047B0F8480001EB8101E0
:103EF00000EB8000490000EB800001EB800080B205
:103F0000704700BF90F84D3073B9B0F84820B0F852
:103F10004400642303FB02F20A2313FB01218142C4
:103F2000CCBF0020012070470120704730B490F8CA
:103F300021509D4201D030BC704790F82030934210
:103F4000F9D1838C89B28B42F5D00268C384818415
:103F5000936C30BC184700BFA1F10B03032B0DD9A4
:103F60000368084AD3F89830934210B50C4607D13D
:103F70001220844234BF0220002010BD80207047F0
:103F80009847F6E7E507000030B503680F4DD3F812
:103F90009830AB4283B00C4614D15D20A04206D8C5
:103FA0000B49104603B0BDE8304021F07DBE094901
:103FB00004EBC404104601EB440103B0BDE83040FB
:103FC00021F072BE01929847019AE7E72D060000A2
:103FD0007CBC0200909C020010B50368104CD3F822
:103FE0009830A34282B015D10820884206D80D49E6
:103FF000104602B0BDE8104021F056BE0A4B01EB5E
:104000004101C1EBC1011046194402B0BDE81040A6
:1040100021F04ABE8DE8060098479DE80600E4E7D7
:104020005D0600007CBC0200127F030003680B4A9F
:10403000D3F89830934205D1082088428CBF0220E3
:104040000020704700B583B00191984701998842DC
:104050008CBF0220002003B05DF804FB5D06000069
:1040600030B504680F4DD4F89840AC4285B012D1F9
:1040700008208842184608D9012A0CBF0A490B4972
:1040800005B0BDE8304021F063BE094905B0BDE888
:10409000304021F05DBE039302920191A04701A937
:1040A0000EC9E6E75D06000050B90200D8B4020070
:1040B0007CBC020030B503680F4DD3F89830AB429A
:1040C00083B00C4613D12F20A04206D80B491046CE
:1040D00003B0BDE8304021F0E7BD094901EB4411D0
:1040E0001046093103B0BDE8304021F0DDBD01923A
:1040F0009847019AE8E700BF610600007CBC020017
:10410000D4D70200F0B504683A4ED4F89840B442CF
:104110008BB017461D462DD12F20884224D9364812
:1041200000EB4111498B0BB2002B4BDD47F61643D8
:10413000994223D047F6174399424CD047F615438E
:10414000994221D0CA19013A2C4902EBC20211440A
:1041500006A821F00DFD06A9284621F0F5FD06A8C8
:1041600021F0C6FC0BB0F0BD2846254921F0F0FD3A
:104170000BB0F0BD0191A0470199CEE7790006A8E8
:104180000A2221F03BFDE6E73F2F26D9402F2BD016
:10419000EED91C4906A821F0EBFCA7F132010A2256
:1041A00002A821F02BFD02A906A821F003FE01467A
:1041B000284621F0C9FD02A821F09AFC06A821F0AA
:1041C00097FCD5E7012F28460CBF0F490F4921F076
:1041D000BFFD0BB0F0BD3946D1E70D4906A821F06F
:1041E000C7FCC7F13201DAE728460A4921F0B0FDE1
:1041F000BEE700BF61060000D4D702003CA3020066
:104200007CBC020034BB020050B90200D8B40200EA
:10421000B4B3020048B5020030B503680F4DD3F8BF
:104220009830AB4283B00C4613D12E20A04206D862
:104230000B49104603B0BDE8304021F035BD0949B7
:1042400001EB44111046093103B0BDE8304021F0C4
:104250002BBD01929847019AE8E700BFDD060000F8
:104260007CBC020018480300F0B50468384ED4F84E
:104270009840B4428BB017461D4626D12E20884266
:104280001DD9344800EB4111498B0BB2002B49DD9D
:1042900047F6154399421CD03AD347F61743994243
:1042A00036D8394606A80A2221F0A8FC06A92846D5
:1042B00021F04AFD06A821F01BFC0BB0F0BD2846FA
:1042C000254921F045FD0BB0F0BD0191A0470199B2
:1042D000D5E73F2F2FD9402F34D0F4D91F4906A856
:1042E00021F046FCA7F132010A2202A821F086FC47
:1042F00002A906A821F05EFD0146284621F024FD12
:1043000002A821F0F5FB06A821F0F2FB0BB0F0BDEE
:10431000CA19013A124902EBC202114406A821F05F
:1043200027FCC3E7012F28460CBF0E490E4921F098
:104330000FFD0BB0F0BD0D4906A821F019FCC7F127
:104340003201D1E728460A4921F002FDBBE700BF50
:10435000DD060000184803007CBC020034BB0200EC
:104360003C83030050B90200D8B40200B4B3020089
:1043700048B5020030B50368104DD3F89830AB4211
:1043800083B00C4615D11020A04206D80C49104627
:1043900003B0BDE8304021F087BC04EBC4030949F9
:1043A00004EB43041046214403B0BDE8304021F043
:1043B0007BBC01929847019AE6E700BFF90800002C
:1043C0007CBC02005458030030B504680E4DD4F88C
:1043D0009840AC4285B010D11020884206D80B49D5
:1043E000184605B0BDE8304021F0B2BC1946104671
:1043F00005B0BDE83040FEF7FFB90393029201918A
:10440000A04701A90EC9E8E7F90800004CB5020071
:1044100030B503680F4DD3F89830AB4283B00C46EB
:1044200013D11220A04206D80B49104603B0BDE8B4
:10443000304021F039BC094B1621104601FB0431F4
:1044400003B0BDE8304021F02FBC01929847019A9B
:10445000E8E700BFE50700007CBC0200B081030074
:1044600030B504680E4DD4F89840AC4285B010D1F8
:104470001220884206D80B49184605B0BDE83040E6
:1044800021F066BC1946104605B0BDE83040FEF785
:10449000B3B9039302920191A04701A90EC9E8E7BD
:1044A000E50700004CB50200F8B50368444DD3F8A9
:1044B0009830AB4206460C46174659D18A20A04296
:1044C00043D9892C56D821463046FFF757FA4FF684
:1044D000FF73984205464DD096F8933023B3394B7D
:1044E000C4EBC40403EB8404638803F47043B3F5A2
:1044F000204F23D02FD8B3F5004F4ED0B3F5104F37
:1045000059D13149384621F0CFFB96F86C212F491B
:10451000C5EBC5056D004B5D934245D038462C492F
:10452000BDE8F84021F014BCC4EBC404254B33F8BB
:10453000243003F47043B3F5204FDBD196F86D318E
:10454000012B14BF07222922E1E738462149BDE8A3
:10455000F84021F0A9BBB3F5304F16D0B3F5404F6A
:1045600029D196F86E31012B14BF07222922CEE7FC
:104570009847A4E7134BC4EBC40403EB840138460B
:104580000531BDE8F84021F08FBB96F86F31A3B13B
:10459000012B0CBF28222522B9E70F49384621F00C
:1045A00083FB96F86A21B2E7294438460231BDE818
:1045B000F84021F0CDBB0022A9E70222A7E700BF07
:1045C0008D080000CC080300BCB30200A022030049
:1045D00070B302007CBC020050B502002DE9F0412E
:1045E0000468DFF8B4E2D4F89880F04588B0074654
:1045F0000C4615461E462ED18A20A04224D9892C6D
:104600002BD838462146FFF7B9F94FF6FF73984289
:1046100023D0904BC0EBC00003EB4000828913B263
:10462000002B23DDA2F5F8430E3B092B00F2E780B7
:10463000DFE813F035005400AC007C008100560028
:104640006B00C100E00026003046834921F080FB6A
:1046500008B0BDE8F081C047CFE7804BC4EBC4048D
:1046600003EB8404E28A13B2002BDBDC012D30461D
:104670000CBF7B497B4921F06BFB08B0BDE8F081A2
:10468000294604A80A2221F0B9FA04A9304621F0EB
:104690005BFB04A821F02CFA08B0BDE8F081182DCE
:1046A00000F2C380A5F1180101EBD1710A22491073
:1046B00004A821F0A3FA04A9304621F045FB04A880
:1046C00021F016FAEB0754BF67496849304621F0DC
:1046D0003FFB3046664921F03BFBB9E7691CD0E758
:1046E000142D00F2A7800A22A5F1140104A821F0DC
:1046F00085FA04A9304621F027FB04A821F0F8F937
:1047000030465B4921F024FBA2E729460A2204A88F
:1047100021F074FA04A9304621F016FB04A821F018
:10472000E7F93046534921F013FB91E7182D77D86C
:10473000A5F11801A5E701354F4CADB2A4FB053436
:10474000E4080A22214604A821F058FA04A93046B8
:1047500021F0FAFA04A821F0CBF904EB84044749CC
:10476000304621F0F5FAA5EB44010A2289B204A8EB
:1047700021F044FA04A9304621F0E6FA04A821F019
:10478000B7F930463E4921F0E3FA61E70A226908A9
:1047900004A821F033FA04A9304621F0D5FA04A880
:1047A00021F0A6F905F001053449304621F0D0FA90
:1047B000A9002944AAE73F2D2BD9402D44D07FF6EC
:1047C00047AF304904A821F0D3F9A5F132010A22FC
:1047D000684621F013FA694604A821F0EBFA014675
:1047E000304621F0B1FA684621F082F904A821F0A0
:1047F0007FF92DE7322D22D8A5F1320141E72A4475
:10480000013A214902EBC202114404A821F0B0F997
:104810003BE71E4904A821F0ABF9C5F13201D6E708
:104820001B49304621F094FA82E71949304621F0BD
:104830008FFA37E71649304621F08AFA53E71449D0
:10484000304621F085FAD7E73046124921F080FA48
:10485000FEE600BFA02203007CBC0200CC080300DF
:1048600050B90200D8B4020064B5020068B5020075
:1048700060B5020058B50200CDCCCCCC08BC02001B
:104880006CB5020034BB020064310300B4B3020013
:104890005CB5020048B502008D08000030B5036821
:1048A000104DD3F89830AB4283B00C4615D1102090
:1048B000A04206D80C49104603B0BDE8304021F0B4
:1048C000F3B904EB44030949C4EBC3041046214483
:1048D00003B0BDE8304021F0E7B901929847019A52
:1048E000E6E700BFF90800007CBC0200FC3B0300C7
:1048F000F8B5A1F10E05012D1DD91D460368174617
:10490000D3F89830104A93420C461AD110208442B2
:10491000284606D2012F09D00C49BDE8F84021F005
:1049200017BA0B49BDE8F84021F012BA0949BDE8B1
:10493000F84021F00DBA19461046BDE8F840FDF7E1
:104940005BBF9847E3E700BFF908000070B50200BD
:104950004CB5020050B9020030B503680F4DD3F8D2
:104960009830AB4283B00C4614D10920A04206D83F
:104970000B49104603B0BDE8304021F095B9094914
:1049800004EB8404104601EB440103B0BDE8304061
:1049900021F08AB901929847019AE7E7B909000026
:1049A0007CBC0200B45B030030B504680E4DD4F843
:1049B0009840AC4285B010D10920884206D80B49F6
:1049C000184605B0BDE8304021F0C2B9194610467E
:1049D00005B0BDE83040FDF70FBF0393029201918F
:1049E000A04701A90EC9E8E7B90900004CB50200CB
:1049F00010B50368104CD3F89830A34282B015D19B
:104A00000F20884206D80D49104602B0BDE810407C
:104A100021F04AB90A4B01EB4101C1EBC10110463B
:104A2000194402B0BDE8104021F03EB98DE80600FF
:104A300098479DE80600E4E7CD0900007CBC020031
:104A400008DE020030B504680E4DD4F89840AC4240
:104A500085B010D10F20884206D80B49184605B002
:104A6000BDE8304021F074B91946104605B0BDE8E4
:104A70003040FDF7C1BE039302920191A04701A906
:104A80000EC9E8E7CD0900004CB5020030B5036857
:104A9000104DD3F89830AB4283B00C4615D1182096
:104AA000A04206D80C49104603B0BDE8304021F0C2
:104AB000FBB80A4904EBC40401EB840110460D3134
:104AC00003B0BDE8304021F0EFB801929847019A59
:104AD000E6E700BF850A00007CBC020084F6020005
:104AE000F0B50468DFF824E1D4F8987077458BB00E
:104AF000054616461C4639D11820884230D93B4B12
:104B000001EBC10103EB8101C98B0BB2002B57DD17
:104B1000A1F5F843063B112B10D8DFE803F0090F8D
:104B20000F0F0F0F0F0F0F0F0F0F0F0F0F314F2B17
:104B300095F89D30002B14BF092101217218013A0C
:104B40002B4902EBC202114406A821F011F806A974
:104B5000204621F0F9F806A820F0CAFF0BB0F0BDFE
:104B60002046244921F0F4F80BB0F0BD0191B8477C
:104B70000199C2E7314606A80A2221F03FF8E6E78C
:104B80003F2E26D9402E2BD0E8D91B4906A820F06D
:104B9000EFFFA6F132010A2202A821F02FF802A9A4
:104BA00006A821F007F90146204621F0CDF802A819
:104BB00020F09EFF06A820F09BFFCFE77100DAE708
:104BC000012E20460CBF0D490D4921F0C1F80BB054
:104BD000F0BD0C4906A820F0CBFFC6F13201DAE7A0
:104BE0002046094921F0B4F8B8E700BF84F6020076
:104BF000D84D03007CBC020034BB020050B9020057
:104C0000D8B40200B4B3020048B50200850A00001F
:104C100030B50368104DD3F89830AB4283B00C46E2
:104C200015D1B020A04206D80C49104603B0BDE80B
:104C3000304021F039B80A4904EB440401EBC401C7
:104C40001046033103B0BDE8304021F02DB8019289
:104C50009847019AE6E700BFE10A00007CBC020029
:104C6000BC8A0300F0B504683A4FD4F89840BC42BF
:104C70008BB016461D462ED1B020884225D9364825
:104C800001EB410100EBC101898A0BB2002B4ADD27
:104C900047F61643994222D047F6174399424BD024
:104CA00047F61543994220D031442C4B013903EB90
:104CB000C10106A820F05CFF06A9284621F044F8AF
:104CC00006A820F015FF0BB0F0BD2846244921F0BE
:104CD0003FF80BB0F0BD0191A0470199CDE77100FD
:104CE00006A80A2220F08AFFE6E7312E26D9322EC6
:104CF0002BD0EED91B4906A820F03AFFA6F13201CD
:104D00000A2202A820F07AFF02A906A821F052F890
:104D10000146284621F018F802A820F0E9FE06A86E
:104D200020F0E6FED5E7012E28460CBF0E490F49BC
:104D300021F00EF80BB0F0BD3146D1E70C4906A8C2
:104D400020F016FFC6F13201DAE72846094920F0C3
:104D5000FFFFBEE7E10A0000BC8A030060760300A3
:104D60007CBC020034BB020050B90200D8B402007F
:104D7000B4B3020048B5020030B503680D4DD3F856
:104D80009830AB4283B00C4610D10620A04206D822
:104D90000949104603B0BDE8304020F085BF1146F8
:104DA000204603B0BDE83040FDF7B4BF01929847FC
:104DB000019AEBE7A50B00007CBC020003680B4ADC
:104DC000D3F89830934205D1062088428CBF022048
:104DD0000020704700B583B001919847019988423F
:104DE0008CBF0220002003B05DF804FBA50B00007F
:104DF00030B504680F4DD4F89840AC4285B012D15C
:104E000006208842184608D9012A0CBF0A490B49D6
:104E100005B0BDE8304020F09BBF094905B0BDE8B2
:104E2000304020F095BF039302920191A04701A961
:104E30000EC9E6E7A50B000050B90200D8B4020085
:104E40007CBC020030B503680D4DD3F89830AB42FE
:104E500083B00C4610D10620A04206D8094910465E
:104E600003B0BDE8304020F01FBF1146204603B01C
:104E7000BDE83040FDF74EBF01929847019AEBE73D
:104E8000A50B00007CBC020003680B4AD3F89830E5
:104E9000934205D1062088428CBF02200020704733
:104EA00000B583B001919847019988428CBF0220D8
:104EB000002003B05DF804FBA50B000030B50468CA
:104EC0000F4DD4F89840AC4285B012D106208842EC
:104ED000184608D9012A0CBF0A490B4905B0BDE89C
:104EE000304020F035BF094905B0BDE8304020F022
:104EF0002FBF039302920191A04701A90EC9E6E7D3
:104F0000A50B000050B90200D8B402007CBC02001E
:104F1000A1F10E02012A01D8802070470368074AD8
:104F2000D3F89830934210B50C4605D11020844236
:104F300034BF0220002010BD9847F8E7F9080000B0
:104F400030B5838C8B4283B004460AD00A480B4AA2
:104F5000E3840123A184037084F8A330137003B0A9
:104F600030BD0268064D526FAA42EFD001919047C2
:104F7000A38C0199EAE700BF3A09FF1F7056FF1F93
:104F8000C9090000828C8A4208B503460AD0012074
:104F9000DA84998483F833010649074A01230B70A8
:104FA000137008BD0368054A5B6F9342F4D09847BD
:104FB000F2E700BF3A09FF1F7056FF1FC909000042
:104FC00010B5838C8B4282B0044618BFC38409D0CD
:104FD00009480A4AA1840123037084F8A0301370A1
:104FE00002B010BD0368064A5B6F9342F0D0019196
:104FF00098470199ECE700BF3A09FF1F7056FF1F61
:10500000C909000008B5074A074B117802200022A1
:105010001A601EF06BFC054B03201978BDE80840B0
:105020001EF064BC3809FF1F7089FF1F000AFF1FB4
:1050300000B5074A074B12681B6883B00192019ABA
:10504000934202D20BB1FFF7DDFF03B05DF804FB22
:105050009C8500207089FF1F38B50C4605461EF060
:105060002BFC844205D021462846BDE838401EF07E
:105070003DBC38BD70B584B00C46064620F03AFF02
:10508000057AA5420DD2013C651BEDB20135002425
:1050900001342021304620F069FEAC42F8D104B042
:1050A00070BD234600226846314620F0F7FE69466F
:1050B000304620F0F1FD684620F01AFD04B070BDC6
:1050C0002DE9F041057A102D28BF102585B16F1EFE
:1050D000FFB20D4E8046013700242146404620F0A5
:1050E000B9FE0134BC4206F8010FF6D1102D08D0EC
:1050F000064920226B1C4A55DDB2102DFAD1BDE8BD
:10510000F081BDE8F08100BF0B0D00200C0D0020E8
:105110002DE9F041057A102D28BF102585B16F1EAD
:10512000FFB20D4E8046013700242146404620F054
:1051300091FE0134BC4206F8010FF6D1102D08D0C3
:10514000064920226B1C4A55DDB2102DFAD1BDE86C
:10515000F081BDE8F08100BF231B0020241B00204C
:10516000F8B5047A102C064629D8012C1FD8C4F1B2
:105170001007002F09DD00221248134620210133B9
:10518000DBB2BB4281541A46F9DBD4B1651E0E4B2B
:10519000EDB201351F4400242146304620F05AFE6E
:1051A0000134AC4207F8010FF6D1F8BDECB2651E30
:1051B0002946304620F04EFE2028F7D0D7E71024AD
:1051C000F5E7F8BD241B0020231B00202DE9F04744
:1051D0000D7A102D28BF102580465DB300EBC00668
:1051E000DFF8589000EB460605F1FF3A09EB86061A
:1051F0005FFA8AFA0F460B360AF1010A00242146AB
:10520000384620F019FE0134037806F8013F544572
:10521000F5D1102D0CD04C2303FB0898202208EB6D
:1052200005030135EDB2102D1A73F8D1BDE8F087F2
:10523000BDE8F087DFF80490EDE700BF8857FF1F57
:10524000F8B5064608460C4623F0FAF8C0B2102816
:1052500028BF1020F8B106EBC603104F06EB43033E
:1052600007EB8303451E0B3354FA85F5611E11F8D5
:10527000012F03F8012FA942F9D110280AD04C239D
:1052800003FB0676202233180130C0B210281A73AF
:10529000F9D1F8BDF8BD014FF1E700BF8857FF1FF6
:1052A000F0B5134B134E144D07468E460FCB8DB001
:1052B0006C4607C4237096E80F0004AC07C4237043
:1052C00095E80F0008AC07C497F86A20237042B134
:1052D000012A0CBF04A908A97046FFF7B1FF0DB061
:1052E000F0BD69467046FFF7ABFF0DB0F0BD00BFE3
:1052F00088B5020098B50200A8B502002DE9F04774
:10530000DFF87C80DFF87CC0DFF87CE01B4D824654
:105310008946B8E80F0094B06F460FC7BCE80F008D
:1053200005AE0FC6BEE80F000AAC0FC4D8F80010D7
:10533000DCF80020DEF800302370397032700FCDB9
:105340000FAC0FC49AF86A302A682270012B0BD078
:10535000022B0ED0032B0CBF0FA969464846FFF75E
:105360006FFF14B0BDE8F08705A94846FFF768FF56
:10537000F7E70AA94846FFF763FFF2E7B8B502006E
:10538000CCB50200E0B50200F4B502002DE9F0470B
:10539000DFF87C80DFF87CC0DFF87CE01B4D8246C4
:1053A0008946B8E80F0094B06F460FC7BCE80F00FD
:1053B00005AE0FC6BEE80F000AAC0FC4D8F8001047
:1053C000DCF80020DEF800302370397032700FCD29
:1053D0000FAC0FC49AF86A302A682270012B0AD0E9
:1053E000022B0DD08CBF0FA969464846FFF728FF56
:1053F00014B0BDE8F08705A94846FFF721FFF7E79D
:105400000AA94846FFF71CFFF2E700BF08B60200F2
:105410001CB6020030B6020044B602002DE9F04787
:105420000D7A102D28BF102580465DB300EBC00615
:10543000DFF8589000EB460605F1FF3A09EB8606C7
:105440005FFA8AFA0F461C360AF1010A0024214647
:10545000384620F0F1FC0134037806F8013F54454A
:10546000F5D1102D0CD04C2303FB0898202208EB1B
:1054700005030135EDB2102D5A77F8D1BDE8F0875C
:10548000BDE8F087DFF80490EDE700BF8857FF1F05
:1054900070B5054684B00E4622B316494C2303FB73
:1054A00006135432D4B25C866846002120F060FBBB
:1054B000A91D684620F0F8FB6846202120F056FC24
:1054C0000D4904EBC40401EB4401684620F040FCA4
:1054D00069463046FFF7A2FF684620F009FB01202D
:1054E00004B070BD90F86A20002AD6D1012004B023
:1054F00070BD00BF8857FF1F909C020070B588B038
:1055000006460C4668461E49154620F031FB1D49EB
:105510004C2303FB04130222DA71F27F83F82E205E
:10552000A5F10E02012A09D920466946FFF776FF48
:10553000684620F0DDFA012008B070BD0E2D1AD0AB
:1055400096F8692083F842204C2303FB04110A22B9
:105550004B7A042B0CBF91F8421091F8441004A828
:10556000013120F04BFB04A9684620F0EDFB04A8B4
:1055700020F0BEFAD8E796F8682083F84220E3E7E7
:1055800034B302008857FF1F30B50C48144602EBB5
:105590004203026885B0C3EB03130D466846D11879
:1055A00020F0E6FA0B2C03D828466946FFF736FFB1
:1055B000684620F09DFA012005B030BD68710020DA
:1055C000F0B585B0064614460D466846234920F0DE
:1055D000CFFA301990F8931001B9ACBB90F89C3019
:1055E0001F4F5BB34C2303FB05730122DA71A2004A
:1055F0001C4B161903EB46064C2101FB0571767A0C
:1056000081F82E60144403EB4404237A63B190F8CC
:1056100093201549013B134403EB830203EB420340
:105620001944684620F094FB28466946FFF7F6FEC9
:10563000684620F05DFA012005B0F0BD4C2303FB65
:1056400005730222DA71D2E7054E064B4C2202FBAB
:105650000566A200F17186F82E10D3E734B302007C
:105660008857FF1FB45B03006805030070B515463B
:10567000064684B035440C466846114920F078FA55
:1056800095F893300F4AA3B14C2303FB0423012167
:10569000D9714C2303FB0423F27F83F82E2020468C
:1056A0006946FFF7BBFE684620F022FA012004B0ED
:1056B00070BD4C2303FB04230221D971E9E700BF2D
:1056C00034B302008857FF1F2DE9F04391B015460F
:1056D00007460E4668466F4920F04AFA0B2D52D80D
:1056E000DFF8C081DFF8C8916B48D9F800204C235F
:1056F00003FB06830221D971BB8C03EB4303C3EB8D
:1057000003131A442A440023517D92F821E01C46D9
:1057100006E00133712B00F113004BD010F8134C4D
:10572000A142DAB2F5D110F8124C7445F1D1002A39
:1057300040D003EBC302594903EB420319446846C6
:1057400020F006FBBB8C564AD9F8001003EB43034C
:10575000A2FB0502C3EB031352080B4402EB420009
:105760001A44281A547C0130C2B2944200F0858059
:105770002B445B7D023B072B78D8DFE803F0705B9E
:1057800069627777775B4749FA7F4C2303FB0613FF
:105790003D4483F82E2095F88720E2B9DA7130462F
:1057A0006946FFF73BFE684620F0A2F9012011B0E0
:1057B000BDE8F083BEF1000F02D097F84E306BB910
:1057C0003949684620F070FA4C2303FB0688002311
:1057D00088F82E30E3E70122DA71E0E704A820F030
:1057E000F9F904A908A820F0D7F908A82F4920F052
:1057F000E9FABB8CD9F8002003EB4303C3EB031396
:1058000013441D44044695F821100CA820F0E2F939
:105810000CA9204620F0CEFA0146684620F094FA02
:105820000CA820F065F908A820F062F904A820F07F
:105830005FF9C9E74C2303FB0688EA2388F82E307A
:10584000ADE74C2303FB0688EC2388F82E30A6E74F
:105850004C2303FB0688E82388F82E309FE74C236F
:1058600003FB0688E92388F82E3098E74C2303FBD6
:105870000688ED2388F82E3091E74C2303FB06833E
:105880000122DA71BB8C03EB4303C3EB03130B441C
:105890006EE700BF34B30200F7170300E6170300FA
:1058A000ABAAAAAA8857FF1F70B3020058B602001D
:1058B00068710020F8B5064608460C4622F0C0FD87
:1058C000C0B2102828BF1020F8B106EBC603104F55
:1058D00006EB430307EB8303451E1C3354FA85F59F
:1058E000611E11F8012F03F8012FA942F9D11028E8
:1058F0000AD04C2303FB0676202233180130C0B2B5
:1059000010285A77F9D1F8BDF8BD014FF1E700BF73
:105910008857FF1F08B50AB990F86A20012A13D0EA
:10592000022A16D001EBC10001EB400189000B4AAD
:1059300001F11C032C3113440A44202103F8011FF8
:105940009342FBD1012008BD08460549FFF7B2FF8D
:10595000F8E708460349FFF7ADFFF3E78857FF1F55
:105960005CB6020068B60200104A4C2303FB012318
:1059700093F83230013BD8B20A280FD901EBC100AD
:1059800001EB4001890001F11C032C3113440A444E
:10599000202103F8011F9342FBD17047044A03EB17
:1059A00003130846D118FFF785BF00BF8857FF1FB4
:1059B000588A020070B584B006460D461446684603
:1059C000724920F0D5F80CB996F86A40013C052CD4
:1059D00000F28D80DFE804F040525456600396F8E0
:1059E0006C216B4B9B5C002B00F09E8069486A49E0
:1059F00030F81240013C234468469CB220F054F930
:105A000096F86B31002B00F0B0806449C4EBC404FD
:105A100001EB44010231684620F09AF996F86B31A7
:105A20001BB92921684620F0A1F969462846FFF7ED
:105A3000F5FC96F86C215A4B5A4903EB42024C2371
:105A400003FB0515537885F82E30684620F050F892
:105A50000124204604B070BD53492846FFF72AFFB1
:105A60005049F27F4C2303FB0515684685F82E202C
:105A700020F03EF80124204604B070BD4B49ECE70D
:105A80004B49EAE796F86F31002B67D0012B76D0AF
:105A9000022BE5D14749E0E796F86A213C4B9B5C35
:105AA000002B54D03B48444930F81240013C234479
:105AB00068469CB220F0F8F896F86931002B59D06E
:105AC0003649C4EBC40401EB44010231684620F0BE
:105AD0003FF996F869311BB92921684620F046F94B
