:0200000460009A
:100000004643464200000156000000000103030081
:1000100000000000000000000000000000000000E0
:1000200000000000000000000000000000000000D0
:1000300000000000000000000000000000000000C0
:1000400000000000010408000000000000000000A3
:100050000000800000000000000000000000000020
:100060000000000000000000000000000000000090
:100070000000000000000000000000000000000080
:10008000EB04180A063204260000000000000000FD
:10009000050404240000000000000000000000002F
:1000A0000000000000000000000000000000000050
:1000B0000604000000000000000000000000000036
:1000C0000000000000000000000000000000000030
:1000D00020041808000000000000000000000000DC
:1000E0000000000000000000000000000000000010
:1000F0000000000000000000000000000000000000
:10010000D8041808000000000000000000000000F3
:100110000204180804200000000000000000000095
:1001200000000000000000000000000000000000CF
:10013000600400000000000000000000000000005B
:1001400000000000000000000000000000000000AF
:10015000000000000000000000000000000000009F
:10016000000000000000000000000000000000008F
:10017000000000000000000000000000000000007F
:10018000000000000000000000000000000000006F
:10019000000000000000000000000000000000005F
:1001A000000000000000000000000000000000004F
:1001B000000000000000000000000000000000003F
:1001C000000100000010000001000000000000001D
:1001D000000001000000000000000000000000001E
:1001E000000000000000000000000000000000000F
:1001F00000000000000000000000000000000000FF
:10020000FFFFFFFFFFFFFFFFFFFFFFFFFFFFFFFFFE
:10021000FFFFFFFFFFFFFFFFFFFFFFFFFFFFFFFFEE
:10100000D10020432914006000000000000000000F
:10101000201000600010006000940E6000000000CE
:101020000000006000A00E0000000000FFFFFFFFB6
:10103000FFFFFFFFFFFFFFFFFFFFFFFFFFFFFFFFC0
:10104000FFFFFFFFFFFFFFFFFFFFFFFFFFFFFFFFB0
:10105000FFFFFFFFFFFFFFFFFFFFFFFFFFFFFFFFA0
:10106000FFFFFFFFFFFFFFFFFFFFFFFFFFFFFFFF90
:10140000884207D0904205D251F8043B40F8043B93
:101410008242F9D8704700BF884204D2002340F8C6
:10142000043B8142FBD87047664B4FF42A01664A61
:1014300066482DE9F0475A641864654A99639546F1
:10144000BFF34F8FBFF36F8F17F04EFD614B082036
:10145000614A6249C3F854016148FFF7D1FF614A0C
:1014600061496248FFF7CCFF61496248FFF7D4FF4A
:10147000614C62494FF470000023614A086044F8EF
:1014800023200133B02BFAD15E4B80215E4A03F852
:10149000011B9342FBD14F4D4FF080385B494FF019
:1014A000FF325B4B0026DFF8A4A1DFF8A4911C609B
:1014B000C5F80481C5F800A1C5F8F480C5F8F0901E
:1014C0000B68544F43F4E0230B60FB693D4923F064
:1014D0007F0343F04003FB617B6A23F07F0343F00B
:1014E00040037B628A66CA660A674A6717F002FD94
:1014F000494A4A4B6320A2630321E363484A494BAC
:10150000106000F160401E6042F8041C00F6A170FB
:101510004549464AC3F8082D0B68454A43F0807395
:101520000B601368434943F00103136003680B60C9
:1015300017F030FFC5F804813F48C5F800A1C5F891
:10154000F480C5F8F09018F0BBF9F96E3B4A41F40D
:1015500040513B4BF9661660C2F80861C2F8186149
:10156000C2F82861C2F838619A6BD20708D442F6F3
:101570001562344959651A659A6B42F001029A6303
:101580002F4A314C936843F00113936017F024FD08
:1015900017F07EFC18F084F817F02EFF17F0A6FC69
:1015A0002368132BFCD917F0B5FF2368B3F5967F9A
:1015B000FBD317F09DFC18F0B3F918F0B5F930BF64
:1015C000FDE700BF00C00A40FFAFAAAA0700200045
:1015D0000000052000800D4058A8020028910B60F3
:1015E00000000000C056002084390E60000000207A
:1015F00080610120C05600200054002088ED00E0EA
:10160000D952020000E400E0A0E400E024ED00E094
:1016100008ED00E000C00F403D6D0200416D02008A
:1016200014E000E018E000E0FCED00E00000202005
:10163000001000E0285D01200046C3230040084060
:1016400000400D400000C0562C5D01201B101820EA
:101650000C0D1113000000005D207047542901D8C3
:10166000022070475D2934BF80200020704700BFF2
:101670000379022B01D05D20704790F8FB004000F9
:10168000704700BF4B1E072B05D890F86D308B427A
:1016900018BF80F86D10704790F8FC00704700BFCD
:1016A000082070472F2070472E2906D8044B01EBE5
:1016B000410103EBC101087A70470020704700BF69
:1016C000909901601531C8B2704700BF437900227C
:1016D00008490133A0F84C2080F8512070B4B0F8CC
:1016E0004E504FF49676044CA0F84E6025700B7067
:1016F00070BC7047575F0120345F012090F8513073
:101700003BB9C1EB0111490089B202290CD8002074
:101710007047B0F84C3001EB4101C3EB031301EB10
:10172000430189B20229F2D9033988B2704700BF58
:10173000302070472F2907D8044B01EB410103EB00
:10174000C10191F8700470470020704790990160C2
:101750000C2070470139C9B2072906D890F8410119
:1017600040FA01F101F0010070470020704700BF0E
:101770000820704790F89020072A16D8012393403C
:1017800013F0F00F0BD113F00C0F0FD19B070CD0FF
:101790007F220823A0F8482080F8AD3070477F22D0
:1017A0000423A0F8482080F8AD3070477D22032341
:1017B000A0F8482080F8AD30704700BF022380F8C1
:1017C0006E3070474379002208490133A0F84C205D
:1017D00080F8512070B4B0F84E504FF4C876044CE5
:1017E000A0F84E6025700B7070BC7047575F0120E9
:1017F000345F012090F85210026880F85510136D84
:10180000184700BF0F2908D801EB4102044B01EB38
:101810008201194491F8F40870470020704700BF16
:101820009099016030B40AB990F86E20012A1ED058
:10183000022A1AD0032A0CBF0D25002501EBC10096
:101840000C4A4C23202401EB400003FB01218000C3
:101850004D8600F11C032C301344024403F8014F61
:101860009342FBD1012030BC70470C25E6E70B25E5
:10187000E4E700BF9C4701204B1E072B05D890F8DA
:101880006D308B4218BF80F86D10704743790D4959
:10189000013390F89E2030B40B4CB0F84E500B70D2
:1018A000257052B14FF4FA73A0F84E30002330BCCB
:1018B000A0F84C3080F8513070476423A0F84E30C7
:1018C000F4E700BF575F0120345F01201420704708
:1018D00090F86E304BB101330122DBB2032B88BF8D
:1018E000012380F86E30014B1A707047AE5F012003
:1018F00030B40AB990F86E20012A1ED0022A1AD0FC
:10190000032A0CBF0E25002501EBC1000C4A4C2315
:10191000202401EB400003FB012180004D8600F1F3
:101920001C032C301344024403F8014F9342FBD1B3
:10193000012030BC70470D25E6E70C25E4E700BF29
:101940009C4701204B1E092B05D890F86D308B4227
:1019500018BF80F86D1070470A207047022070474A
:101960004379002208490133A0F84C2080F8512027
:1019700070B4B0F84E505026044CA0F84E6025705C
:101980000B7070BC704700BF575F0120345F0120AF
:101990008A20704790F86A300BB98A207047024A53
:1019A000134413F8010C70476C080120F0B490F850
:1019B0006A50B5B100230E4A0B241F4603E08A2B60
:1019C00012D012F81C4CAC42DEB202F11C0203F140
:1019D0000103F4D17C1CB942E7B2F0D1B0B2F0BC43
:1019E00070470846F0BC70474FF6FF70F0BC704778
:1019F0007DA30160704700BF1020704790F86E30E3
:101A00004BB101330122DBB2022B88BF012380F8E6
:101A10006E30014B1A707047AE5F012070B40AB986
:101A200090F86E20012A21D0022A12D001EBC103C6
:101A30000F4A202001EB4301890001F11C032C31E6
:101A400013440A4403F8010F9342FBD1012070BCF8
:101A500070470F23064E4C2405681A4604FB0164A8
:101A6000D5F8B45063862B4670BC18470E23F1E7B7
:101A70009C47012001207047013908298CBF0020B4
:101A8000012070474379002208490133A0F84C2017
:101A900080F8512070B4B0F84E502426044CA0F8C1
:101AA0004E6025700B7070BC704700BF575F0120FF
:101AB000345F012009207047082994BF02200020CC
:101AC000704700BF0F2070470E2908D801EB410175
:101AD000044BC1EBC101194491F8EA07704700209B
:101AE000704700BF88AA016030B40C4A4C2301EB58
:101AF000C1050E2403FB0123202001EB45015C8678
:101B0000890001F11C032C3113440A4403F8010F2E
:101B10009342FBD1012030BC704700BF9C4701209D
:101B2000704700BF4379002208490133A0F84C20D8
:101B300080F8512070B4B0F84E504FF4C876044C81
:101B4000A0F84E6025700B7070BC7047575F012085
:101B5000345F012090F8513033B901EB8101C900A5
:101B600003290BD800207047B0F84C3003EB8303F7
:101B700001EB4301890089B20329F3D9043988B202
:101B8000704700BF63207047622906D8044B1A22B1
:101B900002FB013191F81E0970470020704700BF19
:101BA00088AA0160182070470F2902D90531C8B2F0
:101BB00070470846704700BF0139C9B2072906D8E7
:101BC00090F87A0340FA01F101F00100704700201B
:101BD000704700BF90F86E304BB101330122DBB289
:101BE000022B88BF012380F86E30014B1A707047BA
:101BF000AE5F0120192070470C2909D8014491F8E3
:101C00000D31042B13D8DFE803F008080A0A0A0094
:101C100018298CBF0020012070470220704791F8DE
:101C2000E73091F800110133591AC8B2704701200A
:101C3000704700BF90F8DE00003018BF01207047E9
:101C400090F8DB301BB190F8F4300133DBB218466A
:101C5000704700BFB1207047C22907D8044B01EB81
:101C6000410103EBC10191F82E027047002070473B
:101C700080BB016090F86A300BB9C3207047024AFC
:101C8000134413F8010C7047B04F0120F0B490F8E2
:101C90006A50B5B100230E4A0C241F4603E0C32B43
:101CA00012D012F8184CAC42DEB202F1180203F165
:101CB0000103F4D17C1CB942E7B2F0D1B0B2F0BC60
:101CC00070470846F0BC70474FF6FF70F0BC704795
:101CD000DBBD01602720704710B44C20044C00FB92
:101CE000014181F8303081F83C205DF8044B7047A9
:101CF0009C47012090F86E304BB101330122DBB2DA
:101D0000022B88BF012380F86E30014B1A70704798
:101D1000AE5F0120062070470320704790F89D00B9
:101D2000704700BF104607291DD8DFE801F0070AF9
:101D30000D10131619040D4917F03ABD0C4917F090
:101D400037BD0C4917F034BD0B4917F031BD0B49B5
:101D500017F02EBD0A4917F02BBD0A4917F028BD10
:101D6000094917F025BD094917F022BD8027002039
:101D70000C270020182700202427002034270020CB
:101D800044270020582700206C270020BC37002063
:101D900049B1012903D11046054917F009BD104684
:101DA000044917F005BD1046034917F001BD00BFF7
:101DB000A8270020BC3700209427002001290ED03E
:101DC00009D3022903D11046074917F0F1BC104688
:101DD000064917F0EDBC1046054917F0E9BC10465E
:101DE000044917F0E5BC00BFD0270020BC37002015
:101DF000B8270020C427002001EB4101034B104607
:101E000003EBC101093117F09BBC00BF9099016041
:101E100001EB4101034B104603EBC101093117F0FF
:101E20008FBC00BFF89D016001EB4103104610B468
:101E300001EB8301024C21445DF8044B17F080BC98
:101E400078A20160024B104603EB011117F078BC39
:101E50004CD0016001EB4103104610B4C1EBC3014B
:101E6000024C21445DF8044B17F06ABC8CD1016030
:101E700001EB8101024B104603EB410117F060BCFE
:101E8000FCD2016001EB4101034B1046C1EBC101E3
:101E9000194417F055BC00BF60B20160622900D937
:101EA000704710B4044B1A24104604FB01315DF84E
:101EB000044B0B3117F044BC9CB3016001EB4101B2
:101EC000034B104603EBC101033117F039BC00BFCF
:101ED000ACBD0160262903D91046054917F030BC76
:101EE00001EB4101034B104603EBC10117F028BC85
:101EF000F427002058D30160262903D9104606494B
:101F000017F01EBC01EB4101044B104603EBC1016D
:101F10000E3117F015BC00BFF427002058D3016024
:101F200030B4B9B101EB4103C1EBC303DBB200F242
:101F30000B2100F21325C418013394F83B41DBB2A6
:101F400001F8014FA942F6D100F50371104630BCEB
:101F500017F0F6BB1723EAE72DE9F041234F3B6862
:101F600073B10D4601EB4101214C8046C5EBC10127
:101F7000104616462144113117F0E2FB0B2D01D912
:101F8000BDE8F0813A21304617F0A2FCB8F82820CD
:101F90003968002302EB420204F287501C46C2EB70
:101FA00002120A441544697D95F8212005E00133A9
:101FB0001330712B14D010F8134CA142DDB2F6D1BE
:101FC00010F8124C9442F2D155B103EBC302094907
:101FD000304603EB4203BDE8F041194417F0B0BBB3
:101FE00030460549BDE8F04117F0AABB980801202A
:101FF0008CD1016002D70160F427002030B4B9B160
:1020000001EB4103C1EBC303DBB200F2444100F238
:102010004C45C418013394F87443DBB201F8014F06
:10202000A942F6D100F24541104630BC17F088BBFA
:102030001723EAE790F89E30012B00D0704700F19B
:10204000B801104617F004BC30B589B00D460C49F4
:10205000144604A817F024FC2946684617F0ECFB48
:10206000694604A817F064FC0146204617F0F0FB0F
:10207000684617F079FB04A817F0DAFB09B030BD09
:10208000FC27002030B589B00D460C49144604A841
:1020900017F006FC2946684617F0CEFB694604A8EF
:1020A00017F046FC0146204617F0D2FB684617F0B1
:1020B0005BFB04A817F0BCFB09B030BD082800206A
:1020C000032930B5154689B022D90439CCB2072C82
:1020D00005D91449104617F033FB09B030BD124939
:1020E00004A817F0DDFB0A22611C684617F074FB98
:1020F000694604A817F01CFC0146284617F0A8FB07
:10210000684617F031FB04A817F092FB09B030BD08
:10211000064BC1EBC1011046194417F011FB09B081
:1021200030BD00BFF42700201428002064DF0160C8
:10213000032930B5154689B022D90439CCB2072C11
:1021400005D91449104617F0FBFA09B030BD124901
:1021500004A817F0A5FB0A22611C684617F03CFB97
:10216000694604A817F0E4FB0146284617F070FB07
:10217000684617F0F9FA04A817F05AFB09B030BD09
:10218000064BC1EBC1011046194417F0D9FA09B04A
:1021900030BD00BFF42700202028002080DF016030
:1021A0002DE9F04390F8905091B0072D45D80123C8
:1021B00016460C46AB4013F0AA0F41D113F0550F51
:1021C0003BD0022D3F4D4FF00A0204A80CBF4FF048
:1021D00003094FF0040991FBF9F75FFA87F808F15A
:1021E000010885FB08354FEAE873C3EBA5052946CE
:1021F00017F0F2FA04A90CA817F03EFA0A2205EB30
:10220000850108A8A8EB410117F0E6FA08A90CA877
:1022100017F08EFB09FB17414131C9B217F078FB6B
:102220000146304617F014FB08A817F09DFA0CA8D9
:1022300017F0FEFA04A817F097FA11B0BDE8F08382
:1022400021490A226846A1FB0431490917F0C4FA62
:10225000694608A817F010FA1C4B04A8A3FB042534
:102260000A22ED08A9B205EB8505A3FB0173DB0883
:1022700003EB8303A1EB430189B217F0ADFA04A984
:1022800008A817F055FB0746A4EB45010A220CA845
:1022900089B217F0A1FA0CA9384617F049FB01469C
:1022A000304617F0D5FA0CA817F05EFA04A817F01C
:1022B0005BFA08A817F0BCFA684617F055FA11B097
:1022C000BDE8F083676666661F85EB51CDCCCCCC4C
:1022D000F0B590F89E3091B01546002B51D190F892
:1022E000AD31002B47D14C1C04A8474917F0D8FA50
:1022F0004649A4B20A226846A1FB0431490917F0F5
:102300006BFA694604A817F013FB414B074608A86F
:10231000A3FB04260A22F608B1B206EB8606A3FB4D
:1023200001E3DB0803EB8303A1EB430189B217F060
:1023300053FA08A9384617F0FBFA0746A4EB460102
:102340000A220CA889B217F047FA0CA9384617F0F0
:10235000EFFA0146284617F07BFA0CA817F004FAAA
:1023600008A817F001FA684617F0FEF904A817F05C
:102370005FFA11B0F0BD2749104617F0E1F911B02E
:10238000F0BD0131214B0A2268468CB2A3FB043117
:10239000490917F021FA694608A817F06DF91C4B96
:1023A00004A8A3FB04260A22F608B1B206EB8606AF
:1023B000A3FB0173DB0803EB8303A1EB430189B2A9
:1023C00017F00AFA04A908A817F0B2FA0746A4EB16
:1023D00046010A220CA889B217F0FEF90CA938466A
:1023E00017F0A6FA0146284617F032FA0CA817F0A3
:1023F000BBF904A817F0B8F908A817F019FA68464D
:1024000017F0B2F911B0F0BD2C2800201F85EB5158
:10241000CDCCCCCC24280020F0B590F89E3091B0E3
:1024200004460F461646002B36D190F85130002B4B
:1024300075D190F84C100A22604D04A801EB81017F
:1024400007EB4104E4B2A5FB0435ED08294605EB92
:10245000850517F0C1F904A90CA817F00DF90A2297
:10246000A4EB450108A8C9B217F0B6F908A90CA851
:1024700017F05EFA524917F083FA0146304617F01A
:10248000E7F908A817F070F90CA817F0D1F904A81B
:1024900017F06AF911B0F0BD90F85130002B69D0F7
:1024A000B0F84C100A22454D6846A5FB0131C90819
:1024B00017F092F9694608A817F0DEF8B4F84C1046
:1024C0000A2204A8A5FB0135ED0805EB8505A1EB63
:1024D000450189B217F080F904A908A817F028FA75
:1024E000044639460A220CA817F076F90CA92046B2
:1024F00017F01EFA334917F043FA0146304617F039
:10250000A7F90CA817F030F904A817F02DF908A8BE
:1025100017F08EF9684617F027F911B0F0BDB0F842
:102520004C100A22254D6846A5FB0131C90817F059
:1025300053F9694608A817F09FF8B4F84C100A221E
:1025400004A8A5FB0135ED0805EB8505A1EB4501C8
:1025500089B217F041F904A908A817F0E9F904466F
:1025600039460CA80A2217F037F90CA9204617F0B3
:10257000DFF9C2E7B0F84C400A22104904A804EB86
:10258000840407EB4404A4B2A1FB0437FF083946D6
:1025900007EB870717F020F904A90CA817F06CF8CF
:1025A0000A22A4EB470108A889B217F015F908A977
:1025B0000CA817F0BDF904495DE700BFCDCCCCCC29
:1025C00030280020382800203428002070B590F8EA
:1025D00090308CB01646012B0CBF0425082500292D
:1025E0004ED0A9420C4632D9641B2B4904A8651E63
:1025F00017F056F90A226846002D2946B8BFA11DDA
:10260000C91017F0E9F8694604A817F091F92349B1
:1026100017F0B6F9224904462940002936DB0A2280
:10262000013108A817F0D8F808A9204617F080F95A
:102630000146304617F00CF908A817F095F86846DF
:1026400017F092F804A817F0F3F80CB070BD154914
:1026500008A817F025F90A22214604A817F0BCF8AB
:1026600004A908A817F064F90146304617F0F0F8FD
:1026700004A817F079F808A817F0DAF80CB070BDC4
:102680000949104617F05CF80CB070BD013961F0D3
:1026900007010131C3E700BF4428002008370020AC
:1026A00007000080402800203C28002070B590F8EA
:1026B00051308CB004460D46164633BBB0F84C3052
:1026C0000BB9002964D0354908A817F0E9F8B4F827
:1026D0004C100A2204A801EB810105EB41010139EC
:1026E00017F07AF804A908A817F022F92C4917F076
:1026F00047F90146304617F0ABF804A817F034F854
:1027000008A817F095F80CB070BDB0F84C30A3B91C
:1027100029B92449104617F013F80CB070BD2249AE
:1027200008A817F0BDF8294604A80A2217F054F8A3
:1027300004A908A817F0FCF8DBE7184904A817F06B
:10274000AFF8B4F84C100A226846013917F044F883
:10275000694604A817F0ECF8144917F011F904467B
:102760000A22294608A817F037F808A9204617F0CA
:10277000DFF80146304617F06BF808A816F0F4FFB2
:10278000684616F0F1FF04A817F052F80CB070BDBF
:102790000749104616F0D4FF0CB070BD4428002045
:1027A0004C28002050280020402800200837002016
:1027B00048280020C7291046F0B50E468DB094BFBA
:1027C00055215021154617F083F8234BC824234F79
:1027D0006846A3FB06230A229B0904FB1364C4F387
:1027E0008D040134E4B2A7FB0437FF08394607EB38
:1027F000870716F0F1FF694608A816F03DFF0A2288
:10280000A4EB470104A8C9B216F0E6FF04A908A882
:1028100017F08EF80146284617F01AF804A816F0AB
:10282000A3FF08A817F004F8684616F09DFF2D21B5
:10283000284617F04DF806F003010A2208A80131D6
:1028400016F0CAFF08A9284617F002F808A816F0E3
:102850008BFF0DB0F0BD00BF1F85EB51CDCCCCCCB4
:10286000622930B51D468BB02FD83A4B1A2404FB91
:102870000131B1F82A190BB2002B54DD364C0C444F
:10288000112C10D8DFE804F0090F0F0F0F0F0F0FF6
:102890000F0F0F0F0F0F0F2D4D2790F8AD30002B9E
:1028A00014BF092101210A442C4906A8013A02EB70
:1028B000C202114416F04CFF06A9284616F0C8FFC4
:1028C00006A816F051FF0BB030BD2549184616F08A
:1028D00037FF0BB030BD11460A2206A816F07CFF68
:1028E000EAE73F2A28D9402A2FD00192EBD91D4987
:1028F00006A816F0D5FF019AA2F132010A2202A819
:1029000016F06AFF02A906A817F012F80146284639
:1029100016F09EFF02A816F027FF06A816F088FF03
:10292000D1E75100D8E7012A28460CBF0E490F49CC
:1029300016F006FF0BB030BD0D4906A8019216F047
:10294000AFFF019AC2F13201D8E72846094916F0D3
:10295000F7FEB8E788AA0160FA83FFFF9CDF0160F9
:10296000BC37002038300020783400205C2800205C
:1029700054280020582800200F2930B5154689B06A
:1029800022D91039CCB2072C05D91349104616F0BC
:10299000D7FE09B030BD114904A816F081FF0A2204
:1029A000611C684616F018FF694604A816F0C0FFBF
:1029B0000146284616F04CFF684616F0D5FE04A8DE
:1029C00016F036FF09B030BD054B104603EB011180
:1029D00016F0B6FE09B030BDF42700201428002000
:1029E0003CEC01600F2930B5154689B022D9103969
:1029F000CCB2072C05D91449104616F0A1FE09B037
:102A000030BD124904A816F04BFF0A22611C68462B
:102A100016F0E2FE694604A816F08AFF0146284631
:102A200016F016FF684616F09FFE04A816F000FF89
:102A300009B030BD064B104603EB0111083116F00A
:102A40007FFE09B030BD00BFF42700202028002001
:102A50003CEC0160F0B50C46C72991B0104604F17A
:102A600001048CBF502155211646A4B216F030FF48
:102A700020490A226846A1FB0431490916F0ACFE40
:102A8000694608A816F0F8FD1B4B04A8A3FB042513
:102A90000A22ED08A9B205EB8505A3FB0173DB084B
:102AA00003EB8303A1EB430189B216F095FE04A961
:102AB00008A816F03DFF0746A4EB45010A220CA822
:102AC00089B216F089FE0CA9384616F031FF01468E
:102AD000304616F0BDFE0CA816F046FE04A816F00F
:102AE00043FE08A816F0A4FE684616F03DFE11B09D
:102AF000F0BD00BF1F85EB51CDCCCCCCF0B590F82C
:102B0000513091B005460F4616466BBBB0F84C30BD
:102B10001046012B8CBF5021552116F0D9FEB5F877
:102B20004C100A2204A816F057FE04A90CA816F0AF
:102B3000A3FD0A22394608A816F04EFE08A90CA8E3
:102B400016F0F6FE2B4916F01BFF0146304616F034
:102B50007FFE08A816F008FE0CA816F069FE04A86F
:102B600016F002FE11B0F0BDB0F84C301046224C09
:102B7000132B8CBF5021552116F0AAFEB5F84C102E
:102B80000A226846A4FB0131C90816F025FE6946F1
:102B900008A816F071FDB5F84C100A2204A8A4FB91
:102BA0000134E40804EB8404A1EB440189B216F07B
:102BB00013FE04A908A816F0BBFE04460A223946F3
:102BC0000CA816F009FE0CA9204616F0B1FE01462D
:102BD000304616F03DFE0CA816F0C6FD04A816F00F
:102BE000C3FD08A816F024FE684616F0BDFD11B01E
:102BF000F0BD00BF30280020CDCCCCCC70B54D1C32
:102C0000154C8CB0164684FB0534EB170A22684637
:102C1000C3EBA404214616F0DFFD694608A816F0B0
:102C20002BFD0A2204EB840104A8A5EB410116F058
:102C3000D3FD04A908A816F07BFE0146304616F025
:102C400007FE04A816F090FD08A816F0F1FD6846EE
:102C500016F08AFD0CB070BD6766666630B589B047
:102C60000D460D49144604A816F01AFE0A22691CE6
:102C7000684616F0B1FD694604A816F059FE0146F3
:102C8000204616F0E5FD684616F06EFD04A816F025
:102C9000CFFD09B030BD00BF6028002001F1500316
:102CA000013130B589B030F8133015460A22684634
:102CB0005C1016F091FD694604A816F0DDFC04A82E
:102CC0003A2116F025FE0A49E3B203EB830301EB38
:102CD0008301023116F054FE0146284616F0B8FD75
:102CE00004A816F0A5FD684616F03EFD09B030BDFB
:102CF000ACF50160CB11F0B54C1C91B003F1410172
:102D0000164604A8A4B2C9B216F076FD20490A22DC
:102D10006846A1FB0431490916F05EFD694604A826
:102D200016F006FE1B4B074608A8A3FB04250A2243
:102D3000ED08A9B205EB8505A3FB01E3DB0803EB76
:102D40008303A1EB430189B216F046FD08A938467A
:102D500016F0EEFD0746A4EB45010A220CA889B245
:102D600016F03AFD0CA9384616F0E2FD0146304651
:102D700016F06EFD0CA816F0F7FC08A816F0F4FC8F
:102D8000684616F0F1FC04A816F052FD11B0F0BD33
:102D90001F85EB51CDCCCCCC2DE9F04190F85130D2
:102DA00090B007460D461646002B47D0B0F84C10A1
:102DB00004A83D4C01EB810189114131C9B216F0E3
:102DC0001BFDB7F84C100A226846A4FB0131C90864
:102DD00016F002FD694604A816F0AAFDB7F84C10DB
:102DE00080460A22A4FB013408A8E40804EB84040A
:102DF000A1EB440189B216F0EFFC08A9404616F099
:102E000097FD04460A2229460CA816F0E5FC0CA9F9
:102E1000204616F08DFD0146304616F019FD0CA82F
:102E200016F0A2FC08A816F09FFC684616F09CFC61
:102E300004A816F0FDFC10B0BDE8F08101EB8102A2
:102E4000B0F84C30642108A8520001FB0321C911DD
:102E50004131C9B216F0D0FCB7F84C100A2204A8D0
:102E600016F0BAFC04A908A816F062FD04460A226E
:102E700029460CA816F0B0FC0CA9204616F058FD07
:102E80000A4916F07DFD0146304616F0E1FC0CA81B
:102E900016F06AFC04A816F067FC08A816F0C8FC37
:102EA00010B0BDE8F08100BFCDCCCCCC30280020E4
:102EB00070B5232901F0030588B00C46164605F1CC
:102EC00041051CD9462104A816F096FC0A22A10847
:102ED0006846083916F080FC694604A816F028FDFB
:102EE000294616F015FD0146304616F0B1FC68463D
:102EF00016F03AFC04A816F09BFC08B070BD8908D7
:102F00000A226846013116F067FC694604A816F0EB
:102F1000B3FB294604A816F0FBFC0146304616F028
:102F200097FC04A816F084FC684616F01DFC08B057
:102F300070BD00BFF0B590F8513089B00446164618
:102F40000D46DBB9B0F84C30002B3BD10A22684665
:102F500016F042FC694604A816F08EFB04A82A4924
:102F600016F00EFD0146304616F072FC04A816F06D
:102F70005FFC684616F0F8FB09B0F0BD01F00307EE
:102F8000232907F141072ED9462104A816F034FC65
:102F9000B4F84C100A226846083916F01DFC694640
:102FA00004A816F0C5FC394616F0B2FC01463046BE
:102FB00016F04EFC684616F0D7FB04A816F038FC55
:102FC00009B0F0BD462104A816F016FC29460A22D5
:102FD000684616F001FC694604A816F0A9FC0A49E7
:102FE00016F0CEFCE2E7B0F84C100A226846013138
:102FF00016F0F2FB694604A816F03EFB394604A819
:1030000016F086FCAEE700BF3028002070B590F8BF
:1030100051308CB00C461546EBB9052950D95021DA
:1030200008A816F0E9FB611F0A2204A816F0D4FBD9
:1030300004A908A816F07CFC244916F0A1FC01465E
:10304000284616F005FC04A816F08EFB08A816F01A
:10305000EFFB0CB070BD90F84C600A2313FB061315
:10306000322B28DD053E50211046F6B216F030FC1A
:103070003146684616F0E0FB694608A816F0FCFAEF
:103080000A22214604A816F0A7FB04A908A816F0F6
:103090004FFC0F4916F074FC0146284616F0D8FB89
:1030A00004A816F061FB08A816F0C2FB684616F0EB
:1030B0005BFB0CB070BD5521104616F009FCD7E73C
:1030C000552108A816F098FB2146ADE734280020CA
:1030D000382800202DE9F041044616F049FC1F492C
:1030E00002251F4B012208684FF0620809794FF052
:1030F000030CC4F806004FF0050EA17204272571D9
:10310000CD26D025A4F8488084F854C0C4F858E0EF
:10311000E77784F8916084F8925084F8212084F84D
:10312000242084F8562003CBC4F8121019889B7809
:10313000C4F80E00D220E18223760023094984F8E6
:103140009300C4F89810A4F8463084F89C3084F8B2
:103150009D3084F89430BDE8F08100BF78280020CD
:1031600080280020B0820260F8B5044616F000FC0A
:103170001B4A02251B4BD7271068D8269288C4F813
:1031800006006281257107CBC4F80E0004F13400FB
:10319000C4F812101121C4F8162016F0C1FA7F21CC
:1031A000032200234FF0010ED920A4F8481084F820
:1031B00054200D490D4AE57784F8245084F821E025
:1031C00084F8917084F8926084F89300C4F88C10AD
:1031D000C4F89820A36584F8943084F89C30F8BD36
:1031E0008C2800209428002080C3C901B0FF026011
:1031F0002DE9F843044616F0BBFB244B4FF0050CB9
:10320000234D4FF0DD0E186802274FF07C094FF078
:103210000308C4F80600DE26C4F858C084F891E01C
:10322000277184F82470A4F8489084F8548084F8B6
:1032300092600FCD0A25C4F81620C4F81A30012276
:103240000023E577134DA4F8463084F8933084F8D2
:10325000943084F89D30C4F8CC30C4F80E0004F5E6
:10326000CE70C4F81210172184F8212084F89E2013
:10327000C4F88C5016F054FA04F1B800172116F077
:103280004FFA054BC4F89830BDE8F883A028002019
:10329000A428002080C3C901B07C03602DE9F0415F
:1032A000044616F065FB1D4902221D4B4FF00B082A
:1032B00008684FF0030C22714FF0060EC4F80600A8
:1032C0000127D52684F82420164AA4F8488084F8DB
:1032D00054C084F81FE084F8217084F89160C4F829
:1032E000982003CB1B88C4F80E00D620E38200236D
:1032F000C4F812100C4984F89200C4F88C10A4F899
:103300004630A36584F8933084F8943084F8A23072
:10331000C4F89C302367BDE8F08100BFB4280020CA
:10332000B8280020B0F9036080C3C901F8B504468D
:1033300016F01EFB18490225184B012208684FF0B1
:10334000470C89884FF0030EC4F8060005276181F9
:1033500006262571E425A4F848C084F854E0A76542
:10336000E67784F8915084F8212084F8242003CB58
:103370001B88C4F80E00D020E3820023C4F812108A
:10338000074984F89200C4F89810A4F8463084F8ED
:10339000933084F89430F8BDC8280020C428002059
:1033A000B07604602DE9F041044616F0E1FA1A4BBC
:1033B00002271A4D40F22B1C18684FF0030E4FF0F5
:1033C00007082771C4F8060084F82470A4F848C0E0
:1033D00084F854E084F81F800FCD0125C4F80E0056
:1033E000C4F81210CD20C4F81620D021C4F81A3029
:1033F00000230B4A84F8215084F8910084F892103D
:10340000C4F89820A4F84630A36584F8933084F873
:103410009430BDE8F08100BFD0280020D4280020DF
:10342000B0F30460F8B5044616F0A2FA1A49022275
:103430001A4B4FF0310E086803272271CF26C4F8CB
:103440000600A4F848E084F8547084F8916007CB33
:10345000C4F80E009878B3F800C00123C4F8121025
:103460000021C4F81620052220770D48A4F81AC0C0
:10347000C4F89800A4F8461084F8921084F89310C9
:1034800084F8941084F83E112167A265E27784F8ED
:10349000213084F82430F8BDF0280020F4280020E2
:1034A000B0ED05602DE9F843044616F061FA224AB2
:1034B0000025224B022710684FF0D00C92884FF065
:1034C000D90EC4F806000326628140F27F184FF03F
:1034D000CD09277184F82470A4F8488084F891906D
:1034E00084F892C084F893E084F89C6084F8546077
:1034F000A4F84650A56584F8945007CBC4F816206C
:103500001A889B78C4F80E0004F19D0023770123EC
:10351000C4F81210294662835D22E37784F82130D3
:1035200016F092F9064B84F8FB5084F8FC50C4F86E
:103530009830BDE8F88300BF042900200C29002042
:10354000B06A06602DE9F041044616F011FA304ADF
:103550000421304D02271068002612794FF09E0892
:10356000C4F806004FF0030C84F89D104FF0DA0EFB
:10357000A272294B2771E777DC2784F89C6084F8D6
:10358000936084F89460A4F8488084F854C084F868
:1035900091E084F8927007CDC4F80E000520C4F8BD
:1035A00012100121C4F8162003F61875A0650B222D
:1035B0001A48A4F8461084F8211084F8241001E079
:1035C00013F81C2C511E1C3312B1425C01324254C0
:1035D000AB42F5D1292240F20D13114E4FF6FF7583
:1035E000104801E092F8A020591E26F812308BB244
:1035F000C3EBC302AB4200EB4202F3D100230A4A01
:10360000C4F8843184F87731C4F89820BDE8F0819B
:103610001C290020242900207DA301606C080120C2
:103620001808012010E7066074F606602DE9F041E5
:10363000054616F09DF9254A0224254B40F28F1CC1
:1036400010684FF0030812794FF0090EC5F8060014
:10365000D427AA72E0262C71EC7785F82440A5F8CF
:1036600048C085F8548085F821E01A4C85F892709E
:1036700085F8936007CB1B78C5F80E00CD20C5F800
:1036800012100021AB76C5F816200C2285F89100A7
:10369000114B1248A5F8461085F89C1085F89D102E
:1036A000A96585F8941001E013F8182C511E183301
:1036B00012B1425C01324254A342F5D10022084BC0
:1036C00085F85520C5F89830BDE8F08130290020F4
:1036D0003829002023D00160DBBD0160B04F0120FC
:1036E00074730760F8B5154D04462868F8B14FF4B7
:1036F0000772002116F0A8F8114841F28833002122
:1037000002680768204602F5FA7225683B440D4EB0
:1037100084F8A01084F8A11022673360AB6D98473D
:103720000121094B032284F86E101A70F8BD4FF482
:10373000077015F0EDFF2860D9E700BF9808012059
:103740002C5D012050070120AE5F012010B5034C15
:10375000206815F0ADFF0023236010BD98080120FC
:10376000032907D90B1F072B02D81131C8B27047A4
:1037700000207047084670470B290DD9A1F11703A7
:103780000A2B06D9A1F122031F2B08D81E31C8B27B
:1037900070470239C8B270470131C8B27047002083
:1037A000704700BF70B505460C460AB990F86E2008
:1037B000012A34D0022A11D004EBC403194A202173
:1037C00004EB4304A40004F11C032C3413442244EE
:1037D00003F8011F9342FBD1012070BD0A21114E55
:1037E0004C23114A284603FB046383F83C102B68E2
:1037F000D3F8E43093420FD1FFF7BEFF02464C23CB
:103800002146284603FB046484F830202B68D3F853
:10381000F4309847002070BD98470246EFE7082132
:10382000DDE700BF9C4701207937006010B584B008
:103830000C460A220146684615F0CEFF694620462E
:1038400016F006F8684615F08FFF04B010BD00BFF3
:10385000542905D8012A18460BD0074915F070BF26
:103860005C2903D91846054915F06ABF1946104668
:10387000DCE7034915F064BF5C280020BC3700205A
:103880007834002090F8A93090F8A8101BB111B13D
:10389000184615F0A5BF704770B590F851308CB040
:1038A0000E4615463BB30446502104A815F0A4FF6C
:1038B000B4F84C100A22684615F08EFF694604A839
:1038C00016F036F804460A22314608A815F084FF9F
:1038D00008A9204616F02CF80146284615F0B8FF36
:1038E00008A815F041FF684615F03EFF04A815F042
:1038F0009FFF0CB070BD502104A815F07DFF0A2277
:10390000314608A815F068FF08A904A816F010F8B9
:10391000074916F035F80146284615F099FF08A822
:1039200015F022FF04A815F083FF0CB070BD00BF96
:1039300030280020072930B5154689B005D910492F
:10394000104615F0FDFE09B030BD0C4668460D4925
:1039500015F0A6FF0A22611C04A815F03DFF04A97A
:10396000684615F0E5FF0146284615F071FF04A8EA
:1039700015F0FAFE684615F05BFF09B030BD00BFD8
:10398000F427002048290020072930B5154689B0C2
:1039900005D91049104615F0D3FE09B030BD0C46CC
:1039A00068460D4915F07CFF0A22611C04A815F039
:1039B00013FF04A9684615F0BBFF0146284615F021
:1039C00047FF04A815F0D0FE684615F031FF09B096
:1039D00030BD00BFF427002020280020032930B587
:1039E0000C4689B015461FD90B0617D413496846F3
:1039F00015F056FF214604A815F01EFF04A96846DD
:103A000015F096FF0146284615F022FF04A815F090
:103A1000ABFE684615F00CFF09B030BD08491046F2
:103A200015F08EFE09B030BDC1EBC104054910464A
:103A3000214415F085FE09B030BD00BF502900209B
:103A4000F426002064DF016030B590F851308DB06D
:103A500014462BB30D460A22B0F84C10684615F0F8
:103A6000BBFE694608A815F007FE0A22294604A8ED
:103A700015F0B2FE04A908A815F05AFF144915F074
:103A80007FFF0146204615F0E3FE04A815F06CFE0A
:103A900008A815F0CDFE684615F066FE0DB030BDE5
:103AA0000A2208A815F098FE08A904A815F0E4FD5C
:103AB00004A8084915F064FF0146204615F0C8FE29
:103AC00004A815F0B5FE08A815F04EFE0DB030BDE7
:103AD0003028002054290020052930B50C4689B033
:103AE000154618D9184904A815F0DAFE0A22611FF4
:103AF000684615F071FE694604A815F019FF0146E5
:103B0000284615F0A5FE684615F02EFE04A815F00F
:103B10008FFE09B030BD0D49684615F0C1FE214643
:103B200004A815F089FE04A9684615F001FF0146B6
:103B3000284615F08DFE04A815F016FE684615F00F
:103B400077FE09B030BD00BF602900205829002051
:103B500030B589B005460C460B4904A815F0A0FE07
:103B60002946684615F068FE694604A815F0E0FE8F
:103B70000146204615F0B4FE684615F0F5FD04A890
:103B800015F056FE09B030BD502900204BB2084652
:103B9000002B01DD1146DBE71046014915F008BE98
:103BA000F42600200F290B4608D95F2903D91046B7
:103BB000054915F0FDBD11461846C9E703491046F1
:103BC00001EB031115F0F4BDF42600203CEC01607C
:103BD0004B1E072B30B50C4689B0154629D909294B
:103BE0003FD00A2942D00B2945D00C2948D0A1F159
:103BF0000D03722B05D91046244915F0D9FD09B0E3
:103C000030BD2349684615F04BFE214604A815F047
:103C100013FE04A9684615F08BFE0146284615F0F0
:103C20005FFE04A815F0A0FD684615F001FE09B07E
:103C300030BD184904A815F033FE2146684615F03A
:103C4000FBFD694604A815F073FE0146284615F0F1
:103C500047FE684615F088FD04A815F0E9FD09B097
:103C600030BD10460C4915F0A3FDC8E710460B49BE
:103C700015F09EFDC3E71046094915F099FDBEE712
:103C80001046084915F094FDB9E700BFF42600205E
:103C9000502900206C290020782900208429002048
:103CA00094290020A0290020074B03EB8000B0F8E6
:103CB000DC0AB0F5004F04D3C0F30E0000F1007031
:103CC000704700F1C050704798E5076003682DE920
:103CD000F047D3F830310446DFF8308115460E4600
:103CE000434552D1FDF736FD074643452946204658
:103CF0003ED1FDF72FFD002E3DD0731EDBB203EB4E
:103D0000430C9946C3EBCC0C0CF1080C5FFA8CFC0D
:103D1000BDB3013DEDB205EB4503AA46C5EBC303B8
:103D20000833DBB203F11708C3EB0C0C5FFA88F819
:103D3000E11803EB0C02013354FA82F291F83B5183
:103D4000DBB292F83BE1434581F83BE182F83B511D
:103D5000EED19FB3BAF1070F4DD9E0B1B9F1070F1A
:103D600039D9002384F86D6084F8FC31BDE8F08710
:103D70009847002EC1D14FF0FF094FF0080C002DDD
:103D8000C7D14FF0FF0A0823CCE7984723680746BE
:103D9000D3F83031A9E7B9F1070FE2D8012294F83E
:103DA000413184F86D6002FA09F923EA090384F8C5
:103DB0004131002384F8FC31BDE8F087BAF1070FE8
:103DC000CBD8012294F8413102FA0AFA23EA0A0315
:103DD00084F84131C1E7012394F8412184F86D60F2
:103DE00003FA09F942EA090384F84131002384F80F
:103DF000FC31BDE8F087012394F8412103FA0AFA67
:103E000042EA0A0384F84131A7E700BF5517006072
:103E1000094A92F82D20042A00D0704790F85620C5
:103E2000002AFAD190F855100029F6D0016880F8E0
:103E30005520CB6C184700BF084F01200A7ACB7978
:103E4000120470B402EB03624E7A8C7A02EB062302
:103E5000094D2344AB420AD0084A934205D1CA7A9D
:103E6000002380F89D2080F8573070BC7047CB7AD3
:103E700070BC80F89C3070470030006000380060F3
:103E80000B39052906D8DFE801F006090C0F1203EB
:103E900080F87124704780F86C24704780F86F2494
:103EA000704780F86D24704780F87024704780F860
:103EB0006E247047154BA3FB0123DB0803EB830241
:103EC000DBB2A1EB420110B490F8AD40184489B2C6
:103ED00090F8A620A4B1022A0FD802EB82020C4867
:103EE0000C4C01EB420154F823305DF8044B00EB1D
:103EF0008101B1F8780B184470470532D2B2ECE773
:103F000002EB82020248044CEBE700BFCDCCCCCCE4
:103F100098E507607C080020880800200E490346C9
:103F20000E4A08688988F0B4C3F806000027598152
:103F30000626922583F8907083F89D6083F89E5042
:103F400003CAC3F80E0010889278C3F81210D88202
:103F50001A76F0BC704700BFD4290020B827002093
:103F600030B42F4A1A2390F8AD4003FB012344BB21
:103F7000B3F81A39512B36D0522B37D01D0403D544
:103F8000C3F30E0343F4803303F180531A2505FB7A
:103F9000012191F82D298AB102F00F0102F0F002FF
:103FA0000844102A90F8A51026D0202A06D144BB38
:103FB000042930D0052901D103F20123184630BC71
:103FC0007047B3F81C59512D0AD0522D11D02B0433
:103FD00003D5C5F30E0545F48035124B2B44D5E7C8
:103FE000114830BC7047114830BC7047104830BC95
:103FF0007047104830BC70470129DFD103F206201A
:10400000EFE7042904D00529D8D103F5FA70E8E7D1
:1040100003F1F200E5E703F581731846CFE700BF2F
:1040200088AA0160000002103F1008003F10010044
:10403000211001002110080030B490F852409DF882
:1040400008501CB190F82240AC4201D030BC7047FF
:1040500090F821409C42F9D1A1B10C4B9C305024E6
:1040600003F23B1505E0AB4200F10100EED013F87E
:10407000154CA14203F11503F5D1141C18BF0124FE
:104080000470F0E780F85020E0E700BF86B20160DE
:104090007B4BC1EBC10103EB810190F89D3091F89E
:1040A000D2299A423ED870B490F89C40B4B1B1F88D
:1040B000BA1901F47042B2F5104F00F0BF8058D920
:1040C000B2F5304F63D0B2F5404F00F08780B2F5C3
:1040D000204F7CD001F1C04070BC7047B1F8B819D6
:1040E00001F47042B2F5104F00F08A801CD9B2F58D
:1040F000304F4CD0B2F5404F00F0AB80B2F5204FBE
:10410000E8D1604D604C90F87621002A62D0022BF5
:104110008CBF00230123002B5CD1012A00F0AC806E
:104120001846D9E700207047B2F5E04F46D0B2F507
:10413000004FCFD190F87301544DC200AB18B3F8C3
:10414000583D2A4401F00F0092F85E2D904232DA79
:10415000184480B2020604D547F67F73034003F586
:104160008070002C7FD1B0F5127F65D000F1C04087
:10417000B2E7B2F5E04F21D0B2F5004FAAD190F8E6
:104180007301424DC200AB18B3F85C3DD9E790F81B
:10419000783101F00F003D4A03EB430302EB430388
:1041A00093F8AC2E904206DA5CB1B3F8AA3E03F164
:1041B000C043184490E7002070BC7047C1F30B0067
:1041C0008AE7B3F8A83E03F1C043184484E7304DB2
:1041D000304C98E701F00F0020447DE71E261325A0
:1041E000022B90F8774107D9B4FA84F252091AB930
:1041F000012C3DD010466FE701F00F0028446BE71B
:1042000090F87521214DD300EA18B2F85A2D1D44BB
:1042100001F07F0095F85E3D9842CCDA104480B200
:10422000030604D547F67F73034003F58070ACB9ED
:1042300040F25443984299D117484DE790F87521C0
:10424000124DD300EA18B2F85C2D02F5007292B25A
:10425000DDE74FF4886640F23345C1E7B0F5577F9C
:1042600084D10E4838E7B0F5AE7F7FF47FAFF8E732
:1042700001F00F0398192FE701F00F0358192BE7EE
:1042800090990160310100600511006098E50760B8
:104290004D0000604200006018070060710500607A
:1042A0000022036810B50446C0F8CC201B6E984766
:1042B000236820469B6D9847014B03221A7010BD5E
:1042C000AE5F012090F89C30C1EBC101D3B1244B0B
:1042D00003EB8101B1F8BA3903F47042B2F5204F13
:1042E0001AD020D8B2F5004F35D0B2F5104F27D1F3
:1042F00090F875111B4A03F00F0332F811001844AF
:1043000080B27047164B03EB8101B1F8B83903F462
:104310007042B2F5204FE4D190F87621012A14BF03
:1043200007212921E6E7B2F5304F0CD0B2F5404F16
:1043300006D190F87721012A14BF07212921D9E756
:104340004FF6FF70704790F878213AB1012A14BFF8
:1043500025212821CEE790F87311CBE70221C9E788
:10436000909901601808012089291FD8F8B5CF005D
:104370001D4E90F89D507A1A06EB820292F8D229CF
:10438000AA4211D80C46FFF79DFF4FF6FF739842E3
:104390000ED0B0F5877F07D2144BC0EBC00003EB03
:1043A000400090F8A100F8BD0020F8BD0020704743
:1043B000022D03D9282C01D11A20F8BD182C07D0C2
:1043C000472C05D03C1B06EB840696F8BC09F8BDCB
:1043D000012D03D9022D03D12520F8BD2420F8BDDD
:1043E000032DEFD12720F8BD9099016010E70660FA
:1043F0008929F8B50C461746064618D9C4EBC404FB
:10440000174996F89D30A4000A1992F8D2299A42C9
:1044100007D82144384601F6BD11BDE8F84015F033
:104420008FB938460F49BDE8F84015F089B9FFF754
:1044300049FF4FF6FF7305469842DFD0E1B23046A0
:10444000FFF726FE0028ECD0C5EBC5050649384627
:1044500001EB4501BDE8F840023115F071B900BF2C
:1044600090990160F4270020B0E7066090F8A4302E
:104470006BB990F8A13003EB8303074A01EB4303C8
:1044800002EB8303B3F8BC0E00F1C050704790F804
:10449000A2200432D3B2EEE798E507600A7ACB791E
:1044A000120470B402EB03624E7A8C7A02EB06239C
:1044B000144D2344AB4215D0134A93420DD0134AF6
:1044C000934214D14B7D80F89F30CB7A80F8A13095
:1044D0000B7C80F8A23070BC7047CB7A70BC80F83F
:1044E0009E307047CB7A70BC80F89D307047084A88
:1044F0009342F0D1CA7A002380F8A02080F8573088
:1045000070BC704703200018032100180010001829
:10451000320200180E4A4379127801339A4201D0D0
:104520000020704790F8AC30FF2B08D0094A4C208F
:1045300000FB01214A8ED108B1EB530F01D00120BD
:104540007047B3EB920F0CBF01200020704700BFF3
:10455000575F01209C4701200E4A437912780133AE
:104560009A4201D00020704790F8AE30FF2B08D05F
:10457000094A4C2000FB01214A8ED108B1EB530FB0
:1045800001D001207047B3EB920F0CBF0120002037
:10459000704700BF575F01209C4701200E4A4379B6
:1045A000127801339A4201D00020704790F89D3074
:1045B000FF2B08D0094A4C2000FB01214A8ED1086C
:1045C000B1EB530F01D001207047B3EB920F0CBF3A
:1045D00001200020704700BF575F01209C47012049
:1045E000134A4379127801339A4201D00020704770
:1045F00090F8A820FF2A19D00E480F4B10B54C2474
:1046000004FB01010D48498EA0FB02E4A3FB01E37A
:104610005B08B3EB540F01D0012010BDA0FB0131AA
:10462000B2EB510F0CBF0120002010BD01207047DC
:10463000575F01209C470120398EE338ABAAAAAA14
:10464000F0B590F851300F4691B005461646B0F8D7
:104650004C10002B39D02E4C0A2208A8A4FB0131A3
:10466000C90815F0B9F808A90CA815F005F8B5F8AF
:104670004C100A2204A8A4FB0134E40804EB8404CF
:10468000A1EB440189B215F0A7F804A90CA815F014
:104690004FF904460A223946684615F09DF86946E6
:1046A000204615F045F90146304615F0D1F8684628
:1046B00015F05AF804A815F057F80CA815F0B8F83A
:1046C00008A815F051F811B0F0BD0A2204A815F0A1
:1046D00083F804A90CA814F0CFFF0A22394608A8D1
:1046E00015F07AF808A90CA815F022F9094915F077
:1046F00047F90146304615F0ABF808A815F034F834
:104700000CA815F095F804A815F02EF811B0F0BD1E
:10471000CDCCCCCC30280020F0B590F851300F46ED
:1047200091B005461646B0F84C10002B39D02E4CEF
:104730000A2208A8A4FB0131C90815F04DF808A900
:104740000CA814F099FFB5F84C100A2204A8A4FB99
:104750000134E40804EB8404A1EB440189B215F0B0
:104760003BF804A90CA815F0E3F804460A223946E0
:10477000684615F031F86946204615F0D9F801462B
:10478000304615F065F8684614F0EEFF04A814F002
:10479000EBFF0CA815F04CF808A814F0E5FF11B0D9
:1047A000F0BD0A2204A815F017F804A90CA814F00B
:1047B00063FF0A22394608A815F00EF808A90CA8CC
:1047C00015F0B6F8094915F0DBF80146304615F04A
:1047D0003FF808A814F0C8FF0CA815F029F804A8A1
:1047E00014F0C2FF11B0F0BDCDCCCCCC30280020ED
:1047F00070B590F851308CB00E46154653B3044650
:10480000552108A814F0F8FFB4F84C100A2204A8A7
:1048100014F0E2FF04A908A815F08AF804460A2259
:104820003146684614F0D8FF6946204615F080F8F6
:10483000164915F0A5F80146284615F009F868460E
:1048400014F092FF04A814F08FFF08A814F0F0FFF2
:104850000CB070BD552108A814F0CEFF0A223146D5
:1048600004A814F0B9FF04A908A815F061F80849D4
:1048700015F086F80146284614F0EAFF04A814F063
:1048800073FF08A814F0D4FF0CB070BD38280020C6
:10489000342800204A7A0B7A120470B402EB0362C7
:1048A0008E7ACC7A02EB0623094D2344AB420AD020
:1048B000084A934205D10A7B002380F89D2080F8A6
:1048C000573070BC70470B7B70BC80F89C307047D1
:1048D00000100020040800205C2920D8542938B595
:1048E00013D915460C46811D104614F029FF2021CE
:1048F000284614F0EDFF0A4BC4EBC401284603EB35
:104900004101BDE8384014F01BBF054BC1EBC101AC
:10491000104603EB4101BDE8384014F011BF704769
:104920006CF5076090F86D3003B9704730B50D46EF
:1049300085B004462D21284614F0CAFF94F86D1066
:10494000684614F079FF6946284614F081FF6846EE
:1049500014F00AFF05B030BD90F86D3003B9704710
:1049600030B50D4685B004462D21284614F0B0FF21
:1049700094F86D10684614F05FFF6946284614F0FD
:1049800067FF684614F0F0FE05B030BD90F8522085
:1049900080F8552002B970470268018D536D1847A1
:1049A00090F85130ABB1B0F84C3013B909B90020D0
:1049B0007047B0F8482003EB8303B0F8460001EBE2
:1049C0004301131A0133B3EB810FACBF0120002068
:1049D0007047B0F8483001EB8101B0F846209B1ACF
:1049E0000133B3EBC10FACBF01200020704700BF03
:1049F00090F86E3093B10133DBB2032B88BF0123F3
:104A000080F86E30036810B5D3F808310C4698472B
:104A10000349044B01220C701A7010BD704700BF8F
:104A2000AC5F0120AE5F012090F8513063B1B0F867
:104A30004C20B0F8463003EBC200084480B200B905
:104A40007047013880B27047B0F84C30B0F846007B
:104A500003EB830301EB430100EBC10188B2704714
:104A600090F851309BB190F89020B0F84C30012A6A
:104A70000CBF0420082023B9884234BF0020012045
:104A80007047481E07288CBF002001207047B0F8EF
:104A90004C30B0F8482003EB830310B4B0F8464024
:104AA00001EB4300131B5DF8044BB3EBC00FACBF2D
:104AB00001200020704700BF90F851309BB1B0F842
:104AC0004C3013B909B900207047B0F8482003EB07
:104AD0008303B0F8460001EB4301101A8142CCBFBA
:104AE00000200120704730B4B0F84C506424B0F876
:104AF00048300A22B0F8460004FB05F412FB0141DD
:104B00001B1A994230BCCCBF00200120704700BF67
:104B100003790022022B80F8532000D0704790F8D0
:104B20005230002BFAD1012380F8221080F89C30FB
:104B3000704700BF90F85130A3B1B0F84C3013B9B2
:104B400009B900207047B0F8482003EB8303B0F8A0
:104B5000460001EB4301131AB3EB810FACBF0120F8
:104B600000207047B0F8483001EB8101B0F84620D2
:104B70009B1AB3EBC10FACBF01200020704700BFF0
:104B80004B1E072B08D890F86D308B4204D0034B96
:104B9000012280F86D101A70704700BFAD5F0120D0
:104BA00090F8A32002B970470368D3F894301847EF
:104BB00090F8522002B9704790F85510026880F8BA
:104BC000A310D2F8983018470379022B01D0084679
:104BD0007047002300F19C02F0B41C4601E05D2BFD
:104BE0000CD012F8015FDFB2661C0133002DF6D045
:104BF000A142F4B2F3D1B8B2F0BC70474FF6FF70E7
:104C0000F0BC7047036810B5D3F8B83082B00F4CD1
:104C1000A34214D15D20884206D810460C4902B048
:104C2000BDE8104014F0C4BD0A4BC1EBC1011046F1
:104C300003EB410102B0BDE8104014F0B9BD8DE8AE
:104C4000060098479DE80600E5E700BF591600609A
:104C5000BC3700206CF5076003680B4AD3F8B83006
:104C6000934205D1082088428CBF02200020704763
:104C700000B583B001919847019988428CBF02200A
:104C8000002003B05DF804FBA1160060036810B5B6
:104C9000D3F8B83082B00F4CA34215D12F208842F0
:104CA00006D810460C4902B0BDE8104014F080BD93
:104CB0000A4B01EB4101104603EBC101093102B07F
:104CC000BDE8104014F074BD8DE8060098479DE8DB
:104CD0000600E4E7A5160060BC370020909901604B
:104CE000F0B504688BB03B4F1646D4F8B8501C465C
:104CF000BD422FD12F20884226D901EB41013648F1
:104D000000EBC101898A0BB2002B4BDD47F616433D
:104D1000994223D047F6174399424CD047F61543A2
:104D2000994221D08A192D4906A8013A02EBC20204
:104D3000114414F00DFD06A9204614F089FD06A8C3
:104D400014F012FD0BB0F0BD2046254914F0F8FC1C
:104D50000BB0F0BD0191A8470199CCE771000A2280
:104D600006A814F039FDE6E73F2E26D9402E2BD0B9
:104D7000EED91C4906A814F093FDA6F132010A22CF
:104D800002A814F029FD02A906A814F0D1FD0146DD
:104D9000204614F05DFD02A814F0E6FC06A814F00D
:104DA00047FDD5E7012E20460CBF0F490F4914F0EF
:104DB000C7FC0BB0F0BD3146D1E70D4906A814F091
:104DC0006FFDC6F13201DAE720460A4914F0B8FC5B
:104DD000BEE700BFA51600609099016084FA0760E5
:104DE000BC37002038300020783400205C280020B8
:104DF0005428002058280020036810B5D3F8B83094
:104E000082B00F4CA34215D13020884206D81046FC
:104E10000C4902B0BDE8104014F0CABC0A4B01EBCB
:104E20004101104603EBC101093102B0BDE8104059
:104E300014F0BEBC8DE8060098479DE80600E4E744
:104E400031170060BC370020F89D0160F0B50468A0
:104E50008BB0394F1646D4F8B8501C46BD4229D104
:104E60003020884220D901EB4101344800EBC101D8
:104E7000B1F87C140BB2002B49DD47F6154399427B
:104E80001CD03AD347F61743994236D831460A2206
:104E900006A814F0A1FC06A9204614F0D9FC06A827
:104EA00014F062FC0BB0F0BD2046254914F048FC1C
:104EB0000BB0F0BD0191A8470199D2E73F2E2FD941
:104EC000402E34D0F4D91F4906A814F0E9FCA6F10D
:104ED00032010A2202A814F07FFC02A906A814F0ED
:104EE00027FD0146204614F0B3FC02A814F03CFC58
:104EF00006A814F09DFC0BB0F0BD8A19124906A853
:104F0000013A02EBC202114414F022FCC3E7012E65
:104F100020460CBF0D490E4914F012FC0BB0F0BD39
:104F20000C4906A814F0BCFCC6F13201D1E72046BA
:104F3000094914F005FCBBE7311700609099016046
:104F4000BC37002038300020080108607834002089
:104F50005C2800205428002058280020A1F10E02CF
:104F6000012A01D8802070470368074AD3F8B83077
:104F7000934210B50C4605D11020844234BF022064
:104F8000002010BD9847F8E7F9190060A1F10C0363
:104F9000032B01D8802070470368074AD3F8B83044
:104FA000934210B50C4605D11420844234BF022030
:104FB000002010BD9847F8E7CD18006003680B4A41
:104FC000D3F8B830934205D1062088428CBF022026
:104FD0000020704700B583B001919847019988423D
:104FE0008CBF0220002003B05DF804FB151D00609B
:104FF000036810B5D3F8B8300C460F4982B08B4225
:1050000015D11020A04206D810460C4902B0BDE8C8
:10501000104014F0CDBB04EB44030949104604EBE7
:105020008304214402B0BDE8104014F0C1BB0192DA
:105030009847019AE6E700BFF9190060BC370020E5
:1050400078A2016030B5046885B00E4DD4F8B84040
:10505000AC4210D11020884206D818460A4905B043
:10506000BDE8304014F06CBB1946104605B0BDE8F1
:105070003040FEF7DBBB039302920191A04701A9E8
:105080000EC9E8E7F9190060E4290020036810B5AB
:10509000D3F8B83082B00E4CA34212D1142088420B
:1050A00006D810460B4902B0BDE8104014F080BB92
:1050B000094B104603EB011102B0BDE8104014F09B
:1050C00077BB8DE8060098479DE80600E7E700BF3C
:1050D000CD180060BC3700204CD0016030B50468AA
:1050E00085B00E4DD4F8B840AC4210D1142088429F
:1050F00006D818460A4905B0BDE8304014F020BB78
:105100001946104605B0BDE83040FEF78FBB03934B
:1051100002920191A04701A90EC9E8E7CD180060ED
:10512000E4290020F8B503680646454D0C46D3F83F
:10513000B8301746AB425CD18A20A04246D9892CB0
:1051400059D821463046FFF7BDF84FF6FF730546A4
:10515000984250D096F89C30C4EBC4042BB3394B22
:1051600003EB8404B4F8BA3903F47043B3F5204F69
:1051700025D031D8B3F5004F50D0B3F5104F5BD1E7
:105180003149384614F014FB96F87521C5EBC50576
:105190002E496D004B1993F8A030934245D0384604
:1051A0002B49BDE8F84014F0CBBA264B03EB84043E
:1051B000B4F8B83903F47043B3F5204FD9D196F859
:1051C0007631012B14BF07222922DFE73846214917
:1051D000BDE8F84014F0ECBAB3F5304F16D0B3F593
:1051E000404F29D196F87731012B14BF072229228D
:1051F000CCE79847A1E7C4EBC404174B384603EB50
:105200008401BDE8F840053114F0D2BA96F878313F
:10521000A3B1012B0CBF28222522B7E70F4938463E
:1052200014F0C6FA96F87321B0E729443846A23143
:10523000BDE8F84014F084BA0022A7E70222A5E7EF
:1052400091190060909901606028002010E70660C5
:10525000F4270020BC37002048A30160E829002083
:10526000F0B515460268DFF8B8E21E46D2F8B8304D
:1052700089B007460C4673452DD18A20A04224D917
:10528000892C2AD838462146FFF71CF84FF6FF73C1
:10529000984222D0904BC0EBC00003EB4000B0F826
:1052A000AC2013B2002B22DD8C4B1344092B00F2EF
:1052B000E980DFE813F033005400AC007C0081008B
:1052C00056006B00C300E20025003046844914F00C
:1052D00037FA09B0F0BD9847D0E7824BC4EBC4045D
:1052E00003EB8404B4F8CE2913B2002BDCDC012DCF
:1052F00030460CBF7C497D4914F022FA09B0F0BD5C
:1053000029460A2204A814F067FA04A9304614F0CA
:105310009FFA04A814F028FA09B0F0BD182D00F285
:10532000C780B5F118014FF00A0204A848BFA5F1E3
:105330001701491014F050FA04A9304614F088FA05
:1053400004A814F011FAEB07304654BF68496949C4
:1053500014F0F6F93046684914F0F2F9B9E7691C1F
:10536000CFE7142D00F2A9800A22A5F1140104A8A8
:1053700014F032FA04A9304614F06AFA04A814F0C2
:10538000F3F930465C4914F0DBF9A2E729460A221A
:1053900004A814F021FA04A9304614F059FA04A81C
:1053A00014F0E2F93046554914F0CAF991E7182D86
:1053B00079D8A5F11801A4E70135514C0A2204A8B7
:1053C000ADB2A4FB0534E408214604EB840414F0D8
:1053D00003FA04A9304614F03BFA04A814F0C4F907
:1053E0004849304614F0ACF90A22A5EB440104A860
:1053F00089B214F0F1F904A9304614F029FA04A88E
:1054000014F0B2F93046404914F09AF961E70A22E3
:10541000690804A805F0010514F0DEF904A9304676
:1054200014F016FA04A814F09FF93649304614F027
:1054300087F904A8A9000A222944AAE73F2D2BD9FD
:10544000402D44D07FF645AF304904A814F028FA27
:10545000A5F132010A22684614F0BEF9694604A893
:1054600014F066FA0146304614F0F2F9684614F07A
:105470007BF904A814F0DCF92BE7322D22D8A5F132
:1054800032013EE72A44224904A8013A02EBC20253
:10549000114414F05DF938E71E4904A814F000FA2D
:1054A000C5F13201D6E71C49304614F049F980E7CE
:1054B0001949304614F044F933E71749304614F0DF
:1054C0003FF951E71449304614F03AF9D7E730462E
:1054D000124914F035F9FCE610E70660F283FFFF8D
:1054E000BC37002090990160783400205C280020AF
:1054F000FC290020002A0020F8290020F0290020A3
:10550000CDCCCCCC08370020042A00203830002035
:105510001407086054280020F4290020582800208F
:1055200091190060036810B5D3F8B8300C460F49E4
:1055300082B08B4215D11020A04206D810460C49EB
:1055400002B0BDE8104014F033B904EB440309493C
:105550001046C4EBC304214402B0BDE8104014F06F
:1055600027B901929847019AE6E700BFF919006050
:10557000BC3700208CD10160F8B5A1F10E05012DDA
:105580001DD91D4603681746114AD3F8B8300C469A
:1055900093421AD110208442284606D2012F09D006
:1055A0000C49BDE8F84014F0CBB80B49BDE8F84011
:1055B00014F0C6B80949BDE8F84014F0C1B819465E
:1055C0001046BDE8F840FEF731B99847E3E700BF61
:1055D000F9190060082A0020E4290020783400200E
:1055E000036810B5D3F8B83082B00F4CA34214D181
:1055F0000920884206D810460C4902B0BDE8104088
:1056000014F0D6B80A4B01EB8101104603EB4101BF
:1056100002B0BDE8104014F0CBB88DE80600984702
:105620009DE80600E5E700BFB51A0060BC37002022
:10563000FCD2016030B5046885B00E4DD4F8B84096
:10564000AC4210D10920884206D818460A4905B054
:10565000BDE8304014F074B81946104605B0BDE8F6
:105660003040FEF7E3B8039302920191A04701A9ED
:105670000EC9E8E7B51A0060E4290020036810B5F8
:10568000D3F8B83082B00F4CA34215D10F20884216
:1056900006D810460C4902B0BDE8104014F088B896
:1056A00001EB4101094B1046C1EBC101194402B0A5
:1056B000BDE8104014F07CB88DE8060098479DE8DE
:1056C0000600E4E7C51A0060BC37002060B2016044
:1056D00030B5046885B00E4DD4F8B840AC4210D156
:1056E0000F20884206D818460A4905B0BDE8304068
:1056F00014F026B81946104605B0BDE83040FEF754
:1057000095B8039302920191A04701A90EC9E8E759
:10571000C51A0060E4290020036810B5D3F8B8303A
:105720000C460E4982B08B4214D16320A04206D8A9
:1057300010460B4902B0BDE8104014F039B8094BCF
:105740001A21104601FB04310B3102B0BDE81040B4
:1057500014F02EB801929847019AE7E7851B006084
:10576000BC3700209CB30160036810B5D3F8B83093
:1057700082B00E4CA34213D11920884206D810469D
:105780000B4902B0BDE8104014F012B8094B01EB10
:1057900001111046194402B0BDE8104014F008B8D9
:1057A0008DE8060098479DE80600E6E7F51B0060D7
:1057B000BC3700204409002030B5046885B00E4D88
:1057C000D4F8B840AC4210D11920884206D8184607
:1057D0000A4905B0BDE8304013F0B2BF1946104683
:1057E00005B0BDE83040FEF721B803930292019165
:1057F000A04701A90EC9E8E7F51B0060E4290020D5
:10580000036810B5D3F8B83082B00F4CA34215D15D
:10581000B120884206D810460C4902B0BDE81040BD
:1058200013F0C6BF0A4B01EB4101104603EBC10167
:10583000033102B0BDE8104013F0BABF8DE8060096
:1058400098479DE80600E4E7551C0060BC3700203F
:10585000ACBD0160F0B504688BB03B4F1646D4F880
:10586000B8401D46BC422FD1B120884226D901EB59
:105870004101364800EBC101B1F840120BB2002BD8
:105880004ADD47F61643994222D047F6174399421C
:105890004BD047F61543994220D031442C4B06A8F3
:1058A000013903EBC10113F053FF06A9284613F099
:1058B000CFFF06A813F058FF0BB0F0BD28462549CE
:1058C00013F03EFF0BB0F0BD0191A0470199CCE76A
:1058D00071000A2206A813F07FFFE6E7312E26D9D1
:1058E000322E2BD0EED91C4906A813F0D9FFA6F111
:1058F00032010A2202A813F06FFF02A906A814F0D1
:1059000017F80146284613F0A3FF02A813F02CFF56
:1059100006A813F08DFFD5E7012E28460CBF0F49CE
:105920000F4913F00DFF0BB0F0BD3146D1E70D4923
:1059300006A813F0B5FFC6F13201DAE728460A4996
:1059400013F0FEFEBEE700BF551C006080BB016087
:1059500084120860BC3700203830002078340020E2
:105960005C2800205428002058280020028D8A42FC
:1059700008B503460AD001205A85198583F83F01EE
:1059800001230649064A0B70137008BD0368054AD7
:10599000D3F894309342F3D09847F1E715500020A4
:1059A000AD5F01200904000070B515460268174E6E
:1059B00088B0D2F8B8200C46B24225D190F89D00AC
:1059C000A04205D81249284613F0F2FE08B070BD77
:1059D0001049684613F064FF0A22611C04A813F002
:1059E000FBFE04A9684613F0A3FF0B4913F0C8FFA0
:1059F0000146284613F074FF04A813F0B5FE68466C
:105A000013F016FF08B070BD9047D9E71D1D006068
:105A1000BC370020DC290020E0290020026810B5F6
:105A2000D2F8B82082B0074CA24207D190F89D006E
:105A300088428CBF0220002002B010BD0191904727
:105A40000199F5E71D1D006070B5056884B0104E22
:105A5000D5F8B850B54213D190F89D008842184649
:105A600008D9012A0CBF0B490B4904B0BDE87040AE
:105A700013F066BE094904B0BDE8704013F060BE83
:105A8000039302920191A84701A90EC9E6E700BF5E
:105A90001D1D0060783400205C280020BC370020E9
:105AA0002DE9F0431D4D95B081468846EC46DFF860
:105AB00078E005AE1A4F0AAC0FCDACE80F002B68AA
:105AC000184D8CF80030BEE80F000FC60FCFDEF87F
:105AD00000E03F6886F800E00FC427700FAC0FCDE0
:105AE00099F86E602D68012E0FC425700BD0022E20
:105AF0000ED0032E40460CBF0FA9694613F04CFE92
:105B000015B0BDE8F08305A9404613F045FEF7E760
:105B10000AA9404613F040FEF2E700BF4C2A0020DD
:105B2000602A0020742A0020882A00202DE9F043F2
:105B30001C4D95B081468846EC46DFF874E005AE12
:105B4000194F0AAC0FCDACE80F002B68174D8CF83D
:105B50000030BEE80F000FC60FCFDEF800E03F6850
:105B600086F800E00FC427700FAC0FCD99F86E6077
:105B70002D68012E0FC425700AD0022E0DD08CBFC7
:105B80000FA96946404613F007FE15B0BDE8F08343
:105B900005A9404613F000FEF7E70AA9404613F0B6
:105BA000FBFDF2E79C2A0020B02A0020C42A002036
:105BB000D82A002070B5054684B00E4622B3543270
:105BC00015484C230021D4B203FB060368465C86CB
:105BD000C4EBC40413F0BCFDA91D684613F0E8FD36
:105BE0006846202113F074FE0C49684601EB44011D
:105BF00013F0A6FD6946304613F0C2FD684613F067
:105C0000B3FD012004B070BD90F86E20002AD6D1FB
:105C1000012004B070BD00BF9C4701206CF50760F7
:105C200070B588B006460C461E496846154613F006
:105C30008FFD1D494C230220A5F10E0203FB041326
:105C4000012AD871F07F83F82E0009D920466946D1
:105C500013F096FD684613F087FD012008B070BD73
:105C60000E2D1AD096F86D2083F842204C230A227C
:105C700004A803FB04114B7A042B0CBF91F84210CB
:105C800091F84410013113F0A7FD04A9684613F000
:105C9000DFFD04A813F068FDD8E796F86C2083F8C0
:105CA0004220E3E7D82600209C470120174B70B51F
:105CB0001E6884B0B6B102EB42030C461546684636
:105CC000C3EB0311314413F043FD0B2D05D9684696
:105CD00013F04AFD012004B070BD2046694613F060
:105CE0004FFDF4E701EBC103094A202001EB43011A
:105CF000890001F11C032C3113440A4403F8010FFD
:105D00009342FBD1012004B070BD00BF9808012070
:105D10009C470120F0B585B0064614460D466846FE
:105D2000264913F015FD301990F89C304BBBB4FA9E
:105D300084F1490929BB4C22214E224B02FB056606
:105D4000A200F17186F82E10144403EB440494F879
:105D50008C1661B190F89C204B1E1B496846134479
:105D600003EB830203EB4203194413F0E9FC2846DA
:105D7000694613F005FD684613F0F6FC012005B0F6
:105D8000F0BD90F8A5300E4F8BB14C23012203FBE0
:105D90000573DA71A2000B4B4C21161901FB05713A
:105DA00003EB460696F88D6681F82E60CCE74C230F
:105DB000022203FB0573DA71ECE700BFD82600204E
:105DC0009C47012078CC01602C1B086070B506460A
:105DD000154684B00C4635441149684613F0B8FCAA
:105DE00095F89C30ABB10F4B4C22012102FB0432E1
:105DF000D1714C25F27F2046694605FB043484F8B6
:105E00002E2013F0BDFC684613F0AEFC012004B058
:105E100070BD044B4C22022102FB0432D171E8E731
:105E2000D82600209C4701202DE9F04F8BB09A46E0
:105E300004460F469DF8509002A888491546B9FAC5
:105E400089F6760913F084FCBAF1000F1ED1EEB189
:105E5000002D40F0FC80172304F20B2204F21320E3
:105E6000E118013391F83B11DBB202F8011F8242C5
:105E7000F6D104F5037106A813F06AFC06A81022F7
:105E800002A913F0C1FC06A813F06EFC1AF1000B76
:105E900018BF4FF0010B002E4BD0BBF1000F48D0C4
:105EA000002D40F0CE80172304F20B2804F21320BB
:105EB0004246E118013391F83B11DBB202F8011FB1
:105EC0008242F6D104F5037306AE194630460193BB
:105ED00013F03EFC082230460DEB020113F094FC57
:105EE000304613F041FC202102A813F0F1FC0AF126
:105EF000FF32019B02EB4201C2EBC101C9B201F1C9
:105F000017021F31D2B2C9B2A0180132D2B290F832
:105F10003B01914208F8010FF6D11946304613F0C3
:105F200017FC3046072202A913F06EFC304613F02E
:105F30001BFCB9F1000F73D0BBF1000F70D0002D26
:105F400079D1172304F20B2504F213202A46E11815
:105F5000013391F83B11DBB202F8011F9042F6D1F8
:105F600006AE04F503780AF1FF3A4146304613F0D5
:105F7000EFFB052202A9304613F046FC304613F031
:105F8000F3FB202102A813F0A3FC29460AEB4A02E6
:105F9000CAEBC20A5FFA8AFA0AF117030AF11F0A6A
:105FA000DBB25FFA8AF2E0180133DBB290F83B0112
:105FB0009A4201F8010FF6D14146304613F0C8FB72
:105FC000052202A9304613F01FFC09F1FF393046C3
:105FD00013F0CAFB202102A813F07AFC09EB490256
:105FE000C9EBC2095FFA89F909F1170309F11F0921
:105FF000DBB25FFA89F2E1180133DBB291F83B11B1
:10600000934205F8011FF6D14146304613F0A0FB3C
:106010003046042202A913F0F7FB304613F0A4FB2C
:10602000384602A913F0ACFB02A813F09DFB012037
:106030000BB0BDE8F08F05EB4503C5EBC303DBB246
:1060400080E705EB4503C5EBC303DBB22CE705EBAB
:106050004503C5EBC303DBB2FEE600BFD826002034
:106060002DE9F047DFF8EC9190B0D9F80030002B23
:1060700070D016460F4680466F49684613F068FB9D
:106080000B2E6BD8DFF8C4A14C210220D9F80020D8
:1060900001FB07A10023694CC8711D46B8F8281000
:1060A00001EB4101C1EB01110A443244517D92F8E8
:1060B00021E005E001331334712B34D014F8135C64
:1060C000A942DAB2F6D114F8120C7045F2D152B3EB
:1060D00003EBC3025A49684603EB4203194413F029
:1060E0002FFB584AB8F82830A2FB0612D9F8001046
:1060F00003EB43035208C3EB031302EB42000B44D0
:10610000301A1A440130547CC2B2944200F08780A5
:1061100033445B7D023B072B7AD8DFE803F0645DF4
:10612000726B7979795DBEF1000F02D098F8523028
:106130002BBB4549684613F03BFB4C23002203FB75
:1061400007AA8AF82E203846694613F019FB6846DC
:1061500013F00AFB012010B0BDE8F0873B494C2347
:1061600098F81F20464403FB071383F82E2096F867
:10617000902012B10122DA71E5E7DA71E3E704A8B1
:1061800013F05AFB04A908A813F076FA08A83049BE
:1061900013F0F6FBB8F82830D9F80020044603EBDA
:1061A00043030CA8C3EB031313441E4496F82110B9
:1061B00013F042FB0CA9204613F0BAFB01466846D7
:1061C00013F046FB0CA813F0CFFA08A813F030FB2D
:1061D00004A813F0C9FAB0E74C23EA2203FB07AA8C
:1061E0008AF82E20AFE74C23E92203FB07AA8AF89E
:1061F0002E20A8E74C23EC2203FB07AA8AF82E20C6
:10620000A1E74C23E82203FB07AA8AF82E209AE78D
:106210004C23ED2203FB07AA8AF82E2093E74C2398
:10622000012203FB07A3DA71B8F8283003EB43031C
:10623000C3EB03130B446BE7D826002013D7016090
:1062400002D70160ABAAAAAAF42700209C4701202C
:10625000E0270020980801202DE9F04F8BB09A46E6
:1062600004460F469DF8509002A888491546B9FA91
:1062700089F6760913F06CFABAF1000F1ED1EEB16F
:10628000002D40F0FC80172304F2444204F24C40FD
:10629000E118013391F87413DBB202F8011F824256
:1062A000F6D104F2454106A813F052FA06A81022CE
:1062B00002A913F0A9FA06A813F056FA1AF1000B76
:1062C00018BF4FF0010B002E4BD0BBF1000F48D090
:1062D000002D40F0CE80172304F2444804F24C40D5
:1062E0004246E118013391F87413DBB202F8011F42
:1062F0008242F6D104F2454306AE19463046019378
:1063000013F026FA082230460DEB020113F07CFA56
:10631000304613F029FA202102A813F0D9FA0AF125
:10632000FF32019B02EB4201C2EBC101C9B201F194
:1063300017021F31D2B2C9B2A0180132D2B290F8FE
:106340007403914208F8010FF6D11946304613F054
:10635000FFF93046072202A913F056FA304613F02F
:1063600003FAB9F1000F73D0BBF1000F70D0002D0C
:1063700079D1172304F2444504F24C402A46E1182F
:10638000013391F87413DBB202F8011F9042F6D189
:1063900006AE04F245480AF1FF3A4146304613F092
:1063A000D7F9052202A9304613F02EFA304613F031
:1063B000DBF9202102A813F08BFA29460AEB4A02E6
:1063C000CAEBC20A5FFA8AFA0AF117030AF11F0A36
:1063D000DBB25FFA8AF2E0180133DBB290F87403A3
:1063E0009A4201F8010FF6D14146304613F0B0F958
:1063F000052202A9304613F007FA09F1FF393046A9
:1064000013F0B2F9202102A813F062FA09EB490255
:10641000C9EBC2095FFA89F909F1170309F11F09EC
:10642000DBB25FFA89F2E1180133DBB291F8741341
:10643000934205F8011FF6D14146304613F088F922
:106440003046042202A913F0DFF9304613F08CF92C
:10645000384602A913F094F902A813F085F9012037
:106460000BB0BDE8F08F05EB4503C5EBC303DBB212
:1064700080E705EB4503C5EBC303DBB22CE705EB77
:106480004503C5EBC303DBB2FEE600BFD826002000
:10649000114A4C2303FB012393F83230013BD8B25D
:1064A0000A2812D901EBC10001EB4001890001F17A
:1064B0001C032C3110B4134420240A4403F8014F68
:1064C0009342FBD15DF8044B704703EB0313034A7F
:1064D0000846D11813F038B99C470120881E08607F
:1064E000F0B585B0144606460D466846794913F066
:1064F0002FF90CB996F86E40013C052C00F29D80F6
:10650000DFE804F042545658630396F87521724F41
:10651000BB1893F8C436002B00F0AC806F49684676
:1065200031F812406E49013C23449CB213F040F90B
:1065300096F87431002B00F0BC80C4EBC4046949A8
:10654000684601EB4401023113F0FAF896F8743111
:106550001BB92921684613F0BBF96946284613F098
:106560000FF996F875114C235F4A07EB4107012498
:1065700003FB052597F8F13685F82E30684613F0B1
:10658000F3F8204605B0F0BD5849284613F0DCF872
:1065900055494C23F27F012403FB0515684685F815
:1065A0002E2013F0E1F8204605B0F0BD5049ECE78D
:1065B0005049EAE796F87831002B73D0012B00F0B0
:1065C0008280022BE4D14C49DFE796F87321424FD9
:1065D000BB1893F8C436002B60D04049684631F8A8
:1065E00012404649013C23449CB213F0E1F896F86E
:1065F0007231002B62D0C4EBC4043A49684601EB07
:106600004401023113F09CF896F872311BB929212C
:10661000684613F05DF96946284613F0B1F896F81C
:1066200073214C23304907EB4207012403FB051576
:1066300097F8F13685F82E30A0E705EBC5022A4819
:10664000202105EB4202920002F11C032C3203448C
:10665000024403F8011F9342FBD14C220023012482
:1066600002FB0505684685F82E3013F07DF82046BC
:1066700005B0F0BD1C4A4C23462003FB05233468BB
:1066800002462946D4F8B44058863046A04704460E
:10669000684613F069F8204605B0F0BD124A4C2355
:1066A0001720EAE71649284613F04EF896F8783195
:1066B00084E72821684613F00BF93EE72821684655
:1066C00013F006F997E70F49284613F03DF896F8BE
:1066D000783176E7D8260020801808601808012055
:1066E00060280020B0E706609C470120042B0020B2
:1066F000102B0020FDAF0160342B0020E829002082
:106700001C2B0020282B0020114A4C2303FB0123C3
:1067100093F83230013BD8B20B2812D901EBC100FB
:1067200001EB4001890001F11C032C3110B413442A
:1067300020240A4403F8014F9342FBD15DF8044B37
:10674000704703EB0313034A0846D11812F0FCBF4D
:106750009C470120C41F0860F8B590F89C300D4696
:10676000934202F14C0226D900EB4203134EDB8820
:1067700013F0010F4FF04C0314BF0121022103FB62
:106780000563D97100EB42020D4F2846D38807F606
:10679000CC71C3F3470404EBC404640021443C44BB
:1067A00012F0D2FF4C2294F8DD3F012002FB056578
:1067B00085F82E30F8BD014EE4E700BF9C4701206C
:1067C00070DD0160F8B590F89D300D46934202F1FE
:1067D000500224D930F81230124F13F0010F4FF04D
:1067E0004C0314BF0121022103FB0573D97130F85A
:1067F000123028460C4EC3F3470404EB8404A40073
:106800003119344401F2467112F09EFF4C2294F883
:106810005737012002FB057585F82E30F8BD014F72
:10682000E5E700BF9C47012068EE016070B50AB93A
:1068300090F86E20022A22D8012A03464FF0000465
:1068400014BF12260F2603E001341133082C28D080
:1068500093F8A950012DF7D193F8B350B542F3D175
:1068600004EB0414031993F8AB0093F8AA40000159
:1068700093F8AC6000EB04231E44B6B212E001EBC7
:10688000C1031C4A202401EB4301890001F11C03D0
:106890002C3113440A4403F8014F9342FBD10120E9
:1068A00070BDFF26144C002340F22B1504E0013389
:1068B000302B11D034F8185CAE4204F11804F6D134
:1068C000DBB20E4A084603EB430302EBC301093176
:1068D00012F03AFF012070BD012A05D00846084990
:1068E00012F032FF012070BD0846064912F02CFF5D
:1068F000D5E700BF9C470120129E0160F89D016012
:106900004C2B0020442B0020F0B589B014460746DC
:106910000D466846002112F01BFF5C2C20D8542C39
:1069200034D82744234E4C233E2C97F89D2003FB5C
:106930000563DA711AD997F89D302846012B0CBFF0
:106940001D491E4912F000FFC4EBC4041C4A4C232D
:1069500002EB440403FB056594F8E13F85F82E3013
:10696000684612F001FF012009B0F0BD05EBC50239
:10697000202105EB4202920002F11C032C32334429
:10698000324403F8011F9342FBD1DDE727440D4950
:1069900004A8084E12F0DCFE04A997F89D0012F03E
:1069A000EBFF284604A912F0EBFE04A812F0DCFE6F
:1069B000CAE700BF9C470120A02C0020A82C002083
:1069C00098E50760D826002030B585B00D4604460E
:1069D0000949684612F0BCFE6946284612F0CCFF11
:1069E0006946204612F0CCFE044B68461C7012F03B
:1069F000BBFE05B030BD00BFD8260020AC5F012033
:106A000070B584B0054616460C466846002112F063
:106A10009FFE6B46324695F89C10012012F0A0FFB5
:106A20006946204612F0ACFE684612F09DFE012039
:106A300004B070BD0146012001F134030A8D91F8C4
:106A40009C1012F08DBF00BF2DE9F04188B00646C2
:106A500088463449684617464FEAC82512F078FE42
:106A6000328DADB26B46013296F89C1002202A445A
:106A700092B212F075FF58B30024264602E00134AA
:106A80000C2C12D02146684612F016FE0378E5B2AF
:106A9000202BF4D92146684612F00EFE013403780B
:106AA0007A2B98BF2E460C2CECD1731C0022694621
:106AB00004A812F0FDFE04A9384612F0C9FE04A88D
:106AC00012F052FE684612F04FFE08B0BDE8F081A9
:106AD00004462A4696F89C106B46022012F040FFAE
:106AE000A8B1264602E001340C2CDED021466846CF
:106AF00012F0E2FD0378E5B2202BF4D92146684676
:106B000012F0DAFD03787A2B98BF2E46EBE708EBFC
:106B1000081805493846414412F012FE684612F042
:106B200023FED2E7D826002044090020F0B507460E
:106B300089B016460C4600293CD03049684612F010
:106B400007FE3A8DE4026B46013297F89C10A5B21D
:106B500003202A4492B212F003FF044678B30024C3
:106B6000274602E001340C2C12D02146684612F070
:106B7000A3FD0378E5B2202BF4D92146684612F034
:106B80009BFD013403787A2B98BF2F460C2CECD157
:106B90007B1C0022694604A812F08AFE04A9304634
:106BA00012F056FE04A812F0DFFD684612F0DCFD7C
:106BB00009B0F0BD1249104612F0C2FDBDE72A46E9
:106BC00097F89C106B46032012F0CAFE0028ECD008
:106BD000274602E001340C2CDAD02146684612F038
:106BE0006BFD0378E5B2202BF4D92146684612F0FC
:106BF00063FD03787A2B98BF2F46EBE7D826002059
:106C0000F42700202DE9F04794B01E4618460D46A3
:106C10001C9F904612F020FE384612F01DFE347A7A
:106C200014B1BB689C4206D03146404612F010FEBB
:106C300014B0BDE8F08731466846013C12F09CFD77
:106C400013E050281ED1012D00F0E2806D08A9F15B
