:1000000000800020BD01000099E0010051E00100E6
:1000100051E0010051E0010051E0010051E0010018
:1000200051E0010051E0010051E0010099E00100C0
:1000300099E0010051E00100D90F0200DD1002003B
:1000400099E0010099E0010099E0010099E00100C8
:1000500099E0010099E0010099E0010099E00100B8
:1000600099E0010099E0010099E0010099E00100A8
:1000700099E0010099E0010099E0010099E0010098
:1000800099E0010099E0010099E0010099E0010088
:1000900099E0010099E0010099E0010099E0010078
:1000A00049C9010055C9010099E0010099E001002A
:1000B00099E0010099E0010099E0010099E0010058
:1000C00099E0010099E0010099E0010099E0010048
:1000D00099E0010099E0010099E0010099E0010038
:1000E00099E0010099E0010099E0010099E0010028
:1000F00099E0010049EC010099E00100A1F3010041
:1001000099E0010025F9010099E0010099E0010062
:1001100099E0010099E0010099E0010099E00100F7
:1001200099E0010099E0010099E0010099E00100E7
:1001300099E0010099E0010099E0010099E00100D7
:1001400099E0010099E0010099E0010099E00100C7
:10015000FDD5010011D6010025D6010039D60100D8
:1001600099E00100B5FB010099E0010099E0010070
:1001700099E0010099E0010099E0010099E0010097
:1001800099E0010099E0010099E0010099E0010087
:1001900099E0010099E0010099E0010099E0010077
:1001A00099E0010099E0010099E0010099E0010067
:1001B00099E0010099E0010099E00100564B4CF2F2
:1001C000205210B51A804DF628121A8000BF00BFC9
:1001D0001DF066FF514B4FF010621A60504A9A6052
:1001E000504ADA60504A136813F4807304D14F49BF
:1001F0000B604FF4A85313604D4B1A78110703D5C9
:100200001A7842F008021A704A4B4B492A221A7097
:100210004A4A4B4B8B4204D252F8040F43F8040B6A
:10022000F8E7484B484900228B4202D243F8042B9E
:10023000FAE74649464A002352F8230041F82300D2
:1002400001336F2BF8D1434B434A802103F8011B44
:100250009342FBD1414B3D4A1A60414B8A221A70AE
:10026000A3F5805324225A70A0221A709A7992071B
:10027000FCD59A79D406FCD43A4A937903F00C035E
:10028000082B384BF9D103221A7140225A719A79FE
:100290009006FCD5334A9179324B4906FBD5324A58
:1002A000324911600221516020221A709A7902F0BD
:1002B0000C020C2AFAD12E4B2E4A1A602E4B2F4AD2
:1002C0001A6000225A60072243F8042C2C4AC3F813
:1002D0000C2D62B61EF01AF9144B1B68DA0705D50F
:1002E00028481EF077F8284B284A1A60284B1B78BC
:1002F0005B0609D5244C254B22689A4204D121483B
:100300001EF068F80023236021F00AF91DF0CEFEEC
:100310001DF0FCFDFEE700BF0E20054030800440CC
:10032000823F04000100002B10D0034014D0034092
:1003300002D0074000E00740909CFF1FB03503004B
:100340004088FF1F909CFF1FB03E00200082FF1FCF
:100350000000000000E400E05FE400E008ED00E0E1
:100360000050064000400640448004400000030165
:1003700004800440C010050014E000E0FF76010096
:1003800000002020CEE5255E1CE00340A5C3945A62
:1003900000F00740FFFFFFFFFFFFFFFFFFFFFFFF32
:1003A000FFFFFFFFFFFFFFFFFFFFFFFFFFFFFFFF5D
:1003B000FFFFFFFFFFFFFFFFFFFFFFFFFFFFFFFF4D
:1003C000FFFFFFFFFFFFFFFFFFFFFFFFFFFFFFFF3D
:1003D000FFFFFFFFFFFFFFFFFFFFFFFFFFFFFFFF2D
:1003E000FFFFFFFFFFFFFFFFFFFFFFFFFFFFFFFF1D
:1003F000FFFFFFFFFFFFFFFFFFFFFFFFFFFFFFFF0D
:10040000FFFFFFFFFFFFFFFFFFFFFFFFDEF9FFFF23
:1004100010B5054C237833B9044B13B10448AFF33E
:1004200000800123237010BD909CFF1F000000007E
:10043000AC350300084B10B51BB108490848AFF3B1
:1004400000800848036803B910BD074B002BFBD0A0
:10045000BDE81040184700BF00000000949CFF1F3B
:10046000AC350300909CFF1F000000000020704787
:10047000704700BF704700BF704700BF10B4012431
:1004800004FA01F104684174A3698272002110BC6E
:10049000184700BF2DE9F041DFF834800A4C98F886
:1004A00000300A4F1E1104F12C0501E098F80030CD
:1004B00054F8040BB95D02681943D2699047A5420C
:1004C000F4D1BDE8F08100BFDC89FF1F8833002034
:1004D00008DDFF1F0023CD2280F88820037180F8FB
:1004E000893080F88A3080F88B307047704700BFC1
:1004F00030B490F820409DF808509C4201D030BCA8
:10050000704790F82130AB42F9D10029F7D180F83B
:100510004620F4E7704700BF704700BF044A4379A4
:1005200010780133181AB0FA80F04009704700BF04
:10053000A8E0FF1F70B4838C0A4C42790A4D0B4926
:10054000B0F844602E70A4FB0343013264250024FC
:100550005B090A70A0F8445080F84740A0F8423088
:1005600070BC70471F85EB5115AAFF1FA8E0FF1F45
:100570000368DB6F184700BF01EBC10301EB4301C8
:100580008900064A01F11C032C3113440A4420213E
:1005900003F8011F9342FBD101207047E09DFF1F2C
:1005A00000207047002070470368D3F89830184740
:1005B0000846704701EBC10301EB43018900064A7D
:1005C00001F11C032C3113440A44202103F8011FBC
:1005D0009342FBD1704700BFE09DFF1F002380F8CE
:1005E0006210A0F86030704700207047002070470C
:1005F000704700BF704700BF704700BF90F866307B
:100600004BB10133DBB2022B88BF012380F8663087
:10061000014B02221A7070478DDDFF1F01EBC103F1
:1006200001EB43018900064A01F11C032C311344FC
:100630000A44202103F8011F9342FBD10120704797
:10064000E09DFF1F704700BF00207047704700BF4C
:100650005D207047542901D8022070475D2934BFBE
:1006600080200020704700BF0379022B06BF90F85E
:10067000EE0040005D20704790F8EF00704700BF2B
:100680002F2070472E299DBF024B03EB4111087AA2
:1006900000207047CC7B02004379094A094910B415
:1006A0000133B0F8444014700B704FF4967400227C
:1006B000A0F84440A0F8422080F8472010BC7047C2
:1006C00015AAFF1FA8E0FF1F90F847304BB9C1EBF8
:1006D0000111490089B2022986BF033988B200207E
:1006E0007047B0F8423001EB4101C3EB031301EB5B
:1006F000430189B2EFE700BF2E2070472D299DBF2F
:10070000024B03EB4111087A0020704710E8020009
:10071000082070471531C8B2704700BF022380F827
:10072000663070474379094A094910B40133B0F87B
:10073000444014700B704FF4C8740022A0F8444079
:10074000A0F8422080F8472010BC704715AAFF1F70
:10075000A8E0FF1F0F2907D801EBC102034B01EBF3
:1007600042011944887C704700207047DCEF02008A
:1007700010B40AB990F86620012A1ED0022A1AD0B5
:10078000032A0CBF0D2400240D4A01EBC10001EB2C
:1007900040004C2303FB0121800000F11C032C309E
:1007A00013444C860244202103F8011F9342FBD1DD
:1007B000012010BC70470C24E6E70B24E4E700BFDF
:1007C000E09DFF1F43790D4990F8912030B40C4C07
:1007D000B0F84450257001330B7052B14FF4FA73E6
:1007E000A0F844300023A0F8423080F8473030BCF5
:1007F00070476423A0F84430F4E700BFA8E0FF1F6F
:1008000015AAFF1F1220704790F866304BB10133D4
:10081000DBB2032B88BF012380F86630014B012235
:100820001A7070478DDDFF1F10B40AB990F866206A
:10083000012A1ED0022A1AD0032A0CBF0D2400243C
:100840000D4A01EBC10001EB40004C2303FB0121E9
:10085000800000F11C032C3013444C8602442021FC
:1008600003F8011F9342FBD1012010BC70470C24F8
:10087000E6E70B24E4E700BFE09DFF1F4379094A48
:10088000094910B40133B0F8444014700B7050247F
:100890000022A0F84440A0F8422080F8472010BC75
:1008A000704700BF15AAFF1FA8E0FF1F89207047EF
:1008B00090F862300BB989207047024A134413F84C
:1008C000010C704730390020F0B490F86260CEB16E
:1008D00000230F4A1D460B2403E0892B0ED012F88B
:1008E0001A4CB442DFB202F11A0203F10103F4D14F
:1008F000A9420AD00135892BEDB2F0D14FF6FF7035
:10090000F0BC70470846F0BC7047B8B2F0BC704706
:10091000E5A60200704700BF1020704790F86630CF
:100920004BB10133DBB2022B88BF012380F8663064
:10093000014B01221A7070478DDDFF1F30B40AB9D8
:1009400090F86620012A20D0022A12D001EBC103C0
:1009500001EB430189000E4A01F11C032C311344C1
:100960000A44202103F8011F9342FBD1012030BC2F
:1009700070470F23064C05684C2202FB01441A46BF
:100980006386D5F8943030BC18470E23F2E700BFD9
:10099000E09DFF1F01207047704700BF0F20704788
:1009A0000E2907D8044B01EB4101C1EBC1011944E9
:1009B000887C704700207047008202000C4A01EBDF
:1009C000C10001EB40004C2303FB0121800010B467
:1009D00000F11C030E242C304C86134420210244C9
:1009E00003F8011F9342FBD1012010BC704700BFE8
:1009F000E09DFF1F026890F8481080F84B10526C81
:100A0000818C1047B0207047C12906D8044B01EBF8
:100A1000410103EBC101887870470020704700BF97
:100A2000E01D030090F862300BB9C2207047024A03
:100A3000134413F8010C7047A8FEFF1FF0B490F8A0
:100A40006260CEB100230F4A1D460C2403E0C22B86
:100A50000ED012F8184CB442DFB202F1180203F1C2
:100A60000103F4D1A9420AD00135C22BEDB2F0D175
:100A70004FF6FF70F0BC70470846F0BC7047B8B244
:100A8000F0BC70470F1E03002720704710B4054CC0
:100A90004C2000FB014181F8303081F83C2010BC33
:100AA000704700BFE09DFF1F90F866304BB10133E7
:100AB000DBB2022B88BF012380F86630014B012294
:100AC0001A7070478DDDFF1F0620704710B4084A6A
:100AD000084813780849012B84BF03F1FF331370D2
:100AE000064A00230124137004700B7010BC704779
:100AF00017AAFF1F2D39002079000020BDE0FF1F3D
:100B000010B4084A0848137808490F2B9CBF0133DA
:100B10001370074A00230124137004700B7010BC7B
:100B2000704700BF17AAFF1F2D3900207900002051
:100B3000BDE0FF1F704700BF10B5044B044640F8EE
:100B40002C3B1CF099FD204610BD00BFB4C0020034
:100B500010B5044B044640F82C3B1CF08DFD20469C
:100B600010BD00BFB4C0020010B5044B044640F8ED
:100B70002C3B1CF081FD204610BD00BFB4C002001C
:100B800010B5044B044640F82C3B1CF075FD204684
:100B900010BD00BFB4C0020010B5044B044640F8BD
:100BA0002C3B1CF069FD204610BD00BFB4C0020004
:100BB00010B5044B044640F82C3B1CF05DFD20466C
:100BC00010BD00BFB4C0020010B5044B044640F88D
:100BD0002C3B1CF051FD204610BD00BFB4C00200EC
:100BE00010B5044B044640F82C3B1CF045FD204654
:100BF00010BD00BFB4C0020010B5044B044640F85D
:100C00002C3B1CF039FD204610BD00BFB4C00200D3
:100C100010B5044B044640F82C3B1CF02DFD20463B
:100C200010BD00BFB4C0020010B5044B044640F82C
:100C30002C3B1CF021FD204610BD00BFB4C00200BB
:100C400008B5C8201DF014FC014B024A1A6008BD0B
:100C50000CED00E00400FA0570B50C4C04F1100531
:100C600014F8011F0A481CF045FEAC42F8D1094AAD
:100C7000094B107809491870094D0A4C08260220C2
:100C80000123167008702B70237070BD23A9FF1FFD
:100C9000C4E0FF1FB0E5FF1FEDFDFF1F8DDDFF1F4F
:100CA000B1E0FF1F2D390020104601491CF0C0BDE6
:100CB000C4590200184601491CF0BABDD4590200BB
:100CC000104601491CF0B4BDD85902001046014934
:100CD0001CF0AEBDE4590200104601491CF0A8BD4D
:100CE000D4590200811D10461CF0F6BD1046014982
:100CF0001CF0F2BDEC590200034B03EB411110460E
:100D000009311CF0E9BD00BFCC7B0200034B03EBB3
:100D10004111104609311CF0DFBD00BF10E8020090
:100D200010B401EBC103044C01EB43012144104614
:100D300010BC1CF0D1BD00BFDCEF0200044B10B4AE
:100D4000162404FB0131104610BC1CF0C5BD00BFC9
:100D5000EC15030010B401EB4103044CC1EBC301DB
:100D60002144104610BC1CF0B7BD00BF38DC0200A7
:100D700001EB4101034BC1EBC101104619441CF0CA
:100D8000ABBD00BF00820200044B01EB410103EB4D
:100D9000C101104603311CF09FBD00BFE01D0300E0
:100DA000262903D9104605491CF096BD044B01EBDA
:100DB0004101104603EBC1011CF08EBD906302009F
:100DC00004BD0200262903D9104606491CF084BD43
:100DD000054B01EB410103EBC10110460E311CF044
:100DE0007BBD00BF9063020004BD020070B501EB43
:100DF00041030C461F49C4EBC30305461944104682
:100E000016461CF069FD0B2C00D970BD3A21304606
:100E10001CF070FDAB8C184A1849126803EB4303B1
:100E2000C3EB03131A4422440023547D92F821207B
:100E3000184606E00133712B01F1130114D011F8AB
:100E4000130C8442DDB2F5D111F8120C9042F1D1AD
:100E500055B103EBC3020A4903EB42033046194480
:100E6000BDE870401CF038BD30460649BDE8704012
:100E70001CF032BD49DC020084010020B3B4020042
:100E8000A2B40200FC59020030B589B00D4604A896
:100E90000B4914461CF030FC294668461CF05EFCE9
:100EA000694604A81CF04AFD014620461CF010FDCE
:100EB00068461CF0E1FB04A81CF0DEFB09B030BD65
:100EC000005A020030B589B00D4604A80B491446FB
:100ED0001CF012FC294668461CF040FC694604A838
:100EE0001CF02CFD014620461CF0F2FC68461CF06C
:100EF000C3FB04A81CF0C0FB09B030BD085A0200B7
:100F000070B50F4CA4FB0134E4080D4604F1410117
:100F100084B0C9B2104604EB840416461CF0EAFC07
:100F2000A5EB44010A2289B268461CF02BFC6946F5
:100F300030461CF0CDFC68461CF09EFB04B070BD32
:100F4000CDCCCCCCF0B50D468DB0184C1849013540
:100F500004A8164684FB05341CF0CEFBEB17C3EB4C
:100F6000A40421460A2268461CF00CFC694604A829
:100F70001CF0E4FC04EB84010A220746A5EB4101C6
:100F800008A81CF0FFFB08A938461CF0D7FC014656
:100F900030461CF09DFC08A81CF06EFB68461CF057
:100FA0006BFB04A81CF068FB0DB0F0BD67666666BD
:100FB000145A02002DE9F041454FA7FB01346408A3
:100FC000622C8CB00D46164673D990F88F3003F121
:100FD0003102B4EB420F804670DC62339C4256DC37
:100FE0003C4930461CF078FC6FF494731D44ADB25C
:100FF000A7FB0534C4F34F04374F013487FB043794
:10100000E317C3EBA70739460A2268461CF0BAFB70
:10101000694608A81CF084FB07EB87010A22A4EBB1
:10102000410104A81CF0AEFB04A908A81CF086FC32
:10103000014630461CF04CFC04A81CF01DFB08A81F
:101040001CF01AFB68461CF017FB08A823491CF08B
:1010500053FB1F49A1FB0531490801EB4101691A06
:1010600089B20A22013104A81CF08CFB04A908A84B
:101070001CF064FC014630461CF02AFC04A81CF05D
:10108000FBFA08A81CF0F8FA0CB0BDE8F08114498E
:1010900030461CF021FC98F88F3003EB4303C3F576
:1010A0007E43D7331D44ADB2A7FB0534C4F34F04D0
:1010B000A2E70C4910461CF00FFC9DE70A49304698
:1010C0001CF00AFC98F88F3003EB43035B00E6E763
:1010D000ABAAAAAA485A020067666666D4590200FB
:1010E000EC610200185A02001C5A02002DE9F0437C
:1010F00090F8913095B00C461546002B51D104293B
:1011000048D90C1F08A856491CF0F6FA5549A4B254
:10111000A1FB04310A22490904A81CF033FB04A9ED
:1011200008A81CF00BFC504BA3FB0426F608B1B238
:10113000A3FB0123DB0803EB8303A1EB4301074679
:101140000A2289B20CA81CF01DFB0CA938461CF021
:10115000F5FB06EB8606A4EB46010A22074689B298
:1011600010A81CF00FFB10A938461CF0E7FB014645
:1011700028461CF0ADFB10A81CF07EFA0CA81CF051
:101180007BFA04A81CF078FA08A81CF075FA15B0D0
:10119000BDE8F083104635491CF09EFB15B0BDE854
:1011A000F083314E2F49A6FB0437BF0807F1010930
:1011B000A1FB09310A22A6FB0938C1F34F11684689
:1011C0001CF0E0FA4FEAD808694608A81CF0A8FA13
:1011D0001FFA88F1A6FB0136F60806EB8606A1EB9E
:1011E00046010A2289B204A81CF0CCFA04A908A876
:1011F0001CF0A4FB08EB8808A9EB48010A2206466C
:1012000089B20CA81CF0BEFA0CA930461CF096FB63
:1012100017491CF09BFB07EB8701611A89B20A2270
:101220000646013110A81CF0ADFA10A930461CF09A
:1012300085FB014628461CF04BFB10A81CF01CFA4D
:101240000CA81CF019FA04A81CF016FA08A81CF047
:1012500013FA68461CF010FA15B0BDE8F08300BF21
:10126000285A02001F85EB51CDCCCCCC205A02006D
:10127000D4590200F0B590F8913091B004460F4671
:101280001646002B36D190F84730002B75D190F8D8
:101290004210614D01EB810107EB4104E4B2A5FB73
:1012A0000435ED0829460A2204A81CF06BFA05EB68
:1012B000850504A90CA81CF033FAA4EB4501C9B2BA
:1012C0000A2208A81CF05EFA08A90CA81CF036FB3C
:1012D00052491CF03BFB014630461CF0F9FA08A8C5
:1012E0001CF0CAF90CA81CF0C7F904A81CF0C4F93A
:1012F00011B0F0BD90F84730002B69D0B0F8421023
:10130000454DA5FB01310A22C90868461CF03AFA8E
:10131000694608A81CF004FAB4F84210A5FB013590
:10132000ED0805EB8505A1EB45010A2289B204A869
:101330001CF028FA04A908A81CF000FB3946044652
:101340000A220CA81CF01EFA0CA920461CF0F6FA82
:1013500033491CF0FBFA014630461CF0B9FA0CA8E0
:101360001CF08AF904A81CF087F908A81CF084F97D
:1013700068461CF081F911B0F0BDB0F84210264D5E
:10138000A5FB01310A22C90868461CF0FBF9694631
:1013900008A81CF0C5F9B4F84210A5FB0135ED080A
:1013A00005EB8505A1EB45010A2289B204A81CF0D2
:1013B000E9F904A908A81CF0C1FA394604460A2232
:1013C0000CA81CF0DFF90CA920461CF0B7FAC2E704
:1013D000B0F84240104904EB840407EB4404A4B283
:1013E000A1FB0437FF0839460A2204A81CF0CAF9F9
:1013F00007EB870704A90CA81CF092F9A4EB47019E
:1014000089B20A2208A81CF0BDF908A90CA81CF092
:1014100095FA04495DE700BFCDCCCCCC2C5A020034
:10142000345A0200305A020070B590F847308CB040
:1014300004460D46164633BBB0F842300BB90029BE
:1014400064D0354908A81CF057F9B4F8421001EBF4
:10145000810105EB410101390A2204A81CF092F92F
:1014600004A908A81CF06AFA2C491CF06FFA01467E
:1014700030461CF02DFA04A81CF0FEF808A81CF059
:10148000FBF80CB070BDB0F84230A3B929B91046D2
:1014900023491CF021FA0CB070BD08A821491CF0AA
:1014A0002BF9294604A80A221CF06CF904A908A803
:1014B0001CF044FADBE704A817491CF01DF9B4F846
:1014C00042100A22013968461CF05CF9694604A8FA
:1014D0001CF034FA14491CF039FA0A220446294651
:1014E00008A81CF04FF908A920461CF027FA01466D
:1014F00030461CF0EDF908A81CF0BEF868461CF058
:10150000BBF804A81CF0B8F80CB070BD1046074931
:101510001CF0E2F90CB070BD3C5A0200405A0200C7
:10152000445A02004C5A020024620200385A020057
:10153000F0B5224B01318CB291B0A3FB04311646B9
:1015400049090A2268461CF01DF9694608A81CF0E2
:10155000E7F81B4BA3FB0425ED08A9B2A3FB01236D
:10156000DB0803EB8303A1EB43010A2289B204A841
:101570001CF008F904A908A81CF0E0F905EB8505A2
:10158000A4EB45010A22074689B20CA81CF0FAF820
:101590000CA938461CF0D2F9014630461CF098F9E7
:1015A0000CA81CF069F804A81CF066F808A81CF048
:1015B00063F868461CF060F811B0F0BD1F85EB5170
:1015C000CDCCCCCCF0B5C72991B00C4610468CBF21
:1015D00023492449164601341CF07EF92249A4B25D
:1015E000A1FB04310A22490968461CF0CBF8694680
:1015F00008A81CF095F81D4BA3FB0425ED08A9B223
:10160000A3FB0123DB0803EB8303A1EB43010A22C5
:1016100089B204A81CF0B6F804A908A81CF08EF939
:1016200005EB8505A4EB45010A22074689B20CA803
:101630001CF0A8F80CA938461CF080F90146304689
:101640001CF046F90CA81CF017F804A81CF014F8BC
:1016500008A81CF011F868461CF00EF811B0F0BD97
:10166000145A0200185A02001F85EB51CDCCCCCC85
:10167000F0B590F8473091B005460F4616466BBB63
:10168000B0F84230012B8CBF3749384910461CF066
:1016900023F9B5F842100A2204A81CF073F804A933
:1016A0000CA81CF03DF80A22394608A81CF06AF87C
:1016B00008A90CA81CF042F92D491CF047F9014675
:1016C00030461CF005F908A81BF0D6FF0CA81BF04B
:1016D000D3FF04A81BF0D0FF11B0F0BDB0F842302A
:1016E000244C132B8CBF2049204910461CF0F4F8E1
:1016F000B5F84210A4FB01310A22C90868461CF063
:1017000041F8694608A81CF00BF8B5F84210A4FB94
:101710000134E40804EB8404A1EB44010A2289B2F9
:1017200004A81CF02FF804A908A81CF007F90A2245
:10173000044639460CA81CF025F80CA920461CF0DC
:10174000FDF8014630461CF0C3F80CA81BF094FFCE
:1017500004A81BF091FF08A81BF08EFF68461BF041
:101760008BFF11B0F0BD00BF145A0200185A0200DE
:101770002C5A0200CDCCCCCC30B501F1480389B055
:1017800030F81330154601310A2268465C101BF010
:10179000F9FF694604A81BF0C3FF04A80B491CF01D
:1017A000D5F8E3B20A4903EBC30301EB43011CF094
:1017B000CDF8014628461CF08BF804A81BF05CFF0E
:1017C00068461BF059FF09B030BD00BF745F0200CE
:1017D000288A020070B5164C4D1C84FB0534EB17AB
:1017E0008CB0C3EBA404164621460A2268461BF0BF
:1017F000C9FF694608A81BF093FF04EB84010A2285
:10180000A5EB410104A81BF0BDFF04A908A81CF02A
:1018100095F8014630461CF05BF804A81BF02CFF3D
:1018200008A81BF029FF68461BF026FF0CB070BD0E
:101830006766666630B589B00D4604A80C49144643
:101840001BF05AFF0A22691C68461BF09BFF694681
:1018500004A81CF073F8014620461CF039F86846CD
:101860001BF00AFF04A81BF007FF09B030BD00BF42
:10187000505A020030B501F1480389B030F81330F6
:10188000154601310A2268465C101BF07BFF694651
:1018900004A81BF045FF04A80B491CF057F8E3B25D
:1018A0000A4903EB830301EB830102311CF04EF87C
:1018B000014628461CF00CF804A81BF0DDFE684623
:1018C0001BF0DAFE09B030BD745F0200582B020035
:1018D000F0B50C46C91191B04131C9B204A8164601
:1018E00001341BF063FF2149A4B2A1FB04310A2299
:1018F000490968461BF046FF694604A81CF01EF81B
:101900001B4BA3FB0425ED08A9B2A3FB0123DB08B5
:1019100003EB8303A1EB430107460A2289B208A81F
:101920001BF030FF08A938461CF008F805EB8505C8
:10193000A4EB45010A22074689B20CA81BF022FF3E
:101940000CA938461BF0FAFF014630461BF0C0FFD9
:101950000CA81BF091FE08A81BF08EFE68461BF039
:101960008BFE04A81BF088FE11B0F0BD1F85EB5163
:10197000CDCCCCCC2DE9F04190F8473090B0074663
:101980000D461646002B47D0B0F842103D4C01EBF7
:10199000810189114131C9B204A81BF007FFB7F8D2
:1019A0004210A4FB01310A22C90868461BF0EAFE76
:1019B000694604A81BF0C2FFB7F84210A4FB01342B
:1019C000E40804EB8404A1EB440180460A2289B2B6
:1019D00008A81BF0D7FE08A940461BF0AFFF0A225B
:1019E000044629460CA81BF0CDFE0CA920461BF08E
:1019F000A5FF014630461BF06BFF0CA81BF03CFE18
:101A000008A81BF039FE68461BF036FE04A81BF040
:101A100033FE10B0BDE8F081B0F8423001EB810137
:101A20004A00642101FB0321C9114131C9B208A850
:101A30001BF0BCFEB7F842100A2204A81BF0A2FE5D
:101A400004A908A81BF07AFF0A22044629460CA81C
:101A50001BF098FE0CA920461BF070FF0A491BF0F2
:101A600075FF014630461BF033FF0CA81BF004FE47
:101A700004A81BF001FE08A81BF0FEFD10B0BDE895
:101A8000F08100BFCDCCCCCC2C5A020008B51CF0A4
:101A9000CDFC014B186008BD743500201E4AF8B516
:101AA00004461E4B1068C4F8060003CB15791E8847
:101AB000A5729B78237604F12C0502272771C4F8C0
:101AC0000E00C4F81210E682284611211BF0DCFD3E
:101AD000284613491BF0ACFE622200230421CD26C8
:101AE000D025D120E2870122052784F8886084F878
:101AF000895084F88A0084F88F3084F8903084F814
:101B00008B3084F84A10E17784F820202765A3877A
:101B100084F84C20F8BD00BF545A02005C5A020001
:101B2000685A0200234AF8B50446234B1068167918
:101B3000C4F8060007CBA6721B78A37604F12C0626
:101B40000227C4F816202771C4F80E00C4F812103A
:101B5000304611211BF098FD304618491BF068FEF5
:101B60004FF42470042128220A2303270826E08743
:101B700084F84A10CE20D02184F88F202365D22209
:101B800000230125E77784F8206084F8880084F832
:101B9000891084F88A2084F8903084F8913084F891
:101BA000923084F8933084F88B3084F84C50A387BB
:101BB000F8BD00BF7C5A0200845A0200685A020035
:101BC0001E4AF8B504461E4B10689788C4F80600F4
:101BD00007CB04F12C060225C4F816206781C4F84F
:101BE0000E00C4F812103046112125711BF04CFD77
:101BF000304614491BF01CFE7F2200234FF0040ED8
:101C0000D827D926DA20E28701220F49E57784F820
:101C10004AE084F8887084F8896084F88A0084F83F
:101C20008B3084F8202084F82120C4F88410A38706
:101C3000236584F88F3084F84C20F8BD945A020054
:101C40009C5A0200685A020080C3C901F8B5204BB3
:101C5000204D04461868C4F806000FCD04F12C0688
:101C60000227C4F81620C4F81A302771C4F80E00F1
:101C7000C4F81210304611211BF006FD30461649FB
:101C80001BF0D6FD4FF41C7204230A27DE26D02554
:101C9000DF20E28784F84A30002201230F49E777EA
:101CA00084F8886084F8895084F88A0084F88B204E
:101CB00084F8203084F8213084F89130C4F88410FE
:101CC000A287226584F8902084F84C30F8BD00BFCC
:101CD000A85A0200AC5A0200685A020080C3C90127
:101CE0001D4AF8B504461D4B1068C4F8060003CB26
:101CF00002251B88257104F12C05E382C4F80E002F
:101D0000C4F81210284611211BF0BEFC28461449C5
:101D10001BF08EFD0B23012204270626D625D72093
:101D2000E38700230F4984F84A70E67784F88850E7
:101D300084F8890084F88A3084F88B30C4F88F30B6
:101D400084F82020C4F88410A387236584F8953094
:101D5000A36684F84C20F8BDBC5A0200C05A0200A9
:101D6000685A020080C3C901F8B51C4B1C4D0446DB
:101D70001868C4F806000FCD04F12C060227C4F839
:101D80001620C4F81A302771C4F80E00C4F81210D7
:101D9000304611211BF078FC304612491BF048FDFB
:101DA0000426002301220725CD20D02140F22B1745
:101DB00084F84A60E57784F8880084F8891084F80C
:101DC0008A3084F88B3084F8202084F82120E7873B
:101DD000A387236584F84C20F8BD00BFCC5A0200CD
:101DE000D05A0200685A0200194A1A4B70B50446CC
:101DF0001068C4F8060003CB04F12C0502232371FC
:101E0000C4F80E00C4F81210284611211BF03CFC47
:101E1000284611491BF00CFD002301220420CF218C
:101E20006326052584F84A0084F8881084F8263053
:101E300084F8893084F88A3084F88B30E27784F82B
:101E40002020E6872565A38784F84C2070BD00BF5D
:101E5000E05A0200E45A0200685A02001C4AF8B52F
:101E600004461C4B10681679C4F8060007CBA6720E
:101E70001B88638304F12C060227C4F81620C4F8DB
:101E80000E00C4F812103046112127711BF0FCFB24
:101E9000304611491BF0CCFC04250023052101220A
:101EA000CF20312684F84A5084F8880084F889309D
:101EB00084F88A3084F88B30E17784F82020E68734
:101EC000A38784F82E31A366216584F84C20F8BDE1
:101ED000EC5A0200F45A0200685A0200244AF8B58B
:101EE0000446244B10689788C4F8060007CB0226E6
:101EF000678126711F889B78C4F8162004F12C0690
:101F00002377C4F80E00C4F81210678330461121FD
:101F10001BF0BAFB304618491BF08AFC032300254E
:101F2000CD20D021DA2284F88F3040F27F170123B0
:101F3000042684F8880084F8891084F88A20E787CA
:101F400084F84A60A587256584F88B50E37784F888
:101F5000203084F8213084F84C30294604F1900078
:101F60005D221FF081FE84F8EE5084F8EF50F8BD3A
:101F7000045B02000C5B0200685A02002F4AF8B5AD
:101F800004462F4B10681579C4F8060007CB0427C8
:101F90000226A57204F12C05C4F81620C4F80E0020
:101FA00084F88F70C4F812102846112126711BF096
:101FB0006BFB28462349244D1BF03AFC5821234B48
:101FC00084F84A700122DD204FF0050EDB27E187FF
:101FD000002184F88900A28784F8202084F84C200E
:101FE000E677C4F850E084F8887084F88A1084F8A2
:101FF0008B1003F6EA500B2201E013F81A2C511E45
:102000001A3312B16A5C01326A548342F5D1292233
:1020100040F20D130E4D0F4E4FF6FF7001E016F813
:10202000122025F81230591E8BB28342C3EBC30233
:10203000F5D10023C4F87431F8BD00BF1C5B020069
:10204000245B0200685A020030390020E5A6020035
:1020500014DDFF1FDCC20200264AF8B50546264BF8
:1020600010681679C5F8060007CB05F12C071B7818
:10207000AE720226AB76C5F81620C5F80E00C5F87C
:102080001210384611212E711BF0FEFA38461B49FA
:102090001BF0CEFB40F28F120423092401204FF0E5
:1020A000CD0ED327D421EA87002285F84A3085F85F
:1020B000204085F84C00AA8785F88F2085F890206D
:1020C0002A6585F88B20EE770D4B0E4C0E4885F86F
:1020D00088E085F8897085F88A100C2201E013F8F1
:1020E000182C511E183312B1425C01324254A342E3
:1020F000F5D1F8BD305B0200385B0200685A02007F
:102100000F1E03003F300300A8FEFF1FF0B5C1F310
:102110008705194C013584FB0534EB178DB0C3EBF3
:10212000A4040E46174621460A2268461BF02AFBE5
:10213000694608A81BF0F4FA04EB84010A22A5EB17
:10214000410104A81BF01EFB04A908A81BF0F6FB24
:1021500006F0030141311BF007FC014638461BF035
:10216000B7FB04A81BF088FA08A81BF085FA68469C
:102170001BF082FA0DB0F0BD6766666610B5034CC1
:1021800020681FF037FA0023236010BD840100206F
:1021900010B504461BF010FA204610BD0B290ED9CD
:1021A000A1F117030A2B07D9A1F122031F2B9ABF14
:1021B0001E31C8B2002070470239C8B270470131E1
:1021C000C8B2704770B505460C460AB990F866204B
:1021D000012A32D0022A11D004EBC40304EB4304D9
:1021E000A400174A04F11C032C3413442021224478
:1021F00003F8011F9342FBD1012070BD0A21104E4C
:10220000104A4C2303FB0463284683F83C102B68D8
:10221000D3F8C43093420ED1FFF7C0FF4C2303FB29
:102220000463214683F830002B682846D3F8D43065
:102230009847002070BD9847F0E70821DFE700BF0E
:10224000E09DFF1F9D21000030B590F8473085B01C
:102250000D461446A3B190F842104131C9B2104660
:102260001BF048FB0A22294668461BF08BFA694698
:1022700020461BF02DFB68461BF0FEF905B030BD73
:1022800041311046C9B21BF035FB204602491BF014
:1022900023FB05B030BD00BF2C5A020010B584B03E
:1022A0000A220C46014668461BF06CFA6946204635
:1022B0001BF00EFB68461BF0DFF904B010BD00BF39
:1022C000542905D8012A18460CD008491BF004BB34
:1022D0005C2903D9184606491BF0FEBA1946104678
:1022E000FFF7DCBF03491BF0F7BA00BF485B0200F1
:1022F000906302005860020000EB800000EB800059
:1023000001F01F010844084B33F8100058B1074A88
:1023100032F81030012033B132F813300130C0B23E
:10232000002BF9D1704770478801002078E6FF1F25
:1023300030B590F847308DB0144613B30D460A22DD
:10234000B0F8421068461BF01DFA694608A81BF059
:10235000E7F90A22294604A81BF014FA04A908A8E0
:102360001BF0ECFA014620461BF0B2FA04A81BF061
:1023700083F908A81BF080F968461BF07DF90DB0C1
:1023800030BD0A2208A81BF0FDF908A904A81BF01B
:10239000C7F904A807491BF0D9FA014620461BF0EB
:1023A00097FA04A81BF068F908A81BF065F90DB0AE
:1023B00030BD00BF2C5A020070B590F847308CB089
:1023C0000E4615463BB30446214904A81BF094F978
:1023D000B4F842100A2268461BF0D4F9694604A8F2
:1023E0001BF0ACFA0A220446314608A81BF0CAF9D1
:1023F00008A920461BF0A2FA014628461BF068FAFD
:1024000008A81BF039F968461BF036F904A81BF040
:1024100033F90CB070BD04A80D491BF06DF90A2208
:10242000314608A81BF0AEF908A904A81BF086FAEB
:1024300008491BF08BFA014628461BF049FA08A808
:102440001BF01AF904A81BF017F90CB070BD00BFFF
:10245000145A02002C5A020030B5072989B01546DB
:1024600005D910460F491BF037FA09B030BD0C46AC
:1024700068460D491BF040F90A22611C04A81BF0B4
:1024800081F904A968461BF059FA014628461BF059
:102490001FFA04A81BF0F0F868461BF0EDF809B02D
:1024A00030BD00BF906302004C5B020030B50729CD
:1024B00089B0154605D910460F491BF00DFA09B031
:1024C00030BD0C4668460D491BF016F90A22611C06
:1024D00004A81BF057F904A968461BF02FFA01461F
:1024E00028461BF0F5F904A81BF0C6F868461BF057
:1024F000C3F809B030BD00BF90630200545B020016
:1025000030B54BB2002B89B0154618DD0C46684635
:102510000E491BF0F1F8214604A81BF01FF904A98D
:1025200068461BF00BFA014628461BF071F904A817
:102530001BF0A2F868461BF09FF809B030BD1046AA
:1025400003491BF075F909B030BD00BF585B0200AC
:10255000D459020030B590F847308DB014462BB3F3
:102560000D460A22B0F8421068461BF00BF9694686
:1025700008A81BF0D5F80A22294604A81BF002F986
:1025800004A908A81BF0DAF914491BF0DFF9014689
:1025900020461BF09DF904A81BF06EF808A81BF05C
:1025A0006BF868461BF068F80DB030BD0A2208A829
:1025B0001BF0E8F808A904A81BF0B2F804A8084921
:1025C0001BF0C4F9014620461BF082F904A81BF059
:1025D00053F808A81BF050F80DB030BD2C5A02007B
:1025E0005C5B020070B515468CB0002948D0082904
:1025F0000C462CD9A1F10904684624491BF07CF84B
:102600000A22E11004A81BF0BDF804A968461BF0DB
:1026100095F91F491BF09AF904F007010A220646B2
:10262000013108A81BF0AEF808A930461BF086F966
:10263000014628461BF04CF908A81BF01DF804A819
:102640001BF01AF868461BF017F80CB070BD08A80C
:1026500010491BF051F80A22214604A81BF092F8F9
:1026600004A908A81BF06AF9014628461BF030F9B6
:1026700004A81BF001F808A81AF0FEFF0CB070BD0A
:10268000104605491BF028F90CB070BD3C5A0200F9
:10269000246202004C5A0200605B020030B54B1EFF
:1026A000072B89B00C46154629D909293FD00A299C
:1026B00042D00B2945D00C2948D0A1F10D03722B33
:1026C00005D9104624491BF0B3F809B030BD68465F
:1026D00022491BF011F8214604A81BF03FF804A979
:1026E00068461BF02BF9014628461BF091F804A818
:1026F0001AF0C2FF68461AF0BFFF09B030BD04A847
:1027000017491AF0F9FF214668461BF027F8694679
:1027100004A81BF013F9014628461BF079F8684617
:102720001AF0AAFF04A81AF0A7FF09B030BD10469E
:102730000C491BF07DF8C8E710460B491BF078F8F0
:10274000C3E7104609491BF073F8BEE71046084975
:102750001BF06EF8B9E700BFD4590200585B0200C5
:10276000645B0200705B02007C5B02008C5B020019
:10277000985B020030B589B005460C4604A80D49A7
:102780001AF0BAFF0A22691C68461AF0FBFF694674
:1027900004A81BF0D3F808491BF0D8F801462046DE
:1027A0001BF036F868461AF067FF04A81AF064FFB9
:1027B00009B030BDA85B0200AC5B02002DE9F0411E
:1027C000204F4C2404FB00748846617A0629164683
:1027D00020D0FF2918D049B11B4B618E53F8280037
:1027E0000368BDE8F041D3F8803018471749104618
:1027F0001BF072F8144B618E53F8280003683246C0
:10280000DB6FBDE8F041184710461149BDE8F041C3
:102810001BF062B8E37A05467BB910461BF06AF8F4
:10282000094B53F828004C2202FB05750368698E9A
:10283000DB6F3246BDE8F0411847052110461BF01A
:1028400059F8EDE7E09DFF1FDC89FF1FB05B020038
:10285000B45B020070B51F4C4C2303FB00440E46D2
:10286000637A012B154623D010D3FF2B05D11046D8
:102870001949BDE870401BF02FB8184B618E53F812
:1028800026000368BDE87040DB6F18471449104606
:102890001BF022F8114B618E53F8260003682A467C
:1028A000DB6F984728460F49BDE870401BF014B80D
:1028B0000D4910461BF010F8084B618E53F82600A6
:1028C00003682A46DB6F984728460849BDE87040F0
:1028D0001BF002B8E09DFF1FFC590200DC89FF1FBE
:1028E000B05B0200C45B0200BC5B0200C05B020084
:1028F000F0B54C23584E03FB00F389B0F218144690
:1029000007460D46684602F11D011AF0F5FE6846BD
:102910001BF0B4F8617A052921D804292CD20229A8
:102920005AD003291FD1694628461AF071FF4B4936
:1029300028461AF0D1FFE17904A81AF00FFF04A984
:1029400028461AF0C5FF04A81AF096FE2846444906
:102950001AF0C2FF68461AF08FFE09B0F0BD0629D2
:1029600056D0FF29F6D0694628461AF051FF68462E
:102970001AF082FE09B0F0BD694628461AF048FFF9
:10298000364928461AF0A8FF94F842100A2201316D
:1029900004A81AF0F7FE04A928461AF099FF04A823
:1029A0001AF06AFE2F2128461AF0A4FF0A22B4F872
:1029B000401004A81AF0E6FE04A928461AF088FF81
:1029C00004A81AF059FE292128461AF093FF6846F8
:1029D0001AF052FE09B0F0BD694628461AF018FFF9
:1029E0001E4928461AF078FFE17904A81AF0B6FECD
:1029F00004A928461AF06CFF04A81AF03DFE1949F4
:102A000028461AF069FF68461AF036FE09B0F0BD94
:102A1000E37ACBB1052128461AF06CFF124928460B
:102A20001AF05AFF694628461AF052FF0E49284606
:102A30001AF052FF4C2303FB07662846F37A3BB19A
:102A400005211AF057FF85E728461AF053FFE5E7FE
:102A500006211AF04FFF7DE7E09DFF1F386202005C
:102A6000CC5B0200C85B0200B46102002DE9F041BA
:102A7000274B222401EB011614FB00661E4402F1D1
:102A8000100C15464FF00008FF24AB1A16F801EFA2
:102A900015F8017BBE45DBB204D0FF2C08BF1C46F5
:102AA000377098466545F0D1FF2C2DD015460A4663
:102AB000C8B10138C0B2174EC0EBC00006EB8006AB
:102AC000304621461AF04EF8444509D837463B684F
:102AD000295D1B6801343046E4B298474445F6D975
:102AE0000120BDE8F08121460B481AF03BF844452F
:102AF000F6D8295D08480134E4B219F09FFF444537
:102B0000F7D90120BDE8F0810020BDE8F08100BFC9
:102B10007735002028FFFF1F7CFEFF1F38B5084DCA
:102B20002B5C5BB9C0EBC0039B0004460548C25850
:102B3000012118449369984701232B5538BD00BFE4
:102B400040E5FF1F28FFFF1F10B4094B094A196811
:102B50000948137883B083F001030191019C074970
:102B6000046001201370087003B010BC704700BFF0
:102B70003C3A0020148AFF1F28E5FF1FD889FF1F59
:102B800010B5037A0022022B0446027582B0007849
:102B900027D01BF037FC08B90123237560781BF0A0
:102BA00031FC70B11649237D0968627D019101995C
:102BB000A1619A4220D093B90120A275637502B039
:102BC00010BD94F82030002BECD10D4B627D1B68BA
:102BD0000193019BA36102239A4223750CD000222A
:102BE000EAE71BF00FFC012808BF207560781BF096
:102BF00009FC0128D6D1E8E7002002B010BD00BFD3
:102C00003C3A002030B4016D084D446D82B02B6811
:102C10000193019B054A1B1B8B42F8D91368009353
:102C2000009B436502B030BC704700BF3C3A0020B7
:102C300010B51B4CE3780A2B00D910BD194AE17975
:102C400052F823000368D3F89C30984708B1013844
:102C5000C0B2637A032B1ED8DFE803F01919130200
:102C600002B2114B11496074520083FB02E3A1FBD5
:102C70000010A3EBE27340080022E3736073E2727A
:102C800010BD42080023E0736273E37210BD00239D
:102C9000E072637310BD00236073E372CDE700BF81
:102CA0006C8BFF1FDC89FF1F56555555ABAAAAAA8E
:102CB00010B4084A0848137808490F2B9CBF013309
:102CC0001370074A00230124137004700B7010BCAA
:102CD000704700BF17AAFF1F2D3900207900002080
:102CE000BDE0FF1F074A10B402F12B048179C379BC
:102CF00003EBC11302F8013F944200F10200F5D149
:102D000010BC704767E5FF1F30B490F848409DF84D
:102D100008501CB190F82140AC4201D030BC704743
:102D200090F820409C42F9D1A1B10C4B8F3003F2B6
:102D30003B15502405E0AB4200F10100EED013F842
:102D4000154CA14203F11503F5D1141C18BF012441
:102D50000470F0E780F84620E0E700BF268202001A
:102D6000044B82B01B680193019B03F5FA738366E1
:102D700002B070473C3A002038B5134D2B6804462A
:102D8000D3B100210D4618464FF407721EF06CFFB8
:102D9000204684F8935084F89450FFF7E1FF0B4AE3
:102DA000236815709B6C20469847094A022101232D
:102DB000117084F8663038BD4FF407701EF012FCB5
:102DC00028600346DDE700BF84010020158AFF1F4D
:102DD0008DDDFF1F0A7ACB7970B412044E7A8C7A9B
:102DE0000B4D02EB036202EB06232344AB420AD0F5
:102DF000084A934205D1CB7A80F89030002380F8BE
:102E00004D3070BC7047CB7A80F88F3070BC704703
:102E1000003000600038006010B41A23464A90F871
:102E20008F4003FB01F153181B7EA34227D8535A4E
:102E300003F47042B2F5104F54D023D8B2F5E04FEE
:102E400039D0B2F5004F68D190F865213B4802EBCC
:102E500042025200841803F00F01237999420EDADE
:102E6000835AC818020604D547F67F73034003F55A
:102E70008070B0F5127F4ED000F1C04000E000201D
:102E800010BC7047B2F5204F19D0B2F5304F44D185
:102E900090F869012A4A02EB800203F00F0193784F
:102EA0009942ECDA00283CD001283FD00228E6D134
:102EB00024480844E4E7C3F30B0010BC704790F8C3
:102EC000682142B1022C06D9012AD8D11E4803F04C
:102ED0000F031844D4E703F00F0000F1C04000F2E4
:102EE0003110CDE790F86721144902EB420201EB63
:102EF000420203F07F0013799842C0DA53881844E5
:102F0000030604D547F67F73034003F5807040F253
:102F100054439842B0D10D48B2E703F1C04010BC11
:102F2000704701F1C04000F22660A9E701F1C040FE
:102F300000F22260A4E700BFB4A60200FCE5020094
:102F4000A8A60200121100600511006018070060B9
:102F50000A7ACB7970B412044E7A8C7A134D02EB54
:102F6000036202EB06232344AB420FD0104A934284
:102F700007D0104A93420ED1CB7A80F8923070BCC1
:102F80007047CB7A80F8913070BC7047CB7A80F86C
:102F9000903070BC7047084A9342F0D1CB7A80F8E9
:102FA0009330002380F84D3070BC70470320001828
:102FB000032100180A100018320200184A7A0B7A0E
:102FC00070B412048E7ACC7A0B4D02EB036202EBE2
:102FD00006232344AB420AD0084A934205D10B7B17
:102FE00080F89030002380F84D3070BC70470B7B28
:102FF00080F88F3070BC704700100020040800205B
:103000001A2303FB01F1194B5B5A03F47042B2F52A
:10301000104F22D018D9B2F5204F07D0B2F5304F5B
:1030200018D190F86921DAB9022105E090F86821F9
:10303000012A14BF072129210D4A32F8110003F09B
:103040000F03184480B27047B2F5004F02D190F8D8
:103050006511F1E74FF6FF70704790F86711EBE7E5
:10306000012A14BF25212821E6E700BFB4A60200EB
:1030700014DDFF1F882920D82DE9F0411A26224FA0
:1030800090F88F8006FB01F57A19127E424511D81F
:103090000C46FFF7B5FF4FF6FF7398420FD0B0F51F
:1030A000877F07D2194BC0EBC00003EB400040788C
:1030B000BDE8F0810020BDE8F081002070477B5B17
:1030C000512B12D0182C07D0472C05D01A2303FB04
:1030D00004739878BDE8F081B8F1010F0BD9B8F10D
:1030E000020F0BD12520BDE8F081B8F1020FE9D91C
:1030F0003046BDE8F0812420BDE8F081B8F1030F2F
:10310000E4D12720BDE8F081B4A60200DCC20200B1
:103110008829F8B50C461746064614D9164A96F87B
:103120008F301A2101FB04210A7E9A4205D83846C5
:103130000331BDE8F8401AF0CFBB38460F49BDE86F
:10314000F8401AF0C9BBFFF75BFF4FF6FF739842D8
:103150000546E3D0E1B23046FFF75EFE0028ECD032
:103160000749C5EBC50501EB450138460231BDE80D
:10317000F8401AF0B1BB00BFB4A60200FC5902002F
:10318000DCC202000E4A4379127801339A4201D020
:103190000020704790F89030FF2B08D0094A4C204F
:1031A00000FB01214A8ED108B1EB530F01D0012061
:1031B0007047B3EB920F0CBF01200020704700BF97
:1031C000A8E0FF1FE09DFF1F144A437912780133E6
:1031D0009A4201D00020704790F89920FF2A1BD016
:1031E00030B40F4C0F4B10484C2505FB0141A0FBA0
:1031F0000254498EA3FB01535B08B3EB540F02D07A
:10320000012030BC7047A0FB0131B2EB510F0CBF65
:103210000120002030BC704701207047A8E0FF1F4C
:10322000E09DFF1F398EE338ABAAAAAAF0B590F84B
:1032300047300F4691B005461646B0F84210002BB5
:1032400039D02E4CA4FB01310A22C90808A81AF073
:1032500099FA08A90CA81AF063FAB5F84210A4FB71
:103260000134E40804EB8404A1EB44010A2289B28E
:1032700004A81AF087FA04A90CA81AF05FFB0A2226
:103280000446394668461AF07DFA694620461AF027
:1032900055FB014630461AF01BFB68461AF0ECF964
:1032A00004A81AF0E9F90CA81AF0E6F908A81AF02F
:1032B000E3F911B0F0BD0A2204A81AF063FA04A9D8
:1032C0000CA81AF02DFA0A22394608A81AF05AFA60
:1032D00008A90CA81AF032FB09491AF037FB01467D
:1032E00030461AF0F5FA08A81AF0C6F90CA81AF038
:1032F000C3F904A81AF0C0F911B0F0BDCDCCCCCC04
:103300002C5A020070B590F847308CB00E46154626
:1033100053B30446224908A81AF0EEF9B4F8421053
:103320000A2204A81AF02EFA04A908A81AF006FB2B
:103330000A220446314668461AF024FA69462046B5
:103340001AF0FCFA17491AF001FB014628461AF058
:10335000BFFA68461AF090F904A81AF08DF908A887
:103360001AF08AF90CB070BD08A80D491AF0C4F91A
:103370000A22314604A81AF005FA04A908A81AF08E
:10338000DDFA09491AF0E2FA014628461AF0A0FAD5
:1033900004A81AF071F908A81AF06EF90CB070BD03
:1033A000185A0200345A0200305A02005C2920D810
:1033B000542938B513D915460C46811D10461AF00C
:1033C0008BFA202128461AF095FA0A4B04EBC40127
:1033D000284603EB4101BDE838401AF07DBA054BA1
:1033E00001EBC10103EB41011046BDE838401AF082
:1033F00073BA7047DC3C020090F8653003B970473F
:1034000030B50D46044685B02D2128461AF072FAD3
:1034100094F8651068461AF0A1F9694628461AF032
:1034200057FA68461AF028F905B030BD38B590F85B
:1034300048501DB190F821509D4200D038BD90F801
:1034400020309342FAD1838C89B28B42F6D090F827
:103450004620036801EBC2119B6C81849847024BA4
:1034600002221A70EAE700BF8DDDFF1F38B590F821
:1034700021509D4200D038BD90F820309342FAD1BF
:10348000838C89B28B42F6D0036881849B6C984709
:10349000014B02221A70EEE78DDDFF1F90F86630B7
:1034A00093B10133DBB2032B88BF012380F8663070
:1034B000036810B5D3F8E8300C469847034A044B2C
:1034C000147001221A7010BD704700BFBBE0FF1FCF
:1034D0008DDDFF1F90F847305BB1B0F84220838F3D
:1034E00003EBC200084480B200B97047013880B2D3
:1034F0007047B0F84230808F03EB830301EB430148
:1035000000EBC10188B2704790F847306BB1B0F85A
:10351000423023B908298CBF002001207047481E83
:1035200007288CBF002001207047B0F84230C28FBE
:1035300010B4848F03EB830301EB4300131BB3EB45
:10354000C00FACBF0120002010BC704710B590F830
:1035500021409C4200D010BD90F820309342FAD117
:10356000042914D0032996BF013189B2C9B2838CD2
:103570008B42F0D00368818404461B6D9847236812
:1035800020469B6C9847034B02221A70E3E7002108
:10359000EDE700BF8DDDFF1F30B490F8913043B3ED
:1035A00090F847302BB1B0F84230A3B999B908462A
:1035B0000FE0B0F84250C38F848F4FF4FA7202FBD1
:1035C00005F0322212FB01011B1B9942CCBF0020E7
:1035D000012030BC7047C28F808F322401EB810103
:1035E000101A04FB03118142CCBF0020012030BC23
:1035F0007047012030BC704703790022022B80F80D
:10360000492000D0704790F84830002BFAD10123B0
:1036100080F8211080F88F30704700BF38B590F8DF
:1036200021509D4200D038BD90F820309342FAD10D
:10363000838C89B28B42F6D0036881849B6C984757
:10364000014B02221A70EEE78DDDFF1F90F8473024
:1036500083B1B0F8423003B9B9B1C28F808F03EBA8
:10366000830301EB4301131AB3EB810FACBF0120BD
:1036700000207047C38F828F01EB81019B1AB3EB4F
:10368000C10FACBF0120002070470846704700BF43
:1036900090F8942002B9704703685B6F184700BF29
:1036A0000379022B01D008467047002370B41A46F4
:1036B00000F18F0403E00132D2B25D2B0AD014F87E
:1036C000015FDEB20133002DF7D09142F3D1B0B2E9
:1036D00070BC70474FF6FF7070BC704790F8473071
:1036E00083B1B0F8423090F8260003EB830301EB7E
:1036F000430189B281422CBFC0EB0100C0EB000046
:1037000080B27047B0F8420001EB810100EB80000D
:10371000490000EB800001EB800080B2704700BFE1
:1037200090F847306BB9B0F84220C08F642303FB98
:1037300002F20A2313FB01218142CCBF00200120A9
:1037400070470120704700BF30B490F821509D426F
:1037500001D030BC704790F820309342F9D1838C6F
:1037600089B28B42F5D0036881849B6C30BC1847CA
:10377000A1F10B03032B0DD90368084AD3F8983045
:10378000934210B50C4607D11220844234BF022068
:10379000002010BD802070479847F6E7050800001C
:1037A00030B503680F4DD3F89830AB4283B00C4668
:1037B00014D15D20A04206D80B49104603B0BDE8E5
:1037C00030401AF035B8094904EBC404104601EB47
:1037D000440103B0BDE830401AF02AB8019298477E
:1037E000019AE7E75106000090630200DC3C02000A
:1037F00030B503680F4DD3F89830AB4283B00C4618
:1038000013D12F20A04206D80B49104603B0BDE8C3
:1038100030401AF00DB8094901EB44111046093146
:1038200003B0BDE830401AF003B801929847019AFE
:10383000E8E700BF8106000090630200CC7B020035
:10384000F0B504683A4ED4F89840B4428BB01746AD
:103850001D462DD12F20884224D9364800EB411136
:10386000498B0BB2002B4BDD47F61643994223D010
:1038700047F6174399424CD047F61543994221D059
:10388000CA19013A2C4902EBC202114406A819F0E8
:1038900033FF06A928461AF01BF806A819F0ECFE1B
:1038A0000BB0F0BD284625491AF016F80BB0F0BD54
:1038B0000191A0470199CEE7790006A80A2219F0E4
:1038C00061FFE6E73F2F26D9402F2BD0EED91C49C8
:1038D00006A819F011FFA7F132010A2202A819F077
:1038E00051FF02A906A81AF029F80146284619F046
:1038F000EFFF02A819F0C0FE06A819F0BDFED5E73B
:10390000012F28460CBF0F490F4919F0E5FF0BB0F6
:10391000F0BD3946D1E70D4906A819F0EDFEC7F113
:103920003201DAE728460A4919F0D6FFBEE700BFA0
:1039300081060000CC7B02008843020090630200F5
:10394000EC61020058600200485B0200485A020025
:10395000D05B020030B503680F4DD3F89830AB420E
:1039600083B00C4613D12E20A04206D80B49104636
:1039700003B0BDE8304019F05BBF094901EB4411C9
:103980001046093103B0BDE8304019F051BF019233
:103990009847019AE8E700BFF9060000906302002B
:1039A00010E80200F0B50468384ED4F89840B442EC
:1039B0008BB017461D4626D12E2088421DD934488B
:1039C00000EB4111498B0BB2002B49DD47F6154343
:1039D00099421CD03AD347F61743994236D8394614
:1039E00006A80A2219F0CEFE06A9284619F070FF93
:1039F00006A819F041FE0BB0F0BD2846254919F084
:103A00006BFF0BB0F0BD0191A0470199D5E73F2FA7
:103A10002FD9402F34D0F4D91F4906A819F06CFED5
:103A2000A7F132010A2202A819F0ACFE02A906A8E9
:103A300019F084FF0146284619F04AFF02A819F040
:103A40001BFE06A819F018FE0BB0F0BDCA19013A0A
:103A5000124902EBC202114406A819F04DFEC3E759
:103A6000012F28460CBF0E490E4919F035FF0BB047
:103A7000F0BD0D4906A819F03FFEC7F13201D1E7AC
:103A800028460A4919F028FFBBE700BFF9060000E5
:103A900010E8020090630200EC6102007817030056
:103AA00058600200485B0200485A0200D05B0200E6
:103AB00030B50368104DD3F89830AB4283B00C4654
:103AC00015D11020A04206D80C49104603B0BDE81D
:103AD000304019F0ADBE04EBC403094904EB4304C4
:103AE0001046214403B0BDE8304019F0A1BE019258
:103AF0009847019AE6E700BF1909000090630200A9
:103B0000DCEF020030B504680E4DD4F89840AC42AA
:103B100085B010D11020884206D80B49184605B050
:103B2000BDE8304019F0D8BE1946104605B0BDE8D2
:103B30003040FEF7B3BB039302920191A04701A965
:103B40000EC9E8E719090000D45B020030B503682C
:103B50000F4DD3F89830AB4283B00C4613D11220EE
:103B6000A04206D80B49104603B0BDE8304019F01A
:103B70005FBE094B1621104601FB043103B0BDE8BE
:103B8000304019F055BE01929847019AE8E700BF0E
:103B90000508000090630200EC15030030B50468CE
:103BA0000E4DD4F89840AC4285B010D11220884216
:103BB00006D80B49184605B0BDE8304019F08CBE58
:103BC0001946104605B0BDE83040FEF767BB0393C9
:103BD00002920191A04701A90EC9E8E7050800007B
:103BE000D45B0200F8B50368384CD3F89830A34290
:103BF00006460D46174639D18920A84230D9882D6E
:103C000036D829463046FFF7FBF94FF6FF73984246
:103C100004462DD01A2101FB05F52D4B5B5B03F407
:103C20007043B3F5104F45D033D9B3F5204F29D0A9
:103C3000B3F5304F45D196F86931002B43D0012BB5
:103C40000CBF28222522C4EBC404640021490B5D6B
:103C5000934228D038462049BDE8F84019F03CBED0
:103C600038461E49BDE8F84019F0E2BD9847C4E760
:103C700017491A2303FB051138460331BDE8F84004
:103C800019F0D6BD96F86831012B0CBF2922072206
:103C9000D9E7B3F5004F14D11149384619F0C8FDE2
:103CA00096F86521CFE7214438460231BDE8F84057
:103CB00019F012BE0B49384619F0BAFD96F8672183
:103CC000C1E70022BFE70222BDE700BFAD08000048
:103CD000B4A60200DCC20200FC590200906302009C
:103CE000D85B0200505A02002DE9F0410468DFF869
:103CF000A4E2D4F89880F04588B007460C461546F3
:103D00001E4629D18920A0421FD9882C26D83846A2
:103D10002146FFF775F94FF6FF7398421ED08C4B82
:103D2000C0EBC00003EB4000828913B2002B1DDD05
:103D3000A2F5F8430E3B092B00F2E080DFE803F028
:103D40009795BAB56A55462620463046814919F0FE
:103D5000C3FD08B0BDE8F081C047D4E77E4B1A220E
:103D600002FB0434A28A13B2002BE1DC012D3046A1
:103D70000CBF7A497A4919F0AFFD08B0BDE8F0816F
:103D8000322D00F2CC80A5F1320120E03F2D40F22F
:103D9000BF80402D00F0D780DBD9724904A819F00C
:103DA000ABFCA5F132010A22684619F0EBFC69462A
:103DB00004A819F0C3FD0146304619F089FD684694
:103DC00019F05AFC04A819F057FCC2E7294604A8C8
:103DD0000A2219F0D7FC04A9304619F079FD04A88D
:103DE00019F04AFC08B0BDE8F081142D00F2A6805D
:103DF0000A22A5F1140104A819F0C4FC04A9304654
:103E000019F066FD04A819F037FC3046564919F040
:103E100063FD9EE70135554CADB2A4FB0534E408C3
:103E20000A22214604A819F0ADFC04A9304619F075
:103E30004FFD04A819F020FC04EB84044C493046E3
:103E400019F04AFDA5EB44010A2289B204A819F031
:103E500099FC04A9304619F03BFD04A819F00CFCAC
:103E60003046444919F038FD73E7691CAFE7182D57
:103E70005FD8A5F1180101EBD1710A22491004A8FD
:103E800019F080FC04A9304619F022FD04A819F0AD
:103E9000F3FBEB0754BF38493849304619F01CFD95
:103EA0003046314919F018FD53E7182D3CD8A5F1DB
:103EB00018018CE70A22690804A819F063FC04A918
:103EC000304619F005FD04A819F0D6FB05F00105F0
:103ED0002749304619F000FDA9000A22294404A808
:103EE00019F050FC04A9304619F0F2FC04A819F0AE
:103EF000C3FB3046224919F0EFFC2AE72A44013A75
:103F0000204902EBC202114404A819F0F5FB62E754
:103F10001D4904A819F0F0FBC5F1320143E71B4924
:103F2000304619F0D9FC2EE71849304619F0D4FC78
:103F3000BDE71649304619F0CFFC9AE713493046E1
:103F400019F0CAFC54E73046114919F0C5FC00E7E6
:103F5000DCC2020090630200B4A6020058600200B6
:103F6000485B0200EC610200E45B0200CDCCCCCCEB
:103F700024620200F05B0200E85B0200EC5B0200DE
:103F8000F45B0200A0D10200485A0200E05B02008C
:103F9000D05B0200AD08000030B50368104DD3F8C7
:103FA0009830AB4283B00C4615D11020A04206D801
:103FB0000C49104603B0BDE8304019F039BC04EBA1
:103FC00044030949C4EBC3041046214403B0BDE8CF
:103FD000304019F02DBC01929847019AE6E700BFE6
:103FE000190900009063020038DC0200F8B5A1F165
:103FF0000E05012D1DD91D4603681746D3F89830CC
:10400000104A93420C461AD110208442284606D208
:10401000012F09D00C49BDE8F84019F05DBC0B49EF
:10402000BDE8F84019F058BC0949BDE8F84019F05E
:1040300053BC19461046BDE8F840FEF72FB9984723
:10404000E3E700BF19090000F85B0200D45B02003F
:104050005860020010B50368104CD3F89830A342A2
:1040600082B015D10F20884206D80D49104602B003
:10407000BDE8104019F0DCBB0A4B01EB4101C1EB7C
:10408000C1011046194402B0BDE8104019F0D0BB80
:104090008DE8060098479DE80600E4E79D090000CA
:1040A000906302000082020030B504680E4DD4F81F
:1040B0009840AC4285B010D10F20884206D80B49F9
:1040C000184605B0BDE8304019F006BC1946104648
:1040D00005B0BDE83040FEF7E1B8039302920191CC
:1040E000A04701A90EC9E8E79D090000D45B0200C2
:1040F00030B50368104DD3F89830AB4283B00C460E
:1041000015D1B020A04206D80C49104603B0BDE836
:10411000304019F08DBB0A4904EB440401EBC401A3
:104120001046033103B0BDE8304019F081BB019265
:104130009847019AE6E700BF050A00009063020075
:10414000E01D0300F0B504683A4FD4F89840BC4233
:104150008BB016461D462ED1B020884225D9364850
:1041600001EB410100EBC101898A0BB2002B4ADD52
:1041700047F61643994222D047F6174399424BD04F
:1041800047F61543994220D031442C4B013903EBBB
:10419000C10106A819F0B0FA06A9284619F098FB43
:1041A00006A819F069FA0BB0F0BD2846244919F0A9
:1041B00093FB0BB0F0BD0191A0470199CDE77100D1
:1041C00006A80A2219F0DEFAE6E7312E26D9322EA9
:1041D0002BD0EED91B4906A819F08EFAA6F13201B0
:1041E0000A2202A819F0CEFA02A906A819F0A6FB25
:1041F0000146284619F06CFB02A819F03DFA06A802
:1042000019F03AFAD5E7012E28460CBF0E490F499E
:1042100019F062FB0BB0F0BD3146D1E70C4906A89E
:1042200019F06AFAC6F13201DAE72846094919F0AD
:1042300053FBBEE7050A0000E01D0300780C0300F5
:1042400090630200EC61020058600200485B0200CB
:10425000485A0200D05B020030B503680D4DD3F818
:104260009830AB4283B00C4610D10620A04206D84D
:104270000949104603B0BDE8304019F0D9BA1146DB
:10428000204603B0BDE83040FEF774BA019298476B
:10429000019AEBE7C90A00009063020003680B4A29
:1042A000D3F89830934205D1062088428CBF022073
:1042B0000020704700B583B001919847019988426A
:1042C0008CBF0220002003B05DF804FBC90A000087
:1042D00030B504680F4DD4F89840AC4285B012D187
:1042E00006208842184608D9012A0CBF0A490B4902
:1042F00005B0BDE8304019F0EFBA094905B0BDE896
:10430000304019F0E9BA039302920191A04701A944
:104310000EC9E6E7C90A000058600200485B0200C7
:104320009063020030B503680D4DD3F89830AB426E
:1043300083B00C4610D10620A04206D80949104689
:1043400003B0BDE8304019F073BA1146204603B0FF
:10435000BDE83040FEF70EBA01929847019AEBE7AC
:10436000C90A00009063020003680B4AD3F8983032
:10437000934205D1062088428CBF0220002070475E
:1043800000B583B001919847019988428CBF022003
:10439000002003B05DF804FBC90A000030B50468D2
:1043A0000F4DD4F89840AC4285B012D10620884217
:1043B000184608D9012A0CBF0A490B4905B0BDE8C7
:1043C000304019F089BA094905B0BDE8304019F00C
:1043D00083BA039302920191A04701A90EC9E6E7AF
:1043E000C90A000058600200485B020090630200A6
:1043F000A1F10E02012A01D8802070470368074A04
:10440000D3F89830934210B50C4605D11020844261
:1044100034BF0220002010BD9847F8E719090000BA
:1044200010B5838C8B4282B0044609D009480A4AF1
:10443000A1840123037084F82F31137002B010BDE2
:104440000368064A5B6F9342F0D001919847019947
:10445000ECE700BFD889FF1F2D3900209909000023
:1044600010B5838C8B4282B0044609D009480A4AB1
:10447000A1840123037084F89C30137002B010BD36
:104480000368064A5B6F9342F0D001919847019907
:10449000ECE700BFD889FF1F2D39002099090000E3
:1044A00008B5074A074B1178022000221A6019F05C
:1044B00005FD054B03201978BDE8084019F0FEBC46
:1044C000CD89FF1F3CAAFF1F968AFF1F00B5074A30
:1044D000074B12681B6883B00192019A934202D283
:1044E0000BB1FFF7DDFF03B05DF804FB3C3A0020A1
:1044F0003CAAFF1F38B50C46054619F0C5FC84429E
:1045000005D021462846BDE8384019F0D7BC38BD53
:1045100070B584B00C46064619F0B0FA057AA5428B
:104520000DD2013C651BEDB2013500240134202180
:10453000304619F0DFF9AC42F8D104B070BD234623
:1045400000226846314619F06DFA6946304619F086
:1045500067F9684619F090F804B070BD2DE9F04194
:10456000057A102D28BF102585B16F1EFFB20D4EA4
:104570008046013700242146404619F02FFA0134C5
:10458000BC4206F8010FF6D1102D08D006492022B2
:104590006B1C4A55DDB2102DFAD1BDE8F081BDE8A3
:1045A000F08100BF3B3900203C3900202DE9F0416B
:1045B000057A102D28BF102585B16F1EFFB20D4E54
:1045C0008046013700242146404619F007FA01349D
:1045D000BC4206F8010FF6D1102D08D00649202262
:1045E0006B1C4A55DDB2102DFAD1BDE8F081BDE853
:1045F000F08100BFB7E5FF1FB8E5FF1F30B590425F
:1046000085B005461C462ED0884214D01846224953
:1046100019F062F92946684619F0A0F86946204663
:1046200019F056F9684619F027F820461B4919F089
:1046300053F905B030BD1846194919F04DF916491E
:10464000204619F049F92946684619F087F8694665
:10465000204619F03DF9684619F00EF81149204638
:1046600019F03AF9E1E718460F4919F035F90A4906
:10467000204619F031F92946684619F06FF8694665
:10468000204619F025F9684618F0F6FF074920463C
:1046900019F022F9C9E700BF005C0200B461020012
:1046A000B05B0200C45B0200BC5B0200C05B0200A6
:1046B0002DE9F0470D7A102D28BF102580465DB3F7
:1046C00000EBC006DFF8589000EB460605F1FF3A14
:1046D00009EB86065FFA8AFA0F460B360AF1010AE1
:1046E00000242146384619F06BF90134037806F8A6
:1046F000013F5445F5D1102D0CD04C2303FB0898F5
:10470000202208EB05030135EDB2102D1A73F8D104
:10471000BDE8F087BDE8F087DFF80490EDE700BF63
:10472000E09DFF1FF8B5064608460C461DF0C8FE82
:10473000C0B2102828BF1020F8B106EBC603104FF6
:1047400006EB430307EB8303451E0B3354FA85F551
:10475000611E11F8012F03F8012FA942F9D1102889
:104760000AD04C2303FB0676202233180130C0B256
:1047700010281A73F9D1F8BDF8BD014FF1E700BF59
:10478000E09DFF1FF0B5134B134E144D07468E46A8
:104790000FCB8DB06C4607C4237096E80F0004ACB5
:1047A00007C4237095E80F0008AC07C497F866208B
:1047B000237042B1012A0CBF04A908A97046FFF773
:1047C000B1FF0DB0F0BD69467046FFF7ABFF0DB00D
:1047D000F0BD00BF045C0200145C0200245C020017
:1047E0002DE9F047DFF87C80DFF87CC0DFF87CE063
:1047F0001B4D82468946B8E80F0094B06F460FC73C
:10480000BCE80F0005AE0FC6BEE80F000AAC0FC42F
:10481000D8F80010DCF80020DEF800302370397082
:1048200032700FCD0FAC0FC49AF866302A68227030
:10483000012B0BD0022B0ED0032B0CBF0FA9694606
:104840004846FFF76FFF14B0BDE8F08705A948465A
:10485000FFF768FFF7E70AA94846FFF763FFF2E7AB
:10486000345C0200485C02005C5C0200705C020088
:104870002DE9F047DFF87C80DFF87CC0DFF87CE0D2
:104880001B4D82468946B8E80F0094B06F460FC7AB
:10489000BCE80F0005AE0FC6BEE80F000AAC0FC49F
:1048A000D8F80010DCF80020DEF8003023703970F2
:1048B00032700FCD0FAC0FC49AF866302A682270A0
:1048C000012B0AD0022B0DD08CBF0FA96946484698
:1048D000FFF728FF14B0BDE8F08705A94846FFF7A9
:1048E00021FFF7E70AA94846FFF71CFFF2E700BFE0
:1048F000845C0200985C0200AC5C0200C05C0200B8
:104900002DE9F0470D7A102D28BF102580465DB3A4
:1049100000EBC006DFF8589000EB460605F1FF3AC1
:1049200009EB86065FFA8AFA0F461C360AF1010A7D
:1049300000242146384619F043F80134037806F87C
:10494000013F5445F5D1102D0CD04C2303FB0898A2
:10495000202208EB05030135EDB2102D5A77F8D16E
:10496000BDE8F087BDE8F087DFF80490EDE700BF11
:10497000E09DFF1F70B5054684B00E4622B3164970
:104980004C2303FB06135432D4B25C8668460021E4
:1049900018F0B2FEA91D684618F04AFF68462021AB
:1049A00018F0A8FF0D4904EBC40401EB440168466C
:1049B00018F092FF69463046FFF7A2FF684618F0EC
:1049C0005BFE012004B070BD90F86620002AD6D1AD
:1049D000012004B070BD00BFE09DFF1FDC3C020061
:1049E00070B588B006460C4668461E49154618F054
:1049F00083FE1D494C2303FB04130222DA71F27F6C
:104A000083F82E20A5F10E02012A09D92046694615
:104A1000FFF776FF684618F02FFE012008B070BD42
:104A20000E2D1AD096F8652083F842204C2303FB04
:104A300004110A224B7A042B0CBF91F8421091F812
:104A4000441004A8013118F09DFE04A9684618F02E
:104A50003FFF04A818F010FED8E796F8642083F80A
:104A60004220E3E7785A0200E09DFF1F30B50C4872
:104A7000144602EB4203026885B0C3EB03130D46F4
:104A80006846D11818F038FE0B2C03D82846694622
:104A9000FFF736FF684618F0EFFD012005B030BD86
:104AA0008401002070B51546064684B035440C4696
:104AB0006846114918F020FE95F88F300F4AA3B1CF
:104AC0004C2303FB04230121D9714C2303FB042352
:104AD000F27F83F82E2020466946FFF711FF6846D3
:104AE00018F0CAFD012004B070BD4C2303FB042361
:104AF0000221D971E9E700BF785A0200E09DFF1F4B
:104B00002DE9F04391B0154607460E4668466F49B9
:104B100018F0F2FD0B2D52D8DFF8C081DFF8C891F4
:104B20006B48D9F800204C2303FB06830221D9717E
:104B3000BB8C03EB4303C3EB03131A442A44002347
:104B4000517D92F821E01C4606E00133712B00F103
:104B500013004BD010F8134CA142DAB2F5D110F883
:104B6000124C7445F1D1002A40D003EBC3025949DD
:104B700003EB42031944684618F0AEFEBB8C564A5C
:104B8000D9F8001003EB4303A2FB0502C3EB0313A8
:104B900052080B4402EB42001A44281A547C01309C
:104BA000C2B2944200F085802B445B7D023B072B10
:104BB00078D8DFE803F0705B69627777775B474905
:104BC000FA7F4C2303FB06133D4483F82E2095F80F
:104BD0008320E2B9DA7130466946FFF791FE6846F4
:104BE00018F04AFD012011B0BDE8F083BEF1000FBE
:104BF00002D097F848306BB93949684618F018FE6A
:104C00004C2303FB0688002388F82E30E3E70122BB
:104C1000DA71E0E704A818F0A1FD04A908A818F0CB
:104C20007FFD08A82F4918F091FEBB8CD9F8002011
:104C300003EB4303C3EB031313441D44044695F8ED
:104C400021100CA818F08AFD0CA9204618F076FE59
:104C50000146684618F03CFE0CA818F00DFD08A8A7
:104C600018F00AFD04A818F007FDC9E74C2303FB60
:104C70000688EA2388F82E30ADE74C2303FB06882C
:104C8000EC2388F82E30A6E74C2303FB0688E823A4
:104C900088F82E309FE74C2303FB0688E92388F829
:104CA0002E3098E74C2303FB0688ED2388F82E303E
:104CB00091E74C2303FB06830122DA71BB8C03EBE3
:104CC0004303C3EB03130B446EE700BF785A0200A3
:104CD000B3B40200A2B40200ABAAAAAAE09DFF1FCF
:104CE000FC590200D45C020084010020F8B506469D
:104CF00008460C461DF0E4FBC0B2102828BF102067
:104D0000F8B106EBC603104F06EB430307EB830332
:104D1000451E1C3354FA85F5611E11F8012F03F866
:104D2000012FA942F9D110280AD04C2303FB0676A3
:104D3000202233180130C0B210285A77F9D1F8BDBB
:104D4000F8BD014FF1E700BFE09DFF1F104A4C2363
:104D500003FB012393F83230013BD8B20A280FD964
:104D600001EBC10001EB4001890001F11C032C3172
:104D700013440A44202103F8011F9342FBD17047DA
:104D8000044A03EB03130846D118FFF7AFBF00BF77
:104D9000E09DFF1F942A020070B584B006460D46C0
:104DA00014466846724918F0A7FC0CB996F866409C
:104DB000013C052C00F28D80DFE804F0405254568F
:104DC000600396F867216B4B9B5C002B00F09E8084
:104DD00069486A4930F81240013C234468469CB255
:104DE00018F026FD96F86631002B00F0B08064497B
:104DF000C4EBC40401EB44010231684618F06CFDB9
:104E000096F866311BB95F49684618F065FD69463A
:104E10002846FFF775FD96F867215B4B5B4903EB6E
:104E200042024C2303FB0515537885F82E30684663
:104E300018F022FC0124204604B070BD54492846D5
:104E4000FFF754FF5149F27F4C2303FB05156846D9
:104E500085F82E2018F010FC0124204604B070BD07
:104E60004C49ECE74C49EAE796F86931002B67D0EA
:104E7000012B76D0022BE5D14849E0E796F8652171
:104E80003C4B9B5C002B54D03B48454930F81240CA
:104E9000013C234468469CB218F0CAFC96F8643181
:104EA000002B59D03649C4EBC40401EB4401023154
:104EB000684618F011FD96F864311BB9314968460F
:104EC00018F00AFD69462846FFF71AFD96F8652195
:104ED000A3E705EBC50205EB420292002B4802F165
:104EE0001C032C3203440244202103F8011F934287
:104EF000FBD14C2303FB0505002385F82E306846C3
:104F000018F0BAFB0124204604B070BD1F4A306877
:104F10004C2303FB052346225A862946D0F89430B9
:104F2000304698470446684618F0A6FB204604B071
:104F300070BD164A30684C2303FB05231722EBE7AC
:104F400018492846FFF7D2FE96F8693190E71649CE
:104F5000684618F0C1FC4AE71349684618F0BCFCE3
:104F6000A0E712492846FFF7C1FE96F8693181E7AC
:104F7000785A020034F2020014DDFF1F505A02007A
:104F8000DCC202001C5D0200AC810200E09DFF1F3C
:104F9000D85C0200E45C02007FB20200085D0200FF
:104FA000D85B0200F05C0200185D0200FC5C0200AD
:104FB000104A4C2303FB012393F83230013BD8B253
:104FC0000B280FD901EBC10001EB4001890001F171
:104FD0001C032C3113440A44202103F8011F93427F
:104FE000FBD17047044A03EB03130846D118FFF7BF
:104FF0007DBE00BFE09DFF1F10EF020070B590F86E
:105000008F3093420C4602F1480221D930F8123019
:10501000104E13F0010F4FF04C0303FB016314BF5C
:1050200001210221D97130F812300B4DC3F347032F
:1050300003EBC30305EB430520462946FFF756FE65
:105040004C2303FB04646B7C84F82E30012070BD7C
:10505000004EE8E7E09DFF1F288A020070B590F837
:105060008F3093420C4602F1480221D930F81230B9
:10507000104E13F0010F4FF04C0303FB016314BFFC
:1050800001210221D97130F812300B4DC3F34703CF
:1050900003EB830305EB83052046A91CFFF726FEDF
:1050A0004C2303FB0464EB7C84F82E30012070BD9C
:1050B000004EE8E7E09DFF1F582B020038B590F83E
:1050C00048300C4683B904EBC40104EB410189006C
:1050D000994A01F11C032C3113440A44202103F89E
:1050E000011F9342FBD138BD0368D3F80031054658
:1050F00098470028E7D0904A4C2303FB04235B8E9B
:10510000013B092B06D8DFE803F0192482707941AE
:105110004B515B0638BD95F86C30802B00F0068152
:10512000002B40F0C58095F86D30022B204600F032
:10513000AE808249BDE83840FFF7D8BD95F86E30A3
:105140002046002B00F08B807D49BDE83840FFF7FA
:10515000CDBD95F86C3053B995F86F30002B00F049
:105160009B8078492046FFF7C1FD95F86C30012BF4
:1051700000F0B980082B00F0AF80022B00F0A58072
:10518000042B00F09080704B1C7038BD95F8703087
:105190002046002B59D06D49BDE83840FFF7A6BD29
:1051A00020466B49BDE83840FFF7A0BD95F8733045
:1051B0002046002B4ED06749BDE83840FFF796BD2A
:1051C00095F86C30802B00F0AA80012B00F0A080B5
:1051D000022B2ED0002B53D0042B6FD0082BD2D112
:1051E0005D492046FFF782FDCDE795F871302046F6
:1051F00033B35A49BDE83840FFF778BD95F87230AF
:1052000020468BB35649BDE83840FFF76FBD95F88F
:105210006C3073B3012B74D0082B6BD0022B02D0EF
:10522000042B7FF477AF20464E49BDE83840FFF7A6
:105230005DBD4D492046FFF759FD95F86C30C9E733
:105240004A49BDE83840FFF751BD4949BDE83840FB
:10525000FFF74CBD4749BDE83840FFF747BD464919
:10526000BDE83840FFF742BD4449BDE83840FFF78C
:105270003DBD43492046FFF739FD95F86C30C9E73D
:1052800040492046FFF732FD95F86C30A4E73E49CF
:10529000BDE83840FFF72ABD28492046FFF726FD24
:1052A00095F86C3063E739492046FFF71FFD6AE740
:1052B00020463749BDE83840FFF718BD354920463C
:1052C000FFF714FD95F86C3088E733492046FFF767
:1052D0000DFD95F86C3053E72D492046FFF706FD8C
:1052E00095F86C3049E727492046FFF7FFFC95F811
:1052F0006C303FE718492046FFF7F8FC95F86C3012
:105300008CE726492046FFF7F1FC95F86C3083E7DF
:1053100023492046FFF7EAFC95F86C3058E7184916
:105320002046FFF7E3FC95F86C304EE720461D4918
:10533000BDE83840FFF7DABCE09DFF1F505D02007A
:10534000205D0200405D0200FCFDFF1FDC5D0200ED
:10535000F45D0200005E0200945D0200AC5D02009C
:10536000BC5D0200A45D0200245E0200B45D020088
:10537000E85D02000C5E0200305D0200CC5D0200C0
:10538000805D0200585D02004C5E0200745D020008
:10539000605D0200345E0200685D0200845D020010
:1053A000185E0200445E0200F8B5067A102E28BF8F
:1053B0001026012E074621D9741E2146384618F0C2
:1053C000FFFA0378202B13D0C6F1100673100F4E8E
:1053D000E4B2013456FA83F600252946384618F01F
:1053E000EFFA0135037806F8013FA542F5D1F8BD83
:1053F000E6B2012EE0D107230024E8E7C6F110024F
:10540000531006B9F8BD741EE1E700BF4B3700200A
:1054100010B504461DF054F8C0B2102828BF102063
:10542000012821D9231813F8013C202B04D017E0C0
:1054300013F8013C202B13D10138C0B2012804EB32
:105440000003F5D107220B49013854FA80F0631E9E
:105450000A4413F8011F02F8011B8342F9D110BD61
:10546000C0F110025210EEE7C0F1100252100028F5
:10547000E9D110BD4C370020094B202103F1100267
:1054800003F8011F9342FBD1064B074807221A700D
:10549000DA735A709A739A705A73FFF7B9BF00BFE4
:1054A0004B3700204C37002054840200F8B5067AB0
:1054B000102E28BF1026012E074621D9741E214622
:1054C000384618F07DFA0378202B13D0C6F1100669
:1054D00073100F4EE4B2013456FA83F600252946C4
:1054E000384618F06DFA0135037806F8013FA542F9
:1054F000F5D1F8BDE6B2012EE0D107230024E8E79C
:10550000C6F11002531006B9F8BD741EE1E700BFE2
:10551000679DFF1F10B504461CF0D2FFC0B21028D3
:1055200028BF1020012821D9231813F8013C202B73
:1055300004D017E013F8013C202B13D10138C0B27E
:10554000012804EB0003F5D107220B49013854FA76
:1055500080F0631E0A4413F8011F02F8011B834206
:10556000F9D110BDC0F110025210EEE7C0F11002E7
:1055700052100028E9D110BD689DFF1FF0B51D4CE9
:105580001D4DA4FB003485B0640906460F460A226F
:105590002146684618F0F6F86946384618F098F93A
:1055A000684618F069F8642101FB1461C9B2A5FBD3
:1055B00001310A22C9086846A5FB063518F0E2F851
:1055C000ED086946384618F083F905EB850568460D
:1055D00018F052F8A6EB45010A22C9B2684618F045
:1055E000D1F86946384618F073F9684618F044F85F
:1055F00005B0F0BD1F85EB51CDCCCCCC70B5494E7C
:105600004C2303FB006384B05B7A05460C46062BF3
:1056100026D8DFE803F06C6C5A5A252704004C2387
:1056200003FB0063DB7A002B73D10621204618F0C0
:1056300061F93D49204618F04FF94C2303FB0565FD
:10564000214695F83200FFF799FF2021204618F0F7
:1056500051F9EB7A2046002B60D1062118F04AF967
:1056600004B070BD3149204618F036F94C2303FBD5
:105670000565214695F83200FFF780FF2C4920464A
:1056800018F02AF995F84210684618F067F869464C
:10569000204618F01DF9684617F0EEFF2F2120462E
:1056A00018F028F90A22B5F84010684618F06AF890
:1056B0006946204618F00CF9684617F0DDFF2046D1
:1056C000292118F017F904B070BD1A49204618F0C6
:1056D00003F94C2303FB0565214695F83200FFF7DB
:1056E0004DFF20465D2118F005F904B070BD124948
:1056F000204618F0F1F84C2303FB0565214695F888
:105700003200FFF73BFF20463E2118F0F3F804B0CB
:1057100070BD0521204618F0EDF88AE7052118F044
:10572000E9F89DE7E09DFF1F6C5E0200645E0200E9
:10573000386202005C5E0200545E0200F0B589B07F
:10574000144607460D466846002117F0D5FF5C2C2D
:105750001FD8542C33D8234E27444C2303FB056316
:1057600097F89020DA713E2C19D997F89030012BD8
:105770000CBF1D491D492846FFF7B8FA1C4A04EB27
:10578000C4044C2302EB440403FB0565637C85F8E9
:105790002E30684617F070FF012009B0F0BD05EB10
:1057A000C50205EB4202920002F11C032C32334485
:1057B0003244202103F8011F9342FBD1DEE7274446
:1057C00004A80C49074E17F097FF04A997F890001A
:1057D000FFF7D4FE284604A9FFF792F804A817F0B3
:1057E0004BFFCBE7E09DFF1F745E02007C5E020072
:1057F000DC3C0200785A020030B585B004460D4604
:105800006846094917F078FF69462846FFF7B6FE53
:1058100069462046FFF774F8044B68461C7017F081
:105820002BFF05B030BD00BF785A0200BBE0FF1F60
:105830002DE9F041234E244C8EB0A6FB00360746DE
:105840008846F60804F1200C0DF1140E20686168FA
:10585000A268E36875460FC510346445AE46F5D1BD
:10586000184920682860A1FB0731C90801EB4101F4
:10587000A7EB8101C9B201EB410105AB19444046D8
:1058800017F0D6FF86B1012E15D00A22B11E01A84D
:1058900017F078FF01A9404618F01AF801A817F090
:1058A000EBFE0EB0BDE8F0814046084918F014F850
:1058B0000EB0BDE8F0814046054918F00DF80EB075
:1058C000BDE8F081ABAAAAAAFC290200845E02000E
:1058D0008C5E0200134B1A5C8A4207D00B281954C5
:1058E00004D869B1012914D0022900D070470E4BA9
:1058F0000E4AC0EBC00003EB8000072117F074B91B
:10590000094B0B4AC0EBC00003EB8000072117F0E6
:105910006BB9054B074AC0EBC00003EB80000721C1
:1059200017F062B918FEFF1F28FFFF1F2489FF1F11
:10593000E4FDFF1F1C8BFF1F0139082902D801213C
:10594000FFF7C8BF0021FFF7C5BF00BF70B50B4C04
:1059500082B006460A4817F0ABF923680093009D11
:1059600002E0074817F0FAF923680193019B5B1BDB
:10597000642BF6D9304602B070BD00BF3C3A00201F
:105980001CAAFF1F30B50F4C0F4885B017F090F9D7
:1059900023680193019D02E00B4817F0DFF92368AB
:1059A0000293029B5B1B642BF6D923680393074B7E
:1059B000039A07481A6017F07BF9054817F0CEF9EB
:1059C00005B030BD3C3A00201CAAFF1F28E5FF1F90
:1059D00004FEFF1FA0F1E5030B2B0AD8DFE803F05C
:1059E000060D1115181B1E2124272A0A134B93F8A4
:1059F00026007047114B987A7047104B93F825009A
:105A000070470E4B93F8230070470C4B987C7047FF
:105A10000A4B587C7047094B187C7047074BD87B62
:105A20007047064B987B7047044B587B7047034B7D
:105A3000187B7047014BD87A704700BF68E5FF1F9D
:105A4000F0B501F07F041F2C83B0054611D80B067A
:105A500045D4334EB378002B2DD1F37813BB314BA3
:105A60005A5DA24203D0304A5C550123137003B043
:105A7000F0BD2E4B2E4AD97F145C93F82020987FDE
:105A800017F06EFA214602462A4817F063FA254BB2
:105A90005A5D002AEBD00021234A59550123137087
:105AA00003B0F0BD21462846FFF746FF1D4B5A5D67
:105AB000A242D8D1DBE71D491D4F04EB44028B18ED
:105AC000885C9A7859787F5D17F04AFA3946024621
:105AD000184817F03FFAF378002BC0D0E2E7164BD6
