:0200000460009A
:100000004643464200000156000000000103030081
:1000100000000000000000000000000000000000E0
:1000200000000000000000000000000000000000D0
:1000300000000000000000000000000000000000C0
:1000400000000000010408000000000000000000A3
:100050000000800000000000000000000000000020
:100060000000000000000000000000000000000090
:100070000000000000000000000000000000000080
:10008000EB04180A063204260000000000000000FD
:10009000050404240000000000000000000000002F
:1000A0000000000000000000000000000000000050
:1000B0000604000000000000000000000000000036
:1000C0000000000000000000000000000000000030
:1000D00020041808000000000000000000000000DC
:1000E0000000000000000000000000000000000010
:1000F0000000000000000000000000000000000000
:10010000D8041808000000000000000000000000F3
:100110000204180804200000000000000000000095
:1001200000000000000000000000000000000000CF
:10013000600400000000000000000000000000005B
:1001400000000000000000000000000000000000AF
:10015000000000000000000000000000000000009F
:10016000000000000000000000000000000000008F
:10017000000000000000000000000000000000007F
:10018000000000000000000000000000000000006F
:10019000000000000000000000000000000000005F
:1001A000000000000000000000000000000000004F
:1001B000000000000000000000000000000000003F
:1001C000000100000010000001000000000000001D
:1001D000000001000000000000000000000000001E
:1001E000000000000000000000000000000000000F
:1001F00000000000000000000000000000000000FF
:10020000FFFFFFFFFFFFFFFFFFFFFFFFFFFFFFFFFE
:10021000FFFFFFFFFFFFFFFFFFFFFFFFFFFFFFFFEE
:10100000D10020432914006000000000000000000F
:10101000201000600010006000300560000000003B
:1010200000000060003C050000000000FFFFFFFF23
:10103000FFFFFFFFFFFFFFFFFFFFFFFFFFFFFFFFC0
:10104000FFFFFFFFFFFFFFFFFFFFFFFFFFFFFFFFB0
:10105000FFFFFFFFFFFFFFFFFFFFFFFFFFFFFFFFA0
:10106000FFFFFFFFFFFFFFFFFFFFFFFFFFFFFFFF90
:10140000884207D0904205D251F8043B40F8043B93
:101410008242F9D8704700BF884204D2002340F8C6
:10142000043B8142FBD87047664B4FF42A01664A61
:1014300066482DE9F0475A641864654A99639546F1
:10144000BFF34F8FBFF36F8F17F0C0FB614B0820C6
:10145000614A6249C3F854016148FFF7D1FF614A0C
:1014600061496248FFF7CCFF61496248FFF7D4FF4A
:10147000614C62494FF470000023614A086044F8EF
:1014800023200133B02BFAD15E4B80215E4A03F852
:10149000011B9342FBD14F4D4FF080385B494FF019
:1014A000FF325B4B0026DFF8A4A1DFF8A4911C609B
:1014B000C5F80481C5F800A1C5F8F480C5F8F0901E
:1014C0000B68544F43F4E0230B60FB693D4923F064
:1014D0007F0343F04003FB617B6A23F07F0343F00B
:1014E00040037B628A66CA660A674A6717F074FB24
:1014F000494A4A4B6320A2630321E363484A494BAC
:10150000106000F160401E6042F8041C00F6A170FB
:101510004549464AC3F8082D0B68454A43F0807395
:101520000B601368434943F00103136003680B60C9
:1015300017F0A2FDC5F804813F48C5F800A1C5F821
:10154000F480C5F8F09017F06BFFF96E3B4A41F458
:1015500040513B4BF9661660C2F80861C2F8186149
:10156000C2F82861C2F838619A6BD20708D442F6F3
:101570001562344959651A659A6B42F001029A6303
:101580002F4A314C936843F00113936017F096FB98
:1015900017F0F0FA17F00CFF17F0A0FD17F018FB8A
:1015A0002368132BFCD917F027FE2368B3F5967F29
:1015B000FBD317F00FFB17F0BFFF17F0A1FF30BFF1
:1015C000FDE700BF00C00A40FFABAAAA0700200049
:1015D0000080052000800D40981102002CCD026093
:1015E00000000000C04E0020C8DE046000000020A3
:1015F000A0910020C04E0020004C002088ED00E0AB
:1016000095BA010000E400E0A0E400E024ED00E071
:1016100008ED00E000C00F407DD4010081D401003E
:1016200014E000E018E000E0FCED00E00000202005
:10163000001000E09C8E00200046C32300400840BC
:1016400000400D400000C056A08E00201B10182046
:101650000C0D1113000000005D207047542901D8C3
:10166000022070475D2934BF80200020704700BFF2
:101670000379022B01D05D20704790F8FB004000F9
:10168000704700BF4B1E072B05D890F86D308B427A
:1016900018BF80F86D10704790F8FC00704700BFCD
:1016A000082070472F2070472E2906D8044B01EBE5
:1016B000410103EBC101087A70470020704700BF69
:1016C000789601601531C8B2704700BF4379002297
:1016D00008490133A0F84C2080F8512070B4B0F8CC
:1016E0004E504FF49676044CA0F84E6025700B7067
:1016F00070BC7047888F00206D8F002090F85130AB
:101700003BB9C1EB0111490089B202290CD8002074
:101710007047B0F84C3001EB4101C3EB031301EB10
:10172000430189B20229F2D9033988B2704700BF58
:10173000302070472F2907D8044B01EB410103EB00
:10174000C10191F8700470470020704778960160DD
:101750000C2070470139C9B2072906D890F8410119
:1017600040FA01F101F0010070470020704700BF0E
:101770000820704790F89020072A16D8012393403C
:1017800013F0F00F0BD113F00C0F0FD19B070CD0FF
:101790007F220823A0F8482080F8AD3070477F22D0
:1017A0000423A0F8482080F8AD3070477D22032341
:1017B000A0F8482080F8AD30704700BF022380F8C1
:1017C0006E3070474379002208490133A0F84C205D
:1017D00080F8512070B4B0F84E504FF4C876044CE5
:1017E000A0F84E6025700B7070BC7047888F002089
:1017F0006D8F002090F85210026880F85510136D1C
:10180000184700BF0F2908D801EB4102044B01EB38
:101810008201194491F8F40870470020704700BF16
:101820007896016030B40AB990F86E20012A1ED073
:10183000022A1AD0032A0CBF0D25002501EBC10096
:101840000C4A4C23202401EB400003FB01218000C3
:101850004D8600F11C032C301344024403F8014F61
:101860009342FBD1012030BC70470C25E6E70B25E5
:10187000E4E700BFC07C00204B1E072B05D890F882
:101880006D308B4218BF80F86D10704743790D4959
:10189000013390F89E2030B40B4CB0F84E500B70D2
:1018A000257052B14FF4FA73A0F84E30002330BCCB
:1018B000A0F84C3080F8513070476423A0F84E30C7
:1018C000F4E700BF888F00206D8F00201420704740
:1018D00090F86E304BB101330122DBB2032B88BF8D
:1018E000012380F86E30014B1A707047D88F0020AA
:1018F00030B40AB990F86E20012A1ED0022A1AD0FC
:10190000032A0CBF0E25002501EBC1000C4A4C2315
:10191000202401EB400003FB012180004D8600F1F3
:101920001C032C301344024403F8014F9342FBD1B3
:10193000012030BC70470D25E6E70C25E4E700BF29
:10194000C07C00204B1E092B05D890F86D308B42CF
:1019500018BF80F86D1070470A207047022070474A
:101960004379002208490133A0F84C2080F8512027
:1019700070B4B0F84E505026044CA0F84E6025705C
:101980000B7070BC704700BF888F00206D8F0020E7
:101990008A20704790F86A300BB98A207047024A53
:1019A000134413F8010C70475C540020F0B490F815
:1019B0006A50B5B100230E4A0B241F4603E08A2B60
:1019C00012D012F81C4CAC42DEB202F11C0203F140
:1019D0000103F4D17C1CB942E7B2F0D1B0B2F0BC43
:1019E00070470846F0BC70474FF6FF70F0BC704778
:1019F00065A00160704700BF1020704790F86E30FE
:101A00004BB101330122DBB2022B88BF012380F8E6
:101A10006E30014B1A707047D88F002070B40AB92D
:101A200090F86E20012A21D0022A12D001EBC103C6
:101A30000F4A202001EB4301890001F11C032C31E6
:101A400013440A4403F8010F9342FBD1012070BCF8
:101A500070470F23064E4C2405681A4604FB0164A8
:101A6000D5F8B45063862B4670BC18470E23F1E7B7
:101A7000C07C002001207047013908298CBF00205C
:101A8000012070474379002208490133A0F84C2017
:101A900080F8512070B4B0F84E502426044CA0F8C1
:101AA0004E6025700B7070BC704700BF888F00209F
:101AB0006D8F002009207047082994BF0220002064
:101AC000704700BF0F2070470E2908D801EB410175
:101AD000044BC1EBC101194491F8EA07704700209B
:101AE000704700BF70A7016030B40C4A4C2301EB73
:101AF000C1050E2403FB0123202001EB45015C8678
:101B0000890001F11C032C3113440A4403F8010F2E
:101B10009342FBD1012030BC704700BFC07C002045
:101B2000704700BF4379002208490133A0F84C20D8
:101B300080F8512070B4B0F84E504FF4C876044C81
:101B4000A0F84E6025700B7070BC7047888F002025
:101B50006D8F002090F8513033B901EB8101C9003D
:101B600003290BD800207047B0F84C3003EB8303F7
:101B700001EB4301890089B20329F3D9043988B202
:101B8000704700BF63207047622906D8044B1A22B1
:101B900002FB013191F81E0970470020704700BF19
:101BA00070A70160182070470F2902D90531C8B20B
:101BB00070470846704700BF0139C9B2072906D8E7
:101BC00090F87A0340FA01F101F00100704700201B
:101BD000704700BF90F86E304BB101330122DBB289
:101BE000022B88BF012380F86E30014B1A707047BA
:101BF000D88F0020192070470C2909D8014491F88A
:101C00000D31042B13D8DFE803F008080A0A0A0094
:101C100018298CBF0020012070470220704791F8DE
:101C2000E73091F800110133591AC8B2704701200A
:101C3000704700BF90F8DE00003018BF01207047E9
:101C400090F8DB301BB190F8F4300133DBB218466A
:101C5000704700BFB0207047C12907D8044B01EB83
:101C6000410103EBC10191F82E027047002070473B
:101C700068B8016090F86A300BB9C2207047024A18
:101C8000134413F8010C704794840020F0B490F8CA
:101C90006A50B5B100230E4A0C241F4603E0C22B44
:101CA00012D012F8184CAC42DEB202F1180203F165
:101CB0000103F4D17C1CB942E7B2F0D1B0B2F0BC60
:101CC00070470846F0BC70474FF6FF70F0BC704795
:101CD000C3BA01602720704710B44C20044C00FBAD
:101CE000014181F8303081F83C205DF8044B7047A9
:101CF000C07C002090F86E304BB101330122DBB282
:101D0000022B88BF012380F86E30014B1A70704798
:101D1000D88F0020062070470320704790F89D0060
:101D2000704700BF104607291DD8DFE801F0070AF9
:101D30000D10131619040D4917F01EBB0C4917F0AE
:101D40001BBB0C4917F018BB0B4917F015BB0B490F
:101D500017F012BB0A4917F00FBB0A4917F00CBB6A
:101D6000094917F009BB094917F006BB7824002080
:101D700004240020102400201C2400202C240020F7
:101D80003C24002050240020642400209C330020A8
:101D900049B1012903D11046054917F0EDBA1046A3
:101DA000044917F0E9BA1046034917F0E5BA00BF35
:101DB000A02400209C3300208C24002001290ED078
:101DC00009D3022903D11046074917F0D5BA1046A6
:101DD000064917F0D1BA1046054917F0CDBA10469A
:101DE000044917F0C9BA00BFC82400209C33002062
:101DF000B0240020BC24002001EB4101034B10461D
:101E000003EBC101093117F0CFBB00BF7896016029
:101E100001EB4101034B104603EBC101093117F0FF
:101E2000C3BB00BFE09A016001EB4103104610B450
:101E300001EB8301024C21445DF8044B17F0B4BB65
:101E4000609F0160024B104603EB011117F0ACBB21
:101E50001CCD016001EB4103104610B4C1EBC3017E
:101E6000024C21445DF8044B17F09EBB5CCE016030
:101E700001EB8101024B104603EB410117F094BBCB
:101E8000CCCF016001EB4101034B1046C1EBC10116
:101E9000194417F089BB00BF48AF0160622900D91F
:101EA000704710B4044B1A24104604FB01315DF84E
:101EB000044B0B3117F078BB84B0016001EB41019A
:101EC000034B104603EBC101033117F06DBB00BF9C
:101ED00094BA0160262903D91046054917F064BB5E
:101EE00001EB4101034B104603EBC10117F05CBB52
:101EF000EC24002028D00160262903D91046064989
:101F000017F052BB01EB4101044B104603EBC1013A
:101F10000E3117F049BB00BFEC24002028D001602F
:101F200030B4B9B101EB4103C1EBC303DBB200F242
:101F30000B2100F21325C418013394F83B41DBB2A6
:101F400001F8014FA942F6D100F50371104630BCEB
:101F500017F02ABB1723EAE72DE9F041234F3B682E
:101F600073B10D4601EB4101214C8046C5EBC10127
:101F7000104616462144113117F016FB0B2D01D9DE
:101F8000BDE8F0813A21304617F05AFBB8F8282016
:101F90003968002302EB420204F287501C46C2EB70
:101FA00002120A441544697D95F8212005E00133A9
:101FB0001330712B14D010F8134CA142DDB2F6D1BE
:101FC00010F8124C9442F2D155B103EBC302094907
:101FD000304603EB4203BDE8F041194417F0E4BA80
:101FE00030460549BDE8F04117F0DEBA88540020BC
:101FF0005CCE0160D2D30160EC24002030B4B9B1D2
:1020000001EB4103C1EBC303DBB200F2444100F238
:102010004C45C418013394F87443DBB201F8014F06
:10202000A942F6D100F24541104630BC17F0BCBAC7
:102030001723EAE790F89E30012B00D0704700F19B
:10204000B801104617F0C4B930B589B00D460C4937
:10205000144604A817F0E4FA2946684617F0A8FACF
:10206000694604A817F030FA0146204617F0B0F987
:10207000684617F0B9FA04A817F0A2F909B030BD04
:10208000F424002030B589B00D460C49144604A84C
:1020900017F0C6FA2946684617F08AFA694604A876
:1020A00017F012FA0146204617F092F9684617F029
:1020B0009BFA04A817F084F909B030BD0025002070
:1020C000032930B5154689B022D90439CCB2072C82
:1020D00005D91449104617F067FA09B030BD124906
:1020E00004A817F09DFA0A22611C684617F0A8F9A7
:1020F000694604A817F0E8F90146284617F068F980
:10210000684617F071FA04A817F05AF909B030BD03
:10211000064BC1EBC1011046194417F045FA09B04E
:1021200030BD00BFEC2400200C25002034DC016011
:10213000032930B5154689B022D90439CCB2072C11
:1021400005D91449104617F02FFA09B030BD1249CD
:1021500004A817F065FA0A22611C684617F070F9A6
:10216000694604A817F0B0F90146284617F030F97F
:10217000684617F039FA04A817F022F909B030BD03
:10218000064BC1EBC1011046194417F00DFA09B016
:1021900030BD00BFEC2400201825002050DC016079
:1021A0002DE9F04390F8905091B0072D45D80123C8
:1021B00016460C46AB4013F0AA0F41D113F0550F51
:1021C0003BD0022D3F4D4FF00A0204A80CBF4FF048
:1021D00003094FF0040991FBF9F75FFA87F808F15A
:1021E000010885FB08354FEAE873C3EBA5052946CE
:1021F00017F026F904A90CA817F0AAF80A2205EB93
:10220000850108A8A8EB410117F01AF908A90CA844
:1022100017F05AF909FB17414131C9B217F0B0F96B
:102220000146304617F0D4F808A817F0DDF90CA8DD
:1022300017F0C6F804A817F0D7F911B0BDE8F0837D
:1022400021490A226846A1FB0431490917F0F8F830
:10225000694608A817F07CF81C4B04A8A3FB0425CA
:102260000A22ED08A9B205EB8505A3FB0173DB0883
:1022700003EB8303A1EB430189B217F0E1F804A952
:1022800008A817F021F90746A4EB45010A220CA87B
:1022900089B217F0D5F80CA9384617F015F90146A0
:1022A000304617F095F80CA817F09EF904A817F01F
:1022B0009BF908A817F084F8684617F095F911B053
:1022C000BDE8F083676666661F85EB51CDCCCCCC4C
:1022D000F0B590F89E3091B01546002B51D190F892
:1022E000AD31002B47D14C1C04A8474917F098F991
:1022F0004649A4B20A226846A1FB0431490917F0F5
:102300009FF8694604A817F0DFF8414B074608A874
:10231000A3FB04260A22F608B1B206EB8606A3FB4D
:1023200001E3DB0803EB8303A1EB430189B217F060
:1023300087F808A9384617F0C7F80746A4EB460106
:102340000A220CA889B217F07BF80CA9384617F0BE
:10235000BBF80146284617F03BF80CA817F044F9E3
:1023600008A817F041F9684617F03EF904A817F0DD
:1023700027F811B0F0BD2749104617F015F911B034
:10238000F0BD0131214B0A2268468CB2A3FB043117
:10239000490917F055F8694608A816F0D9FF1C4BF3
:1023A00004A8A3FB04260A22F608B1B206EB8606AF
:1023B000A3FB0173DB0803EB8303A1EB430189B2A9
:1023C00017F03EF804A908A817F07EF80746A4EB1A
:1023D00046010A220CA889B217F032F80CA9384637
:1023E00017F072F80146284616F0F2FF0CA817F015
:1023F000FBF804A817F0F8F808A816F0E1FF684603
:1024000017F0F2F811B0F0BD242500201F85EB5124
:10241000CDCCCCCC1C250020F0B590F89E3091B0EE
:1024200004460F461646002B36D190F85130002B4B
:1024300075D190F84C100A22604D04A801EB81017F
:1024400007EB4104E4B2A5FB0435ED08294605EB92
:10245000850516F0F5FF04A90CA816F079FF0A22ED
:10246000A4EB450108A8C9B216F0EAFF08A90CA818
:1024700017F02AF8524917F01BF80146304616F0BB
:10248000A7FF08A817F0B0F80CA816F099FF04A849
:1024900017F0AAF811B0F0BD90F85130002B69D0B8
:1024A000B0F84C100A22454D6846A5FB0131C90819
:1024B00016F0C6FF694608A816F04AFFB4F84C109B
:1024C0000A2204A8A5FB0135ED0805EB8505A1EB63
:1024D000450189B216F0B4FF04A908A816F0F4FF6C
:1024E000044639460A220CA816F0AAFF0CA9204679
:1024F00016F0EAFF334916F0DBFF0146304616F0CE
:1025000067FF0CA817F070F804A817F06DF808A87A
:1025100016F056FF684617F067F811B0F0BDB0F836
:102520004C100A22254D6846A5FB0131C90816F05A
:1025300087FF694608A816F00BFFB4F84C100A2272
:1025400004A8A5FB0135ED0805EB8505A1EB4501C8
:1025500089B216F075FF04A908A816F0B5FF044665
:1025600039460CA80A2216F06BFF0CA9204616F07B
:10257000ABFFC2E7B0F84C400A22104904A804EBB4
:10258000840407EB4404A4B2A1FB0437FF083946D6
:1025900007EB870716F054FF04A90CA816F0D8FE25
:1025A0000A22A4EB470108A889B216F049FF08A93E
:1025B0000CA816F089FF04495DE700BFCDCCCCCC58
:1025C00028250020302500202C25002070B590F80B
:1025D00090308CB01646012B0CBF0425082500292D
:1025E0004ED0A9420C4632D9641B2B4904A8651E63
:1025F00017F016F80A226846002D2946B8BFA11D1B
:10260000C91016F01DFF694604A816F05DFF2349A6
:1026100016F04EFF224904462940002936DB0A22E3
:10262000013108A816F00CFF08A9204616F04CFF4F
:102630000146304616F0CCFE08A816F0D5FF6846D5
:1026400016F0D2FF04A816F0BBFE0CB070BD154901
:1026500008A816F0E5FF0A22214604A816F0F0FEAD
:1026600004A908A816F030FF0146304616F0B0FE67
:1026700004A816F0B9FF08A816F0A2FE0CB070BDB1
:102680000949104616F090FF0CB070BD013961F099
:1026900007010131C3E700BF3C250020DC320020E8
:1026A00007000080382500203425002070B590F800
:1026B00051308CB004460D46164633BBB0F84C3052
:1026C0000BB9002964D0354908A816F0A9FFB4F861
:1026D0004C100A2204A801EB810105EB41010139EC
:1026E00016F0AEFE04A908A816F0EEFE2C4916F06E
:1026F000DFFE0146304616F06BFE04A816F074FFAC
:1027000008A816F05DFE0CB070BDB0F84C30A3B94F
:1027100029B92449104616F047FF0CB070BD224974
:1027200008A816F07DFF294604A80A2216F088FEA4
:1027300004A908A816F0C8FEDBE7184904A816F09B
:102740006FFFB4F84C100A226846013916F078FE83
:10275000694604A816F0B8FE144916F0A9FE04460E
:102760000A22294608A816F06BFE08A9204616F092
:10277000ABFE0146304616F02BFE08A816F034FFDB
:10278000684616F031FF04A816F01AFE0CB070BDB2
:102790000749104616F008FF0CB070BD3C2500201C
:1027A000442500204825002038250020DC32002068
:1027B00040250020C7291046F0B50E468DB094BFC5
:1027C00055215021154616F03BFF234BC824234FBB
:1027D0006846A3FB06230A229B0904FB1364C4F387
:1027E0008D040134E4B2A7FB0437FF08394607EB38
:1027F000870716F025FE694608A816F0A9FD0A22EB
:10280000A4EB470104A8C9B216F01AFE04A908A84F
:1028100016F05AFE0146284616F0DAFD04A816F016
:10282000E3FE08A816F0CCFD684616F0DDFE2D216B
:10283000284616F005FF06F003010A2208A8013118
:1028400016F0FEFD08A9284616F0C2FD08A816F0ED
:10285000CBFE0DB0F0BD00BF1F85EB51CDCCCCCC75
:10286000622930B51D468BB02FD83A4B1A2404FB91
:102870000131B1F82A190BB2002B54DD364C0C444F
:10288000112C10D8DFE804F0090F0F0F0F0F0F0FF6
:102890000F0F0F0F0F0F0F2D4D2790F8AD30002B9E
:1028A00014BF092101210A442C4906A8013A02EB70
:1028B000C202114416F048FE06A9284616F088FD0B
:1028C00006A816F091FE0BB030BD2549184616F04B
:1028D0006BFE0BB030BD11460A2206A816F0B0FD03
:1028E000EAE73F2A28D9402A2FD00192EBD91D4987
:1028F00006A816F095FE019AA2F132010A2202A85A
:1029000016F09EFD02A906A816F0DEFD0146284637
:1029100016F05EFD02A816F067FE06A816F050FD40
:10292000D1E75100D8E7012A28460CBF0E490F49CC
:1029300016F03AFE0BB030BD0D4906A8019216F014
:102940006FFE019AC2F13201D8E72846094916F014
:102950002BFEB8E770A70160FA83FFFF6CDC016013
:102960009C330020742C0020A02F00205425002030
:102970004C250020502500200F2930B5154689B080
:1029800022D91039CCB2072C05D91349104616F0BC
:102990000BFE09B030BD114904A816F041FE0A2211
:1029A000611C684616F04CFD694604A816F08CFDC3
:1029B0000146284616F00CFD684616F015FE04A8E0
:1029C00016F0FEFC09B030BD054B104603EB0111BB
:1029D00016F0EAFD09B030BDEC2400200C250020E3
:1029E0000CE901600F2930B5154689B022D910399C
:1029F000CCB2072C05D91449104616F0D5FD09B004
:102A000030BD124904A816F00BFE0A22611C68466C
:102A100016F016FD694604A816F056FD0146284634
:102A200016F0D6FC684616F0DFFD04A816F0C8FCC8
:102A300009B030BD064B104603EB0111083116F00A
:102A4000B3FD09B030BD00BFEC24002018250020E4
:102A50000CE90160F0B50C46C72991B0104604F1AD
:102A600001048CBF502155211646A4B216F0E8FD92
:102A700020490A226846A1FB0431490916F0E0FC0E
:102A8000694608A816F064FC1B4B04A8A3FB0425A8
:102A90000A22ED08A9B205EB8505A3FB0173DB084B
:102AA00003EB8303A1EB430189B216F0C9FC04A92F
:102AB00008A816F009FD0746A4EB45010A220CA858
:102AC00089B216F0BDFC0CA9384616F0FDFC014693
:102AD000304616F07DFC0CA816F086FD04A816F012
:102AE00083FD08A816F06CFC684616F07DFD11B059
:102AF000F0BD00BF1F85EB51CDCCCCCCF0B590F82C
:102B0000513091B005460F4616466BBBB0F84C30BD
:102B10001046012B8CBF5021552116F091FDB5F8C0
:102B20004C100A2204A816F08BFC04A90CA816F07D
:102B30000FFC0A22394608A816F082FC08A90CA846
:102B400016F0C2FC2B4916F0B3FC0146304616F0D5
:102B50003FFC08A816F048FD0CA816F031FC04A8AC
:102B600016F042FD11B0F0BDB0F84C301046224CCA
:102B7000132B8CBF5021552116F062FDB5F84C1077
:102B80000A226846A4FB0131C90816F059FC6946BF
:102B900008A816F0DDFBB5F84C100A2204A8A4FB27
:102BA0000134E40804EB8404A1EB440189B216F07B
:102BB00047FC04A908A816F087FC04460A223946F7
:102BC0000CA816F03DFC0CA9204616F07DFC014631
:102BD000304616F0FDFB0CA816F006FD04A816F012
:102BE00003FD08A816F0ECFB684616F0FDFC11B0DA
:102BF000F0BD00BF28250020CDCCCCCC70B54D1C3D
:102C0000154C8CB0164684FB0534EB170A22684637
:102C1000C3EBA404214616F013FC694608A816F07D
:102C200097FB0A2204EB840104A8A5EB410116F0EE
:102C300007FC04A908A816F047FC0146304616F028
:102C4000C7FB04A816F0D0FC08A816F0B9FB68462C
:102C500016F0CAFC0CB070BD6766666630B589B008
:102C60000D460D49144604A816F0DAFC0A22691C28
:102C7000684616F0E5FB694604A816F025FC0146F7
:102C8000204616F0A5FB684616F0AEFC04A816F028
:102C900097FB09B030BD00BF5825002001F150035B
:102CA000013130B589B030F8133015460A22684634
:102CB0005C1016F0C5FB694604A816F049FB04A891
:102CC0003A2116F05DFC0A49E3B203EB830301EB02
:102CD0008301023116F0ECFB0146284616F078FB22
:102CE00004A816F06DFB684616F07EFC09B030BDF6
:102CF0007CF20160CB11F0B54C1C91B003F14101A5
:102D0000164604A8A4B2C9B216F0F6FB20490A225E
:102D10006846A1FB0431490916F092FB694604A8F4
:102D200016F0D2FB1B4B074608A8A3FB04250A227A
:102D3000ED08A9B205EB8505A3FB01E3DB0803EB76
:102D40008303A1EB430189B216F07AFB08A9384648
:102D500016F0BAFB0746A4EB45010A220CA889B27B
:102D600016F06EFB0CA9384616F0AEFB0146304655
:102D700016F02EFB0CA816F037FC08A816F034FC51
:102D8000684616F031FC04A816F01AFB11B0F0BD2D
:102D90001F85EB51CDCCCCCC2DE9F04190F85130D2
:102DA00090B007460D461646002B47D0B0F84C10A1
:102DB00004A83D4C01EB810189114131C9B216F0E3
:102DC0009BFBB7F84C100A226846A4FB0131C908E6
:102DD00016F036FB694604A816F076FBB7F84C10DF
:102DE00080460A22A4FB013408A8E40804EB84040A
:102DF000A1EB440189B216F023FB08A9404616F066
:102E000063FB04460A2229460CA816F019FB0CA9FC
:102E1000204616F059FB0146304616F0D9FA0CA8A8
:102E200016F0E2FB08A816F0DFFB684616F0DCFBA4
:102E300004A816F0C5FA10B0BDE8F08101EB8102DC
:102E4000B0F84C30642108A8520001FB0321C911DD
:102E50004131C9B216F050FBB7F84C100A2204A851
:102E600016F0EEFA04A908A816F02EFB04460A2272
:102E700029460CA816F0E4FA0CA9204616F024FB0B
:102E80000A4916F015FB0146304616F0A1FA0CA8C7
:102E900016F0AAFB04A816F0A7FB08A816F090FAF3
:102EA00010B0BDE8F08100BFCDCCCCCC28250020EF
:102EB00070B5232901F0030588B00C46164605F1CC
:102EC00041051CD9462104A816F016FB0A22A108C8
:102ED0006846083916F0B4FA694604A816F0F4FA00
:102EE000294616F04DFB0146304616F071FA684649
:102EF00016F07AFB04A816F063FA08B070BD8908D2
:102F00000A226846013116F09BFA694604A816F0B9
:102F10001FFA294604A816F033FB0146304616F086
:102F200057FA04A816F04CFA684616F05DFB08B094
:102F300070BD00BFF0B590F8513089B00446164618
:102F40000D46DBB9B0F84C30002B3BD10A22684665
:102F500016F076FA694604A816F0FAF904A82A4988
:102F600016F0A6FA0146304616F032FA04A816F01A
:102F700027FA684616F038FB09B0F0BD01F00307E8
:102F8000232907F141072ED9462104A816F0B4FAE7
:102F9000B4F84C100A226846083916F051FA69460E
:102FA00004A816F091FA394616F0EAFA01463046BE
:102FB00016F00EFA684616F017FB04A816F000FA91
:102FC00009B0F0BD462104A816F096FA29460A2257
:102FD000684616F035FA694604A816F075FA0A49EB
:102FE00016F066FAE2E7B0F84C100A2268460131A2
:102FF00016F026FA694604A816F0AAF9394604A87C
:1030000016F0BEFAAEE700BF2825002070B590F894
:1030100051308CB00C461546EBB9052950D95021DA
:1030200008A816F069FA611F0A2204A816F008FA27
:1030300004A908A816F048FA244916F039FA0146FE
:10304000284616F0C5F904A816F0CEFA08A816F01E
:10305000B7F90CB070BD90F84C600A2313FB06134F
:10306000322B28DD053E50211046F6B216F0E8FA64
:103070003146684616F09CFA694608A816F068F9C9
:103080000A22214604A816F0DBF904A908A816F0C4
:103090001BFA0F4916F00CFA0146284616F098F96B
:1030A00004A816F0A1FA08A816F08AF9684616F0E6
:1030B0009BFA0CB070BD5521104616F0C1FAD7E747
:1030C000552108A816F018FA2146ADE72C25002056
:1030D00030250020F8B5044616F09EF91A4A02255C
:1030E0001A4BD8271068D9269288C4F80600628146
:1030F000257107CBC4F80E0004F13400C4F8121097
:103100001121C4F8162016F0BFF9002301224FF058
:103110007F0C4FF0030EDA200D49E577A4F848C084
:1031200084F854E084F8917084F8926084F89300F5
:10313000C4F88C10A36584F8943084F89C3084F82B
:10314000212084F82420F8BD702500207825002057
:1031500080C3C9012DE9F843044616F05DF9234AFE
:103160000223234D4FF0DE0E10684FF07C092371CF
:103170004FF00308C4F806004FF0050CDF27A4F851
:10318000489084F85480C4F858C084F891E084F8DA
:1031900092700FCD0A25C4F81620C4F81A30012207
:1031A0000023E577134DC4F80E0004F5CE70C4F883
:1031B00012101121C4F88C50A4F8463084F89330D2
:1031C00084F8943084F89D30C4F8CC3084F8212001
:1031D00084F8242084F89E2016F056F904F1B800F3
:1031E0001121BDE8F84316F04FB900BF8425002037
:1031F0008825002080C3C9012DE9F041044616F05E
:103200000BF91B4802211B4B012200684FF00B0CED
:1032100021714FF0030EC4F806000627D626D725E5
:10322000A4F848C084F854E0E77784F8916084F803
:10323000925084F8212084F8242003CBB3F8008036
:103240000023C4F812100C49C4F80E00A4F816802C
:10325000C4F88C10A4F84630A36584F8933084F841
:10326000943084F8A230C4F89C302367BDE8F08124
:10327000982500209C25002080C3C901F8B504468C
:1032800016F0CAF8164A0223164D40F22B1C10689D
:103290004FF0030E23710727C4F80600A4F848C0B6
:1032A00084F854E0E7770FCDC4F80E00CD20C4F8C1
:1032B0001210D021C4F816200022C4F81A300123BD
:1032C00084F8910084F89210A4F84620A26584F84E
:1032D000932084F8942084F8213084F82430F8BDB9
:1032E000A8250020AC2500202DE9F843044616F05F
:1032F00093F8204A0221204B002510684FF0D00C93
:1033000092884FF0DA0EC4F806000327628140F27B
:103310007F1921714FF0CD08A4F8489084F891806E
:1033200084F892C084F893E084F89C7084F8547018
:10333000A4F84650A56584F8945007CBC4F816202D
:103340001A889B78C4F80E0004F19D0023770123AE
:10335000C4F81210294662835D22E37784F8213095
:1033600084F8243016F060F984F8FB5084F8FC509F
:10337000BDE8F883BC250020C42500202DE9F041DC
:10338000054616F049F8254A0226254B40F28F1CC7
:1033900010684FF0030E12790127C5F80600AA72D3
:1033A0002E71EE77D426A5F848C085F854E085F84C
:1033B00024701C4C85F8936007CB93F80080092398
:1033C000C5F80E00CD2085F81A804FF0D308C5F857
:1033D00012100021C5F816200C2285F8213085F83E
:1033E0009100114B114885F89280A5F8461085F898
:1033F0009C1085F89D10A96585F8941001E013F8DC
:10340000182C511E183312B1425C01324254A342AF
:10341000F5D1002385F85530BDE8F081D425002092
:10342000DC250020F3CC0160C3BA01609484002045
:10343000F8B5154D04462868F8B14FF4077200211D
:1034400016F0F2F8114841F288330021026807684B
:10345000204602F5FA7225683B440D4E84F8A01010
:1034600084F8A11022673360AB6D98470121094BA6
:10347000032284F86E101A70F8BD4FF4077015F02F
:10348000B3FF2860D9E700BF88540020A08E002039
:103490003C530020D88F002010B5034C206815F055
:1034A000C7FF0023236010BD88540020032907D9DB
:1034B0000B1F072B02D81131C8B27047002070478C
:1034C000084670470B290DD9A1F117030A2B06D91D
:1034D000A1F122031F2B08D81E31C8B27047023950
:1034E000C8B270470131C8B270470020704700BFB2
:1034F00070B505460C460AB990F86E20012A34D002
:10350000022A11D004EBC403194A202104EB43041E
:10351000A40004F11C032C341344224403F8011FBB
:103520009342FBD1012070BD0A21114E4C23114A58
:10353000284603FB046383F83C102B68D3F8E4307F
:1035400093420FD1FFF7BEFF02464C232146284687
:1035500003FB046484F830202B68D3F8F4309847D8
:10356000002070BD98470246EFE70821DDE700BF65
:10357000C07C0020C534006010B584B00C460A221F
:103580000146684615F05CFF6946204615F020FFAD
:10359000684616F029F804B010BD00BF542905D8BC
:1035A000012A18460BD0074915F0FEBF5C2903D944
:1035B0001846054915F0F8BF19461046DCE70349DF
:1035C00015F0F2BF542500209C330020A02F0020CE
:1035D00090F8A93090F8A8101BB111B1184615F059
:1035E0004FBF704770B590F851308CB00E461546FD
:1035F0003BB30446502104A815F07EFFB4F84C10EC
:103600000A22684615F01CFF694604A815F05CFF05
:1036100004460A22314608A815F012FF08A92046E0
:1036200015F052FF0146284615F0D2FE08A815F005
:10363000DBFF684615F0D8FF04A815F0C1FE0CB0FA
:1036400070BD502104A815F057FF0A22314608A882
:1036500015F0F6FE08A904A815F036FF074915F085
:1036600027FF0146284615F0B3FE08A815F0BCFF59
:1036700004A815F0A5FE0CB070BD00BF28250020E1
:10368000072930B5154689B005D91049104615F0FF
:103690008BFF09B030BD0C4668460D4915F0C0FFE0
:1036A0000A22611C04A815F0CBFE04A9684615F097
:1036B0000BFF0146284615F08BFE04A815F094FF79
:1036C000684615F07DFE09B030BD00BFEC24002037
:1036D000EC250020072930B5154689B005D91049D9
:1036E000104615F061FF09B030BD0C4668460D4923
:1036F00015F096FF0A22611C04A815F0A1FE04A98A
:10370000684615F0E1FE0146284615F061FE04A862
:1037100015F06AFF684615F053FE09B030BD00BFD2
:10372000EC24002018250020032930B50C4689B070
:1037300015461FD90B0617D41349684615F070FFBC
:10374000214604A815F034FF04A9684615F0BCFE14
:103750000146284615F03CFE04A815F045FF6846D2
:1037600015F02EFE09B030BD0849104615F01CFFBB
:1037700009B030BDC1EBC10405491046214415F024
:1037800013FF09B030BD00BFF4250020EC2300205A
:1037900034DC016030B590F851308DB014462BB355
:1037A0000D460A22B0F84C10684615F049FE6946ED
:1037B00008A815F0CDFD0A22294604A815F040FE00
:1037C00004A908A815F080FE144915F071FE014601
:1037D000204615F0FDFD04A815F006FF08A815F019
:1037E000EFFD684615F000FF0DB030BD0A2208A8B5
:1037F00015F026FE08A904A815F0AAFD04A808499A
:1038000015F056FE0146204615F0E2FD04A815F01D
:10381000D7FD08A815F0E8FE0DB030BD2825002022
:10382000F8250020052930B50C4689B0154618D971
:10383000184904A815F0F4FE0A22611F684615F025
:10384000FFFD694604A815F03FFE0146284615F025
:10385000BFFD684615F0C8FE04A815F0B1FD09B01B
:1038600030BD0D49684615F0DBFE214604A815F071
:103870009FFE04A9684615F027FE0146284615F06C
:10388000A7FD04A815F0B0FE684615F099FD09B033
:1038900030BD00BF04260020FC25002030B589B0D3
:1038A00005460C460B4904A815F0BAFE29466846A1
:1038B00015F07EFE694604A815F006FE0146204676
:1038C00015F0CAFE684615F08FFE04A815F078FDC5
:1038D00009B030BDF42500204BB20846002B01DDB5
:1038E0001146DBE71046014915F046BDEC230020E8
:1038F0000F290B4608D95F2903D91046054915F051
:103900003BBD11461846C9E70349104601EB0311B8
:1039100015F032BDEC2300200CE901604B1E072B93
:1039200030B50C4689B0154629D909293FD00A2956
:1039300042D00B2945D00C2948D0A1F10D03722BA0
:1039400005D91046244915F017FD09B030BD2349AB
:10395000684615F065FE214604A815F029FE04A965
:10396000684615F0B1FD0146284615F075FE04A81D
:1039700015F03AFE684615F023FD09B030BD184930
:1039800004A815F04DFE2146684615F011FE694663
:1039900004A815F099FD0146284615F05DFE68461D
:1039A00015F022FE04A815F00BFD09B030BD10463D
:1039B0000C4915F0E1FCC8E710460B4915F0DCFC9A
:1039C000C3E71046094915F0D7FCBEE71046084981
:1039D00015F0D2FCB9E700BFEC230020F42500204D
:1039E000102600201C260020282600203826002033
:1039F00044260020074B03EB8000B0F83806B0F5F2
:103A0000004F04D3C0F30E0000F10070704700F1C6
:103A1000C050704748FC016003682DE9F047D3F8B7
:103A200030310446DFF8308115460E46434552D109
:103A3000FDF790FE07464345294620463ED1FDF757
:103A400089FE002E3DD0731EDBB203EB430C99467A
:103A5000C3EBCC0C0CF1080C5FFA8CFCBDB3013D40
:103A6000EDB205EB4503AA46C5EBC3030833DBB251
:103A700003F11708C3EB0C0C5FFA88F8E11803EBAD
:103A80000C02013354FA82F291F83B51DBB292F806
:103A90003BE1434581F83BE182F83B51EED19FB3D6
:103AA000BAF1070F4DD9E0B1B9F1070F39D90023A9
:103AB00084F86D6084F8FC31BDE8F0879847002EEB
:103AC000C1D14FF0FF094FF0080C002DC7D14FF0C6
:103AD000FF0A0823CCE7984723680746D3F830311C
:103AE000A9E7B9F1070FE2D8012294F8413184F82F
:103AF0006D6002FA09F923EA090384F841310023D1
:103B000084F8FC31BDE8F087BAF1070FCBD8012269
:103B100094F8413102FA0AFA23EA0A0384F841319F
:103B2000C1E7012394F8412184F86D6003FA09F993
:103B300042EA090384F84131002384F8FC31BDE8EE
:103B4000F087012394F8412103FA0AFA42EA0A03B2
:103B500084F84131A7E700BF551700600B390529EC
:103B600006D8DFE801F006090C0F120380F86D2477
:103B7000704780F86824704780F86B24704780F89D
:103B80006924704780F86C24704780F86A24704775
:103B90000E4903460E4A08688988F0B4C3F8060047
:103BA000002759810626922583F8907083F89D603E
:103BB00083F89E5003CAC3F80E0010889278C3F8A9
:103BC0001210D8821A76F0BC704700BF7826002009
:103BD000B0240020154BA3FB0123DB0803EB830279
:103BE000DBB2A1EB420110B490F8AD40184489B2A9
:103BF00090F8A620A4B1022A0FD802EB82020C484A
:103C00000C4C01EB420154F823305DF8044B00EBFF
:103C10008101B1F8D406184470470532D2B2ECE7FE
:103C200002EB82020248044CEBE700BFCDCCCCCCC7
:103C300048FC0160AC060020B80600200A7ACB7967
:103C4000120470B402EB03624E7A8C7A02EB062304
:103C5000094D2344AB420AD0084A934205D1CA7A9F
:103C6000002380F89D2080F8573070BC7047CB7AD5
:103C700070BC80F89C3070470030006000380060F5
:103C800030B42F4A1A2390F8AD4003FB012344BB04
:103C9000B3F81A39512B36D0522B37D01D0403D527
:103CA000C3F30E0343F4803303F180531A2505FB5D
:103CB000012191F82D298AB102F00F0102F0F002E2
:103CC0000844102A90F8A51026D0202A06D144BB1B
:103CD000042930D0052901D103F20123184630BC54
:103CE0007047B3F81C59512D0AD0522D11D02B0416
:103CF00003D5C5F30E0545F48035124B2B44D5E7AB
:103D0000114830BC7047114830BC7047104830BC77
:103D10007047104830BC70470129DFD103F20620FC
:103D2000EFE7042904D00529D8D103F5FA70E8E7B4
:103D300003F1F200E5E703F581731846CFE700BF12
:103D400070A70160000002103F1008003F10010042
:103D5000211001002110080030B490F852409DF865
:103D600008501CB190F82240AC4201D030BC7047E2
:103D700090F821409C42F9D1A1B10C4B9C305024C9
:103D800003F23B1505E0AB4200F10100EED013F861
:103D9000154CA14203F11503F5D1141C18BF0124E1
:103DA0000470F0E780F85020E0E700BF6EAF0160DC
:103DB0000022036810B50446C0F8CC201B6E98475B
:103DC000236820469B6D9847014B03221A7010BD53
:103DD000D88F002090F8A4306BB990F8A13003EB95
:103DE0008303074A01EB430302EB8303B3F8B408F0
:103DF00000F1C050704790F8A2200432D3B2EEE731
:103E000048FC01604A7A0B7A120470B402EB036238
:103E10008E7ACC7A02EB0623094D2344AB420AD0BA
:103E2000084A934205D10A7B002380F89D2080F840
:103E3000573070BC70470B7B70BC80F89C3070476B
:103E400000100020040800200A7ACB79120470B414
:103E500002EB03624E7A8C7A02EB0623144D234464
:103E6000AB4215D0134A93420DD0134A934214D15A
:103E70004B7D80F89F30CB7A80F8A1300B7C80F8A6
:103E8000A23070BC7047CB7A70BC80F89E3070470F
:103E9000CB7A70BC80F89D307047084A9342F0D1CD
:103EA000CA7A002380F8A02080F8573070BC704791
:103EB0000320001803210018001000183202001817
:103EC000094A92F82D20042A00D0704790F8562015
:103ED000002AFAD190F855100029F6D0016880F830
:103EE0005520CB6C184700BF2C8400200E4A437924
:103EF000127801339A4201D00020704790F8AC301C
:103F0000FF2B08D0094A4C2000FB01214A8ED10822
:103F1000B1EB530F01D001207047B3EB920F0CBFF0
:103F200001200020704700BF888F0020C07C002047
:103F30000E4A4379127801339A4201D0002070472B
:103F400090F8AE30FF2B08D0094A4C2000FB01212D
:103F50004A8ED108B1EB530F01D001207047B3EB6B
:103F6000920F0CBF01200020704700BF888F0020F7
:103F7000C07C00200E4A4379127801339A4201D066
:103F80000020704790F89D30FF2B08D0094A4C2044
:103F900000FB01214A8ED108B1EB530F01D0012063
:103FA0007047B3EB920F0CBF01200020704700BF99
:103FB000888F0020C07C0020134A43791278013397
:103FC0009A4201D00020704790F8A820FF2A19D00B
:103FD0000E480F4B10B54C2404FB01010D48498ECF
:103FE000A0FB02E4A3FB01E35B08B3EB540F01D099
:103FF000012010BDA0FB0131B2EB510F0CBF01201D
:10400000002010BD01207047888F0020C07C002058
:10401000398EE338ABAAAAAAF0B590F851300F4612
:1040200091B005461646B0F84C10002B39D02E4CF6
:104030000A2208A8A4FB0131C90815F001FA08A951
:104040000CA815F085F9B5F84C100A2204A8A4FBB9
:104050000134E40804EB8404A1EB440189B215F0B7
:10406000EFF904A90CA815F02FFA04460A223946E4
:10407000684615F0E5F96946204615F025FA01462F
:10408000304615F0A5F9684615F0AEFA04A815F00B
:10409000ABFA0CA815F094F908A815F0A5FA11B020
:1040A000F0BD0A2204A815F0CBF904A90CA815F05C
:1040B0004FF90A22394608A815F0C2F908A90CA838
:1040C00015F002FA094915F0F3F90146304615F0EA
:1040D0007FF908A815F088FA0CA815F071F904A862
:1040E00015F082FA11B0F0BDCDCCCCCC2825002043
:1040F000F0B590F851300F4691B005461646B0F82D
:104100004C10002B39D02E4C0A2208A8A4FB0131F8
:10411000C90815F095F908A90CA815F019F9B5F812
:104120004C100A2204A8A4FB0134E40804EB840424
:10413000A1EB440189B215F083F904A90CA815F08C
:10414000C3F904460A223946684615F079F96946EA
:10415000204615F0B9F90146304615F039F96846A0
:1041600015F042FA04A815F03FFA0CA815F028F94A
:1041700008A815F039FA11B0F0BD0A2204A815F00C
:104180005FF904A90CA815F0E3F80A22394608A83B
:1041900015F056F908A90CA815F096F9094915F07B
:1041A00087F90146304615F013F908A815F01CFAF6
:1041B0000CA815F005F904A815F016FA11B0F0BD19
:1041C000CDCCCCCC2825002070B590F851308CB0E7
:1041D0000E46154653B30446552108A815F08CF930
:1041E000B4F84C100A2204A815F02AF904A908A86A
:1041F00015F06AF904460A223146684615F020F99E
:104200006946204615F060F9164915F051F9014646
:10421000284615F0DDF8684615F0E6F904A815F013
:10422000E3F908A815F0CCF80CB070BD552108A82A
:1042300015F062F90A22314604A815F001F904A923
:1042400008A815F041F9084915F032F90146284649
:1042500015F0BEF804A815F0C7F908A815F0B0F8D5
:104260000CB070BD302500202C25002090F89C302B
:10427000C1EBC101D3B1244B03EB8101B1F8BA39D1
:1042800003F47042B2F5204F1AD020D8B2F5004F97
:1042900035D0B2F5104F27D190F875111B4A03F0B5
:1042A0000F0332F81100184480B27047164B03EB2D
:1042B0008101B1F8B83903F47042B2F5204FE4D16E
:1042C00090F87621012A14BF07212921E6E7B2F5EB
:1042D000304F0CD0B2F5404F06D190F87721012A2B
:1042E00014BF07212921D9E74FF6FF70704790F8D6
:1042F00078213AB1012A14BF25212821CEE790F870
:104300007311CBE70221C9E77896016008540020B9
:1043100089291FD8F8B5CF001D4E90F89D507A1A04
:1043200006EB820292F8D229AA4211D80C46FFF776
:104330009DFF4FF6FF7398420ED0B0F5877F07D2EE
:10434000144BC0EBC00003EB400090F8CD09F8BD62
:104350000020F8BD00207047022D03D9282C01D180
:104360001A20F8BD182C07D0472C05D03C1B06EBB3
:10437000840696F8BC09F8BD012D03D9022D03D19E
:104380002520F8BD2420F8BD032DEFD12720F8BD4E
:104390007896016048FC01607B4BC1EBC10103EBE7
:1043A000810190F89D3091F8D2299A423ED870B49C
:1043B00090F89C40B4B1B1F8BA1901F47042B2F56A
:1043C000104F00F0BF8058D9B2F5304F63D0B2F52E
:1043D000404F00F08780B2F5204F7CD001F1C04003
:1043E00070BC7047B1F8B81901F47042B2F5104FC3
:1043F00000F08A801CD9B2F5304F4CD0B2F5404F56
:1044000000F0AB80B2F5204FE8D1604D604C90F8E1
:104410007621002A62D0022B8CBF00230123002BBF
:104420005CD1012A00F0AC801846D9E70020704723
:10443000B2F5E04F46D0B2F5004FCFD190F87301FE
:10444000544DC200AB18B3F898372A4401F00F005E
:1044500092F89E27904232DA184480B2020604D5C0
:1044600047F67F73034003F58070002C7FD1B0F5D1
:10447000127F65D000F1C040B2E7B2F5E04F21D025
:10448000B2F5004FAAD190F87301424DC200AB18AB
:10449000B3F89C37D9E790F8783101F00F003D4A26
:1044A00003EB430302EB430393F8EC28904206DA54
:1044B0005CB1B3F8EA3803F1C043184490E7002038
:1044C00070BC7047C1F30B008AE7B3F8E83803F11A
:1044D000C043184484E7304D304C98E701F00F009A
:1044E00020447DE71E261325022B90F8774107D93B
:1044F000B4FA84F252091AB9012C3DD010466FE784
:1045000001F00F0028446BE790F87521214DD3008E
:10451000EA18B2F89A271D4401F07F0095F89E37FB
:104520009842CCDA104480B2030604D547F67F7374
:10453000034003F58070ACB940F25443984299D1DE
:1045400017484DE790F87521124DD300EA18B2F8DC
:104550009C2702F5007292B2DDE74FF4886640F2C4
:104560003345C1E7B0F5577F84D10E4838E7B0F541
:10457000AE7F7FF47FAFF8E701F00F0398192FE7C4
:1045800001F00F0358192BE77896016031010060A4
:1045900005110060400D02604D00006042000060A7
:1045A00018070060710500608929F8B50C461746A8
:1045B000064618D9C4EBC404174996F89D30A400E8
:1045C0000A1992F8D2299A4207D82144384601F6AE
:1045D000BD11BDE8F84014F0E7BF38460F49BDE80B
:1045E000F84014F0E1BFFFF741FE4FF6FF730546B8
:1045F0009842DFD0E1B23046FFF7CEFE0028ECD083
:10460000C5EBC5050649384601EB4501BDE8F84054
:10461000023114F0C9BF00BF78960160EC2400207D
:10462000140602605C2920D8542938B513D91546E0
:104630000C46811D104614F0B7FF2021284614F0C7
:10464000FFFF0A4BC4EBC401284603EB4101BDE860
:10465000384014F0A9BF054BC1EBC101104603EB74
:104660004101BDE8384014F09FBF70473C1602601E
:1046700090F86D3003B9704730B50D4685B00446EB
:104680002D21284614F0DCFF94F86D10684614F0D4
:104690008FFF6946284614F09BFE684614F0A4FF7D
:1046A00005B030BD90F86D3003B9704730B50D4698
:1046B00085B004462D21284614F0C2FF94F86D10F1
:1046C000684614F075FF6946284614F081FE684676
:1046D00014F08AFF05B030BD90F8522080F85520C4
:1046E00002B970470268018D536D184790F8513038
:1046F000ABB1B0F84C3013B909B900207047B0F82D
:10470000482003EB8303B0F8460001EB4301131A82
:104710000133B3EB810FACBF012000207047B0F82C
:10472000483001EB8101B0F846209B1A0133B3EB0E
:10473000C10FACBF01200020704700BF90F86E3061
:1047400093B10133DBB2032B88BF012380F86E30B5
:10475000036810B5D3F808310C4698470349044B59
:1047600001220C701A7010BD704700BFD68F002058
:10477000D88F002090F8513063B1B0F84C20B0F8D9
:10478000463003EBC200084480B200B970470138DC
:1047900080B27047B0F84C30B0F8460003EB8303AA
:1047A00001EB430100EBC10188B2704790F8513032
:1047B0009BB190F89020B0F84C30012A0CBF042037
:1047C000082023B9884234BF002001207047481ECA
:1047D00007288CBF002001207047B0F84C30B0F89B
:1047E000482003EB830310B4B0F8464001EB4300CC
:1047F000131B5DF8044BB3EBC00FACBF01200020CE
:10480000704700BF90F851309BB1B0F84C3013B9ED
:1048100009B900207047B0F8482003EB8303B0F8D3
:10482000460001EB4301101A8142CCBF0020012059
:10483000704730B4B0F84C506424B0F848300A22C5
:10484000B0F8460004FB05F412FB01411B1A994223
:1048500030BCCCBF00200120704700BF037900228C
:10486000022B80F8532000D0704790F85230002B74
:10487000FAD1012380F8221080F89C30704700BFE5
:1048800090F85130A3B1B0F84C3013B909B90020F9
:104890007047B0F8482003EB8303B0F8460001EB03
:1048A0004301131AB3EB810FACBF01200020704706
:1048B000B0F8483001EB8101B0F846209B1AB3EB09
:1048C000C10FACBF01200020704700BF4B1E072B5B
:1048D00008D890F86D308B4204D0034B012280F849
:1048E0006D101A70704700BFD78F002090F8A3207A
:1048F00002B970470368D3F8943018470379022B44
:1049000001D008467047002300F19C02F0B41C4619
:1049100001E05D2B0CD012F8015FDFB2661C0133A1
:10492000002DF6D0A142F4B2F3D1B8B2F0BC70477A
:104930004FF6FF70F0BC7047A1F10C03032B01D8B8
:10494000802070470368074AD3F8B830934210B507
:104950000C4605D11420844234BF0220002010BD33
:104960009847F8E7CD180060036810B5D3F8B83061
:1049700082B00F4CA34214D15D20884206D8104665
:104980000C4902B0BDE8104014F0F6BC0A4BC1EB74
:10499000C101104603EB410102B0BDE8104014F024
:1049A000EBBC8DE8060098479DE80600E5E700BFF0
:1049B000591600609C3300203C16026003680B4AC5
:1049C000D3F8B830934205D1082088428CBF02202A
:1049D0000020704700B583B0019198470199884243
:1049E0008CBF0220002003B05DF804FBA11600601C
:1049F000F8B5044614F010FD1B4902251B4B01229B
:104A000008684FF0620C09794FF0030EC4F80600F5
:104A10000527A17204262571CD25A4F848C084F885
:104A200054E0A765E67784F8915084F8212084F853
:104A3000562003CBC4F8121019889B78C4F80E00D6
:104A4000D020E182D1212376002384F8920084F8DB
:104A50009310A4F8463084F89C3084F89D3084F894
:104A6000243084F89430F8BD802600208826002069
:104A7000036810B5D3F8B83082B00F4CA34215D1FB
:104A80002F20884206D810460C4902B0BDE81040DD
:104A900014F072BC0A4B01EB4101104603EBC1015B
:104AA000093102B0BDE8104014F066BC8DE8060084
:104AB00098479DE80600E4E7A51600609C330020B7
:104AC00078960160F0B504688BB03B4F1646D4F879
:104AD000B8501C46BD422FD12F20884226D901EB69
:104AE0004101364800EBC101898A0BB2002B4BDD36
:104AF00047F61643994223D047F6174399424CD0C4
:104B000047F61543994221D08A192D4906A8013A42
:104B100002EBC202114414F017FD06A9204614F05E
:104B200057FC06A814F060FD0BB0F0BD20462549E7
:104B300014F03AFD0BB0F0BD0191A8470199CCE704
:104B400071000A2206A814F07BFCE6E73F2E26D966
:104B5000402E2BD0EED91C4906A814F061FDA6F119
:104B600032010A2202A814F06BFC02A906A814F074
:104B7000ABFC0146204614F02BFC02A814F034FDD7
:104B800006A814F01DFCD5E7012E20460CBF0F49E6
:104B90000F4914F009FD0BB0F0BD3146D1E70D49C6
:104BA00006A814F03DFDC6F13201DAE720460A49B5
:104BB00014F0FAFCBEE700BFA5160060789601600D
:104BC000541B02609C330020742C0020A02F002076
:104BD000542500204C25002050250020036810B5E6
:104BE000D3F8B83082B00F4CA34215D130208842A0
:104BF00006D810460C4902B0BDE8104014F0BCBB0A
:104C00000A4B01EB4101104603EBC101093102B02F
:104C1000BDE8104014F0B0BB8DE8060098479DE851
:104C20000600E4E7311700609C330020E09A016041
:104C3000F0B504688BB0394F1646D4F8B8501C460E
:104C4000BD4229D13020884220D901EB41013448AE
:104C500000EBC101B1F87C140BB2002B49DD47F623
:104C6000154399421CD03AD347F61743994236D898
:104C700031460A2206A814F0E3FB06A9204614F0E8
:104C8000A7FB06A814F0B0FC0BB0F0BD20462549E8
:104C900014F08AFC0BB0F0BD0191A8470199D2E74E
:104CA0003F2E2FD9402E34D0F4D91F4906A814F036
:104CB000B7FCA6F132010A2202A814F0C1FB02A936
:104CC00006A814F001FC0146204614F081FB02A85E
:104CD00014F08AFC06A814F073FB0BB0F0BD8A191F
:104CE000124906A8013A02EBC202114414F02CFC4E
:104CF000C3E7012E20460CBF0D490E4914F054FCA9
:104D00000BB0F0BD0C4906A814F08AFCC6F13201C4
:104D1000D1E72046094914F047FCBBE73117006092
:104D2000789601609C330020742C0020D82102600A
:104D3000A02F0020542500204C25002050250020C5
:104D4000036810B5D3F8B8300C460F4982B08B42D7
:104D500015D11020A04206D810460C4902B0BDE87B
:104D6000104014F009BB04EB44030949104604EB5E
:104D70008304214402B0BDE8104014F0FDBA019252
:104D80009847019AE6E700BFF91900609C330020BC
:104D9000609F016030B5046885B00E4DD4F8B8400E
:104DA000AC4210D11020884206D818460A4905B0F6
:104DB000BDE8304014F0F8BB1946104605B0BDE818
:104DC0003040FEF7D9BB039302920191A04701A99D
:104DD0000EC9E8E7F919006094260020036810B5B1
:104DE000D3F8B83082B00E4CA34212D114208842BE
:104DF00006D810460B4902B0BDE8104014F0BCBA0A
:104E0000094B104603EB011102B0BDE8104014F04D
:104E1000B3BA8DE8060098479DE80600E7E700BFB3
:104E2000CD1800609C3300201CCD016030B50468B3
:104E300085B00E4DD4F8B840AC4210D11420884251
:104E400006D818460A4905B0BDE8304014F0ACBB9E
:104E50001946104605B0BDE83040FEF78DBB039300
:104E600002920191A04701A90EC9E8E7CD180060A0
:104E7000942600202DE9F041044614F0CDFA2F4A83
:104E800004212F4D02271068002612794FF09E084A
:104E9000C4F806004FF0030C84F89D104FF0DB0EB1
:104EA000A272284B2771E777DD2784F89C6084F88D
:104EB000246084F8936084F89460A4F8488084F8AF
:104EC00054C084F891E084F8927007CDC4F80E00C5
:104ED0000520C4F812100121C4F8162003F6187535
:104EE000A0650B221848A4F8461084F8211001E0B0
:104EF00013F81C2C511E1C3312B1425C0132425477
:104F0000AB42F5D1292240F20D13104E4FF6FF753A
:104F10000F4801E092F8CC29591E26F812308BB2C6
:104F2000C3EBC302AB4200EB4202F3D10023C4F84F
:104F3000843184F87731BDE8F08100BF98260020E5
:104F4000A026002065A001605C54002008540020C9
:104F500048FC0160F8B503680646464D0C46D3F898
:104F6000B8301746AB425CD18A20A04246D9892C82
:104F700059D821463046FFF779F94FF6FF730546B9
:104F8000984250D096F89C30C4EBC4042BB33A4BF3
:104F900003EB8404B4F8BA3903F47043B3F5204F3B
:104FA00025D031D8B3F5004F50D0B3F5104F5CD1B8
:104FB0003249384614F0E0F996F87521C5EBC5057D
:104FC0002F496D004B1993F8CC39934245D03846A0
:104FD0002C49BDE8F84014F0E7BA274B03EB8404F2
:104FE000B4F8B83903F47043B3F5204FD9D196F82B
:104FF0007631012B14BF07222922DFE738462249E8
:10500000BDE8F84014F0B8B9B3F5304F16D0B3F599
:10501000404F2AD196F87731012B14BF072229225D
:10502000CCE79847A1E7C4EBC404184B384603EB20
:105030008401BDE8F840053114F09EB996F8783146
:10504000ABB1012B0CBF28222522B7E71049384607
:1050500014F092F996F87321B0E72944384601F626
:10506000CE11BDE8F84014F09FBA0022A6E7022254
:10507000A4E700BF911900607896016058250020D0
:1050800048FC0160EC2400209C33002030A001602B
:10509000AC260020F0B515460268DFF8B8E21E46DF
:1050A000D2F8B83089B007460C4673452DD18A2016
:1050B000A04224D9892C2AD838462146FFF7D6F8B1
:1050C0004FF6FF73984222D0904BC0EBC00003EB29
:1050D0004000B0F8D82913B2002B22DD8C4B1344CA
:1050E000092B00F2E980DFE813F033005400AC0034
:1050F0007C00810056006B00C300E20025003046B2
:10510000844914F051FA09B0F0BD9847D0E7824BBA
:10511000C4EBC40403EB8404B4F8CE2913B2002B0F
:10512000DCDC012D30460CBF7C497D4914F03CFA93
:1051300009B0F0BD29460A2204A814F081F904A997
:10514000304614F045F904A814F04EFA09B0F0BD49
:10515000182D00F2C780B5F118014FF00A0204A81B
:1051600048BFA5F11701491014F06AF904A93046A7
:1051700014F02EF904A814F037FAEB07304654BFA8
:105180006849694914F010FA3046684914F00CFA7D
:10519000B9E7691CCFE7142D00F2A9800A22A5F116
:1051A000140104A814F04CF904A9304614F010F9C5
:1051B00004A814F019FA30465C4914F0F5F9A2E796
:1051C00029460A2204A814F03BF904A9304614F039
:1051D000FFF804A814F008FA3046554914F0E4F931
:1051E00091E7182D79D8A5F11801A4E70135514CA4
:1051F0000A2204A8ADB2A4FB0534E408214604EB5E
:10520000840414F01DF904A9304614F0E1F804A850
:1052100014F0EAF94849304614F0C6F90A22A5EB21
:10522000440104A889B214F00BF904A9304614F023
:10523000CFF804A814F0D8F93046404914F0B4F976
:1052400061E70A22690804A805F0010514F0F8F8DE
:1052500004A9304614F0BCF804A814F0C5F9364986
:10526000304614F0A1F904A8A9000A222944AAE7AB
:105270003F2D2BD9402D44D07FF645AF304904A8AF
:1052800014F0CEF9A5F132010A22684614F0D8F8DC
:10529000694604A814F018F90146304614F098F84D
:1052A000684614F0A1F904A814F08AF82BE7322D0F
:1052B00022D8A5F132013EE72A44224904A8013A46
:1052C00002EBC202114414F03FF938E71E4904A86A
:1052D00014F0A6F9C5F13201D6E71C49304614F0A6
:1052E00063F980E71949304614F05EF933E717494E
:1052F000304614F059F951E71449304614F054F986
:10530000D7E73046124914F04FF9FCE648FC01603B
:10531000F283FFFF9C33002078960160A02F0020CD
:1053200054250020C0260020C4260020BC260020D2
:10533000B4260020CDCCCCCCDC320020C826002006
:10534000742C0020E42702604C250020B8260020A1
:105350005025002091190060036810B5D3F8B830CB
:105360000C460F4982B08B4215D11020A04206D8BE
:1053700010460C4902B0BDE8104013F0FDBF04EB2D
:10538000440309491046C4EBC304214402B0BDE8FC
:10539000104013F0F1BF01929847019AE6E700BF71
:1053A000F91900609C3300205CCE0160F8B5A1F1D2
:1053B0000E05012D1DD91D4603681746114AD3F865
:1053C000B8300C4693421AD110208442284606D2A7
:1053D000012F09D00C49BDE8F84014F0E5B80B499D
:1053E000BDE8F84014F0E0B80949BDE8F84014F011
:1053F000DBB819461046BDE8F840FEF7BDB898473F
:10540000E3E700BFF9190060CC26002094260020B5
:10541000A02F0020F8B5044613F0FEFF174902251F
:10542000174B4FF0470C08684FF0030E898805278B
:10543000C4F8060006266181D02225710125A4F852
:1054400048C084F854E0A765E67784F8215084F8D2
:10545000922003CB1B88C4F80E00E520E3820023D2
:10546000C4F8121084F89100A4F8463084F824306F
:1054700084F8933084F89430F8BD00BFD82600201B
:10548000D4260020036810B5D3F8B83082B00F4C92
:10549000A34214D10920884206D810460C4902B014
:1054A000BDE8104013F068BF0A4B01EB81011046C4
:1054B00003EB410102B0BDE8104013F05DBF8DE881
:1054C000060098479DE80600E5E700BFB51A0060B2
:1054D0009C330020CCCF016030B5046885B00E4D00
:1054E000D4F8B840AC4210D10920884206D81846FA
:1054F0000A4905B0BDE8304014F056B819461046C8
:1055000005B0BDE83040FEF737B803930292019131
:10551000A04701A90EC9E8E7B51A0060942600204B
:10552000036810B5D3F8B83082B00F4CA34215D140
:105530000F20884206D810460C4902B0BDE8104042
:1055400013F01ABF01EB4101094B1046C1EBC10139
:10555000194402B0BDE8104013F00EBF8DE80600FC
:1055600098479DE80600E4E7C51A00609C330020D8
:1055700048AF016030B5046885B00E4DD4F8B8402E
:10558000AC4210D10F20884206D818460A4905B00F
:10559000BDE8304014F008B81946104605B0BDE823
:1055A0003040FDF7E9BF039302920191A04701A9A2
:1055B0000EC9E8E7C51A006094260020036810B5FC
:1055C000D3F8B8300C460E4982B08B4214D1632018
:1055D000A04206D810460B4902B0BDE8104013F0B7
:1055E000CBBE094B1A21104601FB04310B3102B02E
:1055F000BDE8104013F0C0BE01929847019AE7E75A
:10560000851B00609C33002084B00160036810B5E6
:10561000D3F8B83082B00E4CA34213D1192088427F
:1056200006D810460B4902B0BDE8104013F0A4BEE6
:10563000094B01EB01111046194402B0BDE81040BE
:1056400013F09ABE8DE8060098479DE80600E6E74D
:10565000F51B00609C3300207407002030B50468FF
:1056600085B00E4DD4F8B840AC4210D11920884214
:1056700006D818460A4905B0BDE8304013F094BF7B
:105680001946104605B0BDE83040FDF775BF0393DD
:1056900002920191A04701A90EC9E8E7F51B00603D
:1056A00094260020036810B5D3F8B83082B00F4CB0
:1056B000A34215D1B020884206D810460C4902B04A
:1056C000BDE8104013F058BE0A4B01EB41011046F3
:1056D00003EBC101033102B0BDE8104013F04CBE32
:1056E0008DE8060098479DE80600E4E7551C006039
:1056F0009C33002094BA0160F0B504688BB03B4F36
:105700001646D4F8B8401D46BC422FD1B02088427E
:1057100026D901EB4101364800EBC101B1F8401236
:105720000BB2002B4ADD47F61643994222D047F6CA
:10573000174399424BD047F61543994220D0314444
:105740002C4B06A8013903EBC10113F0FDFE06A99D
:10575000284613F03DFE06A813F046FF0BB0F0BD3F
:105760002846254913F020FF0BB0F0BD0191A0475A
:105770000199CCE771000A2206A813F061FEE6E762
:10578000312E26D9322E2BD0EED91C4906A813F083
:1057900047FFA6F132010A2202A813F051FE02A926
:1057A00006A813F091FE0146284613F011FE02A848
:1057B00013F01AFF06A813F003FED5E7012E2846C2
:1057C0000CBF0F490F4913F0EFFE0BB0F0BD31468F
:1057D000D1E70D4906A813F023FFC6F13201DAE73D
:1057E00028460A4913F0E0FEBEE700BF551C0060E2
:1057F00068B80160543302609C330020742C002090
:10580000A02F0020542500204C25002050250020EA
:1058100003680B4AD3F8B830934205D1062088427A
:105820008CBF02200020704700B583B001919847DB
:10583000019988428CBF0220002003B05DF804FB70
:10584000151D0060F8B5044613F0E6FD194A022361
:10585000194D4FF0310E1068032723710023C4F84F
:105860000600A4F848E084F85470A4F8463084F8A0
:10587000243084F8923084F8933084F8943084F89B
:105880003E31236707CDB5F800C0C4F80E000120F3
:10589000C4F81210CF21C4F816200522AD78A4F860
:1058A0001AC0257784F8210084F89110A265E27768
:1058B000F8BD00BFF4260020F8260020A1F10E025A
:1058C000012A01D8802070470368074AD3F8B8300E
:1058D000934210B50C4605D11020844234BF0220FB
:1058E000002010BD9847F8E7F9190060028D8A4240
:1058F00008B503460AD001205A85198583F83F016F
:1059000001230649064A0B70137008BD0368054A57
:10591000D3F894309342F3D09847F1E7DF4A002060
:10592000D78F0020A103000070B515460268174EFE
:1059300088B0D2F8B8200C46B24225D190F89D002C
:10594000A04205D81249284613F016FD08B070BDD4
:105950001049684613F064FE0A22611C04A813F083
:105960006FFD04A9684613F0AFFD0B4913F0A0FDCD
:105970000146284613F070FE04A813F035FE684671
:1059800013F01EFD08B070BD9047D9E71D1D0060E3
:105990009C330020EC260020F0260020026810B581
:1059A000D2F8B82082B0074CA24207D190F89D00EF
:1059B00088428CBF0220002002B010BD01919047A8
:1059C0000199F5E71D1D006070B5056884B0104EA3
:1059D000D5F8B850B54213D190F89D0088421846CA
:1059E00008D9012A0CBF0B490B4904B0BDE870402F
:1059F00013F0DABD094904B0BDE8704013F0D4BD1E
:105A0000039302920191A84701A90EC9E6E700BFDE
:105A10001D1D0060A02F0020542500209C33002075
:105A20002DE9F0431D4D95B081468846EC46DFF8E0
:105A300078E005AE1A4F0AAC0FCDACE80F002B682A
:105A4000184D8CF80030BEE80F000FC60FCFDEF8FF
:105A500000E03F6886F800E00FC427700FAC0FCD60
:105A600099F86E602D68012E0FC425700BD0022EA0
:105A70000ED0032E40460CBF0FA9694613F0ACFCB4
:105A800015B0BDE8F08305A9404613F0A5FCF7E783
:105A90000AA9404613F0A0FCF2E700BF442700200B
:105AA000582700206C270020802700202DE9F04394
:105AB0001C4D95B081468846EC46DFF874E005AE93
:105AC000194F0AAC0FCDACE80F002B68174D8CF8BE
:105AD0000030BEE80F000FC60FCFDEF800E03F68D1
:105AE00086F800E00FC427700FAC0FCD99F86E60F8
:105AF0002D68012E0FC425700AD0022E0DD08CBF48
:105B00000FA96946404613F067FC15B0BDE8F08365
:105B100005A9404613F060FCF7E70AA9404613F0D8
:105B20005BFCF2E794270020A8270020BC27002078
:105B3000D027002070B5054684B00E4622B35432FB
:105B400015484C230021D4B203FB060368465C864B
:105B5000C4EBC40413F0F8FCA91D684613F00CFC58
:105B60006846202113F06CFD0C49684601EB4401A6
:105B700013F01AFD6946304613F0A2FC684613F094
:105B800033FD012004B070BD90F86E20002AD6D1FC
:105B9000012004B070BD00BFC07C00203C16026034
:105BA00070B588B006460C461E496846154613F087
:105BB000CBFC1D494C230220A5F10E0203FB04136C
:105BC000012AD871F07F83F82E0009D92046694652
:105BD00013F076FC684613F007FD012008B070BD95
:105BE0000E2D1AD096F86D2083F842204C230A22FD
:105BF00004A803FB04114B7A042B0CBF91F842104C
:105C000091F84410013113F01BFC04A9684613F00D
:105C1000DFFB04A813F0E8FCD8E796F86C2083F8C3
:105C20004220E3E7D0230020C07C0020174B70B552
:105C30001E6884B0B6B102EB42030C4615466846B6
:105C4000C3EB0311314413F07FFC0B2D05D96846DB
:105C500013F0CAFC012004B070BD2046694613F061
:105C60002FFCF4E701EBC103094A202001EB4301BB
:105C7000890001F11C032C3113440A4403F8010F7D
:105C80009342FBD1012004B070BD00BF88540020B6
:105C9000C07C0020F0B585B0064614460D46684627
:105CA000264913F051FC301990F89C304BBBB4FAE4
:105CB00084F1490929BB4C22214E224B02FB056687
:105CC000A200F17186F82E10144403EB440494F8FA
:105CD000741661B190F89C204B1E1B496846134412
:105CE00003EB830203EB4203194413F05DFC2846E7
:105CF000694613F0E5FB684613F076FC012005B019
:105D0000F0BD90F8A5300E4F8BB14C23012203FB60
:105D10000573DA71A2000B4B4C21161901FB0571BA
:105D200003EB460696F8756681F82E60CCE74C23A7
:105D3000022203FB0573DA71ECE700BFD0230020D9
:105D4000C07C002060C90160FC3B026070B5064663
:105D5000154684B00C4635441149684613F0F4FBEF
:105D600095F89C30ABB10F4B4C22012102FB043261
:105D7000D1714C25F27F2046694605FB043484F836
:105D80002E2013F09DFB684613F02EFC012004B07A
:105D900070BD044B4C22022102FB0432D171E8E7B2
:105DA000D0230020C07C00202DE9F04F8BB09A4614
:105DB00004460F469DF8509002A888491546B9FA46
:105DC00089F6760913F0C0FBBAF1000F1ED1EEB1CF
:105DD000002D40F0FC80172304F20B2204F2132064
:105DE000E118013391F83B11DBB202F8011F824246
:105DF000F6D104F5037106A813F0A6FB06A810223D
:105E000002A913F0DDFB06A813F0EEFB1AF1000B5C
:105E100018BF4FF0010B002E4BD0BBF1000F48D044
:105E2000002D40F0CE80172304F20B2804F213203B
:105E30004246E118013391F83B11DBB202F8011F31
:105E40008242F6D104F5037306AE1946304601933B
:105E500013F07AFB082230460DEB020113F0B0FB81
:105E6000304613F0C1FB202102A813F0E9FB0AF130
:105E7000FF32019B02EB4201C2EBC101C9B201F149
:105E800017021F31D2B2C9B2A0180132D2B290F8B3
:105E90003B01914208F8010FF6D11946304613F044
:105EA00053FB3046072202A913F08AFB304613F059
:105EB0009BFBB9F1000F73D0BBF1000F70D0002D28
:105EC00079D1172304F20B2504F213202A46E11896
:105ED000013391F83B11DBB202F8011F9042F6D179
:105EE00006AE04F503780AF1FF3A4146304613F056
:105EF0002BFB052202A9304613F062FB304613F05B
:105F000073FB202102A813F09BFB29460AEB4A02EF
:105F1000CAEBC20A5FFA8AFA0AF117030AF11F0AEA
:105F2000DBB25FFA8AF2E0180133DBB290F83B0192
:105F30009A4201F8010FF6D14146304613F004FBB6
:105F4000052202A9304613F03BFB09F1FF39304628
:105F500013F04AFB202102A813F072FB09EB49025F
:105F6000C9EBC2095FFA89F909F1170309F11F09A1
:105F7000DBB25FFA89F2E1180133DBB291F83B1131
:105F8000934205F8011FF6D14146304613F0DCFA82
:105F90003046042202A913F013FB304613F024FB11
:105FA000384602A913F08CFA02A813F01DFB012059
:105FB0000BB0BDE8F08F05EB4503C5EBC303DBB2C7
:105FC00080E705EB4503C5EBC303DBB22CE705EB2C
:105FD0004503C5EBC303DBB2FEE600BFD0230020C0
:105FE0002DE9F047DFF8EC9190B0D9F80030002BA4
:105FF00070D016460F4680466F49684613F0A4FAE3
:106000000B2E6BD8DFF8C4A14C210220D9F8002058
:1060100001FB07A10023694CC8711D46B8F8281080
:1060200001EB4101C1EB01110A443244517D92F868
:1060300021E005E001331334712B34D014F8135CE4
:10604000A942DAB2F6D114F8120C7045F2D152B36B
:1060500003EBC3025A49684603EB4203194413F0A9
:10606000A3FA584AB8F82830A2FB0612D9F8001053
:1060700003EB43035208C3EB031302EB42000B4450
:10608000301A1A440130547CC2B2944200F0878026
:1060900033445B7D023B072B7AD8DFE803F0645D75
:1060A000726B7979795DBEF1000F02D098F85230A9
:1060B0002BBB4549684613F05FF94C23002203FBD4
:1060C00007AA8AF82E203846694613F0F9F968467F
:1060D00013F08AFA012010B0BDE8F0873B494C2349
:1060E00098F81F20464403FB071383F82E2096F8E8
:1060F000902012B10122DA71E5E7DA71E3E704A832
:1061000013F056FA04A908A813F022F908A8304998
:1061100013F0CEF9B8F82830D9F80020044603EB84
:1061200043030CA8C3EB031313441E4496F8211039
:1061300013F03EFA0CA9204613F0C6F90146684652
:1061400013F046F90CA813F04FFA08A813F038F929
:1061500004A813F049FAB0E74C23EA2203FB07AA8C
:106160008AF82E20AFE74C23E92203FB07AA8AF81E
:106170002E20A8E74C23EC2203FB07AA8AF82E2046
:10618000A1E74C23E82203FB07AA8AF82E209AE70E
:106190004C23ED2203FB07AA8AF82E2093E74C2319
:1061A000012203FB07A3DA71B8F8283003EB43039D
:1061B000C3EB03130B446BE7D0230020E3D3016050
:1061C000D2D30160ABAAAAAAEC240020C07C002094
:1061D000D8240020885400202DE9F04F8BB09A4637
:1061E00004460F469DF8509002A888491546B9FA12
:1061F00089F6760913F0A8F9BAF1000F1ED1EEB1B5
:10620000002D40F0FC80172304F2444204F24C407D
:10621000E118013391F87413DBB202F8011F8242D6
:10622000F6D104F2454106A813F08EF906A8102213
:1062300002A913F0C5F906A813F0D6F91AF1000B5C
:1062400018BF4FF0010B002E4BD0BBF1000F48D010
:10625000002D40F0CE80172304F2444804F24C4055
:106260004246E118013391F87413DBB202F8011FC2
:106270008242F6D104F2454306AE194630460193F8
:1062800013F062F9082230460DEB020113F098F981
:10629000304613F0A9F9202102A813F0D1F90AF130
:1062A000FF32019B02EB4201C2EBC101C9B201F115
:1062B00017021F31D2B2C9B2A0180132D2B290F87F
:1062C0007403914208F8010FF6D11946304613F0D5
:1062D0003BF93046072202A913F072F9304613F059
:1062E00083F9B9F1000F73D0BBF1000F70D0002D0E
:1062F00079D1172304F2444504F24C402A46E118B0
:10630000013391F87413DBB202F8011F9042F6D109
:1063100006AE04F245480AF1FF3A4146304613F012
:1063200013F9052202A9304613F04AF9304613F05A
:106330005BF9202102A813F083F929460AEB4A02EF
:10634000CAEBC20A5FFA8AFA0AF117030AF11F0AB6
:10635000DBB25FFA8AF2E0180133DBB290F8740323
:106360009A4201F8010FF6D14146304613F0ECF89D
:10637000052202A9304613F023F909F1FF3930460E
:1063800013F032F9202102A813F05AF909EB49025F
:10639000C9EBC2095FFA89F909F1170309F11F096D
:1063A000DBB25FFA89F2E1180133DBB291F87413C2
:1063B000934205F8011FF6D14146304613F0C4F868
:1063C0003046042202A913F0FBF8304613F00CF912
:1063D000384602A913F074F802A813F005F9012059
:1063E0000BB0BDE8F08F05EB4503C5EBC303DBB293
:1063F00080E705EB4503C5EBC303DBB22CE705EBF8
:106400004503C5EBC303DBB2FEE600BFD02300208B
:10641000114A4C2303FB012393F83230013BD8B2DD
:106420000A2812D901EBC10001EB4001890001F1FA
:106430001C032C3110B4134420240A4403F8014FE8
:106440009342FBD15DF8044B704703EB0313034AFF
:106450000846D11813F030B8C07C0020583F0260C5
:10646000F0B585B0144606460D466846784913F0E7
:106470006BF80CB996F86E40013C052C00F29B803D
:10648000DFE804F041535557620396F87521714FC8
:10649000BB1813F8143C002B00F0AA806E49684624
:1064A00031F812406D49013C23449CB212F064FF64
:1064B00096F87431002B00F0BA80C4EBC40468492C
:1064C000684601EB4401023113F06EF896F874311E
:1064D0001BB92921684613F0B3F86946284612F023
:1064E000EFFF96F875114C235E4A07EB4107012434
:1064F00003FB05257B7E85F82E30684613F074F883
:10650000204605B0F0BD5849284612F0D5FF554940
:106510004C23F27F012403FB0515684685F82E20E5
:1065200013F062F8204605B0F0BD5049ECE7504941
:10653000EAE796F87831002B72D0012B00F08180C9
:10654000022BE4D14B49DFE796F87321414FBB188A
:1065500013F8143C002B5FD03F49684631F81240D5
:106560004549013C23449CB212F006FF96F8723173
:10657000002B61D0C4EBC4043949684601EB4401E7
:10658000023113F011F896F872311BB929216846CF
:1065900013F056F86946284612F092FF96F87321D8
:1065A0004C23304907EB4207012403FB05157B7E92
:1065B00085F82E30A1E705EBC5022A48202105EB1E
:1065C0004202920002F11C032C320344024403F8FD
:1065D000011F9342FBD14C220023012402FB05053D
:1065E000684685F82E3012F0FFFF204605B0F0BD5A
:1065F0001C4A4C23462003FB0523346802462946E7
:10660000D4F8B44058863046A0470446684612F095
:10661000EBFF204605B0F0BD124A4C231720EAE7F5
:106620001649284612F048FF96F8783185E7282168
:10663000684613F005F840E72821684613F000F893
:1066400098E70F49284612F037FF96F8783177E738
:10665000D023002028400260085400205825002044
:1066600014060260C07C0020FC27002008280020BF
:10667000E5AC01602C280020AC2600201428002066
:1066800020280020114A4C2303FB012393F83230C9
:10669000013BD8B20B2812D901EBC10001EB40013C
:1066A000890001F11C032C3110B4134420240A4446
:1066B00003F8014F9342FBD15DF8044B704703EBA5
:1066C0000313034A0846D11812F0F6BEC07C00201E
:1066D00094400260F8B590F89C300D46934202F168
:1066E0004C0226D900EB4203134EDB8813F0010F56
:1066F0004FF04C0314BF0121022103FB0563D97144
:1067000000EB42020D4F2846D38807F6B471C3F35D
:10671000470404EBC404640021443C4412F0CCFE62
:106720004C2294F8C53F012002FB056585F82E3008
:10673000F8BD014EE4E700BFC07C002058DA0160DC
:10674000F8B590F89D300D46934202F1500224D9DD
:1067500030F81230124F13F0010F4FF04C0314BFFA
:106760000121022103FB0573D97130F8123028464C
:106770000C4EC3F3470404EB8404A40031193444E1
:1067800001F22E7112F098FE4C2294F83F3701204E
:1067900002FB057585F82E30F8BD014FE5E700BF17
:1067A000C07C002050EB016070B50AB990F86E20F3
:1067B000022A22D8012A03464FF0000414BF1226F1
:1067C0000F2603E001341133082C28D093F8A95088
:1067D000012DF7D193F8B350B542F3D104EB041473
:1067E000031993F8AB0093F8AA40000193F8AC604A
:1067F00000EB04231E44B6B212E001EBC1031C4AB5
:10680000202401EB4301890001F11C032C311344C6
:106810000A4403F8014F9342FBD1012070BDFF26CB
:10682000144C002340F22B1504E00133302B11D01F
:1068300034F8185CAE4204F11804F6D1DBB20E4A0B
:10684000084603EB430302EBC301093112F034FEA7
:10685000012070BD012A05D00846084912F02CFE1F
:10686000012070BD0846064912F026FED5E700BF9C
:10687000C07C0020FA9A0160E09A01604428002060
:106880003C280020F0B589B0144607460D466846FE
:10689000002112F059FE5C2C20D8542C34D8274407
:1068A000234E4C233E2C97F89D2003FB0563DA71A1
:1068B0001AD997F89D302846012B0CBF1D491E4957
:1068C00012F0FAFDC4EBC4041C4A4C2302EB44044E
:1068D00003FB056594F8093985F82E30684612F0F7
:1068E00083FE012009B0F0BD05EBC502202105EBB8
:1068F0004202920002F11C032C323344324403F86A
:10690000011F9342FBD1DDE727440D4904A8084E3F
:1069100012F01AFE04A997F89D0012F0E5FD284632
:1069200004A912F0CDFD04A812F05EFECAE700BF74
:10693000C07C002098290020A0290020400D026082
:10694000D023002030B585B00D460446094968467D
:1069500012F0FAFD6946284612F0C6FD6946204647
:1069600012F0AEFD044B68461C7012F03DFE05B0FF
:1069700030BD00BFD0230020D68F002070B584B07A
:10698000054616460C466846002112F0DDFD6B46B2
:10699000324695F89C10012012F0BEFD6946204653
:1069A00012F08EFD684612F01FFE012004B070BD8B
:1069B0000146012001F134030A8D91F89C1012F078
:1069C000ABBD00BF2DE9F04188B00646884634498A
:1069D000684617464FEAC82512F0B6FD328DADB2B3
:1069E0006B46013296F89C1002202A4492B212F0B3
:1069F00093FD58B30024264602E001340C2C12D03B
:106A00002146684612F090FD0378E5B2202BF4D9B8
:106A10002146684612F088FD013403787A2B98BF2E
:106A20002E460C2CECD1731C0022694604A812F0EF
:106A3000BBFC04A9384612F0CBFC04A812F0D4FD2C
:106A4000684612F0D1FD08B0BDE8F08104462A4640
:106A500096F89C106B46022012F05EFDA8B1264607
:106A600002E001340C2CDED02146684612F05CFDB9
:106A70000378E5B2202BF4D92146684612F054FD84
:106A800003787A2B98BF2E46EBE708EB08180549E8
:106A90003846414412F088FD684612F0A5FDD2E761
:106AA000D023002074070020F0B5074689B01646B1
:106AB0000C4600293CD03049684612F045FD3A8D1D
:106AC000E4026B46013297F89C10A5B203202A44D9
:106AD00092B212F021FD044678B30024274602E06A
:106AE00001340C2C12D02146684612F01DFD0378AB
:106AF000E5B2202BF4D92146684612F015FD013489
:106B000003787A2B98BF2F460C2CECD17B1C0022EB
:106B1000694604A812F048FC04A9304612F058FC5B
:106B200004A812F061FD684612F05EFD09B0F0BDE8
:106B30001249104612F038FDBDE72A4697F89C101E
:106B40006B46032012F0E8FC0028ECD0274602E058
:106B500001340C2CDAD02146684612F0E5FC0378AB
:106B6000E5B2202BF4D92146684612F0DDFC03780B
:106B70007A2B98BF2F46EBE7D0230020EC2400208F
:106B80002DE9F04794B01E4618460D461C9F9046CE
:106B900012F012FC384612F00FFC347A14B1BB68C4
:106BA0009C4206D03146404612F012FC14B0BDE8BB
:106BB000F08731466846013C12F0DEFC13E05028B5
:106BC0001ED1012D00F0E0806D08A9F13009B9F166
:106BD000090F04D8AAF1300ABAF1090F3AD914F111
:106BE000FF34C0F094802146304612F001FC81460B
:106BF0002146384612F0FCFBB9F1550F8246DED033
:106C0000B9F1500F0AD1BAF1550F07D1012DDBD1DF
:106C100055222146684612F00FFCD5E7484612F08F
:106C2000CBFC0028D1D0504612F0C6FC0028CCD0B6
:106C3000C9EB0A020132002A40F3BC8021466846B3
:106C400095FBF2F302FB13529DB24A44D2B212F00A
