:1000000000800020BD010000F9D30100C3D301002E
:10001000C3D30100C3D30100C3D30100C3D3010084
:10002000C3D30100C3D30100C3D30100F9D301003E
:10003000F9D30100C3D3010025FA000015FA00002E
:10004000F9D30100F9D30100F9D30100F9D301007C
:10005000F9D30100F9D30100F9D30100F9D301006C
:10006000F9D30100F9D30100F9D30100F9D301005C
:10007000F9D30100F9D30100F9D30100F9D301004C
:10008000F9D30100F9D30100F9D30100F9D301003C
:10009000F9D30100F9D30100F9D30100F9D301002C
:1000A0003158010025580100F9D30100F9D30100AE
:1000B000F9D30100F9D30100F9D30100F9D301000C
:1000C000F9D30100F9D30100F9D30100F9D30100FC
:1000D000F9D30100F9D30100F9D30100F9D30100EC
:1000E000F9D30100F9D30100F9D30100F9D30100DC
:1000F000F9D3010035600100F9D30100355F01003B
:10010000F9D30100695E0100F9D30100F9D30100C0
:10011000F9D30100F9D30100F9D30100F9D30100AB
:10012000F9D30100F9D30100F9D30100F9D301009B
:10013000F9D30100F9D30100F9D30100F9D301008B
:10014000F9D30100F9D30100F9D30100F9D301007B
:10015000C5F50000B1F500009DF5000087F5000031
:10016000F9D30100E5630100F9D30100F9D30100DF
:10017000F9D30100F9D30100F9D30100F9D301004B
:10018000F9D30100F9D30100F9D30100F9D301003B
:10019000F9D30100F9D30100F9D30100F9D301002B
:1001A000F9D30100F9D30100F9D30100F9D301001B
:1001B000F9D30100F9D30100F9D3010008B55B4B75
:1001C0004CF220521A804DF628121A8000BF00BF50
:1001D000102223F80E2CA3F51F43DE3B4FF01062D4
:1001E0001A60534A9A60534ADA60534A136813F408
:1001F000807301BF51490B604FF4A8531360504BFB
:1002000050491A78100742BF1A7842F008021A7053
:100210004D4B2A221A704D4A4D4B8B4204D252F854
:10022000040F43F8040BF8E74A4B4B4A0021934272
:1002300002D243F8041BFAE7484A4948002350F821
:10024000231042F8231001336F2BF8D1454B464A57
:10025000802103F8011B9342FBD1444B3F4A1A60B3
:10026000434B8A221A70A3F5805324225A70A0228D
:100270001A709A799107FCD59A79D206FCD43D4A36
:10028000937903F00C03082B3A4BF9D103221A712E
:1002900040225A719A799406FCD536498A79354BB1
:1002A0005006FBD5344A35491160022151602022A5
:1002B0001A709A7902F00C020C2AFAD1304B314AAA
:1002C0001A60314B314A1A60002407225C6043F8FF
:1002D000042C2F4AC3F80C2D62B61DF090F8174B72
:1002E0001A68D1070AD52B4A2B491C60146042F8C2
:1002F000041C10221A60294A29491160294A1278DF
:1003000052060ED52549264A0868904209D121484F
:10031000214C00221A60026040F8044C1020186042
:100320000A601EF06BFB0BF03BFA00BF0E2005408D
:10033000823F04000100002B10D0034014D0034082
:1003400002D00740C492FF1F00E00740A41803003A
:100350003C88FF1FC492FF1F543B00200082FF1FF8
:100360000000000000E400E05FE400E008ED00E0D1
:100370000050064000400640448004400000030155
:1003800004800440C010050014E000E0FF76010086
:100390000000202004D0034014E0C45F1CE00340B0
:1003A000A5C3945A00F00740FFFFFFFFFFFFFFFFC8
:1003B000FFFFFFFFFFFFFFFFFFFFFFFFFFFFFFFF4D
:1003C000FFFFFFFFFFFFFFFFFFFFFFFFFFFFFFFF3D
:1003D000FFFFFFFFFFFFFFFFFFFFFFFFFFFFFFFF2D
:1003E000FFFFFFFFFFFFFFFFFFFFFFFFFFFFFFFF1D
:1003F000FFFFFFFFFFFFFFFFFFFFFFFFFFFFFFFF0D
:10040000FFFFFFFFFFFFFFFFFFFFFFFFDEF9FFFF23
:1004100010B5054C237833B9044B13B10448AFF33E
:1004200000800123237010BDC492FF1F0000000054
:10043000A0180300084B10B51BB108490848AFF3DA
:1004400000800848036803B910BD074B002BFBD0A0
:10045000BDE81040184700BF00000000C892FF1F11
:10046000A0180300C492FF1F0000000010B4012474
:1004700004FA01F10368417482729B6910BC002187
:100480001847704770470369D3F83411D3F83821FF
:1004900091423FBFD3F83421511CC3F834119B184B
:1004A00034BF93F830004FF0FF3070470369D3F842
:1004B0003801D3F83431C01A704710B50F4B104CC7
:1004C0001B782278D9B2D2B2914214D0531C402B5F
:1004D00028BF00230B4AD05CDAB222700A4A1268A5
:1004E000C0B252B1994238BF4031CB1A1A2B04DC4A
:1004F0000023137010BD4FF0FF3010BD379BFF1F5E
:10050000369BFF1F3C9BFF1F389BFF1F054B187836
:10051000054B1A78C0B2D3B2984238BF4030C01AE7
:10052000704700BF379BFF1F369BFF1F10B5104B56
:10053000104C1B782278D9B2D2B2914214D0531CFD
:10054000402B28BF00230C4AD05CDAB222700B4A41
:100550001268C0B252B1994238BF4031CB1A1A2B3F
:1005600004DC0023137010BD4FF0FF3010BD00BF3E
:100570007F9BFF1F7E9BFF1F849BFF1F809BFF1F96
:10058000054B1878054B1A78C0B2D3B2984238BFE1
:100590004030C01A704700BF7F9BFF1F7E9BFF1F2C
:1005A00010B5104B104C1B782278D9B2D2B29142C0
:1005B00014D0531C402B28BF00230C4AD05CDAB265
:1005C00022700B4A1268C0B252B1994238BF403112
:1005D000CB1A1A2B04DC0023137010BD4FF0FF3030
:1005E00010BD00BFC79BFF1FC69BFF1FCC9BFF1FFB
:1005F000C89BFF1F054B1878054B1A78C0B2D3B2C1
:10060000984238BF4030C01A704700BFC79BFF1FD9
:10061000C69BFF1F0020704710B5044B044640F8EE
:10062000303B0FF019FA204610BD00BF74CB02001A
:1006300038B5012A154608BF857B427B04460B4628
:100640002A43122119F034F9617B204625EA010181
:10065000BDE8384019F018B92DE9F04104461E48AC
:100660000D461646417BE27A00691F4601231BF0C6
:10067000FBFEC0B2012827D1002319460F222046D5
:1006800019F016F960231A460A21204619F010F9CC
:1006900000230F220C21204619F00AF900230F2213
:1006A0000221204619F004F900230F2204212046DC
:1006B00019F0FEF81021204619F014F9E17B2046CC
:1006C00019F0E2F8102363713B4632462946204672
:1006D000BDE8F04114F0E6BCA8230020437C5BB1E8
:1006E000827A0AB921B902E0012A00D101B10023BE
:1006F0008374817C17F0BBBD70472DE9F041002564
:10070000044645710E480E461746417BE27A006961
:10071000984601231BF0A8FEC0B2A84214BF0123D3
:100720002B46237303D02946204617F0A0FD4346ED
:100730003A4631462046BDE8F04114F0B3BC00BF54
:10074000BC230020022A70B50646154601F00F04AE
:1007500002D10022214605E0090917F09FFD2A4633
:1007600021463046BDE8704017F098BD38B50C46BC
:10077000054615F007FAA04205D021462846BDE8F7
:1007800038401CF085BF38BD08B5084616F0DAFBC6
:10079000012008BD08B5044B1B681B0502D508469F
:1007A00016F064FC012008BD3480044008B5044BF9
:1007B0001B685B0502D5084616F070FD012008BDD8
:1007C000348004400C4B1B78834210D9192301F06C
:1007D0001F0103FB0010094B33F810204AB10849F0
:1007E000012031F812202AB1431CD8B2F9E70020C9
:1007F00070471046704700BF7A9DFF1FD29DFF1FB4
:10080000260C0020054B06491A6882B00B6801933C
:10081000019B9B1A052BF9D902B07047E092FF1F8C
:10082000E8300020084B0948196882B0026800923D
:10083000009A521A052AF9D9044A12680192019ABB
:100840001A6002B0704700BFE092FF1FE83000203E
:1008500038B503040D460FD51C4AC0F30E030A2019
:1008600000FB03204D1E00F10A0310F8012B05F8D0
:10087000012F9842F9D138BD0323B0FBF3F39CB2AA
:1008800003EB4303C01A00EB80004000013400EB8F
:100890004414A4B2FFF7B6FF50210D481BF06EFFC1
:1008A000200A1BF05BFF04F0FE001BF057FF084816
:1008B0001BF0C2FC0A201BF040FF05F10A041BF0EC
:1008C00053FF05F8010BA542F9D138BD38F10100FD
:1008D000A823002070B501F01F0119241D4D04FB51
:1008E000001035F8100010B935F8114000E004464A
:1008F00025044FF0000101D4174D15E0174ECDB27D
:10090000AA42A4F5004507D936F81540002C18BFB7
:10091000204601310446F2E719462046FFF798FFCA
:100920000E4B33F8150011E0CEB2964207D235F8DF
:100930001440002C18BF204601310446F4E7194644
:100940002046FFF785FF044B33F81400003018BF32
:10095000012070BDD29DFF1F260C0020EE94FF1FCA
:10096000F0B540F6B433984285B004460D4636D80B
:1009700001AE3146FFF76CFF002329461A46F05CB2
:1009800011F8017B0133874218BF01220A2BF6D1EF
:100990002AB30323B4FBF3F39AB203EB4303E41A41
:1009A00004EB84040132640004EB4214A4B2FFF7A8
:1009B00039FF50210B481BF0E1FE200A1BF0CEFE50
:1009C00004F0FE001BF0CAFE05F10A0415F8010B45
:1009D0001BF0BEFEAC42F9D102481BF02DFC05B065
:1009E000F0BD00BFA823002010B50446FFF70AFFA2
:1009F00050210C481BF0C2FE200A1BF0AFFEE0B2F3
:100A00001BF0ACFE07481BF017FC01201BF095FE05
:100A10000448FFF74BFD18B1BDE810401BF0A4BE21
:100A2000FF2010BDA82300202DE9FF474FF44852B6
:100A300000215648564D554E1DF0A4FF41F26A72F2
:100A4000002154481DF09EFF40F2723200215248AE
:100A50001DF098FF4FF44852002150481DF092FFBE
:100A60000020FFF7C1FF04460120FFF7BDFF4C4BFC
:100A700000EB042080B21880002301382B7084B270
:100A8000A84637464FF6FF739C420BD13F4D434F6C
:100A90004448414E40F2B9124FF00A0C1921AE46BB
:100AA000B84658E001A92046FFF7D2FE2B789DF802
:100AB000042093429CBF531C88F800309DF80530F9
:100AC00003F0E001E02903F01F034FF01901DBB24E
:100AD00011D1324801FB023130F8111019B1DFF8A1
:100AE000B4E02EF81410192101FB023320F8134052
:100AF000013CA4B2C6E701FB023136F8111011B176
:100B0000244820F81410192101FB023327F8134060
:100B1000EEE70CFB020999F8293099F8289003F0C8
:100B2000E00A03F01F03BAF1E00FDBB201FB093A60
:100B300016D137F81AA0BAF1000F01D026F812A08A
:100B4000B9F1C80F07D901FB09336FEA42496FEACF
:100B5000594928F81390013A92B2A242D9D112E031
:100B600035F81AA0BAF1000F01D026F812A0B9F199
:100B7000C80FF0D901FB09336FEA42496FEA5949BE
:100B80002EF81390E7E704B0BDE8F087D29DFF1F71
:100B90007A9DFF1F260C0020EE94FF1F26DAFF1F10
:100BA0006698FF1F10F1010038B50C460546FFF7A7
:100BB0001BFFA04213D0FFF735FE502108481BF061
:100BC000DDFD280A1BF0CAFDE8B21BF0C7FD204678
:100BD0001BF0BEFD0248BDE838401BF02DBB38BD00
:100BE000A82300201FB502210846FFF7DDFF0EF005
:100BF00055FA104968460FF069FB40F2DC5168462F
:100C000010F050F968460EF027FFC0220A490B4841
:100C10001DF09AFF0024E0B20849013418F0EAFD03
:100C2000502CF8D11E2016F08DFC0EF06DF904B09A
:100C300010BD00BFC2060200C9280200C12A002060
:100C400010B5010A04460020FFF7AEFFE1B2012013
:100C5000BDE81040A8E710B5054C2088013080B2EF
:100C60002080FFF7EDFF2088013880B210BD00BF63
:100C70006698FF1F2DE9F0430027DFF8809087B0CA
:100C80003D46B9F80040DFF87480BEB2A64217D2E4
:100C900069463046FFF7DCFD9DF8003043B99DF80A
:100CA00001302BB99DF8023013B90135ADB205E022
:100CB00025B1701B694680B2FFF752FE0137E0E7AD
:100CC000C5B1002303930493ADF81430641BB8F846
:100CD0000000A4B2844205D2204603A9FFF740FEDB
:100CE0000134F4E7054B401B80B21880FFF7A8FFE2
:100CF000FFF79AFE07B0BDE8F08300BF6698FF1FBC
:100D00007FB505210420FFF74FFF0EF0C7F9114909
:100D1000114D68460FF0DAFA40F2DC51684610F0E7
:100D2000C1F868460EF098FE00240A2606FB04511E
:100D3000A0B20134FFF714FE5D2CF7D12046FFF777
:100D40007FFF1E2016F0FEFBFFF76EFE0EF0DCF8B4
:100D500004B070BDC2060200720202002DE9F74F16
:100D6000524E05461024002D7DD1204614F00AFF76
:100D7000FF2878D001343E2CF5D14D4F8324A6B204
:100D8000A6F103081FFA88F8002D73D1E01E14F0B5
:100D9000F9FEFF286ED0A01E14F0F4FEFF2807D144
:100DA0003B19B01E13F8821C80B2FFF7DFFC25B997
:100DB000601E14F0E7FEFF2807D13B19701E13F8E0
:100DC000811C80B2FFF7D2FC25B9204614F0DAFE70
:100DD000FF2805D13B19304613F8801CFFF7C6FCED
:100DE0000434E72CCBD1DFF8CCA04FF4E074A7B2E9
:100DF000002D48D1204614F0C5FEFF2843D0601CCA
:100E000014F0C0FEFF2805D1781C002180B2FFF746
:100E1000ADFC25B9A01C14F0B5FEFF2804D1B81C08
:100E2000002180B2FFF7A2FC5AF8049FD9F80030E5
:100E300048461B6898470026083704F1080BF1B2B2
:100E400045BB0BEB0600019114F09CFEFF280199B5
:100E500020D001360B2EF2D12034B4F5607FC6D1FC
:100E600003B0BDE8F08F3319204613F8101C1CF0B6
:100E70000FFC7FE73B19404613F8831CFFF776FC15
:100E8000002D8DD187E700213846FFF76FFC002D3C
:100E9000BAD1B4E7484618F041FE07EB06081FFA3E
:100EA00088F801464046FFF761FCD2E7940602004D
:100EB00014060200206302001FB50EF0EFF80F4980
:100EC00068460FF003FA40F2DC5168460FF0EAFF83
:100ED00068460EF0C1FD05210020FFF747FCCB213D
:100EE0000220FFF743FC00210320FFF73FFC012015
:100EF000FFF734FF05B05DF804FB00BFC206020037
:100F00002DE9F8432D4D10246319204613F8101CC9
:100F100001341CF0BDFB3E2CF6D1294C0026B5B2A5
:100F200005F1800014F8011C80B2FFF71FFC05F1E9
:100F30008100217880B2FFF719FC05F18200617809
:100F400080B2FFF713FC05F18300A17880B204366C
:100F5000FFF70CFC642E04F10404E0D1DFF8648098
:100F60004FF4E07458F8046FB18C2046090AFFF77B
:100F7000FDFB601C96F8241080B2FFF7F7FBA01C65
:100F800096F8681080B2FFF7F1FB002504F108091C
:100F9000E9B2304618F0C2FD09EB0507BFB20146C1
:100FA00001353846FFF7E2FB0B2DF1D12034A4B216
:100FB000B4F5607FD6D1BDE8F88300BF7CD9FF1FB0
:100FC000E33A0020206302002DE9F041354D102462
:100FD000204614F0D7FD631901343E2C03F8100CA1
:100FE000F6D1314B314903F1D0000024012540F204
:100FF000FF3611F8012F1AB9DD715A841E8405E0FD
:1010000012015A840A79DC7112011A84343398422D
:10101000EFD1274E8324E01E14F0B4FDA51905F886
:10102000830CA01E14F0AEFD05F8820C601E14F0B7
:10103000A9FD05F8810C204614F0A4FD0434E72C2A
:1010400005F8800CE7D11B4F4FF4E074204614F0F4
:1010500099FD0546601C14F095FD57F8046F00EBF0
:10106000052081B2B184F184304602F088F8A01CDA
:1010700014F088FD002586F8680004F1080808EBE4
:10108000050014F07FFDE9B202460135304618F044
:1010900077FD0B2DF3D12034B4F5607FD6D1BDE8B8
:1010A000F08100BF7CD9FF1FD839002096D9FF1FDF
:1010B000E23A0020206302000D289CBF014B18700B
:1010C000704700BF7889FF1F38B5064D002455F8DA
:1010D000240001340FF00AFF0E2CF8D1024B03223A
:1010E0001A7038BD24630200799DFF1F10B5034BB1
:1010F00003600446FFF790FA204610BD58FC02003A
:1011000010B5034B03600446FFF786FA204610BD76
:1011100040FB020010B5034B03600446FFF77CFA66
:10112000204610BD28FA020010B5034B03600446A8
:10113000FFF772FA204610BD10F9020010B5034BFC
:1011400003600446FFF768FA204610BDF8F7020076
:1011500010B5034B03600446FFF75EFA204610BD4E
:10116000E0F6020010B5034B03600446FFF754FAA3
:10117000204610BDC8F5020010B5034B03600446BD
:10118000FFF74AFA204610BDB0F4020010B5034B39
:1011900003600446FFF740FA204610BD98F30200B2
:1011A00010B5034B03600446FFF736FA204610BD26
:1011B00080F2020010B5034B03600446FFF72CFADF
:1011C000204610BD68F1020010B5034B03600446D1
:1011D000FFF722FA204610BD50F0020010B5034B75
:1011E00003600446FFF718FA204610BD38EF0200EE
:1011F00010B5034B03600446FFF70EFA204610BDFE
:1012000020EE0200026810B5A2B10B4B13441B1173
:1012100003F144025411012102F01F0201FA02F20B
:10122000064941F82420064A064942F8231003687B
:1012300000229A6010BD00BF008FFCBF80E100E07B
:101240006889FF1F85F500000EF0C2BF38B544085D
:1012500000F00100C00104EB440400EBC41404F5E9
:10126000FA44A4B212480D4650211BF087FA200A16
:101270001BF074FA04F080001BF070FA0C481AF0AE
:10128000DBFF10201BF059FA10241BF06DFAA0F1BF
:101290002003DBB25F2B014604F1FF3488BF20211D
:1012A0002846FFF7D1FF14F0FF04EED138BD00BF90
:1012B000A823002038B505460C4639B108461DF074
:1012C00043FD2146024628460EF03DFF284638BD24
:1012D0008A6809680EF037BF70B5192301F01F0145
:1012E00003FB0011454B33F8115088B006461446F5
:1012F000002D61D0284604A9FFF7AAFA9DF8121024
:1013000020460EF0A7FF9DF813102046FFF79CFF24
:101310009DF814102046FFF797FF9DF81510204602
:10132000FFF792FF9DF816102046FFF78DFF9DF8FE
:1013300017102046FFF788FF9DF818102046FFF78A
:1013400083FF9DF819102046FFF77EFF2B0446BF50
:10135000A5F500452A4B2B4B33F81500002841D04A
:1013600004A9FFF775FA9DF812102046FFF76CFFED
:101370009DF813102046FFF767FF9DF814102046D4
:10138000FFF762FF9DF815102046FFF75DFF9DF8FF
:1013900016102046FFF758FF9DF817102046FFF75C
:1013A00053FF9DF818102046FFF74EFF9DF81910C7
:1013B0002046FFF749FF15E0134968460EF086FF07
:1013C000314604A80EF059FF04A968460EF0F8FE55
:1013D000014620460EF04BFF04A80EF03DFB684688
:1013E0000EF03AFB257A0F2D06D820212046013534
:1013F000FFF72AFFEDB2F6E708B070BD26DAFF1F4F
:10140000EE94FF1F260C0020D20602002DE9F047C3
:10141000B14B1B78C8B0002B40F0D181AF4A2021DE
:1014200099540133102BAD4EFAD1AD4B1C7844B119
:10143000AC4910A80EF04AFF10A800F0D1FA10A88D
:101440001EE2A94B1B78C92B6ED1A84CA84B227861
:101450004FF4D27101FB023110A80EF037FF10A833
:1014600000F0BEFA10A80EF0F7FA2378072B03D08D
:10147000082B36D0052B3AD19E4C9F4904A80EF07C
:1014800025FFE17C08A80EF0F8FE08A904A80EF0DC
:1014900097FE9A490EF086FE617D05460CA80EF077
:1014A000ECFE0CA928460EF08BFE95490EF07AFE54
:1014B000E17D0546013110A81CF050FB10A928461B
:1014C0000EF07EFE00F06AFA10A80EF0C5FA0CA825
:1014D0000EF0C2FA08A80EF0BFFA04A80EF0BCFA8B
:1014E00005E0884B1B7813B9874800F057FA00F0E5
:1014F0002FFA864B864C197861B10139C9B20122A5
:1015000020461CF006FBA17941F00203A37141F0D3
:101510000A0105E0A17901F0FD01A17141F0080186
:1015200020461CF0D4FAAFE17A497B480EF07DFEEC
:1015300014AB4CA91F46224643F8102C43F80C2C40
:1015400043F8082C03F8042C10338B42F4D1002507
:10155000DFF8D8A12C465AF82590DFF8D08199F809
:101560004E307BB1484618F075FB6C496A48FFF76E
:10157000A1FE10AB03EB041009F130010EF077FE71
:101580000134E4B201350E2DE5D1634DDFF8A091B1
:10159000AA68D3B2013B9A4281BF2A68AB6000219E
:1015A000D15499F80030013B0D2B0AD859495A48BB
:1015B0000EF03BFE99F80030013B58F8230018F07C
:1015C00049FB032C5FD8DFE804F002070C325149D5
:1015D00053480EF02AFE28E010A951480EF047FEAD
:1015E00023E0072210A908A81CF0CCFA08A90CA82F
:1015F0000EF061FE4B490CA80EF0D4FD0722044604
:10160000394604A81CF0BEFA04A920460EF0D8FD05
:10161000014643480EF02BFE04A80EF01DFA0CA85C
:101620000EF01AFA08A80EF017FA0D243CE0042276
:1016300010A908A81CF0A6FA08A90CA80EF03BFEF9
:1016400038490CA80EF0AEFD04220446394604A821
:101650001CF098FA04A920460EF0B2FD31490EF0B4
:10166000A1FD0422044618A968461CF08BFA6946BD
:1016700020460EF0A5FD014629480EF0F8FD68460B
:101680000EF0EAF9C8E7214608A80EF0F6FD08A911
:101690000CA80EF010FE24490CA80EF083FD0146A4
:1016A0001F480EF0E4FDBAE710AB03EB04100EF098
:1016B000D3F914F1FF34F7D22D7A102D28BF10255D
:1016C0000024E3B2AB4235D2214613480EF0E4FCCD
:1016D000037833550134F4E766D1FF1F8098FF1F6C
:1016E000079BFF1FD80602006489FF1F919DFF1F03
:1016F000000003008C89FF1FE9060200ED060200CE
:10170000F2060200789DFF1FA83A002074D1FF1F47
:10171000082F00200C74020070300020F509020030
:10172000A03000200A740200F806020024630200C0
:101730000CD2FF1F564910A80EF0C8FD554B93F868
:101740002B201C466AB9544B1B780D2B09D858F82E
:101750002310524806310EF074FD504910A80EF0C7
:1017600086FD94F82B30012B13D1072110A80EF021
:1017700071FD4B4910A8FFF79DFD464B0CA89979C8
:101780000EF07BFD0CA910A8FFF7A2FD0CA80EF02F
:1017900063F99DF84870C7F110039D420CDA0024EC
:1017A0001E44E3B29F4207D9214610A80EF074FCF4
:1017B000037833550134F4E710A80EF04DF9394B96
:1017C0001B78002B5ED1384A202199540133102B0D
:1017D000FBD1304B9B7E032B54D8DFE803F0020A89
:1017E0001517324B324A18780021FFF775FD304843
:1017F00007E0294B1B780D2B44D82E4A52F82300C2
:10180000303000F0CBF83DE02B48FAE7002310A978
:1018100001200C930D930E938DF83C30109311938F
:1018200012938DF84C3000F0BFFD052110A818F080
:1018300075F87C2110A8FFF707FD0CA9022000F025
:10184000B3FD05210CA818F069F80CA910A8FFF742
:101850003FFD7C2110A8FFF7F7FC0CA9032000F046
:10186000A3FD04210CA818F059F80CA910A8FFF743
:101870002FFD10A800F092F810A80EF0EDF80CA8BB
:101880000EF0EAF800F064F848B0BDE8F08700BF59
:101890000C7402007CD9FF1F7889FF1F9030002054
:1018A00004070200789DFF1F9198FF1F6489FF1FA6
:1018B0008030002024630200A030002070B505466F
:1018C0000024074E047145F8156BA0F81540AC7064
:1018D000C17210210476027381734273C47370BDA8
:1018E00018F10100232838B50D4601D9002038BD74
:1018F00000F539642401FEF785FFA4B25021124897
:101900001AF03CFF200A1AF029FF04F0F0001AF048
:1019100025FF0D481AF090FC0B201AF00EFF1AF06C
:1019200023FF04461AF020FF40EA04208542DDD15F
:10193000064C04F109051AF017FF04F8010BAC423C
:10194000F9D1012038BD00BFA8230020EB2E0020D4
:101950000E4B197810B529B90D4A084614F06BF8EA
:10196000044600E000240B4A0121002014F063F833
:1019700004B948B1084B1B7833B1064A044900202A
:10198000BDE8104014F008B810BD00BF089BFF1F51
:101990008098FF1F9198FF1F669DFF1F037A10B567
:1019A000102B0E4C28BF10230021CAB29A4202D33A
:1019B0000A4A20210AE082688A4203D9026812B1E9
:1019C000525C00E000220A550131EEE7102B03D0F3
:1019D000D1540133DBB2F9E710BD00BF9198FF1F6E
:1019E000037A10B5102B0E4C28BF10230021CAB269
:1019F0009A4202D30A4A20210AE082688A4203D925
:101A0000026812B1525C00E000220A550131EEE793
:101A1000102B03D0D1540133DBB2F9E710BD00BF66
:101A20008098FF1F2DE9F043431E0B2B89B005461C
:101A3000884600F2B2840DF0CBFC9F4B9F4A187889
:101A4000192303FB005332F8133083B1002304AA97
:101A500029460493059306938DF81C30FFF73CFC50
:101A6000284604A90DF004FD04A80DF0F5FF4C2351
:101A70006B439348C65CFE2E04BF924B1E780D2E1E
:101A8000044600F2F6824C2707FB05035B78643BB3
:101A90000F2B00F27C84DFE813F01000DE00FE0163
:101AA0007902D3026A02620262027A046F02AB0018
:101AB000DE00A6005D02CB00E40207FB0507BB7851
:101AC000012B4AD8804981480EF0AFFB804B7F4AFA
:101AD00053F82690798ED9F800304846DB6D984748
:101AE0007A8EB9F824309A422CD17A4F97F82D305B
:101AF000012B0FD178497548FFF7DCFBD9F800308E
:101B0000B9F82610DB6D714A4846984729216F487D
:101B1000FFF79AFB97F82D30022B03D16F496B48E2
:101B2000FFF7C8FB97F82D30032B03D16C496748AA
:101B3000FFF7C0FB97F82D30052B03D169496348A7
:101B4000FFF7B8FB03200DF031FC17F006FF4C2027
:101B500000FB05401D300DF0E4FB4C276F4304EB08
:101B6000070999F80230042B1AD15F4957480EF043
:101B70005CFB574B554A53F82600B9F832100368FE
:101B8000DB6D984729215148FFF75EFB02200DF0DD
:101B90000DFC17F0E2FE4A4838441D300DF0C1FB41
:101BA0004C276F4304EB070999F80230052B40F0EE
:101BB000B9814E4945480EF038FB454B434A53F82E
:101BC0002600B9F832100368DB6D984729213F4899
:101BD000FFF73AFB02200DF0E9FB17F0BEFE384894
:101BE00038441D309CE102200DF0E0FB404839E212
:101BF000374B53F826606F433C44336894F83210F7
:101C00005B6E30469847002800F0C1832E492F486C
:101C10000EF00BFB33682D4A1B6E618E30469847E1
:101C200003200DF0C3FB17F098FE25483844ABE3C2
:101C30003C2126480EF00EFB254B244853F8261075
:101C40000631FFF737FB2B492048FFF733FB032012
:101C50000DF0ACFBF1E14C2707FB05471A491B4887
:101C60000EF0E3FA7B7A012B07D014D3FF2B45D17A
:101C700021491648FFF71EFB48E05B211348FFF798
:101C8000E3FA134B798E53F82600104A0368DB6F92
:101C900098475D210CE03C210C48FFF7D5FA0C4B2E
:101CA000798E53F82600094A0368DB6F98473E2176
:101CB0000648FFF7C9FA29E06489FF1F26DAFF1FEB
:101CC00010D2FF1F7889FF1F0C740200B030002073
:101CD000246302007CD9FF1F9207020078070200EC
:101CE0007F070200870702008E07020095070200A7
:101CF000060702009C070200C6280200B94BBA4A38
:101D000053F82600798E0368DB6F984703204C2632
:101D10000DF04CFB6E4317F020FEB449B2480EF0B4
:101D200084FAA1191D31684626440EF0CFFA6846A0
:101D30000EF088F9717A042954D019D802291ED0DE
:101D4000032940F0A0806946A7480EF090FAA84900
:101D5000A548FFF7AFFAF17904A80EF08EFA04A9AE
:101D6000A148FFF7B5FA04A80DF076FEA1491AE0E4
:101D700006291CD05DD3FF2900F0898083E06946E5
:101D800099480EF074FA9A499748FFF793FAF17957
:101D900004A80EF072FA04A99348FFF799FA04A870
:101DA0000DF05AFE94499048FFF784FA6FE0F37AF9
:101DB00003B105218C48FFF747FA20218A48FFF735
:101DC00043FA69468848FFF783FA20218648FFF7DF
:101DD0003BFA4C2000FB0540C37A0BB105214EE0D5
:101DE00006214CE096F846407F48002C694608BF23
:101DF00001240EF03CFA7E497B48FFF75BFA96F827
:101E00004210B1FBF4F104A801311BF0A7FE04A9B4
:101E10007548FFF75DFA04A80DF01EFE2F217248E9
:101E2000FFF712FAB6F84010013991FBF4F10131D5
:101E30001AE069466C480EF01AFA6D496A48FFF7D5
:101E400039FA96F8421004A801311BF087FE04A964
:101E50006548FFF73DFA04A80DF0FEFD2F2162480A
:101E6000FFF7F2F9B6F8401004A81BF077FE04A9BA
:101E70005D48FFF72DFA04A80DF0EEFD29215A4820
:101E8000FFF7E2F903E0694657480EF0F0F96846BB
:101E90000DF0E2FD8AE16F4300EB070999F802308B
:101EA000012B1BD85B2150480EF0D4F94D4B4E4A04
:101EB00053F8260099F83C100368D3F8B4309847DB
:101EC0005D214948FFF7C0F903200DF06FFA17F0C4
:101ED00044FD4A4838441D300DF023FA4C2303FBDF
:101EE00005439B78042B0BD101200DF05FFA444889
:101EF0000DF03AFA3B4B53F8260006300DF011FA7C
:101F00004C2303FB05439B78052B0BD101200DF0DF
:101F10004DFA3B480DF028FA324B53F826000630B4
:101F20000DF0FFF94C2303FB0543987802280AD1F2
:101F30000DF03CFA33480DF017FA2A4B53F82600FF
:101F400006300DF0EEF94C2000FB05408378032BA2
:101F500040F01D8202200DF029FA2B4882E0032078
:101F60000DF024FA1F4B53F82600063073E00320CF
:101F70000DF01CFA254875E003206F430DF016FAAA
:101F8000E0190C300DF0F0F9E019FDE14C270320C9
:101F900007FB05470DF00AFA144913480EF045F9FE
:101FA00097F845200F4B798E42B953F826000E4A18
:101FB0000368C9B2D3F8F03098473EE097F846205E
:101FC00097F8440053F8266012BB96F86920C9B20E
:101FD00018F08CFA96F8692097F8321097F84500B7
:101FE00029E000BF24630200B03000200C7402001E
:101FF00092070200A7070200A307020010D2FF1FEA
:1020000018070200060702000E0702002007020060
:1020100096F86920C9B218F069FA96F8692097F81D
:10202000321097F8450018F061FA96F8692097F891
:10203000321097F8460018F059FA17F08EFC0CE0B1
:10204000AE4A0023202199540133102BFBD10320E9
:102050000DF0ACF9AA480DF087F94C2000FB0540C3
:1020600092E1A8480DF080F9A74B53F826000630FE
:102070008BE1FF2E40F08B814C2606FB05035B783D
:10208000013B082B00F28381DFE813F00F007A0098
:1020900093007300A100A3006801810109006E4351
:1020A00030440C300DF060F96DE16E4383199B787C
:1020B0003BB903200DF07AF9944830441D300DF0FF
:1020C00030F94C266E43A3199B78042B0AD10120CA
:1020D0000DF06CF98E480DF047F98C4830441D30F6
:1020E0000DF01FF94C266E43A3199B78052B0AD1DE
:1020F00001200DF05BF987480DF036F98348304434
:102100001D300DF00EF94C266E43A719BB78012B3C
:1021100012D1814981480EF088F8804997F8320041
:102120000DF0CCF803200DF041F917F016FC7748BC
:1021300030441D300DF0F5F84C2303FB054398782F
:10214000022807D10DF032F975480DF00DF97548E8
:102150000DF0E7F84C2000FB05408378032B40F09E
:10216000168102200DF022F96F480DF0FDF86D4840
:102170000BE101200DF01AF96C480DF0F5F806E1BD
:1021800001200DF013F96A480DF0EEF8694B04A830
:1021900099790EF072F804A960480DF09DFF04A82B
:1021A0000DF05AFC64495D48FFF784F817F002FC13
:1021B000EDE001200DF0FAF860480DF0D5F84C2064
:1021C00000FB0540418E04A81BF0C8FCE3E75C4916
:1021D000C5E05C4951480EF028F84C2303FB05424A
:1021E000527A062A71D8DFE802F004041212702035
:1021F0004E0055494948FFF75DF84C2303FB054362
:10220000464993F832000DF059F83E215AE04F4903
:102210004248FFF74FF84C2303FB05433F4993F82F
:1022200032000DF04BF85D214CE04C2606FB0546D4
:1022300047493A48FFF73EF8384996F832000DF022
:102240003DF844493548FFF735F896F8421004A8A0
:102250000EF013F804A93148FFF73AF804A80DF07E
:10226000FBFB2F212D48FEF7EFFFB6F8401004A826
:102270001BF074FC04A92948FFF72AF804A80DF004
:10228000EBFB29211EE003FB0543DB7A0BB10521A3
:1022900000E006214C2606FB05462048FEF7D4FF49
:1022A0002D491E48FFF706F81C4996F832000DF03C
:1022B00005F820211948FEF7C7FFF37A0BB1052175
:1022C00000E006211548FEF7BFFF03200DF06EF871
:1022D00017F043FB4C236B431C44627A062A09D156
:1022E00018490E480DF0A1FF0C4994F842000CF07B
:1022F000E5FF5BE70548184446E000BFE4D1FF1F57
:1023000025070200AB0702002463020010D2FF1F62
:102310002E07020038070200B8070200B030002084
:1023200006070200440702000E07020051070200E0
:10233000600702007CD9FF1FBC0702006C07020087
:10234000C10702000C740200C6070200CC0702009D
:10235000D307020092070200D20702001049114879
:102360004C266E430DF061FFA3190E4993F832001D
:102370000CF0A4FF3E210B48FEF766FF03200DF092
:1023800015F817F0EAFAA0191D300CF0CAFFB8F1E1
:10239000000F02D028460CF065FF09B0BDE8F083BD
:1023A000D8070200B03000202DE9F041AC4B0546C3
:1023B000187805F01F02192303FB0023A94A32F8FD
:1023C000133088B00C4643B10A462946FEF784FF15
:1023D000214628460DF04CF8A2E1A349A34E204621
:1023E0000DF023FF4C236B4316F80380B8F1FE0F6A
:1023F00004BF9F4B93F80080B8F10D0F00F2D2801C
:102400004C2101FB05635B78643B0F2B00F2888154
:10241000DFE813F0100063009100AB00C200A700DA
:10242000A100A5008601A900610063005F001401FE
:102430004100C60069437718BB78012B18D88B4B35
:1024400019441D3120460DF0FCFE20460DF0FAFD2A
:1024500085490DF02FFE58B1834920460DF0E5FE69
:10246000844B798E53F8280003682246DB6D984729
:102470004C2303FB05639B78042B03D17E49204644
:102480000DF0D3FE4C2303FB05639B78052B40F036
:10249000C5807A49BFE001FB05F7F1191D312046DF
:1024A0000DF0CFFE20460DF0CDFD6F490DF002FE80
:1024B000002800F035816C4920460DF0B6FE6D4BCA
:1024C0006A4953F8280039440368498EDB6D224677
:1024D00025E06B49B5E06B49B3E001FB0567797A0C
:1024E00006290CD0FF291CD0624DE1B93C212046C1
:1024F000FEF7AAFE55F828000368DB6F18E0FB7AA8
:1025000003B105212046FEF79FFE5A4B53F82800E1
:102510004C2101FB05650368698EDB6F22469847F5
:10252000FEE0594934E055F828000368D3F88030BC
:10253000798E2246F3E701FB05618B78012B59D890
:102540004C4B91F83C1053F8280003682246D3F80E
:10255000B83098474EE0474B53F82810DCE04B4921
:102560006FE04B496DE04B496BE04B4920460DF065
:102570005CFE4C2101FB056504A8698E1BF0EEFA98
:1025800004A92046FEF7A4FE04A80DF065FA43490D
:102590002046FEF78FFEC3E001FB05611D31BCE064
:1025A0003F494EE0B8F1FF0F40F0BA804C2000FBED
:1025B00005635B78013B082B00F2B280DFE803F093
:1025C0000F457C4096989AA70500454370190C303A
:1025D0000CF0CAFE70191D300CF0A3FEA0E0684399
:1025E00033189B78012B05D8204901441D31204622
:1025F0000DF027FE4C2303FB05639B78042B03D1CE
:10260000284920460DF011FE4C2303FB05639B78FF
:10261000052B03D1244920460DF007FE4C2303FB74
:1026200005639B78022B03D1154920460DF0FDFD73
:102630004C2101FB0565AB78032B71D11B4900E0F0
:102640001B4920460DF0F1FD6AE0072168460DF0B8
:1026500027FE184B04A899790DF00FFE37E000BF54
:102660006489FF1F26DAFF1F0C74020010D2FF1FBF
:102670007889FF1F24630200DF070200E6070200DB
:10268000EC070200F8070200FE0702001008020033
:10269000160802001C080200220802002508020099
:1026A00028080200040802000A080200F2070200DB
:1026B0002E0802007CD9FF1F072168460DF0F0FDAF
:1026C0004C2101FB056504A8698E1BF047FA04A99B
:1026D00068460DF075FD014620460DF0C8FD04A8C2
:1026E0000DF0BAF968460DF0B7F919E0502102E093
:1026F000432100E04E2120460DF0ACFD4C2101FBB2
:102700000565214695F832000CF0D8FD08E010F080
:102710002DFA054B53F82010063120460DF091FD9F
:1027200008B0BDE8F08100BF2463020070470020BC
:102730007047704790F86A304BB10133DBB2022B1F
:1027400088BF012380F86A30014B02221A7070475B
:10275000799DFF1F70477047704700207047002029
:102760007047002380F86610A0F864307047084670
:1027700070470368D3F8983018470020704700204E
:1027800070470368DB6F1847B0F8483090F84D2069
:1027900003EB83033AB901EB810103EB83034900A7
:1027A00001EB83000AE001EB430190F8280089B2B5
:1027B00081422CBFC0EB0100C0EB000080B270472B
:1027C000094BB0F84A201A704379084A0133137054
:1027D0006422838CB3FBF2F3A0F848300023A0F806
:1027E0004A2080F84D307047CE9DFF1F0CD2FF1F4E
:1027F00090F84D306BB9B0F84820B0F8440064232D
:102800005A430A2313FB01218142CCBF002001203F
:10281000704701207047704716F046BD01491046C9
:102820000DF003BDC7280200014910460DF0FDBCA4
:1028300034080200014910460DF0F7BC39080200C7
:10284000014918460DF0F1BCC728020001491046A5
:102850000DF0EBBC4408020038B5044617F0B7FE93
:10286000022323711949A01D1CF066FA184904F1CE
:102870000E001CF061FA032384F8933040F27F13BA
:10288000A4F84430042384F850300123E37784F81B
:10289000203084F82130CD2384F88C30D0230025DB
:1028A00084F88D30DA23A4F84250656584F88E30C0
:1028B00084F88F505D22294604F194001CF062F8E0
:1028C00084F8F25084F8F35038BD00BF520802007B
:1028D0005808020038B590F84E3005460C46002BDB
:1028E00000F0CB800368D3F800319847002800F04F
:1028F000C480654A4C2303FB04235B8E013B092BF8
:1029000000F2C080DFE803F005103F5E656C737570
:102910007CA995F872300BB15C4900E05C49204617
:10292000BDE838400CF07ABD95F8703043B995F8A1
:1029300073300BB1574900E0574920460CF06EFD4B
:1029400095F87030012B03D1544920460CF066FDF8
:1029500095F87030082B03D1514920460CF05EFDEC
:1029600095F87030022B03D14E4920460CF056FDED
:1029700095F87030042B03D14B4920460CF04EFDE6
:102980004A4B1C7038BD95F870301BB94849204639
:102990000CF044FD95F87030012B03D145492046D9
:1029A0000CF03CFD95F87030082B03D142492046CD
:1029B0000CF034FD95F87030022B01D0042B61D15E
:1029C0003E49ACE795F875300BB13D49A7E73D4965
:1029D000A5E795F876300BB13B49A0E73B499EE768
:1029E00095F874300BB13A4999E73A4997E73A4973
:1029F00095E795F877300BB1384990E738498EE77D
:102A000095F87030802B03D1294920460CF006FD43
:102A100095F87030012B03D1324920460CF0FEFCB2
:102A200095F87030022B03D12F4920460CF0F6FCAC
:102A300095F870301BB9194920460CF0EFFC95F859
:102A40007030042B03D1294920460CF0E7FC95F89F
:102A50007030082B94D118498FE795F87030802B8F
:102A600001D123495BE70BB10D4958E795F8713067
:102A7000022B14BF08491F4951E72046BDE83840E2
:102A80000CF04EBD38BD00BF10D2FF1F670802001A
:102A90007408020081080200870802003009020061
:102AA0008E08020094080200A0080200949DFF1FF7
:102AB000AC080200B0080200BE080200B60802001E
:102AC000CE080200D3080200D8080200E508020080
:102AD000F2080200FD0802000809020012090200C3
:102AE0001E0902002A0902003509020044090200F9
:102AF000530902005B09020008B508460CF010FDFE
:102B0000012008BD08460CF00BBD08B508460CF0C6
:102B100007FD012008BD02491046FEF7CBBB00BFF0
:102B200061090200811D1046FEF7C4BB2DE9F0418A
:102B3000224B8CB008AA07460D4603F1080E164634
:102B400018685968144603C4083373452246F7D100
:102B500018681B7923711A4B206004AA03F1080E30
:102B6000944618685968144603C4083373452246CE
:102B7000F7D118681B792371124B20606A4603F164
:102B80000808EE4618685968144603C408334345DC
:102B90002246F7D118681B792060237197F86A30B4
:102BA0000BB9314603E0012B0CBF61467146284644
:102BB0000CF08CFC0CB0BDE8F08100BF6F09020086
:102BC0007C0902008909020038B503685B6E04467F
:102BD0000D46984700283FD094F84D20B4F848306F
:102BE00062B903EB830305EB43050A23A4F84A30DB
:102BF000012384F84D30A4F8485038BD174A1848CE
:102C0000002103EB8303117005EB4303B4F842107A
:102C100094F828200078A4F84A009BB28B429CBF0D
:102C200089188BB2B4F84410994294BFC2EB0101E9
:102C3000C2EB030191FBF0F39BB2A4F84630A4F879
:102C40004830236820465B6C89B29847054B18785A
:102C5000BDE8384010F072B938BD00BF0CD2FF1F7C
:102C6000CE9DFF1FA689FF1F08B5818C407915F006
:102C700085FE034B08B9022200E001221A7008BD4C
:102C8000799DFF1FF8B5D0F880300446002B54D052
:102C900014F03AFCD4F88060B0422BD9D4F88430D8
:102CA000E6671E4494F87030C4F88060042B17D196
:102CB0000025236884F87050D3F80C310221204697
:102CC000984723682046D3F80831984794F8713024
:102CD000C4F88050013384F87130184B02221A7006
:102CE00094F87030012B28D1144A022384F87030F4
:102CF0001370F8BD14F008FC361A66EB0607F901EC
:102D0000D4F884200023F00141EA56611CF04EF80B
:102D10000B4B1A78C1B28A420FD040B200280CDBAC
:102D200094F874201970074B12B9C1F17F01C9B230
:102D30001878BDE8F8400CF00DBAF8BD799DFF1F7A
:102D4000E492FF1F949DFF1F90F84E3003B199E766
:102D500070472DE9F04104460F4616464FF0000833
:102D600094F84E30002B00F0F48123682046D3F80D
:102D70000031984708B9BDE8F08114F0C5FB013F68
:102D800005460D2F00F2E581DFE817F00E004B003D
:102D9000A300CA00E60021014A016D018201B801C9
:102DA0001C003C0057007F0094F87210236881F0EB
:102DB000010184F87210D3F80C31002900F09A81D7
:102DC000012197E194F87030022B00F0C2812EB1FE
:102DD00023680321D3F80C312046984794F87030CB
:102DE000012B08BFE36FE56704BFEB1AC4F884301A
:102DF000022384F87030D4F884301D44C4F8805025
:102E0000BDE8F081002384F870302EB123680221E0
:102E1000D3F80C31204698470023C4F88030BDE831
:102E2000F08194F87330002B00F0938194F87030A7
:102E3000022B34BF0B270C2792E794F87030012B3C
:102E400000F08781012384F870302EB123680421BB
:102E5000D3F80C3120469847D4F888305BB194F809
:102E6000762002B15B00C4F88430D4F88430E56782
:102E70001D44C4F88050012384F87330002384F883
:102E8000783084F87530BDE8F08194F87030082B04
:102E900000F05F812EB123680521D3F80C31204664
:102EA000984794F87030012B08D1E36FE567EB1A6F
:102EB0001D44C4F88430C4F8805006E0082B04D1C7
:102EC000022384F87030BDE8F081082384F8703064
:102ED000F9E094F8703084F871800BB90D273FE762
:102EE000012B0AD1082384F87030002E00F0E38013
:102EF00023680521D3F80C31DBE0082B00F0F280C9
:102F0000022B40F02681082384F87030002E00F058
:102F1000DA8023680521D3F80C3120469847D2E0A7
:102F200094F87830002B00F0148194F8753083F019
:102F3000010384F875303BB1002E00F00A8123684C
:102F40000A21D3F80C31D5E0002E00F0028123686D
:102F50000B21D3F80C31CDE094F87030012B00F048
:102F6000F88094F8763083F0010384F87630ABB1C2
:102F70002EB123680921D3F80C3120469847D4F8A4
:102F8000842094F870305200C4F88420002B00F0A4
:102F9000E080D4F88030C5EB430515E02EB12368FE
:102FA0000821D3F80C3120469847D4F8842094F8AF
:102FB00070305208C4F88420002B00F0CA80D4F886
:102FC00080305D1BA3EB5505C4F8805024E094F8D5
:102FD0007030012B00F0BD8094F8743083F0010351
:102FE00084F874302BB15EB123680721D3F80C311B
:102FF00004E02EB12368D3F80C310621204698470F
:1030000094F87030002B00F0A480E36FD4F8802097
:103010006D00EB1AC4F88030AD1AE567BDE8F081A9
:1030200094F87330002B00F094802EB123680C21AB
:10303000D3F80C312046984794F87030012B04D116
:10304000E36FEB1AC4F8843002E001D9042B05D1F8
:10305000D4F88430E5671D44C4F88050042384F814
:103060007030002371E094F8773083F0010384F826
:10307000773033B1002E6CD023680E21D3F80C3199
:1030800038E0002E65D023680D21D3F80C3131E0F3
:1030900094F8703084F87180802B3FF41FAF012BBF
:1030A00016D1022384F870302EB12368D3F80C3186
:1030B000032120469847E36FE567EB1A1D44C4F8E7
:1030C0008430C4F88050012384F87830BDE8F08162
:1030D000022B3FF418AF082B1EBFD4F88430ED1834
:1030E000C4F88050022384F8703096B32368D3F874
:1030F0000C3103212046BDE8F041184794F87330A5
:103100003BB394F87030012B01BFE36FE567EB1A16
:10311000C4F8843094F87130012B88BF80224FF0BE
:10312000000392BF84F8703084F8702084F8733004
:103130002EB123680221D3F80C3120469847002392
:10314000C4F8803094F87130013384F87130BDE8F0
:10315000F081BDE8F08190F89030032B0CD8DFE8C7
:1031600003F00B02050890F88D00704790F88E0070
:10317000704790F88F00704790F88C007047B0F857
:103180004A3010B56BB1B0F84440B0F842208C42E0
:1031900094BFC2EB0401C2EB010191FBF3F189B2D0
:1031A00000E01946A0F84610A0F8481010BD044AE7
:1031B0004379107801331B1A58425841704700BFB9
:1031C0000CD2FF1FF3E72DE9FF411E464B78044662
:1031D0000D461746002B40F088818B78012B40F07C
:1031E0008481CB78742B40F080814B79082B02D0FE
:1031F000642B40F0828094F84E20002A7DD12B79F8
:1032000084F89330102B72D8DFE803F0090F712394
:103210007132404655715B71717171716100B449D1
:10322000A01D1BF089FDB34918E0B349A01D1BF098
:1032300083FDB24904F10E001BF07EFD0023A4F8CB
:10324000423040F27F13A4F84430012384F87730F1
:103250004DE0AB49A01D1BF06FFDAA4904F10E0023
:103260001BF06AFD0023A4F8423040F27F133CE0DB
:10327000A549A01D1BF060FDA44904F10E001BF040
:103280005BFD0023A4F842307F232EE0A049A01D5F
:103290001BF052FD9F4904E09F49A01D1BF04CFD0F
:1032A0009E4904F10E001BF047FD0023A4F84230B4
:1032B00040F2FF2319E09A49A01D1BF03DFD9949FA
:1032C0000AE09949A01D1BF037FD984904E0984990
:1032D000A01D1BF031FD974904F10E001BF02CFDE1
:1032E0000023A4F8423040F2FF13A4F844303246E1
:1032F0002979204617F08EFEF7E094F82120B2429B
:1033000040F0F3802E7994F89320B24240F0ED80A3
:10331000102B18D00FD80E2B7DD00F2B40F0E5804E
:1033200004F13006844930466F1D05F115080CF094
:103330007CFF002520E0152B40D0292B63D0142BD7
:1033400040F0D38003E0002384F84F30CDE0AA7929
:10335000EB7943EAC213A28C934200F0C680A384A7
:103360002368E2849B6C20469847BBE045B9304611
:10337000FDF76AFF474509D017F8011F0029F5D16D
:1033800020213046FDF760FF0125F3E76B4B01225A
:103390001A7094F84030002B00F0A7803146684640
:1033A0000CF089FF4FF4167168460DF07BFD6846FE
:1033B0000CF052FB002384F8403096E0604E073555
:1033C00000204C2794F8612015F8013F5C4907FB69
:1033D00002620244013010285377F3D194F861302F
:1033E0004C225343CA18508EA28C904208D11944E3
:1033F0001D3104F130000CF024FF504B01221A70F3
:1034000015F052FF71E0AB7994F8F1209A426CD03C
:1034100084F8F13066E04FF000085D2284F8F38014
:10342000414604F194001BF0ADFA84F8F2804FF0AD
:10343000060E3A1F4FF0010C964553DA022E05EBAB
:103440000E000CD815F80E304778C17843EA0717FC
:10345000837843EA0113FFB2DBB2017917E0C17848
:10346000077990F80280C1F3C30343EA0717437852
:103470004901C3F3450343EA881301F06001C8F32F
:10348000840848EA010815F80E10FFB2DBB294F880
:10349000F200242B00F1010084F8F2000BD9253B47
:1034A000DBB25C2B07D811F0010F23440CBF0220C4
:1034B000012083F89400B8F1240F0AD9A8F125035C
:1034C00011F0020F54FA83F314BF0221012183F893
:1034D0009410A92F0EF1050E08BF84F8F3C05FFA0F
:1034E0008EFEA9E7174B02221A7004B0BDE8F081E6
:1034F000960902009A090200A9090200AE09020019
:10350000BF090200C3090200D8090200D009020065
:10351000DC090200E2090200F2090200F7090200D8
:10352000100A0200080A0200140A02001A0A020025
:10353000290A02002D0A02000C74020065D1FF1F47
:1035400010D2FF1F799DFF1FF0B50368B0F86470BB
:10355000D3F8A03091B00E46154604469847431E56
:103560009BB200223946304617F06EF8012DA4F8C0
:1035700064001BD12B490CA80CF0A8FE2368B4F8FA
:103580006410D3F884300CAA204698470CA908A8E8
:103590000CF091FE40F2DC5108A80DF083FC08A865
:1035A0000CF05AFA0CA80CF057FA36E01E4904A8A1
:1035B0000CF08CFEB4F8641008A801311AF0CEFAB1
:1035C00008A904A80CF0FCFD18490CF0EBFD2368D9
:1035D0000646D3F8A03020469847013890FBF5F115
:1035E0000CA801311AF0BAFA0CA930460CF0E8FD2B
:1035F000014668460CF05FFE4FF4167168460DF008
:1036000051FC68460CF028FA0CA80CF025FA08A822
:103610000CF022FA04A80CF01FFA054B02221A70D3
:1036200011B0F0BD0C7402003C0A0200460A020010
:10363000799DFF1F30B590F84D308DB00D46144682
:103640009BB908A81AF08AFA08A904A80CF033FE5E
:10365000164904A80CF0A6FD01462046FDF738FEE9
:1036600004A80CF0F9F908A81BE0B0F8481004A869
:103670001AF074FA04A968460CF01DFE294608A841
:103680001AF06CFA08A968460CF09AFD014620462B
:10369000FDF71EFE08A80CF0DFF968460CF0DCF917
:1036A00004A80CF0D9F90DB030BD00BF49240200C8
:1036B00070B5B0F84430828C994228BF19468A42CE
:1036C0008CB0044676D1494B93F82D30013B042B46
:1036D00000F28680DFE803F003090D106A00C18C58
:1036E0008A427FD0FFF7E4FF7CE000200FF03CFD32
:1036F00076E00FF003FA73E03D4B42791B789A4273
:1037000048D190F8525085F0010580F85250861D3E
:103710000DB303685B6F9847314668460CF0D6FDE1
:10372000694604A80CF0C7FD324904A80CF03AFD24
:10373000014608A80CF0BFFD4FF4167108A80DF063
:10374000B1FB08A80CF088F904A80CF085F96846CC
:103750000CF082F944E0314608A80CF0B7FD08A946
:1037600004A80CF0A8FD244904A80CF01BFD014698
:1037700068460CF0A0FD4FF4167168460DF092FB00
:1037800068460CF069F904A80CF066F908A80CF07A
:1037900063F928E003685B6F98476079FDF78CFC5C
:1037A000164A01231370164A137019E0CA200FF04D
:1037B000C5FB15E003685B6C98476079FDF77CFCFE
:1037C000104B1B680893089BE362B4F84830A4F8D8
:1037D00046300D4B0125002284F840501A7002E05B
:1037E000002500E0012528460CB070BD7CD9FF1FE4
:1037F0007889FF1F480A0200530A020065D1FF1FA3
:10380000938AFF1FE83000200CD2FF1F2E299DBF96
:10381000024B03EB4111087A0020704748790200FF
:103820002F207047036810B5D3F898300C4698479E
:10383000A0428CBF0220002010BD0820704738B580
:103840000368D3F898300D4614469847A84208D923
:10385000074B03EB451120460131BDE838400CF021
:10386000F0BC20460349BDE838400CF0DEBC00BF88
:10387000507902009528020038B50368D3F89830D3
:103880000C4615469847A04209D9084B152101FB63
:10389000043128460231BDE838400CF0D2BC28463D
:1038A0000349BDE838400CF0C0BC00BF640A020008
:1038B0009528020010B5044616F089FE02232371F4
:1038C0001949A01D1BF038FA184904F10E001BF02D
:1038D00033FA4FF42472A4F84420042284F85020D0
:1038E000282284F893200A2262650322E2770822C4
:1038F00084F82020012284F85220CE2284F88C20E3
:10390000D022002384F88D20D22284F8943084F8C9
:10391000953084F8963084F8973084F88E2084F8B7
:103920008F30A4F8423010BD840B0200890B0200D6
:1039300010B5044616F04BFE022323711449A01D56
:103940001BF0FAF9134904F10E001BF0F5F962229D
:10395000A4F84420042284F85020E277012284F85D
:10396000202084F85220CD2284F88C20D0220023FD
:1039700084F88D20D122052184F8933084F8943086
:1039800084F88E2084F88F30A4F84230616510BD31
:10399000960B02009B0B020010B50C460AB990F87A
:1039A0006A20022A05D880F861400722034913F0F3
:1039B00042FF20460BF0B4FD002010BD0C18022081
:1039C0000C224FF0005113F036BFB0F84430934250
:1039D00010B514D3013292B25309203302F01F0202
:1039E00002EB83139B040122C36580F8602080F8FA
:1039F00061100C22194613F01EFF002010BD01209B
:103A000010BD10B501220446002113F014FF0C2252
:103A10004FF00051204613F00EFF012384F86A3066
:103A2000236820469B6C9847034B02221A700023A0
:103A300084F8953010BD00BF799DFF1F38B590F810
:103A400021509D42044615D190F82030934211D167
:103A5000838C89B28B420DD0C38481840C224FF0B9
:103A6000005113F0E8FE236820469B6C9847024BF8
:103A700002221A7038BD00BF799DFF1F38B5037947
:103A8000022B044611D190F84E5075B1144D80F8B8
:103A9000603005EB421280F861105568C5651A4622
:103AA000294613F0C8FE002038BD17290D480BD851
:103AB0004C2303FB010255786F2D05D101FB033325
:103AC000034493F8493003E04C2202FB0102002337
:103AD000204692F849200CF065FD012038BD00BF5A
:103AE0004879020010D2FF1F38B50C4C15464C2205
:103AF00002FB0144627A82B902222E2BE27109D8BC
:103B0000074A02EB4313EA79596813F04EFEEB794A
:103B100084F84930034B01221A7038BD10D2FF1FC0
:103B200048790200799DFF1F38B50D4B93F82D3071
:103B3000042B044612D190F852507DB990F85130C0
:103B400063B180F851502A46064913F02EFE2A46EA
:103B500020460549BDE8384013F027BE38BD00BFF8
:103B60007CD9FF1F001000200408002010B590F839
:103B70004E3090F8932080F851300446054913F0F8
:103B800014FE94F8942004492046BDE8104013F038
:103B90000CBE00BF001000200408002090F84E303A
:103BA00010B5044653B10022054913F0FEFD20462E
:103BB00000220449BDE8104013F0F7BD10BD00BF5E
:103BC0000200007F0100007F90F84E3010B50446DF
:103BD00053B10122054913F0E8FD204602220449B1
:103BE000BDE8104013F0E1BD10BD00BF0100007F33
:103BF0000200007F38B590F8953004460D4683B931
:103C000028220A4913F017FE28220949204613F0FA
:103C100012FE20220749204613F00DFE84F8615061
:103C200038BDBDE8384014F0F5BC00BF00200220CC
:103C30002820022050200220034B03EB41110131C8
:103C40001046FDF737BB00BF5079020070B51C4627
:103C50000368D3F898300E4615469847B04204D909
:103C6000012D0CBF0449054900E005492046BDE887
:103C70007040FDF71FBB00BF500A0200A60B0200F8
:103C80009528020070B590F84D300D468CB0064670
:103C900014465021B3B904A80CF002FB294608A829
:103CA00019F05CFF08A904A80CF08AFA17490CF077
:103CB00079FA01462046FDF70BFB08A80BF0CCFE75
:103CC00004A81FE068460CF0EBFAB6F8481004A808
:103CD00019F044FF04A968460CF072FA294606461A
:103CE00008A819F03BFF08A930460CF069FA014614
:103CF0002046FDF7EDFA08A80BF0AEFE04A80BF085
:103D0000ABFE68460BF0A8FE0CB070BD4924020063
:103D10002DE9F0418CB00C4668465021174601341D
:103D20000CF0BEFA0A2604A894FBF6F5294619F011
:103D300015FF04A968460CF043FA06FB15418046BE
:103D400008A819F00BFF08A940460CF039FA014603
:103D50003846FDF7BDFA08A80BF07EFE04A80BF06C
:103D60007BFE68460BF078FE0CB0BDE8F08138B5FC
:103D7000002380F8533090F84E3080F85130144BC7
:103D80001B78044633B1052013F0DCFB2368204682
:103D90005B6B98470F4B104901251D700F4B1D7031
:103DA000002384F895302A46204613F044FD2A4625
:103DB00020460B4913F03FFD236884F853502046FA
:103DC0001B6D98472046BDE83840FEF74DBF00BF49
:103DD0007CD9FF1F938AFF1F0010002065D1FF1FB1
:103DE000040800202DE9FF4190F84E300746DBB370
:103DF0001F4B1022002168469D791AF0C3FDF02365
:103E00008DF8003041238DF8013005238DF8063000
:103E100012234FEA25188DF8073005F00F05F72318
:103E20008DF80F30C5F1570497F823308DF8023024
:103E3000C8EB040420238DF80830012608233846F7
:103E4000E4B28DF80A308DF80B608DF80C808DF897
:103E50000D508DF80E4016F0DFFB334697F8212009
:103E60001021684618F0E8FE04B0BDE8F08100BFFC
:103E70007CD9FF1F10B44A79412A10D18A79052ACA
:103E80000DD1CA79032A0AD1002280F84F2090F878
:103E90004E2022B91A46897810BC17F0BBB810BC66
:103EA000704708B5034608460AB993F86A20012A04
:103EB00001D1064902E0022A03D105490BF0AEFA0E
:103EC00001E00BF02DFB012008BD00BFAA0B020092
:103ED000B40B0200F0B590F86A3085B004460E4687
:103EE000002B39D00133DBB290F81821022B88BFA8
:103EF00001230E2A80F86A300CD8184B03EB82039A
:103F0000D3F8A81031B190F86A20931E5A425A4152
:103F100013F04BFC124F4C2101FB06F57B192922B3
:103F20005A8694F818210023314620460CF03AFBBB
:103F300079191D3168460CF0C9F94FF416716846BD
:103F40000CF0B0FF68460BF087FD314620460CF0C0
:103F5000C3FB044B01221A7005B0F0BD640A0200D5
:103F600010D2FF1F799DFF1FF0B5044685B00D46A6
:103F700017461E460BB990F86A60002039460BF0D0
:103F8000E9F8652017FB00F2012E4FEAD21202D1A8
:103F900094F8161103E0022E0CD194F817110E2993
:103FA00008D8114B03EB8103D3F8E41011B120467C
:103FB00013F0FBFB294620460CF08EFB0B4B4C21EB
:103FC00001FB0531053168460CF080F94FF416719C
:103FD00068460CF067FF68460BF03EFD044B01227B
:103FE0001A7005B0F0BD00BF640A020028D2FF1F9E
:103FF000799DFF1FF0B51E4E4C2303FB016307465E
:1040000093F8300085B00C4630B197F8213097F81E
:104010002020002118F0B4FE4C25654373195A7A0C
:104020001ABB93F83D20B2B10222DA71214693F80F
:104030003E20384615F0F4FE0D4929441D316846EE
:104040000CF044F968464FF416710CF02BFF6846EB
:104050000BF002FD00E0DA714C2303FB046494F8DA
:104060003D3013B1034B01221A7005B0F0BD00BF03
:1040700010D2FF1F799DFF1FF0B51E4C0E464C233A
:1040800003FB0643074693F8300085B011462546EA
:1040900028B197F8213097F8202018F071FE4C23B2
:1040A00003FB065393F83D2052B1DA79012A0CBF85
:1040B00093F8402093F83E203146384615F0B0FE84
:1040C0004C2303FB06F429191D3168460CF0FEF859
:1040D0002C444FF4167168460CF0E4FE68460BF071
:1040E000BBFC94F83D3013B1034B01221A7005B0AC
:1040F000F0BD00BF10D2FF1F799DFF1F70B51C4699
:10410000036888B0D3F898300E4615469847B042F9
:1041100056D92E4B03EB4611498B0BB2002B4ADDCF
:1041200047F6164399420AD047F61743994204D0FE
:1041300047F6154399422DD106E0294600E0690073
:1041400004A819F00BFD2EE03F2D06D82049684643
:104150000CF0BCF8C5F132010AE0402D01D11D4937
:104160002FE031D91C4968460CF0B0F8A5F13201B6
:1041700004A819F0F3FC04A968460CF021F80146E4
:104180002046FDF7A5F804A80BF066FC68460BF086
:1041900063FC19E029440139104B01EBC1011944BA
:1041A00004A80CF093F804A92046FDF791F804A8A0
:1041B0000BF052FC08E0012D0CBF0949094900E051
:1041C00009492046FDF776F808B070BD487902002D
:1041D0003FEC0200AE080200320802000F39020074
:1041E000500A0200A60B0200952802002DE9F04FAC
:1041F0002D4D88464C2606FB085689B0814611464F
:1042000040461C460EF00CFD737AFF2B48D02E2C36
:1042100046D8DFF8A0B064010BEB040AC7B23A46F7
:10422000DAF80410484613F0C0FA3A4641464846C8
:1042300086F8497015F0F4FD1C4904A80CF046F806
:104240007378662B0DD05146093104A80BF0F9FFA5
:10425000BAF91A30002BD4BF20213A2104A8FCF768
:10426000F3FF4C2303FB08F429191D3104A8FDF7C3
:1042700021F804A968460CF01EF82C444FF416717E
:1042800068460CF00FFE68460BF0E6FB637A062BDF
:104290001CBF074B012204A818BF1A700BF0DCFBEF
:1042A00009B0BDE8F08F00BF10D2FF1F0C740200F0
:1042B000799DFF1F487902002DE9F04F914690F853
:1042C00021209A4285B004460D4640F055814B7836
:1042D000412B40F051818A7890F823309A4240F087
:1042E0004B81CB78002B40F047810B79002B40F0BD
:1042F00043814E79002E40F03F818B79052B40F0B1
:104300003B81CB79122B40F037814B7A0F7A1B041B
:1043100003EB07678B7A07EB0323CF7AA9F102013E
:104320001F4408238B4205DAEA5C01331644B6B217
:10433000DBB2F7E705EB0903764213F8028C06F0CF
:104340007F067FB9B0450DD1A38C2A7B9A4209D054
:10435000E3842B7BA384236820469B6C9847884B7F
:1043600002221A70E36D9F425DD1B04502D014F075
:104370004DFC01E194F86030012B0AD053D3032B9C
:1043800051D86B7B2A7B94F8611020460CF00AF917
:1043900046E0B9F11A0F40D1DFF8E89105F10B0EB4
:1043A00000204FF04C0A94F861101EF801CF754AB6
:1043B0000AFB0191014401300C284FF04C0381F8B5
:1043C0001DC0F0D194F8610003FB0020202180F88B
:1043D000291094F8610003FB002080F82A1094F85B
:1043E000610003FB002080F82B1094F8610003FBB0
:1043F000002080F82C1094F861104B43D118488E9F
:10440000A18C88420CD1D1181D3104F130000BF081
:1044100018FF5D4B01221A7002E014F0F7FBA3E0D5
:1044200014F042FFA0E0B7F1005F2ED1B04540F09C
:10443000A38004F13009554948460BF0F6FE05F11A
:104440000B0A05F1170B1AF8011F4846FCF7FCFE92
:10445000DA45F8D14E494846FCF72CFF4A4B012279
:104460001A7094F84030002B47D0494668460BF04C
:1044700022FF4FF4167168460CF014FD68460BF0ED
:10448000EBFA002384F8403037E0424B9F4212D1D0
:10449000B04571D12B7B84F81831AB7B84F8163191
:1044A000EB7B84F8173194F8611020460CF014F976
:1044B00014F0FAFE23E0B0455ED1374B9F420CD199
:1044C00005F10B0304F1950205F1330113F8010F17
:1044D00002F8010F8B42F9D128E0304B9F420ED1F8
:1044E00005F10B0304F1BD0205F1330113F8010FCF
:1044F00002F8010F8B42F9D118E0B0453CD1284BAE
:1045000094F861109F4211D105F10B0304F1E5020B
:1045100005F12B0013F8016F02F8016F9842F9D1F1
:10452000012384F89530204614F074F894F8533041
:1045300013B36B7A2A7A1B0403EB0263AA7A03EBA8
:104540000223EA7A1344174A934203D12B7B84F85F
:10455000933011E0144A93420ED12B7B84F89430AF
:10456000002384F8533007E0B7F1005F3FF461AFF8
:10457000084B9F42A1D18DE705B0BDE8F08F00BF89
:10458000799DFF1F10D2FF1F65D1FF1F0C74020021
:10459000087402000C1802200020022028200220AB
:1045A00050200220001000200408002070B588B0C0
:1045B00006461C461F49684615460BF087FE0CB997
:1045C00096F86A40012C05D131216846FCF73CFE83
:1045D000332406E0022C27D132216846FCF734FE52
:1045E0003424294600200AF0B5FD96F8213096F8CB
:1045F00020202946204618F0C3FB3A216846FCF7E4
:1046000023FE694628460AF059FE694604A80BF0C5
:1046100052FE4FF4167104A80CF044FC04A80BF0F1
:104620001BFA054B01221A7068460BF015FA08B008
:1046300070BD00BFBE0B0200799DFF1F2DE9F04F3A
:10464000174690F821209A4293B005460C4640F058
:104650003E824B78412B40F03A828A7890F82330A2
:104660009A4240F03482CB78002B40F030820E79B1
:10467000002E40F02C824B79532B40F028828B790E
:10468000122B40F024820B7A91F807801B0403EB75
:1046900008684B7A08EB032391F80A80B91E984406
:1046A00007238B4205DAE25C01331644B6B2DBB273
:1046B000F7E7E3197642B8F1807F13F8029C06F021
:1046C0007F0617D1B14515D1AB8C227B9A4211D010
:1046D000EB84E27A237B03EBC213B3F5006F28BFB0
:1046E000A3F2D763AB842B6828469B6C9847C74BD3
:1046F00002221A70EB6D984540F0D380B14502D08C
:1047000014F084FAE3E195F86030022B31D0032BEA
:104710004DD0012B40F0C5801D2F27D1DFF8F0E2EE
:1047200004F10A0300204FF04C0C95F8612013F8B7
:10473000017FB7490CFB02E2024401301028577791
:10474000F3D195F861304C225343CA18508EAA8C8D
:10475000904208D119441D3105F130000BF071FD74
:10476000AC4B01221A7014F09FFD9AE014F04EFA3F
:1047700097E0237BE27A95F8611028460BF0D4FF8E
:10478000EA6DA54B9A42EED1217BA14A95F86130A2
:10479000012902D1A17B012900E00F294FF04C0132
:1047A00001FB03230CBF002201225A72DBE7002326
:1047B0000293039304938DF8143094F80DE0A37BD7
:1047C000217CE07C95F8617094F80BC094F816A0F9
:1047D00003EB0E1E637C03EB0111237D03EB001042
:1047E0008B4B4C2202FB07325FFA8EFE92F8302090
:1047F00002F1FF3BBBF11E0F9CBF0832D2B2A2F107
:10480000400BBBF11F0F9CBF183AD2B2BCF1010F95
:10481000C9B2C0B240F0CD8094F815B0934540F0D5
:10482000C8804C2202FB0732814282F83DC082F8E8
:1048300009A080F0FF80A2F84000D1871FFA8EF215
:104840004C21019201FB07310022DFF8E4E10091E5
:1048500010464FEA421C0CEB0E0A01993CF80EC0C0
:104860008C451FFA82FB06D10099DAF804008863B0
:10487000A1F832B0012001322E2AEAD14FF04C0AC1
:104880000AFB073A002800F0D980DAF83810E96509
:10489000022285F86020284613F0CBF802A80BF01E
:1048A000DBF8A379122B2BD15C4B98452BD1B1456A
:1048B00059D105F130075A4938460BF0B6FC04F1DE
:1048C0000A0A04F11A0B1AF8011F3846FCF7BCFC5F
:1048D000DA45F8D14F4B01221A7095F84030A3B158
:1048E00039460EA80BF0E7FC4FF416710EA80CF039
:1048F000D9FA0EA80BF0B0F8002385F8403004E098
:10490000B14516D101E0B14517D195F8533083B1C7
:10491000237AE2791B0403EB0263627A03EB02233E
:10492000A27A13443F4A934240F0B980E37A85F873
:104930009430A379122B40F0CA80B8F1C05F12D135
:10494000E37A012B0FD1B1450DD185F899300C23B5
:1049500085F89330B5F84430B3F5CA7F84BF4FF47F
:10496000CA73A5F84430A379122B40F0B0802E4BC7
:10497000984540F0AC80B14540F0A980E37A85F8D5
:104980009A3094F8223085F89B3094F83A3085F8C4
:104990009C3094F8393095F86110012B0CBF02233C
:1049A000012385F86A3028460BF086FF14F07CFC62
:1049B0008DE04FF04C0A0AFB073A00238AF83D309D
:1049C0008AF807308AF80930F0238AF82E30174920
:1049D0000AA80BF07BFC9AF830100EA80BF04DFCE7
:1049E0000EA90AA80BF0ECFB014602A80BF03FFC55
:1049F0000EA80BF031F80AA80BF02EF802A93846E1
:104A00000AF036FD14F050FC48E700BF799DFF1F07
:104A100010D2FF1F65D1FF1F110000180100001800
:104A20000C740200032000181F000018C70B0200BE
:104A3000287F0200A2F84010D087FFE6FF23AAF8E3
:104A40003230F0238AF82E30224906A80BF03EFCC3
:104A50009AF830100AA80BF010FC0AA906A80BF06F
:104A6000AFFB1D490BF09EFB9AF83C1083460131C9
:104A70000EA819F073F80EA958460BF0A1FB2921D6
:104A800082460BF0A5FB514602A80BF0F0FB0EA8E6
:104A90000AF0E2FF0AA80AF0DFFF06A8ACE70F4A17
:104AA000934203D1E37A85F8953042E70C4A93426A
:104AB00003D1E37A85F896303BE70A4A934201BF77
:104AC000E37A85F89730002385F8533031E713B047
:104AD000BDE8F08FC70B0200CB0B020003210018CA
:104AE0000A100018320200182DE9F04190F84E70BB
:104AF0009DF8185004469FB390F82160AE422FD124
:104B000090F820509D422BD13C290AD1838C92B23F
:104B1000934225D0C384036882849B6CBDE8F04136
:104B200018471048DFF840C0057800239C341E4623
:104B30004FF00A0E0EFB03C898F80680884508D18E
:104B40000BB104F8092C151C18BF012525703E4631
:104B500002250133092B04F10104EBD106B10570E4
:104B6000BDE8F081799DFF1FA11702000120704769
:104B700090F86A3063B10133DBB2022B98BF80F842
:104B80006A30044B4FF0010288BF80F86A201A7027
:104B9000704700BF799DFF1FA1F10E02012A10B5D9
:104BA0000C4608D90368D3F898309847844234BF3C
:104BB0000220002010BD802010BD102070477047DB
:104BC00038B590F821509D420FD190F82030934293
:104BD0000BD1838C89B28B4207D0C3840368818454
:104BE0009B6C9847014B02221A7038BD799DFF1FBC
:104BF00030B50379022B85B005460C4624D1134A03
:104C000010685168128901AB03C328461A8015F059
:104C100003FD14B92346224612E0012C02D10023E1
:104C200010220DE0022C02D10023202208E0032CE8
:104C300002D10023302203E0042C05D100234022BE
:104C40000A2101A817F0F8FF05B030BDD20B020011
:104C500030B44D7995B98A79012A0FD1CA790C2AD5
:104C60000CD10A7A0E2A09D190F84E2080F84F50C4
:104C700022B91A46897830BC16F0CCB930BC7047DE
:104C8000D0F8A83007B53BB1054A12680192019AE5
:104C9000934201D213F09EF803B05DF804FB00BF0D
:104CA000E83000202DE9F04F8BB098468B7800AFAC
:104CB000112B05460C46FA6040F09C81CB78222BE4
:104CC00040F098810B79662B40F0948190F8213068
:104CD000434540F05A818B79702B40F05681CB7957
:104CE000062B39D10A7AB0F862309A4234D1FB6887
:104CF000702B2FD18A46C14A1AF84D6F102E28BF4B
:104D000010264FF000094FF04C0B5FFA89F3B342C5
:104D100003D3BA494C2020220EE01AF8010FBA60E2
:104D200015F0A8FA95F86130BA680BFB03234B44E1
:104D300009F101095877E8E7102E08D095F861309D
:104D400000FB0313334401365A77F6B2F4E714F04C
:104D5000ABFA01E013F05AFFE379122B40F0D68052
:104D6000FB68702B40F0CF802146284613F02AFDC7
:104D7000B5F8AC1095F82400FCF7B4FD002840F01D
:104D80009E800646F3B2B5F8AC1018469946FCF77B
:104D9000A9FD002800F08B8095F82460C7F804D0A6
:104DA000232E00F28C8009F539631B019BB29946D2
:104DB0004FEA292BFBF726FD5021914817F0DEFC26
:104DC000584617F0CBFC09F0F0031846BB6017F00B
:104DD000C5FC8B4817F030FA0B2017F0AEFC00230F
:104DE000FB6007F11C0917F0BFFCFB6809F8030022
:104DF00001330B2BFB60F6D106F539663601B6B2EE
:104E0000FBF700FD4FEA262A50217D4817F0B6FC3B
:104E100006F0F006504617F0A1FC304617F09EFC55
:104E2000774817F009FAF86817F087FC0023FB6051
:104E300017F09AFCFB6807F11002D05401330B2BDA
:104E4000F5D1FBF7EFFC50216D4817F097FC584661
:104E500017F084FCB86817F081FC00239B4607F12B
:104E6000100212F80B0017F073FC5B4601330B2B9A
:104E70009B46F4D1624817F0DFF9FBF7D3FC5021D1
:104E80005F4817F07BFC504617F068FC304617F07F
:104E900065FC002619F80600013617F059FC0B2EA8
:104EA000F8D1574817F0C8F9D7F804D007E0013611
:104EB000242E7FF467AF534B186058601872224657
:104EC00005F1A50012F8093F85F89330002385F815
:104ED0009C30012605F19D0312F8011F002900F006
:104EE000878003F8091C1E7001338342F4D1464ABF
:104EF00002211170454A012385F8A6301370002362
:104F0000C5F8A83002E0284612F064FFE379182BB8
:104F10000DD1AB8C227A9A4209D0EB84237AAB84F0
:104F20002B6828469B6C9847374B02221A70E3790E
:104F3000202B0AD1637AA27A2B4483F89320012292
:104F400083F89C20304B02221A70E3791D2B08D184
:104F5000A37A85F89630012385F89F302A4B0222E8
:104F60001A70E3790E2B10D12846214613F02AFC43
:104F7000207A232803D8B5F8AC1010F0AFFD637A7F
:104F800085F89330204B02221A70A379102B31D16F
:104F9000E379562B2ED1237A302B2BD1637A312B08
:104FA00028D1A37A5F2B25D1E37A322B22D1237B20
:104FB000302B1FD1637B312B1CD1A37B392B19D113
:104FC000E37B312B16D1237C312B13D1637C302B27
:104FD00010D1A37C362B0DD195F84E3023B9424623
:104FE0006179284616F016F8002385F84F3001E065
:104FF000197079E72C37BD46BDE8F08F10D2FF1F3E
:10500000A8230020EB2E0020799DFF1F938AFF1F0D
:1050100010B5044615F0DBFA022323711249A01DD6
:1050200019F08AFE114904F10E0019F085FE47229D
:10503000A4F84420042284F8502005226265062248
:10504000E277012284F8202084F82120E322002343
:1050500084F88C20D02284F88D2084F88E3084F857
:105060008F30A4F8423010BDFB150200F715020086
:1050700010B5044615F0ABFA022323711549A01DA3
:1050800019F05AFE144904F10E0019F055FE0B22D6
:10509000A4F84420042284F850200622E27701225A
:1050A00084F82020D622002384F88C20D722A4F86C
:1050B0004230636584F88E3084F88F3084F89930FC
:1050C000C4F89330E36684F88D20044BC4F888302C
:1050D00010BD00BF071602000116020080C3C901FF
:1050E0000E2910B40BD8074B90F8202003EB410495
:1050F00090F82130E17AA07A10BC17F041BE10BCC4
:10510000704700BFD20B020090F84E3010B5044635
:1051100053B190F8213090F820200021452017F05D
:105120002FFE002384F8993010BD90F84E3010B552
:10513000044653B190F8213090F820207F2145207B
:1051400017F01EFE012384F8993010BD90F84E3000
:105150003BB190F8213090F820207F21402017F0BB
:105160000FBE704710B50AB990F86A20012A03D023
:10517000022A0ED10F2200E00E22084C4C2303FB22
:10518000014392B25A860368BDE81040D3F89430C8
:10519000184708460AF0C4F9012010BD10D2FF1FBD
:1051A000F8B505460E4613B990F86A30D3B11146EA
:1051B00000200D4C09F0CEFF4C2303FB06440523D1
:1051C00063727F220123002130460DF053FD2B68CE
:1051D0000022D3F88C70638E31462846B847034BC3
:1051E00001221A70F8BD00BF10D2FF1F799DFF1F6A
:1051F000034B172000FB01311046FCF75BB800BFE2
:10520000FA0B020038B50368D3F898300D461446FF
:105210009847A84208D9074B172101FB05312046C2
:10522000BDE838400BF00DB820460349BDE83840D2
:105230000AF0FBBFFA0B020095280200F8B51C4DDE
:105240000C46172101FB0451074611311046164642
:10525000FCF730F80B2C2AD83A213046FBF7F4FF44
:10526000144BBA8C1B682D2101FB02331C441327FD
:10527000607D94F82140002305F5B87507FB03F124
:10528000DAB211F805E0864504D1294491F801E02D
:10529000A64503D00133712BF0D102E00AB10231EF
:1052A00000E005493046BDE8F840FCF703B8F8BD1A
:1052B000FA0B0200E892FF1FC628020090F84E3059
:1052C00080F85130084B1B7833B190F897300A2B97
:1052D00082BF064B00221A70054A01231370054A4B
:1052E0001370FDF7C1BC00BF7CD9FF1F859DFF1F58
:1052F000938AFF1F65D1FF1F10B5034C206819F07A
:1053000041FD0023236010BDE892FF1F37B5144D07
:105310002B68044623B94FF4077019F02BFD286061
:1053200000214FF40772286819F02CFB0D4A12680F
:105330000192019A02F5FA72E2660B4A002384F8A0
:10534000973084F898301370236820469B6C9847F8
:10535000012384F86A30054B02221A7003B030BD75
:10536000E892FF1FE83000202089FF1F799DFF1F72
:1053700090F84E3010B5044693B10379022B0FD14B
:1053800090F8993063B990F84F2090F850309A42D5
:1053900001D315F0DDFD94F84F30013384F84F3020
:1053A00010BD38B590F821509DF81040A54230D17D
:1053B00090F820409C422CD1A1F10B03DBB20B2BC7
:1053C00012D80321B3FBF1F1CCB222B101EB4101C0
:1053D0005B1A5A1CD2B20F4B818C1B682D2000FB2C
:1053E000013323445A7408E040290AD112F08CF8A2
:1053F000094B186000200DF0B7FE084B02221A700E
:1054000038BD452905D1402A94BF0022012280F8E9
:10541000992038BDE892FF1F9C9DFF1F799DFF1FBB
:1054200070B590F84E3086B0044693B3C36E6BB33C
:10543000194E32680192019A934227D20025F02238
:1054400003958DF80C2001228DF80E200C228DF88A
:105450000F200E2204958DF81020032290F897302B
:105460008DF81220F7228DF814208DF8133090F863
:1054700021202B46092103A817F0DEFB3368029395
:10548000029B03F57A73E366044B1D702046FDF71B
:10549000F9FB06B070BD00BFE83000202089FF1F77
:1054A000F8B51C46A1F10E03012B0E46154605D892
:1054B00021461046BDE8F84010F078BB0368D3F8E9
:1054C00098309847864204D2012D0CBF0449054903
:1054D00000E005492046BDE8F840FBF7EBBE00BF01
:1054E000500A02000B16020012160200F0B50B2B38
:1054F00085B00D461C4617D8344B828C1B682D2175
:1055000001FB02310323B4FBF3F303EB430211FA73
:1055100083F3A21A597C92B20132914207BF00264E
:105520005E745A7401261CE0102B19D80C3B0344FE
:105530000C2C93F8932082F0010283F8932003D17E
:10554000002280F8942004E00D2C04BF002280F893
:10555000932093F89330002B14BF0126022600E01D
:1055600000261B4990F820204FF04C0E0EFB051E24
:105570000F469EF80930052B90F82130154805D1CB
:10558000172101FB04049EF8421006E01721012EAA
:1055900001FB04040CBF7F21002194F83E0017F0AA
:1055A000EFFB4C2101FB05711D3168460AF08EFEB0
:1055B0004FF4167168460BF075FC68460AF04CFA19
:1055C000054B01221A7005B0F0BD00BFE892FF1F25
:1055D00010D2FF1FD20B0200799DFF1F30B50B4B7D
:1055E0001B6885B00D462D21144601FB023168462B
:1055F0000AF06CFE0B2C03D86946284609F038FFE8
:1056000068460AF029FA012005B030BDE892FF1F74
:10561000F0B585B005460C4616465E4968460AF068
:1056200055FE0EB995F86A60721E5B4E052A00F2AF
:10563000A180DFE802F003050709275D574917E05D
:10564000574915E0574913E095F86F311BB9564992
:10565000204609F0E3FE95F86F31012B03D1534941
:10566000204609F0DBFE95F86F31022B03D150493B
:10567000204609F0D3FE4C2303FB0464EA7F84F840
:105680002E2080E095F86A214A4B134493F8FB39A9
:105690004BB3494931F812704849013F3B446846D1
:1056A0009FB20AF0C2FD95F869311BB928216846FE
:1056B000FBF7CAFD424B0E2101FB07310231684660
:1056C000FBF7F8FD95F869311BB929216846FBF70E
:1056D000BBFD2046694609F0CBFE4C2303FB046466
:1056E00095F86A2134E04C2303FB0466172238E066
:1056F00095F86C212F4B134493F8FB396BB32E496B
:1057000031F812702F49013F3B4468469FB20AF0BE
:105710008CFD95F86B311BB928216846FBF794FD89
:10572000274B0E2101FB073102316846FBF7C2FD12
:1057300095F86B311BB929216846FBF785FD20469A
:10574000694609F095FE4C2395F86C2103FB04642F
:105750001D4B03EB42035B7813E04C2303FB046611
:1057600046222B6872862146D3F894302846984703
:10577000044609E0204609F0D3FE4C2303FB0464F1
:10578000002384F82E30012468460AF065F920468B
:1057900005B0F0BD0C74020010D2FF1F16160200F7
:1057A000201602003B9302002A1602003416020063
:1057B00040160200D20B0200ACD9FF1F4D160200AA
:1057C0000097020052160200BE450200F0B590F8A4
:1057D00021209A428DB004460D4640F011824A784D
:1057E000002A40F00D828B78012B40F00982CB78A3
:1057F0000C2B40F005820B790E2B40F001824B7987
:10580000012B40F0FD8190F898308979994200F29F
:10581000F781013380F8983080F84F20AB79023B54
:105820000D2B00F2ED81DFE813F00E0079009100FE
:10583000A900E300FB0024013C0154018E01EB01AF
:10584000EB01EB01AB01CC4B05F108011E68002315
:1058500094F8972011F8017F02EB4202F018C2EB96
:1058600002120133072B8754F2D105F1100194F88D
:10587000972011F8017F02EB4202F018C2EB0212EE
:1058800001330E2B8754F2D194F897306A7E03EBE4
:105890004303C3EB031333449A7394F89730AA7EFF
:1058A00003EB4303C3EB03133344DA7394F8971009
:1058B000A38C8B420BD101EB4101C1EB01113144AF
:1058C00004F130000AF0BDFCAC4B01221A7095F8CF
:1058D0005630012B94F8973008BF95F8572003EB0A
:1058E0004303C3EB031333440CBF013200225A7449
:1058F00094F8973095F85F2003EB4303C3EB031351
:10590000334483F8212094F8973095F8622003EB14
:105910004303C3EB03131E44727571E190F89720A3
:10592000954B02EB4202196895F84430C2EB021223
:105930000A4482F8223090F8973095F8462003EB1D
:105940004303C3EB03130B449A7559E190F8972076
:10595000894B02EB4202196895F82930C2EB02121A
:105960000A4482F8233090F8973095F82B2003EB07
:105970004303C3EB03130B44DA7541E16B7B7E4AAF
:10598000012B90F89730116803EB4303C3EB03132B
:105990000B440ABFA97B00210131997490F897301C
:1059A0001168AA7D03EB4303C3EB03130B4483F895
:1059B000242090F897206B7E02EB4202C2EB021289
:1059C0000A44137690F8972095F88D3002EB420246
:1059D000C2EB02120A4482F8253090F8973095F80D
:1059E0008F2003EB4303C3EB03130B445A7607E109
:1059F00090F89720604B02EB4202196895F87230DC
:105A0000C2EB02120A4482F8263090F8973095F8DB
:105A1000742003EB4303C3EB03130B449A76EFE0CC
:105A200095F85630544A012B90F89730116803EBE3
:105A30004303C3EB03130B440ABF95F8571000212F
:105A40000131D974116890F8972095F85F3002EB16
:105A50004202C2EB02120A4482F8273090F89730D3
:105A600095F8622003EB4303C3EB03130B44DA7690
:105A7000C6E090F89720404B02EB4202196895F877
:105A80004430C2EB02120A4482F8283090F8973072
:105A900095F8462003EB4303C3EB03130B441A773B
:105AA000AEE090F89720344B02EB4202196895F86B
:105AB0002930C2EB02120A4482F8293090F897305C
:105AC00095F82B2003EB4303C3EB03130B445A77E6
:105AD00096E06B7B284A012B90F89730116803EB16
